{
  "_format": "hh-sol-artifact-1",
  "contractName": "CrossErasMemory",
  "sourceName": "contracts/core/crossErasMemory/CrossErasMemory.sol",
  "abi": [
    {
      "inputs": [],
      "name": "OnlyActiveEra",
      "type": "error"
    },
    {
      "inputs": [],
      "name": "OnlyActiveGame",
      "type": "error"
    },
    {
      "inputs": [],
      "name": "OnlyWorldAssetFromActiveEra",
      "type": "error"
    },
    {
      "inputs": [],
      "name": "OnlyWorldAssetFromOldEra",
      "type": "error"
    },
    {
      "anonymous": false,
      "inputs": [
        {
          "indexed": false,
          "internalType": "uint8",
          "name": "version",
          "type": "uint8"
        }
      ],
      "name": "Initialized",
      "type": "event"
    },
    {
      "anonymous": false,
      "inputs": [
        {
          "indexed": false,
          "internalType": "uint256",
          "name": "bannerId",
          "type": "uint256"
        },
        {
          "indexed": false,
          "internalType": "address",
          "name": "settlementAddress",
          "type": "address"
        }
      ],
      "name": "SettlementByBannerIdUpdated",
      "type": "event"
    },
    {
      "anonymous": false,
      "inputs": [
        {
          "indexed": false,
          "internalType": "uint64",
          "name": "position",
          "type": "uint64"
        },
        {
          "indexed": false,
          "internalType": "address",
          "name": "settlementAddress",
          "type": "address"
        }
      ],
      "name": "SettlementOnPositionUpdated",
      "type": "event"
    },
    {
      "inputs": [
        {
          "internalType": "uint256",
          "name": "bannerId",
          "type": "uint256"
        },
        {
          "internalType": "uint64",
          "name": "regionId",
          "type": "uint64"
        },
        {
          "internalType": "address",
          "name": "settlementAddress",
          "type": "address"
        },
        {
          "internalType": "bool",
          "name": "isNewSettlement",
          "type": "bool"
        }
      ],
      "name": "addUserSettlement",
      "outputs": [],
      "stateMutability": "nonpayable",
      "type": "function"
    },
    {
      "inputs": [
        {
          "internalType": "uint64",
          "name": "regionId",
          "type": "uint64"
        },
        {
          "internalType": "uint256",
          "name": "settlementPrice",
          "type": "uint256"
        },
        {
          "internalType": "uint256",
          "name": "lastUpdateTime",
          "type": "uint256"
        }
      ],
      "name": "changeRegionSettlementPrice",
      "outputs": [],
      "stateMutability": "nonpayable",
      "type": "function"
    },
    {
      "inputs": [
        {
          "internalType": "address",
          "name": "worldAddress",
          "type": "address"
        }
      ],
      "name": "init",
      "outputs": [],
      "stateMutability": "nonpayable",
      "type": "function"
    },
    {
      "inputs": [
        {
          "internalType": "uint64",
          "name": "position",
          "type": "uint64"
        },
        {
          "internalType": "address",
          "name": "settlementAddress",
          "type": "address"
        }
      ],
      "name": "placeSettlementOnMap",
      "outputs": [],
      "stateMutability": "nonpayable",
      "type": "function"
    },
    {
      "inputs": [
        {
          "internalType": "uint64",
          "name": "",
          "type": "uint64"
        }
      ],
      "name": "regionSettlementPrice",
      "outputs": [
        {
          "internalType": "uint256",
          "name": "",
          "type": "uint256"
        }
      ],
      "stateMutability": "view",
      "type": "function"
    },
    {
      "inputs": [
        {
          "internalType": "uint64",
          "name": "",
          "type": "uint64"
        }
      ],
      "name": "regionSettlementPriceUpdateTime",
      "outputs": [
        {
          "internalType": "uint256",
          "name": "",
          "type": "uint256"
        }
      ],
      "stateMutability": "view",
      "type": "function"
    },
    {
      "inputs": [
        {
          "internalType": "uint64",
          "name": "",
          "type": "uint64"
        }
      ],
      "name": "regionUserSettlementsCount",
      "outputs": [
        {
          "internalType": "uint256",
          "name": "",
          "type": "uint256"
        }
      ],
      "stateMutability": "view",
      "type": "function"
    },
    {
      "inputs": [
        {
          "internalType": "address",
          "name": "settlementAddress",
          "type": "address"
        }
      ],
      "name": "removeUserSettlement",
      "outputs": [],
      "stateMutability": "nonpayable",
      "type": "function"
    },
    {
      "inputs": [
        {
          "internalType": "uint256",
          "name": "",
          "type": "uint256"
        }
      ],
      "name": "settlementByBannerId",
      "outputs": [
        {
          "internalType": "contract ISettlement",
          "name": "",
          "type": "address"
        }
      ],
      "stateMutability": "view",
      "type": "function"
    },
    {
      "inputs": [
        {
          "internalType": "uint64",
          "name": "",
          "type": "uint64"
        }
      ],
      "name": "settlementByPosition",
      "outputs": [
        {
          "internalType": "contract ISettlement",
          "name": "",
          "type": "address"
        }
      ],
      "stateMutability": "view",
      "type": "function"
    },
    {
      "inputs": [],
      "name": "world",
      "outputs": [
        {
          "internalType": "contract IWorld",
          "name": "",
          "type": "address"
        }
      ],
      "stateMutability": "view",
      "type": "function"
    }
  ],
  "bytecode": "0x6080604052348015600f57600080fd5b50610d528061001f6000396000f3fe608060405234801561001057600080fd5b50600436106100a95760003560e01c8063c29f8ac211610071578063c29f8ac214610167578063c4c31e851461017a578063dc39f809146101a3578063e301e640146101b6578063ebe63ec8146101c9578063ff033673146101f257600080fd5b806319704039146100ae57806319ab453c146100e157806330b67baa146100f65780639b9a21e814610127578063a57415d914610147575b600080fd5b6100ce6100bc366004610b37565b60046020526000908152604090205481565b6040519081526020015b60405180910390f35b6100f46100ef366004610b70565b610205565b005b60005461010f906201000090046001600160a01b031681565b6040516001600160a01b0390911681526020016100d8565b6100ce610135366004610b37565b60036020526000908152604090205481565b6100ce610155366004610b37565b60056020526000908152604090205481565b6100f4610175366004610b8d565b61031e565b61010f610188366004610b37565b6001602052600090815260409020546001600160a01b031681565b6100f46101b1366004610bc2565b61034f565b6100f46101c4366004610b70565b6103c1565b61010f6101d7366004610bfb565b6002602052600090815260409020546001600160a01b031681565b6100f4610200366004610c14565b610648565b600054610100900460ff16158080156102255750600054600160ff909116105b8061023f5750303b15801561023f575060005460ff166001145b6102a75760405162461bcd60e51b815260206004820152602e60248201527f496e697469616c697a61626c653a20636f6e747261637420697320616c72656160448201526d191e481a5b9a5d1a585b1a5e995960921b60648201526084015b60405180910390fd5b6000805460ff1916600117905580156102ca576000805461ff0019166101001790555b6102d3826106e8565b801561031a576000805461ff0019169055604051600181527f7f26b83ff96e1f2b6a682f133852f6798a09c465da95921460cefb3847402498906020015b60405180910390a15b5050565b61032661077d565b67ffffffffffffffff909216600090815260046020908152604080832093909355600590522055565b61035761088b565b67ffffffffffffffff821660008181526001602090815260409182902080546001600160a01b0319166001600160a01b0386169081179091558251938452908301527f5685ecc3c8c689bb47b86934ce8ce252dc13a5936567fb8f1408db413690e7c59101610311565b6103c96109a5565b60008190506000816001600160a01b03166309218e916040518163ffffffff1660e01b8152600401602060405180830381865afa15801561040e573d6000803e3d6000fd5b505050506040513d601f19601f820116820180604052508101906104329190610c6c565b90506000826001600160a01b031663e6c15c996040518163ffffffff1660e01b8152600401602060405180830381865afa158015610474573d6000803e3d6000fd5b505050506040513d601f19601f820116820180604052508101906104989190610c89565b6001600160a01b031663b2fd89336040518163ffffffff1660e01b8152600401602060405180830381865afa1580156104d5573d6000803e3d6000fd5b505050506040513d601f19601f820116820180604052508101906104f99190610c6c565b90506000836001600160a01b031663d63a68ec6040518163ffffffff1660e01b8152600401602060405180830381865afa15801561053b573d6000803e3d6000fd5b505050506040513d601f19601f8201168201806040525081019061055f9190610ca6565b67ffffffffffffffff8416600081815260016020908152604080832080546001600160a01b03191690558051938452908301919091529192507f5685ecc3c8c689bb47b86934ce8ce252dc13a5936567fb8f1408db413690e7c5910160405180910390a160008181526002602052604080822080546001600160a01b0319169055517fb59a7fa1779ce14368835c76b45a902e63f438ba39799e52e9c6bff3502e29329161060f91849190610cbf565b60405180910390a167ffffffffffffffff8216600090815260036020526040812080549161063c83610cec565b91905055505050505050565b61065061088b565b6000848152600260205260409081902080546001600160a01b0319166001600160a01b038516179055517fb59a7fa1779ce14368835c76b45a902e63f438ba39799e52e9c6bff3502e2932906106a99086908590610cbf565b60405180910390a180156106e25767ffffffffffffffff831660009081526003602052604081208054916106dc83610d03565b91905055505b50505050565b600054610100900460ff166107535760405162461bcd60e51b815260206004820152602b60248201527f496e697469616c697a61626c653a20636f6e7472616374206973206e6f74206960448201526a6e697469616c697a696e6760a81b606482015260840161029e565b600080546001600160a01b03909216620100000262010000600160b01b0319909216919091179055565b60008060029054906101000a90046001600160a01b031690506000801b816001600160a01b031663ebbe8034836001600160a01b031663704f63a16040518163ffffffff1660e01b8152600401602060405180830381865afa1580156107e7573d6000803e3d6000fd5b505050506040513d601f19601f8201168201806040525081019061080b9190610ca6565b336040518363ffffffff1660e01b8152600401610829929190610cbf565b602060405180830381865afa158015610846573d6000803e3d6000fd5b505050506040513d601f19601f8201168201806040525081019061086a9190610ca6565b03610888576040516305016ca360e41b815260040160405180910390fd5b50565b60008060029054906101000a90046001600160a01b03169050806001600160a01b031663720a70bd826001600160a01b031663704f63a16040518163ffffffff1660e01b8152600401602060405180830381865afa1580156108f1573d6000803e3d6000fd5b505050506040513d601f19601f820116820180604052508101906109159190610ca6565b6040518263ffffffff1660e01b815260040161093391815260200190565b602060405180830381865afa158015610950573d6000803e3d6000fd5b505050506040513d601f19601f820116820180604052508101906109749190610c89565b6001600160a01b0316336001600160a01b03161461088857604051633833078760e01b815260040160405180910390fd5b60008060029054906101000a90046001600160a01b031690506000336001600160a01b0316637d884c746040518163ffffffff1660e01b8152600401602060405180830381865afa1580156109fe573d6000803e3d6000fd5b505050506040513d601f19601f82011682018060405250810190610a229190610ca6565b9050816001600160a01b031663704f63a16040518163ffffffff1660e01b8152600401602060405180830381865afa158015610a62573d6000803e3d6000fd5b505050506040513d601f19601f82011682018060405250810190610a869190610ca6565b81101580610b035750604051633aefa00d60e21b81526000906001600160a01b0384169063ebbe803490610ac09085903390600401610cbf565b602060405180830381865afa158015610add573d6000803e3d6000fd5b505050506040513d601f19601f82011682018060405250810190610b019190610ca6565b145b1561031a576040516373f0ba8360e11b815260040160405180910390fd5b67ffffffffffffffff8116811461088857600080fd5b600060208284031215610b4957600080fd5b8135610b5481610b21565b9392505050565b6001600160a01b038116811461088857600080fd5b600060208284031215610b8257600080fd5b8135610b5481610b5b565b600080600060608486031215610ba257600080fd5b8335610bad81610b21565b95602085013595506040909401359392505050565b60008060408385031215610bd557600080fd5b8235610be081610b21565b91506020830135610bf081610b5b565b809150509250929050565b600060208284031215610c0d57600080fd5b5035919050565b60008060008060808587031215610c2a57600080fd5b843593506020850135610c3c81610b21565b92506040850135610c4c81610b5b565b915060608501358015158114610c6157600080fd5b939692955090935050565b600060208284031215610c7e57600080fd5b8151610b5481610b21565b600060208284031215610c9b57600080fd5b8151610b5481610b5b565b600060208284031215610cb857600080fd5b5051919050565b9182526001600160a01b0316602082015260400190565b634e487b7160e01b600052601160045260246000fd5b600081610cfb57610cfb610cd6565b506000190190565b600060018201610d1557610d15610cd6565b506001019056fea26469706673582212205dedecc836a1816627cd7376455c73d10f3d950bdc4ed742da4a0e10339f156c64736f6c634300081a0033",
  "linkReferences": {},
  "deployedLinkReferences": {}
}