{
  "_format": "hh-sol-artifact-1",
  "contractName": "RewardPool",
  "sourceName": "contracts/core/rewardPool/RewardPool.sol",
  "abi": [
    {
      "inputs": [],
      "name": "NoTokensWillBeReceived",
      "type": "error"
    },
    {
      "inputs": [],
      "name": "NotEnoughTokensLeft",
      "type": "error"
    },
    {
      "inputs": [],
      "name": "OnlyActiveGame",
      "type": "error"
    },
    {
      "inputs": [],
      "name": "ReentrantCall",
      "type": "error"
    },
    {
      "inputs": [],
      "name": "TokensToBeReceivedLessThanMinimumRequired",
      "type": "error"
    },
    {
      "inputs": [],
      "name": "UnableToReceiveEther",
      "type": "error"
    },
    {
      "anonymous": false,
      "inputs": [
        {
          "indexed": false,
          "internalType": "uint256",
          "name": "newEthBalance",
          "type": "uint256"
        }
      ],
      "name": "EthBalanceUpdated",
      "type": "event"
    },
    {
      "anonymous": false,
      "inputs": [
        {
          "indexed": false,
          "internalType": "uint8",
          "name": "version",
          "type": "uint8"
        }
      ],
      "name": "Initialized",
      "type": "event"
    },
    {
      "anonymous": false,
      "inputs": [
        {
          "indexed": false,
          "internalType": "uint256",
          "name": "newLastSyncedTokenBalance",
          "type": "uint256"
        }
      ],
      "name": "LastSyncedTokenBalanceUpdated",
      "type": "event"
    },
    {
      "anonymous": false,
      "inputs": [
        {
          "indexed": false,
          "internalType": "uint256",
          "name": "newToBeRepaidTokenAmount",
          "type": "uint256"
        }
      ],
      "name": "ToBeRepaidTokenAmountUpdated",
      "type": "event"
    },
    {
      "inputs": [],
      "name": "defaultTokenPrice",
      "outputs": [
        {
          "internalType": "int128",
          "name": "",
          "type": "int128"
        }
      ],
      "stateMutability": "view",
      "type": "function"
    },
    {
      "inputs": [],
      "name": "getCurrentPrice",
      "outputs": [
        {
          "internalType": "uint256",
          "name": "",
          "type": "uint256"
        }
      ],
      "stateMutability": "view",
      "type": "function"
    },
    {
      "inputs": [
        {
          "internalType": "uint256",
          "name": "tokensAmountOut",
          "type": "uint256"
        }
      ],
      "name": "getIngotsAmountIn",
      "outputs": [
        {
          "internalType": "uint256",
          "name": "",
          "type": "uint256"
        }
      ],
      "stateMutability": "view",
      "type": "function"
    },
    {
      "inputs": [
        {
          "internalType": "uint256",
          "name": "ingotsAmountIn",
          "type": "uint256"
        }
      ],
      "name": "getTokensAmountOut",
      "outputs": [
        {
          "internalType": "uint256",
          "name": "",
          "type": "uint256"
        }
      ],
      "stateMutability": "view",
      "type": "function"
    },
    {
      "inputs": [
        {
          "internalType": "address",
          "name": "worldAddress",
          "type": "address"
        }
      ],
      "name": "init",
      "outputs": [],
      "stateMutability": "nonpayable",
      "type": "function"
    },
    {
      "inputs": [
        {
          "internalType": "uint256",
          "name": "amountToInvest",
          "type": "uint256"
        }
      ],
      "name": "investIntoPrizePool",
      "outputs": [],
      "stateMutability": "payable",
      "type": "function"
    },
    {
      "inputs": [],
      "name": "lastSyncedTokenBalance",
      "outputs": [
        {
          "internalType": "uint256",
          "name": "",
          "type": "uint256"
        }
      ],
      "stateMutability": "view",
      "type": "function"
    },
    {
      "inputs": [
        {
          "internalType": "address",
          "name": "resourcesOwner",
          "type": "address"
        },
        {
          "internalType": "uint256",
          "name": "ingotsAmount",
          "type": "uint256"
        },
        {
          "internalType": "uint256",
          "name": "minTokensToReceive",
          "type": "uint256"
        }
      ],
      "name": "swapIngotsForTokens",
      "outputs": [],
      "stateMutability": "nonpayable",
      "type": "function"
    },
    {
      "inputs": [],
      "name": "toBeRepaidTokenAmount",
      "outputs": [
        {
          "internalType": "uint256",
          "name": "",
          "type": "uint256"
        }
      ],
      "stateMutability": "view",
      "type": "function"
    },
    {
      "inputs": [],
      "name": "withdrawRepayment",
      "outputs": [],
      "stateMutability": "nonpayable",
      "type": "function"
    },
    {
      "inputs": [],
      "name": "world",
      "outputs": [
        {
          "internalType": "contract IWorld",
          "name": "",
          "type": "address"
        }
      ],
      "stateMutability": "view",
      "type": "function"
    },
    {
      "stateMutability": "payable",
      "type": "receive"
    }
  ],
  "bytecode": "0x6080604052348015600f57600080fd5b506122598061001f6000396000f3fe6080604052600436106100a05760003560e01c80637489b451116100645780637489b4511461024d5780638096d7dd14610262578063a9d75dac14610290578063a9e6beb8146102b0578063b0786e23146102c6578063eb91d37e146102dc57600080fd5b806318e12e031461018857806319ab453c146101ba5780631d29daa3146101dc5780632495b728146101ef57806330b67baa1461020f57600080fd5b366101835760006001600160a01b0316600060029054906101000a90046001600160a01b03166001600160a01b031663c1897e346040518163ffffffff1660e01b8152600401602060405180830381865afa158015610103573d6000803e3d6000fd5b505050506040513d601f19601f820116820180604052508101906101279190611ee9565b6001600160a01b03161461014e57604051638e2d9fb960e01b815260040160405180910390fd5b6040514781527fe968090a83cd0c78dcb9e891725da982db6cdbe2c46d6a3c88c132b4a365e13f9060200160405180910390a1005b600080fd5b34801561019457600080fd5b506001546101a290600f0b81565b604051600f9190910b81526020015b60405180910390f35b3480156101c657600080fd5b506101da6101d5366004611f06565b6102f1565b005b6101da6101ea366004611f23565b610433565b3480156101fb57600080fd5b506101da61020a366004611f3c565b610706565b34801561021b57600080fd5b50600054610235906201000090046001600160a01b031681565b6040516001600160a01b0390911681526020016101b1565b34801561025957600080fd5b506101da610d0c565b34801561026e57600080fd5b5061028261027d366004611f23565b610e2b565b6040519081526020016101b1565b34801561029c57600080fd5b506102826102ab366004611f23565b610e4c565b3480156102bc57600080fd5b5061028260035481565b3480156102d257600080fd5b5061028260025481565b3480156102e857600080fd5b50610282610e67565b600054610100900460ff16158080156103115750600054600160ff909116105b8061032b5750303b15801561032b575060005460ff166001145b6103935760405162461bcd60e51b815260206004820152602e60248201527f496e697469616c697a61626c653a20636f6e747261637420697320616c72656160448201526d191e481a5b9a5d1a585b1a5e995960921b60648201526084015b60405180910390fd5b6000805460ff1916600117905580156103b6576000805461ff0019166101001790555b6103bf82611156565b6103c960016111eb565b600180546001600160801b0319166001600160801b0392909216919091179055801561042f576000805461ff0019169055604051600181527f7f26b83ff96e1f2b6a682f133852f6798a09c465da95921460cefb38474024989060200160405180910390a15b5050565b3460008161043f611209565b6104499190611f87565b905060006003548261045b9190611f87565b9050801561059857600061047160025483611309565b905080156105965761055a600060029054906101000a90046001600160a01b03166001600160a01b0316637b1039996040518163ffffffff1660e01b8152600401602060405180830381865afa1580156104cf573d6000803e3d6000fd5b505050506040513d601f19601f820116820180604052508101906104f39190611ee9565b6001600160a01b031663271530506040518163ffffffff1660e01b8152600401602060405180830381865afa158015610530573d6000803e3d6000fd5b505050506040513d601f19601f820116820180604052508101906105549190611ee9565b82611321565b806002600082825461056c9190611f87565b90915550506002546040519081526000805160206122048339815191529060200160405180910390a15b505b60008060029054906101000a90046001600160a01b03166001600160a01b031663c1897e346040518163ffffffff1660e01b8152600401602060405180830381865afa1580156105ec573d6000803e3d6000fd5b505050506040513d601f19601f820116820180604052508101906106109190611ee9565b90506001600160a01b0381161580159061062957503415155b1561064757604051638e2d9fb960e01b815260040160405180910390fd5b6001600160a01b0381166106725734600260008282546106679190611f9a565b909155506106969050565b61067e813330886113fb565b84600260008282546106909190611f9a565b90915550505b6000805160206122048339815191526002546040516106b791815260200190565b60405180910390a1506106c8611209565b60038190556040519081527f80ea096b9def4b66fbd7cbb7acc80fbf1ed860a2d4e57b2acb5a99c7ad77411f9060200160405180910390a150505050565b600054600160b01b900460ff161515600103610735576040516306fda65d60e31b815260040160405180910390fd5b6000805460ff60b01b1916600160b01b1781558080610752611209565b61075c9190611f87565b905060006003548261076e9190611f87565b9050801561082057600061078460025483611309565b9050801561081e576107e2600060029054906101000a90046001600160a01b03166001600160a01b0316637b1039996040518163ffffffff1660e01b8152600401602060405180830381865afa1580156104cf573d6000803e3d6000fd5b80600260008282546107f49190611f87565b90915550506002546040519081526000805160206122048339815191529060200160405180910390a15b505b600061082a611459565b90506000610836610e67565b90506000610842611209565b90506000610851898585611560565b9050818111801561086157508782115b156108695750805b8060000361088a57604051634e3eebe360e01b815260040160405180910390fd5b878110156108ab57604051631b22b33160e01b815260040160405180910390fd5b818811806108b7575081155b156108d5576040516376592c6f60e01b815260040160405180910390fd5b60006108e282868661157f565b905060008060029054906101000a90046001600160a01b031690506000816001600160a01b031663720a70bd836001600160a01b031663704f63a16040518163ffffffff1660e01b8152600401602060405180830381865afa15801561094c573d6000803e3d6000fd5b505050506040513d601f19601f820116820180604052508101906109709190611fad565b6040518263ffffffff1660e01b815260040161098e91815260200190565b602060405180830381865afa1580156109ab573d6000803e3d6000fd5b505050506040513d601f19601f820116820180604052508101906109cf9190611ee9565b6040805180820182526005815264125391d3d560da1b6020909101525163912929df60e01b81527ff4d3d98b93a17290e7883bbc86b83d603b27efc328d7873b3fc648501d83e57260048201526001600160a01b03919091169063912929df90602401602060405180830381865afa158015610a4f573d6000803e3d6000fd5b505050506040513d601f19601f82011682018060405250810190610a739190611ee9565b90506001600160a01b038d16610afc576040516323b872dd60e01b81526001600160a01b038216906323b872dd90610ab390339030908890600401611fc6565b6020604051808303816000875af1158015610ad2573d6000803e3d6000fd5b505050506040513d601f19601f82011682018060405250810190610af69190611fea565b50610bd3565b806001600160a01b031663dd8aaa4f8e33866040518463ffffffff1660e01b8152600401610b2c93929190611fc6565b600060405180830381600087803b158015610b4657600080fd5b505af1158015610b5a573d6000803e3d6000fd5b50505050806001600160a01b03166323b872dd8e30866040518463ffffffff1660e01b8152600401610b8e93929190611fc6565b6020604051808303816000875af1158015610bad573d6000803e3d6000fd5b505050506040513d601f19601f82011682018060405250810190610bd19190611fea565b505b610bdd3385611321565b610be5611209565b158015610c515750816001600160a01b03166344d9bc5f6040518163ffffffff1660e01b8152600401602060405180830381865afa158015610c2b573d6000803e3d6000fd5b505050506040513d601f19601f82011682018060405250810190610c4f9190611fad565b155b15610cb057604051635a4482d160e01b81524260048201526001600160a01b03831690635a4482d190602401600060405180830381600087803b158015610c9757600080fd5b505af1158015610cab573d6000803e3d6000fd5b505050505b50505050505050610cbf611209565b60038190556040519081527f80ea096b9def4b66fbd7cbb7acc80fbf1ed860a2d4e57b2acb5a99c7ad77411f9060200160405180910390a150506000805460ff60b01b1916905550505050565b60008081610d18611209565b610d229190611f87565b9050600060035482610d349190611f87565b90508015610de6576000610d4a60025483611309565b90508015610de457610da8600060029054906101000a90046001600160a01b03166001600160a01b0316637b1039996040518163ffffffff1660e01b8152600401602060405180830381865afa1580156104cf573d6000803e3d6000fd5b8060026000828254610dba9190611f87565b90915550506002546040519081526000805160206122048339815191529060200160405180910390a15b505b610dee611209565b60038190556040519081527f80ea096b9def4b66fbd7cbb7acc80fbf1ed860a2d4e57b2acb5a99c7ad77411f9060200160405180910390a1505050565b6000610e4682610e39611459565b610e41610e67565b61157f565b92915050565b6000610e4682610e5a611459565b610e62610e67565b611560565b600080600060029054906101000a90046001600160a01b031690506000816001600160a01b031663704f63a16040518163ffffffff1660e01b8152600401602060405180830381865afa158015610ec2573d6000803e3d6000fd5b505050506040513d601f19601f82011682018060405250810190610ee69190611fad565b60405163720a70bd60e01b8152600481018290529091506000906001600160a01b0384169063720a70bd90602401602060405180830381865afa158015610f31573d6000803e3d6000fd5b505050506040513d601f19601f82011682018060405250810190610f559190611ee9565b6040805180820182526005815264125391d3d560da1b6020909101525163912929df60e01b81527ff4d3d98b93a17290e7883bbc86b83d603b27efc328d7873b3fc648501d83e57260048201529091506000906001600160a01b0383169063912929df90602401602060405180830381865afa158015610fd9573d6000803e3d6000fd5b505050506040513d601f19601f82011682018060405250810190610ffd9190611ee9565b90506000816001600160a01b031663313ce5676040518163ffffffff1660e01b8152600401602060405180830381865afa15801561103f573d6000803e3d6000fd5b505050506040513d601f19601f82011682018060405250810190611063919061200c565b61106e90600a612116565b9050600061113f85856001600160a01b031663d8270dce6040518163ffffffff1660e01b8152600401602060405180830381865afa1580156110b4573d6000803e3d6000fd5b505050506040513d601f19601f820116820180604052508101906110d89190611fad565b886001600160a01b0316633c8ca83d6040518163ffffffff1660e01b8152600401602060405180830381865afa158015611116573d6000803e3d6000fd5b505050506040513d601f19601f8201168201806040525081019061113a9190611fad565b6115c4565b905061114b8183611661565b965050505050505090565b600054610100900460ff166111c15760405162461bcd60e51b815260206004820152602b60248201527f496e697469616c697a61626c653a20636f6e7472616374206973206e6f74206960448201526a6e697469616c697a696e6760a81b606482015260840161038a565b600080546001600160a01b03909216620100000262010000600160b01b0319909216919091179055565b6000677fffffffffffffff82111561120257600080fd5b5060401b90565b600080600060029054906101000a90046001600160a01b03166001600160a01b031663c1897e346040518163ffffffff1660e01b8152600401602060405180830381865afa15801561125f573d6000803e3d6000fd5b505050506040513d601f19601f820116820180604052508101906112839190611ee9565b90506001600160a01b03811615611301576040516370a0823160e01b81523060048201526001600160a01b038216906370a0823190602401602060405180830381865afa1580156112d8573d6000803e3d6000fd5b505050506040513d601f19601f820116820180604052508101906112fc9190611fad565b611303565b475b91505090565b6000818310611318578161131a565b825b9392505050565b60008060029054906101000a90046001600160a01b03166001600160a01b031663c1897e346040518163ffffffff1660e01b8152600401602060405180830381865afa158015611375573d6000803e3d6000fd5b505050506040513d601f19601f820116820180604052508101906113999190611ee9565b90506001600160a01b0381166113eb576113b383836116cc565b6040514781527fe968090a83cd0c78dcb9e891725da982db6cdbe2c46d6a3c88c132b4a365e13f9060200160405180910390a1505050565b6113f68184846117e5565b505050565b611453846323b872dd60e01b85858560405160240161141c93929190611fc6565b60408051601f198184030181529190526020810180516001600160e01b03166001600160e01b031990931692909217909152611815565b50505050565b600080600060029054906101000a90046001600160a01b03166001600160a01b031663c1897e346040518163ffffffff1660e01b8152600401602060405180830381865afa1580156114af573d6000803e3d6000fd5b505050506040513d601f19601f820116820180604052508101906114d39190611ee9565b90506001600160a01b0381161561155157806001600160a01b031663313ce5676040518163ffffffff1660e01b8152600401602060405180830381865afa158015611522573d6000803e3d6000fd5b505050506040513d601f19601f82011682018060405250810190611546919061200c565b6112fc90600a612116565b670de0b6b3a764000091505090565b60008161156d8486612125565b6115779190612152565b949350505050565b60008061158c8584612125565b90506115988482612166565b156115ba576115a78482612152565b6115b2906001611f9a565b91505061131a565b6115b28482612152565b6000806115da6115d460026111eb565b866118ea565b6001549091506000906115f090600f0b83611b0d565b905060006115fe8686611b65565b90504281106116115750915061131a9050565b600061161d8242611f87565b90506000611639662386f3378d6053662386f26fc10000611b74565b9050600061164782846118ea565b90506116538582611bae565b9a9950505050505050505050565b60008160000361167357506000610e46565b600083600f0b121561168457600080fd5b600f83900b6001600160801b038316810260401c90608084901c026001600160c01b038111156116b357600080fd5b60401b81198111156116c457600080fd5b019392505050565b8047101561171c5760405162461bcd60e51b815260206004820152601d60248201527f416464726573733a20696e73756666696369656e742062616c616e6365000000604482015260640161038a565b6000826001600160a01b03168260405160006040518083038185875af1925050503d8060008114611769576040519150601f19603f3d011682016040523d82523d6000602084013e61176e565b606091505b50509050806113f65760405162461bcd60e51b815260206004820152603a60248201527f416464726573733a20756e61626c6520746f2073656e642076616c75652c207260448201527f6563697069656e74206d61792068617665207265766572746564000000000000606482015260840161038a565b6040516001600160a01b0383166024820152604481018290526113f690849063a9059cbb60e01b9060640161141c565b600061186a826040518060400160405280602081526020017f5361666545524332303a206c6f772d6c6576656c2063616c6c206661696c6564815250856001600160a01b0316611be49092919063ffffffff16565b905080516000148061188b57508080602001905181019061188b9190611fea565b6113f65760405162461bcd60e51b815260206004820152602a60248201527f5361666545524332303a204552433230206f7065726174696f6e20646964206e6044820152691bdd081cdd58d8d9595960b21b606482015260840161038a565b600080600084600f0b1280156119035750826001166001145b905060008085600f0b12611917578461191c565b846000035b6001600160801b03169050600160801b600160401b82116119b157603f82901b91505b84156119a9576001851615611954578102607f1c5b908002607f1c90600285161561196a578102607f1c5b908002607f1c906004851615611980578102607f1c5b908002607f1c906008851615611996578102607f1c5b60049490941c93908002607f1c9061193f565b60401c611ac7565b603f600160601b8310156119cb5760209290921b91601f19015b600160701b8310156119e35760109290921b91600f19015b600160781b8310156119fb5760089290921b91600719015b6001607c1b831015611a135760049290921b91600319015b6001607e1b831015611a2b5760029290921b91600119015b6001607f1b831015611a435760019290921b91600019015b60005b8615611ab05760408210611a5957600080fd5b6001871615611a7f57918302607f1c918101600160801b831115611a7f57600192831c92015b928002607f1c9260019190911b90600160801b8410611aa457600193841c9391909101905b600187901c9650611a46565b60408110611abd57600080fd5b6040039190911c90505b600083611ad45781611ad9565b816000035b905060016001607f1b03198112801590611afa575060016001607f1b038113155b611b0357600080fd5b9695505050505050565b600081600f0b600003611b1f57600080fd5b600082600f0b604085600f0b901b81611b3a57611b3a61213c565b05905060016001607f1b03198112801590611b5c575060016001607f1b038113155b61131a57600080fd5b6000818311611318578161131a565b600081600003611b8357600080fd5b6000611b8f8484611bf3565b905060016001607f1b036001600160801b038216111561131a57600080fd5b6000600f83810b9083900b0260401d60016001607f1b03198112801590611b5c575060016001607f1b0381131561131a57600080fd5b60606115778484600085611d58565b600081600003611c0257600080fd5b60006001600160c01b038411611c2d5782604085901b81611c2557611c2561213c565b049050611d44565b60c084811c6401000000008110611c46576020918201911c5b620100008110611c58576010918201911c5b6101008110611c69576008918201911c5b60108110611c79576004918201911c5b60048110611c89576002918201911c5b60028110611c98576001820191505b60bf820360018603901c6001018260ff0387901b81611cb957611cb961213c565b0492506001600160801b03831115611cd057600080fd5b608085901c83026001600160801b038616840260c088901c604089901b82811015611cfc576001820391505b608084901b92900382811015611d13576001820391505b829003608084901c8214611d2957611d2961217a565b888181611d3857611d3861213c565b04870196505050505050505b6001600160801b0381111561131a57600080fd5b606082471015611db95760405162461bcd60e51b815260206004820152602660248201527f416464726573733a20696e73756666696369656e742062616c616e636520666f6044820152651c8818d85b1b60d21b606482015260840161038a565b600080866001600160a01b03168587604051611dd591906121b4565b60006040518083038185875af1925050503d8060008114611e12576040519150601f19603f3d011682016040523d82523d6000602084013e611e17565b606091505b5091509150611e2887838387611e33565b979650505050505050565b60608315611ea2578251600003611e9b576001600160a01b0385163b611e9b5760405162461bcd60e51b815260206004820152601d60248201527f416464726573733a2063616c6c20746f206e6f6e2d636f6e7472616374000000604482015260640161038a565b5081611577565b6115778383815115611eb75781518083602001fd5b8060405162461bcd60e51b815260040161038a91906121d0565b6001600160a01b0381168114611ee657600080fd5b50565b600060208284031215611efb57600080fd5b815161131a81611ed1565b600060208284031215611f1857600080fd5b813561131a81611ed1565b600060208284031215611f3557600080fd5b5035919050565b600080600060608486031215611f5157600080fd5b8335611f5c81611ed1565b95602085013595506040909401359392505050565b634e487b7160e01b600052601160045260246000fd5b81810381811115610e4657610e46611f71565b80820180821115610e4657610e46611f71565b600060208284031215611fbf57600080fd5b5051919050565b6001600160a01b039384168152919092166020820152604081019190915260600190565b600060208284031215611ffc57600080fd5b8151801515811461131a57600080fd5b60006020828403121561201e57600080fd5b815160ff8116811461131a57600080fd5b6001815b600184111561206a5780850481111561204e5761204e611f71565b600184161561205c57908102905b60019390931c928002612033565b935093915050565b60008261208157506001610e46565b8161208e57506000610e46565b81600181146120a457600281146120ae576120ca565b6001915050610e46565b60ff8411156120bf576120bf611f71565b50506001821b610e46565b5060208310610133831016604e8410600b84101617156120ed575081810a610e46565b6120fa600019848461202f565b806000190482111561210e5761210e611f71565b029392505050565b600061131a60ff841683612072565b8082028115828204841417610e4657610e46611f71565b634e487b7160e01b600052601260045260246000fd5b6000826121615761216161213c565b500490565b6000826121755761217561213c565b500690565b634e487b7160e01b600052600160045260246000fd5b60005b838110156121ab578181015183820152602001612193565b50506000910152565b600082516121c6818460208701612190565b9190910192915050565b60208152600082518060208401526121ef816040850160208701612190565b601f01601f1916919091016040019291505056fe38026f0733511c2e2735c2b8cefaf895b5f4ce408a17d1bd38fcbdaec6f1255ea26469706673582212200c97d4d062dada2b9877ec43567a9c6321c9aba8a7b0cfd4341b96c47161a0c264736f6c634300081a0033",
  "linkReferences": {},
  "deployedLinkReferences": {}
}