{
  "_format": "hh-sol-artifact-1",
  "contractName": "RegionOwnershipToken",
  "sourceName": "contracts/core/regionOwnershipToken/RegionOwnershipToken.sol",
  "abi": [
    {
      "inputs": [
        {
          "internalType": "string",
          "name": "name_",
          "type": "string"
        },
        {
          "internalType": "string",
          "name": "symbol_",
          "type": "string"
        },
        {
          "internalType": "string",
          "name": "uri_",
          "type": "string"
        },
        {
          "internalType": "address",
          "name": "worldAddress_",
          "type": "address"
        }
      ],
      "stateMutability": "nonpayable",
      "type": "constructor"
    },
    {
      "inputs": [],
      "name": "OnlyGeography",
      "type": "error"
    },
    {
      "anonymous": false,
      "inputs": [
        {
          "indexed": true,
          "internalType": "address",
          "name": "owner",
          "type": "address"
        },
        {
          "indexed": true,
          "internalType": "address",
          "name": "approved",
          "type": "address"
        },
        {
          "indexed": true,
          "internalType": "uint256",
          "name": "tokenId",
          "type": "uint256"
        }
      ],
      "name": "Approval",
      "type": "event"
    },
    {
      "anonymous": false,
      "inputs": [
        {
          "indexed": true,
          "internalType": "address",
          "name": "owner",
          "type": "address"
        },
        {
          "indexed": true,
          "internalType": "address",
          "name": "operator",
          "type": "address"
        },
        {
          "indexed": false,
          "internalType": "bool",
          "name": "approved",
          "type": "bool"
        }
      ],
      "name": "ApprovalForAll",
      "type": "event"
    },
    {
      "anonymous": false,
      "inputs": [
        {
          "indexed": true,
          "internalType": "address",
          "name": "previousOwner",
          "type": "address"
        },
        {
          "indexed": true,
          "internalType": "address",
          "name": "newOwner",
          "type": "address"
        }
      ],
      "name": "OwnershipTransferred",
      "type": "event"
    },
    {
      "anonymous": false,
      "inputs": [
        {
          "indexed": true,
          "internalType": "address",
          "name": "from",
          "type": "address"
        },
        {
          "indexed": true,
          "internalType": "address",
          "name": "to",
          "type": "address"
        },
        {
          "indexed": true,
          "internalType": "uint256",
          "name": "tokenId",
          "type": "uint256"
        }
      ],
      "name": "Transfer",
      "type": "event"
    },
    {
      "inputs": [
        {
          "internalType": "address",
          "name": "to",
          "type": "address"
        },
        {
          "internalType": "uint256",
          "name": "tokenId",
          "type": "uint256"
        }
      ],
      "name": "approve",
      "outputs": [],
      "stateMutability": "nonpayable",
      "type": "function"
    },
    {
      "inputs": [
        {
          "internalType": "address",
          "name": "owner",
          "type": "address"
        }
      ],
      "name": "balanceOf",
      "outputs": [
        {
          "internalType": "uint256",
          "name": "",
          "type": "uint256"
        }
      ],
      "stateMutability": "view",
      "type": "function"
    },
    {
      "inputs": [],
      "name": "baseURI",
      "outputs": [
        {
          "internalType": "string",
          "name": "",
          "type": "string"
        }
      ],
      "stateMutability": "view",
      "type": "function"
    },
    {
      "inputs": [
        {
          "internalType": "uint256",
          "name": "tokenId",
          "type": "uint256"
        }
      ],
      "name": "getApproved",
      "outputs": [
        {
          "internalType": "address",
          "name": "",
          "type": "address"
        }
      ],
      "stateMutability": "view",
      "type": "function"
    },
    {
      "inputs": [
        {
          "internalType": "address",
          "name": "holderAddress",
          "type": "address"
        }
      ],
      "name": "getTokenIdsByAddress",
      "outputs": [
        {
          "internalType": "uint256[]",
          "name": "tokenIds",
          "type": "uint256[]"
        }
      ],
      "stateMutability": "view",
      "type": "function"
    },
    {
      "inputs": [
        {
          "internalType": "address",
          "name": "owner",
          "type": "address"
        },
        {
          "internalType": "address",
          "name": "operator",
          "type": "address"
        }
      ],
      "name": "isApprovedForAll",
      "outputs": [
        {
          "internalType": "bool",
          "name": "",
          "type": "bool"
        }
      ],
      "stateMutability": "view",
      "type": "function"
    },
    {
      "inputs": [
        {
          "internalType": "address",
          "name": "to",
          "type": "address"
        },
        {
          "internalType": "uint256",
          "name": "regionId",
          "type": "uint256"
        }
      ],
      "name": "mint",
      "outputs": [],
      "stateMutability": "nonpayable",
      "type": "function"
    },
    {
      "inputs": [],
      "name": "name",
      "outputs": [
        {
          "internalType": "string",
          "name": "",
          "type": "string"
        }
      ],
      "stateMutability": "view",
      "type": "function"
    },
    {
      "inputs": [],
      "name": "owner",
      "outputs": [
        {
          "internalType": "address",
          "name": "",
          "type": "address"
        }
      ],
      "stateMutability": "view",
      "type": "function"
    },
    {
      "inputs": [
        {
          "internalType": "uint256",
          "name": "tokenId",
          "type": "uint256"
        }
      ],
      "name": "ownerOf",
      "outputs": [
        {
          "internalType": "address",
          "name": "",
          "type": "address"
        }
      ],
      "stateMutability": "view",
      "type": "function"
    },
    {
      "inputs": [],
      "name": "renounceOwnership",
      "outputs": [],
      "stateMutability": "nonpayable",
      "type": "function"
    },
    {
      "inputs": [
        {
          "internalType": "address",
          "name": "from",
          "type": "address"
        },
        {
          "internalType": "address",
          "name": "to",
          "type": "address"
        },
        {
          "internalType": "uint256",
          "name": "tokenId",
          "type": "uint256"
        }
      ],
      "name": "safeTransferFrom",
      "outputs": [],
      "stateMutability": "nonpayable",
      "type": "function"
    },
    {
      "inputs": [
        {
          "internalType": "address",
          "name": "from",
          "type": "address"
        },
        {
          "internalType": "address",
          "name": "to",
          "type": "address"
        },
        {
          "internalType": "uint256",
          "name": "tokenId",
          "type": "uint256"
        },
        {
          "internalType": "bytes",
          "name": "data",
          "type": "bytes"
        }
      ],
      "name": "safeTransferFrom",
      "outputs": [],
      "stateMutability": "nonpayable",
      "type": "function"
    },
    {
      "inputs": [
        {
          "internalType": "address",
          "name": "operator",
          "type": "address"
        },
        {
          "internalType": "bool",
          "name": "approved",
          "type": "bool"
        }
      ],
      "name": "setApprovalForAll",
      "outputs": [],
      "stateMutability": "nonpayable",
      "type": "function"
    },
    {
      "inputs": [
        {
          "internalType": "bytes4",
          "name": "interfaceId",
          "type": "bytes4"
        }
      ],
      "name": "supportsInterface",
      "outputs": [
        {
          "internalType": "bool",
          "name": "",
          "type": "bool"
        }
      ],
      "stateMutability": "view",
      "type": "function"
    },
    {
      "inputs": [],
      "name": "symbol",
      "outputs": [
        {
          "internalType": "string",
          "name": "",
          "type": "string"
        }
      ],
      "stateMutability": "view",
      "type": "function"
    },
    {
      "inputs": [
        {
          "internalType": "uint256",
          "name": "index",
          "type": "uint256"
        }
      ],
      "name": "tokenByIndex",
      "outputs": [
        {
          "internalType": "uint256",
          "name": "",
          "type": "uint256"
        }
      ],
      "stateMutability": "view",
      "type": "function"
    },
    {
      "inputs": [
        {
          "internalType": "address",
          "name": "owner",
          "type": "address"
        },
        {
          "internalType": "uint256",
          "name": "index",
          "type": "uint256"
        }
      ],
      "name": "tokenOfOwnerByIndex",
      "outputs": [
        {
          "internalType": "uint256",
          "name": "",
          "type": "uint256"
        }
      ],
      "stateMutability": "view",
      "type": "function"
    },
    {
      "inputs": [
        {
          "internalType": "uint256",
          "name": "tokenId",
          "type": "uint256"
        }
      ],
      "name": "tokenURI",
      "outputs": [
        {
          "internalType": "string",
          "name": "",
          "type": "string"
        }
      ],
      "stateMutability": "view",
      "type": "function"
    },
    {
      "inputs": [],
      "name": "totalSupply",
      "outputs": [
        {
          "internalType": "uint256",
          "name": "",
          "type": "uint256"
        }
      ],
      "stateMutability": "view",
      "type": "function"
    },
    {
      "inputs": [
        {
          "internalType": "address",
          "name": "from",
          "type": "address"
        },
        {
          "internalType": "address",
          "name": "to",
          "type": "address"
        },
        {
          "internalType": "uint256",
          "name": "tokenId",
          "type": "uint256"
        }
      ],
      "name": "transferFrom",
      "outputs": [],
      "stateMutability": "nonpayable",
      "type": "function"
    },
    {
      "inputs": [
        {
          "internalType": "address",
          "name": "newOwner",
          "type": "address"
        }
      ],
      "name": "transferOwnership",
      "outputs": [],
      "stateMutability": "nonpayable",
      "type": "function"
    },
    {
      "inputs": [
        {
          "internalType": "string",
          "name": "_uri",
          "type": "string"
        }
      ],
      "name": "updateURI",
      "outputs": [],
      "stateMutability": "nonpayable",
      "type": "function"
    },
    {
      "inputs": [],
      "name": "world",
      "outputs": [
        {
          "internalType": "contract IWorld",
          "name": "",
          "type": "address"
        }
      ],
      "stateMutability": "view",
      "type": "function"
    }
  ],
  "bytecode": "0x608060405234801561001057600080fd5b5060405161209f38038061209f83398101604081905261002f916101a3565b8383600061003d83826102e2565b50600161004a82826102e2565b50505061006361005e61009460201b60201c565b610098565b600b80546001600160a01b0319166001600160a01b038316179055600c61008a83826102e2565b50505050506103a0565b3390565b600a80546001600160a01b038381166001600160a01b0319831681179093556040519116919082907f8be0079c531659141344cd1fd0a4f28419497f9722a3daafe3b4186f6b6457e090600090a35050565b634e487b7160e01b600052604160045260246000fd5b600082601f83011261011157600080fd5b81516001600160401b0381111561012a5761012a6100ea565b604051601f8201601f19908116603f011681016001600160401b0381118282101715610158576101586100ea565b60405281815283820160200185101561017057600080fd5b60005b8281101561018f57602081860181015183830182015201610173565b506000918101602001919091529392505050565b600080600080608085870312156101b957600080fd5b84516001600160401b038111156101cf57600080fd5b6101db87828801610100565b602087015190955090506001600160401b038111156101f957600080fd5b61020587828801610100565b604087015190945090506001600160401b0381111561022357600080fd5b61022f87828801610100565b606087015190935090506001600160a01b038116811461024e57600080fd5b939692955090935050565b600181811c9082168061026d57607f821691505b60208210810361028d57634e487b7160e01b600052602260045260246000fd5b50919050565b601f8211156102dd57806000526020600020601f840160051c810160208510156102ba5750805b601f840160051c820191505b818110156102da57600081556001016102c6565b50505b505050565b81516001600160401b038111156102fb576102fb6100ea565b61030f816103098454610259565b84610293565b6020601f821160018114610343576000831561032b5750848201515b600019600385901b1c1916600184901b1784556102da565b600084815260208120601f198516915b828110156103735787850151825560209485019460019092019101610353565b50848210156103915786840151600019600387901b60f8161c191681555b50505050600190811b01905550565b611cf0806103af6000396000f3fe608060405234801561001057600080fd5b50600436106101585760003560e01c80636c0360eb116100c3578063a22cb4651161007c578063a22cb465146102cd578063b88d4fde146102e0578063c30f4a5a146102f3578063c87b56dd14610306578063e985e9c514610319578063f2fde38b1461032c57600080fd5b80636c0360eb1461027157806370a0823114610279578063715018a61461028c57806389d5feee146102945780638da5cb5b146102b457806395d89b41146102c557600080fd5b80632f745c59116101155780632f745c59146101ff57806330b67baa1461021257806340c10f191461022557806342842e0e146102385780634f6ccce71461024b5780636352211e1461025e57600080fd5b806301ffc9a71461015d57806306fdde0314610185578063081812fc1461019a578063095ea7b3146101c557806318160ddd146101da57806323b872dd146101ec575b600080fd5b61017061016b3660046115fa565b61033f565b60405190151581526020015b60405180910390f35b61018d61036a565b60405161017c9190611667565b6101ad6101a836600461167a565b6103fc565b6040516001600160a01b03909116815260200161017c565b6101d86101d33660046116a8565b610423565b005b6008545b60405190815260200161017c565b6101d86101fa3660046116d4565b61053d565b6101de61020d3660046116a8565b61056e565b600b546101ad906001600160a01b031681565b6101d86102333660046116a8565b610604565b6101d86102463660046116d4565b6106ca565b6101de61025936600461167a565b6106e5565b6101ad61026c36600461167a565b610778565b61018d6107ad565b6101de610287366004611715565b61083b565b6101d86108c1565b6102a76102a2366004611715565b6108d5565b60405161017c9190611732565b600a546001600160a01b03166101ad565b61018d61096a565b6101d86102db366004611775565b610979565b6101d86102ee366004611843565b610984565b6101d86103013660046118c3565b6109bc565b61018d61031436600461167a565b6109d0565b61017061032736600461190c565b610a37565b6101d861033a366004611715565b610a65565b60006001600160e01b0319821663780e9d6360e01b1480610364575061036482610ade565b92915050565b6060600080546103799061193a565b80601f01602080910402602001604051908101604052809291908181526020018280546103a59061193a565b80156103f25780601f106103c7576101008083540402835291602001916103f2565b820191906000526020600020905b8154815290600101906020018083116103d557829003601f168201915b5050505050905090565b600061040782610b2e565b506000908152600460205260409020546001600160a01b031690565b600061042e82610778565b9050806001600160a01b0316836001600160a01b0316036104a05760405162461bcd60e51b815260206004820152602160248201527f4552433732313a20617070726f76616c20746f2063757272656e74206f776e656044820152603960f91b60648201526084015b60405180910390fd5b336001600160a01b03821614806104bc57506104bc8133610a37565b61052e5760405162461bcd60e51b815260206004820152603d60248201527f4552433732313a20617070726f76652063616c6c6572206973206e6f7420746f60448201527f6b656e206f776e6572206f7220617070726f76656420666f7220616c6c0000006064820152608401610497565b6105388383610b53565b505050565b6105473382610bc1565b6105635760405162461bcd60e51b815260040161049790611974565b610538838383610c20565b60006105798361083b565b82106105db5760405162461bcd60e51b815260206004820152602b60248201527f455243373231456e756d657261626c653a206f776e657220696e646578206f7560448201526a74206f6620626f756e647360a81b6064820152608401610497565b506001600160a01b03919091166000908152600660209081526040808320938352929052205490565b600b60009054906101000a90046001600160a01b03166001600160a01b031663f5f026a36040518163ffffffff1660e01b8152600401602060405180830381865afa158015610657573d6000803e3d6000fd5b505050506040513d601f19601f8201168201806040525081019061067b91906119c1565b6001600160a01b0316336001600160a01b0316146106ac576040516301252dd760e11b815260040160405180910390fd5b6106c6828260405180602001604052806000815250610d91565b5050565b61053883838360405180602001604052806000815250610984565b60006106f060085490565b82106107535760405162461bcd60e51b815260206004820152602c60248201527f455243373231456e756d657261626c653a20676c6f62616c20696e646578206f60448201526b7574206f6620626f756e647360a01b6064820152608401610497565b60088281548110610766576107666119de565b90600052602060002001549050919050565b6000818152600260205260408120546001600160a01b0316806103645760405162461bcd60e51b8152600401610497906119f4565b600c80546107ba9061193a565b80601f01602080910402602001604051908101604052809291908181526020018280546107e69061193a565b80156108335780601f1061080857610100808354040283529160200191610833565b820191906000526020600020905b81548152906001019060200180831161081657829003601f168201915b505050505081565b60006001600160a01b0382166108a55760405162461bcd60e51b815260206004820152602960248201527f4552433732313a2061646472657373207a65726f206973206e6f7420612076616044820152683634b21037bbb732b960b91b6064820152608401610497565b506001600160a01b031660009081526003602052604090205490565b6108c9610dc4565b6108d36000610e1e565b565b606060006108e28361083b565b90508067ffffffffffffffff8111156108fd576108fd6117b3565b604051908082528060200260200182016040528015610926578160200160208202803683370190505b50915060005b818110156109635761093e848261056e565b838281518110610950576109506119de565b602090810291909101015260010161092c565b5050919050565b6060600180546103799061193a565b6106c6338383610e70565b61098e3383610bc1565b6109aa5760405162461bcd60e51b815260040161049790611974565b6109b684848484610f3a565b50505050565b6109c4610dc4565b600c6106c68282611a6d565b60606109db82610b2e565b60006109e5610f6d565b90506000815111610a055760405180602001604052806000815250610a30565b80610a0f84610f7c565b604051602001610a20929190611b2c565b6040516020818303038152906040525b9392505050565b6001600160a01b03918216600090815260056020908152604080832093909416825291909152205460ff1690565b610a6d610dc4565b6001600160a01b038116610ad25760405162461bcd60e51b815260206004820152602660248201527f4f776e61626c653a206e6577206f776e657220697320746865207a65726f206160448201526564647265737360d01b6064820152608401610497565b610adb81610e1e565b50565b60006001600160e01b031982166380ac58cd60e01b1480610b0f57506001600160e01b03198216635b5e139f60e01b145b8061036457506301ffc9a760e01b6001600160e01b0319831614610364565b610b378161100f565b610adb5760405162461bcd60e51b8152600401610497906119f4565b600081815260046020526040902080546001600160a01b0319166001600160a01b0384169081179091558190610b8882610778565b6001600160a01b03167f8c5be1e5ebec7d5bd14f71427d1e84f3dd0314c0f7b2291e5b200ac8c7c3b92560405160405180910390a45050565b600080610bcd83610778565b9050806001600160a01b0316846001600160a01b03161480610bf45750610bf48185610a37565b80610c185750836001600160a01b0316610c0d846103fc565b6001600160a01b0316145b949350505050565b826001600160a01b0316610c3382610778565b6001600160a01b031614610c595760405162461bcd60e51b815260040161049790611b5b565b6001600160a01b038216610cbb5760405162461bcd60e51b8152602060048201526024808201527f4552433732313a207472616e7366657220746f20746865207a65726f206164646044820152637265737360e01b6064820152608401610497565b610cc8838383600161102c565b826001600160a01b0316610cdb82610778565b6001600160a01b031614610d015760405162461bcd60e51b815260040161049790611b5b565b600081815260046020908152604080832080546001600160a01b03199081169091556001600160a01b0387811680865260038552838620805460001901905590871680865283862080546001019055868652600290945282852080549092168417909155905184937fddf252ad1be2c89b69c2b068fc378daa952ba7f163c4a11628f55a4df523b3ef91a4505050565b610d9b8383611160565b610da8600084848461127b565b6105385760405162461bcd60e51b815260040161049790611ba0565b600a546001600160a01b031633146108d35760405162461bcd60e51b815260206004820181905260248201527f4f776e61626c653a2063616c6c6572206973206e6f7420746865206f776e65726044820152606401610497565b600a80546001600160a01b038381166001600160a01b0319831681179093556040519116919082907f8be0079c531659141344cd1fd0a4f28419497f9722a3daafe3b4186f6b6457e090600090a35050565b816001600160a01b0316836001600160a01b031603610ecd5760405162461bcd60e51b815260206004820152601960248201527822a9219b99189d1030b8383937bb32903a379031b0b63632b960391b6044820152606401610497565b6001600160a01b03838116600081815260056020908152604080832094871680845294825291829020805460ff191686151590811790915591519182527f17307eab39ab6107e8899845ad3d59bd9653f200f220920489ca2b5937696c31910160405180910390a3505050565b610f45848484610c20565b610f518484848461127b565b6109b65760405162461bcd60e51b815260040161049790611ba0565b6060600c80546103799061193a565b60606000610f898361137c565b600101905060008167ffffffffffffffff811115610fa957610fa96117b3565b6040519080825280601f01601f191660200182016040528015610fd3576020820181803683370190505b5090508181016020015b600019016f181899199a1a9b1b9c1cb0b131b232b360811b600a86061a8153600a8504945084610fdd57509392505050565b6000908152600260205260409020546001600160a01b0316151590565b600181111561109b5760405162461bcd60e51b815260206004820152603560248201527f455243373231456e756d657261626c653a20636f6e7365637574697665207472604482015274185b9cd9995c9cc81b9bdd081cdd5c1c1bdc9d1959605a1b6064820152608401610497565b816001600160a01b0385166110f7576110f281600880546000838152600960205260408120829055600182018355919091527ff3f7a9fe364faab93b216da50a3214154f22a0a2b415b23a84c8169e8b636ee30155565b61111a565b836001600160a01b0316856001600160a01b03161461111a5761111a8582611454565b6001600160a01b03841661113657611131816114f1565b611159565b846001600160a01b0316846001600160a01b0316146111595761115984826115a0565b5050505050565b6001600160a01b0382166111b65760405162461bcd60e51b815260206004820181905260248201527f4552433732313a206d696e7420746f20746865207a65726f20616464726573736044820152606401610497565b6111bf8161100f565b156111dc5760405162461bcd60e51b815260040161049790611bf2565b6111ea60008383600161102c565b6111f38161100f565b156112105760405162461bcd60e51b815260040161049790611bf2565b6001600160a01b038216600081815260036020908152604080832080546001019055848352600290915280822080546001600160a01b0319168417905551839291907fddf252ad1be2c89b69c2b068fc378daa952ba7f163c4a11628f55a4df523b3ef908290a45050565b60006001600160a01b0384163b1561137157604051630a85bd0160e11b81526001600160a01b0385169063150b7a02906112bf903390899088908890600401611c29565b6020604051808303816000875af19250505080156112fa575060408051601f3d908101601f191682019092526112f791810190611c66565b60015b611357573d808015611328576040519150601f19603f3d011682016040523d82523d6000602084013e61132d565b606091505b50805160000361134f5760405162461bcd60e51b815260040161049790611ba0565b805181602001fd5b6001600160e01b031916630a85bd0160e11b149050610c18565b506001949350505050565b60008072184f03e93ff9f4daa797ed6e38ed64bf6a1f0160401b83106113bb5772184f03e93ff9f4daa797ed6e38ed64bf6a1f0160401b830492506040015b6d04ee2d6d415b85acef810000000083106113e7576d04ee2d6d415b85acef8100000000830492506020015b662386f26fc10000831061140557662386f26fc10000830492506010015b6305f5e100831061141d576305f5e100830492506008015b612710831061143157612710830492506004015b60648310611443576064830492506002015b600a83106103645760010192915050565b600060016114618461083b565b61146b9190611c83565b6000838152600760205260409020549091508082146114be576001600160a01b03841660009081526006602090815260408083208584528252808320548484528184208190558352600790915290208190555b5060009182526007602090815260408084208490556001600160a01b039094168352600681528383209183525290812055565b60085460009061150390600190611c83565b6000838152600960205260408120546008805493945090928490811061152b5761152b6119de565b90600052602060002001549050806008838154811061154c5761154c6119de565b600091825260208083209091019290925582815260099091526040808220849055858252812055600880548061158457611584611ca4565b6001900381819060005260206000200160009055905550505050565b60006115ab8361083b565b6001600160a01b039093166000908152600660209081526040808320868452825280832085905593825260079052919091209190915550565b6001600160e01b031981168114610adb57600080fd5b60006020828403121561160c57600080fd5b8135610a30816115e4565b60005b8381101561163257818101518382015260200161161a565b50506000910152565b60008151808452611653816020860160208601611617565b601f01601f19169290920160200192915050565b602081526000610a30602083018461163b565b60006020828403121561168c57600080fd5b5035919050565b6001600160a01b0381168114610adb57600080fd5b600080604083850312156116bb57600080fd5b82356116c681611693565b946020939093013593505050565b6000806000606084860312156116e957600080fd5b83356116f481611693565b9250602084013561170481611693565b929592945050506040919091013590565b60006020828403121561172757600080fd5b8135610a3081611693565b602080825282518282018190526000918401906040840190835b8181101561176a57835183526020938401939092019160010161174c565b509095945050505050565b6000806040838503121561178857600080fd5b823561179381611693565b9150602083013580151581146117a857600080fd5b809150509250929050565b634e487b7160e01b600052604160045260246000fd5b60008067ffffffffffffffff8411156117e4576117e46117b3565b50604051601f19601f85018116603f0116810181811067ffffffffffffffff82111715611813576118136117b3565b60405283815290508082840185101561182b57600080fd5b83836020830137600060208583010152509392505050565b6000806000806080858703121561185957600080fd5b843561186481611693565b9350602085013561187481611693565b925060408501359150606085013567ffffffffffffffff81111561189757600080fd5b8501601f810187136118a857600080fd5b6118b7878235602084016117c9565b91505092959194509250565b6000602082840312156118d557600080fd5b813567ffffffffffffffff8111156118ec57600080fd5b8201601f810184136118fd57600080fd5b610c18848235602084016117c9565b6000806040838503121561191f57600080fd5b823561192a81611693565b915060208301356117a881611693565b600181811c9082168061194e57607f821691505b60208210810361196e57634e487b7160e01b600052602260045260246000fd5b50919050565b6020808252602d908201527f4552433732313a2063616c6c6572206973206e6f7420746f6b656e206f776e6560408201526c1c881bdc88185c1c1c9bdd9959609a1b606082015260800190565b6000602082840312156119d357600080fd5b8151610a3081611693565b634e487b7160e01b600052603260045260246000fd5b602080825260189082015277115490cdcc8c4e881a5b9d985b1a59081d1bdad95b88125160421b604082015260600190565b601f82111561053857806000526020600020601f840160051c81016020851015611a4d5750805b601f840160051c820191505b818110156111595760008155600101611a59565b815167ffffffffffffffff811115611a8757611a876117b3565b611a9b81611a95845461193a565b84611a26565b6020601f821160018114611acf5760008315611ab75750848201515b600019600385901b1c1916600184901b178455611159565b600084815260208120601f198516915b82811015611aff5787850151825560209485019460019092019101611adf565b5084821015611b1d5786840151600019600387901b60f8161c191681555b50505050600190811b01905550565b60008351611b3e818460208801611617565b835190830190611b52818360208801611617565b01949350505050565b60208082526025908201527f4552433732313a207472616e736665722066726f6d20696e636f72726563742060408201526437bbb732b960d91b606082015260800190565b60208082526032908201527f4552433732313a207472616e7366657220746f206e6f6e20455243373231526560408201527131b2b4bb32b91034b6b83632b6b2b73a32b960711b606082015260800190565b6020808252601c908201527f4552433732313a20746f6b656e20616c7265616479206d696e74656400000000604082015260600190565b6001600160a01b0385811682528416602082015260408101839052608060608201819052600090611c5c9083018461163b565b9695505050505050565b600060208284031215611c7857600080fd5b8151610a30816115e4565b8181038181111561036457634e487b7160e01b600052601160045260246000fd5b634e487b7160e01b600052603160045260246000fdfea2646970667358221220fe28d45c6afddaa15637702155bd6cf1ad22dfbac4e148756ead45e57199433d64736f6c634300081a0033",
  "linkReferences": {},
  "deployedLinkReferences": {}
}