{
  "_format": "hh-sol-artifact-1",
  "contractName": "Battle",
  "sourceName": "contracts/core/assets/battle/Battle.sol",
  "abi": [
    {
      "inputs": [],
      "name": "BattleCannotAcceptCultistsArmyWhenCultistsAmountChangedToLowerValueThanDesired",
      "type": "error"
    },
    {
      "inputs": [],
      "name": "BattleCannotBeCreatedByDesiringToAttackCultistsArmyWithoutUnits",
      "type": "error"
    },
    {
      "inputs": [],
      "name": "BattleCannotBeCreatedWhenArmyUnitsExceedDesiredAmountToAttack",
      "type": "error"
    },
    {
      "inputs": [],
      "name": "BattleCannotBeCreatedWhenAttackedArmyIsAlmostOnAnotherPosition",
      "type": "error"
    },
    {
      "inputs": [],
      "name": "BattleCannotBeCreatedWithArmiesHavingZeroUnits",
      "type": "error"
    },
    {
      "inputs": [],
      "name": "BattleCannotBeFinishedAtThisTime",
      "type": "error"
    },
    {
      "inputs": [],
      "name": "BattleCannotBeFinishedMoreThanOnce",
      "type": "error"
    },
    {
      "inputs": [],
      "name": "OnlyActiveGame",
      "type": "error"
    },
    {
      "inputs": [],
      "name": "OnlyMightyCreator",
      "type": "error"
    },
    {
      "inputs": [],
      "name": "OnlyWorldAssetFromSameEra",
      "type": "error"
    },
    {
      "inputs": [],
      "name": "UnknownInputParameter",
      "type": "error"
    },
    {
      "anonymous": false,
      "inputs": [
        {
          "indexed": false,
          "internalType": "address",
          "name": "armyAddress",
          "type": "address"
        },
        {
          "indexed": false,
          "internalType": "uint256",
          "name": "side",
          "type": "uint256"
        }
      ],
      "name": "ArmyJoined",
      "type": "event"
    },
    {
      "anonymous": false,
      "inputs": [
        {
          "indexed": false,
          "internalType": "uint256",
          "name": "endTime",
          "type": "uint256"
        }
      ],
      "name": "BattleEnded",
      "type": "event"
    },
    {
      "anonymous": false,
      "inputs": [
        {
          "indexed": false,
          "internalType": "uint8",
          "name": "version",
          "type": "uint8"
        }
      ],
      "name": "Initialized",
      "type": "event"
    },
    {
      "inputs": [
        {
          "internalType": "address",
          "name": "armyAddress",
          "type": "address"
        },
        {
          "internalType": "uint256",
          "name": "side",
          "type": "uint256"
        }
      ],
      "name": "acceptArmyInBattle",
      "outputs": [],
      "stateMutability": "nonpayable",
      "type": "function"
    },
    {
      "inputs": [
        {
          "internalType": "address",
          "name": "",
          "type": "address"
        }
      ],
      "name": "armySide",
      "outputs": [
        {
          "internalType": "uint256",
          "name": "",
          "type": "uint256"
        }
      ],
      "stateMutability": "view",
      "type": "function"
    },
    {
      "inputs": [
        {
          "internalType": "address",
          "name": "",
          "type": "address"
        },
        {
          "internalType": "bytes32",
          "name": "",
          "type": "bytes32"
        }
      ],
      "name": "armyUnitsAdditionalMultipliers",
      "outputs": [
        {
          "internalType": "uint256",
          "name": "",
          "type": "uint256"
        }
      ],
      "stateMutability": "view",
      "type": "function"
    },
    {
      "inputs": [
        {
          "internalType": "address",
          "name": "",
          "type": "address"
        },
        {
          "internalType": "bytes32",
          "name": "",
          "type": "bytes32"
        }
      ],
      "name": "armyUnitsAmount",
      "outputs": [
        {
          "internalType": "uint256",
          "name": "",
          "type": "uint256"
        }
      ],
      "stateMutability": "view",
      "type": "function"
    },
    {
      "inputs": [],
      "name": "assetGroupId",
      "outputs": [
        {
          "internalType": "bytes32",
          "name": "",
          "type": "bytes32"
        }
      ],
      "stateMutability": "view",
      "type": "function"
    },
    {
      "inputs": [],
      "name": "assetTypeId",
      "outputs": [
        {
          "internalType": "bytes32",
          "name": "",
          "type": "bytes32"
        }
      ],
      "stateMutability": "view",
      "type": "function"
    },
    {
      "inputs": [],
      "name": "battleTimeInfo",
      "outputs": [
        {
          "internalType": "uint64",
          "name": "beginTime",
          "type": "uint64"
        },
        {
          "internalType": "uint64",
          "name": "duration",
          "type": "uint64"
        },
        {
          "internalType": "uint64",
          "name": "endTime",
          "type": "uint64"
        }
      ],
      "stateMutability": "view",
      "type": "function"
    },
    {
      "inputs": [],
      "name": "calculateAllCasualties",
      "outputs": [
        {
          "internalType": "uint256[]",
          "name": "",
          "type": "uint256[]"
        },
        {
          "internalType": "uint256[]",
          "name": "",
          "type": "uint256[]"
        },
        {
          "internalType": "uint256",
          "name": "",
          "type": "uint256"
        }
      ],
      "stateMutability": "view",
      "type": "function"
    },
    {
      "inputs": [
        {
          "internalType": "address",
          "name": "armyAddress",
          "type": "address"
        }
      ],
      "name": "calculateArmyCasualties",
      "outputs": [
        {
          "internalType": "bool",
          "name": "",
          "type": "bool"
        },
        {
          "internalType": "uint256[]",
          "name": "",
          "type": "uint256[]"
        }
      ],
      "stateMutability": "view",
      "type": "function"
    },
    {
      "inputs": [
        {
          "internalType": "uint256",
          "name": "globalMultiplier",
          "type": "uint256"
        },
        {
          "internalType": "uint256",
          "name": "baseBattleDuration",
          "type": "uint256"
        },
        {
          "internalType": "uint256",
          "name": "minimumBattleDuration",
          "type": "uint256"
        },
        {
          "internalType": "bool",
          "name": "isCultistsAttacked",
          "type": "bool"
        },
        {
          "internalType": "uint256",
          "name": "side1UnitsAmount",
          "type": "uint256"
        },
        {
          "internalType": "uint256",
          "name": "side2UnitsAmount",
          "type": "uint256"
        },
        {
          "internalType": "uint256",
          "name": "maxBattleDuration",
          "type": "uint256"
        }
      ],
      "name": "calculateBattleDuration",
      "outputs": [
        {
          "internalType": "uint64",
          "name": "",
          "type": "uint64"
        }
      ],
      "stateMutability": "view",
      "type": "function"
    },
    {
      "inputs": [],
      "name": "calculateStage1Casualties",
      "outputs": [
        {
          "internalType": "uint256[]",
          "name": "_side1Casualties",
          "type": "uint256[]"
        },
        {
          "internalType": "uint256[]",
          "name": "_side2Casualties",
          "type": "uint256[]"
        },
        {
          "internalType": "bytes",
          "name": "stageParams",
          "type": "bytes"
        }
      ],
      "stateMutability": "view",
      "type": "function"
    },
    {
      "inputs": [
        {
          "internalType": "uint256[]",
          "name": "stage1Side1Casualties",
          "type": "uint256[]"
        },
        {
          "internalType": "uint256[]",
          "name": "stage1Side2Casualties",
          "type": "uint256[]"
        }
      ],
      "name": "calculateStage2Casualties",
      "outputs": [
        {
          "internalType": "uint256[]",
          "name": "_side1Casualties",
          "type": "uint256[]"
        },
        {
          "internalType": "uint256[]",
          "name": "_side2Casualties",
          "type": "uint256[]"
        },
        {
          "internalType": "bytes",
          "name": "stageParams",
          "type": "bytes"
        }
      ],
      "stateMutability": "view",
      "type": "function"
    },
    {
      "inputs": [],
      "name": "canEndBattle",
      "outputs": [
        {
          "internalType": "bool",
          "name": "",
          "type": "bool"
        }
      ],
      "stateMutability": "view",
      "type": "function"
    },
    {
      "inputs": [
        {
          "internalType": "uint256",
          "name": "",
          "type": "uint256"
        },
        {
          "internalType": "bytes32",
          "name": "",
          "type": "bytes32"
        }
      ],
      "name": "casualties",
      "outputs": [
        {
          "internalType": "uint256",
          "name": "",
          "type": "uint256"
        }
      ],
      "stateMutability": "view",
      "type": "function"
    },
    {
      "inputs": [],
      "name": "endBattle",
      "outputs": [],
      "stateMutability": "nonpayable",
      "type": "function"
    },
    {
      "inputs": [],
      "name": "era",
      "outputs": [
        {
          "internalType": "contract IEra",
          "name": "",
          "type": "address"
        }
      ],
      "stateMutability": "view",
      "type": "function"
    },
    {
      "inputs": [],
      "name": "eraNumber",
      "outputs": [
        {
          "internalType": "uint256",
          "name": "",
          "type": "uint256"
        }
      ],
      "stateMutability": "view",
      "type": "function"
    },
    {
      "inputs": [
        {
          "internalType": "bool",
          "name": "isCultistsAttacked",
          "type": "bool"
        },
        {
          "internalType": "uint256",
          "name": "maxBattleDuration",
          "type": "uint256"
        },
        {
          "internalType": "uint256",
          "name": "side1UnitsAmount",
          "type": "uint256"
        },
        {
          "internalType": "uint256",
          "name": "side2UnitsAmount",
          "type": "uint256"
        }
      ],
      "name": "getBattleDuration",
      "outputs": [
        {
          "internalType": "uint64",
          "name": "",
          "type": "uint64"
        }
      ],
      "stateMutability": "view",
      "type": "function"
    },
    {
      "inputs": [
        {
          "internalType": "bytes",
          "name": "initParams",
          "type": "bytes"
        }
      ],
      "name": "init",
      "outputs": [],
      "stateMutability": "nonpayable",
      "type": "function"
    },
    {
      "inputs": [],
      "name": "isEndedBattle",
      "outputs": [
        {
          "internalType": "bool",
          "name": "",
          "type": "bool"
        }
      ],
      "stateMutability": "view",
      "type": "function"
    },
    {
      "inputs": [],
      "name": "isLobbyTime",
      "outputs": [
        {
          "internalType": "bool",
          "name": "",
          "type": "bool"
        }
      ],
      "stateMutability": "view",
      "type": "function"
    },
    {
      "inputs": [],
      "name": "position",
      "outputs": [
        {
          "internalType": "uint64",
          "name": "",
          "type": "uint64"
        }
      ],
      "stateMutability": "view",
      "type": "function"
    },
    {
      "inputs": [],
      "name": "registry",
      "outputs": [
        {
          "internalType": "contract IRegistry",
          "name": "",
          "type": "address"
        }
      ],
      "stateMutability": "view",
      "type": "function"
    },
    {
      "inputs": [
        {
          "internalType": "uint256",
          "name": "",
          "type": "uint256"
        },
        {
          "internalType": "bytes32",
          "name": "",
          "type": "bytes32"
        }
      ],
      "name": "sideUnitsAmount",
      "outputs": [
        {
          "internalType": "uint256",
          "name": "",
          "type": "uint256"
        }
      ],
      "stateMutability": "view",
      "type": "function"
    },
    {
      "inputs": [],
      "name": "winningSide",
      "outputs": [
        {
          "internalType": "uint256",
          "name": "",
          "type": "uint256"
        }
      ],
      "stateMutability": "view",
      "type": "function"
    },
    {
      "inputs": [],
      "name": "world",
      "outputs": [
        {
          "internalType": "contract IWorld",
          "name": "",
          "type": "address"
        }
      ],
      "stateMutability": "view",
      "type": "function"
    },
    {
      "inputs": [],
      "name": "worldAssetFactory",
      "outputs": [
        {
          "internalType": "contract IWorldAssetFactory",
          "name": "",
          "type": "address"
        }
      ],
      "stateMutability": "view",
      "type": "function"
    }
  ],
  "bytecode": "0x6080604052348015600f57600080fd5b506135908061001f6000396000f3fe608060405234801561001057600080fd5b50600436106101795760003560e01c80637b103999116100d9578063bb713ee811610087578063bb713ee814610394578063bc68eb49146103ab578063d1c98618146103be578063ece56a1a146103c6578063ee260fbb146103ce578063f4f67fc1146103f9578063fbf063381461041957600080fd5b80637b1039991461031f5780637d884c741461032757806384ba89e31461032f5780638dc82a4a146103375780638f5803f014610362578063971e03cc146103755780639d4095fe1461038c57600080fd5b806330b67baa1161013657806330b67baa14610248578063383f9ac31461025057806338569379146102a35780634ddf47d4146102ce57806371b95cb1146102e357806373511c02146102f6578063758461351461031757600080fd5b8063057dc9951461017e57806309218e91146101ae5780630b4e99c3146101c1578063143e55e0146101d7578063143ef9ac146101f75780631852b5af14610222575b600080fd5b61019161018c366004612de3565b610422565b6040516001600160401b0390911681526020015b60405180910390f35b600354610191906001600160401b031681565b6101c9610534565b6040519081526020016101a5565b6101df610571565b6040516001600160a01b0390911681526020016101a5565b6101c9610205366004612e52565b600560209081526000928352604080842090915290825290205481565b600954600160801b90046001600160401b031615155b60405190151581526020016101a5565b6101df6105f5565b600954610279906001600160401b0380821691600160401b8104821691600160801b9091041683565b604080516001600160401b03948516815292841660208401529216918101919091526060016101a5565b6101c96102b1366004612e7e565b600460209081526000928352604080842090915290825290205481565b6102e16102dc366004612ee6565b6105ff565b005b6101916102f1366004612f7e565b610ac5565b610309610304366004612fb7565b610ae3565b6040516101a5929190613010565b610238610d17565b6101df610dea565b6101c9610e31565b6101c9610e6e565b6101c9610345366004612e7e565b600760209081526000928352604080842090915290825290205481565b6102e1610370366004612e52565b610eab565b61037d61128f565b6040516101a59392919061302b565b6102386116f4565b61039c6117c6565b6040516101a5939291906130a1565b61037d6103b9366004613167565b61196c565b6102e1611dfa565b6101df61213e565b6101c96103dc366004612e52565b600660209081526000928352604080842090915290825290205481565b6101c9610407366004612fb7565b60086020526000908152604090205481565b6101c9600a5481565b600083158061042f575082155b1561044d5760405163e12ddd0b60e01b815260040160405180910390fd5b600061045989896131fa565b9050856104f5578385101580156104795750600161047785876131fa565b115b156104ab57848461048b83600261320e565b6001600160401b031661049e9190613230565b6104a891906131fa565b90505b84841180156104c3575060016104c186866131fa565b115b156104f55783856104d583600261320e565b6001600160401b03166104e89190613230565b6104f291906131fa565b90505b821580159061050c5750806001600160401b031683105b156105145750815b86816001600160401b031610156105285750855b98975050505050505050565b604080516020808252818301909252600091309183918291906020820181803683370190505090506020607a60208301853c602001519392505050565b600061057b6105f5565b6001600160a01b031663720a70bd610591610e31565b6040518263ffffffff1660e01b81526004016105af91815260200190565b602060405180830381865afa1580156105cc573d6000803e3d6000fd5b505050506040513d601f19601f820116820180604052508101906105f09190613247565b905090565b60006105f0612185565b600054610100900460ff161580801561061f5750600054600160ff909116105b806106395750303b158015610639575060005460ff166001145b6106a05760405162461bcd60e51b815260206004820152602e60248201527f496e697469616c697a61626c653a20636f6e747261637420697320616c72656160448201526d191e481a5b9a5d1a585b1a5e995960921b606482015260840160405180910390fd5b6000805460ff1916600117905580156106c3576000805461ff0019166101001790555b600080600080858060200190518101906106dd91906132c2565b935093509350935060008490506000849050816001600160a01b031663418f35cc6040518163ffffffff1660e01b8152600401602060405180830381865afa15801561072d573d6000803e3d6000fd5b505050506040513d601f19601f8201168201806040525081019061075191906133c2565b6003805467ffffffffffffffff199081166001600160401b03938416179091556009805490911642909216919091179055600061078d866121c2565b9050806107c25761079f8686866122bb565b156107bd57604051634f55a85360e11b815260040160405180910390fd5b6108a7565b6000805b86518110156108835760008782815181106107e3576107e36133dd565b602002602001015190506000878381518110610801576108016133dd565b60209081029190910101516001805480820182557fb10e2d527612073b26eecdfd717e6a320cf44b4afac2b0732d9fcbe2b7fa0cf6018490556002805491820181556000527f405787fa12a823e0f2b7631cc41b3ba8828b3321ca811111fa75cd3aa3bb5ace01819055905061087781856133f3565b935050506001016107c6565b50806000036108a55760405163a7998b9760e01b815260040160405180910390fd5b505b6000826001600160a01b031663610bb6a06040518163ffffffff1660e01b815260040160a060405180830381865afa1580156108e7573d6000803e3d6000fd5b505050506040513d601f19601f8201168201806040525081019061090b9190613406565b505060095491935060009250506001600160401b03908116908316111561096f57600954610942906001600160401b031683613466565b6001600160401b03169050600a81101561096f5760405163f9df86ef60e01b815260040160405180910390fd5b610986838261097d8c612410565b6102f18c612410565b600980546001600160401b0392909216600160401b0267ffffffffffffffff60401b19909216919091179055604051631397487f60e31b8152306004820152600160248201526001600160a01b03861690639cba43f890604401600060405180830381600087803b1580156109fa57600080fd5b505af1158015610a0e573d6000803e3d6000fd5b5050604051631397487f60e31b8152306004820152600260248201526001600160a01b0387169250639cba43f89150604401600060405180830381600087803b158015610a5a57600080fd5b505af1158015610a6e573d6000803e3d6000fd5b505050505050505050505050508015610ac1576000805461ff0019169055604051600181527f7f26b83ff96e1f2b6a682f133852f6798a09c465da95921460cefb38474024989060200160405180910390a15b5050565b6000610ada600161fd20600a8887878a610422565b95945050505050565b6001600160a01b03811660009081526008602052604081205460609082610b08612547565b9050600081516001600160401b03811115610b2557610b25612ea0565b604051908082528060200260200182016040528015610b4e578160200160208202803683370190505b50600a54909150831460005b8351811015610d0b576000848281518110610b7757610b776133dd565b60209081029190910181015160008881526004835260408082208383528452808220546001600160a01b038e16835260058552818320848452909452902054909250811580610bc4575080155b15610bd157505050610d03565b600082610be683670de0b6b3a7640000613230565b610bf091906131fa565b90506000600760008b815260200190815260200160002060008681526020019081526020016000205490506000600660008f6001600160a01b03166001600160a01b03168152602001908152602001600020600087815260200190815260200160002054670de0b6b3a7640000610c6791906133f3565b9050600081610c768585613230565b610c8091906131fa565b905080600003610c965750505050505050610d03565b6000610caa82670de0b6b3a76400006125f2565b905089610cdb576000610cc583670de0b6b3a7640000612612565b905080871015610cd55781610cd7565b805b9150505b808b8a81518110610cee57610cee6133dd565b60200260200101818152505050505050505050505b600101610b5a565b50969095509350505050565b600080610d226105f5565b6001600160a01b03166344d9bc5f6040518163ffffffff1660e01b8152600401602060405180830381865afa158015610d5f573d6000803e3d6000fd5b505050506040513d601f19601f82011682018060405250810190610d839190613485565b905060008115610d9c57610d974283612642565b610d9e565b425b600954909150600090610dc3906001600160401b03600160401b82048116911661349e565b6009546001600160401b039182169250168210801590610de257508082105b935050505090565b6000610df46105f5565b6001600160a01b0316637b1039996040518163ffffffff1660e01b8152600401602060405180830381865afa1580156105cc573d6000803e3d6000fd5b604080516020808252818301909252600091309183918291906020820181803683370190505090506020609a60208301853c602001519392505050565b604080516020808252818301909252600091309183918291906020820181803683370190505090506020605a60208301853c602001519392505050565b610eb3612658565b6000610ebd612547565b90506000610eca846121c2565b9050600081610ed95782610f28565b6001805460408051602080840282018101909252828152929190830182828015610f2257602002820191906000526020600020905b815481526020019060010190808311610f0e575b50505050505b90506000610f34610571565b905060005b82518110156111a0576000838281518110610f5657610f566133dd565b602002602001015190506000836001600160a01b031663feae7dc3836040518263ffffffff1660e01b8152600401610f9091815260200190565b602060405180830381865afa158015610fad573d6000803e3d6000fd5b505050506040513d601f19601f82011682018060405250810190610fd19190613247565b6040516370a0823160e01b81526001600160a01b038b8116600483015291909116906370a0823190602401602060405180830381865afa158015611019573d6000803e3d6000fd5b505050506040513d601f19601f8201168201806040525081019061103d9190613485565b905080861561108e57600060018001858154811061105d5761105d6133dd565b906000526020600020015490508083101561108b5760405163da4cfa9760e01b815260040160405180910390fd5b90505b604051630729dd9560e31b8152600481018490526000906001600160a01b038c169063394eeca890602401602060405180830381865afa1580156110d6573d6000803e3d6000fd5b505050506040513d601f19601f820116820180604052508101906110fa9190613485565b90506000670de0b6b3a764000061111183826133f3565b61111b9085613230565b61112591906131fa565b60008c81526004602090815260408083208984529091528120805492935083929091906111539084906133f3565b90915550506001600160a01b038c16600081815260056020908152604080832089845282528083209490945591815260068252828120968152959052909320929092555050600101610f39565b50600080866001146111b35760016111b6565b60025b60ff16905060005b8651811015611219576000828152600460205260408120885182908a90859081106111eb576111eb6133dd565b602002602001015181526020019081526020016000205411156112115760019250611219565b6001016111be565b506001600160a01b038816600090815260086020526040902087905581156112435761124361271a565b604080516001600160a01b038a168152602081018990527ff6a9086f0e560818b9fc087387152503d2864daffa4c3387be717f065c1e0f22910160405180910390a15050505050505050565b6060806060600061129e612547565b905080516001600160401b038111156112b9576112b9612ea0565b6040519080825280602002602001820160405280156112e2578160200160208202803683370190505b50935080516001600160401b038111156112fe576112fe612ea0565b604051908082528060200260200182016040528015611327578160200160208202803683370190505b50925060008060008060005b8551811015611493576000868281518110611350576113506133dd565b60200260200101519050600061136582612810565b8051600084815260008051602061351b833981519152602052604090205491925061138f91613230565b6113a190670de0b6b3a7640000613230565b6113ab90886133f3565b8151600084815260008051602061353b83398151915260205260409020549198506113d591613230565b6113e790670de0b6b3a7640000613230565b6113f190876133f3565b602080830151600085815260008051602061351b83398151915290925260409091205491975061142091613230565b61143290670de0b6b3a7640000613230565b61143c90866133f3565b602080830151600085815260008051602061353b83398151915290925260409091205491965061146b91613230565b61147d90670de0b6b3a7640000613230565b61148790856133f3565b93505050600101611333565b506040805160208101869052908101849052606081018390526080810182905260a00160408051808303601f190181529190526009549096506000906114f99085908590600160401b90046001600160401b03166114f4600161fd206131fa565b612a00565b6009549091506000906115279087908590600160401b90046001600160401b03166114f4600161fd206131fa565b905060005b87518110156116e7576000888281518110611549576115496133dd565b602090810291909101810151600081815260008051602061351b8339815191529092526040822054909250670de0b6b3a764000090611589908790613230565b61159391906131fa565b600083815260008051602061351b83398151915260205260409020549091508111156115fa57600082815260008051602061351b83398151915260205260409020548d518e90859081106115e9576115e96133dd565b60200260200101818152505061161a565b808d848151811061160d5761160d6133dd565b6020026020010181815250505b600082815260008051602061353b8339815191526020526040812054670de0b6b3a76400009061164b908790613230565b61165591906131fa565b600084815260008051602061353b83398151915260205260409020549091508111156116bc57600083815260008051602061353b83398151915260205260409020548d518e90869081106116ab576116ab6133dd565b6020026020010181815250506116dc565b808d85815181106116cf576116cf6133dd565b6020026020010181815250505b50505060010161152c565b5050505050505050909192565b6000806116ff6105f5565b6001600160a01b03166344d9bc5f6040518163ffffffff1660e01b8152600401602060405180830381865afa15801561173c573d6000803e3d6000fd5b505050506040513d601f19601f820116820180604052508101906117609190613485565b905060008115611779576117744283612642565b61177b565b425b6009549091506001600160401b0316158015906117bf57506009546117b2906001600160401b03600160401b82048116911661349e565b6001600160401b03168110155b9250505090565b6060806000806000806117d761128f565b92509250925060008060006117ec868661196c565b92509250925060006117fe8583612a41565b9050600087516001600160401b0381111561181b5761181b612ea0565b604051908082528060200260200182016040528015611844578160200160208202803683370190505b509050600087516001600160401b0381111561186257611862612ea0565b60405190808252806020026020018201604052801561188b578160200160208202803683370190505b50905060005b8951811015611959578681815181106118ac576118ac6133dd565b60200260200101518a82815181106118c6576118c66133dd565b60200260200101516118d891906133f3565b8382815181106118ea576118ea6133dd565b602002602001018181525050858181518110611908576119086133dd565b6020026020010151898281518110611922576119226133dd565b602002602001015161193491906133f3565b828281518110611946576119466133dd565b6020908102919091010152600101611891565b50909b909a509098509650505050505050565b6060806060600061197b612547565b905080516001600160401b0381111561199657611996612ea0565b6040519080825280602002602001820160405280156119bf578160200160208202803683370190505b50935080516001600160401b038111156119db576119db612ea0565b604051908082528060200260200182016040528015611a04578160200160208202803683370190505b50925060008060008060005b8551811015611b9e576000868281518110611a2d57611a2d6133dd565b602002602001015190506000611a4282612810565b905060008d8481518110611a5857611a586133dd565b602090810291909101810151600085815260008051602061351b833981519152909252604090912054611a8b91906134bd565b905060008d8581518110611aa157611aa16133dd565b602090810291909101810151600086815260008051602061353b833981519152909252604090912054611ad491906134bd565b9050826040015182611ae69190613230565b611af890670de0b6b3a7640000613230565b611b02908a6133f3565b9850826040015181611b149190613230565b611b2690670de0b6b3a7640000613230565b611b3090896133f3565b9750826060015182611b429190613230565b611b5490670de0b6b3a7640000613230565b611b5e90886133f3565b9650826060015181611b709190613230565b611b8290670de0b6b3a7640000613230565b611b8c90876133f3565b95505060019093019250611a10915050565b506040805160208101869052908101849052606081018390526080810182905260a00160405160208183030381529060405295508160001480611bdf575080155b15611bee575050505050611df3565b600954600090611c199085908590600160401b90046001600160401b03166114f4600161fd206131fa565b600954909150600090611c479087908590600160401b90046001600160401b03166114f4600161fd206131fa565b905060005b8751811015611dea576000888281518110611c6957611c696133dd565b6020026020010151905060008e8381518110611c8757611c876133dd565b602090810291909101810151600084815260008051602061351b833981519152909252604090912054611cba91906134bd565b90506000670de0b6b3a7640000611cd18784613230565b611cdb91906131fa565b9050818110611d0857818e8581518110611cf757611cf76133dd565b602002602001018181525050611d28565b808e8581518110611d1b57611d1b6133dd565b6020026020010181815250505b505060008d8381518110611d3e57611d3e6133dd565b602090810291909101810151600084815260008051602061353b833981519152909252604090912054611d7191906134bd565b90506000670de0b6b3a7640000611d888684613230565b611d9291906131fa565b9050818110611dbf57818d8581518110611dae57611dae6133dd565b602002602001018181525050611ddf565b808d8581518110611dd257611dd26133dd565b6020026020010181815250505b505050600101611c4c565b50505050505050505b9250925092565b611e026116f4565b611e1f57604051630355dc2160e61b815260040160405180910390fd5b600954600160801b90046001600160401b031615611e5057604051637f56dbbd60e01b815260040160405180910390fd5b600954600090611e72906001600160401b03600160401b82048116911661349e565b6009805467ffffffffffffffff60801b1916600160801b6001600160401b038416908102919091179091556040519081529091507f6e89b8a2a3c481f57d678455f59f42429cb60be86708621a7d8a371ca5da3a049060200160405180910390a16000611edd610571565b60035460405163c4c31e8560e01b81526001600160401b0390911660048201526001600160a01b03919091169063c4c31e8590602401602060405180830381865afa158015611f30573d6000803e3d6000fd5b505050506040513d601f19601f82011682018060405250810190611f549190613247565b90506000816001600160a01b0316630b4e99c36040518163ffffffff1660e01b8152600401602060405180830381865afa158015611f96573d6000803e3d6000fd5b505050506040513d601f19601f82011682018060405250810190611fba9190613485565b60408051808201909152600881526743554c544953545360c01b60209091015290507f9720b703263248cc672c2dcf2bd34d367a3fd48b1bcd07ae36199e513e33ff108101612139576000826001600160a01b031663f10e38af6040518163ffffffff1660e01b8152600401602060405180830381865afa158015612043573d6000803e3d6000fd5b505050506040513d601f19601f820116820180604052508101906120679190613247565b9050306001600160a01b0316816001600160a01b03166344e445456040518163ffffffff1660e01b8152600401602060405180830381865afa1580156120b1573d6000803e3d6000fd5b505050506040513d601f19601f820116820180604052508101906120d59190613247565b6001600160a01b03160361213757806001600160a01b0316631d8557d76040518163ffffffff1660e01b8152600401600060405180830381600087803b15801561211e57600080fd5b505af1158015612132573d6000803e3d6000fd5b505050505b505b505050565b6000612148610dea565b6001600160a01b031663ece56a1a6040518163ffffffff1660e01b8152600401602060405180830381865afa1580156105cc573d6000803e3d6000fd5b604080516014808252818301909252600091309183918291906020820181803683370190505090506014602a60208301853c601401519392505050565b600080826001600160a01b031663c45f10006040518163ffffffff1660e01b8152600401602060405180830381865afa158015612203573d6000803e3d6000fd5b505050506040513d601f19601f820116820180604052508101906122279190613247565b90506040518060400160405280600881526020016743554c544953545360c01b81525080519060200120816001600160a01b0316630b4e99c36040518163ffffffff1660e01b8152600401602060405180830381865afa15801561228f573d6000803e3d6000fd5b505050506040513d601f19601f820116820180604052508101906122b39190613485565b149392505050565b6000806122c6610571565b905060005b8451811015612402576000826001600160a01b031663feae7dc38784815181106122f7576122f76133dd565b60200260200101516040518263ffffffff1660e01b815260040161231d91815260200190565b602060405180830381865afa15801561233a573d6000803e3d6000fd5b505050506040513d601f19601f8201168201806040525081019061235e9190613247565b6040516370a0823160e01b81526001600160a01b03898116600483015291909116906370a0823190602401602060405180830381865afa1580156123a6573d6000803e3d6000fd5b505050506040513d601f19601f820116820180604052508101906123ca9190613485565b90508482815181106123de576123de6133dd565b60200260200101518111156123f95760019350505050612409565b506001016122cb565b5060009150505b9392505050565b60008061241b612547565b90506000612427610571565b90506000805b835181101561253e57826001600160a01b031663feae7dc3858381518110612457576124576133dd565b60200260200101516040518263ffffffff1660e01b815260040161247d91815260200190565b602060405180830381865afa15801561249a573d6000803e3d6000fd5b505050506040513d601f19601f820116820180604052508101906124be9190613247565b6040516370a0823160e01b81526001600160a01b03888116600483015291909116906370a0823190602401602060405180830381865afa158015612506573d6000803e3d6000fd5b505050506040513d601f19601f8201168201806040525081019061252a9190613485565b61253490836133f3565b915060010161242d565b50949350505050565b60606000612553612b60565b9050600081516001600160401b0381111561257057612570612ea0565b604051908082528060200260200182016040528015612599578160200160208202803683370190505b50905060005b81518110156125eb578281815181106125ba576125ba6133dd565b6020026020010151604001518282815181106125d8576125d86133dd565b602090810291909101015260010161259f565b5092915050565b6000816125ff81856131fa565b6126099190613230565b90505b92915050565b60008061261f84846125f2565b905061262b83856134d0565b156126095761263a83826133f3565b949350505050565b60008183106126515781612609565b5090919050565b60006126626105f5565b9050336001600160a01b038216148015906126f9575060006001600160a01b03821663ebbe8034612691610e31565b6040516001600160e01b031960e084901b1681526004810191909152336024820152604401602060405180830381865afa1580156126d3573d6000803e3d6000fd5b505050506040513d601f19601f820116820180604052508101906126f79190613485565b145b156127175760405163422656d160e01b815260040160405180910390fd5b50565b60008060006127276117c6565b9250925092506000612737612547565b905060005b8151811015612807576000828281518110612759576127596133dd565b60200260200101519050858281518110612775576127756133dd565b60209081029190910181015160008381527fb39221ace053465ec3453ce2b36430bd138b997ecea25c1043da0c366812b82890925260409091205584518590839081106127c4576127c46133dd565b60209081029190910181015160009283527fb7c774451310d1be4108bc180d1b52823cb0ee0274a6c0081bcaf94f115fb96d90915260409091205560010161273c565b5050600a555050565b6128496040518060c001604052806000815260200160008152602001600081526020016000815260200160008152602001600081525090565b6040805180820190915260078152662ba0a92924a7a960c91b6020909101527f963ace81a31bb0e5e04a9395a1006fbdeb19cac259cef54f594aee1106583c6f82016128d3576040518060c0016040528060008152602001601481526020016005815260200160058152602001650a86cc92e3da815260200165150d9925c7b48152509050919050565b60408051808201909152600681526520a921a422a960d11b6020909101527fbd21a0403f8a882c166bd206a22b19e35435476f82a2cccdbfebf4d666c861c0820161295c576040518060c0016040528060058152602001600581526020016000815260200160058152602001650a86cc92e3da815260200165150d9925c7b48152509050919050565b6040805180820190915260088152672427a929a2a6a0a760c11b6020909101527f762a1190b034cd04c3eae43da1943cdf0137d457634c4d62e69626f81f1986c782016129e7576040518060c0016040528060008152602001600581526020016005815260200160148152602001650a86cc92e3da815260200165150d9925c7b48152509050919050565b60405163ea3b0abb60e01b815260040160405180910390fd5b60008082612a0e8588613230565b612a1891906131fa565b905084612a2d82670de0b6b3a7640000613230565b612a3791906131fa565b9695505050505050565b600080600080600086806020019051810190612a5d91906134e4565b935093509350935060008060008089806020019051810190612a7f91906134e4565b93509350935093506000808789670de0b6b3a7640000612a9f9190613230565b612aa991906131fa565b9050600087612ac08c670de0b6b3a7640000613230565b612aca91906131fa565b9050600085118015612adc5750600084115b15612b345784612af487670de0b6b3a7640000613230565b612afe91906131fa565b612b0890836133f3565b915083612b1d88670de0b6b3a7640000613230565b612b2791906131fa565b612b3190826133f3565b90505b80821115612b4157600292505b80821015612b4e57600192505b50909c9b505050505050505050505050565b6040805160038082526080820190925260609160009190816020015b60408051606080820183528082526020820152600091810191909152815260200190600190039081612b7c5750506040805160a0810182526011606082019081527026b4ba343930b2bab6902bb0b93934b7b960791b6080830152815281518083018352600881526736aba0a92924a7a960c11b602080830191909152808301919091528251808401845260078152662ba0a92924a7a960c91b9101527f69c5317e5ce44f1a1fb56c6a5eff904214e6353da6310ab0a6b511eef9a7c391918101919091528151919250908290600090612c5857612c586133dd565b6020908102919091018101919091526040805160a0810182526010606082019081526f26b4ba343930b2bab69020b931b432b960811b6080830152815281518083018352600781526636a0a921a422a960c91b818501528184015281518083018352600681526520a921a422a960d11b9301929092527f42de5fbfc07577d3e9942df95dd4e61cabcab8907d5d333240140b2999379e4090820152815182906001908110612d0857612d086133dd565b6020908102919091018101919091526040805160a0810182526012606082019081527126b4ba343930b2bab6902437b939b2b6b0b760711b6080830152815281518083018352600981526836a427a929a2a6a0a760b91b81850152818401528151808301835260088152672427a929a2a6a0a760c11b9301929092527f89d5ee6f4fcb32fb3c151bc25e6bc320fec82ba89cb3b29d1969d907e0e6793990820152815182906002908110612dbe57612dbe6133dd565b6020908102919091010152919050565b80358015158114612dde57600080fd5b919050565b600080600080600080600060e0888a031215612dfe57600080fd5b873596506020880135955060408801359450612e1c60608901612dce565b9699959850939660808101359560a0820135955060c0909101359350915050565b6001600160a01b038116811461271757600080fd5b60008060408385031215612e6557600080fd5b8235612e7081612e3d565b946020939093013593505050565b60008060408385031215612e9157600080fd5b50508035926020909101359150565b634e487b7160e01b600052604160045260246000fd5b604051601f8201601f191681016001600160401b0381118282101715612ede57612ede612ea0565b604052919050565b600060208284031215612ef857600080fd5b81356001600160401b03811115612f0e57600080fd5b8201601f81018413612f1f57600080fd5b80356001600160401b03811115612f3857612f38612ea0565b612f4b601f8201601f1916602001612eb6565b818152856020838501011115612f6057600080fd5b81602084016020830137600091810160200191909152949350505050565b60008060008060808587031215612f9457600080fd5b612f9d85612dce565b966020860135965060408601359560600135945092505050565b600060208284031215612fc957600080fd5b813561260981612e3d565b600081518084526020840193506020830160005b82811015613006578151865260209586019590910190600101612fe8565b5093949350505050565b821515815260406020820152600061263a6040830184612fd4565b60608152600061303e6060830186612fd4565b82810360208401526130508186612fd4565b90508281036040840152835180825260005b8181101561307e57602081870181015184830182015201613062565b506000602082840101526020601f19601f83011683010192505050949350505050565b6060815260006130b46060830186612fd4565b82810360208401526130c68186612fd4565b915050826040830152949350505050565b60006001600160401b038211156130f0576130f0612ea0565b5060051b60200190565b600082601f83011261310b57600080fd5b813561311e613119826130d7565b612eb6565b8082825260208201915060208360051b86010192508583111561314057600080fd5b602085015b8381101561315d578035835260209283019201613145565b5095945050505050565b6000806040838503121561317a57600080fd5b82356001600160401b0381111561319057600080fd5b61319c858286016130fa565b92505060208301356001600160401b038111156131b857600080fd5b6131c4858286016130fa565b9150509250929050565b634e487b7160e01b600052601260045260246000fd5b634e487b7160e01b600052601160045260246000fd5b600082613209576132096131ce565b500490565b6001600160401b0381811683821602908116908181146125eb576125eb6131e4565b808202811582820484141761260c5761260c6131e4565b60006020828403121561325957600080fd5b815161260981612e3d565b600082601f83011261327557600080fd5b8151613283613119826130d7565b8082825260208201915060208360051b8601019250858311156132a557600080fd5b602085015b8381101561315d5780518352602092830192016132aa565b600080600080608085870312156132d857600080fd5b84516132e381612e3d565b60208601519094506132f481612e3d565b60408601519093506001600160401b0381111561331057600080fd5b8501601f8101871361332157600080fd5b805161332f613119826130d7565b8082825260208201915060208360051b85010192508983111561335157600080fd5b6020840193505b82841015613373578351825260209384019390910190613358565b8095505050505060608501516001600160401b0381111561339357600080fd5b61339f87828801613264565b91505092959194509250565b80516001600160401b0381168114612dde57600080fd5b6000602082840312156133d457600080fd5b612609826133ab565b634e487b7160e01b600052603260045260246000fd5b8082018082111561260c5761260c6131e4565b600080600080600060a0868803121561341e57600080fd5b613427866133ab565b9450613435602087016133ab565b9350613443604087016133ab565b9250613451606087016133ab565b60809690960151949793965091949392915050565b6001600160401b03828116828216039081111561260c5761260c6131e4565b60006020828403121561349757600080fd5b5051919050565b6001600160401b03818116838216019081111561260c5761260c6131e4565b8181038181111561260c5761260c6131e4565b6000826134df576134df6131ce565b500690565b600080600080608085870312156134fa57600080fd5b50508251602084015160408501516060909501519196909550909250905056feabd6e7cb50984ff9c2f3e18a2660c3353dadf4e3291deeb275dae2cd1e44fe0591da3fd0782e51c6b3986e9e672fd566868e71f3dbc2d6c2cd6fbb3e361af2a7a26469706673582212208defba11059a420462d204df5db5277e4ce1d878682d6610a5bbfffeb599061b64736f6c634300081a0033",
  "linkReferences": {},
  "deployedLinkReferences": {}
}