{
  "_format": "hh-sol-artifact-1",
  "contractName": "Geography",
  "sourceName": "contracts/core/geography/Geography.sol",
  "abi": [
    {
      "inputs": [],
      "name": "CannotIncludeAlreadyIncludedRegion",
      "type": "error"
    },
    {
      "inputs": [],
      "name": "CannotIncludeRegionDueToInsufficientUserSettlementsCountInNeighboringRegion",
      "type": "error"
    },
    {
      "inputs": [],
      "name": "CannotIncludeRegionDueToInsufficientValueSent",
      "type": "error"
    },
    {
      "inputs": [],
      "name": "CannotIncludeRegionWithInvalidRegionInclusionProofProvided",
      "type": "error"
    },
    {
      "inputs": [],
      "name": "FirstRegionCanOnlyBeIncludedByMightyCreator",
      "type": "error"
    },
    {
      "inputs": [],
      "name": "InvalidNeighborDirectionSpecified",
      "type": "error"
    },
    {
      "inputs": [],
      "name": "InvalidTileBonusConfiguration",
      "type": "error"
    },
    {
      "inputs": [],
      "name": "OnlyActiveGame",
      "type": "error"
    },
    {
      "inputs": [],
      "name": "ReentrantCall",
      "type": "error"
    },
    {
      "inputs": [],
      "name": "UnknownInputParameter",
      "type": "error"
    },
    {
      "anonymous": false,
      "inputs": [
        {
          "indexed": false,
          "internalType": "uint8",
          "name": "version",
          "type": "uint8"
        }
      ],
      "name": "Initialized",
      "type": "event"
    },
    {
      "anonymous": false,
      "inputs": [
        {
          "indexed": false,
          "internalType": "uint64",
          "name": "regionId",
          "type": "uint64"
        }
      ],
      "name": "RegionIncluded",
      "type": "event"
    },
    {
      "inputs": [
        {
          "internalType": "uint64",
          "name": "position1",
          "type": "uint64"
        },
        {
          "internalType": "uint64",
          "name": "position2",
          "type": "uint64"
        }
      ],
      "name": "getDistanceBetweenPositions",
      "outputs": [
        {
          "internalType": "uint64",
          "name": "",
          "type": "uint64"
        }
      ],
      "stateMutability": "pure",
      "type": "function"
    },
    {
      "inputs": [
        {
          "internalType": "uint64",
          "name": "position",
          "type": "uint64"
        }
      ],
      "name": "getRegionIdByPosition",
      "outputs": [
        {
          "internalType": "uint64",
          "name": "",
          "type": "uint64"
        },
        {
          "internalType": "bool",
          "name": "",
          "type": "bool"
        }
      ],
      "stateMutability": "view",
      "type": "function"
    },
    {
      "inputs": [
        {
          "internalType": "uint64",
          "name": "regionId",
          "type": "uint64"
        }
      ],
      "name": "getRegionOwner",
      "outputs": [
        {
          "internalType": "address",
          "name": "",
          "type": "address"
        }
      ],
      "stateMutability": "view",
      "type": "function"
    },
    {
      "inputs": [
        {
          "internalType": "uint64",
          "name": "regionId",
          "type": "uint64"
        }
      ],
      "name": "getRegionTier",
      "outputs": [
        {
          "internalType": "uint256",
          "name": "",
          "type": "uint256"
        }
      ],
      "stateMutability": "view",
      "type": "function"
    },
    {
      "inputs": [],
      "name": "getRegionsCount",
      "outputs": [
        {
          "internalType": "uint256",
          "name": "",
          "type": "uint256"
        }
      ],
      "stateMutability": "view",
      "type": "function"
    },
    {
      "inputs": [
        {
          "internalType": "uint64",
          "name": "position",
          "type": "uint64"
        },
        {
          "internalType": "uint256",
          "name": "radius",
          "type": "uint256"
        }
      ],
      "name": "getRingPositions",
      "outputs": [
        {
          "internalType": "uint64[]",
          "name": "",
          "type": "uint64[]"
        },
        {
          "internalType": "uint256",
          "name": "",
          "type": "uint256"
        }
      ],
      "stateMutability": "pure",
      "type": "function"
    },
    {
      "inputs": [
        {
          "internalType": "bytes32",
          "name": "tileBonusesSeed",
          "type": "bytes32"
        },
        {
          "internalType": "uint256",
          "name": "chanceForTileWithBonus",
          "type": "uint256"
        },
        {
          "internalType": "uint64",
          "name": "position",
          "type": "uint64"
        }
      ],
      "name": "getTileBonus",
      "outputs": [
        {
          "components": [
            {
              "internalType": "enum IGeography.TileBonusType",
              "name": "tileBonusType",
              "type": "uint8"
            },
            {
              "internalType": "uint8",
              "name": "tileBonusVariation",
              "type": "uint8"
            }
          ],
          "internalType": "struct IGeography.TileBonus",
          "name": "",
          "type": "tuple"
        }
      ],
      "stateMutability": "pure",
      "type": "function"
    },
    {
      "inputs": [
        {
          "internalType": "uint64",
          "name": "newRegionPosition",
          "type": "uint64"
        },
        {
          "internalType": "uint64",
          "name": "neighborRegionPosition",
          "type": "uint64"
        }
      ],
      "name": "includeRegion",
      "outputs": [],
      "stateMutability": "payable",
      "type": "function"
    },
    {
      "inputs": [
        {
          "internalType": "address",
          "name": "worldAddress",
          "type": "address"
        }
      ],
      "name": "init",
      "outputs": [],
      "stateMutability": "nonpayable",
      "type": "function"
    },
    {
      "inputs": [
        {
          "internalType": "uint64",
          "name": "regionId",
          "type": "uint64"
        }
      ],
      "name": "isRegionIncluded",
      "outputs": [
        {
          "internalType": "bool",
          "name": "",
          "type": "bool"
        }
      ],
      "stateMutability": "view",
      "type": "function"
    },
    {
      "inputs": [],
      "name": "world",
      "outputs": [
        {
          "internalType": "contract IWorld",
          "name": "",
          "type": "address"
        }
      ],
      "stateMutability": "view",
      "type": "function"
    }
  ],
  "bytecode": "0x6080604052348015600f57600080fd5b506150548061001f6000396000f3fe60806040526004361061009c5760003560e01c806365668c5a1161006457806365668c5a146101ab57806366b9e256146101f3578063a4911a2c14610221578063d1331b0714610234578063e114c8d914610261578063f791a01f1461027f57600080fd5b80630915dd5d146100a157806319ab453c146100e557806330b67baa1461010757806340adb9d514610145578063585cac101461017d575b600080fd5b3480156100ad57600080fd5b506100c16100bc366004614a71565b61029f565b604080516001600160401b0390931683529015156020830152015b60405180910390f35b3480156100f157600080fd5b50610105610100366004614aa3565b610392565b005b34801561011357600080fd5b5060005461012d906201000090046001600160a01b031681565b6040516001600160a01b0390911681526020016100dc565b34801561015157600080fd5b50610165610160366004614ac0565b6104aa565b6040516001600160401b0390911681526020016100dc565b34801561018957600080fd5b5061019d610198366004614af9565b6104f6565b6040516100dc929190614b25565b3480156101b757600080fd5b506101e36101c6366004614a71565b6001600160401b0316600090815260016020526040902054151590565b60405190151581526020016100dc565b3480156101ff57600080fd5b5061021361020e366004614a71565b610609565b6040519081526020016100dc565b61010561022f366004614ac0565b610638565b34801561024057600080fd5b5061025461024f366004614b7b565b610c7e565b6040516100dc9190614bb4565b34801561026d57600080fd5b506003546001600160401b0316610213565b34801561028b57600080fd5b5061012d61029a366004614a71565b6110c2565b60008060008060029054906101000a90046001600160a01b0316905061038884826001600160a01b031663879d62ed6040518163ffffffff1660e01b8152600401602060405180830381865afa1580156102fd573d6000803e3d6000fd5b505050506040513d601f19601f820116820180604052508101906103219190614bf0565b836001600160a01b03166348524fe56040518163ffffffff1660e01b8152600401602060405180830381865afa15801561035f573d6000803e3d6000fd5b505050506040513d601f19601f820116820180604052508101906103839190614c0d565b6111ad565b9250925050915091565b600054610100900460ff16158080156103b25750600054600160ff909116105b806103cc5750303b1580156103cc575060005460ff166001145b6104345760405162461bcd60e51b815260206004820152602e60248201527f496e697469616c697a61626c653a20636f6e747261637420697320616c72656160448201526d191e481a5b9a5d1a585b1a5e995960921b60648201526084015b60405180910390fd5b6000805460ff191660011790558015610457576000805461ff0019166101001790555b610460826112b5565b80156104a6576000805461ff0019169055604051600181527f7f26b83ff96e1f2b6a682f133852f6798a09c465da95921460cefb38474024989060200160405180910390a15b5050565b6000806104b68461134a565b905060006104c38461134a565b905060006104d083611386565b905060006104dd83611386565b90506104e982826113d7565b9450505050505b92915050565b6060600080610506846006614c3c565b6001600160401b0381111561051d5761051d614c53565b604051908082528060200260200182016040528015610546578160200160208202803683370190505b50905060006105548661134a565b905060005b858110156105765761056c826004611480565b9150600101610559565b506000805b60068110156105fb5760005b878110156105f25761059884611656565b156105de576105a6846116a8565b8584815181106105b8576105b8614c69565b6001600160401b0390921660209283029190910190910152826105da81614c7f565b9350505b6105e88483611480565b9350600101610587565b5060010161057b565b509196919550909350505050565b6001600160401b038116600090815260026020526040812054801561062e5792915050565b60035b9392505050565b600054600160b01b900460ff161515600103610667576040516306fda65d60e31b815260040160405180910390fd5b60008054600160b01b60ff60b01b199091161780825560408051637b10399960e01b81529051620100009092046001600160a01b031692918391637b1039999160048083019260209291908290030181865afa1580156106cb573d6000803e3d6000fd5b505050506040513d601f19601f820116820180604052508101906106ef9190614c98565b6001600160a01b031663271530506040518163ffffffff1660e01b8152600401602060405180830381865afa15801561072c573d6000803e3d6000fd5b505050506040513d601f19601f820116820180604052508101906107509190614c98565b6003549091506001600160401b03161580156107755750336001600160a01b03821614155b1561079357604051632163e23560e11b815260040160405180910390fd5b60008061079f8661029f565b91509150806107c15760405163cdbbe49960e01b815260040160405180910390fd5b6001600160401b038216600090815260016020526040902054156107f85760405163241c925160e01b815260040160405180910390fd5b6003546001600160401b03161561099d576000806108158761029f565b91509150806108375760405163cdbbe49960e01b815260040160405180910390fd5b6001600160401b03821660009081526001602052604090205461086d5760405163cdbbe49960e01b815260040160405180910390fd5b61087788886116cb565b6108945760405163cdbbe49960e01b815260040160405180910390fd5b336001600160a01b0386161461099a576014866001600160a01b031663a8d66c756040518163ffffffff1660e01b8152600401602060405180830381865afa1580156108e4573d6000803e3d6000fd5b505050506040513d601f19601f820116820180604052508101906109089190614c98565b604051631373443d60e31b81526001600160401b03851660048201526001600160a01b039190911690639b9a21e890602401602060405180830381865afa158015610957573d6000803e3d6000fd5b505050506040513d601f19601f8201168201806040525081019061097b9190614c0d565b101561099a57604051631d5c302560e11b815260040160405180910390fd5b50505b6003546001600160401b031615610abd576001600160401b0382166000908152600260205260408120600390819055906109d6826116eb565b90506000866001600160a01b03166316229bef6040518163ffffffff1660e01b8152600401602060405180830381865afa158015610a18573d6000803e3d6000fd5b505050506040513d601f19601f82011682018060405250810190610a3c9190614c98565b90506001600160a01b038116610aa95781341015610a6d5760405163f31a030b60e01b815260040160405180910390fd5b6000823411610a7d576000610a87565b610a878334614cb5565b90508015610a9957610a993382611746565b610aa38784611746565b50610ab5565b610ab581338885611864565b505050610ada565b6001600160401b0382166000908152600260205260409020600390555b600380546001600160401b0316906000610af383614cc8565b91906101000a8154816001600160401b0302191690836001600160401b0316021790555050600360009054906101000a90046001600160401b03166001600160401b031660016000846001600160401b03166001600160401b0316815260200190815260200160002081905550836001600160a01b031663bae6772a6040518163ffffffff1660e01b8152600401602060405180830381865afa158015610b9e573d6000803e3d6000fd5b505050506040513d601f19601f82011682018060405250810190610bc29190614c98565b6040516340c10f1960e01b81523360048201526001600160401b03841660248201526001600160a01b0391909116906340c10f1990604401600060405180830381600087803b158015610c1457600080fd5b505af1158015610c28573d6000803e3d6000fd5b50506040516001600160401b03851681527fb2cc3f25ef34290401da8b961a928db2654d8a579f363c28f2d0ac9d3fc6e01d9250602001905060405180910390a150506000805460ff60b01b1916905550505050565b60408051808201909152600080825260208201526040516001600160c01b031960c084901b1660208201526028810185905260009060480160408051601f19818403018152919052805160209091012090506000610ce4670de0b6b3a764000083614d09565b905084811115610d0b57505060408051808201909152600080825260208201529050610631565b670de0b6b3a764000082604051602001610d2791815260200190565b6040516020818303038152906040528051906020012060001c610d4a9190614d09565b60408051600a808252610160820190925291925060009190602082016101408036833701905050905067016345785d8a000081600081518110610d8f57610d8f614c69565b60200260200101818152505066f8b0a10e47000081600181518110610db657610db6614c69565b60200260200101818152505067013fbe85edc9000081600281518110610dde57610dde614c69565b60200260200101818152505066d529ae9e86000081600381518110610e0557610e05614c69565b60200260200101818152505066f8b0a10e47000081600481518110610e2c57610e2c614c69565b60200260200101818152505066b1a2bc2ec5000081600581518110610e5357610e53614c69565b60200260200101818152505066d529ae9e86000081600681518110610e7a57610e7a614c69565b60200260200101818152505066b1a2bc2ec5000081600781518110610ea157610ea1614c69565b60200260200101818152505066f8b0a10e47000081600881518110610ec857610ec8614c69565b60200260200101818152505066b1a2bc2ec5000081600981518110610eef57610eef614c69565b6020026020010181815250506000805b82518160ff161015610f84576000838260ff1681518110610f2257610f22614c69565b602002602001015183610f359190614d1d565b9050828510158015610f4657508085105b15610f705750604080518082019091526001815260ff909116602082015294506106319350505050565b915080610f7c81614d30565b915050610eff565b50604080516003808252608082019092526000916020820160608036833701905050905067025bf6196bd1000081600081518110610fc457610fc4614c69565b60200260200101818152505067016345785d8a000081600181518110610fec57610fec614c69565b60200260200101818152505066d529ae9e8600008160028151811061101357611013614c69565b60200260200101818152505060005b81518160ff1610156110a8576000828260ff168151811061104557611045614c69565b6020026020010151846110589190614d1d565b905083861015801561106957508086105b156110945750604080518082019091526002815260ff90911660208201529550610631945050505050565b9250806110a081614d30565b915050611022565b5060405163497e68f360e11b815260040160405180910390fd5b60008060029054906101000a90046001600160a01b03166001600160a01b031663bae6772a6040518163ffffffff1660e01b8152600401602060405180830381865afa158015611116573d6000803e3d6000fd5b505050506040513d601f19601f8201168201806040525081019061113a9190614c98565b6040516331a9108f60e11b81526001600160401b03841660048201526001600160a01b039190911690636352211e90602401602060405180830381865afa158015611189573d6000803e3d6000fd5b505050506040513d601f19601f820116820180604052508101906104f09190614c98565b60008060006111bb8661134a565b905060006111c882611386565b905060006111d5876118c4565b905060006111e2886118dc565b905060006111f2848a8585611909565b90506000611203828a8c87876119a8565b905061120f818b611a95565b61122557600080975097505050505050506112ad565b84518151600091600791820b910b14801561124d5750856020015160070b826020015160070b145b905080158015611263575061126187611b18565b155b1561127b5760008098509850505050505050506112ad565b600061128b87858e8e8a8a611ba5565b905061129e6112998261206a565b6116a8565b60019950995050505050505050505b935093915050565b600054610100900460ff166113205760405162461bcd60e51b815260206004820152602b60248201527f496e697469616c697a61626c653a20636f6e7472616374206973206e6f74206960448201526a6e697469616c697a696e6760a81b606482015260840161042b565b600080546001600160a01b03909216620100000262010000600160b01b0319909216919091179055565b6040805180820182526000808252602091820152815180830190925263ffffffff838116600790810b845293821c1690920b9181019190915290565b6040805180820190915260008082526020820152815160006113a9600283614d46565b84602001516113b89190614d85565b60408051808201909152600793840b8152920b60208301525092915050565b600080836020015184600001516113ed90614db4565b6113f79190614d85565b905060008360200151846000015161140e90614db4565b6114189190614d85565b905060026114316114298385614d85565b60070b6120aa565b611448866020015188602001516114299190614d85565b865188516114599161142991614d85565b6114639190614d1d565b61146d9190614d1d565b6114779190614ddb565b95945050505050565b6040805180820190915260008082526020820152825160208401516001821660070b1560008590036114dd5760405180604001604052808460070b81526020016001846114cd9190614d85565b60070b81525093505050506104f0565b846001036115475780156115165760405180604001604052808460016115039190614def565b60070b81526020016114cd600185614d85565b604051806040016040528084600161152e9190614def565b60070b81526020018360070b81525093505050506104f0565b8460020361159857801561156d57604051806040016040528084600161152e9190614def565b60405180604001604052808460016115859190614def565b60070b81526020016114cd846001614def565b846003036115c15760405180604001604052808460070b81526020018360016114cd9190614def565b846004036115ff5780156115e757604051806040016040528060018561152e9190614d85565b60405180604001604052806001856115859190614d85565b8460050361163d5780156116255760405180604001604052806001856115039190614d85565b604051806040016040528060018561152e9190614d85565b60405163444dc91f60e11b815260040160405180910390fd5b600080826000015160070b121580156116795750815163ffffffff60079190910b125b801561168d57506000826020015160070b12155b80156104f05750506020015163ffffffff60079190910b1290565b60008160000151602083602001516001600160401b0316901b6104f09190614e1e565b60006116d783836104aa565b6001600160401b0316600114905092915050565b6000816001036116fd57506000919050565b8160020361170d57506000919050565b8160030361171d57506000919050565b8160040361172d57506000919050565b60405163ea3b0abb60e01b815260040160405180910390fd5b804710156117965760405162461bcd60e51b815260206004820152601d60248201527f416464726573733a20696e73756666696369656e742062616c616e6365000000604482015260640161042b565b6000826001600160a01b03168260405160006040518083038185875af1925050503d80600081146117e3576040519150601f19603f3d011682016040523d82523d6000602084013e6117e8565b606091505b505090508061185f5760405162461bcd60e51b815260206004820152603a60248201527f416464726573733a20756e61626c6520746f2073656e642076616c75652c207260448201527f6563697069656e74206d61792068617665207265766572746564000000000000606482015260840161042b565b505050565b604080516001600160a01b0385811660248301528416604482015260648082018490528251808303909101815260849091019091526020810180516001600160e01b03166323b872dd60e01b1790526118be9085906120c1565b50505050565b60006118d1826003614e3d565b6104f0906002614e1e565b60006118e9826001614e1e565b6118f4836003614e3d565b6118fe9190614e3d565b6104f0906001614e1e565b60408051808201909152600080825260208201528451600090839061192e9086614e66565b876020015161193d9190614def565b6119479190614e86565b90506000611956828787612196565b90506000604051806040016040528083600001518a600001516119799190614d85565b60070b815260200183602001518a602001516119959190614d85565b60070b905293505050505b949350505050565b60408051808201825260008082526020808301829052885189820151855160c092831b81850152911b602882015260308082018a905285518083039091018152605090910190945283519301929092209091611a0c670de0b6b3a764000083614d09565b90506000670de0b6b3a7640000611a2c6001600160401b03871684614c3c565b611a369190614ddb565b90506000611a45828989612196565b9050604051806040016040528082600001518c60000151611a669190614def565b60070b815260200182602001518c60200151611a829190614def565b60070b90529a9950505050505050505050565b600080611aa18461206a565b9050600083611ab5600163ffffffff614d85565b611abf9190614d85565b90508360070b826000015160070b12158015611ae557508060070b826000015160070b13155b8015611afb57508360070b826020015160070b12155b80156114775750602090910151600791820b910b13159392505050565b600080611b4d8360000151610c80611b309190614e66565b60070b8460200151610c80611b459190614e66565b60070b612286565b90506168248112611b615750600092915050565b8251611b8890611b7390611388614e66565b60070b8460200151611388611b459190614e66565b90506132c88112611b9c5750600092915050565b50600192915050565b60408051808201909152600080825260208201526040805160128082526102608201909252600091816020015b6040805180820190915260008082526020820152815260200190600190039081611bd257905050905085611c06888261238c565b82600081518110611c1957611c19614c69565b6020026020010181905250611c2e88826123f8565b82600181518110611c4157611c41614c69565b6020026020010181905250611c56888261243b565b82600281518110611c6957611c69614c69565b6020026020010181905250611c7e8882612491565b82600381518110611c9157611c91614c69565b6020026020010181905250611ca688826124dd565b82600481518110611cb957611cb9614c69565b6020026020010181905250611cce888261251f565b82600581518110611ce157611ce1614c69565b6020026020010181905250611d1082600081518110611d0257611d02614c69565b60200260200101518261238c565b82600681518110611d2357611d23614c69565b6020026020010181905250611d4482600181518110611d0257611d02614c69565b82600781518110611d5757611d57614c69565b6020026020010181905250611d8682600181518110611d7857611d78614c69565b6020026020010151826123f8565b82600881518110611d9957611d99614c69565b6020026020010181905250611dc882600181518110611dba57611dba614c69565b60200260200101518261243b565b82600981518110611ddb57611ddb614c69565b6020026020010181905250611dfc82600281518110611dba57611dba614c69565b82600a81518110611e0f57611e0f614c69565b6020026020010181905250611e3e82600281518110611e3057611e30614c69565b602002602001015182612491565b82600b81518110611e5157611e51614c69565b6020026020010181905250611e7282600381518110611e3057611e30614c69565b82600c81518110611e8557611e85614c69565b6020026020010181905250611ea682600481518110611e3057611e30614c69565b82600d81518110611eb957611eb9614c69565b6020026020010181905250611ee882600481518110611eda57611eda614c69565b6020026020010151826124dd565b82600e81518110611efb57611efb614c69565b6020026020010181905250611f1c82600581518110611eda57611eda614c69565b82600f81518110611f2f57611f2f614c69565b6020026020010181905250611f5e82600581518110611f5057611f50614c69565b60200260200101518261251f565b82601081518110611f7157611f71614c69565b6020026020010181905250611f9282600581518110611d0257611d02614c69565b82601181518110611fa557611fa5614c69565b60200260200101819052506000611fbf89888a89896119a8565b90506000611fcd8b836113d7565b905060005b601281101561205a576000858281518110611fef57611fef614c69565b602002602001015190506000612008828c8e8d8d6119a8565b9050612014818d611a95565b61201f575050612052565b600061202b8f836113d7565b9050846001600160401b0316816001600160401b0316101561204e578195508094505b5050505b600101611fd2565b50909a9950505050505050505050565b60408051808201909152600080825260208201528151600060026120916001841684614d85565b61209b9190614d46565b84602001516113b89190614def565b6000808212156120bd57816000036104f0565b5090565b6000612116826040518060400160405280602081526020017f5361666545524332303a206c6f772d6c6576656c2063616c6c206661696c6564815250856001600160a01b03166125689092919063ffffffff16565b90508051600014806121375750808060200190518101906121379190614ea8565b61185f5760405162461bcd60e51b815260206004820152602a60248201527f5361666545524332303a204552433230206f7065726174696f6e20646964206e6044820152691bdd081cdd58d8d9595960b21b606482015260840161042b565b604080518082019091526000808252602082015260006121b7846002614e3d565b90506000836121c68688614e1e565b6121d09190614eca565b905060006121df600186614ef8565b6121e98489614e1e565b6121f39190614eca565b905060006122018784614e3d565b9050600061220f8884614e3d565b905060008161221e8685614e1e565b6122289190614d85565b905060006122368584614e1e565b86612242866002614e3d565b61224c9190614e1e565b612256908d614d85565b6122609190614d85565b60408051808201909152600793840b8152920b6020830152509998505050505050505050565b600080612299601085901d60ff16612577565b905060006122ba6122b560ff601087901d16600885901d614f17565b612577565b905060006122d56122b560ff601088901d8116908616614f17565b905061ffff8616955061ffff8516945060006122f087613673565b9050600061232782612307600887901d8b8b6136b3565b612322600887901d61231c620100008e614f3f565b8c6136b3565b61370d565b9050600061236a8361234960ff88168c612344620100008e614f3f565b6136b3565b61232260ff881661235d620100008f614f3f565b612344620100008f614f3f565b905061237f61237889613673565b838361370d565b9998505050505050505050565b604080518082019091526000808252602082015260006123ad836002614e66565b84516123b99190614def565b6123c4906001614def565b905060008385602001516123d89190614d85565b60408051808201909152600793840b8152920b6020830152509392505050565b6040805180820190915260008082526020820152825160009061241c908490614def565b905060008385602001516124309190614def565b6123d8906001614def565b6040805180820190915260008082526020820152600061245c836001614def565b84516124689190614d85565b90506000612477846002614e66565b612482906001614def565b85602001516123d89190614def565b604080518082019091526000808252602082015260006124b2836002614e66565b6124bd906001614def565b84516124c99190614d85565b905060008385602001516123d89190614def565b60408051808201909152600080825260208201528251600090612501908490614d85565b90506000612510846001614def565b85602001516123d89190614d85565b60408051808201909152600080825260208201528251600090612543908490614def565b61254e906001614def565b9050600061255d846002614e66565b612510906001614def565b60606119a08484600085613730565b60ff166000607f8213612dfb57603f82136129c357601f82136127ac57600f82136126a4576007821361262457600382136125e857600182136125ce57816000036125c557506197a0919050565b5061a089919050565b816002036125df575061895b919050565b50615b5a919050565b6005821361260a57816004036126015750615a0f919050565b50610f83919050565b8160060361261b575061830d919050565b50610dc9919050565b600b8213612668576009821361264e5781600803612645575061c95f919050565b50615f60919050565b81600a0361265f5750616035919050565b506135c2919050565b600d821361268a5781600c03612681575061c2e9919050565b5061e907919050565b81600e0361269b57506107e1919050565b5061e18c919050565b6017821361272c57601382136126f057601182136126d657816010036126cd5750618c24919050565b50612467919050565b816012036126e7575061671e919050565b50611e45919050565b601582136127125781601403612709575061458e919050565b50618e08919050565b816016036127235750610863919050565b50616325919050565b601b82136127705760198213612756578160180361274d57506125f0919050565b5061f015919050565b81601a03612767575061150a919050565b50610a17919050565b601d82136127925781601c0361278957506117be919050565b5061be06919050565b81601e036127a35750610694919050565b506194f7919050565b602f82136128bb576027821361283b576023821361280057602182136127e657816020036127dd575061f778919050565b506178ea919050565b816022036127f7575061ea4b919050565b50614b00919050565b6025821361282157816024036128185750601a919050565b50611ac5919050565b81602603612832575061c53e919050565b50613e5e919050565b602b821361287f5760298213612865578160280361285c5750615efc919050565b5061fcdb919050565b81602a03612876575061dbcb919050565b5061cb75919050565b602d82136128a15781602c036128985750617523919050565b5061230b919050565b81602e036128b25750610b20919050565b50612039919050565b60378213612943576033821361290757603182136128ed57816030036128e457506139b1919050565b5061b121919050565b816032036128fe5750612158919050565b506158ed919050565b603582136129295781603403612920575061ed95919050565b50619538919050565b8160360361293a5750613857919050565b506157ae919050565b603b8213612987576039821361296d5781603803612964575061ae14919050565b5061147d919050565b81603a0361297e5750617d88919050565b506188ab919050565b603d82136129a95781603c036129a0575061aba8919050565b5061a844919050565b81603e036129ba57506144af919050565b5061af4a919050565b605f8213612be357604f8213612adb5760478213612a5b5760438213612a1f5760418213612a0557816040036129fc5750614aa5919050565b5061a547919050565b81604203612a165750614786919050565b5061868b919050565b60458213612a415781604403612a385750618b30919050565b5061301b919050565b81604603612a525750611ba6919050565b5061a64d919050565b604b8213612a9f5760498213612a855781604803612a7c5750614d92919050565b5061929e919050565b81604a03612a965750619ee7919050565b5061e753919050565b604d8213612ac15781604c03612ab8575061536f919050565b50616fe5919050565b81604e03612ad2575061e57a919050565b50617a3c919050565b60578213612b635760538213612b275760518213612b0d5781605003612b045750613cd3919050565b5061d385919050565b81605203612b1e57506185e6919050565b5061e6dc919050565b60558213612b495781605403612b40575061dc69919050565b5061695c919050565b81605603612b5a5750615c29919050565b50612937919050565b605b8213612ba75760598213612b8d5781605803612b84575061372e919050565b50612ef5919050565b81605a03612b9e575061f528919050565b506128f4919050565b605d8213612bc95781605c03612bc0575061f466919050565b5061668f919050565b81605e03612bda5750618f36919050565b50613641919050565b606f8213612cf35760678213612c735760638213612c375760618213612c1d5781606003612c145750614119919050565b5061193f919050565b81606203612c2e5750613fa1919050565b5061a101919050565b60658213612c595781606403612c5057506101d8919050565b5061d850919050565b81606603612c6a5750615049919050565b506149d1919050565b606b8213612cb75760698213612c9d5781606803612c94575061d14c919050565b50614c84919050565b81606a03612cae57506184bb919050565b5061bbd0919050565b606d8213612cd95781606c03612cd0575061d059919050565b50615912919050565b81606e03612cea57506112a9919050565b5061a9c8919050565b60778213612d7b5760738213612d3f5760718213612d255781607003612d1c575061c8c4919050565b5061c487919050565b81607203612d365750618782919050565b50618274919050565b60758213612d615781607403612d5857506174bc919050565b5061bc9f919050565b81607603612d725750619f56919050565b506156a4919050565b607b8213612dbf5760798213612da55781607803612d9c575061a464919050565b5061646d919050565b81607a03612db65750616dc6919050565b5061c6ad919050565b607d8213612de15781607c03612dd8575061adba919050565b5061ba03919050565b81607e03612df25750610340919050565b50614034919050565b60bf821361323b57609f821361302357608f8213612f1b5760878213612e9b5760838213612e5f5760818213612e455781608003612e3c57506134d9919050565b5061d9e2919050565b81608203612e56575061e2fa919050565b5061fa7c919050565b60858213612e815781608403612e785750617c7b919050565b50617b05919050565b81608603612e9257506105ca919050565b5061ca26919050565b608b8213612edf5760898213612ec55781608803612ebc5750612693919050565b50619376919050565b81608a03612ed6575061767e919050565b50617eff919050565b608d8213612f015781608c03612ef8575061ff52919050565b50615255919050565b81608e03612f1257506155d4919050565b5061d4cf919050565b60978213612fa35760938213612f675760918213612f4d5781609003612f44575061cfce919050565b5061ce3b919050565b81609203612f5e5750613be3919050565b5061e32f919050565b60958213612f895781609403612f805750612f10919050565b5061103a919050565b81609603612f9a5750613a11919050565b506111b6919050565b609b8213612fe75760998213612fcd5781609803612fc4575061b6bd919050565b5061bd1c919050565b81609a03612fde5750611c2a919050565b50612adf919050565b609d82136130095781609c03613000575061dfb7919050565b5061b7aa919050565b81609e0361301a575061aad5919050565b5061d577919050565b60af82136131335760a782136130b35760a382136130775760a1821361305d578160a00361305457506177f8919050565b5061f898919050565b8160a20361306e5750619802919050565b5061022c919050565b60a58213613099578160a4036130905750612c9a919050565b50619aa3919050565b8160a6036130aa575061a346919050565b506146dd919050565b60ab82136130f75760a982136130dd578160a8036130d4575061dd99919050565b50619965919050565b8160aa036130ee575061659b919050565b50619ba7919050565b60ad8213613119578160ac03613110575061a72b919050565b50612bac919050565b8160ae0361312a575061ac09919050565b50610981919050565b60b782136131bb5760b3821361317f5760b18213613165578160b00361315c5750618116919050565b50611627919050565b8160b20361317657506127fd919050565b5061fd13919050565b60b582136131a1578160b4036131985750611362919050565b5061626c919050565b8160b6036131b25750616c6e919050565b50616e4f919050565b60bb82136131ff5760b982136131e5578160b8036131dc5750614f71919050565b506171e0919050565b8160ba036131f6575061e0e8919050565b5061e8b2919050565b60bd8213613221578160bc03613218575061b2b9919050565b5061b970919050565b8160be036132325750617068919050565b506168da919050565b60df821361345b5760cf82136133535760c782136132d35760c382136132975760c1821361327d578160c003613274575061daf6919050565b5061f661919050565b8160c20361328e57506161e4919050565b5061e4fb919050565b60c582136132b9578160c4036132b0575061fb22919050565b506122f2919050565b8160c6036132ca575061f2c1919050565b5061c1ee919050565b60cb82136133175760c982136132fd578160c8036132f4575061eed2919050565b5061d290919050565b8160ca0361330e575061900c919050565b50610cbf919050565b60cd8213613339578160cc03613330575061bfb3919050565b5061b3a2919050565b8160ce0361334a575061a2f1919050565b5061f151919050565b60d782136133db5760d3821361339f5760d18213613385578160d00361337c5750615133919050565b50613391919050565b8160d20361339657506191eb919050565b5061ebf9919050565b60d582136133c1578160d4036133b8575061f90e919050565b50610eef919050565b8160d6036133d2575061ef6b919050565b50616b31919050565b60db821361341f5760d98213613405578160d8036133fc57506131c0919050565b5061c0d6919050565b8160da03613416575061d61f919050565b50611fb5919050565b60dd8213613441578160dc03613438575061b5c7919050565b5061c76a919050565b8160de036134525750616a9d919050565b50619db8919050565b60ef821361356b5760e782136134eb5760e382136134af5760e18213613495578160e00361348c575061b854919050565b506154cc919050565b8160e2036134a6575061ccb0919050565b5061b073919050565b60e582136134d1578160e4036134c85750617379919050565b50617932919050565b8160e6036134e2575061322d919050565b50612d7f919050565b60eb821361352f5760e98213613515578160e80361350c5750617f04919050565b50610496919050565b8160ea0361352657506196fe919050565b5061fe8a919050565b60ed8213613551578160ec036135485750618aec919050565b5061eccd919050565b8160ee03613562575061cd5d919050565b50615dde919050565b60f782136135f35760f382136135b75760f1821361359d578160f003613594575061de72919050565b50617243919050565b8160f2036135ae575061431d919050565b50611d18919050565b60f582136135d9578160f4036135d05750611848919050565b506148f3919050565b8160f6036135ea575061f38d919050565b50618d80919050565b60fb82136136375760f9821361361d578160f80361361457506180c3919050565b5061c34e919050565b8160fa0361362e5750614e42919050565b506142d7919050565b60fd8213613659578160fc03613650575061d73d919050565b50613d9c919050565b8160fe0361366a5750619cb4919050565b5061b497919050565b600080613683600884901d61380b565b9050600c81901d610fff8216600861369b8383614f3f565b6136a89060ff8816614f5f565b611477911d83614f17565b60006003841693506000846001166000036136cf5750826136db565b6136d884614f8f565b90505b600060028612156136ed5750826136f9565b6136f684614f8f565b90505b6137038183614f17565b9695505050505050565b6000600c61371b8484614f3f565b6137259086614f5f565b6119a0911d84614f17565b6060824710156137915760405162461bcd60e51b815260206004820152602660248201527f416464726573733a20696e73756666696369656e742062616c616e636520666f6044820152651c8818d85b1b60d21b606482015260840161042b565b600080866001600160a01b031685876040516137ad9190614fcf565b60006040518083038185875af1925050503d80600081146137ea576040519150601f19603f3d011682016040523d82523d6000602084013e6137ef565b606091505b5091509150613800878383876149bb565b979650505050505050565b6000607f82136140e157603f8213613c6957601f8213613a3157600f821361391d576007821361389d576003821361386d576001821361385d578160000361385557506000919050565b506000919050565b8160020361385557506000919050565b60058213613885578160040361385557506000919050565b8160060361389557506000919050565b506001919050565b600b82136138e157600982136138c757816008036138be5750611001919050565b50611002919050565b81600a036138d85750612003919050565b50613003919050565b600d82136139035781600c036138fa5750613004919050565b50614006919050565b81600e036139145750616007919050565b50617009919050565b601782136139a95760138213613969576011821361394f5781601003613946575061900a919050565b5061a00c919050565b81601203613960575061c00e919050565b5061e011919050565b6015821361398d5781601403613983575062011013919050565b5062013016919050565b8160160361399f575062016019919050565b506201901d919050565b601b82136139f157601982136139d557816018036139cb57506201d020919050565b5062020024919050565b81601a036139e7575062024028919050565b506202802d919050565b601d8213613a155781601c03613a0b57506202d031919050565b5062031036919050565b81601e03613a2757506203603c919050565b506203c041919050565b602f8213613b515760278213613ac95760238213613a895760218213613a6d5781602003613a63575062041047919050565b506204704d919050565b81602203613a7f57506204d054919050565b506205405b919050565b60258213613aad5781602403613aa357506205b062919050565b5062062069919050565b81602603613abf575062069071919050565b5062071079919050565b602b8213613b115760298213613af55781602803613aeb575062079082919050565b506208208b919050565b81602a03613b0757506208b094919050565b506209409e919050565b602d8213613b355781602c03613b2b57506209e0a7919050565b50620a70b2919050565b81602e03613b475750620b20bc919050565b50620bc0c7919050565b60378213613be15760338213613ba15760318213613b855781603003613b7b5750620c70d3919050565b50620d30de919050565b81603203613b975750620de0ea919050565b50620ea0f7919050565b60358213613bc55781603403613bbb5750620f7103919050565b5062103111919050565b81603603613bd757506211111e919050565b506211e12c919050565b603b8213613c295760398213613c0d5781603803613c0357506212c13a919050565b506213a149919050565b81603a03613c1f575062149158919050565b5062158167919050565b603d8213613c4d5781603c03613c43575062167176919050565b5062176186919050565b81603e03613c5f575062186197919050565b50621971a8919050565b605f8213613ea957604f8213613d915760478213613d095760438213613cc95760418213613cad5781604003613ca35750621a81b9919050565b50621b91ca919050565b81604203613cbf5750621ca1dc919050565b50621dc1ee919050565b60458213613ced5781604403613ce35750621ee200919050565b5062200213919050565b81604603613cff575062213226919050565b506222623a919050565b604b8213613d515760498213613d355781604803613d2b57506223a24d919050565b506224d261919050565b81604a03613d47575062261276919050565b506227628b919050565b604d8213613d755781604c03613d6b57506228b2a0919050565b50622a02b5919050565b81604e03613d875750622b52cb919050565b50622cb2e1919050565b60578213613e215760538213613de15760518213613dc55781605003613dbb5750622e12f7919050565b50622f730e919050565b81605203613dd757506230e325919050565b506232533c919050565b60558213613e055781605403613dfb57506233c353919050565b506235336b919050565b81605603613e1757506236b383919050565b506238339b919050565b605b8213613e695760598213613e4d5781605803613e4357506239b3b4919050565b50623b43cd919050565b81605a03613e5f5750623cd3e6919050565b50623e63ff919050565b605d8213613e8d5781605c03613e835750623ff419919050565b5062419432919050565b81605e03613e9f57506243244c919050565b506244c467919050565b606f8213613fc95760678213613f415760638213613f015760618213613ee55781606003613edb575062467481919050565b506248149c919050565b81606203613ef757506249c4b7919050565b50624b74d2919050565b60658213613f255781606403613f1b5750624d24ed919050565b50624ed509919050565b81606603613f37575062509524919050565b5062524540919050565b606b8213613f895760698213613f6d5781606803613f6357506254055c919050565b506255c578919050565b81606a03613f7f575062578595919050565b50625955b1919050565b606d8213613fad5781606c03613fa35750625b15ce919050565b50625ce5eb919050565b81606e03613fbf5750625eb607919050565b5062607624919050565b6077821361405957607382136140195760718213613ffd5781607003613ff3575062624642919050565b506264265f919050565b8160720361400f57506265f67c919050565b506267c69a919050565b6075821361403d578160740361403357506269a6b7919050565b50626b76d5919050565b8160760361404f5750626d56f2919050565b50626f2710919050565b607b82136140a15760798213614085578160780361407b57506271072e919050565b506272e74c919050565b81607a0361409757506274c76a919050565b506276a788919050565b607d82136140c55781607c036140bb5750627887a6919050565b50627a67c4919050565b81607e036140d75750627c47e2919050565b50627e2800919050565b60bf821361456157609f821361432957608f821361421157608782136141895760838213614149576081821361412d578160800361412357506280081d919050565b506281d83b919050565b8160820361413f57506283b859919050565b5062859877919050565b6085821361416d5781608403614163575062877895919050565b50628958b3919050565b8160860361417f5750628b38d1919050565b50628d18ef919050565b608b82136141d157608982136141b557816088036141ab5750628ef90d919050565b506290d92a919050565b81608a036141c757506292a948919050565b5062948965919050565b608d82136141f55781608c036141eb575062965983919050565b50629839a0919050565b81608e036142075750629a09bd919050565b50629bd9db919050565b609782136142a157609382136142615760918213614245578160900361423b5750629db9f8919050565b50629f8a14919050565b81609203614257575062a14a31919050565b5062a31a4e919050565b60958213614285578160940361427b575062a4ea6a919050565b5062a6aa87919050565b81609603614297575062a87aa3919050565b5062aa3abf919050565b609b82136142e957609982136142cd57816098036142c3575062abfadb919050565b5062adbaf6919050565b81609a036142df575062af6b12919050565b5062b12b2d919050565b609d821361430d5781609c03614303575062b2db48919050565b5062b48b63919050565b81609e0361431f575062b63b7e919050565b5062b7eb98919050565b60af82136144495760a782136143c15760a382136143815760a18213614365578160a00361435b575062b98bb3919050565b5062bb3bcd919050565b8160a203614377575062bcdbe6919050565b5062be6c00919050565b60a582136143a5578160a40361439b575062c00c19919050565b5062c19c32919050565b8160a6036143b7575062c32c4b919050565b5062c4bc64919050565b60ab82136144095760a982136143ed578160a8036143e3575062c64c7c919050565b5062c7cc94919050565b8160aa036143ff575062c94cac919050565b5062caccc3919050565b60ad821361442d578160ac03614423575062cc3cda919050565b5062cdacf1919050565b8160ae0361443f575062cf1d08919050565b5062d08d1e919050565b60b782136144d95760b382136144995760b1821361447d578160b003614473575062d1ed34919050565b5062d34d4a919050565b8160b20361448f575062d4ad5f919050565b5062d5fd74919050565b60b582136144bd578160b4036144b3575062d74d89919050565b5062d89d9e919050565b8160b6036144cf575062d9edb2919050565b5062db2dc5919050565b60bb82136145215760b98213614505578160b8036144fb575062dc5dd9919050565b5062dd9dec919050565b8160ba03614517575062decdff919050565b5062dffe11919050565b60bd8213614545578160bc0361453b575062e11e23919050565b5062e23e35919050565b8160be03614557575062e35e46919050565b5062e46e58919050565b60df82136147a15760cf82136146895760c782136146015760c382136145c15760c182136145a5578160c00361459b575062e58e68919050565b5062e68e79919050565b8160c2036145b7575062e79e89919050565b5062e89e98919050565b60c582136145e5578160c4036145db575062e98ea7919050565b5062ea7eb6919050565b8160c6036145f7575062eb6ec5919050565b5062ec5ed3919050565b60cb82136146495760c9821361462d578160c803614623575062ed3ee1919050565b5062ee1eee919050565b8160ca0361463f575062eeeefc919050565b5062efcf08919050565b60cd821361466d578160cc03614663575062f08f15919050565b5062f15f21919050565b8160ce0361467f575062f21f2c919050565b5062f2cf38919050565b60d782136147195760d382136146d95760d182136146bd578160d0036146b3575062f38f43919050565b5062f43f4d919050565b8160d2036146cf575062f4df58919050565b5062f58f61919050565b60d582136146fd578160d4036146f3575062f61f6b919050565b5062f6bf74919050565b8160d60361470f575062f74f7d919050565b5062f7df86919050565b60db82136147615760d98213614745578160d80361473b575062f86f8e919050565b5062f8ef96919050565b8160da03614757575062f96f9d919050565b5062f9dfa4919050565b60dd8213614785578160dc0361477b575062fa4fab919050565b5062fabfb2919050565b8160de03614797575062fb2fb8919050565b5062fb8fbe919050565b60ef82136148c15760e782136148395760e382136147f95760e182136147dd578160e0036147d3575062fbefc3919050565b5062fc3fc9919050565b8160e2036147ef575062fc9fce919050565b5062fcefd2919050565b60e5821361481d578160e403614813575062fd2fd7919050565b5062fd7fdb919050565b8160e60361482f575062fdbfdf919050565b5062fdffe2919050565b60eb82136148815760e98213614865578160e80361485b575062fe2fe6919050565b5062fe6fe9919050565b8160ea03614877575062fe9fec919050565b5062fecfee919050565b60ed82136148a5578160ec0361489b575062feeff1919050565b5062ff1ff3919050565b8160ee036148b7575062ff3ff5919050565b5062ff5ff6919050565b60f782136149515760f382136149115760f182136148f5578160f0036148eb575062ff6ff8919050565b5062ff8ff9919050565b8160f203614907575062ff9ffb919050565b5062ffbffc919050565b60f58213614935578160f40361492b575062ffcffc919050565b5062ffcffd919050565b8160f603614947575062ffdffe919050565b5062ffeffe919050565b60fb821361498f5760f9821361497d578160f803614973575062ffefff919050565b5062ffffff919050565b8160fa03614973575062ffffff919050565b60fd82136149a9578160fc03614973575062ffffff919050565b8160fe03614973575062ffffff919050565b60608315614a2a578251600003614a23576001600160a01b0385163b614a235760405162461bcd60e51b815260206004820152601d60248201527f416464726573733a2063616c6c20746f206e6f6e2d636f6e7472616374000000604482015260640161042b565b50816119a0565b6119a08383815115614a3f5781518083602001fd5b8060405162461bcd60e51b815260040161042b9190614feb565b6001600160401b0381168114614a6e57600080fd5b50565b600060208284031215614a8357600080fd5b813561063181614a59565b6001600160a01b0381168114614a6e57600080fd5b600060208284031215614ab557600080fd5b813561063181614a8e565b60008060408385031215614ad357600080fd5b8235614ade81614a59565b91506020830135614aee81614a59565b809150509250929050565b60008060408385031215614b0c57600080fd5b8235614b1781614a59565b946020939093013593505050565b6040808252835190820181905260009060208501906060840190835b81811015614b685783516001600160401b0316835260209384019390920191600101614b41565b5050602093909301939093525092915050565b600080600060608486031215614b9057600080fd5b83359250602084013591506040840135614ba981614a59565b809150509250925092565b8151604082019060038110614bd957634e487b7160e01b600052602160045260246000fd5b8083525060ff602084015116602083015292915050565b600060208284031215614c0257600080fd5b815161063181614a59565b600060208284031215614c1f57600080fd5b5051919050565b634e487b7160e01b600052601160045260246000fd5b80820281158282048414176104f0576104f0614c26565b634e487b7160e01b600052604160045260246000fd5b634e487b7160e01b600052603260045260246000fd5b600060018201614c9157614c91614c26565b5060010190565b600060208284031215614caa57600080fd5b815161063181614a8e565b818103818111156104f0576104f0614c26565b60006001600160401b0382166001600160401b038103614cea57614cea614c26565b60010192915050565b634e487b7160e01b600052601260045260246000fd5b600082614d1857614d18614cf3565b500690565b808201808211156104f0576104f0614c26565b600060ff821660ff8103614cea57614cea614c26565b60008160070b8360070b80614d5d57614d5d614cf3565b677fffffffffffffff19821460001982141615614d7c57614d7c614c26565b90059392505050565b600782810b9082900b03677fffffffffffffff198112677fffffffffffffff821317156104f0576104f0614c26565b60008160070b677fffffffffffffff198103614dd257614dd2614c26565b60000392915050565b600082614dea57614dea614cf3565b500490565b600781810b9083900b01677fffffffffffffff8113677fffffffffffffff19821217156104f0576104f0614c26565b6001600160401b0381811683821601908111156104f0576104f0614c26565b6001600160401b038181168382160290811690818114614e5f57614e5f614c26565b5092915050565b60008260070b8260070b028060070b9150808214614e5f57614e5f614c26565b60008260070b80614e9957614e99614cf3565b808360070b0791505092915050565b600060208284031215614eba57600080fd5b8151801515811461063157600080fd5b60006001600160401b03831680614ee357614ee3614cf3565b806001600160401b0384160491505092915050565b6001600160401b0382811682821603908111156104f0576104f0614c26565b8082018281126000831280158216821582161715614f3757614f37614c26565b505092915050565b8181036000831280158383131683831282161715614e5f57614e5f614c26565b80820260008212600160ff1b84141615614f7b57614f7b614c26565b81810583148215176104f0576104f0614c26565b6000600160ff1b8201614fa457614fa4614c26565b5060000390565b60005b83811015614fc6578181015183820152602001614fae565b50506000910152565b60008251614fe1818460208701614fab565b9190910192915050565b602081526000825180602084015261500a816040850160208701614fab565b601f01601f1916919091016040019291505056fea2646970667358221220f731bfa047c19fbb977ad03117720f2d5f07b22c9678998ec378b4aa533e4f8964736f6c634300081a0033",
  "linkReferences": {},
  "deployedLinkReferences": {}
}