{
  "_format": "hh-sol-artifact-1",
  "contractName": "Prosperity",
  "sourceName": "contracts/core/assets/tokens/prosperity/Prosperity.sol",
  "abi": [
    {
      "inputs": [],
      "stateMutability": "nonpayable",
      "type": "constructor"
    },
    {
      "inputs": [],
      "name": "CannotApproveFromZeroAddress",
      "type": "error"
    },
    {
      "inputs": [],
      "name": "CannotApproveToZeroAddress",
      "type": "error"
    },
    {
      "inputs": [],
      "name": "CannotBurnFromZeroAddress",
      "type": "error"
    },
    {
      "inputs": [],
      "name": "CannotDecreaseAllowanceBelowZero",
      "type": "error"
    },
    {
      "inputs": [],
      "name": "CannotMintToZeroAddress",
      "type": "error"
    },
    {
      "inputs": [],
      "name": "CannotSpendMoreAllowanceThanCurrentValue",
      "type": "error"
    },
    {
      "inputs": [],
      "name": "CannotTransferFromZeroAddress",
      "type": "error"
    },
    {
      "inputs": [],
      "name": "CannotTransferHigherThanOwnedAmountOfTokens",
      "type": "error"
    },
    {
      "inputs": [],
      "name": "CannotTransferToZeroAddress",
      "type": "error"
    },
    {
      "inputs": [],
      "name": "Disabled",
      "type": "error"
    },
    {
      "inputs": [],
      "name": "OnlyActiveGame",
      "type": "error"
    },
    {
      "inputs": [],
      "name": "OnlyMightyCreator",
      "type": "error"
    },
    {
      "inputs": [],
      "name": "OnlyWorldAssetFromSameEra",
      "type": "error"
    },
    {
      "anonymous": false,
      "inputs": [
        {
          "indexed": true,
          "internalType": "address",
          "name": "owner",
          "type": "address"
        },
        {
          "indexed": true,
          "internalType": "address",
          "name": "spender",
          "type": "address"
        },
        {
          "indexed": false,
          "internalType": "uint256",
          "name": "value",
          "type": "uint256"
        }
      ],
      "name": "Approval",
      "type": "event"
    },
    {
      "anonymous": false,
      "inputs": [
        {
          "indexed": false,
          "internalType": "uint8",
          "name": "version",
          "type": "uint8"
        }
      ],
      "name": "Initialized",
      "type": "event"
    },
    {
      "anonymous": false,
      "inputs": [
        {
          "indexed": true,
          "internalType": "address",
          "name": "from",
          "type": "address"
        },
        {
          "indexed": true,
          "internalType": "address",
          "name": "to",
          "type": "address"
        },
        {
          "indexed": false,
          "internalType": "uint256",
          "name": "value",
          "type": "uint256"
        }
      ],
      "name": "Transfer",
      "type": "event"
    },
    {
      "inputs": [
        {
          "internalType": "address",
          "name": "owner",
          "type": "address"
        },
        {
          "internalType": "address",
          "name": "spender",
          "type": "address"
        }
      ],
      "name": "allowance",
      "outputs": [
        {
          "internalType": "uint256",
          "name": "",
          "type": "uint256"
        }
      ],
      "stateMutability": "view",
      "type": "function"
    },
    {
      "inputs": [
        {
          "internalType": "address",
          "name": "spender",
          "type": "address"
        },
        {
          "internalType": "uint256",
          "name": "amount",
          "type": "uint256"
        }
      ],
      "name": "approve",
      "outputs": [
        {
          "internalType": "bool",
          "name": "",
          "type": "bool"
        }
      ],
      "stateMutability": "nonpayable",
      "type": "function"
    },
    {
      "inputs": [],
      "name": "assetGroupId",
      "outputs": [
        {
          "internalType": "bytes32",
          "name": "",
          "type": "bytes32"
        }
      ],
      "stateMutability": "view",
      "type": "function"
    },
    {
      "inputs": [],
      "name": "assetTypeId",
      "outputs": [
        {
          "internalType": "bytes32",
          "name": "",
          "type": "bytes32"
        }
      ],
      "stateMutability": "view",
      "type": "function"
    },
    {
      "inputs": [
        {
          "internalType": "address",
          "name": "account",
          "type": "address"
        }
      ],
      "name": "balanceOf",
      "outputs": [
        {
          "internalType": "uint256",
          "name": "",
          "type": "uint256"
        }
      ],
      "stateMutability": "view",
      "type": "function"
    },
    {
      "inputs": [
        {
          "internalType": "uint256",
          "name": "amount",
          "type": "uint256"
        }
      ],
      "name": "burn",
      "outputs": [],
      "stateMutability": "nonpayable",
      "type": "function"
    },
    {
      "inputs": [
        {
          "internalType": "address",
          "name": "account",
          "type": "address"
        },
        {
          "internalType": "uint256",
          "name": "amount",
          "type": "uint256"
        }
      ],
      "name": "burnFrom",
      "outputs": [],
      "stateMutability": "nonpayable",
      "type": "function"
    },
    {
      "inputs": [],
      "name": "decimals",
      "outputs": [
        {
          "internalType": "uint8",
          "name": "",
          "type": "uint8"
        }
      ],
      "stateMutability": "view",
      "type": "function"
    },
    {
      "inputs": [
        {
          "internalType": "address",
          "name": "spender",
          "type": "address"
        },
        {
          "internalType": "uint256",
          "name": "subtractedValue",
          "type": "uint256"
        }
      ],
      "name": "decreaseAllowance",
      "outputs": [
        {
          "internalType": "bool",
          "name": "",
          "type": "bool"
        }
      ],
      "stateMutability": "nonpayable",
      "type": "function"
    },
    {
      "inputs": [],
      "name": "era",
      "outputs": [
        {
          "internalType": "contract IEra",
          "name": "",
          "type": "address"
        }
      ],
      "stateMutability": "view",
      "type": "function"
    },
    {
      "inputs": [],
      "name": "eraNumber",
      "outputs": [
        {
          "internalType": "uint256",
          "name": "",
          "type": "uint256"
        }
      ],
      "stateMutability": "view",
      "type": "function"
    },
    {
      "inputs": [
        {
          "internalType": "address",
          "name": "spender",
          "type": "address"
        },
        {
          "internalType": "uint256",
          "name": "addedValue",
          "type": "uint256"
        }
      ],
      "name": "increaseAllowance",
      "outputs": [
        {
          "internalType": "bool",
          "name": "",
          "type": "bool"
        }
      ],
      "stateMutability": "nonpayable",
      "type": "function"
    },
    {
      "inputs": [
        {
          "internalType": "bytes",
          "name": "initParams",
          "type": "bytes"
        }
      ],
      "name": "init",
      "outputs": [],
      "stateMutability": "nonpayable",
      "type": "function"
    },
    {
      "inputs": [
        {
          "internalType": "address",
          "name": "to",
          "type": "address"
        },
        {
          "internalType": "uint256",
          "name": "amount",
          "type": "uint256"
        }
      ],
      "name": "mint",
      "outputs": [],
      "stateMutability": "nonpayable",
      "type": "function"
    },
    {
      "inputs": [],
      "name": "name",
      "outputs": [
        {
          "internalType": "string",
          "name": "",
          "type": "string"
        }
      ],
      "stateMutability": "view",
      "type": "function"
    },
    {
      "inputs": [
        {
          "internalType": "address",
          "name": "",
          "type": "address"
        }
      ],
      "name": "prosperitySpent",
      "outputs": [
        {
          "internalType": "uint256",
          "name": "",
          "type": "uint256"
        }
      ],
      "stateMutability": "view",
      "type": "function"
    },
    {
      "inputs": [
        {
          "internalType": "address",
          "name": "account",
          "type": "address"
        }
      ],
      "name": "realBalanceOf",
      "outputs": [
        {
          "internalType": "int256",
          "name": "",
          "type": "int256"
        }
      ],
      "stateMutability": "view",
      "type": "function"
    },
    {
      "inputs": [],
      "name": "realTotalSupply",
      "outputs": [
        {
          "internalType": "int256",
          "name": "",
          "type": "int256"
        }
      ],
      "stateMutability": "view",
      "type": "function"
    },
    {
      "inputs": [],
      "name": "registry",
      "outputs": [
        {
          "internalType": "contract IRegistry",
          "name": "",
          "type": "address"
        }
      ],
      "stateMutability": "view",
      "type": "function"
    },
    {
      "inputs": [
        {
          "internalType": "address",
          "name": "from",
          "type": "address"
        },
        {
          "internalType": "uint256",
          "name": "amount",
          "type": "uint256"
        }
      ],
      "name": "spend",
      "outputs": [],
      "stateMutability": "nonpayable",
      "type": "function"
    },
    {
      "inputs": [],
      "name": "symbol",
      "outputs": [
        {
          "internalType": "string",
          "name": "",
          "type": "string"
        }
      ],
      "stateMutability": "view",
      "type": "function"
    },
    {
      "inputs": [],
      "name": "totalSupply",
      "outputs": [
        {
          "internalType": "uint256",
          "name": "",
          "type": "uint256"
        }
      ],
      "stateMutability": "view",
      "type": "function"
    },
    {
      "inputs": [
        {
          "internalType": "address",
          "name": "to",
          "type": "address"
        },
        {
          "internalType": "uint256",
          "name": "amount",
          "type": "uint256"
        }
      ],
      "name": "transfer",
      "outputs": [
        {
          "internalType": "bool",
          "name": "success",
          "type": "bool"
        }
      ],
      "stateMutability": "nonpayable",
      "type": "function"
    },
    {
      "inputs": [
        {
          "internalType": "address",
          "name": "from",
          "type": "address"
        },
        {
          "internalType": "address",
          "name": "to",
          "type": "address"
        },
        {
          "internalType": "uint256",
          "name": "amount",
          "type": "uint256"
        }
      ],
      "name": "transferFrom",
      "outputs": [
        {
          "internalType": "bool",
          "name": "success",
          "type": "bool"
        }
      ],
      "stateMutability": "nonpayable",
      "type": "function"
    },
    {
      "inputs": [],
      "name": "world",
      "outputs": [
        {
          "internalType": "contract IWorld",
          "name": "",
          "type": "address"
        }
      ],
      "stateMutability": "view",
      "type": "function"
    },
    {
      "inputs": [],
      "name": "worldAssetFactory",
      "outputs": [
        {
          "internalType": "contract IWorldAssetFactory",
          "name": "",
          "type": "address"
        }
      ],
      "stateMutability": "view",
      "type": "function"
    }
  ],
  "bytecode": "0x608060405234801561001057600080fd5b5060408051602080820183526000808352835191820190935291825290600361003983826100ed565b50600461004682826100ed565b5050506101ab565b634e487b7160e01b600052604160045260246000fd5b600181811c9082168061007857607f821691505b60208210810361009857634e487b7160e01b600052602260045260246000fd5b50919050565b601f8211156100e857806000526020600020601f840160051c810160208510156100c55750805b601f840160051c820191505b818110156100e557600081556001016100d1565b50505b505050565b81516001600160401b038111156101065761010661004e565b61011a816101148454610064565b8461009e565b6020601f82116001811461014e57600083156101365750848201515b600019600385901b1c1916600184901b1784556100e5565b600084815260208120601f198516915b8281101561017e578785015182556020948501946001909201910161015e565b508482101561019c5786840151600019600387901b60f8161c191681555b50505050600190811b01905550565b61126b806101ba6000396000f3fe608060405234801561001057600080fd5b506004361061016e5760003560e01c806379cc6790116100ce578063a457c2d711610087578063a457c2d7146102d9578063a9059cbb146102ec578063af7d6ca3146102ff578063cd9641a414610312578063dd62ed3e14610332578063ece56a1a14610345578063ef356a791461034d57600080fd5b806379cc67901461027d5780637b103999146102905780637d884c741461029857806384ba89e3146102a057806395d89b41146102a857806399a03c70146102b057600080fd5b806330b67baa1161012b57806330b67baa14610205578063313ce5671461020d578063395093511461021c57806340c10f191461022f57806342966c68146102445780634ddf47d41461025757806370a082311461026a57600080fd5b806306fdde0314610173578063095ea7b3146101915780630b4e99c3146101b4578063143e55e0146101ca57806318160ddd146101ea57806323b872dd146101f2575b600080fd5b61017b610355565b6040516101889190610f33565b60405180910390f35b6101a461019f366004610f7b565b61038b565b6040519015158152602001610188565b6101bc6103a5565b604051908152602001610188565b6101d26103e2565b6040516001600160a01b039091168152602001610188565b6101bc610466565b6101a4610200366004610fa7565b61047f565b6101d26104c2565b60405160128152602001610188565b6101a461022a366004610f7b565b6104cc565b61024261023d366004610f7b565b6104ee565b005b610242610252366004610fe8565b610504565b610242610265366004611017565b610511565b6101bc6102783660046110d0565b61061e565b61024261028b366004610f7b565b610662565b6101d2610684565b6101bc6106cb565b6101bc610708565b61017b610745565b6101bc6102be3660046110d0565b6001600160a01b031660009081526020819052604090205490565b6101a46102e7366004610f7b565b610762565b6101a46102fa366004610f7b565b6107ab565b61024261030d366004610f7b565b6107c6565b6101bc6103203660046110d0565b60066020526000908152604090205481565b6101bc6103403660046110ed565b610806565b6101d2610831565b6002546101bc565b60606103676103626106cb565b610878565b6040516020016103779190611126565b604051602081830303815290604052905090565b60003361039981858561090b565b60019150505b92915050565b604080516020808252818301909252600091309183918291906020820181803683370190505090506020607a60208301853c602001519392505050565b60006103ec6104c2565b6001600160a01b031663720a70bd6104026106cb565b6040518263ffffffff1660e01b815260040161042091815260200190565b602060405180830381865afa15801561043d573d6000803e3d6000fd5b505050506040513d601f19601f82011682018060405250810190610461919061115a565b905090565b60008060025412156104785750600090565b5060025490565b600061048a336109bb565b156104a25761049a848484610a74565b5060016104bb565b604051633ac4266d60e11b815260040160405180910390fd5b9392505050565b6000610461610b8e565b6000336103998185856104df8383610806565b6104e9919061118d565b61090b565b6104f6610bcb565b6105008282610c8a565b5050565b61050e3382610d3a565b50565b600554610100900460ff16158080156105315750600554600160ff909116105b8061054b5750303b15801561054b575060055460ff166001145b6105b25760405162461bcd60e51b815260206004820152602e60248201527f496e697469616c697a61626c653a20636f6e747261637420697320616c72656160448201526d191e481a5b9a5d1a585b1a5e995960921b606482015260840160405180910390fd5b6005805460ff1916600117905580156105d5576005805461ff0019166101001790555b8015610500576005805461ff0019169055604051600181527f7f26b83ff96e1f2b6a682f133852f6798a09c465da95921460cefb38474024989060200160405180910390a15050565b6001600160a01b03811660009081526020819052604081205481131561064657506000919050565b506001600160a01b031660009081526020819052604090205490565b61066b336109bb565b1561067a576105008282610d3a565b6105008282610dd7565b600061068e6104c2565b6001600160a01b0316637b1039996040518163ffffffff1660e01b8152600401602060405180830381865afa15801561043d573d6000803e3d6000fd5b604080516020808252818301909252600091309183918291906020820181803683370190505090506020609a60208301853c602001519392505050565b604080516020808252818301909252600091309183918291906020820181803683370190505090506020605a60208301853c602001519392505050565b60606107526103626106cb565b60405160200161037791906111a0565b600033816107708286610806565b9050838110156107935760405163285af3b760e11b815260040160405180910390fd5b6107a0828686840361090b565b506001949350505050565b6000604051633ac4266d60e11b815260040160405180910390fd5b6107ce610bcb565b6001600160a01b038216600090815260066020526040812080548392906107f690849061118d565b9091555061050090508282610d3a565b6001600160a01b03918216600090815260016020908152604080832093909416825291909152205490565b600061083b610684565b6001600160a01b031663ece56a1a6040518163ffffffff1660e01b8152600401602060405180830381865afa15801561043d573d6000803e3d6000fd5b6060600061088583610dec565b600101905060008167ffffffffffffffff8111156108a5576108a5611001565b6040519080825280601f01601f1916602001820160405280156108cf576020820181803683370190505b5090508181016020015b600019016f181899199a1a9b1b9c1cb0b131b232b360811b600a86061a8153600a85049450846108d957509392505050565b6001600160a01b0383166109325760405163abe3697f60e01b815260040160405180910390fd5b6001600160a01b038216610959576040516396a1f38160e01b815260040160405180910390fd5b6001600160a01b0383811660008181526001602090815260408083209487168084529482529182902085905590518481527f8c5be1e5ebec7d5bd14f71427d1e84f3dd0314c0f7b2291e5b200ac8c7c3b92591015b60405180910390a3505050565b6000806109c66104c2565b9050806001600160a01b0316836001600160a01b031614806104bb575060006001600160a01b03821663ebbe80346109fc6106cb565b6040516001600160e01b031960e084901b16815260048101919091526001600160a01b0387166024820152604401602060405180830381865afa158015610a47573d6000803e3d6000fd5b505050506040513d601f19601f82011682018060405250810190610a6b91906111cd565b14159392505050565b6001600160a01b038316610a9a576040516246d99360e41b815260040160405180910390fd5b6001600160a01b038216610ac1576040516337af64f560e11b815260040160405180910390fd5b806001600160a01b03841660009081526020819052604090205481811215610afc57604051631b56476360e31b815260040160405180910390fd5b6001600160a01b03808616600090815260208190526040808220858503905591861681529081208054849290610b339084906111e6565b92505081905550836001600160a01b0316856001600160a01b03167fddf252ad1be2c89b69c2b068fc378daa952ba7f163c4a11628f55a4df523b3ef85604051610b7f91815260200190565b60405180910390a35050505050565b604080516014808252818301909252600091309183918291906020820181803683370190505090506014602a60208301853c601401519392505050565b6000610bd56104c2565b9050336001600160a01b03821614801590610c6c575060006001600160a01b03821663ebbe8034610c046106cb565b6040516001600160e01b031960e084901b1681526004810191909152336024820152604401602060405180830381865afa158015610c46573d6000803e3d6000fd5b505050506040513d601f19601f82011682018060405250810190610c6a91906111cd565b145b1561050e5760405163422656d160e01b815260040160405180910390fd5b6001600160a01b038216610cb1576040516389a4ea1960e01b815260040160405180910390fd5b8060026000828254610cc391906111e6565b90915550506001600160a01b03821660009081526020819052604081208054839290610cf09084906111e6565b90915550506040518181526001600160a01b038316906000907fddf252ad1be2c89b69c2b068fc378daa952ba7f163c4a11628f55a4df523b3ef9060200160405180910390a35050565b6001600160a01b038216610d615760405163a30d2d8760e01b815260040160405180910390fd5b6001600160a01b038216600090815260208190526040812080548381039091556002805491928492610d9490849061120e565b90915550506040518281526000906001600160a01b038516907fddf252ad1be2c89b69c2b068fc378daa952ba7f163c4a11628f55a4df523b3ef906020016109ae565b610de2823383610ec4565b6105008282610d3a565b60008072184f03e93ff9f4daa797ed6e38ed64bf6a1f0160401b8310610e2b5772184f03e93ff9f4daa797ed6e38ed64bf6a1f0160401b830492506040015b6d04ee2d6d415b85acef81000000008310610e57576d04ee2d6d415b85acef8100000000830492506020015b662386f26fc100008310610e7557662386f26fc10000830492506010015b6305f5e1008310610e8d576305f5e100830492506008015b6127108310610ea157612710830492506004015b60648310610eb3576064830492506002015b600a831061039f5760010192915050565b6000610ed08484610806565b90506000198114610f095781811015610efc5760405163013d476760e61b815260040160405180910390fd5b610f09848484840361090b565b50505050565b60005b83811015610f2a578181015183820152602001610f12565b50506000910152565b6020815260008251806020840152610f52816040850160208701610f0f565b601f01601f19169190910160400192915050565b6001600160a01b038116811461050e57600080fd5b60008060408385031215610f8e57600080fd5b8235610f9981610f66565b946020939093013593505050565b600080600060608486031215610fbc57600080fd5b8335610fc781610f66565b92506020840135610fd781610f66565b929592945050506040919091013590565b600060208284031215610ffa57600080fd5b5035919050565b634e487b7160e01b600052604160045260246000fd5b60006020828403121561102957600080fd5b813567ffffffffffffffff81111561104057600080fd5b8201601f8101841361105157600080fd5b803567ffffffffffffffff81111561106b5761106b611001565b604051601f8201601f19908116603f0116810167ffffffffffffffff8111828210171561109a5761109a611001565b6040528181528282016020018610156110b257600080fd5b81602084016020830137600091810160200191909152949350505050565b6000602082840312156110e257600080fd5b81356104bb81610f66565b6000806040838503121561110057600080fd5b823561110b81610f66565b9150602083013561111b81610f66565b809150509250929050565b6b0141c9bdcdc195c9a5d1e48160a61b81526000825161114d81600c850160208701610f0f565b91909101600c0192915050565b60006020828403121561116c57600080fd5b81516104bb81610f66565b634e487b7160e01b600052601160045260246000fd5b8082018082111561039f5761039f611177565b640141494c8160de1b8152600082516111c0816005850160208701610f0f565b9190910160050192915050565b6000602082840312156111df57600080fd5b5051919050565b808201828112600083128015821682158216171561120657611206611177565b505092915050565b818103600083128015838313168383128216171561122e5761122e611177565b509291505056fea2646970667358221220b32e473012f1585f1a7ebfb603358fc4b4a3e529e0107d1939c48f949378faee64736f6c634300081a0033",
  "linkReferences": {},
  "deployedLinkReferences": {}
}