{
  "_format": "hh-sol-artifact-1",
  "contractName": "Distributions",
  "sourceName": "contracts/core/distributions/Distributions.sol",
  "abi": [
    {
      "inputs": [
        {
          "internalType": "address",
          "name": "worldAddress_",
          "type": "address"
        },
        {
          "internalType": "string",
          "name": "uri_",
          "type": "string"
        }
      ],
      "stateMutability": "nonpayable",
      "type": "constructor"
    },
    {
      "inputs": [],
      "name": "CannotTransferDistributionSharesToBuildingOfSameBuildingType",
      "type": "error"
    },
    {
      "inputs": [],
      "name": "OnlyWorldAssetFromSameEra",
      "type": "error"
    },
    {
      "anonymous": false,
      "inputs": [
        {
          "indexed": true,
          "internalType": "address",
          "name": "account",
          "type": "address"
        },
        {
          "indexed": true,
          "internalType": "address",
          "name": "operator",
          "type": "address"
        },
        {
          "indexed": false,
          "internalType": "bool",
          "name": "approved",
          "type": "bool"
        }
      ],
      "name": "ApprovalForAll",
      "type": "event"
    },
    {
      "anonymous": false,
      "inputs": [
        {
          "indexed": true,
          "internalType": "address",
          "name": "previousOwner",
          "type": "address"
        },
        {
          "indexed": true,
          "internalType": "address",
          "name": "newOwner",
          "type": "address"
        }
      ],
      "name": "OwnershipTransferred",
      "type": "event"
    },
    {
      "anonymous": false,
      "inputs": [
        {
          "indexed": true,
          "internalType": "address",
          "name": "operator",
          "type": "address"
        },
        {
          "indexed": true,
          "internalType": "address",
          "name": "from",
          "type": "address"
        },
        {
          "indexed": true,
          "internalType": "address",
          "name": "to",
          "type": "address"
        },
        {
          "indexed": false,
          "internalType": "uint256[]",
          "name": "ids",
          "type": "uint256[]"
        },
        {
          "indexed": false,
          "internalType": "uint256[]",
          "name": "values",
          "type": "uint256[]"
        }
      ],
      "name": "TransferBatch",
      "type": "event"
    },
    {
      "anonymous": false,
      "inputs": [
        {
          "indexed": true,
          "internalType": "address",
          "name": "operator",
          "type": "address"
        },
        {
          "indexed": true,
          "internalType": "address",
          "name": "from",
          "type": "address"
        },
        {
          "indexed": true,
          "internalType": "address",
          "name": "to",
          "type": "address"
        },
        {
          "indexed": false,
          "internalType": "uint256",
          "name": "id",
          "type": "uint256"
        },
        {
          "indexed": false,
          "internalType": "uint256",
          "name": "value",
          "type": "uint256"
        }
      ],
      "name": "TransferSingle",
      "type": "event"
    },
    {
      "anonymous": false,
      "inputs": [
        {
          "indexed": false,
          "internalType": "string",
          "name": "value",
          "type": "string"
        },
        {
          "indexed": true,
          "internalType": "uint256",
          "name": "id",
          "type": "uint256"
        }
      ],
      "name": "URI",
      "type": "event"
    },
    {
      "inputs": [
        {
          "internalType": "address",
          "name": "account",
          "type": "address"
        },
        {
          "internalType": "uint256",
          "name": "id",
          "type": "uint256"
        }
      ],
      "name": "balanceOf",
      "outputs": [
        {
          "internalType": "uint256",
          "name": "",
          "type": "uint256"
        }
      ],
      "stateMutability": "view",
      "type": "function"
    },
    {
      "inputs": [
        {
          "internalType": "address[]",
          "name": "accounts",
          "type": "address[]"
        },
        {
          "internalType": "uint256[]",
          "name": "ids",
          "type": "uint256[]"
        }
      ],
      "name": "balanceOfBatch",
      "outputs": [
        {
          "internalType": "uint256[]",
          "name": "",
          "type": "uint256[]"
        }
      ],
      "stateMutability": "view",
      "type": "function"
    },
    {
      "inputs": [
        {
          "internalType": "uint256",
          "name": "",
          "type": "uint256"
        }
      ],
      "name": "distributionIdToBuildingAddress",
      "outputs": [
        {
          "internalType": "address",
          "name": "",
          "type": "address"
        }
      ],
      "stateMutability": "view",
      "type": "function"
    },
    {
      "inputs": [
        {
          "internalType": "uint256",
          "name": "distributionId",
          "type": "uint256"
        }
      ],
      "name": "getDistributionReceivers",
      "outputs": [
        {
          "internalType": "address[]",
          "name": "",
          "type": "address[]"
        }
      ],
      "stateMutability": "view",
      "type": "function"
    },
    {
      "inputs": [],
      "name": "getItemsPerNft",
      "outputs": [
        {
          "internalType": "uint256",
          "name": "",
          "type": "uint256"
        }
      ],
      "stateMutability": "pure",
      "type": "function"
    },
    {
      "inputs": [
        {
          "internalType": "address",
          "name": "account",
          "type": "address"
        },
        {
          "internalType": "address",
          "name": "operator",
          "type": "address"
        }
      ],
      "name": "isApprovedForAll",
      "outputs": [
        {
          "internalType": "bool",
          "name": "",
          "type": "bool"
        }
      ],
      "stateMutability": "view",
      "type": "function"
    },
    {
      "inputs": [],
      "name": "lastDistributionId",
      "outputs": [
        {
          "internalType": "uint256",
          "name": "",
          "type": "uint256"
        }
      ],
      "stateMutability": "view",
      "type": "function"
    },
    {
      "inputs": [
        {
          "internalType": "address",
          "name": "to",
          "type": "address"
        }
      ],
      "name": "mint",
      "outputs": [
        {
          "internalType": "uint256",
          "name": "",
          "type": "uint256"
        }
      ],
      "stateMutability": "nonpayable",
      "type": "function"
    },
    {
      "inputs": [],
      "name": "owner",
      "outputs": [
        {
          "internalType": "address",
          "name": "",
          "type": "address"
        }
      ],
      "stateMutability": "view",
      "type": "function"
    },
    {
      "inputs": [],
      "name": "renounceOwnership",
      "outputs": [],
      "stateMutability": "nonpayable",
      "type": "function"
    },
    {
      "inputs": [
        {
          "internalType": "address",
          "name": "from",
          "type": "address"
        },
        {
          "internalType": "address",
          "name": "to",
          "type": "address"
        },
        {
          "internalType": "uint256[]",
          "name": "ids",
          "type": "uint256[]"
        },
        {
          "internalType": "uint256[]",
          "name": "amounts",
          "type": "uint256[]"
        },
        {
          "internalType": "bytes",
          "name": "data",
          "type": "bytes"
        }
      ],
      "name": "safeBatchTransferFrom",
      "outputs": [],
      "stateMutability": "nonpayable",
      "type": "function"
    },
    {
      "inputs": [
        {
          "internalType": "address",
          "name": "from",
          "type": "address"
        },
        {
          "internalType": "address",
          "name": "to",
          "type": "address"
        },
        {
          "internalType": "uint256",
          "name": "id",
          "type": "uint256"
        },
        {
          "internalType": "uint256",
          "name": "amount",
          "type": "uint256"
        },
        {
          "internalType": "bytes",
          "name": "data",
          "type": "bytes"
        }
      ],
      "name": "safeTransferFrom",
      "outputs": [],
      "stateMutability": "nonpayable",
      "type": "function"
    },
    {
      "inputs": [
        {
          "internalType": "address",
          "name": "operator",
          "type": "address"
        },
        {
          "internalType": "bool",
          "name": "approved",
          "type": "bool"
        }
      ],
      "name": "setApprovalForAll",
      "outputs": [],
      "stateMutability": "nonpayable",
      "type": "function"
    },
    {
      "inputs": [
        {
          "internalType": "bytes4",
          "name": "interfaceId",
          "type": "bytes4"
        }
      ],
      "name": "supportsInterface",
      "outputs": [
        {
          "internalType": "bool",
          "name": "",
          "type": "bool"
        }
      ],
      "stateMutability": "view",
      "type": "function"
    },
    {
      "inputs": [
        {
          "internalType": "address",
          "name": "newOwner",
          "type": "address"
        }
      ],
      "name": "transferOwnership",
      "outputs": [],
      "stateMutability": "nonpayable",
      "type": "function"
    },
    {
      "inputs": [
        {
          "internalType": "string",
          "name": "_newUri",
          "type": "string"
        }
      ],
      "name": "updateURI",
      "outputs": [],
      "stateMutability": "nonpayable",
      "type": "function"
    },
    {
      "inputs": [
        {
          "internalType": "uint256",
          "name": "",
          "type": "uint256"
        }
      ],
      "name": "uri",
      "outputs": [
        {
          "internalType": "string",
          "name": "",
          "type": "string"
        }
      ],
      "stateMutability": "view",
      "type": "function"
    },
    {
      "inputs": [],
      "name": "world",
      "outputs": [
        {
          "internalType": "contract IWorld",
          "name": "",
          "type": "address"
        }
      ],
      "stateMutability": "view",
      "type": "function"
    }
  ],
  "bytecode": "0x608060405234801561001057600080fd5b5060405161247538038061247583398101604081905261002f916100e1565b8061003981610069565b5061004333610079565b50600580546001600160a01b0319166001600160a01b0392909216919091179055610314565b60026100758282610256565b5050565b600380546001600160a01b038381166001600160a01b0319831681179093556040519116919082907f8be0079c531659141344cd1fd0a4f28419497f9722a3daafe3b4186f6b6457e090600090a35050565b634e487b7160e01b600052604160045260246000fd5b600080604083850312156100f457600080fd5b82516001600160a01b038116811461010b57600080fd5b60208401519092506001600160401b0381111561012757600080fd5b8301601f8101851361013857600080fd5b80516001600160401b03811115610151576101516100cb565b604051601f8201601f19908116603f011681016001600160401b038111828210171561017f5761017f6100cb565b60405281815282820160200187101561019757600080fd5b60005b828110156101b65760208185018101518383018201520161019a565b506000602083830101528093505050509250929050565b600181811c908216806101e157607f821691505b60208210810361020157634e487b7160e01b600052602260045260246000fd5b50919050565b601f82111561025157806000526020600020601f840160051c8101602085101561022e5750805b601f840160051c820191505b8181101561024e576000815560010161023a565b50505b505050565b81516001600160401b0381111561026f5761026f6100cb565b6102838161027d84546101cd565b84610207565b6020601f8211600181146102b7576000831561029f5750848201515b600019600385901b1c1916600184901b17845561024e565b600084815260208120601f198516915b828110156102e757878501518255602094850194600190920191016102c7565b50848210156103055786840151600019600387901b60f8161c191681555b50505050600190811b01905550565b612152806103236000396000f3fe608060405234801561001057600080fd5b50600436106101155760003560e01c8063715018a6116100a2578063c30f4a5a11610071578063c30f4a5a14610252578063c99f4f8914610265578063e985e9c51461028e578063f242432a146102ca578063f2fde38b146102dd57600080fd5b8063715018a61461021d5780637ba41d34146102255780638da5cb5b1461022e578063a22cb4651461023f57600080fd5b80632eb2c2d6116100e95780632eb2c2d61461018a57806330b67baa1461019f5780634e1273f4146101ca57806361a5d38c146101ea5780636a6278421461020a57600080fd5b8062fdd58e1461011a57806301ffc9a71461014057806302705c2e146101635780630e89341c1461016a575b600080fd5b61012d610128366004611730565b6102f0565b6040519081526020015b60405180910390f35b61015361014e366004611770565b610389565b6040519015158152602001610137565b606461012d565b61017d61017836600461178d565b6103d9565b60405161013791906117ec565b61019d61019836600461195a565b61046d565b005b6005546101b2906001600160a01b031681565b6040516001600160a01b039091168152602001610137565b6101dd6101d8366004611a0d565b6104b9565b6040516101379190611b1c565b6101fd6101f836600461178d565b6105da565b6040516101379190611b2f565b61012d610218366004611b7b565b6105f4565b61019d610658565b61012d60075481565b6003546001600160a01b03166101b2565b61019d61024d366004611b96565b61066c565b61019d610260366004611bd2565b61067b565b6101b261027336600461178d565b6006602052600090815260409020546001600160a01b031681565b61015361029c366004611c22565b6001600160a01b03918216600090815260016020908152604080832093909416825291909152205460ff1690565b61019d6102d8366004611c55565b61068f565b61019d6102eb366004611b7b565b6106d4565b60006001600160a01b0383166103605760405162461bcd60e51b815260206004820152602a60248201527f455243313135353a2061646472657373207a65726f206973206e6f742061207660448201526930b634b21037bbb732b960b11b60648201526084015b60405180910390fd5b506000818152602081815260408083206001600160a01b03861684529091529020545b92915050565b60006001600160e01b03198216636cdb3d1360e11b14806103ba57506001600160e01b031982166303a24d0760e21b145b8061038357506301ffc9a760e01b6001600160e01b0319831614610383565b6060600280546103e890611cad565b80601f016020809104026020016040519081016040528092919081815260200182805461041490611cad565b80156104615780601f1061043657610100808354040283529160200191610461565b820191906000526020600020905b81548152906001019060200180831161044457829003601f168201915b50505050509050919050565b6001600160a01b0385163314806104895750610489853361029c565b6104a55760405162461bcd60e51b815260040161035790611ce7565b6104b2858585858561074a565b5050505050565b6060815183511461051e5760405162461bcd60e51b815260206004820152602960248201527f455243313135353a206163636f756e747320616e6420696473206c656e677468604482015268040dad2e6dac2e8c6d60bb1b6064820152608401610357565b600083516001600160401b03811115610539576105396117ff565b604051908082528060200260200182016040528015610562578160200160208202803683370190505b50905060005b84518110156105d2576105ad85828151811061058657610586611d35565b60200260200101518583815181106105a0576105a0611d35565b60200260200101516102f0565b8282815181106105bf576105bf611d35565b6020908102919091010152600101610568565b509392505050565b60008181526004602052604090206060906103839061093c565b60006105fe610950565b6000600754600161060f9190611d61565b905061062d8382606460405180602001604052806000815250610a4b565b6007819055600081815260066020526040902080546001600160a01b0319163317905590505b919050565b610660610b7d565b61066a6000610bd7565b565b610677338383610c29565b5050565b610683610b7d565b61068c81610d09565b50565b6001600160a01b0385163314806106ab57506106ab853361029c565b6106c75760405162461bcd60e51b815260040161035790611ce7565b6104b28585858585610d15565b6106dc610b7d565b6001600160a01b0381166107415760405162461bcd60e51b815260206004820152602660248201527f4f776e61626c653a206e6577206f776e657220697320746865207a65726f206160448201526564647265737360d01b6064820152608401610357565b61068c81610bd7565b81518351146107ac5760405162461bcd60e51b815260206004820152602860248201527f455243313135353a2069647320616e6420616d6f756e7473206c656e677468206044820152670dad2e6dac2e8c6d60c31b6064820152608401610357565b6001600160a01b0384166107d25760405162461bcd60e51b815260040161035790611d74565b336107e1818787878787610e5b565b60005b84518110156108c057600085828151811061080157610801611d35565b60200260200101519050600085838151811061081f5761081f611d35565b602090810291909101810151600084815280835260408082206001600160a01b038e16835290935291909120549091508181101561086f5760405162461bcd60e51b815260040161035790611db9565b6000838152602081815260408083206001600160a01b038e8116855292528083208585039055908b168252812080548492906108ac908490611d61565b9091555050600190930192506107e4915050565b50846001600160a01b0316866001600160a01b0316826001600160a01b03167f4a39dc06d4c0dbc64b70af90fd698a233a518aa5d07e595d983b8c0526c8f7fb8787604051610910929190611e03565b60405180910390a461092681878787878761117f565b6109348187878787876112f1565b505050505050565b606060006109498361144c565b9392505050565b6000336001600160a01b0316637d884c746040518163ffffffff1660e01b8152600401602060405180830381865afa158015610990573d6000803e3d6000fd5b505050506040513d601f19601f820116820180604052508101906109b49190611e31565b600554604051633aefa00d60e21b8152600481018390523360248201529192506000916001600160a01b039091169063ebbe803490604401602060405180830381865afa158015610a09573d6000803e3d6000fd5b505050506040513d601f19601f82011682018060405250810190610a2d9190611e31565b0361068c5760405163422656d160e01b815260040160405180910390fd5b6001600160a01b038416610aab5760405162461bcd60e51b815260206004820152602160248201527f455243313135353a206d696e7420746f20746865207a65726f206164647265736044820152607360f81b6064820152608401610357565b336000610ab7856114a7565b90506000610ac4856114a7565b9050610ad583600089858589610e5b565b6000868152602081815260408083206001600160a01b038b16845290915281208054879290610b05908490611d61565b909155505060408051878152602081018790526001600160a01b03808a1692600092918716917fc3d58168c5ae7397731d063d5bbf3d657854427343f4c083240f7aacaa2d0f62910160405180910390a4610b658360008985858961117f565b610b74836000898989896114f2565b50505050505050565b6003546001600160a01b0316331461066a5760405162461bcd60e51b815260206004820181905260248201527f4f776e61626c653a2063616c6c6572206973206e6f7420746865206f776e65726044820152606401610357565b600380546001600160a01b038381166001600160a01b0319831681179093556040519116919082907f8be0079c531659141344cd1fd0a4f28419497f9722a3daafe3b4186f6b6457e090600090a35050565b816001600160a01b0316836001600160a01b031603610c9c5760405162461bcd60e51b815260206004820152602960248201527f455243313135353a2073657474696e6720617070726f76616c20737461747573604482015268103337b91039b2b63360b91b6064820152608401610357565b6001600160a01b03838116600081815260016020908152604080832094871680845294825291829020805460ff191686151590811790915591519182527f17307eab39ab6107e8899845ad3d59bd9653f200f220920489ca2b5937696c31910160405180910390a3505050565b60026106778282611e96565b6001600160a01b038416610d3b5760405162461bcd60e51b815260040161035790611d74565b336000610d47856114a7565b90506000610d54856114a7565b9050610d64838989858589610e5b565b6000868152602081815260408083206001600160a01b038c16845290915290205485811015610da55760405162461bcd60e51b815260040161035790611db9565b6000878152602081815260408083206001600160a01b038d8116855292528083208985039055908a16825281208054889290610de2908490611d61565b909155505060408051888152602081018890526001600160a01b03808b16928c821692918816917fc3d58168c5ae7397731d063d5bbf3d657854427343f4c083240f7aacaa2d0f62910160405180910390a4610e42848a8a86868a61117f565b610e50848a8a8a8a8a6114f2565b505050505050505050565b60005b8351811015610b7457600060066000868481518110610e7f57610e7f611d35565b6020908102919091018101518252810191909152604001600020546001600160a01b0316905080610eb05750611177565b60008190506000826001600160a01b0316637d884c746040518163ffffffff1660e01b8152600401602060405180830381865afa158015610ef5573d6000803e3d6000fd5b505050506040513d601f19601f82011682018060405250810190610f199190611e31565b60408051808201825260088152676275696c64696e6760c01b6020909101526005549051633aefa00d60e21b8152600481018390526001600160a01b038b811660248301529293507f010b6fd4eff8a0ca8c7925f2d29e6173e90462d56ae99e39fa817c79f4028518929091169063ebbe803490604401602060405180830381865afa158015610fad573d6000803e3d6000fd5b505050506040513d601f19601f82011682018060405250810190610fd19190611e31565b14801561109f5750816001600160a01b031663e05ab4986040518163ffffffff1660e01b8152600401602060405180830381865afa158015611017573d6000803e3d6000fd5b505050506040513d601f19601f8201168201806040525081019061103b9190611e31565b886001600160a01b031663e05ab4986040518163ffffffff1660e01b8152600401602060405180830381865afa158015611079573d6000803e3d6000fd5b505050506040513d601f19601f8201168201806040525081019061109d9190611e31565b145b156110bd5760405163cbb2164760e01b815260040160405180910390fd5b604051631ede8aff60e21b81526001600160a01b038a81166004830152831690637b7a2bfc90602401600060405180830381600087803b15801561110057600080fd5b505af1158015611114573d6000803e3d6000fd5b5050604051631ede8aff60e21b81526001600160a01b038b8116600483015285169250637b7a2bfc9150602401600060405180830381600087803b15801561115b57600080fd5b505af115801561116f573d6000803e3d6000fd5b505050505050505b600101610e5e565b60005b8351811015610b74576000600460008684815181106111a3576111a3611d35565b60200260200101518152602001908152602001600020905060006001600160a01b0316876001600160a01b0316141580156111f157506111ef878684815181106105a0576105a0611d35565b155b156112025761120081886115ad565b505b61120c81876115c2565b5060006006600087858151811061122557611225611d35565b6020908102919091018101518252810191909152604001600020546001600160a01b0316905080156112e757806001600160a01b031663152d9483898988878151811061127457611274611d35565b60209081029190910101516040516001600160e01b031960e086901b1681526001600160a01b0393841660048201529290911660248301526044820152606401600060405180830381600087803b1580156112ce57600080fd5b505af11580156112e2573d6000803e3d6000fd5b505050505b5050600101611182565b6001600160a01b0384163b156109345760405163bc197c8160e01b81526001600160a01b0385169063bc197c81906113359089908990889088908890600401611f54565b6020604051808303816000875af1925050508015611370575060408051601f3d908101601f1916820190925261136d91810190611fb2565b60015b61141c5761137c611fcf565b806308c379a0036113b55750611390611feb565b8061139b57506113b7565b8060405162461bcd60e51b815260040161035791906117ec565b505b60405162461bcd60e51b815260206004820152603460248201527f455243313135353a207472616e7366657220746f206e6f6e2d455243313135356044820152732932b1b2b4bb32b91034b6b83632b6b2b73a32b960611b6064820152608401610357565b6001600160e01b0319811663bc197c8160e01b14610b745760405162461bcd60e51b815260040161035790612066565b60608160000180548060200260200160405190810160405280929190818152602001828054801561046157602002820191906000526020600020905b8154815260200190600101908083116114885750505050509050919050565b604080516001808252818301909252606091600091906020808301908036833701905050905082816000815181106114e1576114e1611d35565b602090810291909101015292915050565b6001600160a01b0384163b156109345760405163f23a6e6160e01b81526001600160a01b0385169063f23a6e619061153690899089908890889088906004016120ae565b6020604051808303816000875af1925050508015611571575060408051601f3d908101601f1916820190925261156e91810190611fb2565b60015b61157d5761137c611fcf565b6001600160e01b0319811663f23a6e6160e01b14610b745760405162461bcd60e51b815260040161035790612066565b6000610949836001600160a01b0384166115d7565b6000610949836001600160a01b0384166116ca565b600081815260018301602052604081205480156116c05760006115fb6001836120f3565b855490915060009061160f906001906120f3565b905081811461167457600086600001828154811061162f5761162f611d35565b906000526020600020015490508087600001848154811061165257611652611d35565b6000918252602080832090910192909255918252600188019052604090208390555b855486908061168557611685612106565b600190038181906000526020600020016000905590558560010160008681526020019081526020016000206000905560019350505050610383565b6000915050610383565b600081815260018301602052604081205461171157508154600181810184556000848152602080822090930184905584548482528286019093526040902091909155610383565b506000610383565b80356001600160a01b038116811461065357600080fd5b6000806040838503121561174357600080fd5b61174c83611719565b946020939093013593505050565b6001600160e01b03198116811461068c57600080fd5b60006020828403121561178257600080fd5b81356109498161175a565b60006020828403121561179f57600080fd5b5035919050565b6000815180845260005b818110156117cc576020818501810151868301820152016117b0565b506000602082860101526020601f19601f83011685010191505092915050565b60208152600061094960208301846117a6565b634e487b7160e01b600052604160045260246000fd5b601f8201601f191681016001600160401b038111828210171561183a5761183a6117ff565b6040525050565b60006001600160401b0382111561185a5761185a6117ff565b5060051b60200190565b600082601f83011261187557600080fd5b813561188081611841565b60405161188d8282611815565b80915082815260208101915060208360051b8601019250858311156118b157600080fd5b602085015b838110156118ce5780358352602092830192016118b6565b5095945050505050565b6000806001600160401b038411156118f2576118f26117ff565b50604051601f8401601f19166020019061190c8282611815565b80925084815285858501111561192157600080fd5b8484602083013760006020868301015250509392505050565b600082601f83011261194b57600080fd5b610949838335602085016118d8565b600080600080600060a0868803121561197257600080fd5b61197b86611719565b945061198960208701611719565b935060408601356001600160401b038111156119a457600080fd5b6119b088828901611864565b93505060608601356001600160401b038111156119cc57600080fd5b6119d888828901611864565b92505060808601356001600160401b038111156119f457600080fd5b611a008882890161193a565b9150509295509295909350565b60008060408385031215611a2057600080fd5b82356001600160401b03811115611a3657600080fd5b8301601f81018513611a4757600080fd5b8035611a5281611841565b604051611a5f8282611815565b80915082815260208101915060208360051b850101925087831115611a8357600080fd5b6020840193505b82841015611aac57611a9b84611719565b825260209384019390910190611a8a565b945050505060208301356001600160401b03811115611aca57600080fd5b611ad685828601611864565b9150509250929050565b600081518084526020840193506020830160005b82811015611b12578151865260209586019590910190600101611af4565b5093949350505050565b6020815260006109496020830184611ae0565b602080825282518282018190526000918401906040840190835b81811015611b705783516001600160a01b0316835260209384019390920191600101611b49565b509095945050505050565b600060208284031215611b8d57600080fd5b61094982611719565b60008060408385031215611ba957600080fd5b611bb283611719565b915060208301358015158114611bc757600080fd5b809150509250929050565b600060208284031215611be457600080fd5b81356001600160401b03811115611bfa57600080fd5b8201601f81018413611c0b57600080fd5b611c1a848235602084016118d8565b949350505050565b60008060408385031215611c3557600080fd5b611c3e83611719565b9150611c4c60208401611719565b90509250929050565b600080600080600060a08688031215611c6d57600080fd5b611c7686611719565b9450611c8460208701611719565b9350604086013592506060860135915060808601356001600160401b038111156119f457600080fd5b600181811c90821680611cc157607f821691505b602082108103611ce157634e487b7160e01b600052602260045260246000fd5b50919050565b6020808252602e908201527f455243313135353a2063616c6c6572206973206e6f7420746f6b656e206f776e60408201526d195c881bdc88185c1c1c9bdd995960921b606082015260800190565b634e487b7160e01b600052603260045260246000fd5b634e487b7160e01b600052601160045260246000fd5b8082018082111561038357610383611d4b565b60208082526025908201527f455243313135353a207472616e7366657220746f20746865207a65726f206164604082015264647265737360d81b606082015260800190565b6020808252602a908201527f455243313135353a20696e73756666696369656e742062616c616e636520666f60408201526939103a3930b739b332b960b11b606082015260800190565b604081526000611e166040830185611ae0565b8281036020840152611e288185611ae0565b95945050505050565b600060208284031215611e4357600080fd5b5051919050565b601f821115611e9157806000526020600020601f840160051c81016020851015611e715750805b601f840160051c820191505b818110156104b25760008155600101611e7d565b505050565b81516001600160401b03811115611eaf57611eaf6117ff565b611ec381611ebd8454611cad565b84611e4a565b6020601f821160018114611ef75760008315611edf5750848201515b600019600385901b1c1916600184901b1784556104b2565b600084815260208120601f198516915b82811015611f275787850151825560209485019460019092019101611f07565b5084821015611f455786840151600019600387901b60f8161c191681555b50505050600190811b01905550565b6001600160a01b0386811682528516602082015260a060408201819052600090611f8090830186611ae0565b8281036060840152611f928186611ae0565b90508281036080840152611fa681856117a6565b98975050505050505050565b600060208284031215611fc457600080fd5b81516109498161175a565b600060033d1115611fe85760046000803e5060005160e01c5b90565b600060443d1015611ff95790565b6040513d600319016004823e80513d60248201116001600160401b038211171561202257505090565b80820180516001600160401b0381111561203d575050505090565b3d8401600319018282016020011115612057575050505090565b6105d260208285010185611815565b60208082526028908201527f455243313135353a204552433131353552656365697665722072656a656374656040820152676420746f6b656e7360c01b606082015260800190565b6001600160a01b03868116825285166020820152604081018490526060810183905260a0608082018190526000906120e8908301846117a6565b979650505050505050565b8181038181111561038357610383611d4b565b634e487b7160e01b600052603160045260246000fdfea2646970667358221220e27a72d930d4e03eb47cf9d92ae6240bdf59277dd98cb61019f35b19851c7ab964736f6c634300081a0033",
  "linkReferences": {},
  "deployedLinkReferences": {}
}