{
  "_format": "hh-sol-artifact-1",
  "contractName": "IngotsUnitsPool",
  "sourceName": "contracts/core/assets/unitsPool/IngotsUnitsPool.sol",
  "abi": [
    {
      "inputs": [],
      "name": "CannotHireUnitsDueToTheirCostIsHigherThanMaxTokensToSellSpecified",
      "type": "error"
    },
    {
      "inputs": [],
      "name": "CannotHireUnitsExceedingArmyUnitsLimit",
      "type": "error"
    },
    {
      "inputs": [],
      "name": "CannotHireUnitsExceedingTransactionLimit",
      "type": "error"
    },
    {
      "inputs": [],
      "name": "CannotHireUnitsForArmyWhichSettlementDoesNotBelongToRelatedRegion",
      "type": "error"
    },
    {
      "inputs": [],
      "name": "CannotHireUnitsInvalidUnitsToBuySpecified",
      "type": "error"
    },
    {
      "inputs": [],
      "name": "CannotHireUnitsWhileArmyIsManeuvering",
      "type": "error"
    },
    {
      "inputs": [],
      "name": "CannotHireUnitsWhileArmyIsNotOnHomePosition",
      "type": "error"
    },
    {
      "inputs": [],
      "name": "CannotHireUnitsWhileArmyIsStunned",
      "type": "error"
    },
    {
      "inputs": [],
      "name": "OnlyActiveGame",
      "type": "error"
    },
    {
      "inputs": [],
      "name": "OnlyMightyCreator",
      "type": "error"
    },
    {
      "inputs": [],
      "name": "OnlyRelatedRegion",
      "type": "error"
    },
    {
      "inputs": [],
      "name": "OnlyRulerOrWorldAsset",
      "type": "error"
    },
    {
      "inputs": [],
      "name": "OnlyWorldAssetFromSameEra",
      "type": "error"
    },
    {
      "inputs": [],
      "name": "UnknownInputParameter",
      "type": "error"
    },
    {
      "anonymous": false,
      "inputs": [
        {
          "indexed": false,
          "internalType": "uint8",
          "name": "version",
          "type": "uint8"
        }
      ],
      "name": "Initialized",
      "type": "event"
    },
    {
      "anonymous": false,
      "inputs": [
        {
          "indexed": false,
          "internalType": "address",
          "name": "spender",
          "type": "address"
        },
        {
          "indexed": false,
          "internalType": "address",
          "name": "armyAddress",
          "type": "address"
        },
        {
          "indexed": false,
          "internalType": "uint256",
          "name": "boughtUnitsAmount",
          "type": "uint256"
        },
        {
          "indexed": false,
          "internalType": "uint256",
          "name": "spentTokensAmount",
          "type": "uint256"
        },
        {
          "indexed": false,
          "internalType": "uint256",
          "name": "newUnitPrice",
          "type": "uint256"
        }
      ],
      "name": "UnitsBought",
      "type": "event"
    },
    {
      "inputs": [],
      "name": "assetGroupId",
      "outputs": [
        {
          "internalType": "bytes32",
          "name": "",
          "type": "bytes32"
        }
      ],
      "stateMutability": "view",
      "type": "function"
    },
    {
      "inputs": [],
      "name": "assetTypeId",
      "outputs": [
        {
          "internalType": "bytes32",
          "name": "",
          "type": "bytes32"
        }
      ],
      "stateMutability": "view",
      "type": "function"
    },
    {
      "inputs": [
        {
          "internalType": "uint256",
          "name": "unitsToBuy",
          "type": "uint256"
        }
      ],
      "name": "calculateTokensForExactUnits",
      "outputs": [
        {
          "internalType": "uint256",
          "name": "",
          "type": "uint256"
        },
        {
          "internalType": "uint256",
          "name": "",
          "type": "uint256"
        }
      ],
      "stateMutability": "view",
      "type": "function"
    },
    {
      "inputs": [],
      "name": "era",
      "outputs": [
        {
          "internalType": "contract IEra",
          "name": "",
          "type": "address"
        }
      ],
      "stateMutability": "view",
      "type": "function"
    },
    {
      "inputs": [],
      "name": "eraNumber",
      "outputs": [
        {
          "internalType": "uint256",
          "name": "",
          "type": "uint256"
        }
      ],
      "stateMutability": "view",
      "type": "function"
    },
    {
      "inputs": [
        {
          "internalType": "bytes",
          "name": "initParams",
          "type": "bytes"
        }
      ],
      "name": "init",
      "outputs": [],
      "stateMutability": "nonpayable",
      "type": "function"
    },
    {
      "inputs": [],
      "name": "lastPurchaseTime",
      "outputs": [
        {
          "internalType": "uint256",
          "name": "",
          "type": "uint256"
        }
      ],
      "stateMutability": "view",
      "type": "function"
    },
    {
      "inputs": [],
      "name": "registry",
      "outputs": [
        {
          "internalType": "contract IRegistry",
          "name": "",
          "type": "address"
        }
      ],
      "stateMutability": "view",
      "type": "function"
    },
    {
      "inputs": [],
      "name": "relatedRegion",
      "outputs": [
        {
          "internalType": "contract IRegion",
          "name": "",
          "type": "address"
        }
      ],
      "stateMutability": "view",
      "type": "function"
    },
    {
      "inputs": [
        {
          "internalType": "address",
          "name": "tokensOwner",
          "type": "address"
        },
        {
          "internalType": "address",
          "name": "settlementAddress",
          "type": "address"
        },
        {
          "internalType": "uint256",
          "name": "unitsToBuy",
          "type": "uint256"
        },
        {
          "internalType": "uint256",
          "name": "maxTokensToSell",
          "type": "uint256"
        }
      ],
      "name": "swapTokensForExactUnits",
      "outputs": [
        {
          "internalType": "uint256",
          "name": "",
          "type": "uint256"
        }
      ],
      "stateMutability": "nonpayable",
      "type": "function"
    },
    {
      "inputs": [
        {
          "internalType": "address",
          "name": "tokensOwner",
          "type": "address"
        },
        {
          "internalType": "address",
          "name": "msgSender",
          "type": "address"
        },
        {
          "internalType": "address",
          "name": "settlementAddress",
          "type": "address"
        },
        {
          "internalType": "uint256",
          "name": "unitsToBuy",
          "type": "uint256"
        },
        {
          "internalType": "uint256",
          "name": "maxTokensToSell",
          "type": "uint256"
        }
      ],
      "name": "swapTokensForExactUnitsByRegion",
      "outputs": [
        {
          "internalType": "uint256",
          "name": "",
          "type": "uint256"
        }
      ],
      "stateMutability": "nonpayable",
      "type": "function"
    },
    {
      "inputs": [],
      "name": "unitPrice",
      "outputs": [
        {
          "internalType": "uint256",
          "name": "",
          "type": "uint256"
        }
      ],
      "stateMutability": "view",
      "type": "function"
    },
    {
      "inputs": [],
      "name": "unitTypeId",
      "outputs": [
        {
          "internalType": "bytes32",
          "name": "",
          "type": "bytes32"
        }
      ],
      "stateMutability": "view",
      "type": "function"
    },
    {
      "inputs": [],
      "name": "world",
      "outputs": [
        {
          "internalType": "contract IWorld",
          "name": "",
          "type": "address"
        }
      ],
      "stateMutability": "view",
      "type": "function"
    },
    {
      "inputs": [],
      "name": "worldAssetFactory",
      "outputs": [
        {
          "internalType": "contract IWorldAssetFactory",
          "name": "",
          "type": "address"
        }
      ],
      "stateMutability": "view",
      "type": "function"
    }
  ],
  "bytecode": "0x6080604052348015600f57600080fd5b506124ea8061001f6000396000f3fe608060405234801561001057600080fd5b50600436106100d55760003560e01c80637d884c74116100875780637d884c741461015657806384ba89e31461015e578063a7d6911c14610166578063c14bafb11461018e578063e6c15c9914610197578063e73faa2d146101b0578063ece56a1a146101b9578063fb75b12c146101c157600080fd5b80630b4e99c3146100da578063143e55e0146100f557806330b67baa146101155780634ddf47d41461011d5780635920c54314610132578063772584511461013b5780637b1039991461014e575b600080fd5b6100e26101d4565b6040519081526020015b60405180910390f35b6100fd610211565b6040516001600160a01b0390911681526020016100ec565b6100fd610295565b61013061012b36600461217d565b61029f565b005b6100e260025481565b6100e261014936600461224e565b610402565b6100fd61042b565b6100e2610472565b6100e26104af565b6101796101743660046122a9565b6104ec565b604080519283526020830191909152016100ec565b6100e260015481565b6000546100fd906201000090046001600160a01b031681565b6100e260035481565b6100fd610525565b6100e26101cf3660046122c2565b61056c565b604080516020808252818301909252600091309183918291906020820181803683370190505090506020607a60208301853c602001519392505050565b600061021b610295565b6001600160a01b031663720a70bd610231610472565b6040518263ffffffff1660e01b815260040161024f91815260200190565b602060405180830381865afa15801561026c573d6000803e3d6000fd5b505050506040513d601f19601f820116820180604052508101906102909190612308565b905090565b600061029061058c565b600054610100900460ff16158080156102bf5750600054600160ff909116105b806102d95750303b1580156102d9575060005460ff166001145b6103405760405162461bcd60e51b815260206004820152602e60248201527f496e697469616c697a61626c653a20636f6e747261637420697320616c72656160448201526d191e481a5b9a5d1a585b1a5e995960921b606482015260840160405180910390fd5b6000805460ff191660011790558015610363576000805461ff0019166101001790555b6000808380602001905181019061037a9190612325565b6000805462010000600160b01b031916620100006001600160a01b0385160217905560028190554260015590925090506103b3816105c9565b600355505080156103fe576000805461ff0019169055604051600181527f7f26b83ff96e1f2b6a682f133852f6798a09c465da95921460cefb38474024989060200160405180910390a15b5050565b600061040c61068e565b6104146107c2565b61042186868686866107f5565b9695505050505050565b6000610435610295565b6001600160a01b0316637b1039996040518163ffffffff1660e01b8152600401602060405180830381865afa15801561026c573d6000803e3d6000fd5b604080516020808252818301909252600091309183918291906020820181803683370190505090506020609a60208301853c602001519392505050565b604080516020808252818301909252600091309183918291906020820181803683370190505090506020605a60208301853c602001519392505050565b6000806000806104fd600254611005565b91509150600061050d83836110ac565b905061051986826110ef565b94509450505050915091565b600061052f61042b565b6001600160a01b031663ece56a1a6040518163ffffffff1660e01b8152600401602060405180830381865afa15801561026c573d6000803e3d6000fd5b600061057661068e565b61058385338686866107f5565b95945050505050565b604080516014808252818301909252600091309183918291906020820181803683370190505090506014602a60208301853c601401519392505050565b60408051808201909152600681526520a921a422a960d11b60209091015260007fbd21a0403f8a882c166bd206a22b19e35435476f82a2cccdbfebf4d666c861c0820161061f5750671bc16d674ec80000919050565b6040805180820190915260088152672427a929a2a6a0a760c11b6020909101527f762a1190b034cd04c3eae43da1943cdf0137d457634c4d62e69626f81f1986c7820161067557506729a2241af62c0000919050565b60405163ea3b0abb60e01b815260040160405180910390fd5b6000610698610295565b90506000816001600160a01b0316633c8ca83d6040518163ffffffff1660e01b8152600401602060405180830381865afa1580156106da573d6000803e3d6000fd5b505050506040513d601f19601f820116820180604052508101906106fe9190612353565b90506000826001600160a01b03166344d9bc5f6040518163ffffffff1660e01b8152600401602060405180830381865afa158015610740573d6000803e3d6000fd5b505050506040513d601f19601f820116820180604052508101906107649190612353565b905081158061077257508142105b156107905760405163a00eda6960e01b815260040160405180910390fd5b801580159061079f5750804210155b156107bd5760405163a00eda6960e01b815260040160405180910390fd5b505050565b6000546201000090046001600160a01b031633146107f357604051630ca829d560e31b815260040160405180910390fd5b565b6000808490506000816001600160a01b031663f10e38af6040518163ffffffff1660e01b8152600401602060405180830381865afa15801561083b573d6000803e3d6000fd5b505050506040513d601f19601f8201168201806040525081019061085f9190612308565b9050816001600160a01b031663aef281d36040518163ffffffff1660e01b8152600401600060405180830381600087803b15801561089c57600080fd5b505af11580156108b0573d6000803e3d6000fd5b50505050806001600160a01b0316631d8557d76040518163ffffffff1660e01b8152600401600060405180830381600087803b1580156108ef57600080fd5b505af1158015610903573d6000803e3d6000fd5b50505050806001600160a01b0316638ff54e356040518163ffffffff1660e01b8152600401602060405180830381865afa158015610945573d6000803e3d6000fd5b505050506040513d601f19601f82011682018060405250810190610969919061236c565b156109875760405163100c419560e01b815260040160405180910390fd5b806001600160a01b031663bc3b0c4b6040518163ffffffff1660e01b8152600401602060405180830381865afa1580156109c5573d6000803e3d6000fd5b505050506040513d601f19601f820116820180604052508101906109e9919061236c565b610a065760405163a854541160e01b815260040160405180910390fd5b841580610a225750610a2085670de0b6b3a7640000611196565b155b15610a405760405163a700f36360e01b815260040160405180910390fd5b600060029054906101000a90046001600160a01b03166001600160a01b0316826001600160a01b031663e6c15c996040518163ffffffff1660e01b8152600401602060405180830381865afa158015610a9d573d6000803e3d6000fd5b505050506040513d601f19601f82011682018060405250810190610ac19190612308565b6001600160a01b031614610ae85760405163194d6c7d60e21b815260040160405180910390fd5b610af282826111aa565b851115610b1257604051633181b8d360e01b815260040160405180910390fd5b69010f0cf064dd59200000851115610b3d576040516302d67e2960e41b815260040160405180910390fd5b600080610b55610174670de0b6b3a7640000896123ba565b9150915085821115610b7a5760405163331a433f60e11b815260040160405180910390fd5b6000836001600160a01b0316638e55bdc06040518163ffffffff1660e01b81526004016040805180830381865afa158015610bb9573d6000803e3d6000fd5b505050506040513d601f19601f82011682018060405250810190610bdd91906123eb565b91505067ffffffffffffffff811615610c09576040516384cc247f60e01b815260040160405180910390fd5b6000610c13610211565b6040805180820182526005815264125391d3d560da1b6020909101525163912929df60e01b81527ff4d3d98b93a17290e7883bbc86b83d603b27efc328d7873b3fc648501d83e57260048201529091506000906001600160a01b0383169063912929df90602401602060405180830381865afa158015610c97573d6000803e3d6000fd5b505050506040513d601f19601f82011682018060405250810190610cbb9190612308565b90506001600160a01b038d16610d305760405163079cc67960e41b81526001600160a01b038216906379cc679090610cf9908f90899060040161241e565b600060405180830381600087803b158015610d1357600080fd5b505af1158015610d27573d6000803e3d6000fd5b50505050610dfb565b60405163dd8aaa4f60e01b81526001600160a01b038e811660048301528d811660248301526044820187905282169063dd8aaa4f90606401600060405180830381600087803b158015610d8257600080fd5b505af1158015610d96573d6000803e3d6000fd5b50505050806001600160a01b03166379cc67908e876040518363ffffffff1660e01b8152600401610dc892919061241e565b600060405180830381600087803b158015610de257600080fd5b505af1158015610df6573d6000803e3d6000fd5b505050505b600054604080518082019091526005815264125391d3d560da1b6020909101526201000090046001600160a01b0316635053c2998c670de0b6b3a764000088610e637ff4d3d98b93a17290e7883bbc86b83d603b27efc328d7873b3fc648501d83e572611237565b610e6d9190612437565b610e7791906123ba565b6040518363ffffffff1660e01b8152600401610e9492919061241e565b600060405180830381600087803b158015610eae57600080fd5b505af1158015610ec2573d6000803e3d6000fd5b505060025460405163feae7dc360e01b815260048101919091526001600160a01b038516925063feae7dc39150602401602060405180830381865afa158015610f0f573d6000803e3d6000fd5b505050506040513d601f19601f82011682018060405250810190610f339190612308565b6001600160a01b03166340c10f19878c6040518363ffffffff1660e01b8152600401610f6092919061241e565b600060405180830381600087803b158015610f7a57600080fd5b505af1158015610f8e573d6000803e3d6000fd5b50505060038590555042600155604080516001600160a01b03808f168252881660208201529081018b905260608101869052608081018590527f2cdc858ec98ef184c62b1a5ad6d7fcfd26ec15fd28a95398a046e9593bb5ce1d9060a00160405180910390a150979b9a5050505050505050505050565b60408051808201909152600681526520a921a422a960d11b6020909101526000807fbd21a0403f8a882c166bd206a22b19e35435476f82a2cccdbfebf4d666c861c083016110595750600392606492509050565b6040805180820190915260088152672427a929a2a6a0a760c11b6020909101527f762a1190b034cd04c3eae43da1943cdf0137d457634c4d62e69626f81f1986c783016106755750600592606492509050565b6000816000036110bb57600080fd5b60006110c78484611381565b905060016001607f1b036001600160801b03821611156110e657600080fd5b90505b92915050565b60008060006110fc6114e6565b9050600061114061110e8760026110ac565b61111f6111248561111f6002611670565b61168e565b61113b8961111f61113660018e61244e565b611670565b6116c5565b9050600061115a8361113b8861111f61113660018d61244e565b9050600061117083670de0b6b3a76400006116f8565b9050600061118683670de0b6b3a76400006116f8565b9199919850909650505050505050565b60006111a28284612461565b159392505050565b60008060006111b8856117b4565b9150915060006111c7856119a6565b9050600061120c83670de0b6b3a76400006111ea671bc16d674ec8000088612437565b6111f491906123ba565b6111fe91906123ba565b670de0b6b3a7640000611add565b90508082106112225760009450505050506110e9565b61122c828261244e565b979650505050505050565b6040805180820190915260048152631193d3d160e21b60209091015260007fd090a5d9e290baeb3c0f657cb8df01a7c37d0d11b8a73165ba04298bd71606c3820161128b5750670429d069189e0000919050565b60408051808201909152600481526315d3d3d160e21b6020909101527fa0c2c402a49ee67eb7d8a3e87eb93de113a3a54817e8a70c39ae8ab51c0e12be82016112dd5750670de0b6b3a7640000919050565b6040805180820190915260038152624f524560e81b6020909101527f624ae31110c92d70b58ec456bb42524ff16773a98936d8ef150f1e6b104b34ab820161132e57506729a2241af62c0000919050565b604080518082019091526005815264125391d3d560da1b6020909101527f0b2c26746c5e8d6f1877c4437947c29fc4d8103cd72878c4c039b7afe27c1a8e82016106755750678ac7230489e80000919050565b60008160000361139057600080fd5b60006001600160c01b0384116113bb5782604085901b816113b3576113b361238e565b0490506114d2565b60c084811c64010000000081106113d4576020918201911c5b6201000081106113e6576010918201911c5b61010081106113f7576008918201911c5b60108110611407576004918201911c5b60048110611417576002918201911c5b60028110611426576001820191505b60bf820360018603901c6001018260ff0387901b816114475761144761238e565b0492506001600160801b0383111561145e57600080fd5b608085901c83026001600160801b038616840260c088901c604089901b8281101561148a576001820391505b608084901b929003828110156114a1576001820391505b829003608084901c82146114b7576114b7612475565b8881816114c6576114c661238e565b04870196505050505050505b6001600160801b038111156110e657600080fd5b6000806114f1610295565b905060004290506000826001600160a01b0316633c8ca83d6040518163ffffffff1660e01b8152600401602060405180830381865afa158015611538573d6000803e3d6000fd5b505050506040513d601f19601f8201168201806040525081019061155c9190612353565b90508082101561156a578091505b6000836001600160a01b03166344d9bc5f6040518163ffffffff1660e01b8152600401602060405180830381865afa1580156115aa573d6000803e3d6000fd5b505050506040513d601f19601f820116820180604052508101906115ce9190612353565b905080156115e3576115e08382611af4565b92505b600154828110156115f15750815b6000611607600354670de0b6b3a76400006110ac565b905084821061161a579695505050505050565b6000611626838761244e565b9050600080611636600254611b0a565b91509150600061164683836110ac565b905060006116548286611bc9565b9050611660868261168e565b9b50505050505050505050505090565b6000677fffffffffffffff82111561168757600080fd5b5060401b90565b6000600f83810b9083900b0260401d60016001607f1b031981128015906116bc575060016001607f1b038113155b6110e657600080fd5b6000600f83810b9083900b0160016001607f1b031981128015906116bc575060016001607f1b038113156110e657600080fd5b60006001607f1b600f84900b0161173c576002600160c01b031982121580156117255750600160c01b8213155b61172e57600080fd5b506000819003603f1b6110e9565b60008084600f0b121561175457836000039350600190505b60008312156117665760009290920391155b60006117728585611de2565b9050811561179757600160ff1b81111561178b57600080fd5b60000391506110e99050565b6001600160ff1b038111156117ab57600080fd5b91506110e99050565b6040805180820182526004808252631193d49560e21b6020909201919091529051631b973c5760e21b8152600091829182916001600160a01b03861691636e5cf15c91611827917f2911d5ca388af24ed7f391a4eb24469bc0fd8935cd73bb1075ca7e702a42eb19910190815260200190565b602060405180830381865afa158015611844573d6000803e3d6000fd5b505050506040513d601f19601f820116820180604052508101906118689190612308565b9050806001600160a01b0316637633a22c6040518163ffffffff1660e01b8152600401602060405180830381865afa1580156118a8573d6000803e3d6000fd5b505050506040513d601f19601f820116820180604052508101906118cc9190612353565b816001600160a01b031663e91bde76836001600160a01b0316638545bc586040518163ffffffff1660e01b8152600401602060405180830381865afa158015611919573d6000803e3d6000fd5b505050506040513d601f19601f8201168201806040525081019061193d9190612353565b6040518263ffffffff1660e01b815260040161195b91815260200190565b602060405180830381865afa158015611978573d6000803e3d6000fd5b505050506040513d601f19601f8201168201806040525081019061199c9190612353565b9250925050915091565b6000806119b1611e4d565b905060006119bd610211565b90506000805b8351811015611ad457826001600160a01b031663feae7dc38583815181106119ed576119ed61248b565b60200260200101516040518263ffffffff1660e01b8152600401611a1391815260200190565b602060405180830381865afa158015611a30573d6000803e3d6000fd5b505050506040513d601f19601f82011682018060405250810190611a549190612308565b6040516370a0823160e01b81526001600160a01b03888116600483015291909116906370a0823190602401602060405180830381865afa158015611a9c573d6000803e3d6000fd5b505050506040513d601f19601f82011682018060405250810190611ac09190612353565b611aca90836124a1565b91506001016119c3565b50949350505050565b600081611aea81856123ba565b6110e69190612437565b6000818310611b0357816110e6565b5090919050565b60408051808201909152600681526520a921a422a960d11b6020909101526000807fbd21a0403f8a882c166bd206a22b19e35435476f82a2cccdbfebf4d666c861c08301611b6a5750662386f10de5cf3292662386f26fc1000092509050565b6040805180820190915260088152672427a929a2a6a0a760c11b6020909101527f762a1190b034cd04c3eae43da1943cdf0137d457634c4d62e69626f81f1986c783016106755750662386f10de5cf3292662386f26fc1000092509050565b600080600084600f0b128015611be25750826001166001145b905060008085600f0b12611bf65784611bfb565b846000035b6001600160801b03169050600160801b600160401b8211611c9057603f82901b91505b8415611c88576001851615611c33578102607f1c5b908002607f1c906002851615611c49578102607f1c5b908002607f1c906004851615611c5f578102607f1c5b908002607f1c906008851615611c75578102607f1c5b60049490941c93908002607f1c90611c1e565b60401c611da6565b603f600160601b831015611caa5760209290921b91601f19015b600160701b831015611cc25760109290921b91600f19015b600160781b831015611cda5760089290921b91600719015b6001607c1b831015611cf25760049290921b91600319015b6001607e1b831015611d0a5760029290921b91600119015b6001607f1b831015611d225760019290921b91600019015b60005b8615611d8f5760408210611d3857600080fd5b6001871615611d5e57918302607f1c918101600160801b831115611d5e57600192831c92015b928002607f1c9260019190911b90600160801b8410611d8357600193841c9391909101905b600187901c9650611d25565b60408110611d9c57600080fd5b6040039190911c90505b600083611db35781611db8565b816000035b905060016001607f1b03198112801590611dd9575060016001607f1b038113155b61042157600080fd5b600081600003611df4575060006110e9565b600083600f0b1215611e0557600080fd5b600f83900b6001600160801b038316810260401c90608084901c026001600160c01b03811115611e3457600080fd5b60401b8119811115611e4557600080fd5b019392505050565b60606000611e59611ef9565b90506000815167ffffffffffffffff811115611e7757611e77612167565b604051908082528060200260200182016040528015611ea0578160200160208202803683370190505b50905060005b8151811015611ef257828181518110611ec157611ec161248b565b602002602001015160400151828281518110611edf57611edf61248b565b6020908102919091010152600101611ea6565b5092915050565b6040805160038082526080820190925260609160009190816020015b60408051606080820183528082526020820152600091810191909152815260200190600190039081611f155750506040805160a0810182526011606082019081527026b4ba343930b2bab6902bb0b93934b7b960791b6080830152815281518083018352600881526736aba0a92924a7a960c11b602080830191909152808301919091528251808401845260078152662ba0a92924a7a960c91b9101527f69c5317e5ce44f1a1fb56c6a5eff904214e6353da6310ab0a6b511eef9a7c391918101919091528151919250908290600090611ff157611ff161248b565b6020908102919091018101919091526040805160a0810182526010606082019081526f26b4ba343930b2bab69020b931b432b960811b6080830152815281518083018352600781526636a0a921a422a960c91b818501528184015281518083018352600681526520a921a422a960d11b9301929092527f42de5fbfc07577d3e9942df95dd4e61cabcab8907d5d333240140b2999379e40908201528151829060019081106120a1576120a161248b565b6020908102919091018101919091526040805160a0810182526012606082019081527126b4ba343930b2bab6902437b939b2b6b0b760711b6080830152815281518083018352600981526836a427a929a2a6a0a760b91b81850152818401528151808301835260088152672427a929a2a6a0a760c11b9301929092527f89d5ee6f4fcb32fb3c151bc25e6bc320fec82ba89cb3b29d1969d907e0e67939908201528151829060029081106121575761215761248b565b6020908102919091010152919050565b634e487b7160e01b600052604160045260246000fd5b60006020828403121561218f57600080fd5b813567ffffffffffffffff8111156121a657600080fd5b8201601f810184136121b757600080fd5b803567ffffffffffffffff8111156121d1576121d1612167565b604051601f8201601f19908116603f0116810167ffffffffffffffff8111828210171561220057612200612167565b60405281815282820160200186101561221857600080fd5b81602084016020830137600091810160200191909152949350505050565b6001600160a01b038116811461224b57600080fd5b50565b600080600080600060a0868803121561226657600080fd5b853561227181612236565b9450602086013561228181612236565b9350604086013561229181612236565b94979396509394606081013594506080013592915050565b6000602082840312156122bb57600080fd5b5035919050565b600080600080608085870312156122d857600080fd5b84356122e381612236565b935060208501356122f381612236565b93969395505050506040820135916060013590565b60006020828403121561231a57600080fd5b81516110e681612236565b6000806040838503121561233857600080fd5b825161234381612236565b6020939093015192949293505050565b60006020828403121561236557600080fd5b5051919050565b60006020828403121561237e57600080fd5b815180151581146110e657600080fd5b634e487b7160e01b600052601260045260246000fd5b634e487b7160e01b600052601160045260246000fd5b6000826123c9576123c961238e565b500490565b805167ffffffffffffffff811681146123e657600080fd5b919050565b600080604083850312156123fe57600080fd5b612407836123ce565b9150612415602084016123ce565b90509250929050565b6001600160a01b03929092168252602082015260400190565b80820281158282048414176110e9576110e96123a4565b818103818111156110e9576110e96123a4565b6000826124705761247061238e565b500690565b634e487b7160e01b600052600160045260246000fd5b634e487b7160e01b600052603260045260246000fd5b808201808211156110e9576110e96123a456fea2646970667358221220e1e1520e2afb33a849ff6388d970851932b2f5d4209459b7d00e31343210875064736f6c634300081a0033",
  "linkReferences": {},
  "deployedLinkReferences": {}
}