{
  "_format": "hh-sol-artifact-1",
  "contractName": "BattleView",
  "sourceName": "contracts/periphery/BattleView.sol",
  "abi": [
    {
      "inputs": [
        {
          "internalType": "address",
          "name": "battleAddress",
          "type": "address"
        }
      ],
      "name": "getBattleCombinedData",
      "outputs": [
        {
          "components": [
            {
              "internalType": "address",
              "name": "id",
              "type": "address"
            },
            {
              "internalType": "uint64",
              "name": "battleBeginTime",
              "type": "uint64"
            },
            {
              "internalType": "uint64",
              "name": "battleDuration",
              "type": "uint64"
            },
            {
              "internalType": "uint64",
              "name": "battleEndDate",
              "type": "uint64"
            },
            {
              "internalType": "address",
              "name": "battleSettlementId",
              "type": "address"
            },
            {
              "internalType": "uint64",
              "name": "battleGamePosition",
              "type": "uint64"
            },
            {
              "internalType": "uint256[]",
              "name": "side1Casualties",
              "type": "uint256[]"
            },
            {
              "internalType": "uint256[]",
              "name": "side2Casualties",
              "type": "uint256[]"
            },
            {
              "internalType": "uint256[]",
              "name": "side1UnitsAmount",
              "type": "uint256[]"
            },
            {
              "internalType": "uint256[]",
              "name": "side2UnitsAmount",
              "type": "uint256[]"
            }
          ],
          "internalType": "struct BattleView.BattleCombinedData",
          "name": "battleCombinedData",
          "type": "tuple"
        }
      ],
      "stateMutability": "view",
      "type": "function"
    },
    {
      "inputs": [
        {
          "internalType": "address",
          "name": "battleAddress",
          "type": "address"
        }
      ],
      "name": "getBattleTimeInfo",
      "outputs": [
        {
          "components": [
            {
              "internalType": "uint64",
              "name": "beginTime",
              "type": "uint64"
            },
            {
              "internalType": "uint64",
              "name": "duration",
              "type": "uint64"
            },
            {
              "internalType": "uint64",
              "name": "endTime",
              "type": "uint64"
            }
          ],
          "internalType": "struct IBattle.BattleTimeInfo",
          "name": "battleTimeInfo",
          "type": "tuple"
        }
      ],
      "stateMutability": "view",
      "type": "function"
    }
  ],
  "bytecode": "0x6080604052348015600f57600080fd5b50610d3d8061001f6000396000f3fe608060405234801561001057600080fd5b50600436106100365760003560e01c8063204c93c01461003b578063737add4a14610085575b600080fd5b61004e610049366004610abe565b6100a5565b6040805182516001600160401b03908116825260208085015182169083015292820151909216908201526060015b60405180910390f35b610098610093366004610abe565b610153565b60405161007c9190610b1e565b604080516060810182526000808252602082018190529181019190915260008290506000806000836001600160a01b031663383f9ac36040518163ffffffff1660e01b8152600401606060405180830381865afa15801561010a573d6000803e3d6000fd5b505050506040513d601f19601f8201168201806040525081019061012e9190610c47565b6001600160401b03928316885290821660208801521660408601525092949350505050565b60408051610140810182526000808252602080830182905282840182905260608084018390526080840183905260a0840183905260c0840181905260e084018190526101008401819052610120840152835163185b3dd560e11b81529351929385936001600160a01b038516926330b67baa92600480820193918290030181865afa1580156101e6573d6000803e3d6000fd5b505050506040513d601f19601f8201168201806040525081019061020a9190610c8a565b90506000846001600160a01b031663143e55e06040518163ffffffff1660e01b8152600401602060405180830381865afa15801561024c573d6000803e3d6000fd5b505050506040513d601f19601f820116820180604052508101906102709190610c8a565b9050600061027c61078d565b9050600081516001600160401b0381111561029957610299610ca7565b6040519080825280602002602001820160405280156102c2578160200160208202803683370190505b509050600082516001600160401b038111156102e0576102e0610ca7565b604051908082528060200260200182016040528015610309578160200160208202803683370190505b509050600083516001600160401b0381111561032757610327610ca7565b604051908082528060200260200182016040528015610350578160200160208202803683370190505b509050600084516001600160401b0381111561036e5761036e610ca7565b604051908082528060200260200182016040528015610397578160200160208202803683370190505b50905060005b85518110156106055760008682815181106103ba576103ba610cbd565b6020908102919091010151604051633856937960e01b815260016004820152602481018290529091506001600160a01b038b1690633856937990604401602060405180830381865afa158015610414573d6000803e3d6000fd5b505050506040513d601f19601f820116820180604052508101906104389190610cd3565b84838151811061044a5761044a610cbd565b6020908102919091010152604051633856937960e01b815260026004820152602481018290526001600160a01b038b1690633856937990604401602060405180830381865afa1580156104a1573d6000803e3d6000fd5b505050506040513d601f19601f820116820180604052508101906104c59190610cd3565b8383815181106104d7576104d7610cbd565b60209081029190910101526040516346e4152560e11b815260016004820152602481018290526001600160a01b038b1690638dc82a4a90604401602060405180830381865afa15801561052e573d6000803e3d6000fd5b505050506040513d601f19601f820116820180604052508101906105529190610cd3565b86838151811061056457610564610cbd565b60209081029190910101526040516346e4152560e11b815260026004820152602481018290526001600160a01b038b1690638dc82a4a90604401602060405180830381865afa1580156105bb573d6000803e3d6000fd5b505050506040513d601f19601f820116820180604052508101906105df9190610cd3565b8583815181106105f1576105f1610cbd565b60209081029190910101525060010161039d565b5060006106118b6100a5565b905060008b6001600160a01b03166309218e916040518163ffffffff1660e01b8152600401602060405180830381865afa158015610653573d6000803e3d6000fd5b505050506040513d601f19601f820116820180604052508101906106779190610cec565b90506040518061014001604052808d6001600160a01b0316815260200183600001516001600160401b0316815260200183602001516001600160401b0316815260200183604001516001600160401b03168152602001896001600160a01b031663c4c31e85846040518263ffffffff1660e01b815260040161070891906001600160401b0391909116815260200190565b602060405180830381865afa158015610725573d6000803e3d6000fd5b505050506040513d601f19601f820116820180604052508101906107499190610c8a565b6001600160a01b03168152602001826001600160401b03168152602001878152602001868152602001858152602001848152509a5050505050505050505050919050565b60606000610799610838565b9050600081516001600160401b038111156107b6576107b6610ca7565b6040519080825280602002602001820160405280156107df578160200160208202803683370190505b50905060005b81518110156108315782818151811061080057610800610cbd565b60200260200101516040015182828151811061081e5761081e610cbd565b60209081029190910101526001016107e5565b5092915050565b6040805160038082526080820190925260609160009190816020015b604080516060808201835280825260208201526000918101919091528152602001906001900390816108545750506040805160a0810182526011606082019081527026b4ba343930b2bab6902bb0b93934b7b960791b6080830152815281518083018352600881526736aba0a92924a7a960c11b602080830191909152808301919091528251808401845260078152662ba0a92924a7a960c91b9101527f69c5317e5ce44f1a1fb56c6a5eff904214e6353da6310ab0a6b511eef9a7c39191810191909152815191925090829060009061093057610930610cbd565b6020908102919091018101919091526040805160a0810182526010606082019081526f26b4ba343930b2bab69020b931b432b960811b6080830152815281518083018352600781526636a0a921a422a960c91b818501528184015281518083018352600681526520a921a422a960d11b9301929092527f42de5fbfc07577d3e9942df95dd4e61cabcab8907d5d333240140b2999379e40908201528151829060019081106109e0576109e0610cbd565b6020908102919091018101919091526040805160a0810182526012606082019081527126b4ba343930b2bab6902437b939b2b6b0b760711b6080830152815281518083018352600981526836a427a929a2a6a0a760b91b81850152818401528151808301835260088152672427a929a2a6a0a760c11b9301929092527f89d5ee6f4fcb32fb3c151bc25e6bc320fec82ba89cb3b29d1969d907e0e6793990820152815182906002908110610a9657610a96610cbd565b6020908102919091010152919050565b6001600160a01b0381168114610abb57600080fd5b50565b600060208284031215610ad057600080fd5b8135610adb81610aa6565b9392505050565b600081518084526020840193506020830160005b82811015610b14578151865260209586019590910190600101610af6565b5093949350505050565b60208152610b386020820183516001600160a01b03169052565b60006020830151610b5460408401826001600160401b03169052565b5060408301516001600160401b03811660608401525060608301516001600160401b03811660808401525060808301516001600160a01b03811660a08401525060a08301516001600160401b03811660c08401525060c083015161014060e0840152610bc4610160840182610ae2565b905060e0840151601f1984830301610100850152610be28282610ae2565b915050610100840151601f1984830301610120850152610c028282610ae2565b915050610120840151601f1984830301610140850152610c228282610ae2565b95945050505050565b80516001600160401b0381168114610c4257600080fd5b919050565b600080600060608486031215610c5c57600080fd5b610c6584610c2b565b9250610c7360208501610c2b565b9150610c8160408501610c2b565b90509250925092565b600060208284031215610c9c57600080fd5b8151610adb81610aa6565b634e487b7160e01b600052604160045260246000fd5b634e487b7160e01b600052603260045260246000fd5b600060208284031215610ce557600080fd5b5051919050565b600060208284031215610cfe57600080fd5b610adb82610c2b56fea26469706673582212205e773151a313f72bb92a1cb9c726b7067d1ca341d729c8bb5da660c51561892a64736f6c634300081a0033",
  "linkReferences": {},
  "deployedLinkReferences": {}
}