{
  "_format": "hh-sol-artifact-1",
  "contractName": "Fort",
  "sourceName": "contracts/core/assets/building/impl/Fort.sol",
  "abi": [
    {
      "inputs": [],
      "name": "BuildingCannotBeActivatedMoreThanOnce",
      "type": "error"
    },
    {
      "inputs": [],
      "name": "BuildingCannotBeUpgradedWhileItsNotActivated",
      "type": "error"
    },
    {
      "inputs": [],
      "name": "BuildingCannotBeUpgradedWhileUpgradeIsOnCooldown",
      "type": "error"
    },
    {
      "inputs": [],
      "name": "BuildingCannotGiveWorkersBeforeActivationCooldownFinished",
      "type": "error"
    },
    {
      "inputs": [],
      "name": "BuildingCannotGiveWorkersMoreThanOnce",
      "type": "error"
    },
    {
      "inputs": [],
      "name": "Disabled",
      "type": "error"
    },
    {
      "inputs": [],
      "name": "DistributionResetNotAllowedWhenTreasuryThresholdNotMet",
      "type": "error"
    },
    {
      "inputs": [],
      "name": "OnlyActiveGame",
      "type": "error"
    },
    {
      "inputs": [],
      "name": "OnlyDistributions",
      "type": "error"
    },
    {
      "inputs": [],
      "name": "OnlyMightyCreator",
      "type": "error"
    },
    {
      "inputs": [],
      "name": "OnlyRulerOrWorldAssetFromSameEra",
      "type": "error"
    },
    {
      "inputs": [],
      "name": "OnlySettlementOwner",
      "type": "error"
    },
    {
      "inputs": [],
      "name": "OnlyWorldAssetFromSameEra",
      "type": "error"
    },
    {
      "inputs": [],
      "name": "UnknownInputParameter",
      "type": "error"
    },
    {
      "anonymous": false,
      "inputs": [
        {
          "indexed": false,
          "internalType": "uint256",
          "name": "newAdditionalWorkersCapacityMultiplier",
          "type": "uint256"
        }
      ],
      "name": "AdvancedProductionAdditionalWorkersCapacityMultiplierUpdated",
      "type": "event"
    },
    {
      "anonymous": false,
      "inputs": [
        {
          "indexed": false,
          "internalType": "uint256",
          "name": "newAdvancedProductionLevel",
          "type": "uint256"
        },
        {
          "indexed": false,
          "internalType": "uint256",
          "name": "newAdvancedProductionCoefficient",
          "type": "uint256"
        }
      ],
      "name": "AdvancedProductionUpgraded",
      "type": "event"
    },
    {
      "anonymous": false,
      "inputs": [
        {
          "indexed": false,
          "internalType": "uint256",
          "name": "newBasicProductionLevel",
          "type": "uint256"
        },
        {
          "indexed": false,
          "internalType": "uint256",
          "name": "newBasicProductionCoefficient",
          "type": "uint256"
        }
      ],
      "name": "BasicProductionUpgraded",
      "type": "event"
    },
    {
      "anonymous": false,
      "inputs": [
        {
          "indexed": false,
          "internalType": "bytes32",
          "name": "resourceTypeId",
          "type": "bytes32"
        },
        {
          "indexed": false,
          "internalType": "address",
          "name": "holder",
          "type": "address"
        },
        {
          "indexed": false,
          "internalType": "uint256",
          "name": "amount",
          "type": "uint256"
        }
      ],
      "name": "DistributedToShareHolder",
      "type": "event"
    },
    {
      "anonymous": false,
      "inputs": [
        {
          "indexed": false,
          "internalType": "uint256",
          "name": "newDistributionId",
          "type": "uint256"
        }
      ],
      "name": "DistributionCreated",
      "type": "event"
    },
    {
      "anonymous": false,
      "inputs": [
        {
          "indexed": false,
          "internalType": "uint256",
          "name": "newHealth",
          "type": "uint256"
        }
      ],
      "name": "HealthUpdated",
      "type": "event"
    },
    {
      "anonymous": false,
      "inputs": [
        {
          "indexed": false,
          "internalType": "uint8",
          "name": "version",
          "type": "uint8"
        }
      ],
      "name": "Initialized",
      "type": "event"
    },
    {
      "anonymous": false,
      "inputs": [
        {
          "indexed": false,
          "internalType": "address",
          "name": "distributionNftHolder",
          "type": "address"
        },
        {
          "indexed": false,
          "internalType": "uint256",
          "name": "newDebt",
          "type": "uint256"
        }
      ],
      "name": "ProducedResourceDebtUpdated",
      "type": "event"
    },
    {
      "anonymous": false,
      "inputs": [
        {
          "indexed": false,
          "internalType": "uint256",
          "name": "lastUpdateStateTime",
          "type": "uint256"
        },
        {
          "indexed": false,
          "internalType": "uint256",
          "name": "lastUpdateStateRegionTime",
          "type": "uint256"
        },
        {
          "indexed": false,
          "internalType": "uint256",
          "name": "readyToBeDistributed",
          "type": "uint256"
        },
        {
          "indexed": false,
          "internalType": "uint256",
          "name": "totalDebt",
          "type": "uint256"
        }
      ],
      "name": "ProductionInfoUpdated",
      "type": "event"
    },
    {
      "anonymous": false,
      "inputs": [],
      "name": "WorkersClaimed",
      "type": "event"
    },
    {
      "inputs": [
        {
          "internalType": "address",
          "name": "resourcesOwner",
          "type": "address"
        }
      ],
      "name": "activateBuilding",
      "outputs": [],
      "stateMutability": "nonpayable",
      "type": "function"
    },
    {
      "inputs": [],
      "name": "advancedProduction",
      "outputs": [
        {
          "internalType": "uint256",
          "name": "level",
          "type": "uint256"
        },
        {
          "internalType": "uint256",
          "name": "coefficient",
          "type": "uint256"
        },
        {
          "internalType": "uint256",
          "name": "additionalWorkersCapacityMultiplier",
          "type": "uint256"
        },
        {
          "internalType": "uint256",
          "name": "toBeProducedTicks",
          "type": "uint256"
        }
      ],
      "stateMutability": "view",
      "type": "function"
    },
    {
      "inputs": [],
      "name": "assetGroupId",
      "outputs": [
        {
          "internalType": "bytes32",
          "name": "",
          "type": "bytes32"
        }
      ],
      "stateMutability": "view",
      "type": "function"
    },
    {
      "inputs": [],
      "name": "assetTypeId",
      "outputs": [
        {
          "internalType": "bytes32",
          "name": "",
          "type": "bytes32"
        }
      ],
      "stateMutability": "view",
      "type": "function"
    },
    {
      "inputs": [],
      "name": "basicProduction",
      "outputs": [
        {
          "internalType": "uint256",
          "name": "level",
          "type": "uint256"
        },
        {
          "internalType": "uint256",
          "name": "coefficient",
          "type": "uint256"
        }
      ],
      "stateMutability": "view",
      "type": "function"
    },
    {
      "inputs": [],
      "name": "buildingActivationInfo",
      "outputs": [
        {
          "internalType": "uint64",
          "name": "activationTime",
          "type": "uint64"
        },
        {
          "internalType": "bool",
          "name": "isWorkersClaimed",
          "type": "bool"
        }
      ],
      "stateMutability": "view",
      "type": "function"
    },
    {
      "inputs": [],
      "name": "buildingTypeId",
      "outputs": [
        {
          "internalType": "bytes32",
          "name": "",
          "type": "bytes32"
        }
      ],
      "stateMutability": "view",
      "type": "function"
    },
    {
      "inputs": [
        {
          "internalType": "uint256",
          "name": "burnAmount",
          "type": "uint256"
        }
      ],
      "name": "burnTreasury",
      "outputs": [],
      "stateMutability": "nonpayable",
      "type": "function"
    },
    {
      "inputs": [
        {
          "internalType": "uint256",
          "name": "timestamp",
          "type": "uint256"
        }
      ],
      "name": "calculateDamageDone",
      "outputs": [
        {
          "internalType": "uint256",
          "name": "damage",
          "type": "uint256"
        }
      ],
      "stateMutability": "view",
      "type": "function"
    },
    {
      "inputs": [],
      "name": "claimWorkersForBuildingActivation",
      "outputs": [],
      "stateMutability": "nonpayable",
      "type": "function"
    },
    {
      "inputs": [
        {
          "internalType": "uint256",
          "name": "capacityAmount",
          "type": "uint256"
        }
      ],
      "name": "decreaseAdditionalWorkersCapacityMultiplier",
      "outputs": [],
      "stateMutability": "nonpayable",
      "type": "function"
    },
    {
      "inputs": [],
      "name": "distributeToAllShareholders",
      "outputs": [],
      "stateMutability": "nonpayable",
      "type": "function"
    },
    {
      "inputs": [
        {
          "internalType": "address",
          "name": "holder",
          "type": "address"
        }
      ],
      "name": "distributeToSingleShareholder",
      "outputs": [],
      "stateMutability": "nonpayable",
      "type": "function"
    },
    {
      "inputs": [],
      "name": "distributionId",
      "outputs": [
        {
          "internalType": "uint256",
          "name": "",
          "type": "uint256"
        }
      ],
      "stateMutability": "view",
      "type": "function"
    },
    {
      "inputs": [],
      "name": "era",
      "outputs": [
        {
          "internalType": "contract IEra",
          "name": "",
          "type": "address"
        }
      ],
      "stateMutability": "view",
      "type": "function"
    },
    {
      "inputs": [],
      "name": "eraNumber",
      "outputs": [
        {
          "internalType": "uint256",
          "name": "",
          "type": "uint256"
        }
      ],
      "stateMutability": "view",
      "type": "function"
    },
    {
      "inputs": [],
      "name": "getAdditionalWorkersFromAdditionalWorkersCapacityMultiplier",
      "outputs": [
        {
          "internalType": "uint256",
          "name": "",
          "type": "uint256"
        }
      ],
      "stateMutability": "view",
      "type": "function"
    },
    {
      "inputs": [
        {
          "internalType": "uint256",
          "name": "level",
          "type": "uint256"
        }
      ],
      "name": "getAdvancedUpgradeCooldownDuration",
      "outputs": [
        {
          "internalType": "uint256",
          "name": "",
          "type": "uint256"
        }
      ],
      "stateMutability": "view",
      "type": "function"
    },
    {
      "inputs": [],
      "name": "getAssignedWorkers",
      "outputs": [
        {
          "internalType": "uint256",
          "name": "",
          "type": "uint256"
        }
      ],
      "stateMutability": "view",
      "type": "function"
    },
    {
      "inputs": [],
      "name": "getAvailableForAdvancedProductionWorkersCapacity",
      "outputs": [
        {
          "internalType": "uint256",
          "name": "",
          "type": "uint256"
        }
      ],
      "stateMutability": "view",
      "type": "function"
    },
    {
      "inputs": [
        {
          "internalType": "uint256",
          "name": "level",
          "type": "uint256"
        }
      ],
      "name": "getBasicUpgradeCooldownDuration",
      "outputs": [
        {
          "internalType": "uint256",
          "name": "",
          "type": "uint256"
        }
      ],
      "stateMutability": "view",
      "type": "function"
    },
    {
      "inputs": [
        {
          "internalType": "uint256",
          "name": "level",
          "type": "uint256"
        }
      ],
      "name": "getBuildingCoefficient",
      "outputs": [
        {
          "internalType": "uint256",
          "name": "",
          "type": "uint256"
        }
      ],
      "stateMutability": "pure",
      "type": "function"
    },
    {
      "inputs": [],
      "name": "getBuildingLevel",
      "outputs": [
        {
          "internalType": "uint256",
          "name": "",
          "type": "uint256"
        }
      ],
      "stateMutability": "view",
      "type": "function"
    },
    {
      "inputs": [],
      "name": "getConfig",
      "outputs": [
        {
          "components": [
            {
              "internalType": "bytes32",
              "name": "resourceTypeId",
              "type": "bytes32"
            },
            {
              "internalType": "uint256",
              "name": "amountPerTick",
              "type": "uint256"
            },
            {
              "internalType": "bool",
              "name": "isProducing",
              "type": "bool"
            }
          ],
          "internalType": "struct IBuilding.ProductionConfigItem[]",
          "name": "",
          "type": "tuple[]"
        }
      ],
      "stateMutability": "pure",
      "type": "function"
    },
    {
      "inputs": [
        {
          "internalType": "uint256",
          "name": "level",
          "type": "uint256"
        }
      ],
      "name": "getMaxHealthOnLevel",
      "outputs": [
        {
          "internalType": "uint256",
          "name": "",
          "type": "uint256"
        }
      ],
      "stateMutability": "view",
      "type": "function"
    },
    {
      "inputs": [
        {
          "internalType": "uint256",
          "name": "level",
          "type": "uint256"
        }
      ],
      "name": "getMaxTreasuryByLevel",
      "outputs": [
        {
          "internalType": "uint256",
          "name": "",
          "type": "uint256"
        }
      ],
      "stateMutability": "view",
      "type": "function"
    },
    {
      "inputs": [],
      "name": "getProducingResourceTypeId",
      "outputs": [
        {
          "internalType": "bytes32",
          "name": "",
          "type": "bytes32"
        }
      ],
      "stateMutability": "view",
      "type": "function"
    },
    {
      "inputs": [
        {
          "internalType": "uint256",
          "name": "timestamp",
          "type": "uint256"
        }
      ],
      "name": "getProductionResult",
      "outputs": [
        {
          "components": [
            {
              "internalType": "bytes32",
              "name": "resourceTypeId",
              "type": "bytes32"
            },
            {
              "internalType": "uint256",
              "name": "balanceDelta",
              "type": "uint256"
            },
            {
              "internalType": "bool",
              "name": "isProduced",
              "type": "bool"
            }
          ],
          "internalType": "struct IBuilding.ProductionResultItem[]",
          "name": "",
          "type": "tuple[]"
        }
      ],
      "stateMutability": "view",
      "type": "function"
    },
    {
      "inputs": [
        {
          "internalType": "bytes32",
          "name": "resourceTypeId",
          "type": "bytes32"
        },
        {
          "internalType": "uint256",
          "name": "timestamp",
          "type": "uint256"
        }
      ],
      "name": "getResourcesAmount",
      "outputs": [
        {
          "internalType": "uint256",
          "name": "",
          "type": "uint256"
        }
      ],
      "stateMutability": "view",
      "type": "function"
    },
    {
      "inputs": [
        {
          "internalType": "uint256",
          "name": "timestamp",
          "type": "uint256"
        }
      ],
      "name": "getTreasuryAmount",
      "outputs": [
        {
          "internalType": "uint256",
          "name": "",
          "type": "uint256"
        }
      ],
      "stateMutability": "view",
      "type": "function"
    },
    {
      "inputs": [
        {
          "internalType": "uint256",
          "name": "level",
          "type": "uint256"
        }
      ],
      "name": "getUpgradePrice",
      "outputs": [
        {
          "internalType": "uint256",
          "name": "",
          "type": "uint256"
        }
      ],
      "stateMutability": "view",
      "type": "function"
    },
    {
      "inputs": [],
      "name": "getWorkersCapacity",
      "outputs": [
        {
          "internalType": "uint256",
          "name": "",
          "type": "uint256"
        }
      ],
      "stateMutability": "view",
      "type": "function"
    },
    {
      "inputs": [],
      "name": "givenProsperityAmount",
      "outputs": [
        {
          "internalType": "uint256",
          "name": "",
          "type": "uint256"
        }
      ],
      "stateMutability": "view",
      "type": "function"
    },
    {
      "inputs": [],
      "name": "handleProductionResourcesChanged",
      "outputs": [],
      "stateMutability": "nonpayable",
      "type": "function"
    },
    {
      "inputs": [],
      "name": "health",
      "outputs": [
        {
          "internalType": "uint256",
          "name": "",
          "type": "uint256"
        }
      ],
      "stateMutability": "view",
      "type": "function"
    },
    {
      "inputs": [
        {
          "internalType": "uint256",
          "name": "capacityAmount",
          "type": "uint256"
        }
      ],
      "name": "increaseAdditionalWorkersCapacityMultiplier",
      "outputs": [],
      "stateMutability": "nonpayable",
      "type": "function"
    },
    {
      "inputs": [
        {
          "internalType": "bytes",
          "name": "initParams",
          "type": "bytes"
        }
      ],
      "name": "init",
      "outputs": [],
      "stateMutability": "nonpayable",
      "type": "function"
    },
    {
      "inputs": [
        {
          "internalType": "bytes32",
          "name": "resourceTypeId",
          "type": "bytes32"
        }
      ],
      "name": "isResourceAcceptable",
      "outputs": [
        {
          "internalType": "bool",
          "name": "",
          "type": "bool"
        }
      ],
      "stateMutability": "view",
      "type": "function"
    },
    {
      "inputs": [
        {
          "internalType": "address",
          "name": "operator",
          "type": "address"
        },
        {
          "internalType": "address",
          "name": "from",
          "type": "address"
        },
        {
          "internalType": "uint256[]",
          "name": "ids",
          "type": "uint256[]"
        },
        {
          "internalType": "uint256[]",
          "name": "values",
          "type": "uint256[]"
        },
        {
          "internalType": "bytes",
          "name": "data",
          "type": "bytes"
        }
      ],
      "name": "onERC1155BatchReceived",
      "outputs": [
        {
          "internalType": "bytes4",
          "name": "",
          "type": "bytes4"
        }
      ],
      "stateMutability": "nonpayable",
      "type": "function"
    },
    {
      "inputs": [
        {
          "internalType": "address",
          "name": "operator",
          "type": "address"
        },
        {
          "internalType": "address",
          "name": "from",
          "type": "address"
        },
        {
          "internalType": "uint256",
          "name": "id",
          "type": "uint256"
        },
        {
          "internalType": "uint256",
          "name": "value",
          "type": "uint256"
        },
        {
          "internalType": "bytes",
          "name": "data",
          "type": "bytes"
        }
      ],
      "name": "onERC1155Received",
      "outputs": [
        {
          "internalType": "bytes4",
          "name": "",
          "type": "bytes4"
        }
      ],
      "stateMutability": "nonpayable",
      "type": "function"
    },
    {
      "inputs": [
        {
          "internalType": "address",
          "name": "",
          "type": "address"
        }
      ],
      "name": "producedResourceDebt",
      "outputs": [
        {
          "internalType": "uint256",
          "name": "",
          "type": "uint256"
        }
      ],
      "stateMutability": "view",
      "type": "function"
    },
    {
      "inputs": [],
      "name": "productionInfo",
      "outputs": [
        {
          "internalType": "uint256",
          "name": "lastUpdateStateTime",
          "type": "uint256"
        },
        {
          "internalType": "uint256",
          "name": "lastUpdateStateRegionTime",
          "type": "uint256"
        },
        {
          "internalType": "uint256",
          "name": "readyToBeDistributed",
          "type": "uint256"
        },
        {
          "internalType": "uint256",
          "name": "totalDebt",
          "type": "uint256"
        }
      ],
      "stateMutability": "view",
      "type": "function"
    },
    {
      "inputs": [],
      "name": "registry",
      "outputs": [
        {
          "internalType": "contract IRegistry",
          "name": "",
          "type": "address"
        }
      ],
      "stateMutability": "view",
      "type": "function"
    },
    {
      "inputs": [],
      "name": "relatedSettlement",
      "outputs": [
        {
          "internalType": "contract ISettlement",
          "name": "",
          "type": "address"
        }
      ],
      "stateMutability": "view",
      "type": "function"
    },
    {
      "inputs": [],
      "name": "resetDistribution",
      "outputs": [],
      "stateMutability": "nonpayable",
      "type": "function"
    },
    {
      "inputs": [
        {
          "internalType": "address",
          "name": "stealerSettlementAddress",
          "type": "address"
        },
        {
          "internalType": "uint256",
          "name": "amount",
          "type": "uint256"
        }
      ],
      "name": "stealTreasury",
      "outputs": [
        {
          "internalType": "uint256",
          "name": "",
          "type": "uint256"
        },
        {
          "internalType": "uint256",
          "name": "",
          "type": "uint256"
        }
      ],
      "stateMutability": "nonpayable",
      "type": "function"
    },
    {
      "inputs": [
        {
          "internalType": "bytes4",
          "name": "interfaceId",
          "type": "bytes4"
        }
      ],
      "name": "supportsInterface",
      "outputs": [
        {
          "internalType": "bool",
          "name": "",
          "type": "bool"
        }
      ],
      "stateMutability": "view",
      "type": "function"
    },
    {
      "inputs": [
        {
          "internalType": "address",
          "name": "from",
          "type": "address"
        },
        {
          "internalType": "address",
          "name": "to",
          "type": "address"
        },
        {
          "internalType": "uint256",
          "name": "amount",
          "type": "uint256"
        }
      ],
      "name": "updateDebtsAccordingToNewDistributionsAmounts",
      "outputs": [],
      "stateMutability": "nonpayable",
      "type": "function"
    },
    {
      "inputs": [],
      "name": "updateState",
      "outputs": [],
      "stateMutability": "nonpayable",
      "type": "function"
    },
    {
      "inputs": [
        {
          "internalType": "address",
          "name": "resourcesOwner",
          "type": "address"
        }
      ],
      "name": "upgradeAdvancedProduction",
      "outputs": [],
      "stateMutability": "nonpayable",
      "type": "function"
    },
    {
      "inputs": [
        {
          "internalType": "address",
          "name": "resourcesOwner",
          "type": "address"
        }
      ],
      "name": "upgradeBasicProduction",
      "outputs": [],
      "stateMutability": "nonpayable",
      "type": "function"
    },
    {
      "inputs": [],
      "name": "upgradeCooldownEndTime",
      "outputs": [
        {
          "internalType": "uint256",
          "name": "",
          "type": "uint256"
        }
      ],
      "stateMutability": "view",
      "type": "function"
    },
    {
      "inputs": [],
      "name": "world",
      "outputs": [
        {
          "internalType": "contract IWorld",
          "name": "",
          "type": "address"
        }
      ],
      "stateMutability": "view",
      "type": "function"
    },
    {
      "inputs": [],
      "name": "worldAssetFactory",
      "outputs": [
        {
          "internalType": "contract IWorldAssetFactory",
          "name": "",
          "type": "address"
        }
      ],
      "stateMutability": "view",
      "type": "function"
    }
  ],
  "bytecode": "0x6080604052348015600f57600080fd5b50614df48061001f6000396000f3fe608060405234801561001057600080fd5b50600436106102e15760003560e01c80638a6bbad311610188578063c9c0df61116100e4578063e8d4d46d11610092578063e8d4d46d14610648578063e91bde761461065b578063eb3585341461041a578063ece56a1a1461066e578063f23a6e6114610676578063f2477b5b14610689578063ffaf29a01461069157600080fd5b8063c9c0df6114610600578063d26aaf9314610609578063d2bc7d8514610412578063d39ce1fc14610611578063e05ab49814610624578063e145c3ad1461062d578063e2ac48c71461063557600080fd5b8063ad36624411610141578063ad36624414610549578063ae6fd51d14610551578063b78d138414610564578063bc197c8114610577578063c3f909d4146105b2578063c45f1000146105c7578063c724a016146105e057600080fd5b80638a6bbad3146104dc5780638ae52a38146104f25780638bb9b6f2146104fa5780638beab87e1461050d578063900918721461052d57806391ab778d1461054057600080fd5b80633c084b8b116102425780637633a22c116101f05780637633a22c1461048d5780637abdf949146104965780637b103999146104a95780637b7a2bfc146104b15780637d884c74146104c457806384ba89e3146104cc5780638545bc58146104d457600080fd5b80633c084b8b1461041a57806343e77f461461042e578063486a42d5146104415780634ddf47d41461044a578063589ae4001461045d5780635ed697b71461041a57806365e6f4ce1461048557600080fd5b8063152d94831161029f578063152d948314610389578063198c8bda1461039e5780631d8557d7146103dc5780631e9738d1146103e45780631fb91f39146103f757806330b67baa1461040a57806330cfda181461041257600080fd5b8062d4fbf8146102e657806301ffc9a71461030c57806304b10ac81461032f5780630b4e99c314610336578063143e55e01461033e57806314dff0e814610353575b600080fd5b6102f96102f436600461465b565b61069f565b6040519081526020015b60405180910390f35b61031f61031a366004614674565b6106bf565b6040519015158152602001610303565b60006102f9565b6102f96106f4565b610346610731565b604051610303919061469e565b6004546005546006546007546103699392919084565b604080519485526020850193909352918301526060820152608001610303565b61039c6103973660046146c7565b6107b5565b005b6010546103bd906001600160401b03811690600160401b900460ff1682565b604080516001600160401b039093168352901515602083015201610303565b61039c610911565b6102f96103f2366004614708565b610d34565b61039c61040536600461472a565b61103b565b6103466114d8565b61039c6114e2565b6102f961042836600461465b565b50600090565b61039c61043c36600461465b565b6114fb565b6102f960095481565b61039c61045836600461478d565b61155c565b61047061046b366004614825565b611700565b60408051928352602083019190915201610303565b61039c611acb565b6102f960115481565b6102f96104a436600461465b565b611e9a565b610346611f77565b61039c6104bf36600461472a565b611fbe565b6102f96122cf565b6102f961230c565b6102f9612349565b600a54600b54600c54600d546103699392919084565b6102f961235b565b6102f961050836600461465b565b612432565b61052061051b36600461465b565b61245b565b6040516103039190614851565b61031f61053b36600461465b565b6127cd565b6102f960085481565b6102f9612826565b61039c61055f36600461465b565b612840565b61039c61057236600461465b565b6129b9565b61059961058536600461493a565b63bc197c8160e01b98975050505050505050565b6040516001600160e01b03199091168152602001610303565b6105ba612a8f565b6040516103039190614a02565b600054610346906201000090046001600160a01b031681565b6102f96105ee36600461472a565b600f6020526000908152604090205481565b6102f9600e5481565b6102f9612c76565b61039c61061f36600461472a565b6114e2565b6102f960015481565b61039c612c92565b6102f961064336600461465b565b612c9f565b61039c61065636600461472a565b612dbd565b6102f961066936600461465b565b61324c565b6103466132c7565b610599610684366004614a5b565b61330e565b6102f9613321565b600254600354610470919082565b600060016106af83615460614aec565b6106b99190614b19565b92915050565b60006001600160e01b03198216630271189760e51b14806106b957506301ffc9a760e01b6001600160e01b03198316146106b9565b604080516020808252818301909252600091309183918291906020820181803683370190505090506020607a60208301853c602001519392505050565b600061073b6114d8565b6001600160a01b031663720a70bd6107516122cf565b6040518263ffffffff1660e01b815260040161076f91815260200190565b602060405180830381865afa15801561078c573d6000803e3d6000fd5b505050506040513d601f19601f820116820180604052508101906107b09190614b2d565b905090565b6107bd61337a565b60006107c76114d8565b6001600160a01b031663e4e940f06040518163ffffffff1660e01b8152600401602060405180830381865afa158015610804573d6000803e3d6000fd5b505050506040513d601f19601f820116820180604052508101906108289190614b2d565b6001600160a01b03166302705c2e6040518163ffffffff1660e01b8152600401602060405180830381865afa158015610865573d6000803e3d6000fd5b505050506040513d601f19601f820116820180604052508101906108899190614b4a565b600c54610897908490614aec565b6108a19190614b19565b9050806000036108b15750505050565b6001600160a01b0384166000908152600f60205260409020546108e09085906108db908490614b63565b61340d565b6001600160a01b0383166000908152600f602052604090205461090a9084906108db908490614b76565b505b505050565b600060029054906101000a90046001600160a01b03166001600160a01b031663e6c15c996040518163ffffffff1660e01b8152600401602060405180830381865afa158015610964573d6000803e3d6000fd5b505050506040513d601f19601f820116820180604052508101906109889190614b2d565b6001600160a01b0316631d8557d76040518163ffffffff1660e01b8152600401600060405180830381600087803b1580156109c257600080fd5b505af11580156109d6573d6000803e3d6000fd5b5050505060006109e461345a565b905080600a60000154036109f55750565b6000610a008261245b565b9050610a10826000806000613562565b6000610a1a610731565b905060005b825181101561090a57828181518110610a3a57610a3a614b89565b60200260200101516020015160000315610d2c576040805180820190915260068152650908a8298a8960d31b60209091015282517f88ad4e672f8c8ca6cce86b10b118764bf098c06bb02cd6691dfb6641799afaa090849083908110610aa257610aa2614b89565b60200260200101516000015103610c23576000838281518110610ac757610ac7614b89565b60200260200101516020015190506000848381518110610ae957610ae9614b89565b6020026020010151604001519050600060115490508115610b1e57610b16610b118483614b76565b6135c4565b505050610d2c565b828110610b3257610b16610b118483614b63565b610b3c60006135c4565b600060029054906101000a90046001600160a01b03166001600160a01b0316632de7e9b06040518163ffffffff1660e01b8152600401602060405180830381865afa158015610b8f573d6000803e3d6000fd5b505050506040513d601f19601f82011682018060405250810190610bb39190614b2d565b6001600160a01b031663f09dbd5b610bcb8386614b63565b6040518263ffffffff1660e01b8152600401610be991815260200190565b600060405180830381600087803b158015610c0357600080fd5b505af1158015610c17573d6000803e3d6000fd5b50505050505050610d2c565b816001600160a01b031663912929df848381518110610c4457610c44614b89565b6020026020010151600001516040518263ffffffff1660e01b8152600401610c6e91815260200190565b602060405180830381865afa158015610c8b573d6000803e3d6000fd5b505050506040513d601f19601f82011682018060405250810190610caf9190614b2d565b6001600160a01b03166342966c68848381518110610ccf57610ccf614b89565b6020026020010151602001516040518263ffffffff1660e01b8152600401610cf991815260200190565b600060405180830381600087803b158015610d1357600080fd5b505af1158015610d27573d6000803e3d6000fd5b505050505b600101610a1f565b600080610d408361245b565b90506000610d4c610731565b90506000805b835181101561102e5786848281518110610d6e57610d6e614b89565b6020026020010151600001510361102657838181518110610d9157610d91614b89565b60200260200101516040015115610f18576000610daf610428612349565b905080600003610dc7576000955050505050506106b9565b6000670de0b6b3a764000080878581518110610de557610de5614b89565b602002602001015160200151610dfb9190614aec565b610e059190614b19565b60405163912929df60e01b8152600481018690529091506000906001600160a01b0387169063912929df90602401602060405180830381865afa158015610e50573d6000803e3d6000fd5b505050506040513d601f19601f82011682018060405250810190610e749190614b2d565b6001600160a01b031663eae33602306040518263ffffffff1660e01b8152600401610e9f919061469e565b602060405180830381865afa158015610ebc573d6000803e3d6000fd5b505050506040513d601f19601f82011682018060405250810190610ee09190614b4a565b9050828110610ef75796506106b995505050505050565b610f0a610f048284614b76565b8461361f565b9750505050505050506106b9565b838181518110610f2a57610f2a614b89565b602002602001015160200151836001600160a01b031663912929df896040518263ffffffff1660e01b8152600401610f6491815260200190565b602060405180830381865afa158015610f81573d6000803e3d6000fd5b505050506040513d601f19601f82011682018060405250810190610fa59190614b2d565b6001600160a01b031663eae33602306040518263ffffffff1660e01b8152600401610fd0919061469e565b602060405180830381865afa158015610fed573d6000803e3d6000fd5b505050506040513d601f19601f820116820180604052508101906110119190614b4a565b61101b9190614b63565b9450505050506106b9565b600101610d52565b5060009695505050505050565b611043613637565b61104b613766565b611053610911565b6010546001600160401b031660000361107f576040516364b9b9a760e11b815260040160405180910390fd5b6008544210156110a25760405163aa4aed7160e01b815260040160405180910390fd5b60006110ac612349565b905060006110b982611e9a565b60408051808201909152600481526315d3d3d160e21b60209091015290507f5f3d3bfd5b61198148275c178146c21eec5c5ab7e81758f3c651754ae3f1ed426001600160a01b0384166111e05761110e610731565b6001600160a01b031663912929df826040518263ffffffff1660e01b815260040161113b91815260200190565b602060405180830381865afa158015611158573d6000803e3d6000fd5b505050506040513d601f19601f8201168201806040525081019061117c9190614b2d565b6001600160a01b03166379cc679033846040518363ffffffff1660e01b81526004016111a9929190614b9f565b600060405180830381600087803b1580156111c357600080fd5b505af11580156111d7573d6000803e3d6000fd5b50505050611326565b60006111ea610731565b6001600160a01b031663912929df836040518263ffffffff1660e01b815260040161121791815260200190565b602060405180830381865afa158015611234573d6000803e3d6000fd5b505050506040513d601f19601f820116820180604052508101906112589190614b2d565b60405163dd8aaa4f60e01b81526001600160a01b038781166004830152336024830152604482018690529192509082169063dd8aaa4f90606401600060405180830381600087803b1580156112ac57600080fd5b505af11580156112c0573d6000803e3d6000fd5b505060405163079cc67960e41b81526001600160a01b03841692506379cc679091506112f29088908790600401614b9f565b600060405180830381600087803b15801561130c57600080fd5b505af1158015611320573d6000803e3d6000fd5b50505050505b600060029054906101000a90046001600160a01b03166001600160a01b031663e6c15c996040518163ffffffff1660e01b8152600401602060405180830381865afa158015611379573d6000803e3d6000fd5b505050506040513d601f19601f8201168201806040525081019061139d9190614b2d565b6000546001600160a01b0391821691635053c2999162010000900416670de0b6b3a7640000856113cc866138a7565b6113d69190614aec565b6113e09190614b19565b6040518363ffffffff1660e01b81526004016113fd929190614b9f565b600060405180830381600087803b15801561141757600080fd5b505af115801561142b573d6000803e3d6000fd5b505050506114388361069f565b6114429042614b76565b6008556003546000906114548561324c565b611462610669876001614b76565b61146c9190614b63565b6114769190614b76565b60025490915060009061148a906001614b76565b60038390556002819055905060408051828152602081018490527fa933a9f591d9b53ffc6316451d228c163207767426d4097ffa9434c2efa4f6ba91015b60405180910390a1505050505050565b60006107b0613a0a565b604051633ac4266d60e11b815260040160405180910390fd5b611503613a47565b61150b610911565b60065460009061151c908390614b63565b60068190556040518181529091507fa5b080ca657305a05e233a1bdfe1cb5a92588bd94928658051cf6ea8d91ae4b1906020015b60405180910390a15050565b600054610100900460ff161580801561157c5750600054600160ff909116105b806115965750303b158015611596575060005460ff166001145b6115fd5760405162461bcd60e51b815260206004820152602e60248201527f496e697469616c697a61626c653a20636f6e747261637420697320616c72656160448201526d191e481a5b9a5d1a585b1a5e995960921b606482015260840160405180910390fd5b6000805460ff191660011790558015611620576000805461ff0019166101001790555b600080838060200190518101906116379190614bb8565b6000805462010000600160b01b031916620100006001600160a01b03851602178155600182815560028190556003819055600481905560055560108054600160401b426001600160401b03811668ffffffffffffffffff1990931692909217179091559294509092506116ac91908080613562565b5050673782dace9d90000060115580156116fc576000805461ff0019169055604051600181527f7f26b83ff96e1f2b6a682f133852f6798a09c465da95921460cefb384740249890602001611550565b5050565b60008061170b613a47565b611713610911565b600061171d610731565b60405163912929df60e01b8152600060048201526001600160a01b03919091169063912929df90602401602060405180830381865afa158015611764573d6000803e3d6000fd5b505050506040513d601f19601f820116820180604052508101906117889190614b2d565b9050600061180c61179a610428612349565b6040516375719b0160e11b81526001600160a01b0385169063eae33602906117c690309060040161469e565b602060405180830381865afa1580156117e3573d6000803e3d6000fd5b505050506040513d601f19601f820116820180604052508101906118079190614b4a565b61361f565b90508060000361182457600080935093505050611ac4565b61182e818661361f565b600154604051631b973c5760e21b815291965087916000916001600160a01b03841691636e5cf15c916118679160040190815260200190565b602060405180830381865afa158015611884573d6000803e3d6000fd5b505050506040513d601f19601f820116820180604052508101906118a89190614b2d565b9050806001600160a01b0316631d8557d76040518163ffffffff1660e01b8152600401600060405180830381600087803b1580156118e557600080fd5b505af11580156118f9573d6000803e3d6000fd5b505050506000816001600160a01b0316633c084b8b836001600160a01b0316638545bc586040518163ffffffff1660e01b8152600401602060405180830381865afa15801561194c573d6000803e3d6000fd5b505050506040513d601f19601f820116820180604052508101906119709190614b4a565b6040518263ffffffff1660e01b815260040161198e91815260200190565b602060405180830381865afa1580156119ab573d6000803e3d6000fd5b505050506040513d601f19601f820116820180604052508101906119cf9190614b4a565b90506000611a0382876001600160a01b031663eae33602866040518263ffffffff1660e01b81526004016117c6919061469e565b90506000611a118284614b63565b90506000611a1f828c61361f565b90506000611a2d828d614b63565b90508115611aa85760405163a9059cbb60e01b81526001600160a01b038a169063a9059cbb90611a639089908690600401614b9f565b6020604051808303816000875af1158015611a82573d6000803e3d6000fd5b505050506040513d601f19601f82011682018060405250810190611aa69190614be6565b505b8015611ab757611ab7816129b9565b9099509750505050505050505b9250929050565b611ad3610911565b6000611add6114d8565b600c54909150600080611aee610731565b6001600160a01b031663912929df836040518263ffffffff1660e01b8152600401611b1b91815260200190565b602060405180830381865afa158015611b38573d6000803e3d6000fd5b505050506040513d601f19601f82011682018060405250810190611b5c9190614b2d565b90506000846001600160a01b031663e4e940f06040518163ffffffff1660e01b8152600401602060405180830381865afa158015611b9e573d6000803e3d6000fd5b505050506040513d601f19601f82011682018060405250810190611bc29190614b2d565b90506000816001600160a01b03166302705c2e6040518163ffffffff1660e01b8152600401602060405180830381865afa158015611c04573d6000803e3d6000fd5b505050506040513d601f19601f82011682018060405250810190611c289190614b4a565b600e5460405163186974e360e21b815291925086916000916001600160a01b038616916361a5d38c91611c619160040190815260200190565b600060405180830381865afa158015611c7e573d6000803e3d6000fd5b505050506040513d6000823e601f3d908101601f19168201604052611ca69190810190614c08565b905060005b8151811015611e7c576000828281518110611cc857611cc8614b89565b6020908102919091018101516001600160a01b038082166000908152600f909352604080842054600e549151627eeac760e11b8152939550939289928b169162fdd58e91611d1a918891600401614b9f565b602060405180830381865afa158015611d37573d6000803e3d6000fd5b505050506040513d601f19601f82011682018060405250810190611d5b9190614b4a565b611d65908d614aec565b611d6f9190614b19565b90506000828211611d81576000611d8b565b611d8b8383614b63565b90508215611d9e57611d9e84600061340d565b611da88184614b76565b611db29088614b63565b965080600003611dc55750505050611e74565b6040516340c10f1960e01b81526001600160a01b038b16906340c10f1990611df39087908590600401614b9f565b600060405180830381600087803b158015611e0d57600080fd5b505af1158015611e21573d6000803e3d6000fd5b5050604080518e81526001600160a01b03881660208201529081018490527f4e4307e8da7cc13a61821561768c6b298d5d9ee55985f18cb747099e3f9fa8759250606001905060405180910390a1505050505b600101611cab565b50600a54600b54611e909190846000613562565b5050505050505050565b6000806002611ea88461324c565b611eb29190614d9b565b611ebd90600a614aec565b611ecf90670de0b6b3a7640000614aec565b905060006002611ee3610669866001614b76565b611eed9190614d9b565b611ef890600a614aec565b611f0a90670de0b6b3a7640000614aec565b905060006064611f1b84604b614aec565b611f259190614b19565b90506000611f338284614b63565b90506000611f42600683614b19565b9050670de0b6b3a7640000611f58600154613b06565b611f629083614aec565b611f6c9190614b19565b979650505050505050565b6000611f816114d8565b6001600160a01b0316637b1039996040518163ffffffff1660e01b8152600401602060405180830381865afa15801561078c573d6000803e3d6000fd5b611fc6610911565b6000611fd06114d8565b6001600160a01b031663e4e940f06040518163ffffffff1660e01b8152600401602060405180830381865afa15801561200d573d6000803e3d6000fd5b505050506040513d601f19601f820116820180604052508101906120319190614b2d565b600e54604051627eeac760e11b81529192506000916001600160a01b0384169162fdd58e91612064918791600401614b9f565b602060405180830381865afa158015612081573d6000803e3d6000fd5b505050506040513d601f19601f820116820180604052508101906120a59190614b4a565b9050806000036120b457505050565b6001600160a01b038084166000908152600f602090815260408083205481516301382e1760e11b8152915190948716926302705c2e92600480820193918290030181865afa15801561210a573d6000803e3d6000fd5b505050506040513d601f19601f8201168201806040525081019061212e9190614b4a565b600c5461213c908590614aec565b6121469190614b19565b90506000828211612158576000612162565b6121628383614b63565b90508060000361217457505050505050565b612182866108db8386614b76565b600a54600b54600c54600d546121a5939291906121a0908690614b76565b613562565b60006121af610731565b6001600160a01b031663912929df826040518263ffffffff1660e01b81526004016121dc91815260200190565b602060405180830381865afa1580156121f9573d6000803e3d6000fd5b505050506040513d601f19601f8201168201806040525081019061221d9190614b2d565b6001600160a01b03166340c10f1988846040518363ffffffff1660e01b815260040161224a929190614b9f565b600060405180830381600087803b15801561226457600080fd5b505af1158015612278573d6000803e3d6000fd5b5050604080518481526001600160a01b038b1660208201529081018590527f4e4307e8da7cc13a61821561768c6b298d5d9ee55985f18cb747099e3f9fa8759250606001905060405180910390a150505050505050565b604080516020808252818301909252600091309183918291906020820181803683370190505090506020609a60208301853c602001519392505050565b604080516020808252818301909252600091309183918291906020820181803683370190505090506020605a60208301853c602001519392505050565b6004546002546000916107b091614b76565b6000612365610731565b6001600160a01b031663cabb62f06040518163ffffffff1660e01b8152600401602060405180830381865afa1580156123a2573d6000803e3d6000fd5b505050506040513d601f19601f820116820180604052508101906123c69190614b2d565b6001600160a01b03166370a08231306040518263ffffffff1660e01b81526004016123f1919061469e565b602060405180830381865afa15801561240e573d6000803e3d6000fd5b505050506040513d601f19601f820116820180604052508101906107b09190614b4a565b6000600261243f8361324c565b6124499190614d9b565b6106b990673782dace9d900000614aec565b606081600003612469574291505b60006124736114d8565b90506000816001600160a01b0316633c8ca83d6040518163ffffffff1660e01b8152600401602060405180830381865afa1580156124b5573d6000803e3d6000fd5b505050506040513d601f19601f820116820180604052508101906124d99190614b4a565b9050808410156124e7578093505b6000826001600160a01b03166344d9bc5f6040518163ffffffff1660e01b8152600401602060405180830381865afa158015612527573d6000803e3d6000fd5b505050506040513d601f19601f8201168201806040525081019061254b9190614b4a565b905080156125605761255d858261361f565b94505b600061256a612a8f565b9050600081516001600160401b0381111561258757612587614747565b6040519080825280602002602001820160405280156125d257816020015b60408051606081018252600080825260208083018290529282015282526000199092019101816125a55790505b50905060005b825181101561265e5760405180606001604052808483815181106125fe576125fe614b89565b60200260200101516000015181526020016000815260200184838151811061262857612628614b89565b602002602001015160400151151581525082828151811061264b5761264b614b89565b60209081029190910101526001016125d8565b50600a548481101561266d5750835b80881161267f57509695505050505050565b60006126aa89838660028151811061269957612699614b89565b602002602001015160200151613caa565b905060005b84518110156127bf578481815181106126ca576126ca614b89565b602002602001015160400151156127675760208201518251101560008161270157835160208501516126fc9190614b63565b612712565b602084015184516127129190614b63565b90508186848151811061272757612727614b89565b602002602001015160400190151590811515815250508086848151811061275057612750614b89565b6020026020010151602001818152505050506127b7565b816040015185828151811061277e5761277e614b89565b6020026020010151602001516127949190614aec565b8482815181106127a6576127a6614b89565b602002602001015160200181815250505b6001016126af565b509198975050505050505050565b6000806127d8612a8f565b905060005b815181101561281c57838282815181106127f9576127f9614b89565b60200260200101516000015103612814575060019392505050565b6001016127dd565b5060009392505050565b6000612833600154613dc3565b6005546107b09190614aec565b612848613a47565b612850610911565b600654600090612861908390614b76565b60068190556040518181529091507fa5b080ca657305a05e233a1bdfe1cb5a92588bd94928658051cf6ea8d91ae4b19060200160405180910390a160006128a6612c76565b905060006128b261235b565b90508181111561090a5760006128c88383614b63565b90506128d2610731565b6001600160a01b031663cabb62f06040518163ffffffff1660e01b8152600401602060405180830381865afa15801561290f573d6000803e3d6000fd5b505050506040513d601f19601f820116820180604052508101906129339190614b2d565b60005460405163a9059cbb60e01b81526001600160a01b039283169263a9059cbb9261296e9262010000909104909116908590600401614b9f565b6020604051808303816000875af115801561298d573d6000803e3d6000fd5b505050506040513d601f19601f820116820180604052508101906129b19190614be6565b505050505050565b6129c1613a47565b60006129cb610731565b60405163912929df60e01b8152600060048201526001600160a01b03919091169063912929df90602401602060405180830381865afa158015612a12573d6000803e3d6000fd5b505050506040513d601f19601f82011682018060405250810190612a369190614b2d565b604051630852cd8d60e31b8152600481018490529091506001600160a01b038216906342966c6890602401600060405180830381600087803b158015612a7b57600080fd5b505af11580156129b1573d6000803e3d6000fd5b6040805160038082526080820190925260609160009190816020015b6040805160608101825260008082526020808301829052928201528252600019909201910181612aab5750506040805160a0810190915260046060820152631193d3d160e21b60808201527f2f6f5a261d6f4514c3f09a834720fe583c82f2ee4758ce9a45fbd67428e9f93d815290915060208101612b3562015180674563918244f40000614b19565b81526020016000151581525081600081518110612b5457612b54614b89565b6020908102919091018101919091526040805160a08101909152600460608201526315d3d3d160e21b60808201527f5f3d3bfd5b61198148275c178146c21eec5c5ab7e81758f3c651754ae3f1ed428152908101612bbd620151806729a2241af62c0000614b19565b81526020016000151581525081600181518110612bdc57612bdc614b89565b6020908102919091018101919091526040805160a0810190915260066060820152650908a8298a8960d31b60808201527f88ad4e672f8c8ca6cce86b10b118764bf098c06bb02cd6691dfb6641799afaa08152908101612c4762015180670de0b6b3a7640000614b19565b81526020016001151581525081600281518110612c6657612c66614b89565b6020908102919091010152919050565b6000612c80613321565b612c88612826565b6107b09190614b63565b612c9a613f67565b600755565b600080612cab8361245b565b905060008060005b8351811015612d6e576040805180820190915260068152650908a8298a8960d31b60209091015283517f88ad4e672f8c8ca6cce86b10b118764bf098c06bb02cd6691dfb6641799afaa090859083908110612d1057612d10614b89565b60200260200101516000015103612d6657838181518110612d3357612d33614b89565b6020026020010151602001519250838181518110612d5357612d53614b89565b6020026020010151604001519150612d6e565b600101612cb3565b5081600003612d8257506000949350505050565b8015612d9357506000949350505050565b8160115410612da757506000949350505050565b601154612db49083614b63565b95945050505050565b612dc5613637565b612dcd613766565b612dd5610911565b6010546001600160401b0316600003612e01576040516364b9b9a760e11b815260040160405180910390fd5b600854421015612e245760405163aa4aed7160e01b815260040160405180910390fd5b6000612e2e612349565b90506000612e3b82611e9a565b6040805180820190915260038152624f524560e81b60209091015290507f9db51ceeef36d28f4a713ba944bdadb00e988c5676c92710eaf0e194efb4cb556001600160a01b038416612f6157612e8f610731565b6001600160a01b031663912929df826040518263ffffffff1660e01b8152600401612ebc91815260200190565b602060405180830381865afa158015612ed9573d6000803e3d6000fd5b505050506040513d601f19601f82011682018060405250810190612efd9190614b2d565b6001600160a01b03166379cc679033846040518363ffffffff1660e01b8152600401612f2a929190614b9f565b600060405180830381600087803b158015612f4457600080fd5b505af1158015612f58573d6000803e3d6000fd5b505050506130a7565b6000612f6b610731565b6001600160a01b031663912929df836040518263ffffffff1660e01b8152600401612f9891815260200190565b602060405180830381865afa158015612fb5573d6000803e3d6000fd5b505050506040513d601f19601f82011682018060405250810190612fd99190614b2d565b60405163dd8aaa4f60e01b81526001600160a01b038781166004830152336024830152604482018690529192509082169063dd8aaa4f90606401600060405180830381600087803b15801561302d57600080fd5b505af1158015613041573d6000803e3d6000fd5b505060405163079cc67960e41b81526001600160a01b03841692506379cc679091506130739088908790600401614b9f565b600060405180830381600087803b15801561308d57600080fd5b505af11580156130a1573d6000803e3d6000fd5b50505050505b600060029054906101000a90046001600160a01b03166001600160a01b031663e6c15c996040518163ffffffff1660e01b8152600401602060405180830381865afa1580156130fa573d6000803e3d6000fd5b505050506040513d601f19601f8201168201806040525081019061311e9190614b2d565b6000546001600160a01b0391821691635053c2999162010000900416670de0b6b3a76400008561314d866138a7565b6131579190614aec565b6131619190614b19565b6040518363ffffffff1660e01b815260040161317e929190614b9f565b600060405180830381600087803b15801561319857600080fd5b505af11580156131ac573d6000803e3d6000fd5b505050506131b8600090565b6131c29042614b76565b6008556005546000906131d48561324c565b6131e2610669876001614b76565b6131ec9190614b63565b6131f69190614b76565b60045490915060009061320a906001614b76565b60058390556004819055905060408051828152602081018490527fd8f5076bf9515e2fc9ee2b3472c1f34b0474833710bcd006c2b502e6c659c9fd91016114c8565b600060058161325b8285614b19565b905060006132698383614aec565b6132739086614b63565b9050600083600284613286816001614b76565b6132909190614aec565b61329a9190614b19565b6132a49190614aec565b905060006132b3846001614b76565b6132bd9084614aec565b611f6c9083614b76565b60006132d1611f77565b6001600160a01b031663ece56a1a6040518163ffffffff1660e01b8152600401602060405180830381865afa15801561078c573d6000803e3d6000fd5b63f23a6e6160e01b5b9695505050505050565b60008061333b600460020154670de0b6b3a764000061361f565b9050613374670de0b6b3a764000082613352612826565b61335c9190614aec565b6133669190614b19565b670de0b6b3a7640000614108565b91505090565b336133836114d8565b6001600160a01b031663e4e940f06040518163ffffffff1660e01b8152600401602060405180830381865afa1580156133c0573d6000803e3d6000fd5b505050506040513d601f19601f820116820180604052508101906133e49190614b2d565b6001600160a01b03161461340b57604051638f857a2960e01b815260040160405180910390fd5b565b6001600160a01b0382166000908152600f602052604090819020829055517fdcea61563ab9f107db39d481e10a7eda8e255efb99c1bf6c57f2b2e5a8a6f90e906115509084908490614b9f565b6000806134656114d8565b90506000816001600160a01b0316633c8ca83d6040518163ffffffff1660e01b8152600401602060405180830381865afa1580156134a7573d6000803e3d6000fd5b505050506040513d601f19601f820116820180604052508101906134cb9190614b4a565b90506000826001600160a01b03166344d9bc5f6040518163ffffffff1660e01b8152600401602060405180830381865afa15801561350d573d6000803e3d6000fd5b505050506040513d601f19601f820116820180604052508101906135319190614b4a565b9050428281101561353f5750815b8160000361354f57949350505050565b613559818361361f565b94505050505090565b600a849055600b839055600c829055600d8190556040805185815260208101859052908101839052606081018290527f0975f780ca30f886d7a3b13619106b83bfcd25cf1d64d5c2dd20e3546c4badf59060800160405180910390a150505050565b60006135d1610508612349565b905060006135df838361361f565b60118190556040518181529091507f1771dd072a23790eac90e53bda3f1a30fe5da27c57ad44ff1ad001cf795bd0d79060200160405180910390a1505050565b600081831061362e5781613630565b825b9392505050565b60006136416114d8565b90506000816001600160a01b0316633c8ca83d6040518163ffffffff1660e01b8152600401602060405180830381865afa158015613683573d6000803e3d6000fd5b505050506040513d601f19601f820116820180604052508101906136a79190614b4a565b90506000826001600160a01b03166344d9bc5f6040518163ffffffff1660e01b8152600401602060405180830381865afa1580156136e9573d6000803e3d6000fd5b505050506040513d601f19601f8201168201806040525081019061370d9190614b4a565b905081158061371b57508142105b156137395760405163a00eda6960e01b815260040160405180910390fd5b80158015906137485750804210155b1561090c5760405163a00eda6960e01b815260040160405180910390fd5b60006137706114d8565b600054604051631b0b969d60e01b81529192506201000090046001600160a01b031690631b0b969d906137a790339060040161469e565b602060405180830381865afa1580156137c4573d6000803e3d6000fd5b505050506040513d601f19601f820116820180604052508101906137e89190614be6565b1580156137fe5750336001600160a01b03821614155b8015613886575060006001600160a01b03821663ebbe803461381e6122cf565b6040516001600160e01b031960e084901b1681526004810191909152336024820152604401602060405180830381865afa158015613860573d6000803e3d6000fd5b505050506040513d601f19601f820116820180604052508101906138849190614b4a565b145b156138a457604051630d319e2360e41b815260040160405180910390fd5b50565b6040805180820190915260048152631193d3d160e21b60209091015260007fd090a5d9e290baeb3c0f657cb8df01a7c37d0d11b8a73165ba04298bd71606c382016138fb5750670429d069189e0000919050565b60408051808201909152600481526315d3d3d160e21b6020909101527fa0c2c402a49ee67eb7d8a3e87eb93de113a3a54817e8a70c39ae8ab51c0e12be820161394d5750670de0b6b3a7640000919050565b6040805180820190915260038152624f524560e81b6020909101527f624ae31110c92d70b58ec456bb42524ff16773a98936d8ef150f1e6b104b34ab820161399e57506729a2241af62c0000919050565b604080518082019091526005815264125391d3d560da1b6020909101527f0b2c26746c5e8d6f1877c4437947c29fc4d8103cd72878c4c039b7afe27c1a8e82016139f15750678ac7230489e80000919050565b60405163ea3b0abb60e01b815260040160405180910390fd5b604080516014808252818301909252600091309183918291906020820181803683370190505090506014602a60208301853c601401519392505050565b6000613a516114d8565b9050336001600160a01b03821614801590613ae8575060006001600160a01b03821663ebbe8034613a806122cf565b6040516001600160e01b031960e084901b1681526004810191909152336024820152604401602060405180830381865afa158015613ac2573d6000803e3d6000fd5b505050506040513d601f19601f82011682018060405250810190613ae69190614b4a565b145b156138a45760405163422656d160e01b815260040160405180910390fd5b6040805180820190915260048152634641524d60e01b60209091015260007fea182adbe8a99c0376d68ae8663b1e572fb013df4142853d0efacd6d83e4a3f38201613b5a57506706f05b59d3b20000919050565b60408051808201909152600a8152691315535091549352531360b21b6020909101527f9105c25cd4a4f5de306390a4361214e261c5b47733a14849b60e1afd6befe9a78201613bb25750670de0b6b3a7640000919050565b6040805180820190915260048152634d494e4560e01b6020909101527fba703fbcaf9339015e918255c7c6fb66106877b9277228701a99875362186bbc8201613c045750671bc16d674ec80000919050565b604080518082019091526006815265534d4954485960d01b6020909101527f172dd3f67874f5199aae0df823a0dbc7dc361e67643d2a2054a704e56cc7902e8201613c585750673782dace9d900000919050565b6040805180820190915260048152631193d49560e21b6020909101527fd6ee2a35c7750db1280c6e5b14dbb9643f0276ca328c44ef8a35818fd5bd14e782016139f15750671bc16d674ec80000919050565b613cce60405180606001604052806000815260200160008152602001600081525090565b6000670de0b6b3a7640000613ce161411f565b613ceb9085614aec565b613cf59190614b19565b90506000670de0b6b3a7640000613d0a61416d565b613d149086614aec565b613d1e9190614b19565b90506000613d2a614197565b9050808310613d4857613d3d8184614b63565b925060009050613d59565b613d528382614b63565b9050600092505b6000613d66610508612349565b600754909150600090613d799088614aec565b90506000613d8d601154848888888761427d565b90506000613d9b8a8c614b63565b9050613db481836000015184602001518a8a8a8f6143e9565b9b9a5050505050505050505050565b6040805180820190915260048152634641524d60e01b60209091015260007fea182adbe8a99c0376d68ae8663b1e572fb013df4142853d0efacd6d83e4a3f38201613e175750678ac7230489e80000919050565b60408051808201909152600a8152691315535091549352531360b21b6020909101527f9105c25cd4a4f5de306390a4361214e261c5b47733a14849b60e1afd6befe9a78201613e6f5750676124fee993bc0000919050565b6040805180820190915260048152634d494e4560e01b6020909101527fba703fbcaf9339015e918255c7c6fb66106877b9277228701a99875362186bbc8201613ec15750674563918244f40000919050565b604080518082019091526006815265534d4954485960d01b6020909101527f172dd3f67874f5199aae0df823a0dbc7dc361e67643d2a2054a704e56cc7902e8201613f1557506729a2241af62c0000919050565b6040805180820190915260048152631193d49560e21b6020909101527fd6ee2a35c7750db1280c6e5b14dbb9643f0276ca328c44ef8a35818fd5bd14e782016139f15750674563918244f40000919050565b600080613f72612a8f565b90506000196000613f81610731565b905060005b83518110156140ff57838181518110613fa157613fa1614b89565b6020026020010151604001516140f7576000826001600160a01b031663912929df868481518110613fd457613fd4614b89565b6020026020010151600001516040518263ffffffff1660e01b8152600401613ffe91815260200190565b602060405180830381865afa15801561401b573d6000803e3d6000fd5b505050506040513d601f19601f8201168201806040525081019061403f9190614b2d565b6001600160a01b031663eae33602306040518263ffffffff1660e01b815260040161406a919061469e565b602060405180830381865afa158015614087573d6000803e3d6000fd5b505050506040513d601f19601f820116820180604052508101906140ab9190614b4a565b9050806000036140c15760009550505050505090565b6140f38583815181106140d6576140d6614b89565b602002602001015160200151826140ed9190614b19565b8561361f565b9350505b600101613f86565b50909392505050565b6000816141158185614b19565b6136309190614aec565b60018054600091670de0b6b3a76400009061413983613dc3565b614142846144b7565b60035461414f9190614aec565b6141599190614aec565b6141639190614aec565b6133749190614b19565b600080614178613321565b61418061235b565b61418a9190614b76565b9050613374600182614aec565b60006001600060029054906101000a90046001600160a01b03166001600160a01b0316632de7e9b06040518163ffffffff1660e01b8152600401602060405180830381865afa1580156141ee573d6000803e3d6000fd5b505050506040513d601f19601f820116820180604052508101906142129190614b2d565b6001600160a01b031663cf35a3a96040518163ffffffff1660e01b8152600401602060405180830381865afa15801561424f573d6000803e3d6000fd5b505050506040513d601f19601f820116820180604052508101906142739190614b4a565b6107b09190614aec565b6040805180820190915260008082526020820152836000036142b357506040805180820190915260008082526020820152613317565b60006142bf8888614b63565b905060006142cd8688614b76565b905060006142db8786614b19565b905081861061430457604051806040016040528082815260200160008152509350505050613317565b60006143108784614b63565b9050600061431e8286614daa565b1561433d5761432d8286614b19565b614338906001614b76565b614347565b6143478286614b19565b90508760000361437c576040518060400160405280614366858461361f565b8152602001600081525095505050505050613317565b8083116143a5576040518060400160405280848152602001600081525095505050505050613317565b600088856143b38487614b63565b6143bd9190614aec565b6143c79190614b19565b604080518082019091529283526020830152509b9a5050505050505050505050565b61440d60405180606001604052806000815260200160008152602001600081525090565b6000614419888a61361f565b9050600061443061442a838c614b63565b8961361f565b9050600061443e888c614aec565b9050600061444c8784614aec565b6144568986614aec565b6144609190614b76565b9050600061446e8284614b76565b9050600061447c898f614aec565b9050600061448a8985614b19565b60408051606081018252948552602085019390935291830191909152509c9b505050505050505050505050565b6040805180820190915260048152634641524d60e01b60209091015260007fea182adbe8a99c0376d68ae8663b1e572fb013df4142853d0efacd6d83e4a3f3820161450b57506706f05b59d3b20000919050565b60408051808201909152600a8152691315535091549352531360b21b6020909101527f9105c25cd4a4f5de306390a4361214e261c5b47733a14849b60e1afd6befe9a7820161456357506705f7aab8c56b0000919050565b6040805180820190915260048152634d494e4560e01b6020909101527fba703fbcaf9339015e918255c7c6fb66106877b9277228701a99875362186bbc82016145b5575067058d15e176280000919050565b604080518082019091526006815265534d4954485960d01b6020909101527f172dd3f67874f5199aae0df823a0dbc7dc361e67643d2a2054a704e56cc7902e82016146095750670494654067e10000919050565b6040805180820190915260048152631193d49560e21b6020909101527fd6ee2a35c7750db1280c6e5b14dbb9643f0276ca328c44ef8a35818fd5bd14e782016139f1575067058d15e176280000919050565b60006020828403121561466d57600080fd5b5035919050565b60006020828403121561468657600080fd5b81356001600160e01b03198116811461363057600080fd5b6001600160a01b0391909116815260200190565b6001600160a01b03811681146138a457600080fd5b6000806000606084860312156146dc57600080fd5b83356146e7816146b2565b925060208401356146f7816146b2565b929592945050506040919091013590565b6000806040838503121561471b57600080fd5b50508035926020909101359150565b60006020828403121561473c57600080fd5b8135613630816146b2565b634e487b7160e01b600052604160045260246000fd5b604051601f8201601f191681016001600160401b038111828210171561478557614785614747565b604052919050565b60006020828403121561479f57600080fd5b81356001600160401b038111156147b557600080fd5b8201601f810184136147c657600080fd5b80356001600160401b038111156147df576147df614747565b6147f2601f8201601f191660200161475d565b81815285602083850101111561480757600080fd5b81602084016020830137600091810160200191909152949350505050565b6000806040838503121561483857600080fd5b8235614843816146b2565b946020939093013593505050565b602080825282518282018190526000918401906040840190835b818110156148aa5761489483855180518252602080820151908301526040908101511515910152565b602093909301926060929092019160010161486b565b509095945050505050565b60008083601f8401126148c757600080fd5b5081356001600160401b038111156148de57600080fd5b6020830191508360208260051b8501011115611ac457600080fd5b60008083601f84011261490b57600080fd5b5081356001600160401b0381111561492257600080fd5b602083019150836020828501011115611ac457600080fd5b60008060008060008060008060a0898b03121561495657600080fd5b8835614961816146b2565b97506020890135614971816146b2565b965060408901356001600160401b0381111561498c57600080fd5b6149988b828c016148b5565b90975095505060608901356001600160401b038111156149b757600080fd5b6149c38b828c016148b5565b90955093505060808901356001600160401b038111156149e257600080fd5b6149ee8b828c016148f9565b999c989b5096995094979396929594505050565b602080825282518282018190526000918401906040840190835b818110156148aa57614a4583855180518252602080820151908301526040908101511515910152565b6020939093019260609290920191600101614a1c565b60008060008060008060a08789031215614a7457600080fd5b8635614a7f816146b2565b95506020870135614a8f816146b2565b9450604087013593506060870135925060808701356001600160401b03811115614ab857600080fd5b614ac489828a016148f9565b979a9699509497509295939492505050565b634e487b7160e01b600052601160045260246000fd5b80820281158282048414176106b9576106b9614ad6565b634e487b7160e01b600052601260045260246000fd5b600082614b2857614b28614b03565b500490565b600060208284031215614b3f57600080fd5b8151613630816146b2565b600060208284031215614b5c57600080fd5b5051919050565b818103818111156106b9576106b9614ad6565b808201808211156106b9576106b9614ad6565b634e487b7160e01b600052603260045260246000fd5b6001600160a01b03929092168252602082015260400190565b60008060408385031215614bcb57600080fd5b8251614bd6816146b2565b6020939093015192949293505050565b600060208284031215614bf857600080fd5b8151801515811461363057600080fd5b600060208284031215614c1a57600080fd5b81516001600160401b03811115614c3057600080fd5b8201601f81018413614c4157600080fd5b80516001600160401b03811115614c5a57614c5a614747565b8060051b614c6a6020820161475d565b91825260208184018101929081019087841115614c8657600080fd5b6020850194505b83851015611f6c5784519250614ca2836146b2565b82825260209485019490910190614c8d565b6001815b6001841115614cef57808504811115614cd357614cd3614ad6565b6001841615614ce157908102905b60019390931c928002614cb8565b935093915050565b600082614d06575060016106b9565b81614d13575060006106b9565b8160018114614d295760028114614d3357614d4f565b60019150506106b9565b60ff841115614d4457614d44614ad6565b50506001821b6106b9565b5060208310610133831016604e8410600b8410161715614d72575081810a6106b9565b614d7f6000198484614cb4565b8060001904821115614d9357614d93614ad6565b029392505050565b600061363060ff841683614cf7565b600082614db957614db9614b03565b50069056fea264697066735822122091cba2aca72562b5e6aa839ded0b2fcc9fcdf5f6a3b2bebea2dcffd3fb75843c64736f6c634300081a0033",
  "linkReferences": {},
  "deployedLinkReferences": {}
}