{
  "_format": "hh-sol-artifact-1",
  "contractName": "Siege",
  "sourceName": "contracts/core/assets/siege/Siege.sol",
  "abi": [
    {
      "inputs": [],
      "name": "OnlyActiveGame",
      "type": "error"
    },
    {
      "inputs": [],
      "name": "OnlyMightyCreator",
      "type": "error"
    },
    {
      "inputs": [],
      "name": "OnlyWorldAssetFromSameEra",
      "type": "error"
    },
    {
      "inputs": [],
      "name": "RobberyPointsSwapNotAllowedDueToNothingWasStolenAndBurned",
      "type": "error"
    },
    {
      "inputs": [],
      "name": "RobberyPointsSwapNotAllowedDueToSpecifiedBuildingAddressDoesNotBelongToSettlementOfThisSiege",
      "type": "error"
    },
    {
      "inputs": [],
      "name": "RobberyPointsSwapNotAllowedDueToSpecifiedBuildingAddressIsNotPartOfEra",
      "type": "error"
    },
    {
      "inputs": [],
      "name": "RobberyPointsSwapNotAllowedDueToWrongMaxPointsToSpendSpecified",
      "type": "error"
    },
    {
      "inputs": [],
      "name": "SiegeCannotBeModifiedDueToInvalidUnitsAmountSpecified",
      "type": "error"
    },
    {
      "inputs": [],
      "name": "SiegeCannotLiquidateArmy",
      "type": "error"
    },
    {
      "inputs": [],
      "name": "UnknownInputParameter",
      "type": "error"
    },
    {
      "anonymous": false,
      "inputs": [
        {
          "indexed": false,
          "internalType": "address",
          "name": "armyAddress",
          "type": "address"
        }
      ],
      "name": "ArmyLiquidated",
      "type": "event"
    },
    {
      "anonymous": false,
      "inputs": [
        {
          "indexed": false,
          "internalType": "address",
          "name": "armyAddress",
          "type": "address"
        },
        {
          "indexed": false,
          "internalType": "bytes32[]",
          "name": "unitTypeIds",
          "type": "bytes32[]"
        },
        {
          "indexed": false,
          "internalType": "bool[]",
          "name": "toAddIndication",
          "type": "bool[]"
        },
        {
          "indexed": false,
          "internalType": "uint256[]",
          "name": "unitsAmounts",
          "type": "uint256[]"
        },
        {
          "indexed": false,
          "internalType": "uint256",
          "name": "newRobberyMultiplier",
          "type": "uint256"
        },
        {
          "indexed": false,
          "internalType": "uint256",
          "name": "newTotalSiegePower",
          "type": "uint256"
        }
      ],
      "name": "ArmySiegeModified",
      "type": "event"
    },
    {
      "anonymous": false,
      "inputs": [
        {
          "indexed": false,
          "internalType": "address",
          "name": "armyAddress",
          "type": "address"
        },
        {
          "indexed": false,
          "internalType": "address",
          "name": "buildingAddress",
          "type": "address"
        },
        {
          "indexed": false,
          "internalType": "uint256",
          "name": "stolenAmount",
          "type": "uint256"
        },
        {
          "indexed": false,
          "internalType": "uint256",
          "name": "burnedAmount",
          "type": "uint256"
        },
        {
          "indexed": false,
          "internalType": "uint256",
          "name": "pointsSpent",
          "type": "uint256"
        },
        {
          "indexed": false,
          "internalType": "uint256",
          "name": "newRobberyPointsAmount",
          "type": "uint256"
        }
      ],
      "name": "BuildingRobbed",
      "type": "event"
    },
    {
      "anonymous": false,
      "inputs": [
        {
          "indexed": false,
          "internalType": "uint8",
          "name": "version",
          "type": "uint8"
        }
      ],
      "name": "Initialized",
      "type": "event"
    },
    {
      "inputs": [
        {
          "internalType": "uint256",
          "name": "damage",
          "type": "uint256"
        }
      ],
      "name": "applyDamage",
      "outputs": [],
      "stateMutability": "nonpayable",
      "type": "function"
    },
    {
      "inputs": [
        {
          "internalType": "address",
          "name": "",
          "type": "address"
        }
      ],
      "name": "armyInfo",
      "outputs": [
        {
          "internalType": "uint256",
          "name": "robberyMultiplier",
          "type": "uint256"
        },
        {
          "internalType": "uint256",
          "name": "pointsDebt",
          "type": "uint256"
        },
        {
          "internalType": "uint256",
          "name": "points",
          "type": "uint256"
        }
      ],
      "stateMutability": "view",
      "type": "function"
    },
    {
      "inputs": [],
      "name": "assetGroupId",
      "outputs": [
        {
          "internalType": "bytes32",
          "name": "",
          "type": "bytes32"
        }
      ],
      "stateMutability": "view",
      "type": "function"
    },
    {
      "inputs": [],
      "name": "assetTypeId",
      "outputs": [
        {
          "internalType": "bytes32",
          "name": "",
          "type": "bytes32"
        }
      ],
      "stateMutability": "view",
      "type": "function"
    },
    {
      "inputs": [
        {
          "internalType": "address",
          "name": "",
          "type": "address"
        },
        {
          "internalType": "bytes32",
          "name": "",
          "type": "bytes32"
        }
      ],
      "name": "besiegingArmyUnitsByType",
      "outputs": [
        {
          "internalType": "uint256",
          "name": "",
          "type": "uint256"
        }
      ],
      "stateMutability": "view",
      "type": "function"
    },
    {
      "inputs": [
        {
          "internalType": "address",
          "name": "armyAddress",
          "type": "address"
        }
      ],
      "name": "calculateArmyTotalSiegePower",
      "outputs": [
        {
          "internalType": "uint256",
          "name": "",
          "type": "uint256"
        }
      ],
      "stateMutability": "view",
      "type": "function"
    },
    {
      "inputs": [
        {
          "internalType": "address",
          "name": "armyAddress",
          "type": "address"
        }
      ],
      "name": "calculateArmyUnitsSiegePower",
      "outputs": [
        {
          "internalType": "uint256",
          "name": "",
          "type": "uint256"
        }
      ],
      "stateMutability": "view",
      "type": "function"
    },
    {
      "inputs": [
        {
          "internalType": "address",
          "name": "armyAddress",
          "type": "address"
        }
      ],
      "name": "canLiquidateArmyBesiegingUnits",
      "outputs": [
        {
          "internalType": "bool",
          "name": "",
          "type": "bool"
        }
      ],
      "stateMutability": "view",
      "type": "function"
    },
    {
      "inputs": [],
      "name": "era",
      "outputs": [
        {
          "internalType": "contract IEra",
          "name": "",
          "type": "address"
        }
      ],
      "stateMutability": "view",
      "type": "function"
    },
    {
      "inputs": [],
      "name": "eraNumber",
      "outputs": [
        {
          "internalType": "uint256",
          "name": "",
          "type": "uint256"
        }
      ],
      "stateMutability": "view",
      "type": "function"
    },
    {
      "inputs": [
        {
          "internalType": "address",
          "name": "armyAddress",
          "type": "address"
        }
      ],
      "name": "getArmyBesiegingUnitsAmounts",
      "outputs": [
        {
          "internalType": "uint256[]",
          "name": "",
          "type": "uint256[]"
        }
      ],
      "stateMutability": "view",
      "type": "function"
    },
    {
      "inputs": [
        {
          "internalType": "address",
          "name": "armyAddress",
          "type": "address"
        },
        {
          "internalType": "uint256",
          "name": "timestamp",
          "type": "uint256"
        }
      ],
      "name": "getArmyRobberyPoints",
      "outputs": [
        {
          "internalType": "uint256",
          "name": "",
          "type": "uint256"
        }
      ],
      "stateMutability": "view",
      "type": "function"
    },
    {
      "inputs": [
        {
          "internalType": "bytes",
          "name": "initParams",
          "type": "bytes"
        }
      ],
      "name": "init",
      "outputs": [],
      "stateMutability": "nonpayable",
      "type": "function"
    },
    {
      "inputs": [
        {
          "internalType": "address",
          "name": "armyAddress",
          "type": "address"
        }
      ],
      "name": "liquidate",
      "outputs": [],
      "stateMutability": "nonpayable",
      "type": "function"
    },
    {
      "inputs": [
        {
          "internalType": "address",
          "name": "armyAddress",
          "type": "address"
        },
        {
          "internalType": "bytes32[]",
          "name": "unitTypeIds",
          "type": "bytes32[]"
        },
        {
          "internalType": "bool[]",
          "name": "toAddIndication",
          "type": "bool[]"
        },
        {
          "internalType": "uint256[]",
          "name": "unitsAmounts",
          "type": "uint256[]"
        },
        {
          "internalType": "uint256",
          "name": "newRobberyMultiplier",
          "type": "uint256"
        }
      ],
      "name": "modifyArmySiege",
      "outputs": [],
      "stateMutability": "nonpayable",
      "type": "function"
    },
    {
      "inputs": [],
      "name": "registry",
      "outputs": [
        {
          "internalType": "contract IRegistry",
          "name": "",
          "type": "address"
        }
      ],
      "stateMutability": "view",
      "type": "function"
    },
    {
      "inputs": [],
      "name": "relatedSettlement",
      "outputs": [
        {
          "internalType": "contract ISettlement",
          "name": "",
          "type": "address"
        }
      ],
      "stateMutability": "view",
      "type": "function"
    },
    {
      "inputs": [],
      "name": "robberyPointsPerOneDamage",
      "outputs": [
        {
          "internalType": "uint256",
          "name": "",
          "type": "uint256"
        }
      ],
      "stateMutability": "view",
      "type": "function"
    },
    {
      "inputs": [
        {
          "internalType": "address",
          "name": "buildingAddress",
          "type": "address"
        },
        {
          "internalType": "uint256",
          "name": "maxPointsToSpend",
          "type": "uint256"
        }
      ],
      "name": "swapRobberyPointsForResourceFromBuildingTreasury",
      "outputs": [],
      "stateMutability": "nonpayable",
      "type": "function"
    },
    {
      "inputs": [],
      "name": "totalSiegePower",
      "outputs": [
        {
          "internalType": "uint256",
          "name": "",
          "type": "uint256"
        }
      ],
      "stateMutability": "view",
      "type": "function"
    },
    {
      "inputs": [],
      "name": "world",
      "outputs": [
        {
          "internalType": "contract IWorld",
          "name": "",
          "type": "address"
        }
      ],
      "stateMutability": "view",
      "type": "function"
    },
    {
      "inputs": [],
      "name": "worldAssetFactory",
      "outputs": [
        {
          "internalType": "contract IWorldAssetFactory",
          "name": "",
          "type": "address"
        }
      ],
      "stateMutability": "view",
      "type": "function"
    }
  ],
  "bytecode": "0x6080604052348015600f57600080fd5b506126108061001f6000396000f3fe608060405234801561001057600080fd5b50600436106101425760003560e01c806384ba89e3116100b8578063c89e12671161007c578063c89e1267146102c9578063cf35a3a9146102dc578063e34d7827146102e5578063eacaef90146102f8578063ece56a1a1461030b578063f09dbd5b1461031357600080fd5b806384ba89e3146102515780639cf70dd814610259578063a54f366e14610284578063b9767dfc1461028d578063c45f1000146102b057600080fd5b80633eb233aa1161010a5780633eb233aa146101b2578063417fbd1d146101fb5780634ddf47d41461021b5780637b1039991461022e5780637d039f0c146102365780637d884c741461024957600080fd5b80630b4e99c314610147578063143e55e0146101625780631abcf471146101825780632f8655681461019757806330b67baa146101aa575b600080fd5b61014f610326565b6040519081526020015b60405180910390f35b61016a610363565b6040516001600160a01b039091168152602001610159565b610195610190366004612099565b6103e7565b005b6101956101a53660046120c5565b61086e565b61016a610b93565b6101e06101c03660046120c5565b600160208190526000918252604090912080549181015460029091015483565b60408051938452602084019290925290820152606001610159565b61020e6102093660046120c5565b610b9d565b604051610159919061211e565b610195610229366004612147565b610c71565b61016a610dbe565b61014f610244366004612099565b610e05565b61014f610fd9565b61014f611016565b61014f610267366004612099565b600260209081526000928352604080842090915290825290205481565b61014f60035481565b6102a061029b3660046120c5565b611053565b6040519015158152602001610159565b60005461016a906201000090046001600160a01b031681565b61014f6102d73660046120c5565b6110cc565b61014f60045481565b61014f6102f33660046120c5565b611182565b610195610306366004612248565b6111bc565b61016a611618565b610195610321366004612305565b61165f565b604080516020808252818301909252600091309183918291906020820181803683370190505090506020607a60208301853c602001519392505050565b600061036d610b93565b6001600160a01b031663720a70bd610383610fd9565b6040518263ffffffff1660e01b81526004016103a191815260200190565b602060405180830381865afa1580156103be573d6000803e3d6000fd5b505050506040513d601f19601f820116820180604052508101906103e2919061231e565b905090565b6103ef61169f565b336103f98161175e565b6001600160a01b038116600090815260016020908152604091829020825180840190935260088352676275696c64696e6760c01b929091019190915281907f010b6fd4eff8a0ca8c7925f2d29e6173e90462d56ae99e39fa817c79f4028518610460610b93565b6001600160a01b031663ebbe8034610476610fd9565b6040516001600160e01b031960e084901b16815260048101919091526001600160a01b0389166024820152604401602060405180830381865afa1580156104c1573d6000803e3d6000fd5b505050506040513d601f19601f820116820180604052508101906104e5919061233b565b146105035760405163183e5eed60e01b815260040160405180910390fd5b83816002015410156105285760405163186c0f9b60e21b815260040160405180910390fd5b6000859050806001600160a01b031663c45f10006040518163ffffffff1660e01b8152600401602060405180830381865afa15801561056b573d6000803e3d6000fd5b505050506040513d601f19601f8201168201806040525081019061058f919061231e565b6000546201000090046001600160a01b039081169116146105c357604051632f781f0560e11b815260040160405180910390fd5b600061062f826001600160a01b03166304b10ac86040518163ffffffff1660e01b8152600401602060405180830381865afa158015610606573d6000803e3d6000fd5b505050506040513d601f19601f8201168201806040525081019061062a919061233b565b61184d565b90506000670de0b6b3a7640000610646838961236a565b6106509190612397565b9050826001600160a01b0316631d8557d76040518163ffffffff1660e01b8152600401600060405180830381600087803b15801561068d57600080fd5b505af11580156106a1573d6000803e3d6000fd5b50505050600080846001600160a01b031663589ae400886001600160a01b031663c45f10006040518163ffffffff1660e01b8152600401602060405180830381865afa1580156106f5573d6000803e3d6000fd5b505050506040513d601f19601f82011682018060405250810190610719919061231e565b6040516001600160e01b031960e084901b1681526001600160a01b0390911660048201526024810186905260440160408051808303816000875af1158015610765573d6000803e3d6000fd5b505050506040513d601f19601f8201168201806040525081019061078991906123ab565b9150915081600014801561079b575080155b156107b9576040516336ab9f2960e21b815260040160405180910390fd5b6000846107c683856123cf565b6107d890670de0b6b3a764000061236a565b6107e29190612397565b9050808760020160008282546107f891906123e2565b90915550506002870154604080516001600160a01b038c811682528e166020820152808201869052606081018590526080810184905260a0810192909252517f68a2b96508e3df357fd8fb4ff27dd7c97d0e321c30770fc502222930bde373949181900360c00190a15050505050505050505050565b6108766119b0565b600060029054906101000a90046001600160a01b03166001600160a01b031663aef281d36040518163ffffffff1660e01b8152600401600060405180830381600087803b1580156108c657600080fd5b505af11580156108da573d6000803e3d6000fd5b505050506000819050806001600160a01b0316631d8557d76040518163ffffffff1660e01b8152600401600060405180830381600087803b15801561091e57600080fd5b505af1158015610932573d6000803e3d6000fd5b5050505061093f82611053565b61095c576040516313c0818160e31b815260040160405180910390fd5b6000610966611ae4565b9050600081516001600160401b0381111561098357610983612131565b6040519080825280602002602001820160405280156109ac578160200160208202803683370190505b509050600082516001600160401b038111156109ca576109ca612131565b6040519080825280602002602001820160405280156109f3578160200160208202803683370190505b50905060005b8351811015610a90576000838281518110610a1657610a166123f5565b9115156020928302919091018201526001600160a01b03871660009081526002909152604081208551909190869084908110610a5457610a546123f5565b6020026020010151815260200190815260200160002054828281518110610a7d57610a7d6123f5565b60209081029190910101526001016109f9565b50604051630eacaef960e41b8152309063eacaef9090610abd90889087908790879060009060040161240b565b600060405180830381600087803b158015610ad757600080fd5b505af1158015610aeb573d6000803e3d6000fd5b50506040516389609e9f60e01b81526001600160a01b03871692506389609e9f9150610b1d908690859060040161248f565b600060405180830381600087803b158015610b3757600080fd5b505af1158015610b4b573d6000803e3d6000fd5b50506040516001600160a01b03881681527f8c1485670613da39f0af37e94fc886c121013aa7275fc5b78a09a70f81ed79299250602001905060405180910390a15050505050565b60006103e2611b8f565b60606000610ba9611ae4565b9050600081516001600160401b03811115610bc657610bc6612131565b604051908082528060200260200182016040528015610bef578160200160208202803683370190505b50905060005b8251811015610c69576001600160a01b03851660009081526002602052604081208451909190859084908110610c2d57610c2d6123f5565b6020026020010151815260200190815260200160002054828281518110610c5657610c566123f5565b6020908102919091010152600101610bf5565b509392505050565b600054610100900460ff1615808015610c915750600054600160ff909116105b80610cab5750303b158015610cab575060005460ff166001145b610d125760405162461bcd60e51b815260206004820152602e60248201527f496e697469616c697a61626c653a20636f6e747261637420697320616c72656160448201526d191e481a5b9a5d1a585b1a5e995960921b606482015260840160405180910390fd5b6000805460ff191660011790558015610d35576000805461ff0019166101001790555b600082806020019051810190610d4b919061231e565b600080546001600160a01b03909216620100000262010000600160b01b0319909216919091179055508015610dba576000805461ff0019169055604051600181527f7f26b83ff96e1f2b6a682f133852f6798a09c465da95921460cefb38474024989060200160405180910390a15b5050565b6000610dc8610b93565b6001600160a01b0316637b1039996040518163ffffffff1660e01b8152600401602060405180830381865afa1580156103be573d6000803e3d6000fd5b600080546040805180820182526004808252631193d49560e21b6020909201919091529051631b973c5760e21b81527f2911d5ca388af24ed7f391a4eb24469bc0fd8935cd73bb1075ca7e702a42eb199181019190915282916201000090046001600160a01b031690636e5cf15c90602401602060405180830381865afa158015610e94573d6000803e3d6000fd5b505050506040513d601f19601f82011682018060405250810190610eb8919061231e565b60405163e2ac48c760e01b8152600481018590529091506000906001600160a01b0383169063e2ac48c790602401602060405180830381865afa158015610f03573d6000803e3d6000fd5b505050506040513d601f19601f82011682018060405250810190610f27919061233b565b6004549091506000819003610f425760009350505050610fd3565b6001600160a01b038616600090815260016020526040812090610f64886110cc565b90506000610f76828460000154611bcc565b90506000610f848686611beb565b9050600081600354610f9691906123cf565b9050600085600101548285610fab919061236a565b610fb591906123e2565b9050808660020154610fc791906123cf565b99505050505050505050505b92915050565b604080516020808252818301909252600091309183918291906020820181803683370190505090506020609a60208301853c602001519392505050565b604080516020808252818301909252600091309183918291906020820181803683370190505090506020605a60208301853c602001519392505050565b60008061105f836110cc565b905080836001600160a01b031663ab6a9acb6040518163ffffffff1660e01b8152600401602060405180830381865afa1580156110a0573d6000803e3d6000fd5b505050506040513d601f19601f820116820180604052508101906110c4919061233b565b109392505050565b6000806110d7611ae4565b90506000805b8251811015610c695760008382815181106110fa576110fa6123f5565b6020908102919091018101516001600160a01b0388166000908152600283526040808220838352909352918220549092509081900361113a57505061117a565b600061114583611c2b565b9050670de0b6b3a7640000816080015183611160919061236a565b61116a9190612397565b61117490866123cf565b94505050505b6001016110dd565b60008061118e836110cc565b6001600160a01b0384166000908152600160205260409020549091506111b5908290611bcc565b9392505050565b6111c461169f565b6111cd8861175e565b60006111d889611182565b905060006111e4610363565b905060005b88811015611537576000868683818110611205576112056123f5565b9050602002013590508060000361121c575061152f565b61122e81670de0b6b3a7640000611e02565b61124b576040516367c8babf60e11b815260040160405180910390fd5b88888381811061125d5761125d6123f5565b905060200201602081019061127291906124cb565b156113d4576001600160a01b038c16600090815260026020526040812082918d8d868181106112a3576112a36123f5565b90506020020135815260200190815260200160002060008282546112c791906123cf565b90915550506001600160a01b03831663feae7dc38c8c858181106112ed576112ed6123f5565b905060200201356040518263ffffffff1660e01b815260040161131291815260200190565b602060405180830381865afa15801561132f573d6000803e3d6000fd5b505050506040513d601f19601f82011682018060405250810190611353919061231e565b6040516323b872dd60e01b81526001600160a01b038e811660048301523060248301526044820184905291909116906323b872dd906064016020604051808303816000875af11580156113aa573d6000803e3d6000fd5b505050506040513d601f19601f820116820180604052508101906113ce91906124e8565b5061152d565b6001600160a01b038c16600090815260026020526040812082918d8d86818110611400576114006123f5565b905060200201358152602001908152602001600020600082825461142491906123e2565b90915550506001600160a01b03831663feae7dc38c8c8581811061144a5761144a6123f5565b905060200201356040518263ffffffff1660e01b815260040161146f91815260200190565b602060405180830381865afa15801561148c573d6000803e3d6000fd5b505050506040513d601f19601f820116820180604052508101906114b0919061231e565b6040516323b872dd60e01b81523060048201526001600160a01b038e811660248301526044820184905291909116906323b872dd906064016020604051808303816000875af1158015611507573d6000803e3d6000fd5b505050506040513d601f19601f8201168201806040525081019061152b91906124e8565b505b505b6001016111e9565b506001600160a01b038a1660009081526001602052604081208481559061155d8c6110cc565b9050600061156b8287611bcc565b90506003548161157b919061236a565b6001840155600081900361158e57600083555b8085146115c05784816004546115a491906123cf565b6115ae91906123e2565b60048190556000036115c05760006003555b7f2dec860ff69006eefd52e875bed95502113738d4d5578f09e539f8a6ebdb1d2e8d8d8d8d8d8d8d8d60045460405161160199989796959493929190612537565b60405180910390a150505050505050505050505050565b6000611622610dbe565b6001600160a01b031663ece56a1a6040518163ffffffff1660e01b8152600401602060405180830381865afa1580156103be573d6000803e3d6000fd5b61166761169f565b600061167582600454611beb565b905080600003611683575050565b806003600082825461169591906123cf565b9091555050505b50565b60006116a9610b93565b9050336001600160a01b03821614801590611740575060006001600160a01b03821663ebbe80346116d8610fd9565b6040516001600160e01b031960e084901b1681526004810191909152336024820152604401602060405180830381865afa15801561171a573d6000803e3d6000fd5b505050506040513d601f19601f8201168201806040525081019061173e919061233b565b145b1561169c5760405163422656d160e01b815260040160405180910390fd5b600060029054906101000a90046001600160a01b03166001600160a01b031663aef281d36040518163ffffffff1660e01b8152600401600060405180830381600087803b1580156117ae57600080fd5b505af11580156117c2573d6000803e3d6000fd5b5050506001600160a01b038216600090815260016020526040812091506117e8836110cc565b905060006117fa828460000154611bcc565b905060006003548261180c919061236a565b9050600084600101548261182091906123e2565b9050801561183e5780856002015461183891906123cf565b60028601555b50600190930192909255505050565b6040805180820190915260048152631193d3d160e21b60209091015260007fd090a5d9e290baeb3c0f657cb8df01a7c37d0d11b8a73165ba04298bd71606c382016118a15750670de0b6b3a7640000919050565b60408051808201909152600481526315d3d3d160e21b6020909101527fa0c2c402a49ee67eb7d8a3e87eb93de113a3a54817e8a70c39ae8ab51c0e12be82016118f35750670de0b6b3a7640000919050565b6040805180820190915260038152624f524560e81b6020909101527f624ae31110c92d70b58ec456bb42524ff16773a98936d8ef150f1e6b104b34ab82016119445750670de0b6b3a7640000919050565b604080518082019091526005815264125391d3d560da1b6020909101527f0b2c26746c5e8d6f1877c4437947c29fc4d8103cd72878c4c039b7afe27c1a8e82016119975750670de0b6b3a7640000919050565b60405163ea3b0abb60e01b815260040160405180910390fd5b60006119ba610b93565b90506000816001600160a01b0316633c8ca83d6040518163ffffffff1660e01b8152600401602060405180830381865afa1580156119fc573d6000803e3d6000fd5b505050506040513d601f19601f82011682018060405250810190611a20919061233b565b90506000826001600160a01b03166344d9bc5f6040518163ffffffff1660e01b8152600401602060405180830381865afa158015611a62573d6000803e3d6000fd5b505050506040513d601f19601f82011682018060405250810190611a86919061233b565b9050811580611a9457508142105b15611ab25760405163a00eda6960e01b815260040160405180910390fd5b8015801590611ac15750804210155b15611adf5760405163a00eda6960e01b815260040160405180910390fd5b505050565b60606000611af0611e16565b9050600081516001600160401b03811115611b0d57611b0d612131565b604051908082528060200260200182016040528015611b36578160200160208202803683370190505b50905060005b8151811015611b8857828181518110611b5757611b576123f5565b602002602001015160400151828281518110611b7557611b756123f5565b6020908102919091010152600101611b3c565b5092915050565b604080516014808252818301909252600091309183918291906020820181803683370190505090506014602a60208301853c601401519392505050565b6000670de0b6b3a7640000611be1838561236a565b6111b59190612397565b6000821580611bf8575081155b15611c0557506000610fd3565b81670de0b6b3a7640000611c21674563918244f400008661236a565b611be19190612397565b611c646040518060c001604052806000815260200160008152602001600081526020016000815260200160008152602001600081525090565b6040805180820190915260078152662ba0a92924a7a960c91b6020909101527f963ace81a31bb0e5e04a9395a1006fbdeb19cac259cef54f594aee1106583c6f8201611cee576040518060c0016040528060008152602001601481526020016005815260200160058152602001650a86cc92e3da815260200165150d9925c7b48152509050919050565b60408051808201909152600681526520a921a422a960d11b6020909101527fbd21a0403f8a882c166bd206a22b19e35435476f82a2cccdbfebf4d666c861c08201611d77576040518060c0016040528060058152602001600581526020016000815260200160058152602001650a86cc92e3da815260200165150d9925c7b48152509050919050565b6040805180820190915260088152672427a929a2a6a0a760c11b6020909101527f762a1190b034cd04c3eae43da1943cdf0137d457634c4d62e69626f81f1986c78201611997576040518060c0016040528060008152602001600581526020016005815260200160148152602001650a86cc92e3da815260200165150d9925c7b48152509050919050565b6000611e0e82846125c6565b159392505050565b6040805160038082526080820190925260609160009190816020015b60408051606080820183528082526020820152600091810191909152815260200190600190039081611e325750506040805160a0810182526011606082019081527026b4ba343930b2bab6902bb0b93934b7b960791b6080830152815281518083018352600881526736aba0a92924a7a960c11b602080830191909152808301919091528251808401845260078152662ba0a92924a7a960c91b9101527f69c5317e5ce44f1a1fb56c6a5eff904214e6353da6310ab0a6b511eef9a7c391918101919091528151919250908290600090611f0e57611f0e6123f5565b6020908102919091018101919091526040805160a0810182526010606082019081526f26b4ba343930b2bab69020b931b432b960811b6080830152815281518083018352600781526636a0a921a422a960c91b818501528184015281518083018352600681526520a921a422a960d11b9301929092527f42de5fbfc07577d3e9942df95dd4e61cabcab8907d5d333240140b2999379e4090820152815182906001908110611fbe57611fbe6123f5565b6020908102919091018101919091526040805160a0810182526012606082019081527126b4ba343930b2bab6902437b939b2b6b0b760711b6080830152815281518083018352600981526836a427a929a2a6a0a760b91b81850152818401528151808301835260088152672427a929a2a6a0a760c11b9301929092527f89d5ee6f4fcb32fb3c151bc25e6bc320fec82ba89cb3b29d1969d907e0e6793990820152815182906002908110612074576120746123f5565b6020908102919091010152919050565b6001600160a01b038116811461169c57600080fd5b600080604083850312156120ac57600080fd5b82356120b781612084565b946020939093013593505050565b6000602082840312156120d757600080fd5b81356111b581612084565b600081518084526020840193506020830160005b828110156121145781518652602095860195909101906001016120f6565b5093949350505050565b6020815260006111b560208301846120e2565b634e487b7160e01b600052604160045260246000fd5b60006020828403121561215957600080fd5b81356001600160401b0381111561216f57600080fd5b8201601f8101841361218057600080fd5b80356001600160401b0381111561219957612199612131565b604051601f8201601f19908116603f011681016001600160401b03811182821017156121c7576121c7612131565b6040528181528282016020018610156121df57600080fd5b81602084016020830137600091810160200191909152949350505050565b60008083601f84011261220f57600080fd5b5081356001600160401b0381111561222657600080fd5b6020830191508360208260051b850101111561224157600080fd5b9250929050565b60008060008060008060008060a0898b03121561226457600080fd5b883561226f81612084565b975060208901356001600160401b0381111561228a57600080fd5b6122968b828c016121fd565b90985096505060408901356001600160401b038111156122b557600080fd5b6122c18b828c016121fd565b90965094505060608901356001600160401b038111156122e057600080fd5b6122ec8b828c016121fd565b999c989b50969995989497949560800135949350505050565b60006020828403121561231757600080fd5b5035919050565b60006020828403121561233057600080fd5b81516111b581612084565b60006020828403121561234d57600080fd5b5051919050565b634e487b7160e01b600052601160045260246000fd5b8082028115828204841417610fd357610fd3612354565b634e487b7160e01b600052601260045260246000fd5b6000826123a6576123a6612381565b500490565b600080604083850312156123be57600080fd5b505080516020909101519092909150565b80820180821115610fd357610fd3612354565b81810381811115610fd357610fd3612354565b634e487b7160e01b600052603260045260246000fd5b6001600160a01b038616815260a06020820181905260009061242f908301876120e2565b82810360408401528551808252602080880192019060005b818110156124675783511515835260209384019390920191600101612447565b5050838103606085015261247b81876120e2565b925050508260808301529695505050505050565b6040815260006124a260408301856120e2565b82810360208401526124b481856120e2565b95945050505050565b801515811461169c57600080fd5b6000602082840312156124dd57600080fd5b81356111b5816124bd565b6000602082840312156124fa57600080fd5b81516111b5816124bd565b81835260006001600160fb1b0383111561251e57600080fd5b8260051b80836020870137939093016020019392505050565b6001600160a01b038a16815260c06020820181905260009061255c9083018a8c612505565b8281036040840152878152889060200160005b89811015612598578235612582816124bd565b151582526020928301929091019060010161256f565b5083810360608501526125ac81888a612505565b608085019690965250505060a00152979650505050505050565b6000826125d5576125d5612381565b50069056fea2646970667358221220965dc3e21847613bfdd7a9660cb5b4777f696327d3f901dcced302321f98cfdc64736f6c634300081a0033",
  "linkReferences": {},
  "deployedLinkReferences": {}
}