{
  "_format": "hh-sol-artifact-1",
  "contractName": "SettlementsMarket",
  "sourceName": "contracts/core/assets/settlementsMarket/SettlementMarket.sol",
  "abi": [
    {
      "inputs": [],
      "name": "OnlyActiveGame",
      "type": "error"
    },
    {
      "inputs": [],
      "name": "OnlyMightyCreator",
      "type": "error"
    },
    {
      "inputs": [],
      "name": "OnlyWorldAssetFromSameEra",
      "type": "error"
    },
    {
      "inputs": [],
      "name": "ReentrantCall",
      "type": "error"
    },
    {
      "inputs": [],
      "name": "SettlementCannotBeBoughtDueInsufficientValueSent",
      "type": "error"
    },
    {
      "inputs": [],
      "name": "SettlementCannotBeBoughtDueToCostIsHigherThanMaxTokensToUseSpecified",
      "type": "error"
    },
    {
      "inputs": [],
      "name": "SettlementCannotBeBoughtForFreeAfterGameBegan",
      "type": "error"
    },
    {
      "inputs": [],
      "name": "SettlementCannotBeBoughtForNotOwnerBannerNft",
      "type": "error"
    },
    {
      "inputs": [],
      "name": "SettlementCannotBeBoughtOnNonExistentPosition",
      "type": "error"
    },
    {
      "inputs": [],
      "name": "SettlementCannotBeBoughtOnPositionWhichIsNotRelatedToThisSettlementMarket",
      "type": "error"
    },
    {
      "inputs": [],
      "name": "UnknownInputParameter",
      "type": "error"
    },
    {
      "anonymous": false,
      "inputs": [
        {
          "indexed": false,
          "internalType": "uint8",
          "name": "version",
          "type": "uint8"
        }
      ],
      "name": "Initialized",
      "type": "event"
    },
    {
      "anonymous": false,
      "inputs": [
        {
          "indexed": false,
          "internalType": "address",
          "name": "settlementAddress",
          "type": "address"
        },
        {
          "indexed": false,
          "internalType": "uint256",
          "name": "settlementCost",
          "type": "uint256"
        }
      ],
      "name": "SettlementBought",
      "type": "event"
    },
    {
      "inputs": [],
      "name": "assetGroupId",
      "outputs": [
        {
          "internalType": "bytes32",
          "name": "",
          "type": "bytes32"
        }
      ],
      "stateMutability": "view",
      "type": "function"
    },
    {
      "inputs": [],
      "name": "assetTypeId",
      "outputs": [
        {
          "internalType": "bytes32",
          "name": "",
          "type": "bytes32"
        }
      ],
      "stateMutability": "view",
      "type": "function"
    },
    {
      "inputs": [
        {
          "internalType": "uint64",
          "name": "position",
          "type": "uint64"
        },
        {
          "internalType": "uint256",
          "name": "bannerId",
          "type": "uint256"
        },
        {
          "internalType": "uint256",
          "name": "maxTokensToUse",
          "type": "uint256"
        }
      ],
      "name": "buySettlement",
      "outputs": [],
      "stateMutability": "payable",
      "type": "function"
    },
    {
      "inputs": [
        {
          "internalType": "uint64",
          "name": "position",
          "type": "uint64"
        },
        {
          "internalType": "uint256",
          "name": "bannerId",
          "type": "uint256"
        }
      ],
      "name": "buySettlementForFreeByMightyCreator",
      "outputs": [],
      "stateMutability": "nonpayable",
      "type": "function"
    },
    {
      "inputs": [],
      "name": "era",
      "outputs": [
        {
          "internalType": "contract IEra",
          "name": "",
          "type": "address"
        }
      ],
      "stateMutability": "view",
      "type": "function"
    },
    {
      "inputs": [],
      "name": "eraNumber",
      "outputs": [
        {
          "internalType": "uint256",
          "name": "",
          "type": "uint256"
        }
      ],
      "stateMutability": "view",
      "type": "function"
    },
    {
      "inputs": [
        {
          "internalType": "uint256",
          "name": "timestamp",
          "type": "uint256"
        }
      ],
      "name": "getNewSettlementCost",
      "outputs": [
        {
          "internalType": "uint256",
          "name": "",
          "type": "uint256"
        }
      ],
      "stateMutability": "view",
      "type": "function"
    },
    {
      "inputs": [
        {
          "internalType": "bytes",
          "name": "initParams",
          "type": "bytes"
        }
      ],
      "name": "init",
      "outputs": [],
      "stateMutability": "nonpayable",
      "type": "function"
    },
    {
      "inputs": [],
      "name": "marketCreationTime",
      "outputs": [
        {
          "internalType": "uint256",
          "name": "",
          "type": "uint256"
        }
      ],
      "stateMutability": "view",
      "type": "function"
    },
    {
      "inputs": [],
      "name": "registry",
      "outputs": [
        {
          "internalType": "contract IRegistry",
          "name": "",
          "type": "address"
        }
      ],
      "stateMutability": "view",
      "type": "function"
    },
    {
      "inputs": [],
      "name": "relatedRegion",
      "outputs": [
        {
          "internalType": "contract IRegion",
          "name": "",
          "type": "address"
        }
      ],
      "stateMutability": "view",
      "type": "function"
    },
    {
      "inputs": [],
      "name": "updateState",
      "outputs": [],
      "stateMutability": "nonpayable",
      "type": "function"
    },
    {
      "inputs": [],
      "name": "world",
      "outputs": [
        {
          "internalType": "contract IWorld",
          "name": "",
          "type": "address"
        }
      ],
      "stateMutability": "view",
      "type": "function"
    },
    {
      "inputs": [],
      "name": "worldAssetFactory",
      "outputs": [
        {
          "internalType": "contract IWorldAssetFactory",
          "name": "",
          "type": "address"
        }
      ],
      "stateMutability": "view",
      "type": "function"
    }
  ],
  "bytecode": "0x6080604052348015600f57600080fd5b50612d3b8061001f6000396000f3fe6080604052600436106100bd5760003560e01c80637b1039991161006f5780637b103999146101995780637d884c74146101ae57806384ba89e3146101c3578063b0a0c9ce146101d8578063e6c15c99146101f8578063ece56a1a1461021f578063fbbdf4b01461023457600080fd5b80630b4e99c3146100c2578063143e55e0146100ea5780631d8557d71461011757806323aea47f1461012e57806330b67baa146101445780634ddf47d4146101595780636ce3c63f14610179575b600080fd5b3480156100ce57600080fd5b506100d7610247565b6040519081526020015b60405180910390f35b3480156100f657600080fd5b506100ff610284565b6040516001600160a01b0390911681526020016100e1565b34801561012357600080fd5b5061012c610308565b005b34801561013a57600080fd5b506100d760015481565b34801561015057600080fd5b506100ff6104fc565b34801561016557600080fd5b5061012c6101743660046128e3565b610506565b34801561018557600080fd5b5061012c6101943660046129b1565b61065a565b3480156101a557600080fd5b506100ff610bee565b3480156101ba57600080fd5b506100d7610c35565b3480156101cf57600080fd5b506100d7610c72565b3480156101e457600080fd5b506100d76101f33660046129dd565b610caf565b34801561020457600080fd5b506000546100ff90630100000090046001600160a01b031681565b34801561022b57600080fd5b506100ff611139565b61012c6102423660046129f6565b611180565b604080516020808252818301909252600091309183918291906020820181803683370190505090506020607a60208301853c602001519392505050565b600061028e6104fc565b6001600160a01b031663720a70bd6102a4610c35565b6040518263ffffffff1660e01b81526004016102c291815260200190565b602060405180830381865afa1580156102df573d6000803e3d6000fd5b505050506040513d601f19601f820116820180604052508101906103039190612a40565b905090565b60008060039054906101000a90046001600160a01b03166001600160a01b031663b2fd89336040518163ffffffff1660e01b8152600401602060405180830381865afa15801561035c573d6000803e3d6000fd5b505050506040513d601f19601f820116820180604052508101906103809190612a5d565b9050600061038c6104fc565b6001600160a01b031663a8d66c756040518163ffffffff1660e01b8152600401602060405180830381865afa1580156103c9573d6000803e3d6000fd5b505050506040513d601f19601f820116820180604052508101906103ed9190612a40565b905060006103f9611a72565b60405163a57415d960e01b81526001600160401b038516600482015290915081906001600160a01b0384169063a57415d990602401602060405180830381865afa15801561044b573d6000803e3d6000fd5b505050506040513d601f19601f8201168201806040525081019061046f9190612a7a565b0361047957505050565b816001600160a01b031663c29f8ac28461049284610caf565b6040516001600160e01b031960e085901b1681526001600160401b039092166004830152602482015260448101849052606401600060405180830381600087803b1580156104df57600080fd5b505af11580156104f3573d6000803e3d6000fd5b50505050505050565b6000610303611b7a565b600054610100900460ff16158080156105265750600054600160ff909116105b806105405750303b158015610540575060005460ff166001145b6105a85760405162461bcd60e51b815260206004820152602e60248201527f496e697469616c697a61626c653a20636f6e747261637420697320616c72656160448201526d191e481a5b9a5d1a585b1a5e995960921b60648201526084015b60405180910390fd5b6000805460ff1916600117905580156105cb576000805461ff0019166101001790555b6000828060200190518101906105e19190612a40565b600080546001600160a01b039092166301000000026301000000600160b81b031990921691909117905550426001558015610656576000805461ff0019169055604051600181527f7f26b83ff96e1f2b6a682f133852f6798a09c465da95921460cefb38474024989060200160405180910390a15b5050565b610662611bb7565b61066a610308565b60006106746104fc565b9050806001600160a01b0316633c8ca83d6040518163ffffffff1660e01b8152600401602060405180830381865afa1580156106b4573d6000803e3d6000fd5b505050506040513d601f19601f820116820180604052508101906106d89190612a7a565b42106106f75760405163389c286560e21b815260040160405180910390fd5b6000816001600160a01b031663183100fa6040518163ffffffff1660e01b8152600401602060405180830381865afa158015610737573d6000803e3d6000fd5b505050506040513d601f19601f8201168201806040525081019061075b9190612a40565b6001600160a01b0316636352211e846040518263ffffffff1660e01b815260040161078891815260200190565b602060405180830381865afa1580156107a5573d6000803e3d6000fd5b505050506040513d601f19601f820116820180604052508101906107c99190612a40565b9050336001600160a01b038216146107f457604051636e6ff5ad60e01b815260040160405180910390fd5b600080836001600160a01b031663f5f026a36040518163ffffffff1660e01b8152600401602060405180830381865afa158015610835573d6000803e3d6000fd5b505050506040513d601f19601f820116820180604052508101906108599190612a40565b604051630915dd5d60e01b81526001600160401b03881660048201526001600160a01b039190911690630915dd5d906024016040805180830381865afa1580156108a7573d6000803e3d6000fd5b505050506040513d601f19601f820116820180604052508101906108cb9190612aa8565b91509150806108ed576040516376bc71ab60e11b815260040160405180910390fd5b600060039054906101000a90046001600160a01b03166001600160a01b031663b2fd89336040518163ffffffff1660e01b8152600401602060405180830381865afa158015610940573d6000803e3d6000fd5b505050506040513d601f19601f820116820180604052508101906109649190612a5d565b6001600160401b0316826001600160401b0316146109955760405163ad75401b60e01b815260040160405180910390fd5b60006109a042610caf565b905060006109ac610284565b604051636b29d33560e11b81526001600160401b03808b16600483015286166024820152604481018990526001600160a01b03919091169063d653a66a906064016020604051808303816000875af1158015610a0c573d6000803e3d6000fd5b505050506040513d601f19601f82011682018060405250810190610a309190612a40565b90506000670de0b6b3a7640000610a478185612af3565b610a519190612b20565b9050866001600160a01b031663a8d66c756040518163ffffffff1660e01b8152600401602060405180830381865afa158015610a91573d6000803e3d6000fd5b505050506040513d601f19601f82011682018060405250810190610ab59190612a40565b6001600160a01b031663c29f8ac2600060039054906101000a90046001600160a01b03166001600160a01b031663b2fd89336040518163ffffffff1660e01b8152600401602060405180830381865afa158015610b16573d6000803e3d6000fd5b505050506040513d601f19601f82011682018060405250810190610b3a9190612a5d565b6040516001600160e01b031960e084901b1681526001600160401b03909116600482015260248101849052426044820152606401600060405180830381600087803b158015610b8857600080fd5b505af1158015610b9c573d6000803e3d6000fd5b5050604080516001600160a01b0386168152600060208201527f6586502516238f1ec2240c09c57f98f6900dc29cb7e1a9dde2cdef56b17c291e935001905060405180910390a1505050505050505050565b6000610bf86104fc565b6001600160a01b0316637b1039996040518163ffffffff1660e01b8152600401602060405180830381865afa1580156102df573d6000803e3d6000fd5b604080516020808252818301909252600091309183918291906020820181803683370190505090506020609a60208301853c602001519392505050565b604080516020808252818301909252600091309183918291906020820181803683370190505090506020605a60208301853c602001519392505050565b600081600003610cbd574291505b60008060039054906101000a90046001600160a01b03166001600160a01b031663b2fd89336040518163ffffffff1660e01b8152600401602060405180830381865afa158015610d11573d6000803e3d6000fd5b505050506040513d601f19601f82011682018060405250810190610d359190612a5d565b90506000610d416104fc565b90506000816001600160a01b031663a8d66c756040518163ffffffff1660e01b8152600401602060405180830381865afa158015610d83573d6000803e3d6000fd5b505050506040513d601f19601f82011682018060405250810190610da79190612a40565b604051631373443d60e31b81526001600160401b03851660048201529091506000906001600160a01b03831690639b9a21e890602401602060405180830381865afa158015610dfa573d6000803e3d6000fd5b505050506040513d601f19601f82011682018060405250810190610e1e9190612a7a565b60405163a57415d960e01b81526001600160401b03861660048201529091506000906001600160a01b0384169063a57415d990602401602060405180830381865afa158015610e71573d6000803e3d6000fd5b505050506040513d601f19601f82011682018060405250810190610e959190612a7a565b90506000610f07856001600160a01b0316633c8ca83d6040518163ffffffff1660e01b8152600401602060405180830381865afa158015610eda573d6000803e3d6000fd5b505050506040513d601f19601f82011682018060405250810190610efe9190612a7a565b60015484611c53565b90506000610f7689876001600160a01b03166344d9bc5f6040518163ffffffff1660e01b8152600401602060405180830381865afa158015610f4d573d6000803e3d6000fd5b505050506040513d601f19601f82011682018060405250810190610f719190612a7a565b611c7f565b90506000866001600160a01b031663f5f026a36040518163ffffffff1660e01b8152600401602060405180830381865afa158015610fb8573d6000803e3d6000fd5b505050506040513d601f19601f82011682018060405250810190610fdc9190612a40565b90506000846000036110875760405163335cf12b60e11b81526001600160401b038a1660048201526000906001600160a01b038416906366b9e25690602401602060405180830381865afa158015611038573d6000803e3d6000fd5b505050506040513d601f19601f8201168201806040525081019061105c9190612a7a565b9050611069600182612b34565b611074906002612c2e565b61107f906000612af3565b9150506110fb565b604051631970403960e01b81526001600160401b038a1660048201526001600160a01b03881690631970403990602401602060405180830381865afa1580156110d4573d6000803e3d6000fd5b505050506040513d601f19601f820116820180604052508101906110f89190612a7a565b90505b828410611110579a9950505050505050505050565b600061111d858589611ca1565b90506111298183611d65565b9c9b505050505050505050505050565b6000611143610bee565b6001600160a01b031663ece56a1a6040518163ffffffff1660e01b8152600401602060405180830381865afa1580156102df573d6000803e3d6000fd5b611188611e21565b60005462010000900460ff1615156001036111b6576040516306fda65d60e31b815260040160405180910390fd5b6000805462ff00001916620100001790556111cf610308565b60006111d96104fc565b90506000816001600160a01b031663183100fa6040518163ffffffff1660e01b8152600401602060405180830381865afa15801561121b573d6000803e3d6000fd5b505050506040513d601f19601f8201168201806040525081019061123f9190612a40565b6001600160a01b0316636352211e856040518263ffffffff1660e01b815260040161126c91815260200190565b602060405180830381865afa158015611289573d6000803e3d6000fd5b505050506040513d601f19601f820116820180604052508101906112ad9190612a40565b9050336001600160a01b038216146112d857604051636e6ff5ad60e01b815260040160405180910390fd5b6000826001600160a01b031663f5f026a36040518163ffffffff1660e01b8152600401602060405180830381865afa158015611318573d6000803e3d6000fd5b505050506040513d601f19601f8201168201806040525081019061133c9190612a40565b604051630915dd5d60e01b81526001600160401b038816600482015290915060009081906001600160a01b03841690630915dd5d906024016040805180830381865afa158015611390573d6000803e3d6000fd5b505050506040513d601f19601f820116820180604052508101906113b49190612aa8565b91509150806113d6576040516376bc71ab60e11b815260040160405180910390fd5b600060039054906101000a90046001600160a01b03166001600160a01b031663b2fd89336040518163ffffffff1660e01b8152600401602060405180830381865afa158015611429573d6000803e3d6000fd5b505050506040513d601f19601f8201168201806040525081019061144d9190612a5d565b6001600160401b0316826001600160401b03161461147e5760405163ad75401b60e01b815260040160405180910390fd5b600061148942610caf565b9050808710156114ac576040516372b861db60e01b815260040160405180910390fd5b60405163335cf12b60e11b81526001600160401b0384166004820152600090670de0b6b3a764000090611533906001600160a01b038816906366b9e25690602401602060405180830381865afa15801561150a573d6000803e3d6000fd5b505050506040513d601f19601f8201168201806040525081019061152e9190612a7a565b611f55565b61153d9084612af3565b6115479190612b20565b905060006115558284612b34565b90506000886001600160a01b031663c1897e346040518163ffffffff1660e01b8152600401602060405180830381865afa158015611597573d6000803e3d6000fd5b505050506040513d601f19601f820116820180604052508101906115bb9190612a40565b90506001600160a01b03811661171057833410156115ec5760405163e76f88bf60e01b815260040160405180910390fd5b60008434116115fc576000611606565b6116068534612b34565b90508015611618576116183382611fc5565b8215611689576116898a6001600160a01b03166366666aa96040518163ffffffff1660e01b8152600401602060405180830381865afa15801561165f573d6000803e3d6000fd5b505050506040513d601f19601f820116820180604052508101906116839190612a40565b84611fc5565b831561170a5760405163f791a01f60e01b81526001600160401b038816600482015261170a906001600160a01b038a169063f791a01f90602401602060405180830381865afa1580156116e0573d6000803e3d6000fd5b505050506040513d601f19601f820116820180604052508101906117049190612a40565b85611fc5565b50611808565b81156117835761178381338b6001600160a01b03166366666aa96040518163ffffffff1660e01b8152600401602060405180830381865afa158015611759573d6000803e3d6000fd5b505050506040513d601f19601f8201168201806040525081019061177d9190612a40565b856120de565b82156118085760405163f791a01f60e01b81526001600160401b038716600482015261180890829033906001600160a01b038b169063f791a01f90602401602060405180830381865afa1580156117de573d6000803e3d6000fd5b505050506040513d601f19601f820116820180604052508101906118029190612a40565b866120de565b6000611812610284565b6001600160a01b031663d653a66a8e898f6040518463ffffffff1660e01b8152600401611860939291906001600160401b039384168152919092166020820152604081019190915260600190565b6020604051808303816000875af115801561187f573d6000803e3d6000fd5b505050506040513d601f19601f820116820180604052508101906118a39190612a40565b90506000670de0b6b3a76400006118ba8188612af3565b6118c49190612b20565b90508a6001600160a01b031663a8d66c756040518163ffffffff1660e01b8152600401602060405180830381865afa158015611904573d6000803e3d6000fd5b505050506040513d601f19601f820116820180604052508101906119289190612a40565b6001600160a01b031663c29f8ac2600060039054906101000a90046001600160a01b03166001600160a01b031663b2fd89336040518163ffffffff1660e01b8152600401602060405180830381865afa158015611989573d6000803e3d6000fd5b505050506040513d601f19601f820116820180604052508101906119ad9190612a5d565b6040516001600160e01b031960e084901b1681526001600160401b03909116600482015260248101849052426044820152606401600060405180830381600087803b1580156119fb57600080fd5b505af1158015611a0f573d6000803e3d6000fd5b5050604080516001600160a01b0386168152602081018a90527f6586502516238f1ec2240c09c57f98f6900dc29cb7e1a9dde2cdef56b17c291e935001905060405180910390a150506000805462ff000019169055505050505050505050505050565b600080611a7d6104fc565b90506000816001600160a01b0316633c8ca83d6040518163ffffffff1660e01b8152600401602060405180830381865afa158015611abf573d6000803e3d6000fd5b505050506040513d601f19601f82011682018060405250810190611ae39190612a7a565b90506000826001600160a01b03166344d9bc5f6040518163ffffffff1660e01b8152600401602060405180830381865afa158015611b25573d6000803e3d6000fd5b505050506040513d601f19601f82011682018060405250810190611b499190612a7a565b90504282811015611b575750815b81600003611b6757949350505050565b611b71818361213e565b94505050505090565b604080516014808252818301909252600091309183918291906020820181803683370190505090506014602a60208301853c601401519392505050565b611bbf610bee565b6001600160a01b031663271530506040518163ffffffff1660e01b8152600401602060405180830381865afa158015611bfc573d6000803e3d6000fd5b505050506040513d601f19601f82011682018060405250810190611c209190612a40565b6001600160a01b0316336001600160a01b031614611c515760405163d136afd560e01b815260040160405180910390fd5b565b600081600003611c6e57611c67838561214d565b9050611c78565b611c67848361214d565b9392505050565b60008115611c9857611c91838361213e565b9050611c9b565b50815b92915050565b600080611cae8585612b34565b90506000611cbe610e1083612b20565b90506000611cfd611ccf600161215c565b611cf8611cde600a606461217a565b611cf3611ced600b600a61217a565b8a6121b4565b6123d7565b61242f565b90506000611d0b82846121b4565b90506000611d2383611d1e866001612c3a565b6121b4565b90506000611d3e611d36610e1088612c4d565b610e1061217a565b9050611d5783611cf8611d51868661242f565b84612462565b9a9950505050505050505050565b60006001607f1b600f84900b01611da9576002600160c01b03198212158015611d925750600160c01b8213155b611d9b57600080fd5b506000819003603f1b611c9b565b60008084600f0b1215611dc157836000039350600190505b6000831215611dd35760009290920391155b6000611ddf8585612498565b90508115611e0457600160ff1b811115611df857600080fd5b6000039150611c9b9050565b6001600160ff1b03811115611e1857600080fd5b9150611c9b9050565b6000611e2b6104fc565b90506000816001600160a01b0316633c8ca83d6040518163ffffffff1660e01b8152600401602060405180830381865afa158015611e6d573d6000803e3d6000fd5b505050506040513d601f19601f82011682018060405250810190611e919190612a7a565b90506000826001600160a01b03166344d9bc5f6040518163ffffffff1660e01b8152600401602060405180830381865afa158015611ed3573d6000803e3d6000fd5b505050506040513d601f19601f82011682018060405250810190611ef79190612a7a565b9050811580611f0557508142105b15611f235760405163a00eda6960e01b815260040160405180910390fd5b8015801590611f325750804210155b15611f505760405163a00eda6960e01b815260040160405180910390fd5b505050565b600081600103611f6e575067058d15e176280000919050565b81600203611f8557506702c68af0bb140000919050565b81600303611f9c575067016345785d8a0000919050565b81600403611fac57506000919050565b60405163ea3b0abb60e01b815260040160405180910390fd5b804710156120155760405162461bcd60e51b815260206004820152601d60248201527f416464726573733a20696e73756666696369656e742062616c616e6365000000604482015260640161059f565b6000826001600160a01b03168260405160006040518083038185875af1925050503d8060008114612062576040519150601f19603f3d011682016040523d82523d6000602084013e612067565b606091505b5050905080611f505760405162461bcd60e51b815260206004820152603a60248201527f416464726573733a20756e61626c6520746f2073656e642076616c75652c207260448201527f6563697069656e74206d61792068617665207265766572746564000000000000606482015260840161059f565b604080516001600160a01b0385811660248301528416604482015260648082018490528251808303909101815260849091019091526020810180516001600160e01b03166323b872dd60e01b179052612138908590612503565b50505050565b6000818310611c985750919050565b6000818311611c985781611c78565b6000677fffffffffffffff82111561217357600080fd5b5060401b90565b60008160000361218957600080fd5b600061219584846125d8565b905060016001607f1b036001600160801b0382161115611c7857600080fd5b600080600084600f0b1280156121cd5750826001166001145b905060008085600f0b126121e157846121e6565b846000035b6001600160801b03169050600160801b600160401b821161227b57603f82901b91505b841561227357600185161561221e578102607f1c5b908002607f1c906002851615612234578102607f1c5b908002607f1c90600485161561224a578102607f1c5b908002607f1c906008851615612260578102607f1c5b60049490941c93908002607f1c90612209565b60401c612391565b603f600160601b8310156122955760209290921b91601f19015b600160701b8310156122ad5760109290921b91600f19015b600160781b8310156122c55760089290921b91600719015b6001607c1b8310156122dd5760049290921b91600319015b6001607e1b8310156122f55760029290921b91600119015b6001607f1b83101561230d5760019290921b91600019015b60005b861561237a576040821061232357600080fd5b600187161561234957918302607f1c918101600160801b83111561234957600192831c92015b928002607f1c9260019190911b90600160801b841061236e57600193841c9391909101905b600187901c9650612310565b6040811061238757600080fd5b6040039190911c90505b60008361239e57816123a3565b816000035b905060016001607f1b031981128015906123c4575060016001607f1b038113155b6123cd57600080fd5b9695505050505050565b600081600f0b6000036123e957600080fd5b600082600f0b604085600f0b901b8161240457612404612b0a565b05905060016001607f1b03198112801590612426575060016001607f1b038113155b611c7857600080fd5b6000600f82810b9084900b0360016001607f1b03198112801590612426575060016001607f1b03811315611c7857600080fd5b6000600f83810b9083900b0260401d60016001607f1b03198112801590612426575060016001607f1b03811315611c7857600080fd5b6000816000036124aa57506000611c9b565b600083600f0b12156124bb57600080fd5b600f83900b6001600160801b038316810260401c90608084901c026001600160c01b038111156124ea57600080fd5b60401b81198111156124fb57600080fd5b019392505050565b6000612558826040518060400160405280602081526020017f5361666545524332303a206c6f772d6c6576656c2063616c6c206661696c6564815250856001600160a01b031661273d9092919063ffffffff16565b90508051600014806125795750808060200190518101906125799190612c61565b611f505760405162461bcd60e51b815260206004820152602a60248201527f5361666545524332303a204552433230206f7065726174696f6e20646964206e6044820152691bdd081cdd58d8d9595960b21b606482015260840161059f565b6000816000036125e757600080fd5b60006001600160c01b0384116126125782604085901b8161260a5761260a612b0a565b049050612729565b60c084811c640100000000811061262b576020918201911c5b62010000811061263d576010918201911c5b610100811061264e576008918201911c5b6010811061265e576004918201911c5b6004811061266e576002918201911c5b6002811061267d576001820191505b60bf820360018603901c6001018260ff0387901b8161269e5761269e612b0a565b0492506001600160801b038311156126b557600080fd5b608085901c83026001600160801b038616840260c088901c604089901b828110156126e1576001820391505b608084901b929003828110156126f8576001820391505b829003608084901c821461270e5761270e612c7c565b88818161271d5761271d612b0a565b04870196505050505050505b6001600160801b03811115611c7857600080fd5b606061274c8484600085612754565b949350505050565b6060824710156127b55760405162461bcd60e51b815260206004820152602660248201527f416464726573733a20696e73756666696369656e742062616c616e636520666f6044820152651c8818d85b1b60d21b606482015260840161059f565b600080866001600160a01b031685876040516127d19190612cb6565b60006040518083038185875af1925050503d806000811461280e576040519150601f19603f3d011682016040523d82523d6000602084013e612813565b606091505b50915091506128248783838761282f565b979650505050505050565b6060831561289e578251600003612897576001600160a01b0385163b6128975760405162461bcd60e51b815260206004820152601d60248201527f416464726573733a2063616c6c20746f206e6f6e2d636f6e7472616374000000604482015260640161059f565b508161274c565b61274c83838151156128b35781518083602001fd5b8060405162461bcd60e51b815260040161059f9190612cd2565b634e487b7160e01b600052604160045260246000fd5b6000602082840312156128f557600080fd5b81356001600160401b0381111561290b57600080fd5b8201601f8101841361291c57600080fd5b80356001600160401b03811115612935576129356128cd565b604051601f8201601f19908116603f011681016001600160401b0381118282101715612963576129636128cd565b60405281815282820160200186101561297b57600080fd5b81602084016020830137600091810160200191909152949350505050565b6001600160401b03811681146129ae57600080fd5b50565b600080604083850312156129c457600080fd5b82356129cf81612999565b946020939093013593505050565b6000602082840312156129ef57600080fd5b5035919050565b600080600060608486031215612a0b57600080fd5b8335612a1681612999565b95602085013595506040909401359392505050565b6001600160a01b03811681146129ae57600080fd5b600060208284031215612a5257600080fd5b8151611c7881612a2b565b600060208284031215612a6f57600080fd5b8151611c7881612999565b600060208284031215612a8c57600080fd5b5051919050565b80518015158114612aa357600080fd5b919050565b60008060408385031215612abb57600080fd5b8251612ac681612999565b9150612ad460208401612a93565b90509250929050565b634e487b7160e01b600052601160045260246000fd5b8082028115828204841417611c9b57611c9b612add565b634e487b7160e01b600052601260045260246000fd5b600082612b2f57612b2f612b0a565b500490565b81810381811115611c9b57611c9b612add565b6001815b6001841115612b8257808504811115612b6657612b66612add565b6001841615612b7457908102905b60019390931c928002612b4b565b935093915050565b600082612b9957506001611c9b565b81612ba657506000611c9b565b8160018114612bbc5760028114612bc657612be2565b6001915050611c9b565b60ff841115612bd757612bd7612add565b50506001821b611c9b565b5060208310610133831016604e8410600b8410161715612c05575081810a611c9b565b612c126000198484612b47565b8060001904821115612c2657612c26612add565b029392505050565b6000611c788383612b8a565b80820180821115611c9b57611c9b612add565b600082612c5c57612c5c612b0a565b500690565b600060208284031215612c7357600080fd5b611c7882612a93565b634e487b7160e01b600052600160045260246000fd5b60005b83811015612cad578181015183820152602001612c95565b50506000910152565b60008251612cc8818460208701612c92565b9190910192915050565b6020815260008251806020840152612cf1816040850160208701612c92565b601f01601f1916919091016040019291505056fea2646970667358221220c6f168e94a5fadf0cfef2cdb48898e4152276edf18776c78e28c382486461a5364736f6c634300081a0033",
  "linkReferences": {},
  "deployedLinkReferences": {}
}