{
  "_format": "hh-sol-artifact-1",
  "contractName": "SettlementsListings",
  "sourceName": "contracts/external/SettlementsListings.sol",
  "abi": [
    {
      "inputs": [
        {
          "internalType": "address",
          "name": "bannersAddress",
          "type": "address"
        },
        {
          "internalType": "address",
          "name": "worldAddress",
          "type": "address"
        }
      ],
      "stateMutability": "nonpayable",
      "type": "constructor"
    },
    {
      "inputs": [],
      "name": "CannotAcceptExpiredOrder",
      "type": "error"
    },
    {
      "inputs": [],
      "name": "CannotAcceptNotNewOrder",
      "type": "error"
    },
    {
      "inputs": [],
      "name": "CannotAcceptNotStartedOrder",
      "type": "error"
    },
    {
      "inputs": [],
      "name": "CannotAcceptOrderByNotAllowedAddress",
      "type": "error"
    },
    {
      "inputs": [],
      "name": "CannotAcceptOrderByProvidingNotExactPriceForIt",
      "type": "error"
    },
    {
      "inputs": [],
      "name": "CannotAcceptOrderWithSharesToReceiveLowerThanSpecified",
      "type": "error"
    },
    {
      "inputs": [],
      "name": "CannotCancelActiveOrderIfCallerNotOrderOwnerAndOrderOwnerOwnsBanner",
      "type": "error"
    },
    {
      "inputs": [],
      "name": "CannotCancelNonNewOrder",
      "type": "error"
    },
    {
      "inputs": [],
      "name": "CannotCreateOrderForBannerMoreThanOnce",
      "type": "error"
    },
    {
      "inputs": [],
      "name": "CannotCreateOrderForNotOwnedBanner",
      "type": "error"
    },
    {
      "inputs": [],
      "name": "CannotModifyNonNewOrder",
      "type": "error"
    },
    {
      "inputs": [],
      "name": "CannotModifyOrderByNonOrderOwner",
      "type": "error"
    },
    {
      "anonymous": false,
      "inputs": [
        {
          "indexed": false,
          "internalType": "uint256",
          "name": "orderId",
          "type": "uint256"
        }
      ],
      "name": "OrderAccepted",
      "type": "event"
    },
    {
      "anonymous": false,
      "inputs": [
        {
          "indexed": false,
          "internalType": "uint256",
          "name": "orderId",
          "type": "uint256"
        }
      ],
      "name": "OrderCancelled",
      "type": "event"
    },
    {
      "anonymous": false,
      "inputs": [
        {
          "indexed": false,
          "internalType": "uint256",
          "name": "orderId",
          "type": "uint256"
        },
        {
          "indexed": false,
          "internalType": "uint256",
          "name": "bannerId",
          "type": "uint256"
        },
        {
          "indexed": false,
          "internalType": "address",
          "name": "sellingTokenAddress",
          "type": "address"
        },
        {
          "indexed": false,
          "internalType": "uint256",
          "name": "price",
          "type": "uint256"
        },
        {
          "indexed": false,
          "internalType": "address",
          "name": "allowedAddressToAcceptOrder",
          "type": "address"
        },
        {
          "indexed": false,
          "internalType": "uint256",
          "name": "orderStartTime",
          "type": "uint256"
        },
        {
          "indexed": false,
          "internalType": "uint256",
          "name": "orderEndTime",
          "type": "uint256"
        }
      ],
      "name": "OrderCreated",
      "type": "event"
    },
    {
      "anonymous": false,
      "inputs": [
        {
          "indexed": false,
          "internalType": "uint256",
          "name": "orderId",
          "type": "uint256"
        },
        {
          "indexed": false,
          "internalType": "address",
          "name": "sellingTokenAddress",
          "type": "address"
        },
        {
          "indexed": false,
          "internalType": "uint256",
          "name": "price",
          "type": "uint256"
        },
        {
          "indexed": false,
          "internalType": "address",
          "name": "allowedAddressToAcceptOrder",
          "type": "address"
        },
        {
          "indexed": false,
          "internalType": "uint256",
          "name": "orderStartTime",
          "type": "uint256"
        },
        {
          "indexed": false,
          "internalType": "uint256",
          "name": "orderEndTime",
          "type": "uint256"
        }
      ],
      "name": "OrderModified",
      "type": "event"
    },
    {
      "inputs": [
        {
          "internalType": "uint256",
          "name": "orderId",
          "type": "uint256"
        },
        {
          "components": [
            {
              "internalType": "bytes32",
              "name": "buildingTypeId",
              "type": "bytes32"
            },
            {
              "internalType": "uint256",
              "name": "minSharesAmount",
              "type": "uint256"
            }
          ],
          "internalType": "struct SettlementsListings.SharesInfo[]",
          "name": "minBuildingsSharesToReceive",
          "type": "tuple[]"
        }
      ],
      "name": "acceptOrder",
      "outputs": [],
      "stateMutability": "payable",
      "type": "function"
    },
    {
      "inputs": [],
      "name": "banners",
      "outputs": [
        {
          "internalType": "contract IERC721Enumerable",
          "name": "",
          "type": "address"
        }
      ],
      "stateMutability": "view",
      "type": "function"
    },
    {
      "inputs": [
        {
          "internalType": "uint256",
          "name": "",
          "type": "uint256"
        }
      ],
      "name": "bannersOrders",
      "outputs": [
        {
          "internalType": "uint256",
          "name": "",
          "type": "uint256"
        }
      ],
      "stateMutability": "view",
      "type": "function"
    },
    {
      "inputs": [
        {
          "internalType": "uint256",
          "name": "orderId",
          "type": "uint256"
        }
      ],
      "name": "cancelOrder",
      "outputs": [],
      "stateMutability": "nonpayable",
      "type": "function"
    },
    {
      "inputs": [
        {
          "internalType": "uint256",
          "name": "bannerId",
          "type": "uint256"
        },
        {
          "internalType": "address",
          "name": "sellingTokenAddress",
          "type": "address"
        },
        {
          "internalType": "uint256",
          "name": "price",
          "type": "uint256"
        },
        {
          "internalType": "address",
          "name": "allowedAddressToAcceptOrder",
          "type": "address"
        },
        {
          "internalType": "uint256",
          "name": "orderStartTime",
          "type": "uint256"
        },
        {
          "internalType": "uint256",
          "name": "orderEndTime",
          "type": "uint256"
        }
      ],
      "name": "createOrder",
      "outputs": [],
      "stateMutability": "nonpayable",
      "type": "function"
    },
    {
      "inputs": [],
      "name": "lastOrderId",
      "outputs": [
        {
          "internalType": "uint256",
          "name": "",
          "type": "uint256"
        }
      ],
      "stateMutability": "view",
      "type": "function"
    },
    {
      "inputs": [
        {
          "internalType": "uint256",
          "name": "orderId",
          "type": "uint256"
        },
        {
          "internalType": "address",
          "name": "sellingTokenAddress",
          "type": "address"
        },
        {
          "internalType": "uint256",
          "name": "price",
          "type": "uint256"
        },
        {
          "internalType": "address",
          "name": "allowedAddressToAcceptOrder",
          "type": "address"
        },
        {
          "internalType": "uint256",
          "name": "orderStartTime",
          "type": "uint256"
        },
        {
          "internalType": "uint256",
          "name": "orderEndTime",
          "type": "uint256"
        }
      ],
      "name": "modifyOrder",
      "outputs": [],
      "stateMutability": "nonpayable",
      "type": "function"
    },
    {
      "inputs": [
        {
          "internalType": "uint256",
          "name": "",
          "type": "uint256"
        }
      ],
      "name": "orders",
      "outputs": [
        {
          "internalType": "address",
          "name": "orderOwner",
          "type": "address"
        },
        {
          "internalType": "address",
          "name": "sellingTokenAddress",
          "type": "address"
        },
        {
          "internalType": "address",
          "name": "allowedAddressToAcceptOrder",
          "type": "address"
        },
        {
          "internalType": "uint256",
          "name": "orderStartTime",
          "type": "uint256"
        },
        {
          "internalType": "uint256",
          "name": "orderEndTime",
          "type": "uint256"
        },
        {
          "internalType": "uint256",
          "name": "price",
          "type": "uint256"
        },
        {
          "internalType": "uint256",
          "name": "bannerId",
          "type": "uint256"
        },
        {
          "internalType": "enum SettlementsListings.OrderStatus",
          "name": "status",
          "type": "uint8"
        }
      ],
      "stateMutability": "view",
      "type": "function"
    },
    {
      "inputs": [],
      "name": "world",
      "outputs": [
        {
          "internalType": "contract IWorld",
          "name": "",
          "type": "address"
        }
      ],
      "stateMutability": "view",
      "type": "function"
    }
  ],
  "bytecode": "0x60806040526000600555348015601457600080fd5b506040516117533803806117538339810160408190526031916081565b6001600081905580546001600160a01b039384166001600160a01b0319918216179091556002805492909316911617905560af565b80516001600160a01b0381168114607c57600080fd5b919050565b60008060408385031215609357600080fd5b609a836066565b915060a6602084016066565b90509250929050565b611695806100be6000396000f3fe6080604052600436106100865760003560e01c80635662ecc7116100595780635662ecc714610145578063599a9aec1461015b578063a85c38ef1461017b578063aa822eb714610201578063efcc4c501461022157600080fd5b806330b67baa1461008b578063363017cd146100c857806340d9456b14610103578063514fcac714610123575b600080fd5b34801561009757600080fd5b506002546100ab906001600160a01b031681565b6040516001600160a01b0390911681526020015b60405180910390f35b3480156100d457600080fd5b506100f56100e3366004611246565b60046020526000908152604090205481565b6040519081526020016100bf565b34801561010f57600080fd5b506001546100ab906001600160a01b031681565b34801561012f57600080fd5b5061014361013e366004611246565b610234565b005b34801561015157600080fd5b506100f560055481565b34801561016757600080fd5b50610143610176366004611277565b610394565b34801561018757600080fd5b506101ed610196366004611246565b6003602081905260009182526040909120805460018201546002830154938301546004840154600585015460068601546007909601546001600160a01b039586169794861696959094169492939192909160ff1688565b6040516100bf9897969594939291906112e9565b34801561020d57600080fd5b5061014361021c366004611277565b6105d6565b61014361022f3660046113c7565b6106ed565b600081815260036020526040808220600154600682015492516331a9108f60e11b81529193926001600160a01b0390911691636352211e9161027c9160040190815260200190565b602060405180830381865afa158015610299573d6000803e3d6000fd5b505050506040513d601f19601f820116820180604052508101906102bd91906114aa565b90506001600783015460ff1660038111156102da576102da6112d3565b146102f857604051632f7bd1fd60e11b815260040160405180910390fd5b81546001600160a01b03908116338114918316148115826103165750805b156103345760405163ce86912760e01b815260040160405180910390fd5b60078401805460ff19166002179055600684015460009081526004602090815260408083209290925590518681527f61b9399f2f0f32ca39ce8d7be32caed5ec22fe07a6daba3a467ed479ec606582910160405180910390a15050505050565b6001546040516331a9108f60e11b8152600481018890526000916001600160a01b031690636352211e90602401602060405180830381865afa1580156103de573d6000803e3d6000fd5b505050506040513d601f19601f8201168201806040525081019061040291906114aa565b6000888152600460209081526040808320548084526003909252909120919250906001600782015460ff16600381111561043e5761043e6112d3565b148015610458575080546001600160a01b03848116911614155b156104665761046682610234565b6001600160a01b038316331461048f57604051630da8190160e11b815260040160405180910390fd5b600089815260046020526040902054156104bc5760405163a0d2b8ad60e01b815260040160405180910390fd5b6005546104ca9060016114ce565b600581815560008b81526004602090815260408083208590559382526003905291909120600681018b90558054336001600160a01b0319918216178255600180830180549092166001600160a01b038d161790915591810189905560078101805491929160ff1916828002179055506002810180546001600160a01b0319166001600160a01b03898116918217909255600383018890556004830187905560055460408051918252602082018e9052928c1692810192909252606082018a9052608082015260a0810187905260c081018690527f64a51624f531aae4e5d86d31192645e61feee4523e2544113240356c630f4e109060e00160405180910390a150505050505050505050565b60008681526003602052604090206001600782015460ff1660038111156105ff576105ff6112d3565b1461061d5760405163103f438560e21b815260040160405180910390fd5b80546001600160a01b031633146106475760405163ac26d10760e01b815260040160405180910390fd5b6001810180546001600160a01b038881166001600160a01b03199283168117909355600584018890556002840180549188169190921681179091556003830185905560048301849055604080518a81526020810193909352820187905260608201526080810184905260a081018390527fd46c0f1a97fc5abfe74ee09bcdcc14a0f7a1db6e4b80c067f13501aee513493b9060c00160405180910390a150505050505050565b6106f5610e05565b60008281526003602052604090206001600782015460ff16600381111561071e5761071e6112d3565b1461073c5760405163c3cb1a5560e01b815260040160405180910390fd5b60028101546001600160a01b031615801590610765575060028101546001600160a01b03163314155b1561078257604051629d5d6b60e51b815260040160405180910390fd5b6003810154158015906107985750806003015442105b156107b657604051630eb5277f60e41b815260040160405180910390fd5b6004810154158015906107cc5750806004015442115b156107ea576040516311ea326b60e11b815260040160405180910390fd5b60018101546001600160a01b0316158015610842578160050154341461082357604051637edb6f8d60e01b815260040160405180910390fd5b8154600583015461083d916001600160a01b031690610e63565b610868565b600182015482546005840154610868926001600160a01b03908116923392911690610f81565b60015482546006840154604051632142170760e11b81526001600160a01b03928316600482015233602482015260448101919091529116906342842e0e90606401600060405180830381600087803b1580156108c357600080fd5b505af11580156108d7573d6000803e3d6000fd5b505050506000600260009054906101000a90046001600160a01b03166001600160a01b031663e4e940f06040518163ffffffff1660e01b8152600401602060405180830381865afa158015610930573d6000803e3d6000fd5b505050506040513d601f19601f8201168201806040525081019061095491906114aa565b6002546040805163704f63a160e01b815290519293506000926001600160a01b039092169163720a70bd91839163704f63a1916004808201926020929091908290030181865afa1580156109ac573d6000803e3d6000fd5b505050506040513d601f19601f820116820180604052508101906109d091906114f5565b6040518263ffffffff1660e01b81526004016109ee91815260200190565b602060405180830381865afa158015610a0b573d6000803e3d6000fd5b505050506040513d601f19601f82011682018060405250810190610a2f91906114aa565b90506000816001600160a01b031663ebe63ec886600601546040518263ffffffff1660e01b8152600401610a6591815260200190565b602060405180830381865afa158015610a82573d6000803e3d6000fd5b505050506040513d601f19601f82011682018060405250810190610aa691906114aa565b90506000865167ffffffffffffffff811115610ac457610ac4611357565b604051908082528060200260200182016040528015610aed578160200160208202803683370190505b5090506000875167ffffffffffffffff811115610b0c57610b0c611357565b604051908082528060200260200182016040528015610b35578160200160208202803683370190505b50905060005b8851811015610d1e576000898281518110610b5857610b5861150e565b602002602001015190506000856001600160a01b0316636e5cf15c83600001516040518263ffffffff1660e01b8152600401610b9691815260200190565b602060405180830381865afa158015610bb3573d6000803e3d6000fd5b505050506040513d601f19601f82011682018060405250810190610bd791906114aa565b6001600160a01b031663c9c0df616040518163ffffffff1660e01b8152600401602060405180830381865afa158015610c14573d6000803e3d6000fd5b505050506040513d601f19601f82011682018060405250810190610c3891906114f5565b8a54604051627eeac760e11b81526001600160a01b03918216600482015260248101839052919250600091908a169062fdd58e90604401602060405180830381865afa158015610c8c573d6000803e3d6000fd5b505050506040513d601f19601f82011682018060405250810190610cb091906114f5565b90508260200151811015610cd65760405162b04f4360e51b815260040160405180910390fd5b81868581518110610ce957610ce961150e565b60200260200101818152505080858581518110610d0857610d0861150e565b6020908102919091010152505050600101610b3b565b50865460408051600081526020810191829052631759616b60e11b9091526001600160a01b0387811692632eb2c2d692610d659290911690339087908790602481016115b0565b600060405180830381600087803b158015610d7f57600080fd5b505af1158015610d93573d6000803e3d6000fd5b5050505060078701805460ff19166003179055600687015460009081526004602090815260408083209290925590518a81527f262f7ad1922bdcf27203585ef3238620589ce6f74721d45bff6897a19e4f94a1910160405180910390a150505050505050610e016001600055565b5050565b600260005403610e5c5760405162461bcd60e51b815260206004820152601f60248201527f5265656e7472616e637947756172643a207265656e7472616e742063616c6c0060448201526064015b60405180910390fd5b6002600055565b80471015610eb35760405162461bcd60e51b815260206004820152601d60248201527f416464726573733a20696e73756666696369656e742062616c616e63650000006044820152606401610e53565b6000826001600160a01b03168260405160006040518083038185875af1925050503d8060008114610f00576040519150601f19603f3d011682016040523d82523d6000602084013e610f05565b606091505b5050905080610f7c5760405162461bcd60e51b815260206004820152603a60248201527f416464726573733a20756e61626c6520746f2073656e642076616c75652c207260448201527f6563697069656e74206d617920686176652072657665727465640000000000006064820152608401610e53565b505050565b604080516001600160a01b0385811660248301528416604482015260648082018490528251808303909101815260849091019091526020810180516001600160e01b03166323b872dd60e01b179052610fdb908590610fe1565b50505050565b6000611036826040518060400160405280602081526020017f5361666545524332303a206c6f772d6c6576656c2063616c6c206661696c6564815250856001600160a01b03166110b69092919063ffffffff16565b9050805160001480611057575080806020019051810190611057919061160e565b610f7c5760405162461bcd60e51b815260206004820152602a60248201527f5361666545524332303a204552433230206f7065726174696f6e20646964206e6044820152691bdd081cdd58d8d9595960b21b6064820152608401610e53565b60606110c584846000856110cd565b949350505050565b60608247101561112e5760405162461bcd60e51b815260206004820152602660248201527f416464726573733a20696e73756666696369656e742062616c616e636520666f6044820152651c8818d85b1b60d21b6064820152608401610e53565b600080866001600160a01b0316858760405161114a9190611630565b60006040518083038185875af1925050503d8060008114611187576040519150601f19603f3d011682016040523d82523d6000602084013e61118c565b606091505b509150915061119d878383876111a8565b979650505050505050565b60608315611217578251600003611210576001600160a01b0385163b6112105760405162461bcd60e51b815260206004820152601d60248201527f416464726573733a2063616c6c20746f206e6f6e2d636f6e74726163740000006044820152606401610e53565b50816110c5565b6110c5838381511561122c5781518083602001fd5b8060405162461bcd60e51b8152600401610e53919061164c565b60006020828403121561125857600080fd5b5035919050565b6001600160a01b038116811461127457600080fd5b50565b60008060008060008060c0878903121561129057600080fd5b8635955060208701356112a28161125f565b94506040870135935060608701356112b98161125f565b9598949750929560808101359460a0909101359350915050565b634e487b7160e01b600052602160045260246000fd5b6001600160a01b038981168252888116602083015287166040820152606081018690526080810185905260a0810184905260c0810183905261010081016004831061134457634e487b7160e01b600052602160045260246000fd5b8260e08301529998505050505050505050565b634e487b7160e01b600052604160045260246000fd5b6040805190810167ffffffffffffffff8111828210171561139057611390611357565b60405290565b604051601f8201601f1916810167ffffffffffffffff811182821017156113bf576113bf611357565b604052919050565b600080604083850312156113da57600080fd5b82359150602083013567ffffffffffffffff8111156113f857600080fd5b8301601f8101851361140957600080fd5b803567ffffffffffffffff81111561142357611423611357565b61143260208260051b01611396565b8082825260208201915060208360061b85010192508783111561145457600080fd5b6020840193505b8284101561149c576040848903121561147357600080fd5b61147b61136d565b8435815260208086013581830152908352604090940193919091019061145b565b809450505050509250929050565b6000602082840312156114bc57600080fd5b81516114c78161125f565b9392505050565b808201808211156114ef57634e487b7160e01b600052601160045260246000fd5b92915050565b60006020828403121561150757600080fd5b5051919050565b634e487b7160e01b600052603260045260246000fd5b600081518084526020840193506020830160005b82811015611556578151865260209586019590910190600101611538565b5093949350505050565b60005b8381101561157b578181015183820152602001611563565b50506000910152565b6000815180845261159c816020860160208601611560565b601f01601f19169290920160200192915050565b6001600160a01b0386811682528516602082015260a0604082018190526000906115dc90830186611524565b82810360608401526115ee8186611524565b905082810360808401526116028185611584565b98975050505050505050565b60006020828403121561162057600080fd5b815180151581146114c757600080fd5b60008251611642818460208701611560565b9190910192915050565b6020815260006114c7602083018461158456fea26469706673582212207a3e7ff464114208c7328ec869ab30efaf33f8fc1de2bbf764363bb643d1977f64736f6c634300081a0033",
  "linkReferences": {},
  "deployedLinkReferences": {}
}