{
  "_format": "hh-sol-artifact-1",
  "contractName": "Workers",
  "sourceName": "contracts/core/assets/tokens/workers/Workers.sol",
  "abi": [
    {
      "inputs": [],
      "stateMutability": "nonpayable",
      "type": "constructor"
    },
    {
      "inputs": [],
      "name": "OnlyActiveGame",
      "type": "error"
    },
    {
      "inputs": [],
      "name": "OnlyMightyCreator",
      "type": "error"
    },
    {
      "inputs": [],
      "name": "OnlyWorldAssetFromSameEra",
      "type": "error"
    },
    {
      "inputs": [],
      "name": "WorkersTransferInvalidParams",
      "type": "error"
    },
    {
      "anonymous": false,
      "inputs": [
        {
          "indexed": true,
          "internalType": "address",
          "name": "owner",
          "type": "address"
        },
        {
          "indexed": true,
          "internalType": "address",
          "name": "spender",
          "type": "address"
        },
        {
          "indexed": false,
          "internalType": "uint256",
          "name": "value",
          "type": "uint256"
        }
      ],
      "name": "Approval",
      "type": "event"
    },
    {
      "anonymous": false,
      "inputs": [
        {
          "indexed": false,
          "internalType": "uint8",
          "name": "version",
          "type": "uint8"
        }
      ],
      "name": "Initialized",
      "type": "event"
    },
    {
      "anonymous": false,
      "inputs": [
        {
          "indexed": true,
          "internalType": "address",
          "name": "from",
          "type": "address"
        },
        {
          "indexed": true,
          "internalType": "address",
          "name": "to",
          "type": "address"
        },
        {
          "indexed": false,
          "internalType": "uint256",
          "name": "value",
          "type": "uint256"
        }
      ],
      "name": "Transfer",
      "type": "event"
    },
    {
      "inputs": [
        {
          "internalType": "address",
          "name": "owner",
          "type": "address"
        },
        {
          "internalType": "address",
          "name": "spender",
          "type": "address"
        }
      ],
      "name": "allowance",
      "outputs": [
        {
          "internalType": "uint256",
          "name": "",
          "type": "uint256"
        }
      ],
      "stateMutability": "view",
      "type": "function"
    },
    {
      "inputs": [
        {
          "internalType": "address",
          "name": "spender",
          "type": "address"
        },
        {
          "internalType": "uint256",
          "name": "amount",
          "type": "uint256"
        }
      ],
      "name": "approve",
      "outputs": [
        {
          "internalType": "bool",
          "name": "",
          "type": "bool"
        }
      ],
      "stateMutability": "nonpayable",
      "type": "function"
    },
    {
      "inputs": [],
      "name": "assetGroupId",
      "outputs": [
        {
          "internalType": "bytes32",
          "name": "",
          "type": "bytes32"
        }
      ],
      "stateMutability": "view",
      "type": "function"
    },
    {
      "inputs": [],
      "name": "assetTypeId",
      "outputs": [
        {
          "internalType": "bytes32",
          "name": "",
          "type": "bytes32"
        }
      ],
      "stateMutability": "view",
      "type": "function"
    },
    {
      "inputs": [
        {
          "internalType": "address",
          "name": "account",
          "type": "address"
        }
      ],
      "name": "balanceOf",
      "outputs": [
        {
          "internalType": "uint256",
          "name": "",
          "type": "uint256"
        }
      ],
      "stateMutability": "view",
      "type": "function"
    },
    {
      "inputs": [
        {
          "internalType": "uint256",
          "name": "amount",
          "type": "uint256"
        }
      ],
      "name": "burn",
      "outputs": [],
      "stateMutability": "nonpayable",
      "type": "function"
    },
    {
      "inputs": [
        {
          "internalType": "address",
          "name": "from",
          "type": "address"
        },
        {
          "internalType": "uint256",
          "name": "amount",
          "type": "uint256"
        }
      ],
      "name": "burnFrom",
      "outputs": [],
      "stateMutability": "nonpayable",
      "type": "function"
    },
    {
      "inputs": [],
      "name": "decimals",
      "outputs": [
        {
          "internalType": "uint8",
          "name": "",
          "type": "uint8"
        }
      ],
      "stateMutability": "view",
      "type": "function"
    },
    {
      "inputs": [
        {
          "internalType": "address",
          "name": "spender",
          "type": "address"
        },
        {
          "internalType": "uint256",
          "name": "subtractedValue",
          "type": "uint256"
        }
      ],
      "name": "decreaseAllowance",
      "outputs": [
        {
          "internalType": "bool",
          "name": "",
          "type": "bool"
        }
      ],
      "stateMutability": "nonpayable",
      "type": "function"
    },
    {
      "inputs": [],
      "name": "era",
      "outputs": [
        {
          "internalType": "contract IEra",
          "name": "",
          "type": "address"
        }
      ],
      "stateMutability": "view",
      "type": "function"
    },
    {
      "inputs": [],
      "name": "eraNumber",
      "outputs": [
        {
          "internalType": "uint256",
          "name": "",
          "type": "uint256"
        }
      ],
      "stateMutability": "view",
      "type": "function"
    },
    {
      "inputs": [
        {
          "internalType": "address",
          "name": "spender",
          "type": "address"
        },
        {
          "internalType": "uint256",
          "name": "addedValue",
          "type": "uint256"
        }
      ],
      "name": "increaseAllowance",
      "outputs": [
        {
          "internalType": "bool",
          "name": "",
          "type": "bool"
        }
      ],
      "stateMutability": "nonpayable",
      "type": "function"
    },
    {
      "inputs": [
        {
          "internalType": "bytes",
          "name": "initParams",
          "type": "bytes"
        }
      ],
      "name": "init",
      "outputs": [],
      "stateMutability": "nonpayable",
      "type": "function"
    },
    {
      "inputs": [
        {
          "internalType": "address",
          "name": "to",
          "type": "address"
        },
        {
          "internalType": "uint256",
          "name": "amount",
          "type": "uint256"
        }
      ],
      "name": "mint",
      "outputs": [],
      "stateMutability": "nonpayable",
      "type": "function"
    },
    {
      "inputs": [],
      "name": "name",
      "outputs": [
        {
          "internalType": "string",
          "name": "",
          "type": "string"
        }
      ],
      "stateMutability": "view",
      "type": "function"
    },
    {
      "inputs": [],
      "name": "registry",
      "outputs": [
        {
          "internalType": "contract IRegistry",
          "name": "",
          "type": "address"
        }
      ],
      "stateMutability": "view",
      "type": "function"
    },
    {
      "inputs": [],
      "name": "symbol",
      "outputs": [
        {
          "internalType": "string",
          "name": "",
          "type": "string"
        }
      ],
      "stateMutability": "view",
      "type": "function"
    },
    {
      "inputs": [],
      "name": "totalSupply",
      "outputs": [
        {
          "internalType": "uint256",
          "name": "",
          "type": "uint256"
        }
      ],
      "stateMutability": "view",
      "type": "function"
    },
    {
      "inputs": [
        {
          "internalType": "address",
          "name": "to",
          "type": "address"
        },
        {
          "internalType": "uint256",
          "name": "amount",
          "type": "uint256"
        }
      ],
      "name": "transfer",
      "outputs": [
        {
          "internalType": "bool",
          "name": "",
          "type": "bool"
        }
      ],
      "stateMutability": "nonpayable",
      "type": "function"
    },
    {
      "inputs": [
        {
          "internalType": "address",
          "name": "from",
          "type": "address"
        },
        {
          "internalType": "address",
          "name": "to",
          "type": "address"
        },
        {
          "internalType": "uint256",
          "name": "amount",
          "type": "uint256"
        }
      ],
      "name": "transferFrom",
      "outputs": [
        {
          "internalType": "bool",
          "name": "",
          "type": "bool"
        }
      ],
      "stateMutability": "nonpayable",
      "type": "function"
    },
    {
      "inputs": [],
      "name": "world",
      "outputs": [
        {
          "internalType": "contract IWorld",
          "name": "",
          "type": "address"
        }
      ],
      "stateMutability": "view",
      "type": "function"
    },
    {
      "inputs": [],
      "name": "worldAssetFactory",
      "outputs": [
        {
          "internalType": "contract IWorldAssetFactory",
          "name": "",
          "type": "address"
        }
      ],
      "stateMutability": "view",
      "type": "function"
    }
  ],
  "bytecode": "0x608060405234801561001057600080fd5b5060408051602080820183526000808352835191820190935291825290600361003983826100ed565b50600461004682826100ed565b5050506101ab565b634e487b7160e01b600052604160045260246000fd5b600181811c9082168061007857607f821691505b60208210810361009857634e487b7160e01b600052602260045260246000fd5b50919050565b601f8211156100e857806000526020600020601f840160051c810160208510156100c55750805b601f840160051c820191505b818110156100e557600081556001016100d1565b50505b505050565b81516001600160401b038111156101065761010661004e565b61011a816101148454610064565b8461009e565b6020601f82116001811461014e57600083156101365750848201515b600019600385901b1c1916600184901b1784556100e5565b600084815260208120601f198516915b8281101561017e578785015182556020948501946001909201910161015e565b508482101561019c5786840151600019600387901b60f8161c191681555b50505050600190811b01905550565b6119dc806101ba6000396000f3fe608060405234801561001057600080fd5b50600436106101425760003560e01c80634ddf47d4116100b857806384ba89e31161007c57806384ba89e31461028a57806395d89b4114610292578063a457c2d71461029a578063a9059cbb146102ad578063dd62ed3e146102c0578063ece56a1a146102d357600080fd5b80634ddf47d41461022b57806370a082311461023e57806379cc6790146102675780637b1039991461027a5780637d884c741461028257600080fd5b806323b872dd1161010a57806323b872dd146101c657806330b67baa146101d9578063313ce567146101e157806339509351146101f057806340c10f191461020357806342966c681461021857600080fd5b806306fdde0314610147578063095ea7b3146101655780630b4e99c314610188578063143e55e01461019e57806318160ddd146101be575b600080fd5b61014f6102db565b60405161015c91906116e7565b60405180910390f35b61017861017336600461172f565b610311565b604051901515815260200161015c565b61019061032b565b60405190815260200161015c565b6101a6610368565b6040516001600160a01b03909116815260200161015c565b600254610190565b6101786101d436600461175b565b6103ec565b6101a6610424565b6040516012815260200161015c565b6101786101fe36600461172f565b61042e565b61021661021136600461172f565b610450565b005b61021661022636600461179c565b610466565b6102166102393660046117cb565b610472565b61019061024c366004611884565b6001600160a01b031660009081526020819052604090205490565b61021661027536600461172f565b610580565b6101a66105a2565b6101906105e9565b610190610626565b61014f610663565b6101786102a836600461172f565b610680565b6101786102bb36600461172f565b610706565b6101906102ce3660046118a1565b610714565b6101a661073f565b60606102ed6102e86105e9565b610786565b6040516020016102fd91906118da565b604051602081830303815290604052905090565b60003361031f818585610819565b60019150505b92915050565b604080516020808252818301909252600091309183918291906020820181803683370190505090506020607a60208301853c602001519392505050565b6000610372610424565b6001600160a01b031663720a70bd6103886105e9565b6040518263ffffffff1660e01b81526004016103a691815260200190565b602060405180830381865afa1580156103c3573d6000803e3d6000fd5b505050506040513d601f19601f820116820180604052508101906103e7919061190b565b905090565b60006103f73361093e565b1561040f576104078484846109e7565b50600161041d565b61041a848484610b98565b90505b9392505050565b60006103e7610bb1565b60003361031f8185856104418383610714565b61044b9190611928565b610819565b610458610bee565b6104628282610ca6565b5050565b61046f81610d71565b50565b600554610100900460ff16158080156104925750600554600160ff909116105b806104ac5750303b1580156104ac575060055460ff166001145b6105145760405162461bcd60e51b815260206004820152602e60248201527f496e697469616c697a61626c653a20636f6e747261637420697320616c72656160448201526d191e481a5b9a5d1a585b1a5e995960921b60648201526084015b60405180910390fd5b6005805460ff191660011790558015610537576005805461ff0019166101001790555b8015610462576005805461ff0019169055604051600181527f7f26b83ff96e1f2b6a682f133852f6798a09c465da95921460cefb38474024989060200160405180910390a15050565b6105893361093e565b15610598576104628282610d77565b6104628282610ead565b60006105ac610424565b6001600160a01b0316637b1039996040518163ffffffff1660e01b8152600401602060405180830381865afa1580156103c3573d6000803e3d6000fd5b604080516020808252818301909252600091309183918291906020820181803683370190505090506020609a60208301853c602001519392505050565b604080516020808252818301909252600091309183918291906020820181803683370190505090506020605a60208301853c602001519392505050565b60606106706102e86105e9565b6040516020016102fd9190611949565b6000338161068e8286610714565b9050838110156106ee5760405162461bcd60e51b815260206004820152602560248201527f45524332303a2064656372656173656420616c6c6f77616e63652062656c6f77604482015264207a65726f60d81b606482015260840161050b565b6106fb8286868403610819565b506001949350505050565b60003361031f8185856109e7565b6001600160a01b03918216600090815260016020908152604080832093909416825291909152205490565b60006107496105a2565b6001600160a01b031663ece56a1a6040518163ffffffff1660e01b8152600401602060405180830381865afa1580156103c3573d6000803e3d6000fd5b6060600061079383610ec2565b600101905060008167ffffffffffffffff8111156107b3576107b36117b5565b6040519080825280601f01601f1916602001820160405280156107dd576020820181803683370190505b5090508181016020015b600019016f181899199a1a9b1b9c1cb0b131b232b360811b600a86061a8153600a85049450846107e757509392505050565b6001600160a01b03831661087b5760405162461bcd60e51b8152602060048201526024808201527f45524332303a20617070726f76652066726f6d20746865207a65726f206164646044820152637265737360e01b606482015260840161050b565b6001600160a01b0382166108dc5760405162461bcd60e51b815260206004820152602260248201527f45524332303a20617070726f766520746f20746865207a65726f206164647265604482015261737360f01b606482015260840161050b565b6001600160a01b0383811660008181526001602090815260408083209487168084529482529182902085905590518481527f8c5be1e5ebec7d5bd14f71427d1e84f3dd0314c0f7b2291e5b200ac8c7c3b92591015b60405180910390a3505050565b600080610949610424565b9050806001600160a01b0316836001600160a01b0316148061041d575060006001600160a01b03821663ebbe803461097f6105e9565b866040518363ffffffff1660e01b815260040161099d929190611976565b602060405180830381865afa1580156109ba573d6000803e3d6000fd5b505050506040513d601f19601f820116820180604052508101906109de919061198d565b14159392505050565b6001600160a01b038316610a4b5760405162461bcd60e51b815260206004820152602560248201527f45524332303a207472616e736665722066726f6d20746865207a65726f206164604482015264647265737360d81b606482015260840161050b565b6001600160a01b038216610aad5760405162461bcd60e51b815260206004820152602360248201527f45524332303a207472616e7366657220746f20746865207a65726f206164647260448201526265737360e81b606482015260840161050b565b610ab8838383610f9a565b6001600160a01b03831660009081526020819052604090205481811015610b305760405162461bcd60e51b815260206004820152602660248201527f45524332303a207472616e7366657220616d6f756e7420657863656564732062604482015265616c616e636560d01b606482015260840161050b565b6001600160a01b03848116600081815260208181526040808320878703905593871680835291849020805487019055925185815290927fddf252ad1be2c89b69c2b068fc378daa952ba7f163c4a11628f55a4df523b3ef910160405180910390a35b50505050565b600033610ba68582856115eb565b6106fb8585856109e7565b604080516014808252818301909252600091309183918291906020820181803683370190505090506014602a60208301853c601401519392505050565b6000610bf8610424565b9050336001600160a01b03821614801590610c88575060006001600160a01b03821663ebbe8034610c276105e9565b336040518363ffffffff1660e01b8152600401610c45929190611976565b602060405180830381865afa158015610c62573d6000803e3d6000fd5b505050506040513d601f19601f82011682018060405250810190610c86919061198d565b145b1561046f5760405163422656d160e01b815260040160405180910390fd5b6001600160a01b038216610cfc5760405162461bcd60e51b815260206004820152601f60248201527f45524332303a206d696e7420746f20746865207a65726f206164647265737300604482015260640161050b565b610d0860008383610f9a565b8060026000828254610d1a9190611928565b90915550506001600160a01b038216600081815260208181526040808320805486019055518481527fddf252ad1be2c89b69c2b068fc378daa952ba7f163c4a11628f55a4df523b3ef910160405180910390a35050565b61046f33825b6001600160a01b038216610dd75760405162461bcd60e51b815260206004820152602160248201527f45524332303a206275726e2066726f6d20746865207a65726f206164647265736044820152607360f81b606482015260840161050b565b610de382600083610f9a565b6001600160a01b03821660009081526020819052604090205481811015610e575760405162461bcd60e51b815260206004820152602260248201527f45524332303a206275726e20616d6f756e7420657863656564732062616c616e604482015261636560f01b606482015260840161050b565b6001600160a01b0383166000818152602081815260408083208686039055600280548790039055518581529192917fddf252ad1be2c89b69c2b068fc378daa952ba7f163c4a11628f55a4df523b3ef9101610931565b610eb88233836115eb565b6104628282610d77565b60008072184f03e93ff9f4daa797ed6e38ed64bf6a1f0160401b8310610f015772184f03e93ff9f4daa797ed6e38ed64bf6a1f0160401b830492506040015b6d04ee2d6d415b85acef81000000008310610f2d576d04ee2d6d415b85acef8100000000830492506020015b662386f26fc100008310610f4b57662386f26fc10000830492506010015b6305f5e1008310610f63576305f5e100830492506008015b6127108310610f7757612710830492506004015b60648310610f89576064830492506002015b600a83106103255760010192915050565b6000610fa4610424565b90506000610fb06105e9565b604080518082018252600b81526a1ddbdc9ad95c9cd41bdbdb60aa1b60209091015251633aefa00d60e21b81529091506000907f6dd10f5694032abddf028b131aa9186f0ec727b5d419b1e0623133ed6f122928906001600160a01b0385169063ebbe8034906110269086908b90600401611976565b602060405180830381865afa158015611043573d6000803e3d6000fd5b505050506040513d601f19601f82011682018060405250810190611067919061198d565b604080518082018252600a8152691cd95d1d1b195b595b9d60b21b60209091015251633aefa00d60e21b8152911491506000907f6522b1ac0c0c078f1fcc696b9cf72c59bb3624b7d2a9d82059b2f3832fd9973d906001600160a01b0386169063ebbe8034906110dd9087908c90600401611976565b602060405180830381865afa1580156110fa573d6000803e3d6000fd5b505050506040513d601f19601f8201168201806040525081019061111e919061198d565b60408051808201825260088152676275696c64696e6760c01b60209091015251633aefa00d60e21b8152911491506000907f010b6fd4eff8a0ca8c7925f2d29e6173e90462d56ae99e39fa817c79f4028518906001600160a01b0387169063ebbe8034906111929088908d90600401611976565b602060405180830381865afa1580156111af573d6000803e3d6000fd5b505050506040513d601f19601f820116820180604052508101906111d3919061198d565b1490506001600160a01b038816158015906111ec575082155b80156111f6575081155b8015611200575080155b1561121e576040516311eb3d1360e31b815260040160405180910390fd5b604080518082018252600a8152691cd95d1d1b195b595b9d60b21b60209091015251633aefa00d60e21b81526000907f6522b1ac0c0c078f1fcc696b9cf72c59bb3624b7d2a9d82059b2f3832fd9973d906001600160a01b0388169063ebbe8034906112909089908d90600401611976565b602060405180830381865afa1580156112ad573d6000803e3d6000fd5b505050506040513d601f19601f820116820180604052508101906112d1919061198d565b60408051808201825260088152676275696c64696e6760c01b60209091015251633aefa00d60e21b8152911491506000907f010b6fd4eff8a0ca8c7925f2d29e6173e90462d56ae99e39fa817c79f4028518906001600160a01b0389169063ebbe803490611345908a908e90600401611976565b602060405180830381865afa158015611362573d6000803e3d6000fd5b505050506040513d601f19601f82011682018060405250810190611386919061198d565b1490506001600160a01b0389161580159061139f575081155b80156113a9575080155b156113c7576040516311eb3d1360e31b815260040160405180910390fd5b6001600160a01b0389166113e15750505050505050505050565b6001600160a01b038a161580156113f55750815b156114065750505050505050505050565b8380156114105750805b80156114355750896001600160a01b031661142a8a61165f565b6001600160a01b0316145b1561149957886001600160a01b0316631d8557d76040518163ffffffff1660e01b8152600401600060405180830381600087803b15801561147557600080fd5b505af1158015611489573d6000803e3d6000fd5b5050505050505050505050505050565b8280156114a35750815b80156114c85750886001600160a01b03166114bd8b61165f565b6001600160a01b0316145b1561150857896001600160a01b0316631d8557d76040518163ffffffff1660e01b8152600401600060405180830381600087803b15801561147557600080fd5b8280156115125750805b801561153f57506115228961165f565b6001600160a01b03166115348b61165f565b6001600160a01b0316145b156115d257896001600160a01b0316631d8557d76040518163ffffffff1660e01b8152600401600060405180830381600087803b15801561157f57600080fd5b505af1158015611593573d6000803e3d6000fd5b50505050886001600160a01b0316631d8557d76040518163ffffffff1660e01b8152600401600060405180830381600087803b15801561147557600080fd5b6040516311eb3d1360e31b815260040160405180910390fd5b60006115f78484610714565b90506000198114610b9257818110156116525760405162461bcd60e51b815260206004820152601d60248201527f45524332303a20696e73756666696369656e7420616c6c6f77616e6365000000604482015260640161050b565b610b928484848403610819565b6000816001600160a01b031663c45f10006040518163ffffffff1660e01b8152600401602060405180830381865afa15801561169f573d6000803e3d6000fd5b505050506040513d601f19601f82011682018060405250810190610325919061190b565b60005b838110156116de5781810151838201526020016116c6565b50506000910152565b60208152600082518060208401526117068160408501602087016116c3565b601f01601f19169190910160400192915050565b6001600160a01b038116811461046f57600080fd5b6000806040838503121561174257600080fd5b823561174d8161171a565b946020939093013593505050565b60008060006060848603121561177057600080fd5b833561177b8161171a565b9250602084013561178b8161171a565b929592945050506040919091013590565b6000602082840312156117ae57600080fd5b5035919050565b634e487b7160e01b600052604160045260246000fd5b6000602082840312156117dd57600080fd5b813567ffffffffffffffff8111156117f457600080fd5b8201601f8101841361180557600080fd5b803567ffffffffffffffff81111561181f5761181f6117b5565b604051601f8201601f19908116603f0116810167ffffffffffffffff8111828210171561184e5761184e6117b5565b60405281815282820160200186101561186657600080fd5b81602084016020830137600091810160200191909152949350505050565b60006020828403121561189657600080fd5b813561041d8161171a565b600080604083850312156118b457600080fd5b82356118bf8161171a565b915060208301356118cf8161171a565b809150509250929050565b68015dbdc9ad95c9cc8160be1b8152600082516118fe8160098501602087016116c3565b9190910160090192915050565b60006020828403121561191d57600080fd5b815161041d8161171a565b8082018082111561032557634e487b7160e01b600052601160045260246000fd5b64015d492c8160de1b8152600082516119698160058501602087016116c3565b9190910160050192915050565b9182526001600160a01b0316602082015260400190565b60006020828403121561199f57600080fd5b505191905056fea264697066735822122072bba33e1db0c56930e93141bf83f544f1b015ba134c9eb3e5848454f1ef59af64736f6c634300081a0033",
  "linkReferences": {},
  "deployedLinkReferences": {}
}