{
  "_format": "hh-sol-artifact-1",
  "contractName": "Lumbermill",
  "sourceName": "contracts/core/assets/building/impl/Lumbermill.sol",
  "abi": [
    {
      "inputs": [],
      "name": "BuildingCannotBeActivatedMoreThanOnce",
      "type": "error"
    },
    {
      "inputs": [],
      "name": "BuildingCannotBeUpgradedWhileItsNotActivated",
      "type": "error"
    },
    {
      "inputs": [],
      "name": "BuildingCannotBeUpgradedWhileUpgradeIsOnCooldown",
      "type": "error"
    },
    {
      "inputs": [],
      "name": "BuildingCannotGiveWorkersBeforeActivationCooldownFinished",
      "type": "error"
    },
    {
      "inputs": [],
      "name": "BuildingCannotGiveWorkersMoreThanOnce",
      "type": "error"
    },
    {
      "inputs": [],
      "name": "DistributionResetNotAllowedWhenTreasuryThresholdNotMet",
      "type": "error"
    },
    {
      "inputs": [],
      "name": "OnlyActiveGame",
      "type": "error"
    },
    {
      "inputs": [],
      "name": "OnlyDistributions",
      "type": "error"
    },
    {
      "inputs": [],
      "name": "OnlyMightyCreator",
      "type": "error"
    },
    {
      "inputs": [],
      "name": "OnlyRulerOrWorldAssetFromSameEra",
      "type": "error"
    },
    {
      "inputs": [],
      "name": "OnlySettlementOwner",
      "type": "error"
    },
    {
      "inputs": [],
      "name": "OnlyWorldAssetFromSameEra",
      "type": "error"
    },
    {
      "inputs": [],
      "name": "UnknownInputParameter",
      "type": "error"
    },
    {
      "anonymous": false,
      "inputs": [
        {
          "indexed": false,
          "internalType": "uint256",
          "name": "newAdditionalWorkersCapacityMultiplier",
          "type": "uint256"
        }
      ],
      "name": "AdvancedProductionAdditionalWorkersCapacityMultiplierUpdated",
      "type": "event"
    },
    {
      "anonymous": false,
      "inputs": [
        {
          "indexed": false,
          "internalType": "uint256",
          "name": "newAdvancedProductionLevel",
          "type": "uint256"
        },
        {
          "indexed": false,
          "internalType": "uint256",
          "name": "newAdvancedProductionCoefficient",
          "type": "uint256"
        }
      ],
      "name": "AdvancedProductionUpgraded",
      "type": "event"
    },
    {
      "anonymous": false,
      "inputs": [
        {
          "indexed": false,
          "internalType": "uint256",
          "name": "newBasicProductionLevel",
          "type": "uint256"
        },
        {
          "indexed": false,
          "internalType": "uint256",
          "name": "newBasicProductionCoefficient",
          "type": "uint256"
        }
      ],
      "name": "BasicProductionUpgraded",
      "type": "event"
    },
    {
      "anonymous": false,
      "inputs": [
        {
          "indexed": false,
          "internalType": "bytes32",
          "name": "resourceTypeId",
          "type": "bytes32"
        },
        {
          "indexed": false,
          "internalType": "address",
          "name": "holder",
          "type": "address"
        },
        {
          "indexed": false,
          "internalType": "uint256",
          "name": "amount",
          "type": "uint256"
        }
      ],
      "name": "DistributedToShareHolder",
      "type": "event"
    },
    {
      "anonymous": false,
      "inputs": [
        {
          "indexed": false,
          "internalType": "uint256",
          "name": "newDistributionId",
          "type": "uint256"
        }
      ],
      "name": "DistributionCreated",
      "type": "event"
    },
    {
      "anonymous": false,
      "inputs": [
        {
          "indexed": false,
          "internalType": "uint8",
          "name": "version",
          "type": "uint8"
        }
      ],
      "name": "Initialized",
      "type": "event"
    },
    {
      "anonymous": false,
      "inputs": [
        {
          "indexed": false,
          "internalType": "address",
          "name": "distributionNftHolder",
          "type": "address"
        },
        {
          "indexed": false,
          "internalType": "uint256",
          "name": "newDebt",
          "type": "uint256"
        }
      ],
      "name": "ProducedResourceDebtUpdated",
      "type": "event"
    },
    {
      "anonymous": false,
      "inputs": [
        {
          "indexed": false,
          "internalType": "uint256",
          "name": "lastUpdateStateTime",
          "type": "uint256"
        },
        {
          "indexed": false,
          "internalType": "uint256",
          "name": "lastUpdateStateRegionTime",
          "type": "uint256"
        },
        {
          "indexed": false,
          "internalType": "uint256",
          "name": "readyToBeDistributed",
          "type": "uint256"
        },
        {
          "indexed": false,
          "internalType": "uint256",
          "name": "totalDebt",
          "type": "uint256"
        }
      ],
      "name": "ProductionInfoUpdated",
      "type": "event"
    },
    {
      "anonymous": false,
      "inputs": [],
      "name": "WorkersClaimed",
      "type": "event"
    },
    {
      "inputs": [
        {
          "internalType": "address",
          "name": "resourcesOwner",
          "type": "address"
        }
      ],
      "name": "activateBuilding",
      "outputs": [],
      "stateMutability": "nonpayable",
      "type": "function"
    },
    {
      "inputs": [],
      "name": "advancedProduction",
      "outputs": [
        {
          "internalType": "uint256",
          "name": "level",
          "type": "uint256"
        },
        {
          "internalType": "uint256",
          "name": "coefficient",
          "type": "uint256"
        },
        {
          "internalType": "uint256",
          "name": "additionalWorkersCapacityMultiplier",
          "type": "uint256"
        },
        {
          "internalType": "uint256",
          "name": "toBeProducedTicks",
          "type": "uint256"
        }
      ],
      "stateMutability": "view",
      "type": "function"
    },
    {
      "inputs": [],
      "name": "assetGroupId",
      "outputs": [
        {
          "internalType": "bytes32",
          "name": "",
          "type": "bytes32"
        }
      ],
      "stateMutability": "view",
      "type": "function"
    },
    {
      "inputs": [],
      "name": "assetTypeId",
      "outputs": [
        {
          "internalType": "bytes32",
          "name": "",
          "type": "bytes32"
        }
      ],
      "stateMutability": "view",
      "type": "function"
    },
    {
      "inputs": [],
      "name": "basicProduction",
      "outputs": [
        {
          "internalType": "uint256",
          "name": "level",
          "type": "uint256"
        },
        {
          "internalType": "uint256",
          "name": "coefficient",
          "type": "uint256"
        }
      ],
      "stateMutability": "view",
      "type": "function"
    },
    {
      "inputs": [],
      "name": "buildingActivationInfo",
      "outputs": [
        {
          "internalType": "uint64",
          "name": "activationTime",
          "type": "uint64"
        },
        {
          "internalType": "bool",
          "name": "isWorkersClaimed",
          "type": "bool"
        }
      ],
      "stateMutability": "view",
      "type": "function"
    },
    {
      "inputs": [],
      "name": "buildingTypeId",
      "outputs": [
        {
          "internalType": "bytes32",
          "name": "",
          "type": "bytes32"
        }
      ],
      "stateMutability": "view",
      "type": "function"
    },
    {
      "inputs": [
        {
          "internalType": "uint256",
          "name": "burnAmount",
          "type": "uint256"
        }
      ],
      "name": "burnTreasury",
      "outputs": [],
      "stateMutability": "nonpayable",
      "type": "function"
    },
    {
      "inputs": [],
      "name": "claimWorkersForBuildingActivation",
      "outputs": [],
      "stateMutability": "nonpayable",
      "type": "function"
    },
    {
      "inputs": [
        {
          "internalType": "uint256",
          "name": "capacityAmount",
          "type": "uint256"
        }
      ],
      "name": "decreaseAdditionalWorkersCapacityMultiplier",
      "outputs": [],
      "stateMutability": "nonpayable",
      "type": "function"
    },
    {
      "inputs": [],
      "name": "distributeToAllShareholders",
      "outputs": [],
      "stateMutability": "nonpayable",
      "type": "function"
    },
    {
      "inputs": [
        {
          "internalType": "address",
          "name": "holder",
          "type": "address"
        }
      ],
      "name": "distributeToSingleShareholder",
      "outputs": [],
      "stateMutability": "nonpayable",
      "type": "function"
    },
    {
      "inputs": [],
      "name": "distributionId",
      "outputs": [
        {
          "internalType": "uint256",
          "name": "",
          "type": "uint256"
        }
      ],
      "stateMutability": "view",
      "type": "function"
    },
    {
      "inputs": [],
      "name": "era",
      "outputs": [
        {
          "internalType": "contract IEra",
          "name": "",
          "type": "address"
        }
      ],
      "stateMutability": "view",
      "type": "function"
    },
    {
      "inputs": [],
      "name": "eraNumber",
      "outputs": [
        {
          "internalType": "uint256",
          "name": "",
          "type": "uint256"
        }
      ],
      "stateMutability": "view",
      "type": "function"
    },
    {
      "inputs": [],
      "name": "getAdditionalWorkersFromAdditionalWorkersCapacityMultiplier",
      "outputs": [
        {
          "internalType": "uint256",
          "name": "",
          "type": "uint256"
        }
      ],
      "stateMutability": "view",
      "type": "function"
    },
    {
      "inputs": [
        {
          "internalType": "uint256",
          "name": "level",
          "type": "uint256"
        }
      ],
      "name": "getAdvancedUpgradeCooldownDuration",
      "outputs": [
        {
          "internalType": "uint256",
          "name": "",
          "type": "uint256"
        }
      ],
      "stateMutability": "view",
      "type": "function"
    },
    {
      "inputs": [],
      "name": "getAssignedWorkers",
      "outputs": [
        {
          "internalType": "uint256",
          "name": "",
          "type": "uint256"
        }
      ],
      "stateMutability": "view",
      "type": "function"
    },
    {
      "inputs": [],
      "name": "getAvailableForAdvancedProductionWorkersCapacity",
      "outputs": [
        {
          "internalType": "uint256",
          "name": "",
          "type": "uint256"
        }
      ],
      "stateMutability": "view",
      "type": "function"
    },
    {
      "inputs": [
        {
          "internalType": "uint256",
          "name": "level",
          "type": "uint256"
        }
      ],
      "name": "getBasicUpgradeCooldownDuration",
      "outputs": [
        {
          "internalType": "uint256",
          "name": "",
          "type": "uint256"
        }
      ],
      "stateMutability": "view",
      "type": "function"
    },
    {
      "inputs": [
        {
          "internalType": "uint256",
          "name": "level",
          "type": "uint256"
        }
      ],
      "name": "getBuildingCoefficient",
      "outputs": [
        {
          "internalType": "uint256",
          "name": "",
          "type": "uint256"
        }
      ],
      "stateMutability": "pure",
      "type": "function"
    },
    {
      "inputs": [],
      "name": "getBuildingLevel",
      "outputs": [
        {
          "internalType": "uint256",
          "name": "",
          "type": "uint256"
        }
      ],
      "stateMutability": "view",
      "type": "function"
    },
    {
      "inputs": [],
      "name": "getConfig",
      "outputs": [
        {
          "components": [
            {
              "internalType": "bytes32",
              "name": "resourceTypeId",
              "type": "bytes32"
            },
            {
              "internalType": "uint256",
              "name": "amountPerTick",
              "type": "uint256"
            },
            {
              "internalType": "bool",
              "name": "isProducing",
              "type": "bool"
            }
          ],
          "internalType": "struct IBuilding.ProductionConfigItem[]",
          "name": "",
          "type": "tuple[]"
        }
      ],
      "stateMutability": "pure",
      "type": "function"
    },
    {
      "inputs": [
        {
          "internalType": "uint256",
          "name": "level",
          "type": "uint256"
        }
      ],
      "name": "getMaxTreasuryByLevel",
      "outputs": [
        {
          "internalType": "uint256",
          "name": "",
          "type": "uint256"
        }
      ],
      "stateMutability": "view",
      "type": "function"
    },
    {
      "inputs": [],
      "name": "getProducingResourceTypeId",
      "outputs": [
        {
          "internalType": "bytes32",
          "name": "",
          "type": "bytes32"
        }
      ],
      "stateMutability": "view",
      "type": "function"
    },
    {
      "inputs": [
        {
          "internalType": "uint256",
          "name": "timestamp",
          "type": "uint256"
        }
      ],
      "name": "getProductionResult",
      "outputs": [
        {
          "components": [
            {
              "internalType": "bytes32",
              "name": "resourceTypeId",
              "type": "bytes32"
            },
            {
              "internalType": "uint256",
              "name": "balanceDelta",
              "type": "uint256"
            },
            {
              "internalType": "bool",
              "name": "isProduced",
              "type": "bool"
            }
          ],
          "internalType": "struct IBuilding.ProductionResultItem[]",
          "name": "",
          "type": "tuple[]"
        }
      ],
      "stateMutability": "view",
      "type": "function"
    },
    {
      "inputs": [
        {
          "internalType": "bytes32",
          "name": "resourceTypeId",
          "type": "bytes32"
        },
        {
          "internalType": "uint256",
          "name": "timestamp",
          "type": "uint256"
        }
      ],
      "name": "getResourcesAmount",
      "outputs": [
        {
          "internalType": "uint256",
          "name": "",
          "type": "uint256"
        }
      ],
      "stateMutability": "view",
      "type": "function"
    },
    {
      "inputs": [
        {
          "internalType": "uint256",
          "name": "timestamp",
          "type": "uint256"
        }
      ],
      "name": "getTreasuryAmount",
      "outputs": [
        {
          "internalType": "uint256",
          "name": "",
          "type": "uint256"
        }
      ],
      "stateMutability": "view",
      "type": "function"
    },
    {
      "inputs": [
        {
          "internalType": "uint256",
          "name": "level",
          "type": "uint256"
        }
      ],
      "name": "getUpgradePrice",
      "outputs": [
        {
          "internalType": "uint256",
          "name": "",
          "type": "uint256"
        }
      ],
      "stateMutability": "view",
      "type": "function"
    },
    {
      "inputs": [],
      "name": "getWorkersCapacity",
      "outputs": [
        {
          "internalType": "uint256",
          "name": "",
          "type": "uint256"
        }
      ],
      "stateMutability": "view",
      "type": "function"
    },
    {
      "inputs": [],
      "name": "givenProsperityAmount",
      "outputs": [
        {
          "internalType": "uint256",
          "name": "",
          "type": "uint256"
        }
      ],
      "stateMutability": "view",
      "type": "function"
    },
    {
      "inputs": [],
      "name": "handleProductionResourcesChanged",
      "outputs": [],
      "stateMutability": "nonpayable",
      "type": "function"
    },
    {
      "inputs": [
        {
          "internalType": "uint256",
          "name": "capacityAmount",
          "type": "uint256"
        }
      ],
      "name": "increaseAdditionalWorkersCapacityMultiplier",
      "outputs": [],
      "stateMutability": "nonpayable",
      "type": "function"
    },
    {
      "inputs": [
        {
          "internalType": "bytes",
          "name": "initParams",
          "type": "bytes"
        }
      ],
      "name": "init",
      "outputs": [],
      "stateMutability": "nonpayable",
      "type": "function"
    },
    {
      "inputs": [
        {
          "internalType": "bytes32",
          "name": "resourceTypeId",
          "type": "bytes32"
        }
      ],
      "name": "isResourceAcceptable",
      "outputs": [
        {
          "internalType": "bool",
          "name": "",
          "type": "bool"
        }
      ],
      "stateMutability": "view",
      "type": "function"
    },
    {
      "inputs": [
        {
          "internalType": "address",
          "name": "operator",
          "type": "address"
        },
        {
          "internalType": "address",
          "name": "from",
          "type": "address"
        },
        {
          "internalType": "uint256[]",
          "name": "ids",
          "type": "uint256[]"
        },
        {
          "internalType": "uint256[]",
          "name": "values",
          "type": "uint256[]"
        },
        {
          "internalType": "bytes",
          "name": "data",
          "type": "bytes"
        }
      ],
      "name": "onERC1155BatchReceived",
      "outputs": [
        {
          "internalType": "bytes4",
          "name": "",
          "type": "bytes4"
        }
      ],
      "stateMutability": "nonpayable",
      "type": "function"
    },
    {
      "inputs": [
        {
          "internalType": "address",
          "name": "operator",
          "type": "address"
        },
        {
          "internalType": "address",
          "name": "from",
          "type": "address"
        },
        {
          "internalType": "uint256",
          "name": "id",
          "type": "uint256"
        },
        {
          "internalType": "uint256",
          "name": "value",
          "type": "uint256"
        },
        {
          "internalType": "bytes",
          "name": "data",
          "type": "bytes"
        }
      ],
      "name": "onERC1155Received",
      "outputs": [
        {
          "internalType": "bytes4",
          "name": "",
          "type": "bytes4"
        }
      ],
      "stateMutability": "nonpayable",
      "type": "function"
    },
    {
      "inputs": [
        {
          "internalType": "address",
          "name": "",
          "type": "address"
        }
      ],
      "name": "producedResourceDebt",
      "outputs": [
        {
          "internalType": "uint256",
          "name": "",
          "type": "uint256"
        }
      ],
      "stateMutability": "view",
      "type": "function"
    },
    {
      "inputs": [],
      "name": "productionInfo",
      "outputs": [
        {
          "internalType": "uint256",
          "name": "lastUpdateStateTime",
          "type": "uint256"
        },
        {
          "internalType": "uint256",
          "name": "lastUpdateStateRegionTime",
          "type": "uint256"
        },
        {
          "internalType": "uint256",
          "name": "readyToBeDistributed",
          "type": "uint256"
        },
        {
          "internalType": "uint256",
          "name": "totalDebt",
          "type": "uint256"
        }
      ],
      "stateMutability": "view",
      "type": "function"
    },
    {
      "inputs": [],
      "name": "registry",
      "outputs": [
        {
          "internalType": "contract IRegistry",
          "name": "",
          "type": "address"
        }
      ],
      "stateMutability": "view",
      "type": "function"
    },
    {
      "inputs": [],
      "name": "relatedSettlement",
      "outputs": [
        {
          "internalType": "contract ISettlement",
          "name": "",
          "type": "address"
        }
      ],
      "stateMutability": "view",
      "type": "function"
    },
    {
      "inputs": [],
      "name": "resetDistribution",
      "outputs": [],
      "stateMutability": "nonpayable",
      "type": "function"
    },
    {
      "inputs": [
        {
          "internalType": "address",
          "name": "stealerSettlementAddress",
          "type": "address"
        },
        {
          "internalType": "uint256",
          "name": "amount",
          "type": "uint256"
        }
      ],
      "name": "stealTreasury",
      "outputs": [
        {
          "internalType": "uint256",
          "name": "",
          "type": "uint256"
        },
        {
          "internalType": "uint256",
          "name": "",
          "type": "uint256"
        }
      ],
      "stateMutability": "nonpayable",
      "type": "function"
    },
    {
      "inputs": [
        {
          "internalType": "bytes4",
          "name": "interfaceId",
          "type": "bytes4"
        }
      ],
      "name": "supportsInterface",
      "outputs": [
        {
          "internalType": "bool",
          "name": "",
          "type": "bool"
        }
      ],
      "stateMutability": "view",
      "type": "function"
    },
    {
      "inputs": [
        {
          "internalType": "address",
          "name": "from",
          "type": "address"
        },
        {
          "internalType": "address",
          "name": "to",
          "type": "address"
        },
        {
          "internalType": "uint256",
          "name": "amount",
          "type": "uint256"
        }
      ],
      "name": "updateDebtsAccordingToNewDistributionsAmounts",
      "outputs": [],
      "stateMutability": "nonpayable",
      "type": "function"
    },
    {
      "inputs": [],
      "name": "updateState",
      "outputs": [],
      "stateMutability": "nonpayable",
      "type": "function"
    },
    {
      "inputs": [
        {
          "internalType": "address",
          "name": "resourcesOwner",
          "type": "address"
        }
      ],
      "name": "upgradeAdvancedProduction",
      "outputs": [],
      "stateMutability": "nonpayable",
      "type": "function"
    },
    {
      "inputs": [
        {
          "internalType": "address",
          "name": "resourcesOwner",
          "type": "address"
        }
      ],
      "name": "upgradeBasicProduction",
      "outputs": [],
      "stateMutability": "nonpayable",
      "type": "function"
    },
    {
      "inputs": [],
      "name": "upgradeCooldownEndTime",
      "outputs": [
        {
          "internalType": "uint256",
          "name": "",
          "type": "uint256"
        }
      ],
      "stateMutability": "view",
      "type": "function"
    },
    {
      "inputs": [],
      "name": "world",
      "outputs": [
        {
          "internalType": "contract IWorld",
          "name": "",
          "type": "address"
        }
      ],
      "stateMutability": "view",
      "type": "function"
    },
    {
      "inputs": [],
      "name": "worldAssetFactory",
      "outputs": [
        {
          "internalType": "contract IWorldAssetFactory",
          "name": "",
          "type": "address"
        }
      ],
      "stateMutability": "view",
      "type": "function"
    }
  ],
  "bytecode": "0x6080604052348015600f57600080fd5b50615e528061001f6000396000f3fe608060405234801561001057600080fd5b50600436106102c05760003560e01c80638545bc581161017d578063c9c0df61116100d9578063e8d4d46d11610092578063e8d4d46d14610614578063e91bde7614610627578063eb3585341461063a578063ece56a1a1461064d578063f23a6e6114610655578063f2477b5b14610675578063ffaf29a01461067d57600080fd5b8063c9c0df61146105d7578063d26aaf93146105e0578063d2bc7d85146105e8578063d39ce1fc146105f0578063e05ab49814610603578063e145c3ad1461060c57600080fd5b8063ad36624411610136578063ad36624414610520578063ae6fd51d14610528578063b78d13841461053b578063bc197c811461054e578063c3f909d414610589578063c45f10001461059e578063c724a016146105b757600080fd5b80638545bc58146104be5780638a6bbad3146104c65780638ae52a38146104dc5780638beab87e146104e4578063900918721461050457806391ab778d1461051757600080fd5b806330cfda181161022c5780635ed697b7116101e55780635ed697b71461046457806365e6f4ce146104785780637abdf949146104805780637b103999146104935780637b7a2bfc1461049b5780637d884c74146104ae57806384ba89e3146104b657600080fd5b806330cfda18146103f25780633c084b8b146103fa57806343e77f461461040d578063486a42d5146104205780634ddf47d414610429578063589ae4001461043c57600080fd5b8063152d94831161027e578063152d948314610369578063198c8bda1461037e5780631d8557d7146103bc5780631e9738d1146103c45780631fb91f39146103d757806330b67baa146103ea57600080fd5b8062d4fbf8146102c557806301ffc9a7146102eb57806304b10ac81461030e5780630b4e99c314610316578063143e55e01461031e57806314dff0e814610333575b600080fd5b6102d86102d33660046156b1565b61068b565b6040519081526020015b60405180910390f35b6102fe6102f93660046156ca565b6106ab565b60405190151581526020016102e2565b6102d86106e0565b6102d8610752565b61032661078f565b6040516102e291906156f4565b6004546005546006546007546103499392919084565b6040805194855260208501939093529183015260608201526080016102e2565b61037c61037736600461571d565b610813565b005b60105461039d906001600160401b03811690600160401b900460ff1682565b604080516001600160401b0390931683529015156020830152016102e2565b61037c61096f565b6102d86103d236600461575e565b610d0f565b61037c6103e5366004615780565b611021565b6103266114bf565b61037c6114c9565b6102d86104083660046156b1565b61167f565b61037c61041b3660046156b1565b6116b3565b6102d860095481565b61037c6104373660046157e3565b611714565b61044f61044a36600461587b565b611962565b604080519283526020830191909152016102e2565b6102d86104723660046156b1565b50600090565b61037c611d37565b6102d861048e3660046156b1565b612111565b61032661219c565b61037c6104a9366004615780565b6121e3565b6102d86124fe565b6102d861253b565b6102d8612578565b600a54600b54600c54600d546103499392919084565b6102d861258a565b6104f76104f23660046156b1565b612661565b6040516102e291906158a7565b6102fe6105123660046156b1565b612a82565b6102d860085481565b6102d8612adb565b61037c6105363660046156b1565b612af5565b61037c6105493660046156b1565b612c6e565b61057061055c366004615990565b63bc197c8160e01b98975050505050505050565b6040516001600160e01b031990911681526020016102e2565b610591612d5a565b6040516102e29190615a58565b600054610326906201000090046001600160a01b031681565b6102d86105c5366004615780565b600f6020526000908152604090205481565b6102d8600e5481565b6102d8612ecf565b61037c612eeb565b61037c6105fe366004615780565b612f2a565b6102d860015481565b61037c613443565b61037c610622366004615780565b613458565b6102d86106353660046156b1565b6138e8565b6102d86106483660046156b1565b613963565b610326613976565b610570610663366004615ab1565b63f23a6e6160e01b9695505050505050565b6102d86139bd565b60025460035461044f919082565b6000600161069b83615460615b42565b6106a59190615b59565b92915050565b60006001600160e01b03198216630271189760e51b14806106a557506301ffc9a760e01b6001600160e01b03198316146106a5565b6000806106eb612d5a565b905060005b81518110156107495781818151811061070b5761070b615b7b565b602002602001015160400151156107415781818151811061072e5761072e615b7b565b6020026020010151600001519250505090565b6001016106f0565b50600092915050565b604080516020808252818301909252600091309183918291906020820181803683370190505090506020607a60208301853c602001519392505050565b60006107996114bf565b6001600160a01b031663720a70bd6107af6124fe565b6040518263ffffffff1660e01b81526004016107cd91815260200190565b602060405180830381865afa1580156107ea573d6000803e3d6000fd5b505050506040513d601f19601f8201168201806040525081019061080e9190615b91565b905090565b61081b613a16565b60006108256114bf565b6001600160a01b031663e4e940f06040518163ffffffff1660e01b8152600401602060405180830381865afa158015610862573d6000803e3d6000fd5b505050506040513d601f19601f820116820180604052508101906108869190615b91565b6001600160a01b03166302705c2e6040518163ffffffff1660e01b8152600401602060405180830381865afa1580156108c3573d6000803e3d6000fd5b505050506040513d601f19601f820116820180604052508101906108e79190615bae565b600c546108f5908490615b42565b6108ff9190615b59565b90508060000361090f5750505050565b6001600160a01b0384166000908152600f602052604090205461093e908590610939908490615bc7565b613aa7565b6001600160a01b0383166000908152600f6020526040902054610968908490610939908490615bda565b505b505050565b600060029054906101000a90046001600160a01b03166001600160a01b031663e6c15c996040518163ffffffff1660e01b8152600401602060405180830381865afa1580156109c2573d6000803e3d6000fd5b505050506040513d601f19601f820116820180604052508101906109e69190615b91565b6001600160a01b0316631d8557d76040518163ffffffff1660e01b8152600401600060405180830381600087803b158015610a2057600080fd5b505af1158015610a34573d6000803e3d6000fd5b505050506000610a42613af4565b905080600a6000015403610a535750565b6000610a5e82612661565b9050610b5482600060029054906101000a90046001600160a01b03166001600160a01b031663e6c15c996040518163ffffffff1660e01b8152600401602060405180830381865afa158015610ab7573d6000803e3d6000fd5b505050506040513d601f19601f82011682018060405250810190610adb9190615b91565b6001600160a01b03166325fc9289856040518263ffffffff1660e01b8152600401610b0891815260200190565b602060405180830381865afa158015610b25573d6000803e3d6000fd5b505050506040513d601f19601f82011682018060405250810190610b499190615bae565b600c54600d54613bfc565b6000610b5e61078f565b905060005b825181101561096857828181518110610b7e57610b7e615b7b565b60200260200101516020015160000315610d0757828181518110610ba457610ba4615b7b565b60200260200101516040015115610bfe57610bf9838281518110610bca57610bca615b7b565b602002602001015160000151848381518110610be857610be8615b7b565b602002602001015160200151613c5e565b610d07565b816001600160a01b031663912929df848381518110610c1f57610c1f615b7b565b6020026020010151600001516040518263ffffffff1660e01b8152600401610c4991815260200190565b602060405180830381865afa158015610c66573d6000803e3d6000fd5b505050506040513d601f19601f82011682018060405250810190610c8a9190615b91565b6001600160a01b03166342966c68848381518110610caa57610caa615b7b565b6020026020010151602001516040518263ffffffff1660e01b8152600401610cd491815260200190565b600060405180830381600087803b158015610cee57600080fd5b505af1158015610d02573d6000803e3d6000fd5b505050505b600101610b63565b600080610d1b83612661565b90506000610d2761078f565b90506000610d336106e0565b905060005b83518110156110145786848281518110610d5457610d54615b7b565b6020026020010151600001510361100c57838181518110610d7757610d77615b7b565b60200260200101516040015115610efe576000610d95610408612578565b905080600003610dad576000955050505050506106a5565b6000670de0b6b3a764000080878581518110610dcb57610dcb615b7b565b602002602001015160200151610de19190615b42565b610deb9190615b59565b60405163912929df60e01b8152600481018690529091506000906001600160a01b0387169063912929df90602401602060405180830381865afa158015610e36573d6000803e3d6000fd5b505050506040513d601f19601f82011682018060405250810190610e5a9190615b91565b6001600160a01b031663eae33602306040518263ffffffff1660e01b8152600401610e8591906156f4565b602060405180830381865afa158015610ea2573d6000803e3d6000fd5b505050506040513d601f19601f82011682018060405250810190610ec69190615bae565b9050828110610edd5796506106a595505050505050565b610ef0610eea8284615bda565b84613fbe565b9750505050505050506106a5565b838181518110610f1057610f10615b7b565b602002602001015160200151836001600160a01b031663912929df896040518263ffffffff1660e01b8152600401610f4a91815260200190565b602060405180830381865afa158015610f67573d6000803e3d6000fd5b505050506040513d601f19601f82011682018060405250810190610f8b9190615b91565b6001600160a01b031663eae33602306040518263ffffffff1660e01b8152600401610fb691906156f4565b602060405180830381865afa158015610fd3573d6000803e3d6000fd5b505050506040513d601f19601f82011682018060405250810190610ff79190615bae565b6110019190615bc7565b9450505050506106a5565b600101610d38565b5060009695505050505050565b611029613fd6565b611031614105565b61103961096f565b6010546001600160401b0316600003611065576040516364b9b9a760e11b815260040160405180910390fd5b6008544210156110885760405163aa4aed7160e01b815260040160405180910390fd5b6000611092612578565b9050600061109f82612111565b60408051808201909152600481526315d3d3d160e21b60209091015290507f5f3d3bfd5b61198148275c178146c21eec5c5ab7e81758f3c651754ae3f1ed426001600160a01b0384166111c6576110f461078f565b6001600160a01b031663912929df826040518263ffffffff1660e01b815260040161112191815260200190565b602060405180830381865afa15801561113e573d6000803e3d6000fd5b505050506040513d601f19601f820116820180604052508101906111629190615b91565b6001600160a01b03166379cc679033846040518363ffffffff1660e01b815260040161118f929190615bed565b600060405180830381600087803b1580156111a957600080fd5b505af11580156111bd573d6000803e3d6000fd5b50505050611305565b60006111d061078f565b6001600160a01b031663912929df836040518263ffffffff1660e01b81526004016111fd91815260200190565b602060405180830381865afa15801561121a573d6000803e3d6000fd5b505050506040513d601f19601f8201168201806040525081019061123e9190615b91565b60405163dd8aaa4f60e01b81529091506001600160a01b0382169063dd8aaa4f9061127190889033908890600401615c06565b600060405180830381600087803b15801561128b57600080fd5b505af115801561129f573d6000803e3d6000fd5b505060405163079cc67960e41b81526001600160a01b03841692506379cc679091506112d19088908790600401615bed565b600060405180830381600087803b1580156112eb57600080fd5b505af11580156112ff573d6000803e3d6000fd5b50505050505b600060029054906101000a90046001600160a01b03166001600160a01b031663e6c15c996040518163ffffffff1660e01b8152600401602060405180830381865afa158015611358573d6000803e3d6000fd5b505050506040513d601f19601f8201168201806040525081019061137c9190615b91565b6000546001600160a01b0391821691635053c2999162010000900416670de0b6b3a7640000856113ab86614246565b6113b59190615b42565b6113bf9190615b59565b6040518363ffffffff1660e01b81526004016113dc929190615bed565b600060405180830381600087803b1580156113f657600080fd5b505af115801561140a573d6000803e3d6000fd5b505050506114178361068b565b6114219042615bda565b600855600354600090611433856138e8565b611441610635876001615bda565b61144b9190615bc7565b6114559190615bda565b600254909150600090611469906001615bda565b60038390556002819055905061147d6143a9565b60408051828152602081018490527fa933a9f591d9b53ffc6316451d228c163207767426d4097ffa9434c2efa4f6ba91015b60405180910390a1505050505050565b600061080e614728565b6114d1613fd6565b6114d9614105565b6114e161096f565b6010546001600160401b03168015806115195750611503600162015180615b59565b611516906001600160401b038316615bda565b42105b1561153757604051635aed590560e11b815260040160405180910390fd5b601054600160401b900460ff16156115625760405163d907f46f60e01b815260040160405180910390fd5b61156a61078f565b6001600160a01b031663cabb62f06040518163ffffffff1660e01b8152600401602060405180830381865afa1580156115a7573d6000803e3d6000fd5b505050506040513d601f19601f820116820180604052508101906115cb9190615b91565b6000546040516340c10f1960e01b81526001600160a01b03928316926340c10f199261160e926201000090910490911690671bc16d674ec8000090600401615bed565b600060405180830381600087803b15801561162857600080fd5b505af115801561163c573d6000803e3d6000fd5b50506010805460ff60401b1916600160401b17905550506040517f2980e94973bb554c99d8ebe73d809fb7d0d4415c3dd5f939b6da7816cb0fefdd90600090a150565b6000600261168c836138e8565b6116969190615d11565b6116a190600a615b42565b6106a590670de0b6b3a7640000615b42565b6116bb614765565b6116c361096f565b6006546000906116d4908390615bc7565b60068190556040518181529091507fa5b080ca657305a05e233a1bdfe1cb5a92588bd94928658051cf6ea8d91ae4b1906020015b60405180910390a15050565b600054610100900460ff16158080156117345750600054600160ff909116105b8061174e5750303b15801561174e575060005460ff166001145b6117b55760405162461bcd60e51b815260206004820152602e60248201527f496e697469616c697a61626c653a20636f6e747261637420697320616c72656160448201526d191e481a5b9a5d1a585b1a5e995960921b606482015260840160405180910390fd5b6000805460ff1916600117905580156117d8576000805461ff0019166101001790555b600080838060200190518101906117ef9190615d20565b6000805462010000600160b01b031916620100006001600160a01b0385811682029290921780845560018590556002849055600384905560048481556005949094556040805163e6c15c9960e01b81529051969850949650611912954295929091049092169263e6c15c999282820192602092908290030181865afa15801561187c573d6000803e3d6000fd5b505050506040513d601f19601f820116820180604052508101906118a09190615b91565b6040516325fc928960e01b81524260048201526001600160a01b0391909116906325fc928990602401602060405180830381865afa1580156118e6573d6000803e3d6000fd5b505050506040513d601f19601f8201168201806040525081019061190a9190615bae565b600080613bfc565b61191a614824565b5050801561195e576000805461ff0019169055604051600181527f7f26b83ff96e1f2b6a682f133852f6798a09c465da95921460cefb384740249890602001611708565b5050565b60008061196d614765565b61197561096f565b600061197f61078f565b6001600160a01b031663912929df6119956106e0565b6040518263ffffffff1660e01b81526004016119b391815260200190565b602060405180830381865afa1580156119d0573d6000803e3d6000fd5b505050506040513d601f19601f820116820180604052508101906119f49190615b91565b90506000611a78611a06610408612578565b6040516375719b0160e11b81526001600160a01b0385169063eae3360290611a329030906004016156f4565b602060405180830381865afa158015611a4f573d6000803e3d6000fd5b505050506040513d601f19601f82011682018060405250810190611a739190615bae565b613fbe565b905080600003611a9057600080935093505050611d30565b611a9a8186613fbe565b600154604051631b973c5760e21b815291965087916000916001600160a01b03841691636e5cf15c91611ad39160040190815260200190565b602060405180830381865afa158015611af0573d6000803e3d6000fd5b505050506040513d601f19601f82011682018060405250810190611b149190615b91565b9050806001600160a01b0316631d8557d76040518163ffffffff1660e01b8152600401600060405180830381600087803b158015611b5157600080fd5b505af1158015611b65573d6000803e3d6000fd5b505050506000816001600160a01b0316633c084b8b836001600160a01b0316638545bc586040518163ffffffff1660e01b8152600401602060405180830381865afa158015611bb8573d6000803e3d6000fd5b505050506040513d601f19601f82011682018060405250810190611bdc9190615bae565b6040518263ffffffff1660e01b8152600401611bfa91815260200190565b602060405180830381865afa158015611c17573d6000803e3d6000fd5b505050506040513d601f19601f82011682018060405250810190611c3b9190615bae565b90506000611c6f82876001600160a01b031663eae33602866040518263ffffffff1660e01b8152600401611a3291906156f4565b90506000611c7d8284615bc7565b90506000611c8b828c613fbe565b90506000611c99828d615bc7565b90508115611d145760405163a9059cbb60e01b81526001600160a01b038a169063a9059cbb90611ccf9089908690600401615bed565b6020604051808303816000875af1158015611cee573d6000803e3d6000fd5b505050506040513d601f19601f82011682018060405250810190611d129190615d4e565b505b8015611d2357611d2381612c6e565b9099509750505050505050505b9250929050565b611d3f61096f565b6000611d496114bf565b600c549091506000611d596106e0565b90506000611d6561078f565b6001600160a01b031663912929df836040518263ffffffff1660e01b8152600401611d9291815260200190565b602060405180830381865afa158015611daf573d6000803e3d6000fd5b505050506040513d601f19601f82011682018060405250810190611dd39190615b91565b90506000846001600160a01b031663e4e940f06040518163ffffffff1660e01b8152600401602060405180830381865afa158015611e15573d6000803e3d6000fd5b505050506040513d601f19601f82011682018060405250810190611e399190615b91565b90506000816001600160a01b03166302705c2e6040518163ffffffff1660e01b8152600401602060405180830381865afa158015611e7b573d6000803e3d6000fd5b505050506040513d601f19601f82011682018060405250810190611e9f9190615bae565b600e5460405163186974e360e21b815291925086916000916001600160a01b038616916361a5d38c91611ed89160040190815260200190565b600060405180830381865afa158015611ef5573d6000803e3d6000fd5b505050506040513d6000823e601f3d908101601f19168201604052611f1d9190810190615d70565b905060005b81518110156120f3576000828281518110611f3f57611f3f615b7b565b6020908102919091018101516001600160a01b038082166000908152600f909352604080842054600e549151627eeac760e11b8152939550939289928b169162fdd58e91611f91918891600401615bed565b602060405180830381865afa158015611fae573d6000803e3d6000fd5b505050506040513d601f19601f82011682018060405250810190611fd29190615bae565b611fdc908d615b42565b611fe69190615b59565b90506000828211611ff8576000612002565b6120028383615bc7565b9050821561201557612015846000613aa7565b61201f8184615bda565b6120299088615bc7565b96508060000361203c57505050506120eb565b6040516340c10f1960e01b81526001600160a01b038b16906340c10f199061206a9087908590600401615bed565b600060405180830381600087803b15801561208457600080fd5b505af1158015612098573d6000803e3d6000fd5b5050604080518e81526001600160a01b03881660208201529081018490527f4e4307e8da7cc13a61821561768c6b298d5d9ee55985f18cb747099e3f9fa8759250606001905060405180910390a1505050505b600101611f22565b50600a54600b546121079190846000613bfc565b5050505050505050565b60008061211d8361167f565b9050600061212f610408856001615bda565b90506000606461214084604b615b42565b61214a9190615b59565b905060006121588284615bc7565b90506000612167600683615b59565b9050670de0b6b3a764000061217d6001546149ab565b6121879083615b42565b6121919190615b59565b979650505050505050565b60006121a66114bf565b6001600160a01b0316637b1039996040518163ffffffff1660e01b8152600401602060405180830381865afa1580156107ea573d6000803e3d6000fd5b6121eb61096f565b60006121f56114bf565b6001600160a01b031663e4e940f06040518163ffffffff1660e01b8152600401602060405180830381865afa158015612232573d6000803e3d6000fd5b505050506040513d601f19601f820116820180604052508101906122569190615b91565b600e54604051627eeac760e11b81529192506000916001600160a01b0384169162fdd58e91612289918791600401615bed565b602060405180830381865afa1580156122a6573d6000803e3d6000fd5b505050506040513d601f19601f820116820180604052508101906122ca9190615bae565b9050806000036122d957505050565b6001600160a01b038084166000908152600f602090815260408083205481516301382e1760e11b8152915190948716926302705c2e92600480820193918290030181865afa15801561232f573d6000803e3d6000fd5b505050506040513d601f19601f820116820180604052508101906123539190615bae565b600c54612361908590615b42565b61236b9190615b59565b9050600082821161237d576000612387565b6123878383615bc7565b90508060000361239957505050505050565b6123a7866109398386615bda565b600a54600b54600c54600d546123ca939291906123c5908690615bda565b613bfc565b60006123d46106e0565b90506123de61078f565b6001600160a01b031663912929df826040518263ffffffff1660e01b815260040161240b91815260200190565b602060405180830381865afa158015612428573d6000803e3d6000fd5b505050506040513d601f19601f8201168201806040525081019061244c9190615b91565b6001600160a01b03166340c10f1988846040518363ffffffff1660e01b8152600401612479929190615bed565b600060405180830381600087803b15801561249357600080fd5b505af11580156124a7573d6000803e3d6000fd5b5050604080518481526001600160a01b038b1660208201529081018590527f4e4307e8da7cc13a61821561768c6b298d5d9ee55985f18cb747099e3f9fa8759250606001905060405180910390a150505050505050565b604080516020808252818301909252600091309183918291906020820181803683370190505090506020609a60208301853c602001519392505050565b604080516020808252818301909252600091309183918291906020820181803683370190505090506020605a60208301853c602001519392505050565b60045460025460009161080e91615bda565b600061259461078f565b6001600160a01b031663cabb62f06040518163ffffffff1660e01b8152600401602060405180830381865afa1580156125d1573d6000803e3d6000fd5b505050506040513d601f19601f820116820180604052508101906125f59190615b91565b6001600160a01b03166370a08231306040518263ffffffff1660e01b815260040161262091906156f4565b602060405180830381865afa15801561263d573d6000803e3d6000fd5b505050506040513d601f19601f8201168201806040525081019061080e9190615bae565b6060600061266d6114bf565b90508260000361267b574292505b6000816001600160a01b0316633c8ca83d6040518163ffffffff1660e01b8152600401602060405180830381865afa1580156126bb573d6000803e3d6000fd5b505050506040513d601f19601f820116820180604052508101906126df9190615bae565b9050808410156126ed578093505b6000826001600160a01b03166344d9bc5f6040518163ffffffff1660e01b8152600401602060405180830381865afa15801561272d573d6000803e3d6000fd5b505050506040513d601f19601f820116820180604052508101906127519190615bae565b90508015612766576127638582613fbe565b94505b6000612770612d5a565b9050600081516001600160401b0381111561278d5761278d61579d565b6040519080825280602002602001820160405280156127d857816020015b60408051606081018252600080825260208083018290529282015282526000199092019101816127ab5790505b50905060005b825181101561286457604051806060016040528084838151811061280457612804615b7b565b60200260200101516000015181526020016000815260200184838151811061282e5761282e615b7b565b602002602001015160400151151581525082828151811061285157612851615b7b565b60209081029190910101526001016127de565b50600a54600b548582101561287a575084905060005b81891161288e575090979650505050505050565b60008060029054906101000a90046001600160a01b03166001600160a01b031663e6c15c996040518163ffffffff1660e01b8152600401602060405180830381865afa1580156128e2573d6000803e3d6000fd5b505050506040513d601f19601f820116820180604052508101906129069190615b91565b6001600160a01b03166325fc92898b6040518263ffffffff1660e01b815260040161293391815260200190565b602060405180830381865afa158015612950573d6000803e3d6000fd5b505050506040513d601f19601f820116820180604052508101906129749190615bae565b905060006129828383614b4f565b905060006129968484600460030154614bc9565b905060005b8751811015612a7157818882815181106129b7576129b7615b7b565b6020026020010151602001516129cd9190615b42565b8782815181106129df576129df615b7b565b60200260200101516020018181525050868181518110612a0157612a01615b7b565b60200260200101516040015115612a695782888281518110612a2557612a25615b7b565b602002602001015160200151612a3b9190615b42565b878281518110612a4d57612a4d615b7b565b6020026020010151602001818151612a659190615bda565b9052505b60010161299b565b50949b9a5050505050505050505050565b600080612a8d612d5a565b905060005b8151811015612ad15783828281518110612aae57612aae615b7b565b60200260200101516000015103612ac9575060019392505050565b600101612a92565b5060009392505050565b6000612ae8600154614c56565b60055461080e9190615b42565b612afd614765565b612b0561096f565b600654600090612b16908390615bda565b60068190556040518181529091507fa5b080ca657305a05e233a1bdfe1cb5a92588bd94928658051cf6ea8d91ae4b19060200160405180910390a16000612b5b612ecf565b90506000612b6761258a565b905081811115610968576000612b7d8383615bc7565b9050612b8761078f565b6001600160a01b031663cabb62f06040518163ffffffff1660e01b8152600401602060405180830381865afa158015612bc4573d6000803e3d6000fd5b505050506040513d601f19601f82011682018060405250810190612be89190615b91565b60005460405163a9059cbb60e01b81526001600160a01b039283169263a9059cbb92612c239262010000909104909116908590600401615bed565b6020604051808303816000875af1158015612c42573d6000803e3d6000fd5b505050506040513d601f19601f82011682018060405250810190612c669190615d4e565b505050505050565b612c76614765565b6000612c8061078f565b6001600160a01b031663912929df612c966106e0565b6040518263ffffffff1660e01b8152600401612cb491815260200190565b602060405180830381865afa158015612cd1573d6000803e3d6000fd5b505050506040513d601f19601f82011682018060405250810190612cf59190615b91565b604051630852cd8d60e31b8152600481018490529091506001600160a01b038216906342966c6890602401600060405180830381600087803b158015612d3a57600080fd5b505af1158015612d4e573d6000803e3d6000fd5b5050505061195e6143a9565b604080516002808252606082810190935260009190816020015b6040805160608101825260008082526020808301829052928201528252600019909201910181612d745750506040805160a0810190915260046060820152631193d3d160e21b60808201527f2f6f5a261d6f4514c3f09a834720fe583c82f2ee4758ce9a45fbd67428e9f93d815290915060208101612710612e0162015180678ac7230489e80000615b59565b612e0b9190615b59565b81526020016000151581525081600081518110612e2a57612e2a615b7b565b6020908102919091018101919091526040805160a08101909152600460608201526315d3d3d160e21b60808201527f5f3d3bfd5b61198148275c178146c21eec5c5ab7e81758f3c651754ae3f1ed428152908101612710612e9662015180678ac7230489e80000615b59565b612ea09190615b59565b81526020016001151581525081600181518110612ebf57612ebf615b7b565b6020908102919091010152919050565b6000612ed96139bd565b612ee1612adb565b61080e9190615bc7565b612ef3614dfa565b612efb614e94565b612f1857604051630b7395e560e21b815260040160405180910390fd5b612f20611d37565b612f28614824565b565b612f32613fd6565b612f3a614105565b612f4261096f565b6010546001600160401b031615612f6b5760405162b64e0160e61b815260040160405180910390fd5b600080612f76614fd8565b9150915060005b8251811015613378576001600160a01b0384166130a057612f9c61078f565b6001600160a01b031663912929df848381518110612fbc57612fbc615b7b565b60200260200101516040518263ffffffff1660e01b8152600401612fe291815260200190565b602060405180830381865afa158015612fff573d6000803e3d6000fd5b505050506040513d601f19601f820116820180604052508101906130239190615b91565b6001600160a01b03166379cc67903384848151811061304457613044615b7b565b60200260200101516040518363ffffffff1660e01b8152600401613069929190615bed565b600060405180830381600087803b15801561308357600080fd5b505af1158015613097573d6000803e3d6000fd5b50505050613229565b60006130aa61078f565b6001600160a01b031663912929df8584815181106130ca576130ca615b7b565b60200260200101516040518263ffffffff1660e01b81526004016130f091815260200190565b602060405180830381865afa15801561310d573d6000803e3d6000fd5b505050506040513d601f19601f820116820180604052508101906131319190615b91565b9050806001600160a01b031663dd8aaa4f863386868151811061315657613156615b7b565b60200260200101516040518463ffffffff1660e01b815260040161317c93929190615c06565b600060405180830381600087803b15801561319657600080fd5b505af11580156131aa573d6000803e3d6000fd5b50505050806001600160a01b03166379cc6790868585815181106131d0576131d0615b7b565b60200260200101516040518363ffffffff1660e01b81526004016131f5929190615bed565b600060405180830381600087803b15801561320f57600080fd5b505af1158015613223573d6000803e3d6000fd5b50505050505b600060029054906101000a90046001600160a01b03166001600160a01b031663e6c15c996040518163ffffffff1660e01b8152600401602060405180830381865afa15801561327c573d6000803e3d6000fd5b505050506040513d601f19601f820116820180604052508101906132a09190615b91565b6001600160a01b0316635053c299600060029054906101000a90046001600160a01b0316670de0b6b3a76400008585815181106132df576132df615b7b565b60200260200101516133098887815181106132fc576132fc615b7b565b6020026020010151614246565b6133139190615b42565b61331d9190615b59565b6040518363ffffffff1660e01b815260040161333a929190615bed565b600060405180830381600087803b15801561335457600080fd5b505af1158015613368573d6000803e3d6000fd5b505060019092019150612f7d9050565b50613387600162015180615b59565b6133919042615bda565b60085560016003819055600281905560058190556004556010805467ffffffffffffffff1916426001600160401b03161790556133cc6143a9565b60408051600180825260208201527fa933a9f591d9b53ffc6316451d228c163207767426d4097ffa9434c2efa4f6ba910160405180910390a160408051600180825260208201527fd8f5076bf9515e2fc9ee2b3472c1f34b0474833710bcd006c2b502e6c659c9fd910160405180910390a1505050565b61344b6143a9565b61345361511b565b600755565b613460613fd6565b613468614105565b61347061096f565b6010546001600160401b031660000361349c576040516364b9b9a760e11b815260040160405180910390fd5b6008544210156134bf5760405163aa4aed7160e01b815260040160405180910390fd5b60006134c9612578565b905060006134d682612111565b6040805180820190915260038152624f524560e81b60209091015290507f9db51ceeef36d28f4a713ba944bdadb00e988c5676c92710eaf0e194efb4cb556001600160a01b0384166135fc5761352a61078f565b6001600160a01b031663912929df826040518263ffffffff1660e01b815260040161355791815260200190565b602060405180830381865afa158015613574573d6000803e3d6000fd5b505050506040513d601f19601f820116820180604052508101906135989190615b91565b6001600160a01b03166379cc679033846040518363ffffffff1660e01b81526004016135c5929190615bed565b600060405180830381600087803b1580156135df57600080fd5b505af11580156135f3573d6000803e3d6000fd5b5050505061373b565b600061360661078f565b6001600160a01b031663912929df836040518263ffffffff1660e01b815260040161363391815260200190565b602060405180830381865afa158015613650573d6000803e3d6000fd5b505050506040513d601f19601f820116820180604052508101906136749190615b91565b60405163dd8aaa4f60e01b81529091506001600160a01b0382169063dd8aaa4f906136a790889033908890600401615c06565b600060405180830381600087803b1580156136c157600080fd5b505af11580156136d5573d6000803e3d6000fd5b505060405163079cc67960e41b81526001600160a01b03841692506379cc679091506137079088908790600401615bed565b600060405180830381600087803b15801561372157600080fd5b505af1158015613735573d6000803e3d6000fd5b50505050505b600060029054906101000a90046001600160a01b03166001600160a01b031663e6c15c996040518163ffffffff1660e01b8152600401602060405180830381865afa15801561378e573d6000803e3d6000fd5b505050506040513d601f19601f820116820180604052508101906137b29190615b91565b6000546001600160a01b0391821691635053c2999162010000900416670de0b6b3a7640000856137e186614246565b6137eb9190615b42565b6137f59190615b59565b6040518363ffffffff1660e01b8152600401613812929190615bed565b600060405180830381600087803b15801561382c57600080fd5b505af1158015613840573d6000803e3d6000fd5b5050505061384c600090565b6138569042615bda565b600855600554600090613868856138e8565b613876610635876001615bda565b6138809190615bc7565b61388a9190615bda565b60045490915060009061389e906001615bda565b6005839055600481905590506138b26143a9565b60408051828152602081018490527fd8f5076bf9515e2fc9ee2b3472c1f34b0474833710bcd006c2b502e6c659c9fd91016114af565b60006005816138f78285615b59565b905060006139058383615b42565b61390f9086615bc7565b9050600083600284613922816001615bda565b61392c9190615b42565b6139369190615b59565b6139409190615b42565b9050600061394f846001615bda565b6139599084615b42565b6121919083615bda565b60006106a56139706106e0565b83610d0f565b600061398061219c565b6001600160a01b031663ece56a1a6040518163ffffffff1660e01b8152600401602060405180830381865afa1580156107ea573d6000803e3d6000fd5b6000806139d7600460020154670de0b6b3a7640000613fbe565b9050613a10670de0b6b3a7640000826139ee612adb565b6139f89190615b42565b613a029190615b59565b670de0b6b3a76400006152bc565b91505090565b33613a1f6114bf565b6001600160a01b031663e4e940f06040518163ffffffff1660e01b8152600401602060405180830381865afa158015613a5c573d6000803e3d6000fd5b505050506040513d601f19601f82011682018060405250810190613a809190615b91565b6001600160a01b031614612f2857604051638f857a2960e01b815260040160405180910390fd5b6001600160a01b0382166000908152600f602052604090819020829055517fdcea61563ab9f107db39d481e10a7eda8e255efb99c1bf6c57f2b2e5a8a6f90e906117089084908490615bed565b600080613aff6114bf565b90506000816001600160a01b0316633c8ca83d6040518163ffffffff1660e01b8152600401602060405180830381865afa158015613b41573d6000803e3d6000fd5b505050506040513d601f19601f82011682018060405250810190613b659190615bae565b90506000826001600160a01b03166344d9bc5f6040518163ffffffff1660e01b8152600401602060405180830381865afa158015613ba7573d6000803e3d6000fd5b505050506040513d601f19601f82011682018060405250810190613bcb9190615bae565b90504282811015613bd95750815b81600003613be957949350505050565b613bf38183613fbe565b94505050505090565b600a849055600b839055600c829055600d8190556040805185815260208101859052908101839052606081018290527f0975f780ca30f886d7a3b13619106b83bfcd25cf1d64d5c2dd20e3546c4badf59060800160405180910390a150505050565b80600003613c6a575050565b6000670de0b6b3a7640000613c7f8184615b42565b613c899190615b59565b90506000613c9561078f565b60405163912929df60e01b8152600481018690529091506000906001600160a01b0383169063912929df90602401602060405180830381865afa158015613ce0573d6000803e3d6000fd5b505050506040513d601f19601f82011682018060405250810190613d049190615b91565b6001600160a01b031663eae33602306040518263ffffffff1660e01b8152600401613d2f91906156f4565b602060405180830381865afa158015613d4c573d6000803e3d6000fd5b505050506040513d601f19601f82011682018060405250810190613d709190615bae565b90506000613d7f610408612578565b9050808210613d915760009350613daf565b613d9b8282615bc7565b841115613daf57613dac8282615bc7565b93505b8315613e8c5760405163912929df60e01b8152600481018790526001600160a01b0384169063912929df90602401602060405180830381865afa158015613dfa573d6000803e3d6000fd5b505050506040513d601f19601f82011682018060405250810190613e1e9190615b91565b6001600160a01b03166340c10f1930866040518363ffffffff1660e01b8152600401613e4b929190615bed565b600060405180830381600087803b158015613e6557600080fd5b505af1158015613e79573d6000803e3d6000fd5b505050508385613e899190615bc7565b94505b8415612c6657600060029054906101000a90046001600160a01b03166001600160a01b031663e6c15c996040518163ffffffff1660e01b8152600401602060405180830381865afa158015613ee5573d6000803e3d6000fd5b505050506040513d601f19601f82011682018060405250810190613f099190615b91565b6000546001600160a01b039182169163e85b89d99162010000900416670de0b6b3a764000088613f388b614246565b613f429190615b42565b613f4c9190615b59565b6040518363ffffffff1660e01b8152600401613f69929190615bed565b600060405180830381600087803b158015613f8357600080fd5b505af1158015613f97573d6000803e3d6000fd5b5050600a54600b54600c54612c66945091925090613fb6908990615bda565b600d54613bfc565b6000818310613fcd5781613fcf565b825b9392505050565b6000613fe06114bf565b90506000816001600160a01b0316633c8ca83d6040518163ffffffff1660e01b8152600401602060405180830381865afa158015614022573d6000803e3d6000fd5b505050506040513d601f19601f820116820180604052508101906140469190615bae565b90506000826001600160a01b03166344d9bc5f6040518163ffffffff1660e01b8152600401602060405180830381865afa158015614088573d6000803e3d6000fd5b505050506040513d601f19601f820116820180604052508101906140ac9190615bae565b90508115806140ba57508142105b156140d85760405163a00eda6960e01b815260040160405180910390fd5b80158015906140e75750804210155b1561096a5760405163a00eda6960e01b815260040160405180910390fd5b600061410f6114bf565b600054604051631b0b969d60e01b81529192506201000090046001600160a01b031690631b0b969d906141469033906004016156f4565b602060405180830381865afa158015614163573d6000803e3d6000fd5b505050506040513d601f19601f820116820180604052508101906141879190615d4e565b15801561419d5750336001600160a01b03821614155b8015614225575060006001600160a01b03821663ebbe80346141bd6124fe565b6040516001600160e01b031960e084901b1681526004810191909152336024820152604401602060405180830381865afa1580156141ff573d6000803e3d6000fd5b505050506040513d601f19601f820116820180604052508101906142239190615bae565b145b1561424357604051630d319e2360e41b815260040160405180910390fd5b50565b6040805180820190915260048152631193d3d160e21b60209091015260007fd090a5d9e290baeb3c0f657cb8df01a7c37d0d11b8a73165ba04298bd71606c3820161429a5750670429d069189e0000919050565b60408051808201909152600481526315d3d3d160e21b6020909101527fa0c2c402a49ee67eb7d8a3e87eb93de113a3a54817e8a70c39ae8ab51c0e12be82016142ec5750670de0b6b3a7640000919050565b6040805180820190915260038152624f524560e81b6020909101527f624ae31110c92d70b58ec456bb42524ff16773a98936d8ef150f1e6b104b34ab820161433d57506729a2241af62c0000919050565b604080518082019091526005815264125391d3d560da1b6020909101527f0b2c26746c5e8d6f1877c4437947c29fc4d8103cd72878c4c039b7afe27c1a8e82016143905750678ac7230489e80000919050565b60405163ea3b0abb60e01b815260040160405180910390fd5b60006143b3612578565b905060006143bf6106e0565b905060006143cb61078f565b60405163912929df60e01b8152600481018490529091506000906001600160a01b0383169063912929df90602401602060405180830381865afa158015614416573d6000803e3d6000fd5b505050506040513d601f19601f8201168201806040525081019061443a9190615b91565b6001600160a01b031663eae33602306040518263ffffffff1660e01b815260040161446591906156f4565b602060405180830381865afa158015614482573d6000803e3d6000fd5b505050506040513d601f19601f820116820180604052508101906144a69190615bae565b600954909150600085156145585760006144bf876138e8565b905060006144cc876152d3565b905060006144e66144e1846305f5e100615b42565b615425565b90506000655af3107a4000826144fc858a615b42565b6145069190615b59565b6145109190615b59565b90506000655af3107a400083856145268e61167f565b6145309190615b42565b61453a9190615b59565b6145449190615b59565b90506145508183613fbe565b955050505050505b60098190558082111561464157836001600160a01b031663c91b95666040518163ffffffff1660e01b8152600401602060405180830381865afa1580156145a3573d6000803e3d6000fd5b505050506040513d601f19601f820116820180604052508101906145c79190615b91565b6000546001600160a01b03918216916379cc679091620100009004166145ed8486615bc7565b6040518363ffffffff1660e01b815260040161460a929190615bed565b600060405180830381600087803b15801561462457600080fd5b505af1158015614638573d6000803e3d6000fd5b50505050612c66565b80821015612c6657836001600160a01b031663c91b95666040518163ffffffff1660e01b8152600401602060405180830381865afa158015614687573d6000803e3d6000fd5b505050506040513d601f19601f820116820180604052508101906146ab9190615b91565b6000546001600160a01b03918216916340c10f1991620100009004166146d18585615bc7565b6040518363ffffffff1660e01b81526004016146ee929190615bed565b600060405180830381600087803b15801561470857600080fd5b505af115801561471c573d6000803e3d6000fd5b50505050505050505050565b604080516014808252818301909252600091309183918291906020820181803683370190505090506014602a60208301853c601401519392505050565b600061476f6114bf565b9050336001600160a01b03821614801590614806575060006001600160a01b03821663ebbe803461479e6124fe565b6040516001600160e01b031960e084901b1681526004810191909152336024820152604401602060405180830381865afa1580156147e0573d6000803e3d6000fd5b505050506040513d601f19601f820116820180604052508101906148049190615bae565b145b156142435760405163422656d160e01b815260040160405180910390fd5b61482c6114bf565b6001600160a01b031663e4e940f06040518163ffffffff1660e01b8152600401602060405180830381865afa158015614869573d6000803e3d6000fd5b505050506040513d601f19601f8201168201806040525081019061488d9190615b91565b6001600160a01b0316636a627842600060029054906101000a90046001600160a01b03166001600160a01b031663b5acd4566040518163ffffffff1660e01b8152600401602060405180830381865afa1580156148ee573d6000803e3d6000fd5b505050506040513d601f19601f820116820180604052508101906149129190615b91565b6040518263ffffffff1660e01b815260040161492e91906156f4565b6020604051808303816000875af115801561494d573d6000803e3d6000fd5b505050506040513d601f19601f820116820180604052508101906149719190615bae565b600e8190556040519081527f21685fff63336d20fb2b74ff6a44da978e162f9199732816249248bad82657239060200160405180910390a1565b6040805180820190915260048152634641524d60e01b60209091015260007fea182adbe8a99c0376d68ae8663b1e572fb013df4142853d0efacd6d83e4a3f382016149ff57506706f05b59d3b20000919050565b60408051808201909152600a8152691315535091549352531360b21b6020909101527f9105c25cd4a4f5de306390a4361214e261c5b47733a14849b60e1afd6befe9a78201614a575750670de0b6b3a7640000919050565b6040805180820190915260048152634d494e4560e01b6020909101527fba703fbcaf9339015e918255c7c6fb66106877b9277228701a99875362186bbc8201614aa95750671bc16d674ec80000919050565b604080518082019091526006815265534d4954485960d01b6020909101527f172dd3f67874f5199aae0df823a0dbc7dc361e67643d2a2054a704e56cc7902e8201614afd5750673782dace9d900000919050565b6040805180820190915260048152631193d49560e21b6020909101527fd6ee2a35c7750db1280c6e5b14dbb9643f0276ca328c44ef8a35818fd5bd14e782016143905750671bc16d674ec80000919050565b600080614b5c8484615bc7565b90506000614b7c670de0b6b3a764000069021e19e0c9bab2400000615b59565b614b8e90670de0b6b3a7640000615b59565b614b989083615b59565b9050670de0b6b3a764000081614bac615495565b614bb69190615b42565b614bc09190615b59565b95945050505050565b6000838311614bda57506000613fcf565b6000614be68585615bc7565b90506000614bf26154e3565b90506000614c12670de0b6b3a764000069021e19e0c9bab2400000615b59565b614c2490670de0b6b3a7640000615b59565b614c2e9084615b59565b9050612191670de0b6b3a7640000614c468484615b42565b614c509190615b59565b86613fbe565b6040805180820190915260048152634641524d60e01b60209091015260007fea182adbe8a99c0376d68ae8663b1e572fb013df4142853d0efacd6d83e4a3f38201614caa5750678ac7230489e80000919050565b60408051808201909152600a8152691315535091549352531360b21b6020909101527f9105c25cd4a4f5de306390a4361214e261c5b47733a14849b60e1afd6befe9a78201614d025750676124fee993bc0000919050565b6040805180820190915260048152634d494e4560e01b6020909101527fba703fbcaf9339015e918255c7c6fb66106877b9277228701a99875362186bbc8201614d545750674563918244f40000919050565b604080518082019091526006815265534d4954485960d01b6020909101527f172dd3f67874f5199aae0df823a0dbc7dc361e67643d2a2054a704e56cc7902e8201614da857506729a2241af62c0000919050565b6040805180820190915260048152631193d49560e21b6020909101527fd6ee2a35c7750db1280c6e5b14dbb9643f0276ca328c44ef8a35818fd5bd14e782016143905750674563918244f40000919050565b60005460408051635ad66a2b60e11b8152905133926201000090046001600160a01b03169163b5acd4569160048083019260209291908290030181865afa158015614e49573d6000803e3d6000fd5b505050506040513d601f19601f82011682018060405250810190614e6d9190615b91565b6001600160a01b031614612f2857604051639807ee1760e01b815260040160405180910390fd5b600080614ea2610408612578565b90506000614eae6106e0565b905080614ebe5760009250505090565b6000670de0b6b3a7640000614edb670429d069189e000085615b42565b614ee59190615b59565b90506000614ef161078f565b6001600160a01b031663912929df846040518263ffffffff1660e01b8152600401614f1e91815260200190565b602060405180830381865afa158015614f3b573d6000803e3d6000fd5b505050506040513d601f19601f82011682018060405250810190614f5f9190615b91565b6001600160a01b03166370a08231306040518263ffffffff1660e01b8152600401614f8a91906156f4565b602060405180830381865afa158015614fa7573d6000803e3d6000fd5b505050506040513d601f19601f82011682018060405250810190614fcb9190615bae565b9190911115949350505050565b60408051600280825260608281019093528291600091816020016020820280368337505060408051600280825260608201835293945060009390925090602083019080368337505060408051808201909152600481526315d3d3d160e21b6020909101525082519091507f5f3d3bfd5b61198148275c178146c21eec5c5ab7e81758f3c651754ae3f1ed4290839060009061507557615075615b7b565b602002602001018181525050604051806040016040528060038152602001624f524560e81b81525080519060200120826001815181106150b7576150b7615b7b565b602002602001018181525050674563918244f40000816000815181106150df576150df615b7b565b602002602001018181525050674563918244f400008160018151811061510757615107615b7b565b602090810291909101015290939092509050565b600080615126612d5a565b9050600019600061513561078f565b905060005b83518110156152b35783818151811061515557615155615b7b565b6020026020010151604001516152ab576000826001600160a01b031663912929df86848151811061518857615188615b7b565b6020026020010151600001516040518263ffffffff1660e01b81526004016151b291815260200190565b602060405180830381865afa1580156151cf573d6000803e3d6000fd5b505050506040513d601f19601f820116820180604052508101906151f39190615b91565b6001600160a01b031663eae33602306040518263ffffffff1660e01b815260040161521e91906156f4565b602060405180830381865afa15801561523b573d6000803e3d6000fd5b505050506040513d601f19601f8201168201806040525081019061525f9190615bae565b9050806000036152755760009550505050505090565b6152a785838151811061528a5761528a615b7b565b602002602001015160200151826152a19190615b59565b85613fbe565b9350505b60010161513a565b50909392505050565b6000816152c98185615b59565b613fcf9190615b42565b6040805180820190915260048152631193d3d160e21b60209091015260007fd090a5d9e290baeb3c0f657cb8df01a7c37d0d11b8a73165ba04298bd71606c3820161532757506706f05b59d3b20000919050565b60408051808201909152600481526315d3d3d160e21b6020909101527fa0c2c402a49ee67eb7d8a3e87eb93de113a3a54817e8a70c39ae8ab51c0e12be82016153795750670de0b6b3a7640000919050565b6040805180820190915260038152624f524560e81b6020909101527f624ae31110c92d70b58ec456bb42524ff16773a98936d8ef150f1e6b104b34ab82016153ca5750671bc16d674ec80000919050565b604080518082019091526005815264125391d3d560da1b6020909101527f0b2c26746c5e8d6f1877c4437947c29fc4d8103cd72878c4c039b7afe27c1a8e820161541d57506729a2241af62c0000919050565b506000919050565b60006003821115615486575080600061543f600283615b59565b61544a906001615bda565b90505b81811015615480579050806002816154658186615b59565b61546f9190615bda565b6154799190615b59565b905061544d565b50919050565b8115615490575060015b919050565b60018054600091670de0b6b3a7640000906154af83614c56565b6154b88461550d565b6003546154c59190615b42565b6154cf9190615b42565b6154d99190615b42565b613a109190615b59565b6000806154ee6139bd565b6154f661258a565b6155009190615bda565b9050613a10600182615b42565b6040805180820190915260048152634641524d60e01b60209091015260007fea182adbe8a99c0376d68ae8663b1e572fb013df4142853d0efacd6d83e4a3f3820161556157506706f05b59d3b20000919050565b60408051808201909152600a8152691315535091549352531360b21b6020909101527f9105c25cd4a4f5de306390a4361214e261c5b47733a14849b60e1afd6befe9a782016155b957506705f7aab8c56b0000919050565b6040805180820190915260048152634d494e4560e01b6020909101527fba703fbcaf9339015e918255c7c6fb66106877b9277228701a99875362186bbc820161560b575067058d15e176280000919050565b604080518082019091526006815265534d4954485960d01b6020909101527f172dd3f67874f5199aae0df823a0dbc7dc361e67643d2a2054a704e56cc7902e820161565f5750670494654067e10000919050565b6040805180820190915260048152631193d49560e21b6020909101527fd6ee2a35c7750db1280c6e5b14dbb9643f0276ca328c44ef8a35818fd5bd14e78201614390575067058d15e176280000919050565b6000602082840312156156c357600080fd5b5035919050565b6000602082840312156156dc57600080fd5b81356001600160e01b031981168114613fcf57600080fd5b6001600160a01b0391909116815260200190565b6001600160a01b038116811461424357600080fd5b60008060006060848603121561573257600080fd5b833561573d81615708565b9250602084013561574d81615708565b929592945050506040919091013590565b6000806040838503121561577157600080fd5b50508035926020909101359150565b60006020828403121561579257600080fd5b8135613fcf81615708565b634e487b7160e01b600052604160045260246000fd5b604051601f8201601f191681016001600160401b03811182821017156157db576157db61579d565b604052919050565b6000602082840312156157f557600080fd5b81356001600160401b0381111561580b57600080fd5b8201601f8101841361581c57600080fd5b80356001600160401b038111156158355761583561579d565b615848601f8201601f19166020016157b3565b81815285602083850101111561585d57600080fd5b81602084016020830137600091810160200191909152949350505050565b6000806040838503121561588e57600080fd5b823561589981615708565b946020939093013593505050565b602080825282518282018190526000918401906040840190835b81811015615900576158ea83855180518252602080820151908301526040908101511515910152565b60209390930192606092909201916001016158c1565b509095945050505050565b60008083601f84011261591d57600080fd5b5081356001600160401b0381111561593457600080fd5b6020830191508360208260051b8501011115611d3057600080fd5b60008083601f84011261596157600080fd5b5081356001600160401b0381111561597857600080fd5b602083019150836020828501011115611d3057600080fd5b60008060008060008060008060a0898b0312156159ac57600080fd5b88356159b781615708565b975060208901356159c781615708565b965060408901356001600160401b038111156159e257600080fd5b6159ee8b828c0161590b565b90975095505060608901356001600160401b03811115615a0d57600080fd5b615a198b828c0161590b565b90955093505060808901356001600160401b03811115615a3857600080fd5b615a448b828c0161594f565b999c989b5096995094979396929594505050565b602080825282518282018190526000918401906040840190835b8181101561590057615a9b83855180518252602080820151908301526040908101511515910152565b6020939093019260609290920191600101615a72565b60008060008060008060a08789031215615aca57600080fd5b8635615ad581615708565b95506020870135615ae581615708565b9450604087013593506060870135925060808701356001600160401b03811115615b0e57600080fd5b615b1a89828a0161594f565b979a9699509497509295939492505050565b634e487b7160e01b600052601160045260246000fd5b80820281158282048414176106a5576106a5615b2c565b600082615b7657634e487b7160e01b600052601260045260246000fd5b500490565b634e487b7160e01b600052603260045260246000fd5b600060208284031215615ba357600080fd5b8151613fcf81615708565b600060208284031215615bc057600080fd5b5051919050565b818103818111156106a5576106a5615b2c565b808201808211156106a5576106a5615b2c565b6001600160a01b03929092168252602082015260400190565b6001600160a01b039384168152919092166020820152604081019190915260600190565b6001815b6001841115615c6557808504811115615c4957615c49615b2c565b6001841615615c5757908102905b60019390931c928002615c2e565b935093915050565b600082615c7c575060016106a5565b81615c89575060006106a5565b8160018114615c9f5760028114615ca957615cc5565b60019150506106a5565b60ff841115615cba57615cba615b2c565b50506001821b6106a5565b5060208310610133831016604e8410600b8410161715615ce8575081810a6106a5565b615cf56000198484615c2a565b8060001904821115615d0957615d09615b2c565b029392505050565b6000613fcf60ff841683615c6d565b60008060408385031215615d3357600080fd5b8251615d3e81615708565b6020939093015192949293505050565b600060208284031215615d6057600080fd5b81518015158114613fcf57600080fd5b600060208284031215615d8257600080fd5b81516001600160401b03811115615d9857600080fd5b8201601f81018413615da957600080fd5b80516001600160401b03811115615dc257615dc261579d565b8060051b615dd2602082016157b3565b91825260208184018101929081019087841115615dee57600080fd5b6020850194505b838510156121915784519250615e0a83615708565b82825260209485019490910190615df556fea2646970667358221220c805f2a5ce2fed4c8eba9659aba3d47995dd6509c1c65e1d32eb03d5de84003464736f6c634300081a0033",
  "linkReferences": {},
  "deployedLinkReferences": {}
}