{
  "_format": "hh-sol-artifact-1",
  "contractName": "WorkersPool",
  "sourceName": "contracts/core/assets/workersPool/WorkersPool.sol",
  "abi": [
    {
      "inputs": [],
      "name": "CannotHireWorkersDueToNotEnoughProsperityInSettlement",
      "type": "error"
    },
    {
      "inputs": [],
      "name": "CannotHireWorkersDueToTheirCostIsHigherThanMaxProsperityToSellSpecified",
      "type": "error"
    },
    {
      "inputs": [],
      "name": "CannotHireWorkersExceedingTransactionLimit",
      "type": "error"
    },
    {
      "inputs": [],
      "name": "CannotHireWorkersInvalidWorkersToBuySpecified",
      "type": "error"
    },
    {
      "inputs": [],
      "name": "OnlyActiveGame",
      "type": "error"
    },
    {
      "inputs": [],
      "name": "OnlyMightyCreator",
      "type": "error"
    },
    {
      "inputs": [],
      "name": "OnlyWorldAssetFromSameEra",
      "type": "error"
    },
    {
      "anonymous": false,
      "inputs": [
        {
          "indexed": false,
          "internalType": "uint8",
          "name": "version",
          "type": "uint8"
        }
      ],
      "name": "Initialized",
      "type": "event"
    },
    {
      "anonymous": false,
      "inputs": [
        {
          "indexed": false,
          "internalType": "address",
          "name": "buyerSettlementAddress",
          "type": "address"
        },
        {
          "indexed": false,
          "internalType": "uint256",
          "name": "boughtWorkersAmount",
          "type": "uint256"
        },
        {
          "indexed": false,
          "internalType": "uint256",
          "name": "spentProsperityAmount",
          "type": "uint256"
        }
      ],
      "name": "WorkersBought",
      "type": "event"
    },
    {
      "inputs": [],
      "name": "assetGroupId",
      "outputs": [
        {
          "internalType": "bytes32",
          "name": "",
          "type": "bytes32"
        }
      ],
      "stateMutability": "view",
      "type": "function"
    },
    {
      "inputs": [],
      "name": "assetTypeId",
      "outputs": [
        {
          "internalType": "bytes32",
          "name": "",
          "type": "bytes32"
        }
      ],
      "stateMutability": "view",
      "type": "function"
    },
    {
      "inputs": [
        {
          "internalType": "uint256",
          "name": "unitsToBuy",
          "type": "uint256"
        }
      ],
      "name": "calculateProsperityForExactWorkers",
      "outputs": [
        {
          "internalType": "uint256",
          "name": "",
          "type": "uint256"
        },
        {
          "internalType": "uint256",
          "name": "",
          "type": "uint256"
        }
      ],
      "stateMutability": "view",
      "type": "function"
    },
    {
      "inputs": [],
      "name": "era",
      "outputs": [
        {
          "internalType": "contract IEra",
          "name": "",
          "type": "address"
        }
      ],
      "stateMutability": "view",
      "type": "function"
    },
    {
      "inputs": [],
      "name": "eraNumber",
      "outputs": [
        {
          "internalType": "uint256",
          "name": "",
          "type": "uint256"
        }
      ],
      "stateMutability": "view",
      "type": "function"
    },
    {
      "inputs": [
        {
          "internalType": "bytes",
          "name": "initParams",
          "type": "bytes"
        }
      ],
      "name": "init",
      "outputs": [],
      "stateMutability": "nonpayable",
      "type": "function"
    },
    {
      "inputs": [],
      "name": "lastPurchaseTime",
      "outputs": [
        {
          "internalType": "uint256",
          "name": "",
          "type": "uint256"
        }
      ],
      "stateMutability": "view",
      "type": "function"
    },
    {
      "inputs": [],
      "name": "registry",
      "outputs": [
        {
          "internalType": "contract IRegistry",
          "name": "",
          "type": "address"
        }
      ],
      "stateMutability": "view",
      "type": "function"
    },
    {
      "inputs": [],
      "name": "relatedRegion",
      "outputs": [
        {
          "internalType": "contract IRegion",
          "name": "",
          "type": "address"
        }
      ],
      "stateMutability": "view",
      "type": "function"
    },
    {
      "inputs": [
        {
          "internalType": "address",
          "name": "settlementAddress",
          "type": "address"
        },
        {
          "internalType": "uint256",
          "name": "workersToBuy",
          "type": "uint256"
        },
        {
          "internalType": "uint256",
          "name": "maxProsperityToSell",
          "type": "uint256"
        }
      ],
      "name": "swapProsperityForExactWorkers",
      "outputs": [
        {
          "internalType": "uint256",
          "name": "",
          "type": "uint256"
        }
      ],
      "stateMutability": "nonpayable",
      "type": "function"
    },
    {
      "inputs": [],
      "name": "workerPrice",
      "outputs": [
        {
          "internalType": "uint256",
          "name": "",
          "type": "uint256"
        }
      ],
      "stateMutability": "view",
      "type": "function"
    },
    {
      "inputs": [],
      "name": "world",
      "outputs": [
        {
          "internalType": "contract IWorld",
          "name": "",
          "type": "address"
        }
      ],
      "stateMutability": "view",
      "type": "function"
    },
    {
      "inputs": [],
      "name": "worldAssetFactory",
      "outputs": [
        {
          "internalType": "contract IWorldAssetFactory",
          "name": "",
          "type": "address"
        }
      ],
      "stateMutability": "view",
      "type": "function"
    }
  ],
  "bytecode": "0x6080604052348015600f57600080fd5b506114cd8061001f6000396000f3fe608060405234801561001057600080fd5b50600436106100bf5760003560e01c80637b1039991161007c5780637b103999146101575780637d884c741461015f57806384ba89e314610167578063be5a391a1461016f578063c14bafb114610178578063e6c15c9914610181578063ece56a1a1461019a57600080fd5b80630b4e99c3146100c4578063126adfb5146100df578063143e55e01461010757806330b67baa146101275780634461be261461012f5780634ddf47d414610142575b600080fd5b6100cc6101a2565b6040519081526020015b60405180910390f35b6100f26100ed3660046112ba565b6101df565b604080519283526020830191909152016100d6565b61010f61020b565b6040516001600160a01b0390911681526020016100d6565b61010f61028f565b6100cc61013d3660046112e8565b610299565b610155610150366004611333565b610620565b005b61010f61077e565b6100cc6107c5565b6100cc610802565b6100cc60025481565b6100cc60015481565b60005461010f906201000090046001600160a01b031681565b61010f61083f565b604080516020808252818301909252600091309183918291906020820181803683370190505090506020607a60208301853c602001519392505050565b6000806103ec6103e8826101f38383610886565b90506101ff86826108c9565b94509450505050915091565b600061021561028f565b6001600160a01b031663720a70bd61022b6107c5565b6040518263ffffffff1660e01b815260040161024991815260200190565b602060405180830381865afa158015610266573d6000803e3d6000fd5b505050506040513d601f19601f8201168201806040525081019061028a91906113ec565b905090565b600061028a610966565b60006102a36109a3565b8215806102bf57506102bd83670de0b6b3a7640000610a65565b155b156102dd576040516301ccb96360e51b815260040160405180910390fd5b836001600160a01b031663bea42f9c6040518163ffffffff1660e01b8152600401600060405180830381600087803b15801561031857600080fd5b505af115801561032c573d6000803e3d6000fd5b5050505069010f0cf064dd5920000083111561035b57604051635a45d2a760e01b815260040160405180910390fd5b6000806103736100ed670de0b6b3a76400008761141f565b915091508382111561039857604051633ec54df560e11b815260040160405180910390fd5b60006103a261020b565b90506000816001600160a01b031663c91b95666040518163ffffffff1660e01b8152600401602060405180830381865afa1580156103e4573d6000803e3d6000fd5b505050506040513d601f19601f8201168201806040525081019061040891906113ec565b90506000826001600160a01b031663cabb62f06040518163ffffffff1660e01b8152600401602060405180830381865afa15801561044a573d6000803e3d6000fd5b505050506040513d601f19601f8201168201806040525081019061046e91906113ec565b6040516370a0823160e01b81526001600160a01b038b8116600483015291925086918416906370a0823190602401602060405180830381865afa1580156104b9573d6000803e3d6000fd5b505050506040513d601f19601f820116820180604052508101906104dd9190611433565b10156104fc57604051630465fa2d60e21b815260040160405180910390fd5b60405163af7d6ca360e01b81526001600160a01b038a811660048301526024820187905283169063af7d6ca390604401600060405180830381600087803b15801561054657600080fd5b505af115801561055a573d6000803e3d6000fd5b50506040516340c10f1960e01b81526001600160a01b038c81166004830152602482018c9052841692506340c10f199150604401600060405180830381600087803b1580156105a857600080fd5b505af11580156105bc573d6000803e3d6000fd5b50505060028590555042600155604080516001600160a01b038b168152602081018a90529081018690527f342c134ff513e129f43ac7bed5ba83a44ae5101933f0f2471d8e2817a2d38e269060600160405180910390a15095979650505050505050565b600054610100900460ff16158080156106405750600054600160ff909116105b8061065a5750303b15801561065a575060005460ff166001145b6106c15760405162461bcd60e51b815260206004820152602e60248201527f496e697469616c697a61626c653a20636f6e747261637420697320616c72656160448201526d191e481a5b9a5d1a585b1a5e995960921b606482015260840160405180910390fd5b6000805460ff1916600117905580156106e4576000805461ff0019166101001790555b6000828060200190518101906106fa91906113ec565b600080546001600160a01b03909216620100000262010000600160b01b031990921691909117905550426001556801158e460913d00000600255801561077a576000805461ff0019169055604051600181527f7f26b83ff96e1f2b6a682f133852f6798a09c465da95921460cefb38474024989060200160405180910390a15b5050565b600061078861028f565b6001600160a01b0316637b1039996040518163ffffffff1660e01b8152600401602060405180830381865afa158015610266573d6000803e3d6000fd5b604080516020808252818301909252600091309183918291906020820181803683370190505090506020609a60208301853c602001519392505050565b604080516020808252818301909252600091309183918291906020820181803683370190505090506020605a60208301853c602001519392505050565b600061084961077e565b6001600160a01b031663ece56a1a6040518163ffffffff1660e01b8152600401602060405180830381865afa158015610266573d6000803e3d6000fd5b60008160000361089557600080fd5b60006108a18484610a79565b905060016001607f1b036001600160801b03821611156108c057600080fd5b90505b92915050565b60008060006108d6610bde565b905060006108e48587610d66565b9050600061090c6108fe836108f96001610f89565b610fa7565b61090788610fdb565b611015565b9050600061091a848361106c565b90506000610928858561106c565b9050600061093e83670de0b6b3a76400006110a2565b9050600061095483670de0b6b3a76400006110a2565b919b919a509098505050505050505050565b604080516014808252818301909252600091309183918291906020820181803683370190505090506014602a60208301853c601401519392505050565b60006109ad61028f565b9050336001600160a01b03821614801590610a44575060006001600160a01b03821663ebbe80346109dc6107c5565b6040516001600160e01b031960e084901b1681526004810191909152336024820152604401602060405180830381865afa158015610a1e573d6000803e3d6000fd5b505050506040513d601f19601f82011682018060405250810190610a429190611433565b145b15610a625760405163422656d160e01b815260040160405180910390fd5b50565b6000610a71828461144c565b159392505050565b600081600003610a8857600080fd5b60006001600160c01b038411610ab35782604085901b81610aab57610aab611409565b049050610bca565b60c084811c6401000000008110610acc576020918201911c5b620100008110610ade576010918201911c5b6101008110610aef576008918201911c5b60108110610aff576004918201911c5b60048110610b0f576002918201911c5b60028110610b1e576001820191505b60bf820360018603901c6001018260ff0387901b81610b3f57610b3f611409565b0492506001600160801b03831115610b5657600080fd5b608085901c83026001600160801b038616840260c088901c604089901b82811015610b82576001820391505b608084901b92900382811015610b99576001820391505b829003608084901c8214610baf57610baf611460565b888181610bbe57610bbe611409565b04870196505050505050505b6001600160801b038111156108c057600080fd5b600080610be961028f565b905060004290506000826001600160a01b0316633c8ca83d6040518163ffffffff1660e01b8152600401602060405180830381865afa158015610c30573d6000803e3d6000fd5b505050506040513d601f19601f82011682018060405250810190610c549190611433565b905080821015610c62578091505b6000836001600160a01b03166344d9bc5f6040518163ffffffff1660e01b8152600401602060405180830381865afa158015610ca2573d6000803e3d6000fd5b505050506040513d601f19601f82011682018060405250810190610cc69190611433565b90508015610cdb57610cd8838261115e565b92505b60015482811015610ce95750815b6000610cff600254670de0b6b3a7640000610886565b9050848210610d12579695505050505050565b6000610d1e8387611476565b9050662386ee0e968336662386f26fc100006000610d3c8383610886565b90506000610d4a8286610d66565b9050610d56868261106c565b9b50505050505050505050505090565b600080600084600f0b128015610d7f5750826001166001145b905060008085600f0b12610d935784610d98565b846000035b6001600160801b03169050600160801b600160401b8211610e2d57603f82901b91505b8415610e25576001851615610dd0578102607f1c5b908002607f1c906002851615610de6578102607f1c5b908002607f1c906004851615610dfc578102607f1c5b908002607f1c906008851615610e12578102607f1c5b60049490941c93908002607f1c90610dbb565b60401c610f43565b603f600160601b831015610e475760209290921b91601f19015b600160701b831015610e5f5760109290921b91600f19015b600160781b831015610e775760089290921b91600719015b6001607c1b831015610e8f5760049290921b91600319015b6001607e1b831015610ea75760029290921b91600119015b6001607f1b831015610ebf5760019290921b91600019015b60005b8615610f2c5760408210610ed557600080fd5b6001871615610efb57918302607f1c918101600160801b831115610efb57600192831c92015b928002607f1c9260019190911b90600160801b8410610f2057600193841c9391909101905b600187901c9650610ec2565b60408110610f3957600080fd5b6040039190911c90505b600083610f505781610f55565b816000035b905060016001607f1b03198112801590610f76575060016001607f1b038113155b610f7f57600080fd5b9695505050505050565b6000677fffffffffffffff821115610fa057600080fd5b5060401b90565b6000600f82810b9084900b0360016001607f1b03198112801590610fd2575060016001607f1b038113155b6108c057600080fd5b60008082600f0b13610fec57600080fd5b6080610ff783611174565b600f0b6fb17217f7d1cf79abc9e3b39803f2f6af02901c9050919050565b600081600f0b60000361102757600080fd5b600082600f0b604085600f0b901b8161104257611042611409565b05905060016001607f1b03198112801590610fd2575060016001607f1b038113156108c057600080fd5b6000600f83810b9083900b0260401d60016001607f1b03198112801590610fd2575060016001607f1b038113156108c057600080fd5b60006001607f1b600f84900b016110e6576002600160c01b031982121580156110cf5750600160c01b8213155b6110d857600080fd5b506000819003603f1b6108c3565b60008084600f0b12156110fe57836000039350600190505b60008312156111105760009290920391155b600061111c858561124f565b9050811561114157600160ff1b81111561113557600080fd5b60000391506108c39050565b6001600160ff1b0381111561115557600080fd5b91506108c39050565b600081831061116d57816108c0565b5090919050565b60008082600f0b1361118557600080fd5b6000600f83900b600160401b811261119f576040918201911d5b64010000000081126111b3576020918201911d5b6201000081126111c5576010918201911d5b61010081126111d6576008918201911d5b601081126111e6576004918201911d5b600481126111f6576002918201911d5b60028112611205576001820191505b603f19820160401b600f85900b607f8490031b6001603f1b5b60008113156112445790800260ff81901c8281029390930192607f011c9060011d61121e565b509095945050505050565b600081600003611261575060006108c3565b600083600f0b121561127257600080fd5b600f83900b6001600160801b038316810260401c90608084901c026001600160c01b038111156112a157600080fd5b60401b81198111156112b257600080fd5b019392505050565b6000602082840312156112cc57600080fd5b5035919050565b6001600160a01b0381168114610a6257600080fd5b6000806000606084860312156112fd57600080fd5b8335611308816112d3565b95602085013595506040909401359392505050565b634e487b7160e01b600052604160045260246000fd5b60006020828403121561134557600080fd5b813567ffffffffffffffff81111561135c57600080fd5b8201601f8101841361136d57600080fd5b803567ffffffffffffffff8111156113875761138761131d565b604051601f8201601f19908116603f0116810167ffffffffffffffff811182821017156113b6576113b661131d565b6040528181528282016020018610156113ce57600080fd5b81602084016020830137600091810160200191909152949350505050565b6000602082840312156113fe57600080fd5b81516108c0816112d3565b634e487b7160e01b600052601260045260246000fd5b60008261142e5761142e611409565b500490565b60006020828403121561144557600080fd5b5051919050565b60008261145b5761145b611409565b500690565b634e487b7160e01b600052600160045260246000fd5b818103818111156108c357634e487b7160e01b600052601160045260246000fdfea264697066735822122055a0d62abde50bf571ade6288963c83a7f8928b9234758e4493029b26d17be8f64736f6c634300081a0033",
  "linkReferences": {},
  "deployedLinkReferences": {}
}