{
  "_format": "hh-sol-artifact-1",
  "contractName": "StubERC20",
  "sourceName": "contracts/periphery/StubERC20.sol",
  "abi": [
    {
      "inputs": [
        {
          "internalType": "string",
          "name": "name",
          "type": "string"
        },
        {
          "internalType": "string",
          "name": "symbol",
          "type": "string"
        }
      ],
      "stateMutability": "nonpayable",
      "type": "constructor"
    },
    {
      "anonymous": false,
      "inputs": [
        {
          "indexed": true,
          "internalType": "address",
          "name": "owner",
          "type": "address"
        },
        {
          "indexed": true,
          "internalType": "address",
          "name": "spender",
          "type": "address"
        },
        {
          "indexed": false,
          "internalType": "uint256",
          "name": "value",
          "type": "uint256"
        }
      ],
      "name": "Approval",
      "type": "event"
    },
    {
      "anonymous": false,
      "inputs": [
        {
          "indexed": true,
          "internalType": "address",
          "name": "previousOwner",
          "type": "address"
        },
        {
          "indexed": true,
          "internalType": "address",
          "name": "newOwner",
          "type": "address"
        }
      ],
      "name": "OwnershipTransferred",
      "type": "event"
    },
    {
      "anonymous": false,
      "inputs": [
        {
          "indexed": true,
          "internalType": "address",
          "name": "from",
          "type": "address"
        },
        {
          "indexed": true,
          "internalType": "address",
          "name": "to",
          "type": "address"
        },
        {
          "indexed": false,
          "internalType": "uint256",
          "name": "value",
          "type": "uint256"
        }
      ],
      "name": "Transfer",
      "type": "event"
    },
    {
      "inputs": [
        {
          "internalType": "address",
          "name": "owner",
          "type": "address"
        },
        {
          "internalType": "address",
          "name": "spender",
          "type": "address"
        }
      ],
      "name": "allowance",
      "outputs": [
        {
          "internalType": "uint256",
          "name": "",
          "type": "uint256"
        }
      ],
      "stateMutability": "view",
      "type": "function"
    },
    {
      "inputs": [
        {
          "internalType": "address",
          "name": "spender",
          "type": "address"
        },
        {
          "internalType": "uint256",
          "name": "amount",
          "type": "uint256"
        }
      ],
      "name": "approve",
      "outputs": [
        {
          "internalType": "bool",
          "name": "",
          "type": "bool"
        }
      ],
      "stateMutability": "nonpayable",
      "type": "function"
    },
    {
      "inputs": [
        {
          "internalType": "address",
          "name": "account",
          "type": "address"
        }
      ],
      "name": "balanceOf",
      "outputs": [
        {
          "internalType": "uint256",
          "name": "",
          "type": "uint256"
        }
      ],
      "stateMutability": "view",
      "type": "function"
    },
    {
      "inputs": [
        {
          "internalType": "address",
          "name": "srcAddress",
          "type": "address"
        },
        {
          "internalType": "uint256",
          "name": "amount",
          "type": "uint256"
        }
      ],
      "name": "burnFrom",
      "outputs": [],
      "stateMutability": "nonpayable",
      "type": "function"
    },
    {
      "inputs": [],
      "name": "decimals",
      "outputs": [
        {
          "internalType": "uint8",
          "name": "",
          "type": "uint8"
        }
      ],
      "stateMutability": "view",
      "type": "function"
    },
    {
      "inputs": [
        {
          "internalType": "address",
          "name": "spender",
          "type": "address"
        },
        {
          "internalType": "uint256",
          "name": "subtractedValue",
          "type": "uint256"
        }
      ],
      "name": "decreaseAllowance",
      "outputs": [
        {
          "internalType": "bool",
          "name": "",
          "type": "bool"
        }
      ],
      "stateMutability": "nonpayable",
      "type": "function"
    },
    {
      "inputs": [
        {
          "internalType": "address",
          "name": "spender",
          "type": "address"
        },
        {
          "internalType": "uint256",
          "name": "addedValue",
          "type": "uint256"
        }
      ],
      "name": "increaseAllowance",
      "outputs": [
        {
          "internalType": "bool",
          "name": "",
          "type": "bool"
        }
      ],
      "stateMutability": "nonpayable",
      "type": "function"
    },
    {
      "inputs": [
        {
          "internalType": "address",
          "name": "dstAddress",
          "type": "address"
        },
        {
          "internalType": "uint256",
          "name": "amount",
          "type": "uint256"
        }
      ],
      "name": "mintTo",
      "outputs": [],
      "stateMutability": "nonpayable",
      "type": "function"
    },
    {
      "inputs": [],
      "name": "name",
      "outputs": [
        {
          "internalType": "string",
          "name": "",
          "type": "string"
        }
      ],
      "stateMutability": "view",
      "type": "function"
    },
    {
      "inputs": [],
      "name": "owner",
      "outputs": [
        {
          "internalType": "address",
          "name": "",
          "type": "address"
        }
      ],
      "stateMutability": "view",
      "type": "function"
    },
    {
      "inputs": [],
      "name": "renounceOwnership",
      "outputs": [],
      "stateMutability": "nonpayable",
      "type": "function"
    },
    {
      "inputs": [],
      "name": "symbol",
      "outputs": [
        {
          "internalType": "string",
          "name": "",
          "type": "string"
        }
      ],
      "stateMutability": "view",
      "type": "function"
    },
    {
      "inputs": [],
      "name": "totalSupply",
      "outputs": [
        {
          "internalType": "uint256",
          "name": "",
          "type": "uint256"
        }
      ],
      "stateMutability": "view",
      "type": "function"
    },
    {
      "inputs": [
        {
          "internalType": "address",
          "name": "to",
          "type": "address"
        },
        {
          "internalType": "uint256",
          "name": "amount",
          "type": "uint256"
        }
      ],
      "name": "transfer",
      "outputs": [
        {
          "internalType": "bool",
          "name": "",
          "type": "bool"
        }
      ],
      "stateMutability": "nonpayable",
      "type": "function"
    },
    {
      "inputs": [
        {
          "internalType": "address",
          "name": "from",
          "type": "address"
        },
        {
          "internalType": "address",
          "name": "to",
          "type": "address"
        },
        {
          "internalType": "uint256",
          "name": "amount",
          "type": "uint256"
        }
      ],
      "name": "transferFrom",
      "outputs": [
        {
          "internalType": "bool",
          "name": "",
          "type": "bool"
        }
      ],
      "stateMutability": "nonpayable",
      "type": "function"
    },
    {
      "inputs": [
        {
          "internalType": "address",
          "name": "newOwner",
          "type": "address"
        }
      ],
      "name": "transferOwnership",
      "outputs": [],
      "stateMutability": "nonpayable",
      "type": "function"
    }
  ],
  "bytecode": "0x608060405234801561001057600080fd5b50604051610f6b380380610f6b83398101604081905261002f91610179565b8181600361003d838261026b565b50600461004a828261026b565b50505061006361005e61006a60201b60201c565b61006e565b5050610329565b3390565b600580546001600160a01b038381166001600160a01b0319831681179093556040519116919082907f8be0079c531659141344cd1fd0a4f28419497f9722a3daafe3b4186f6b6457e090600090a35050565b634e487b7160e01b600052604160045260246000fd5b600082601f8301126100e757600080fd5b81516001600160401b03811115610100576101006100c0565b604051601f8201601f19908116603f011681016001600160401b038111828210171561012e5761012e6100c0565b60405281815283820160200185101561014657600080fd5b60005b8281101561016557602081860181015183830182015201610149565b506000918101602001919091529392505050565b6000806040838503121561018c57600080fd5b82516001600160401b038111156101a257600080fd5b6101ae858286016100d6565b602085015190935090506001600160401b038111156101cc57600080fd5b6101d8858286016100d6565b9150509250929050565b600181811c908216806101f657607f821691505b60208210810361021657634e487b7160e01b600052602260045260246000fd5b50919050565b601f82111561026657806000526020600020601f840160051c810160208510156102435750805b601f840160051c820191505b81811015610263576000815560010161024f565b50505b505050565b81516001600160401b03811115610284576102846100c0565b6102988161029284546101e2565b8461021c565b6020601f8211600181146102cc57600083156102b45750848201515b600019600385901b1c1916600184901b178455610263565b600084815260208120601f198516915b828110156102fc57878501518255602094850194600190920191016102dc565b508482101561031a5786840151600019600387901b60f8161c191681555b50505050600190811b01905550565b610c33806103386000396000f3fe608060405234801561001057600080fd5b50600436106100e05760003560e01c8063715018a611610087578063715018a6146101ab57806379cc6790146101b35780638da5cb5b146101c657806395d89b41146101e1578063a457c2d7146101e9578063a9059cbb146101fc578063dd62ed3e1461020f578063f2fde38b1461022257600080fd5b806306fdde03146100e5578063095ea7b31461010357806318160ddd1461012657806323b872dd14610138578063313ce5671461014b578063395093511461015a578063449a52f81461016d57806370a0823114610182575b600080fd5b6100ed610235565b6040516100fa9190610a7c565b60405180910390f35b610116610111366004610ae6565b6102c7565b60405190151581526020016100fa565b6002545b6040519081526020016100fa565b610116610146366004610b10565b6102e1565b604051601281526020016100fa565b610116610168366004610ae6565b610305565b61018061017b366004610ae6565b610327565b005b61012a610190366004610b4d565b6001600160a01b031660009081526020819052604090205490565b61018061033d565b6101806101c1366004610ae6565b610351565b6005546040516001600160a01b0390911681526020016100fa565b6100ed610363565b6101166101f7366004610ae6565b610372565b61011661020a366004610ae6565b6103f2565b61012a61021d366004610b6f565b610400565b610180610230366004610b4d565b61042b565b60606003805461024490610ba2565b80601f016020809104026020016040519081016040528092919081815260200182805461027090610ba2565b80156102bd5780601f10610292576101008083540402835291602001916102bd565b820191906000526020600020905b8154815290600101906020018083116102a057829003601f168201915b5050505050905090565b6000336102d58185856104a4565b60019150505b92915050565b6000336102ef8582856105c9565b6102fa858585610643565b506001949350505050565b6000336102d58185856103188383610400565b6103229190610bdc565b6104a4565b61032f6107e7565b6103398282610841565b5050565b6103456107e7565b61034f6000610900565b565b6103596107e7565b6103398282610952565b60606004805461024490610ba2565b600033816103808286610400565b9050838110156103e55760405162461bcd60e51b815260206004820152602560248201527f45524332303a2064656372656173656420616c6c6f77616e63652062656c6f77604482015264207a65726f60d81b60648201526084015b60405180910390fd5b6102fa82868684036104a4565b6000336102d5818585610643565b6001600160a01b03918216600090815260016020908152604080832093909416825291909152205490565b6104336107e7565b6001600160a01b0381166104985760405162461bcd60e51b815260206004820152602660248201527f4f776e61626c653a206e6577206f776e657220697320746865207a65726f206160448201526564647265737360d01b60648201526084016103dc565b6104a181610900565b50565b6001600160a01b0383166105065760405162461bcd60e51b8152602060048201526024808201527f45524332303a20617070726f76652066726f6d20746865207a65726f206164646044820152637265737360e01b60648201526084016103dc565b6001600160a01b0382166105675760405162461bcd60e51b815260206004820152602260248201527f45524332303a20617070726f766520746f20746865207a65726f206164647265604482015261737360f01b60648201526084016103dc565b6001600160a01b0383811660008181526001602090815260408083209487168084529482529182902085905590518481527f8c5be1e5ebec7d5bd14f71427d1e84f3dd0314c0f7b2291e5b200ac8c7c3b92591015b60405180910390a3505050565b60006105d58484610400565b9050600019811461063d57818110156106305760405162461bcd60e51b815260206004820152601d60248201527f45524332303a20696e73756666696369656e7420616c6c6f77616e636500000060448201526064016103dc565b61063d84848484036104a4565b50505050565b6001600160a01b0383166106a75760405162461bcd60e51b815260206004820152602560248201527f45524332303a207472616e736665722066726f6d20746865207a65726f206164604482015264647265737360d81b60648201526084016103dc565b6001600160a01b0382166107095760405162461bcd60e51b815260206004820152602360248201527f45524332303a207472616e7366657220746f20746865207a65726f206164647260448201526265737360e81b60648201526084016103dc565b6001600160a01b038316600090815260208190526040902054818110156107815760405162461bcd60e51b815260206004820152602660248201527f45524332303a207472616e7366657220616d6f756e7420657863656564732062604482015265616c616e636560d01b60648201526084016103dc565b6001600160a01b03848116600081815260208181526040808320878703905593871680835291849020805487019055925185815290927fddf252ad1be2c89b69c2b068fc378daa952ba7f163c4a11628f55a4df523b3ef910160405180910390a361063d565b6005546001600160a01b0316331461034f5760405162461bcd60e51b815260206004820181905260248201527f4f776e61626c653a2063616c6c6572206973206e6f7420746865206f776e657260448201526064016103dc565b6001600160a01b0382166108975760405162461bcd60e51b815260206004820152601f60248201527f45524332303a206d696e7420746f20746865207a65726f20616464726573730060448201526064016103dc565b80600260008282546108a99190610bdc565b90915550506001600160a01b038216600081815260208181526040808320805486019055518481527fddf252ad1be2c89b69c2b068fc378daa952ba7f163c4a11628f55a4df523b3ef910160405180910390a35050565b600580546001600160a01b038381166001600160a01b0319831681179093556040519116919082907f8be0079c531659141344cd1fd0a4f28419497f9722a3daafe3b4186f6b6457e090600090a35050565b6001600160a01b0382166109b25760405162461bcd60e51b815260206004820152602160248201527f45524332303a206275726e2066726f6d20746865207a65726f206164647265736044820152607360f81b60648201526084016103dc565b6001600160a01b03821660009081526020819052604090205481811015610a265760405162461bcd60e51b815260206004820152602260248201527f45524332303a206275726e20616d6f756e7420657863656564732062616c616e604482015261636560f01b60648201526084016103dc565b6001600160a01b0383166000818152602081815260408083208686039055600280548790039055518581529192917fddf252ad1be2c89b69c2b068fc378daa952ba7f163c4a11628f55a4df523b3ef91016105bc565b602081526000825180602084015260005b81811015610aaa5760208186018101516040868401015201610a8d565b506000604082850101526040601f19601f83011684010191505092915050565b80356001600160a01b0381168114610ae157600080fd5b919050565b60008060408385031215610af957600080fd5b610b0283610aca565b946020939093013593505050565b600080600060608486031215610b2557600080fd5b610b2e84610aca565b9250610b3c60208501610aca565b929592945050506040919091013590565b600060208284031215610b5f57600080fd5b610b6882610aca565b9392505050565b60008060408385031215610b8257600080fd5b610b8b83610aca565b9150610b9960208401610aca565b90509250929050565b600181811c90821680610bb657607f821691505b602082108103610bd657634e487b7160e01b600052602260045260246000fd5b50919050565b808201808211156102db57634e487b7160e01b600052601160045260246000fdfea264697066735822122093dfa750683a79f0acef91c95bfe31a9d8d51edca8a6bc5f3a9c29065b2c6e9d64736f6c634300081a0033",
  "linkReferences": {},
  "deployedLinkReferences": {}
}