{
  "_format": "hh-sol-artifact-1",
  "contractName": "Units",
  "sourceName": "contracts/core/assets/tokens/units/Units.sol",
  "abi": [
    {
      "inputs": [],
      "stateMutability": "nonpayable",
      "type": "constructor"
    },
    {
      "inputs": [],
      "name": "Disabled",
      "type": "error"
    },
    {
      "inputs": [],
      "name": "OnlyActiveGame",
      "type": "error"
    },
    {
      "inputs": [],
      "name": "OnlyMightyCreator",
      "type": "error"
    },
    {
      "inputs": [],
      "name": "OnlyWorldAssetFromSameEra",
      "type": "error"
    },
    {
      "anonymous": false,
      "inputs": [
        {
          "indexed": true,
          "internalType": "address",
          "name": "owner",
          "type": "address"
        },
        {
          "indexed": true,
          "internalType": "address",
          "name": "spender",
          "type": "address"
        },
        {
          "indexed": false,
          "internalType": "uint256",
          "name": "value",
          "type": "uint256"
        }
      ],
      "name": "Approval",
      "type": "event"
    },
    {
      "anonymous": false,
      "inputs": [
        {
          "indexed": false,
          "internalType": "uint8",
          "name": "version",
          "type": "uint8"
        }
      ],
      "name": "Initialized",
      "type": "event"
    },
    {
      "anonymous": false,
      "inputs": [
        {
          "indexed": true,
          "internalType": "address",
          "name": "from",
          "type": "address"
        },
        {
          "indexed": true,
          "internalType": "address",
          "name": "to",
          "type": "address"
        },
        {
          "indexed": false,
          "internalType": "uint256",
          "name": "value",
          "type": "uint256"
        }
      ],
      "name": "Transfer",
      "type": "event"
    },
    {
      "inputs": [
        {
          "internalType": "address",
          "name": "owner",
          "type": "address"
        },
        {
          "internalType": "address",
          "name": "spender",
          "type": "address"
        }
      ],
      "name": "allowance",
      "outputs": [
        {
          "internalType": "uint256",
          "name": "",
          "type": "uint256"
        }
      ],
      "stateMutability": "view",
      "type": "function"
    },
    {
      "inputs": [
        {
          "internalType": "address",
          "name": "spender",
          "type": "address"
        },
        {
          "internalType": "uint256",
          "name": "amount",
          "type": "uint256"
        }
      ],
      "name": "approve",
      "outputs": [
        {
          "internalType": "bool",
          "name": "",
          "type": "bool"
        }
      ],
      "stateMutability": "nonpayable",
      "type": "function"
    },
    {
      "inputs": [],
      "name": "assetGroupId",
      "outputs": [
        {
          "internalType": "bytes32",
          "name": "",
          "type": "bytes32"
        }
      ],
      "stateMutability": "view",
      "type": "function"
    },
    {
      "inputs": [],
      "name": "assetTypeId",
      "outputs": [
        {
          "internalType": "bytes32",
          "name": "",
          "type": "bytes32"
        }
      ],
      "stateMutability": "view",
      "type": "function"
    },
    {
      "inputs": [
        {
          "internalType": "address",
          "name": "account",
          "type": "address"
        }
      ],
      "name": "balanceOf",
      "outputs": [
        {
          "internalType": "uint256",
          "name": "",
          "type": "uint256"
        }
      ],
      "stateMutability": "view",
      "type": "function"
    },
    {
      "inputs": [
        {
          "internalType": "uint256",
          "name": "amount",
          "type": "uint256"
        }
      ],
      "name": "burn",
      "outputs": [],
      "stateMutability": "nonpayable",
      "type": "function"
    },
    {
      "inputs": [
        {
          "internalType": "address",
          "name": "account",
          "type": "address"
        },
        {
          "internalType": "uint256",
          "name": "amount",
          "type": "uint256"
        }
      ],
      "name": "burnFrom",
      "outputs": [],
      "stateMutability": "nonpayable",
      "type": "function"
    },
    {
      "inputs": [],
      "name": "decimals",
      "outputs": [
        {
          "internalType": "uint8",
          "name": "",
          "type": "uint8"
        }
      ],
      "stateMutability": "view",
      "type": "function"
    },
    {
      "inputs": [
        {
          "internalType": "address",
          "name": "spender",
          "type": "address"
        },
        {
          "internalType": "uint256",
          "name": "subtractedValue",
          "type": "uint256"
        }
      ],
      "name": "decreaseAllowance",
      "outputs": [
        {
          "internalType": "bool",
          "name": "",
          "type": "bool"
        }
      ],
      "stateMutability": "nonpayable",
      "type": "function"
    },
    {
      "inputs": [],
      "name": "era",
      "outputs": [
        {
          "internalType": "contract IEra",
          "name": "",
          "type": "address"
        }
      ],
      "stateMutability": "view",
      "type": "function"
    },
    {
      "inputs": [],
      "name": "eraNumber",
      "outputs": [
        {
          "internalType": "uint256",
          "name": "",
          "type": "uint256"
        }
      ],
      "stateMutability": "view",
      "type": "function"
    },
    {
      "inputs": [
        {
          "internalType": "address",
          "name": "spender",
          "type": "address"
        },
        {
          "internalType": "uint256",
          "name": "addedValue",
          "type": "uint256"
        }
      ],
      "name": "increaseAllowance",
      "outputs": [
        {
          "internalType": "bool",
          "name": "",
          "type": "bool"
        }
      ],
      "stateMutability": "nonpayable",
      "type": "function"
    },
    {
      "inputs": [
        {
          "internalType": "bytes",
          "name": "initParams",
          "type": "bytes"
        }
      ],
      "name": "init",
      "outputs": [],
      "stateMutability": "nonpayable",
      "type": "function"
    },
    {
      "inputs": [
        {
          "internalType": "address",
          "name": "to",
          "type": "address"
        },
        {
          "internalType": "uint256",
          "name": "amount",
          "type": "uint256"
        }
      ],
      "name": "mint",
      "outputs": [],
      "stateMutability": "nonpayable",
      "type": "function"
    },
    {
      "inputs": [],
      "name": "name",
      "outputs": [
        {
          "internalType": "string",
          "name": "",
          "type": "string"
        }
      ],
      "stateMutability": "view",
      "type": "function"
    },
    {
      "inputs": [],
      "name": "registry",
      "outputs": [
        {
          "internalType": "contract IRegistry",
          "name": "",
          "type": "address"
        }
      ],
      "stateMutability": "view",
      "type": "function"
    },
    {
      "inputs": [],
      "name": "symbol",
      "outputs": [
        {
          "internalType": "string",
          "name": "",
          "type": "string"
        }
      ],
      "stateMutability": "view",
      "type": "function"
    },
    {
      "inputs": [],
      "name": "tokenName",
      "outputs": [
        {
          "internalType": "string",
          "name": "",
          "type": "string"
        }
      ],
      "stateMutability": "view",
      "type": "function"
    },
    {
      "inputs": [],
      "name": "tokenSymbol",
      "outputs": [
        {
          "internalType": "string",
          "name": "",
          "type": "string"
        }
      ],
      "stateMutability": "view",
      "type": "function"
    },
    {
      "inputs": [],
      "name": "totalSupply",
      "outputs": [
        {
          "internalType": "uint256",
          "name": "",
          "type": "uint256"
        }
      ],
      "stateMutability": "view",
      "type": "function"
    },
    {
      "inputs": [
        {
          "internalType": "address",
          "name": "to",
          "type": "address"
        },
        {
          "internalType": "uint256",
          "name": "amount",
          "type": "uint256"
        }
      ],
      "name": "transfer",
      "outputs": [
        {
          "internalType": "bool",
          "name": "success",
          "type": "bool"
        }
      ],
      "stateMutability": "nonpayable",
      "type": "function"
    },
    {
      "inputs": [
        {
          "internalType": "address",
          "name": "from",
          "type": "address"
        },
        {
          "internalType": "address",
          "name": "to",
          "type": "address"
        },
        {
          "internalType": "uint256",
          "name": "amount",
          "type": "uint256"
        }
      ],
      "name": "transferFrom",
      "outputs": [
        {
          "internalType": "bool",
          "name": "success",
          "type": "bool"
        }
      ],
      "stateMutability": "nonpayable",
      "type": "function"
    },
    {
      "inputs": [],
      "name": "unitTypeId",
      "outputs": [
        {
          "internalType": "bytes32",
          "name": "",
          "type": "bytes32"
        }
      ],
      "stateMutability": "view",
      "type": "function"
    },
    {
      "inputs": [],
      "name": "world",
      "outputs": [
        {
          "internalType": "contract IWorld",
          "name": "",
          "type": "address"
        }
      ],
      "stateMutability": "view",
      "type": "function"
    },
    {
      "inputs": [],
      "name": "worldAssetFactory",
      "outputs": [
        {
          "internalType": "contract IWorldAssetFactory",
          "name": "",
          "type": "address"
        }
      ],
      "stateMutability": "view",
      "type": "function"
    }
  ],
  "bytecode": "0x608060405234801561001057600080fd5b5060408051602080820183526000808352835191820190935291825290600361003983826100ed565b50600461004682826100ed565b5050506101ab565b634e487b7160e01b600052604160045260246000fd5b600181811c9082168061007857607f821691505b60208210810361009857634e487b7160e01b600052602260045260246000fd5b50919050565b601f8211156100e857806000526020600020601f840160051c810160208510156100c55750805b601f840160051c820191505b818110156100e557600081556001016100d1565b50505b505050565b81516001600160401b038111156101065761010661004e565b61011a816101148454610064565b8461009e565b6020601f82116001811461014e57600083156101365750848201515b600019600385901b1c1916600184901b1784556100e5565b600084815260208120601f198516915b8281101561017e578785015182556020948501946001909201910161015e565b508482101561019c5786840151600019600387901b60f8161c191681555b50505050600190811b01905550565b6120b6806101ba6000396000f3fe608060405234801561001057600080fd5b50600436106101635760003560e01c80635920c543116100ce5780637d884c74116100875780637d884c74146102bc57806384ba89e3146102c457806395d89b41146102cc578063a457c2d7146102d4578063a9059cbb146102e7578063dd62ed3e146102fa578063ece56a1a1461030d57600080fd5b80635920c5431461025f5780636c02a9311461026857806370a082311461027057806379cc6790146102995780637b103999146102ac5780637b61c320146102b457600080fd5b806330b67baa1161012057806330b67baa146101fa578063313ce56714610202578063395093511461021157806340c10f191461022457806342966c68146102395780634ddf47d41461024c57600080fd5b806306fdde0314610168578063095ea7b3146101865780630b4e99c3146101a9578063143e55e0146101bf57806318160ddd146101df57806323b872dd146101e7575b600080fd5b610170610315565b60405161017d9190611ad7565b60405180910390f35b610199610194366004611b1f565b61036d565b604051901515815260200161017d565b6101b1610387565b60405190815260200161017d565b6101c76103c4565b6040516001600160a01b03909116815260200161017d565b6002546101b1565b6101996101f5366004611b4b565b610448565b6101c761048b565b6040516012815260200161017d565b61019961021f366004611b1f565b610495565b610237610232366004611b1f565b6104b7565b005b610237610247366004611b8c565b6104cd565b61023761025a366004611c12565b6104d9565b6101b160085481565b610170610626565b6101b161027e366004611c91565b6001600160a01b031660009081526020819052604090205490565b6102376102a7366004611b1f565b6106b4565b6101c76106d6565b61017061071d565b6101b161072a565b6101b1610767565b6101706107a4565b6101996102e2366004611b1f565b6107b8565b6101996102f5366004611b1f565b61083e565b6101b1610308366004611cae565b610859565b6101c7610884565b606060066040516020016103299190611d21565b60405160208183030381529060405261034861034361072a565b6108cb565b604051602001610359929190611d9f565b604051602081830303815290604052905090565b60003361037b81858561095d565b60019150505b92915050565b604080516020808252818301909252600091309183918291906020820181803683370190505090506020607a60208301853c602001519392505050565b60006103ce61048b565b6001600160a01b031663720a70bd6103e461072a565b6040518263ffffffff1660e01b815260040161040291815260200190565b602060405180830381865afa15801561041f573d6000803e3d6000fd5b505050506040513d601f19601f820116820180604052508101906104439190611dce565b905090565b600061045333610a81565b1561046b57610463848484610b2a565b506001610484565b604051633ac4266d60e11b815260040160405180910390fd5b9392505050565b6000610443610ce5565b60003361037b8185856104a88383610859565b6104b29190611deb565b61095d565b6104bf610d22565b6104c98282610dda565b5050565b6104d681610ead565b50565b600554610100900460ff16158080156104f95750600554600160ff909116105b806105135750303b158015610513575060055460ff166001145b61057b5760405162461bcd60e51b815260206004820152602e60248201527f496e697469616c697a61626c653a20636f6e747261637420697320616c72656160448201526d191e481a5b9a5d1a585b1a5e995960921b60648201526084015b60405180910390fd5b6005805460ff19166001179055801561059e576005805461ff0019166101001790555b6000806000848060200190518101906105b79190611e59565b9194509250905060066105ca8482611f13565b5060076105d78382611f13565b50600855505080156104c9576005805461ff0019169055604051600181527f7f26b83ff96e1f2b6a682f133852f6798a09c465da95921460cefb38474024989060200160405180910390a15050565b6006805461063390611ce7565b80601f016020809104026020016040519081016040528092919081815260200182805461065f90611ce7565b80156106ac5780601f10610681576101008083540402835291602001916106ac565b820191906000526020600020905b81548152906001019060200180831161068f57829003601f168201915b505050505081565b6106bd33610a81565b156106cc576104c98282610eb3565b6104c98282610ffd565b60006106e061048b565b6001600160a01b0316637b1039996040518163ffffffff1660e01b8152600401602060405180830381865afa15801561041f573d6000803e3d6000fd5b6007805461063390611ce7565b604080516020808252818301909252600091309183918291906020820181803683370190505090506020609a60208301853c602001519392505050565b604080516020808252818301909252600091309183918291906020820181803683370190505090506020605a60208301853c602001519392505050565b606060076040516020016103299190611d21565b600033816107c68286610859565b9050838110156108265760405162461bcd60e51b815260206004820152602560248201527f45524332303a2064656372656173656420616c6c6f77616e63652062656c6f77604482015264207a65726f60d81b6064820152608401610572565b610833828686840361095d565b506001949350505050565b6000604051633ac4266d60e11b815260040160405180910390fd5b6001600160a01b03918216600090815260016020908152604080832093909416825291909152205490565b600061088e6106d6565b6001600160a01b031663ece56a1a6040518163ffffffff1660e01b8152600401602060405180830381865afa15801561041f573d6000803e3d6000fd5b606060006108d883611012565b60010190506000816001600160401b038111156108f7576108f7611ba5565b6040519080825280601f01601f191660200182016040528015610921576020820181803683370190505b5090508181016020015b600019016f181899199a1a9b1b9c1cb0b131b232b360811b600a86061a8153600a850494508461092b57509392505050565b6001600160a01b0383166109bf5760405162461bcd60e51b8152602060048201526024808201527f45524332303a20617070726f76652066726f6d20746865207a65726f206164646044820152637265737360e01b6064820152608401610572565b6001600160a01b038216610a205760405162461bcd60e51b815260206004820152602260248201527f45524332303a20617070726f766520746f20746865207a65726f206164647265604482015261737360f01b6064820152608401610572565b6001600160a01b0383811660008181526001602090815260408083209487168084529482529182902085905590518481527f8c5be1e5ebec7d5bd14f71427d1e84f3dd0314c0f7b2291e5b200ac8c7c3b925910160405180910390a3505050565b600080610a8c61048b565b9050806001600160a01b0316836001600160a01b03161480610484575060006001600160a01b03821663ebbe8034610ac261072a565b866040518363ffffffff1660e01b8152600401610ae0929190611fd1565b602060405180830381865afa158015610afd573d6000803e3d6000fd5b505050506040513d601f19601f82011682018060405250810190610b219190611fe8565b14159392505050565b6001600160a01b038316610b8e5760405162461bcd60e51b815260206004820152602560248201527f45524332303a207472616e736665722066726f6d20746865207a65726f206164604482015264647265737360d81b6064820152608401610572565b6001600160a01b038216610bf05760405162461bcd60e51b815260206004820152602360248201527f45524332303a207472616e7366657220746f20746865207a65726f206164647260448201526265737360e81b6064820152608401610572565b610bfb8383836110ea565b6001600160a01b03831660009081526020819052604090205481811015610c735760405162461bcd60e51b815260206004820152602660248201527f45524332303a207472616e7366657220616d6f756e7420657863656564732062604482015265616c616e636560d01b6064820152608401610572565b6001600160a01b03848116600081815260208181526040808320878703905593871680835291849020805487019055925185815290927fddf252ad1be2c89b69c2b068fc378daa952ba7f163c4a11628f55a4df523b3ef910160405180910390a3610cdf8484846115b7565b50505050565b604080516014808252818301909252600091309183918291906020820181803683370190505090506014602a60208301853c601401519392505050565b6000610d2c61048b565b9050336001600160a01b03821614801590610dbc575060006001600160a01b03821663ebbe8034610d5b61072a565b336040518363ffffffff1660e01b8152600401610d79929190611fd1565b602060405180830381865afa158015610d96573d6000803e3d6000fd5b505050506040513d601f19601f82011682018060405250810190610dba9190611fe8565b145b156104d65760405163422656d160e01b815260040160405180910390fd5b6001600160a01b038216610e305760405162461bcd60e51b815260206004820152601f60248201527f45524332303a206d696e7420746f20746865207a65726f2061646472657373006044820152606401610572565b610e3c600083836110ea565b8060026000828254610e4e9190611deb565b90915550506001600160a01b038216600081815260208181526040808320805486019055518481527fddf252ad1be2c89b69c2b068fc378daa952ba7f163c4a11628f55a4df523b3ef910160405180910390a36104c9600083836115b7565b6104d633825b6001600160a01b038216610f135760405162461bcd60e51b815260206004820152602160248201527f45524332303a206275726e2066726f6d20746865207a65726f206164647265736044820152607360f81b6064820152608401610572565b610f1f826000836110ea565b6001600160a01b03821660009081526020819052604090205481811015610f935760405162461bcd60e51b815260206004820152602260248201527f45524332303a206275726e20616d6f756e7420657863656564732062616c616e604482015261636560f01b6064820152608401610572565b6001600160a01b0383166000818152602081815260408083208686039055600280548790039055518581529192917fddf252ad1be2c89b69c2b068fc378daa952ba7f163c4a11628f55a4df523b3ef910160405180910390a3610ff8836000846115b7565b505050565b6110088233836119ac565b6104c98282610eb3565b60008072184f03e93ff9f4daa797ed6e38ed64bf6a1f0160401b83106110515772184f03e93ff9f4daa797ed6e38ed64bf6a1f0160401b830492506040015b6d04ee2d6d415b85acef8100000000831061107d576d04ee2d6d415b85acef8100000000830492506020015b662386f26fc10000831061109b57662386f26fc10000830492506010015b6305f5e10083106110b3576305f5e100830492506008015b61271083106110c757612710830492506004015b606483106110d9576064830492506002015b600a83106103815760010192915050565b6001600160a01b0383161580156111a6575060408051808201909152600481526361726d7960e01b60209091015260008051602061206183398151915261112f61048b565b6001600160a01b031663ebbe803461114561072a565b856040518363ffffffff1660e01b8152600401611163929190611fd1565b602060405180830381865afa158015611180573d6000803e3d6000fd5b505050506040513d601f19601f820116820180604052508101906111a49190611fe8565b145b156112df576000826001600160a01b031663c45f10006040518163ffffffff1660e01b8152600401602060405180830381865afa1580156111eb573d6000803e3d6000fd5b505050506040513d601f19601f8201168201806040525081019061120f9190611dce565b905061121a81611a20565b156112dd57806001600160a01b031663e6c15c996040518163ffffffff1660e01b8152600401602060405180830381865afa15801561125d573d6000803e3d6000fd5b505050506040513d601f19601f820116820180604052508101906112819190611dce565b604051637706581760e01b81524260048201526001600160a01b039190911690637706581790602401600060405180830381600087803b1580156112c457600080fd5b505af11580156112d8573d6000803e3d6000fd5b505050505b505b6001600160a01b03821615801561139b575060408051808201909152600481526361726d7960e01b60209091015260008051602061206183398151915261132461048b565b6001600160a01b031663ebbe803461133a61072a565b866040518363ffffffff1660e01b8152600401611358929190611fd1565b602060405180830381865afa158015611375573d6000803e3d6000fd5b505050506040513d601f19601f820116820180604052508101906113999190611fe8565b145b15610ff85760008390506000816001600160a01b031663c45f10006040518163ffffffff1660e01b8152600401602060405180830381865afa1580156113e5573d6000803e3d6000fd5b505050506040513d601f19601f820116820180604052508101906114099190611dce565b905061141481611a20565b156115b0576000826001600160a01b03166344e445456040518163ffffffff1660e01b8152600401602060405180830381865afa158015611459573d6000803e3d6000fd5b505050506040513d601f19601f8201168201806040525081019061147d9190611dce565b90506000816001600160a01b031663383f9ac36040518163ffffffff1660e01b8152600401606060405180830381865afa1580156114bf573d6000803e3d6000fd5b505050506040513d601f19601f820116820180604052508101906114e3919061201d565b92505050826001600160a01b031663e6c15c996040518163ffffffff1660e01b8152600401602060405180830381865afa158015611525573d6000803e3d6000fd5b505050506040513d601f19601f820116820180604052508101906115499190611dce565b604051637706581760e01b81526001600160401b03831660048201526001600160a01b039190911690637706581790602401600060405180830381600087803b15801561159557600080fd5b505af11580156115a9573d6000803e3d6000fd5b5050505050505b5050505050565b6001600160a01b038316158015611673575060408051808201909152600481526361726d7960e01b6020909101526000805160206120618339815191526115fc61048b565b6001600160a01b031663ebbe803461161261072a565b856040518363ffffffff1660e01b8152600401611630929190611fd1565b602060405180830381865afa15801561164d573d6000803e3d6000fd5b505050506040513d601f19601f820116820180604052508101906116719190611fe8565b145b156117b0576000826001600160a01b031663c45f10006040518163ffffffff1660e01b8152600401602060405180830381865afa1580156116b8573d6000803e3d6000fd5b505050506040513d601f19601f820116820180604052508101906116dc9190611dce565b90506116e781611a20565b156117ae57806001600160a01b031663e6c15c996040518163ffffffff1660e01b8152600401602060405180830381865afa15801561172a573d6000803e3d6000fd5b505050506040513d601f19601f8201168201806040525081019061174e9190611dce565b6001600160a01b031663403e2e43836040518263ffffffff1660e01b815260040161177b91815260200190565b600060405180830381600087803b15801561179557600080fd5b505af11580156117a9573d6000803e3d6000fd5b505050505b505b6001600160a01b03821615801561186c575060408051808201909152600481526361726d7960e01b6020909101526000805160206120618339815191526117f561048b565b6001600160a01b031663ebbe803461180b61072a565b866040518363ffffffff1660e01b8152600401611829929190611fd1565b602060405180830381865afa158015611846573d6000803e3d6000fd5b505050506040513d601f19601f8201168201806040525081019061186a9190611fe8565b145b15610ff8576000836001600160a01b031663c45f10006040518163ffffffff1660e01b8152600401602060405180830381865afa1580156118b1573d6000803e3d6000fd5b505050506040513d601f19601f820116820180604052508101906118d59190611dce565b90506118e081611a20565b15610cdf57806001600160a01b031663e6c15c996040518163ffffffff1660e01b8152600401602060405180830381865afa158015611923573d6000803e3d6000fd5b505050506040513d601f19601f820116820180604052508101906119479190611dce565b6001600160a01b03166354082260836040518263ffffffff1660e01b815260040161197491815260200190565b600060405180830381600087803b15801561198e57600080fd5b505af11580156119a2573d6000803e3d6000fd5b5050505050505050565b60006119b88484610859565b90506000198114610cdf5781811015611a135760405162461bcd60e51b815260206004820152601d60248201527f45524332303a20696e73756666696369656e7420616c6c6f77616e63650000006044820152606401610572565b610cdf848484840361095d565b60006040518060400160405280600881526020016743554c544953545360c01b81525080519060200120826001600160a01b0316630b4e99c36040518163ffffffff1660e01b8152600401602060405180830381865afa158015611a88573d6000803e3d6000fd5b505050506040513d601f19601f82011682018060405250810190611aac9190611fe8565b1492915050565b60005b83811015611ace578181015183820152602001611ab6565b50506000910152565b6020815260008251806020840152611af6816040850160208701611ab3565b601f01601f19169190910160400192915050565b6001600160a01b03811681146104d657600080fd5b60008060408385031215611b3257600080fd5b8235611b3d81611b0a565b946020939093013593505050565b600080600060608486031215611b6057600080fd5b8335611b6b81611b0a565b92506020840135611b7b81611b0a565b929592945050506040919091013590565b600060208284031215611b9e57600080fd5b5035919050565b634e487b7160e01b600052604160045260246000fd5b604051601f8201601f191681016001600160401b0381118282101715611be357611be3611ba5565b604052919050565b60006001600160401b03821115611c0457611c04611ba5565b50601f01601f191660200190565b600060208284031215611c2457600080fd5b81356001600160401b03811115611c3a57600080fd5b8201601f81018413611c4b57600080fd5b8035611c5e611c5982611beb565b611bbb565b818152856020838501011115611c7357600080fd5b81602084016020830137600091810160200191909152949350505050565b600060208284031215611ca357600080fd5b813561048481611b0a565b60008060408385031215611cc157600080fd5b8235611ccc81611b0a565b91506020830135611cdc81611b0a565b809150509250929050565b600181811c90821680611cfb57607f821691505b602082108103611d1b57634e487b7160e01b600052602260045260246000fd5b50919050565b6000808354611d2f81611ce7565b600182168015611d465760018114611d5b57611d8b565b60ff1983168652811515820286019350611d8b565b86600052602060002060005b83811015611d8357815488820152600190910190602001611d67565b505081860193505b5050608160f61b8252506002019392505050565b60008351611db1818460208801611ab3565b835190830190611dc5818360208801611ab3565b01949350505050565b600060208284031215611de057600080fd5b815161048481611b0a565b8082018082111561038157634e487b7160e01b600052601160045260246000fd5b600082601f830112611e1d57600080fd5b8151611e2b611c5982611beb565b818152846020838601011115611e4057600080fd5b611e51826020830160208701611ab3565b949350505050565b600080600060608486031215611e6e57600080fd5b83516001600160401b03811115611e8457600080fd5b611e9086828701611e0c565b93505060208401516001600160401b03811115611eac57600080fd5b611eb886828701611e0c565b604095909501519396949550929392505050565b601f821115610ff857806000526020600020601f840160051c81016020851015611ef35750805b601f840160051c820191505b818110156115b05760008155600101611eff565b81516001600160401b03811115611f2c57611f2c611ba5565b611f4081611f3a8454611ce7565b84611ecc565b6020601f821160018114611f745760008315611f5c5750848201515b600019600385901b1c1916600184901b1784556115b0565b600084815260208120601f198516915b82811015611fa45787850151825560209485019460019092019101611f84565b5084821015611fc25786840151600019600387901b60f8161c191681555b50505050600190811b01905550565b9182526001600160a01b0316602082015260400190565b600060208284031215611ffa57600080fd5b5051919050565b80516001600160401b038116811461201857600080fd5b919050565b60008060006060848603121561203257600080fd5b61203b84612001565b925061204960208501612001565b915061205760408501612001565b9050925092509256fe1dfa95949f0b18e5ee916f85d0296148ce2f94b82b74404d6a5d6e64ed9b8c5fa2646970667358221220e692a0b4c6fd345e4c44eb31c089c6fef24879e19e166973a873394ac357e0e064736f6c634300081a0033",
  "linkReferences": {},
  "deployedLinkReferences": {}
}