{
  "_format": "hh-sol-artifact-1",
  "contractName": "Settlement",
  "sourceName": "contracts/core/assets/settlement/Settlement.sol",
  "abi": [
    {
      "inputs": [],
      "name": "CannotTransferProducingResourceFromBuilding",
      "type": "error"
    },
    {
      "inputs": [],
      "name": "GovernorCannotBeAddedIfSenderNotSettlementOwnerOrAnotherGovernor",
      "type": "error"
    },
    {
      "inputs": [],
      "name": "OnlyActiveGame",
      "type": "error"
    },
    {
      "inputs": [],
      "name": "OnlyMightyCreator",
      "type": "error"
    },
    {
      "inputs": [],
      "name": "OnlyRulerOrWorldAsset",
      "type": "error"
    },
    {
      "inputs": [],
      "name": "OnlySettlementOwner",
      "type": "error"
    },
    {
      "inputs": [],
      "name": "OnlyWorldAssetFromSameEra",
      "type": "error"
    },
    {
      "inputs": [],
      "name": "ReentrantCall",
      "type": "error"
    },
    {
      "inputs": [],
      "name": "SettlementCannotBeDestroyedIfItsAlreadyRebuilt",
      "type": "error"
    },
    {
      "inputs": [],
      "name": "SettlementCannotBeDestroyedIfItsNotRotten",
      "type": "error"
    },
    {
      "inputs": [],
      "name": "SettlementCannotDecreaseCorruptionIndexViaPaymentInInactiveEra",
      "type": "error"
    },
    {
      "inputs": [],
      "name": "SettlementCannotDecreaseCorruptionIndexViaPaymentWrongParamProvided",
      "type": "error"
    },
    {
      "inputs": [],
      "name": "SettlementCannotSendWorkersToBuildingOverMaximumAllowedCapacity",
      "type": "error"
    },
    {
      "inputs": [],
      "name": "SettlementCannotSendWorkersWithFractions",
      "type": "error"
    },
    {
      "anonymous": false,
      "inputs": [
        {
          "indexed": false,
          "internalType": "address",
          "name": "armyAddress",
          "type": "address"
        },
        {
          "indexed": false,
          "internalType": "uint64",
          "name": "position",
          "type": "uint64"
        }
      ],
      "name": "ArmyCreated",
      "type": "event"
    },
    {
      "anonymous": false,
      "inputs": [
        {
          "indexed": false,
          "internalType": "address",
          "name": "buildingAddress",
          "type": "address"
        },
        {
          "indexed": false,
          "internalType": "bytes32",
          "name": "buildingTypeId",
          "type": "bytes32"
        }
      ],
      "name": "BuildingCreated",
      "type": "event"
    },
    {
      "anonymous": false,
      "inputs": [],
      "name": "Destroyed",
      "type": "event"
    },
    {
      "anonymous": false,
      "inputs": [
        {
          "indexed": false,
          "internalType": "uint256",
          "name": "currentGovernorsGeneration",
          "type": "uint256"
        },
        {
          "indexed": false,
          "internalType": "address",
          "name": "governorAddress",
          "type": "address"
        },
        {
          "indexed": false,
          "internalType": "address",
          "name": "modifiedByAddress",
          "type": "address"
        },
        {
          "indexed": false,
          "internalType": "bool",
          "name": "newStatus",
          "type": "bool"
        }
      ],
      "name": "GovernorStatusChanged",
      "type": "event"
    },
    {
      "anonymous": false,
      "inputs": [
        {
          "indexed": false,
          "internalType": "uint256",
          "name": "newGovernorsGeneration",
          "type": "uint256"
        }
      ],
      "name": "GovernorsGenerationChanged",
      "type": "event"
    },
    {
      "anonymous": false,
      "inputs": [
        {
          "indexed": false,
          "internalType": "uint8",
          "name": "version",
          "type": "uint8"
        }
      ],
      "name": "Initialized",
      "type": "event"
    },
    {
      "anonymous": false,
      "inputs": [
        {
          "indexed": false,
          "internalType": "address",
          "name": "siegeAddress",
          "type": "address"
        }
      ],
      "name": "SiegeCreated",
      "type": "event"
    },
    {
      "inputs": [
        {
          "internalType": "address",
          "name": "governorAddress",
          "type": "address"
        }
      ],
      "name": "addGovernor",
      "outputs": [],
      "stateMutability": "nonpayable",
      "type": "function"
    },
    {
      "inputs": [],
      "name": "army",
      "outputs": [
        {
          "internalType": "contract IArmy",
          "name": "",
          "type": "address"
        }
      ],
      "stateMutability": "view",
      "type": "function"
    },
    {
      "inputs": [],
      "name": "assetGroupId",
      "outputs": [
        {
          "internalType": "bytes32",
          "name": "",
          "type": "bytes32"
        }
      ],
      "stateMutability": "view",
      "type": "function"
    },
    {
      "inputs": [],
      "name": "assetTypeId",
      "outputs": [
        {
          "internalType": "bytes32",
          "name": "",
          "type": "bytes32"
        }
      ],
      "stateMutability": "view",
      "type": "function"
    },
    {
      "inputs": [],
      "name": "bannerId",
      "outputs": [
        {
          "internalType": "uint256",
          "name": "",
          "type": "uint256"
        }
      ],
      "stateMutability": "view",
      "type": "function"
    },
    {
      "inputs": [
        {
          "internalType": "uint64",
          "name": "position",
          "type": "uint64"
        },
        {
          "internalType": "uint256",
          "name": "prosperityStake",
          "type": "uint256"
        }
      ],
      "name": "beginTileCapture",
      "outputs": [],
      "stateMutability": "nonpayable",
      "type": "function"
    },
    {
      "inputs": [
        {
          "internalType": "bytes32",
          "name": "",
          "type": "bytes32"
        }
      ],
      "name": "buildings",
      "outputs": [
        {
          "internalType": "contract IBuilding",
          "name": "",
          "type": "address"
        }
      ],
      "stateMutability": "view",
      "type": "function"
    },
    {
      "inputs": [
        {
          "internalType": "uint64",
          "name": "position",
          "type": "uint64"
        }
      ],
      "name": "cancelTileCapture",
      "outputs": [],
      "stateMutability": "nonpayable",
      "type": "function"
    },
    {
      "inputs": [
        {
          "internalType": "uint64",
          "name": "position",
          "type": "uint64"
        }
      ],
      "name": "claimCapturedTile",
      "outputs": [],
      "stateMutability": "nonpayable",
      "type": "function"
    },
    {
      "inputs": [],
      "name": "currentGovernorsGeneration",
      "outputs": [
        {
          "internalType": "uint256",
          "name": "",
          "type": "uint256"
        }
      ],
      "stateMutability": "view",
      "type": "function"
    },
    {
      "inputs": [
        {
          "internalType": "uint256",
          "name": "amount",
          "type": "uint256"
        }
      ],
      "name": "decreaseProducedCorruptionIndex",
      "outputs": [],
      "stateMutability": "nonpayable",
      "type": "function"
    },
    {
      "inputs": [],
      "name": "destroyRottenSettlement",
      "outputs": [],
      "stateMutability": "nonpayable",
      "type": "function"
    },
    {
      "inputs": [],
      "name": "era",
      "outputs": [
        {
          "internalType": "contract IEra",
          "name": "",
          "type": "address"
        }
      ],
      "stateMutability": "view",
      "type": "function"
    },
    {
      "inputs": [],
      "name": "eraNumber",
      "outputs": [
        {
          "internalType": "uint256",
          "name": "",
          "type": "uint256"
        }
      ],
      "stateMutability": "view",
      "type": "function"
    },
    {
      "inputs": [
        {
          "internalType": "uint256",
          "name": "prosperityAmount",
          "type": "uint256"
        }
      ],
      "name": "extendProsperity",
      "outputs": [],
      "stateMutability": "nonpayable",
      "type": "function"
    },
    {
      "inputs": [],
      "name": "extendedProsperityAmount",
      "outputs": [
        {
          "internalType": "uint256",
          "name": "",
          "type": "uint256"
        }
      ],
      "stateMutability": "view",
      "type": "function"
    },
    {
      "inputs": [],
      "name": "getSettlementOwner",
      "outputs": [
        {
          "internalType": "address",
          "name": "",
          "type": "address"
        }
      ],
      "stateMutability": "view",
      "type": "function"
    },
    {
      "inputs": [
        {
          "internalType": "uint64",
          "name": "position",
          "type": "uint64"
        }
      ],
      "name": "giveUpCapturedTile",
      "outputs": [],
      "stateMutability": "nonpayable",
      "type": "function"
    },
    {
      "inputs": [
        {
          "internalType": "uint256",
          "name": "",
          "type": "uint256"
        },
        {
          "internalType": "address",
          "name": "",
          "type": "address"
        }
      ],
      "name": "governors",
      "outputs": [
        {
          "internalType": "bool",
          "name": "",
          "type": "bool"
        }
      ],
      "stateMutability": "view",
      "type": "function"
    },
    {
      "inputs": [
        {
          "internalType": "uint256",
          "name": "amount",
          "type": "uint256"
        }
      ],
      "name": "increaseProducedCorruptionIndex",
      "outputs": [],
      "stateMutability": "nonpayable",
      "type": "function"
    },
    {
      "inputs": [
        {
          "internalType": "bytes",
          "name": "initParams",
          "type": "bytes"
        }
      ],
      "name": "init",
      "outputs": [],
      "stateMutability": "nonpayable",
      "type": "function"
    },
    {
      "inputs": [],
      "name": "isRottenSettlement",
      "outputs": [
        {
          "internalType": "bool",
          "name": "",
          "type": "bool"
        }
      ],
      "stateMutability": "view",
      "type": "function"
    },
    {
      "inputs": [
        {
          "internalType": "address",
          "name": "potentialRuler",
          "type": "address"
        }
      ],
      "name": "isRuler",
      "outputs": [
        {
          "internalType": "bool",
          "name": "",
          "type": "bool"
        }
      ],
      "stateMutability": "view",
      "type": "function"
    },
    {
      "inputs": [
        {
          "components": [
            {
              "internalType": "bytes32",
              "name": "buildingTypeId",
              "type": "bytes32"
            },
            {
              "internalType": "bool",
              "name": "isTransferringWorkersFromBuilding",
              "type": "bool"
            },
            {
              "internalType": "uint256",
              "name": "workersAmount",
              "type": "uint256"
            },
            {
              "components": [
                {
                  "internalType": "bool",
                  "name": "isTransferringResourcesFromBuilding",
                  "type": "bool"
                },
                {
                  "internalType": "address",
                  "name": "resourcesOwnerOrResourcesReceiver",
                  "type": "address"
                },
                {
                  "internalType": "bytes32",
                  "name": "resourceTypeId",
                  "type": "bytes32"
                },
                {
                  "internalType": "uint256",
                  "name": "resourcesAmount",
                  "type": "uint256"
                }
              ],
              "internalType": "struct ISettlement.ResourcesModificationParam[]",
              "name": "resources",
              "type": "tuple[]"
            }
          ],
          "internalType": "struct ISettlement.BuildingProductionModificationParam[]",
          "name": "params",
          "type": "tuple[]"
        }
      ],
      "name": "modifyBuildingsProduction",
      "outputs": [],
      "stateMutability": "nonpayable",
      "type": "function"
    },
    {
      "inputs": [
        {
          "internalType": "uint256",
          "name": "tokensAmount",
          "type": "uint256"
        }
      ],
      "name": "payToDecreaseCorruptionIndex",
      "outputs": [],
      "stateMutability": "payable",
      "type": "function"
    },
    {
      "inputs": [],
      "name": "position",
      "outputs": [
        {
          "internalType": "uint64",
          "name": "",
          "type": "uint64"
        }
      ],
      "stateMutability": "view",
      "type": "function"
    },
    {
      "inputs": [],
      "name": "producedCorruptionIndex",
      "outputs": [
        {
          "internalType": "int256",
          "name": "",
          "type": "int256"
        }
      ],
      "stateMutability": "view",
      "type": "function"
    },
    {
      "inputs": [],
      "name": "registry",
      "outputs": [
        {
          "internalType": "contract IRegistry",
          "name": "",
          "type": "address"
        }
      ],
      "stateMutability": "view",
      "type": "function"
    },
    {
      "inputs": [],
      "name": "relatedRegion",
      "outputs": [
        {
          "internalType": "contract IRegion",
          "name": "",
          "type": "address"
        }
      ],
      "stateMutability": "view",
      "type": "function"
    },
    {
      "inputs": [
        {
          "internalType": "address",
          "name": "governorAddress",
          "type": "address"
        }
      ],
      "name": "removeGovernor",
      "outputs": [],
      "stateMutability": "nonpayable",
      "type": "function"
    },
    {
      "inputs": [],
      "name": "removeGovernors",
      "outputs": [],
      "stateMutability": "nonpayable",
      "type": "function"
    },
    {
      "inputs": [],
      "name": "siege",
      "outputs": [
        {
          "internalType": "contract ISiege",
          "name": "",
          "type": "address"
        }
      ],
      "stateMutability": "view",
      "type": "function"
    },
    {
      "inputs": [
        {
          "internalType": "uint256",
          "name": "workersToBuy",
          "type": "uint256"
        },
        {
          "internalType": "uint256",
          "name": "maxProsperityToSell",
          "type": "uint256"
        }
      ],
      "name": "swapProsperityForExactWorkers",
      "outputs": [],
      "stateMutability": "nonpayable",
      "type": "function"
    },
    {
      "inputs": [],
      "name": "updateFortHealth",
      "outputs": [],
      "stateMutability": "nonpayable",
      "type": "function"
    },
    {
      "inputs": [],
      "name": "updateProsperityAmount",
      "outputs": [],
      "stateMutability": "nonpayable",
      "type": "function"
    },
    {
      "inputs": [
        {
          "internalType": "bytes32",
          "name": "resourceTypeId",
          "type": "bytes32"
        },
        {
          "internalType": "address",
          "name": "to",
          "type": "address"
        },
        {
          "internalType": "uint256",
          "name": "amount",
          "type": "uint256"
        }
      ],
      "name": "withdrawResources",
      "outputs": [],
      "stateMutability": "nonpayable",
      "type": "function"
    },
    {
      "inputs": [],
      "name": "world",
      "outputs": [
        {
          "internalType": "contract IWorld",
          "name": "",
          "type": "address"
        }
      ],
      "stateMutability": "view",
      "type": "function"
    },
    {
      "inputs": [],
      "name": "worldAssetFactory",
      "outputs": [
        {
          "internalType": "contract IWorldAssetFactory",
          "name": "",
          "type": "address"
        }
      ],
      "stateMutability": "view",
      "type": "function"
    }
  ],
  "bytecode": "0x6080604052348015600f57600080fd5b50613a268061001f6000396000f3fe6080604052600436106102255760003560e01c80637fd4d5e511610123578063c023c095116100ab578063d9bbf2a81161006f578063d9bbf2a81461060c578063e6c15c991461062c578063ece56a1a14610653578063eecdac8814610668578063f10e38af1461068857600080fd5b8063c023c09514610576578063c433a16014610596578063c68cf906146105b6578063ca825043146105d6578063d63a68ec146105f657600080fd5b80639dd26bd2116100f25780639dd26bd2146104e6578063aef281d3146104fc578063b5acd45614610511578063b942d2c114610526578063bea42f9c1461056157600080fd5b80637fd4d5e51461049357806384ba89e3146104a9578063977a2d13146104be578063996bebda146104d357600080fd5b80633133f7d9116101b157806352fa2c8e1161017557806352fa2c8e146104085780636e5cf15c1461041d5780637b103999146104535780637d884c74146104685780637e6fc4f01461047d57600080fd5b80633133f7d9146103735780633c4a25d0146103885780633fa95a4a146103a857806341b989d9146103c85780634ddf47d4146103e857600080fd5b8063143e55e0116101f8578063143e55e0146102cc57806316e8d7ff146102ee5780631b0b969d1461030e5780632de7e9b01461033e57806330b67baa1461035e57600080fd5b806309218e911461022a5780630b4e99c3146102675780630f4175ef1461028a57806310592e24146102ac575b600080fd5b34801561023657600080fd5b5060085461024a906001600160401b031681565b6040516001600160401b0390911681526020015b60405180910390f35b34801561027357600080fd5b5061027c6106a8565b60405190815260200161025e565b34801561029657600080fd5b506102aa6102a536600461338c565b6106e5565b005b3480156102b857600080fd5b506102aa6102c7366004613553565b610811565b3480156102d857600080fd5b506102e1610833565b60405161025e919061356c565b3480156102fa57600080fd5b506102aa610309366004613580565b6108b7565b34801561031a57600080fd5b5061032e6103293660046135a2565b6109bf565b604051901515815260200161025e565b34801561034a57600080fd5b506002546102e1906001600160a01b031681565b34801561036a57600080fd5b506102e1610a13565b34801561037f57600080fd5b506102aa610a1d565b34801561039457600080fd5b506102aa6103a33660046135a2565b610a7f565b3480156103b457600080fd5b506102aa6103c3366004613553565b610b5f565b3480156103d457600080fd5b506102aa6103e33660046135c6565b610c41565b3480156103f457600080fd5b506102aa6104033660046135fe565b610d2f565b34801561041457600080fd5b506102aa61154c565b34801561042957600080fd5b506102e1610438366004613553565b6003602052600090815260409020546001600160a01b031681565b34801561045f57600080fd5b506102e1611997565b34801561047457600080fd5b5061027c6119de565b34801561048957600080fd5b5061027c60045481565b34801561049f57600080fd5b5061027c60095481565b3480156104b557600080fd5b5061027c611a1b565b3480156104ca57600080fd5b5061032e611a58565b6102aa6104e1366004613553565b611af6565b3480156104f257600080fd5b5061027c60075481565b34801561050857600080fd5b506102aa611deb565b34801561051d57600080fd5b506102e1611ea4565b34801561053257600080fd5b5061032e610541366004613696565b600560209081526000928352604080842090915290825290205460ff1681565b34801561056d57600080fd5b506102aa611f3e565b34801561058257600080fd5b506102aa6105913660046136db565b611ff4565b3480156105a257600080fd5b506102aa6105b13660046136db565b6120cf565b3480156105c257600080fd5b506102aa6105d13660046136f8565b612175565b3480156105e257600080fd5b506102aa6105f1366004613553565b612263565b34801561060257600080fd5b5061027c60015481565b34801561061857600080fd5b506102aa6106273660046136db565b61227d565b34801561063857600080fd5b506000546102e190630100000090046001600160a01b031681565b34801561065f57600080fd5b506102e1612323565b34801561067457600080fd5b506102aa6106833660046135a2565b61236a565b34801561069457600080fd5b506006546102e1906001600160a01b031681565b604080516020808252818301909252600091309183918291906020820181803683370190505090506020607a60208301853c602001519392505050565b6106ed6123de565b6106f561250d565b60006106ff610833565b905060005b825181101561080c57600083828151811061072157610721613724565b60209081029190910181015180516000908152600390925260409182902054918101519092506001600160a01b0390911690156107855781602001511561077657610771848284604001516125c6565b610785565b61078584828460400151612686565b60005b826060015151811015610801576000836060015182815181106107ad576107ad613724565b602002602001015190508060000151156107df576107da868483604001518460200151856060015161288d565b6107f8565b6107f88684836040015184602001518560600151612a93565b50600101610788565b505050600101610704565b505050565b610819612c1a565b806009600082825461082b9190613750565b909155505050565b600061083d610a13565b6001600160a01b031663720a70bd6108536119de565b6040518263ffffffff1660e01b815260040161087191815260200190565b602060405180830381865afa15801561088e573d6000803e3d6000fd5b505050506040513d601f19601f820116820180604052508101906108b29190613777565b905090565b6108bf6123de565b6108c761250d565b60008060039054906101000a90046001600160a01b03166001600160a01b0316638ee6bc116040518163ffffffff1660e01b8152600401602060405180830381865afa15801561091b573d6000803e3d6000fd5b505050506040513d601f19601f8201168201806040525081019061093f9190613777565b604051632230df1360e11b815230600482015260248101859052604481018490526001600160a01b039190911690634461be26906064016020604051808303816000875af1158015610995573d6000803e3d6000fd5b505050506040513d601f19601f820116820180604052508101906109b99190613794565b50505050565b6000816001600160a01b03166109d3611ea4565b6001600160a01b03161480610a0d575060045460009081526005602090815260408083206001600160a01b038616845290915290205460ff165b92915050565b60006108b2612cdc565b610a256123de565b610a2d612d19565b60048054906000610a3d836137ad565b91905055507fad79f2b70ff9c58b0a408be18f8ceec31bd694cacffb2fc1905edd927e0d3656600454604051610a7591815260200190565b60405180910390a1565b610a876123de565b610a8f611ea4565b6001600160a01b0316336001600160a01b031614158015610acd5750600454600090815260056020908152604080832033845290915290205460ff16155b15610aea5760405162de7aeb60e61b815260040160405180910390fd5b6004805460009081526005602090815260408083206001600160a01b038616845290915290819020805460ff19166001908117909155915490517f85b8b06e4b2b23e6bdbc246ca0774d4809e0d78b74465956a0eb49676d1a26d092610b549291859133916137c6565b60405180910390a150565b610b67612c1a565b610b6f610833565b6001600160a01b031663c91b95666040518163ffffffff1660e01b8152600401602060405180830381865afa158015610bac573d6000803e3d6000fd5b505050506040513d601f19601f82011682018060405250810190610bd09190613777565b6001600160a01b03166340c10f1930836040518363ffffffff1660e01b8152600401610bfd9291906137ed565b600060405180830381600087803b158015610c1757600080fd5b505af1158015610c2b573d6000803e3d6000fd5b50505050806007600082825461082b9190613806565b610c4961250d565b610c51610833565b6001600160a01b031663912929df846040518263ffffffff1660e01b8152600401610c7e91815260200190565b602060405180830381865afa158015610c9b573d6000803e3d6000fd5b505050506040513d601f19601f82011682018060405250810190610cbf9190613777565b6001600160a01b031663a9059cbb83836040518363ffffffff1660e01b8152600401610cec9291906137ed565b6020604051808303816000875af1158015610d0b573d6000803e3d6000fd5b505050506040513d601f19601f820116820180604052508101906109b99190613819565b600054610100900460ff1615808015610d4f5750600054600160ff909116105b80610d695750303b158015610d69575060005460ff166001145b610dd15760405162461bcd60e51b815260206004820152602e60248201527f496e697469616c697a61626c653a20636f6e747261637420697320616c72656160448201526d191e481a5b9a5d1a585b1a5e995960921b60648201526084015b60405180910390fd5b6000805460ff191660011790558015610df4576000805461ff0019166101001790555b600080600084806020019051810190610e0d9190613836565b600080546301000000600160b81b03191663010000006001600160a01b0385160217815560018490556008805467ffffffffffffffff19166001600160401b0384161790559295509093509150610e62610a13565b90506000610e6e6119de565b90506000610e7a612323565b90506000610e86612d52565b905060005b8151811015610fe1576000828281518110610ea857610ea8613724565b602002602001015190506000846001600160a01b031663c19755fd8888604051806040016040528060088152602001676275696c64696e6760c01b81525080519060200120863088604051602001610f019291906137ed565b6040516020818303038152906040526040518663ffffffff1660e01b8152600401610f309594939291906138ca565b6020604051808303816000875af1158015610f4f573d6000803e3d6000fd5b505050506040513d601f19601f82011682018060405250810190610f739190613777565b6000838152600360205260409081902080546001600160a01b0319166001600160a01b038416179055519091507fb5d06a9347afd5927eca0f133c27e30a6233e7230011c194f15ac1630378c8e090610fcf90839085906137ed565b60405180910390a15050600101610e8b565b50604080518082018252600481526361726d7960e01b602091820152815180830183526005815264424153494360d81b9082015290516000916001600160a01b0385169163c19755fd91889188917f1dfa95949f0b18e5ee916f85d0296148ce2f94b82b74404d6a5d6e64ed9b8c5f917fdc0ae866100b2876ab26eb62a50ca2cd083944f439e6d78aab2fc402e669e9ee9161107f9130910161356c565b6040516020818303038152906040526040518663ffffffff1660e01b81526004016110ae9594939291906138ca565b6020604051808303816000875af11580156110cd573d6000803e3d6000fd5b505050506040513d601f19601f820116820180604052508101906110f19190613777565b600680546001600160a01b0319166001600160a01b0383161790556008546040519192507f36e6a2ad1103b62e30506738cea4d983c8be134a35b666a8403fd1469c6754519161114e9184916001600160401b03909116906138fd565b60405180910390a1604080518082018252600580825264736965676560d81b6020928301528251808401845290815264424153494360d81b9082015290516000916001600160a01b0386169163c19755fd91899189917f97c6863e562673ade7ccd0833cdfbe9a6f3e5b44141e7e5501350c90323ec829917fdc0ae866100b2876ab26eb62a50ca2cd083944f439e6d78aab2fc402e669e9ee916111f49130910161356c565b6040516020818303038152906040526040518663ffffffff1660e01b81526004016112239594939291906138ca565b6020604051808303816000875af1158015611242573d6000803e3d6000fd5b505050506040513d601f19601f820116820180604052508101906112669190613777565b600280546001600160a01b0319166001600160a01b0383161790556040519091507f58b4f8ad26597f458102aedd40d93d4b024f8865cf7eef74ceb74c76892221db906112b490839061356c565b60405180910390a16112c4610833565b60408051808201825260048082526315d3d3d160e21b602090920191909152905163912929df60e01b81526001600160a01b03929092169163912929df91611332917f5f3d3bfd5b61198148275c178146c21eec5c5ab7e81758f3c651754ae3f1ed42910190815260200190565b602060405180830381865afa15801561134f573d6000803e3d6000fd5b505050506040513d601f19601f820116820180604052508101906113739190613777565b6001600160a01b03166340c10f19611389611ea4565b67d02ab486cedc00006040518363ffffffff1660e01b81526004016113af9291906137ed565b600060405180830381600087803b1580156113c957600080fd5b505af11580156113dd573d6000803e3d6000fd5b505050506113e9610833565b60408051808201825260038152624f524560e81b6020909101525163912929df60e01b81527f9db51ceeef36d28f4a713ba944bdadb00e988c5676c92710eaf0e194efb4cb5560048201526001600160a01b03919091169063912929df90602401602060405180830381865afa158015611467573d6000803e3d6000fd5b505050506040513d601f19601f8201168201806040525081019061148b9190613777565b6001600160a01b03166340c10f196114a1611ea4565b67d02ab486cedc00006040518363ffffffff1660e01b81526004016114c79291906137ed565b600060405180830381600087803b1580156114e157600080fd5b505af11580156114f5573d6000803e3d6000fd5b505050505050505050505050508015611548576000805461ff0019169055604051600181527f7f26b83ff96e1f2b6a682f133852f6798a09c465da95921460cefb38474024989060200160405180910390a15b5050565b6115546123de565b61155c611a58565b61157957604051638d20f60160e01b815260040160405180910390fd5b6000611583610a13565b90506000816001600160a01b031663a8d66c756040518163ffffffff1660e01b8152600401602060405180830381865afa1580156115c5573d6000803e3d6000fd5b505050506040513d601f19601f820116820180604052508101906115e99190613777565b60085460405163c4c31e8560e01b81526001600160401b03909116600482015290915030906001600160a01b0383169063c4c31e8590602401602060405180830381865afa15801561163f573d6000803e3d6000fd5b505050506040513d601f19601f820116820180604052508101906116639190613777565b6001600160a01b03161461168a57604051630de8415d60e41b815260040160405180910390fd5b6000826001600160a01b031663720a70bd846001600160a01b031663704f63a16040518163ffffffff1660e01b8152600401602060405180830381865afa1580156116d9573d6000803e3d6000fd5b505050506040513d601f19601f820116820180604052508101906116fd9190613794565b6040518263ffffffff1660e01b815260040161171b91815260200190565b602060405180830381865afa158015611738573d6000803e3d6000fd5b505050506040513d601f19601f8201168201806040525081019061175c9190613777565b90506000816001600160a01b031663c5375e99600060039054906101000a90046001600160a01b03166001600160a01b031663b2fd89336040518163ffffffff1660e01b8152600401602060405180830381865afa1580156117c2573d6000803e3d6000fd5b505050506040513d601f19601f820116820180604052508101906117e6919061391f565b6040516001600160e01b031960e084901b1681526001600160401b039091166004820152602401602060405180830381865afa15801561182a573d6000803e3d6000fd5b505050506040513d601f19601f8201168201806040525081019061184e9190613777565b90506000816001600160a01b031663ffd7a09f6040518163ffffffff1660e01b8152600401602060405180830381865afa158015611890573d6000803e3d6000fd5b505050506040513d601f19601f820116820180604052508101906118b49190613777565b9050806001600160a01b0316631d8557d76040518163ffffffff1660e01b8152600401600060405180830381600087803b1580156118f157600080fd5b505af1158015611905573d6000803e3d6000fd5b505060405163038c079960e61b81526001600160a01b038716925063e301e640915061193590309060040161356c565b600060405180830381600087803b15801561194f57600080fd5b505af1158015611963573d6000803e3d6000fd5b50506040517fcc0e82c1b8fa4695d6ae60217024b293814bde0f381a23cafaa0a1e25973c14b925060009150a15050505050565b60006119a1610a13565b6001600160a01b0316637b1039996040518163ffffffff1660e01b8152600401602060405180830381865afa15801561088e573d6000803e3d6000fd5b604080516020808252818301909252600091309183918291906020820181803683370190505090506020609a60208301853c602001519392505050565b604080516020808252818301909252600091309183918291906020820181803683370190505090506020605a60208301853c602001519392505050565b600080611a63610a13565b6001600160a01b031663704f63a16040518163ffffffff1660e01b8152600401602060405180830381865afa158015611aa0573d6000803e3d6000fd5b505050506040513d601f19601f82011682018060405250810190611ac49190613794565b905080611acf6119de565b10611adc57600091505090565b600060095413611aee57600091505090565b600191505090565b611afe6123de565b60005462010000900460ff161515600103611b2c576040516306fda65d60e31b815260040160405180910390fd5b6000805462ff0000191662010000178155611b45610a13565b9050806001600160a01b031663704f63a16040518163ffffffff1660e01b8152600401602060405180830381865afa158015611b85573d6000803e3d6000fd5b505050506040513d601f19601f82011682018060405250810190611ba99190613794565b611bb16119de565b14611bcf5760405163d7357e0360e01b815260040160405180910390fd5b6000816001600160a01b0316634f8822fd6040518163ffffffff1660e01b8152600401602060405180830381865afa158015611c0f573d6000803e3d6000fd5b505050506040513d601f19601f82011682018060405250810190611c339190613777565b90506001600160a01b03811615808015611c4c57508315155b15611c6a57604051636effeacf60e01b815260040160405180910390fd5b600081611c775784611c79565b345b90508115611cf157611cec846001600160a01b03166366666aa96040518163ffffffff1660e01b8152600401602060405180830381865afa158015611cc2573d6000803e3d6000fd5b505050506040513d601f19601f82011682018060405250810190611ce69190613777565b82612eee565b611d5e565b611d5e8333866001600160a01b03166366666aa96040518163ffffffff1660e01b8152600401602060405180830381865afa158015611d34573d6000803e3d6000fd5b505050506040513d601f19601f82011682018060405250810190611d589190613777565b84613007565b6000611d6b82606461393c565b600054604051635053c29960e01b8152919250630100000090046001600160a01b031690635053c29990611da590309085906004016137ed565b600060405180830381600087803b158015611dbf57600080fd5b505af1158015611dd3573d6000803e3d6000fd5b50506000805462ff0000191690555050505050505050565b6040805180820182526004808252631193d49560e21b6020928301527f2911d5ca388af24ed7f391a4eb24469bc0fd8935cd73bb1075ca7e702a42eb19600090815260039092527f647f49359f3a148b6d61ffd122d774bb8822cc42f7dd0b48eb3d3753068a2726548351631d8557d760e01b815293516001600160a01b0390911693631d8557d7938184019390929182900301818387803b158015611e9057600080fd5b505af11580156109b9573d6000803e3d6000fd5b6000611eae610a13565b6001600160a01b031663183100fa6040518163ffffffff1660e01b8152600401602060405180830381865afa158015611eeb573d6000803e3d6000fd5b505050506040513d601f19601f82011682018060405250810190611f0f9190613777565b6001600160a01b0316636352211e6001546040518263ffffffff1660e01b815260040161087191815260200190565b6000611f48612d52565b905060005b81518110156115485760036000838381518110611f6c57611f6c613724565b6020026020010151815260200190815260200160002060009054906101000a90046001600160a01b03166001600160a01b0316631d8557d76040518163ffffffff1660e01b8152600401600060405180830381600087803b158015611fd057600080fd5b505af1158015611fe4573d6000803e3d6000fd5b505060019092019150611f4d9050565b611ffc6123de565b61200461250d565b61200c610833565b6001600160a01b0316632c4613dc6040518163ffffffff1660e01b8152600401602060405180830381865afa158015612049573d6000803e3d6000fd5b505050506040513d601f19601f8201168201806040525081019061206d9190613777565b6001600160a01b031663793adbc430836040518363ffffffff1660e01b815260040161209a9291906138fd565b600060405180830381600087803b1580156120b457600080fd5b505af11580156120c8573d6000803e3d6000fd5b5050505050565b6120d76123de565b6120df61250d565b6120e7610833565b6001600160a01b0316632c4613dc6040518163ffffffff1660e01b8152600401602060405180830381865afa158015612124573d6000803e3d6000fd5b505050506040513d601f19601f820116820180604052508101906121489190613777565b6001600160a01b0316630d62a24630836040518363ffffffff1660e01b815260040161209a9291906138fd565b61217d6123de565b61218561250d565b61218d610833565b6001600160a01b0316632c4613dc6040518163ffffffff1660e01b8152600401602060405180830381865afa1580156121ca573d6000803e3d6000fd5b505050506040513d601f19601f820116820180604052508101906121ee9190613777565b604051633c87d24f60e21b81523060048201526001600160401b0384166024820152604481018390526001600160a01b03919091169063f21f493c90606401600060405180830381600087803b15801561224757600080fd5b505af115801561225b573d6000803e3d6000fd5b505050505050565b61226b612c1a565b806009600082825461082b9190613953565b6122856123de565b61228d61250d565b612295610833565b6001600160a01b0316632c4613dc6040518163ffffffff1660e01b8152600401602060405180830381865afa1580156122d2573d6000803e3d6000fd5b505050506040513d601f19601f820116820180604052508101906122f69190613777565b6001600160a01b031663db06797b30836040518363ffffffff1660e01b815260040161209a9291906138fd565b600061232d611997565b6001600160a01b031663ece56a1a6040518163ffffffff1660e01b8152600401602060405180830381865afa15801561088e573d6000803e3d6000fd5b6123726123de565b61237a612d19565b6004805460009081526005602090815260408083206001600160a01b0386168452909152808220805460ff19169055915491517f85b8b06e4b2b23e6bdbc246ca0774d4809e0d78b74465956a0eb49676d1a26d092610b54929091859133916137c6565b60006123e8610a13565b90506000816001600160a01b0316633c8ca83d6040518163ffffffff1660e01b8152600401602060405180830381865afa15801561242a573d6000803e3d6000fd5b505050506040513d601f19601f8201168201806040525081019061244e9190613794565b90506000826001600160a01b03166344d9bc5f6040518163ffffffff1660e01b8152600401602060405180830381865afa158015612490573d6000803e3d6000fd5b505050506040513d601f19601f820116820180604052508101906124b49190613794565b90508115806124c257508142105b156124e05760405163a00eda6960e01b815260040160405180910390fd5b80158015906124ef5750804210155b1561080c5760405163a00eda6960e01b815260040160405180910390fd5b612516336109bf565b1580156125a657506000612528610a13565b6001600160a01b031663ebbe803461253e6119de565b6040516001600160e01b031960e084901b1681526004810191909152336024820152604401602060405180830381865afa158015612580573d6000803e3d6000fd5b505050506040513d601f19601f820116820180604052508101906125a49190613794565b145b156125c457604051636b6ee4e160e11b815260040160405180910390fd5b565b6125d881670de0b6b3a764000061305f565b6125f557604051630fc4070360e41b815260040160405180910390fd5b826001600160a01b031663cabb62f06040518163ffffffff1660e01b8152600401602060405180830381865afa158015612633573d6000803e3d6000fd5b505050506040513d601f19601f820116820180604052508101906126579190613777565b6001600160a01b03166323b872dd8330846040518463ffffffff1660e01b8152600401610cec9392919061397b565b61269881670de0b6b3a764000061305f565b6126b557604051630fc4070360e41b815260040160405180910390fd5b6000829050600082826001600160a01b0316638ae52a386040518163ffffffff1660e01b8152600401602060405180830381865afa1580156126fb573d6000803e3d6000fd5b505050506040513d601f19601f8201168201806040525081019061271f9190613794565b6127299190613806565b90506000826001600160a01b031663d26aaf936040518163ffffffff1660e01b8152600401602060405180830381865afa15801561276b573d6000803e3d6000fd5b505050506040513d601f19601f8201168201806040525081019061278f9190613794565b9050808211156127b257604051630d2d5b9360e31b815260040160405180910390fd5b856001600160a01b031663cabb62f06040518163ffffffff1660e01b8152600401602060405180830381865afa1580156127f0573d6000803e3d6000fd5b505050506040513d601f19601f820116820180604052508101906128149190613777565b6001600160a01b031663a9059cbb86866040518363ffffffff1660e01b81526004016128419291906137ed565b6020604051808303816000875af1158015612860573d6000803e3d6000fd5b505050506040513d601f19601f820116820180604052508101906128849190613819565b50505050505050565b6000849050806001600160a01b03166304b10ac86040518163ffffffff1660e01b8152600401602060405180830381865afa1580156128d0573d6000803e3d6000fd5b505050506040513d601f19601f820116820180604052508101906128f49190613794565b840361291357604051632dbfd57b60e01b815260040160405180910390fd5b60405163912929df60e01b8152600481018590526000906001600160a01b0388169063912929df90602401602060405180830381865afa15801561295b573d6000803e3d6000fd5b505050506040513d601f19601f8201168201806040525081019061297f9190613777565b90506000816001600160a01b03166370a08231886040518263ffffffff1660e01b81526004016129af919061356c565b602060405180830381865afa1580156129cc573d6000803e3d6000fd5b505050506040513d601f19601f820116820180604052508101906129f09190613794565b905080600003612a02575050506120c8565b80841115612a0e578093505b8315612a89576040516323b872dd60e01b81526001600160a01b038316906323b872dd90612a44908a908990899060040161397b565b6020604051808303816000875af1158015612a63573d6000803e3d6000fd5b505050506040513d601f19601f82011682018060405250810190612a879190613819565b505b5050505050505050565b60405163912929df60e01b8152600481018490526000906001600160a01b0387169063912929df90602401602060405180830381865afa158015612adb573d6000803e3d6000fd5b505050506040513d601f19601f82011682018060405250810190612aff9190613777565b90506001600160a01b038316612b88576040516323b872dd60e01b81526001600160a01b038216906323b872dd90612b3f9033908990879060040161397b565b6020604051808303816000875af1158015612b5e573d6000803e3d6000fd5b505050506040513d601f19601f82011682018060405250810190612b829190613819565b5061225b565b60405163dd8aaa4f60e01b81526001600160a01b0382169063dd8aaa4f90612bb89086903390879060040161397b565b600060405180830381600087803b158015612bd257600080fd5b505af1158015612be6573d6000803e3d6000fd5b50506040516323b872dd60e01b81526001600160a01b03841692506323b872dd91506128419086908990879060040161397b565b6000612c24610a13565b9050336001600160a01b03821614801590612cbb575060006001600160a01b03821663ebbe8034612c536119de565b6040516001600160e01b031960e084901b1681526004810191909152336024820152604401602060405180830381865afa158015612c95573d6000803e3d6000fd5b505050506040513d601f19601f82011682018060405250810190612cb99190613794565b145b15612cd95760405163422656d160e01b815260040160405180910390fd5b50565b604080516014808252818301909252600091309183918291906020820181803683370190505090506014602a60208301853c601401519392505050565b612d21611ea4565b6001600160a01b0316336001600160a01b0316146125c457604051639807ee1760e01b815260040160405180910390fd5b60408051600580825260c08201909252606091600091906020820160a08036833750506040805180820190915260048152634641524d60e01b6020909101525080519091507f15e7d524175663fc8929751799c4e1a8d04fec20bebd7ac2f10532927c1b5c0d908290600090612dca57612dca613724565b6020026020010181815250506040518060400160405280600a8152602001691315535091549352531360b21b8152508051906020012081600181518110612e1357612e13613724565b602002602001018181525050604051806040016040528060048152602001634d494e4560e01b8152508051906020012081600281518110612e5657612e56613724565b60200260200101818152505060405180604001604052806006815260200165534d4954485960d01b8152508051906020012081600381518110612e9b57612e9b613724565b602002602001018181525050604051806040016040528060048152602001631193d49560e21b8152508051906020012081600481518110612ede57612ede613724565b6020908102919091010152919050565b80471015612f3e5760405162461bcd60e51b815260206004820152601d60248201527f416464726573733a20696e73756666696369656e742062616c616e63650000006044820152606401610dc8565b6000826001600160a01b03168260405160006040518083038185875af1925050503d8060008114612f8b576040519150601f19603f3d011682016040523d82523d6000602084013e612f90565b606091505b505090508061080c5760405162461bcd60e51b815260206004820152603a60248201527f416464726573733a20756e61626c6520746f2073656e642076616c75652c207260448201527f6563697069656e74206d617920686176652072657665727465640000000000006064820152608401610dc8565b6109b9846323b872dd60e01b8585856040516024016130289392919061397b565b60408051601f198184030181529190526020810180516001600160e01b03166001600160e01b031990931692909217909152613073565b600061306b828461399f565b159392505050565b60006130c8826040518060400160405280602081526020017f5361666545524332303a206c6f772d6c6576656c2063616c6c206661696c6564815250856001600160a01b03166131489092919063ffffffff16565b90508051600014806130e95750808060200190518101906130e99190613819565b61080c5760405162461bcd60e51b815260206004820152602a60248201527f5361666545524332303a204552433230206f7065726174696f6e20646964206e6044820152691bdd081cdd58d8d9595960b21b6064820152608401610dc8565b6060613157848460008561315f565b949350505050565b6060824710156131c05760405162461bcd60e51b815260206004820152602660248201527f416464726573733a20696e73756666696369656e742062616c616e636520666f6044820152651c8818d85b1b60d21b6064820152608401610dc8565b600080866001600160a01b031685876040516131dc91906139c1565b60006040518083038185875af1925050503d8060008114613219576040519150601f19603f3d011682016040523d82523d6000602084013e61321e565b606091505b509150915061322f8783838761323a565b979650505050505050565b606083156132a95782516000036132a2576001600160a01b0385163b6132a25760405162461bcd60e51b815260206004820152601d60248201527f416464726573733a2063616c6c20746f206e6f6e2d636f6e74726163740000006044820152606401610dc8565b5081613157565b61315783838151156132be5781518083602001fd5b8060405162461bcd60e51b8152600401610dc891906139dd565b634e487b7160e01b600052604160045260246000fd5b604051608081016001600160401b0381118282101715613310576133106132d8565b60405290565b604051601f8201601f191681016001600160401b038111828210171561333e5761333e6132d8565b604052919050565b60006001600160401b0382111561335f5761335f6132d8565b5060051b60200190565b8015158114612cd957600080fd5b6001600160a01b0381168114612cd957600080fd5b60006020828403121561339e57600080fd5b81356001600160401b038111156133b457600080fd5b8201601f810184136133c557600080fd5b80356133d86133d382613346565b613316565b8082825260208201915060208360051b8501019250868311156133fa57600080fd5b602084015b838110156135485780356001600160401b0381111561341d57600080fd5b85016080818a03601f1901121561343357600080fd5b61343b6132ee565b60208201358152604082013561345081613369565b60208201526060820135604082015260808201356001600160401b0381111561347857600080fd5b60208184010192505089601f83011261349057600080fd5b813561349e6133d382613346565b8082825260208201915060208360071b86010192508c8311156134c057600080fd5b6020850194505b82851015613532576080858e0312156134df57600080fd5b6134e76132ee565b85356134f281613369565b8152602086013561350281613377565b602082810191909152604087810135908301526060808801359083015290835260809095019491909101906134c7565b60608401525050845250602092830192016133ff565b509695505050505050565b60006020828403121561356557600080fd5b5035919050565b6001600160a01b0391909116815260200190565b6000806040838503121561359357600080fd5b50508035926020909101359150565b6000602082840312156135b457600080fd5b81356135bf81613377565b9392505050565b6000806000606084860312156135db57600080fd5b8335925060208401356135ed81613377565b929592945050506040919091013590565b60006020828403121561361057600080fd5b81356001600160401b0381111561362657600080fd5b8201601f8101841361363757600080fd5b80356001600160401b03811115613650576136506132d8565b613663601f8201601f1916602001613316565b81815285602083850101111561367857600080fd5b81602084016020830137600091810160200191909152949350505050565b600080604083850312156136a957600080fd5b8235915060208301356136bb81613377565b809150509250929050565b6001600160401b0381168114612cd957600080fd5b6000602082840312156136ed57600080fd5b81356135bf816136c6565b6000806040838503121561370b57600080fd5b8235613716816136c6565b946020939093013593505050565b634e487b7160e01b600052603260045260246000fd5b634e487b7160e01b600052601160045260246000fd5b81810360008312801583831316838312821617156137705761377061373a565b5092915050565b60006020828403121561378957600080fd5b81516135bf81613377565b6000602082840312156137a657600080fd5b5051919050565b6000600182016137bf576137bf61373a565b5060010190565b9384526001600160a01b039283166020850152911660408301521515606082015260800190565b6001600160a01b03929092168252602082015260400190565b80820180821115610a0d57610a0d61373a565b60006020828403121561382b57600080fd5b81516135bf81613369565b60008060006060848603121561384b57600080fd5b8351602085015190935061385e81613377565b604085015190925061386f816136c6565b809150509250925092565b60005b8381101561389557818101518382015260200161387d565b50506000910152565b600081518084526138b681602086016020860161387a565b601f01601f19169290920160200192915050565b60018060a01b038616815284602082015283604082015282606082015260a06080820152600061322f60a083018461389e565b6001600160a01b039290921682526001600160401b0316602082015260400190565b60006020828403121561393157600080fd5b81516135bf816136c6565b8082028115828204841417610a0d57610a0d61373a565b80820182811260008312801582168215821617156139735761397361373a565b505092915050565b6001600160a01b039384168152919092166020820152604081019190915260600190565b6000826139bc57634e487b7160e01b600052601260045260246000fd5b500690565b600082516139d381846020870161387a565b9190910192915050565b6020815260006135bf602083018461389e56fea2646970667358221220eb06f6f05b5ffa895307cd1fd90b80a3fc942250d3a463e89ae502e9aa05f2f464736f6c634300081a0033",
  "linkReferences": {},
  "deployedLinkReferences": {}
}