{
  "_format": "hh-sol-artifact-1",
  "contractName": "Region",
  "sourceName": "contracts/core/assets/region/Region.sol",
  "abi": [
    {
      "inputs": [],
      "name": "OnlyActiveGame",
      "type": "error"
    },
    {
      "inputs": [],
      "name": "OnlyEraUnits",
      "type": "error"
    },
    {
      "inputs": [],
      "name": "OnlyMightyCreator",
      "type": "error"
    },
    {
      "inputs": [],
      "name": "OnlySettlementRulerCanDemilitarizeArmyUnits",
      "type": "error"
    },
    {
      "inputs": [],
      "name": "OnlyWorldAssetFromSameEra",
      "type": "error"
    },
    {
      "inputs": [],
      "name": "UnknownInputParameter",
      "type": "error"
    },
    {
      "anonymous": false,
      "inputs": [
        {
          "indexed": false,
          "internalType": "address",
          "name": "settlementAddress",
          "type": "address"
        },
        {
          "indexed": false,
          "internalType": "uint256",
          "name": "reducedCorruptionIndexAmount",
          "type": "uint256"
        }
      ],
      "name": "CorruptionIndexDecreased",
      "type": "event"
    },
    {
      "anonymous": false,
      "inputs": [
        {
          "indexed": false,
          "internalType": "address",
          "name": "settlementAddress",
          "type": "address"
        },
        {
          "indexed": false,
          "internalType": "uint256",
          "name": "addedCorruptionIndexAmount",
          "type": "uint256"
        }
      ],
      "name": "CorruptionIndexIncreased",
      "type": "event"
    },
    {
      "anonymous": false,
      "inputs": [
        {
          "indexed": false,
          "internalType": "uint8",
          "name": "version",
          "type": "uint8"
        }
      ],
      "name": "Initialized",
      "type": "event"
    },
    {
      "anonymous": false,
      "inputs": [
        {
          "indexed": false,
          "internalType": "uint256",
          "name": "newCultistsSummonIntervalNumber",
          "type": "uint256"
        }
      ],
      "name": "LastCultistsSummonIntervalNumberUpdated",
      "type": "event"
    },
    {
      "anonymous": false,
      "inputs": [
        {
          "indexed": false,
          "internalType": "uint256",
          "name": "newRegionCultistsAmount",
          "type": "uint256"
        }
      ],
      "name": "RegionCultistsChanged",
      "type": "event"
    },
    {
      "anonymous": false,
      "inputs": [
        {
          "indexed": false,
          "internalType": "uint256",
          "name": "lastUpdateTime",
          "type": "uint256"
        },
        {
          "indexed": false,
          "internalType": "uint256",
          "name": "lastUpdateRegionTime",
          "type": "uint256"
        }
      ],
      "name": "RegionTimeChanged",
      "type": "event"
    },
    {
      "anonymous": false,
      "inputs": [
        {
          "indexed": false,
          "internalType": "address",
          "name": "settlementsMarketAddress",
          "type": "address"
        }
      ],
      "name": "SettlementsMarketCreated",
      "type": "event"
    },
    {
      "anonymous": false,
      "inputs": [
        {
          "indexed": false,
          "internalType": "address",
          "name": "unitsPoolAddress",
          "type": "address"
        },
        {
          "indexed": false,
          "internalType": "bytes32",
          "name": "unitTypeId",
          "type": "bytes32"
        }
      ],
      "name": "UnitsPoolCreated",
      "type": "event"
    },
    {
      "anonymous": false,
      "inputs": [
        {
          "indexed": false,
          "internalType": "address",
          "name": "workersPoolAddress",
          "type": "address"
        }
      ],
      "name": "WorkersPoolCreated",
      "type": "event"
    },
    {
      "inputs": [],
      "name": "assetGroupId",
      "outputs": [
        {
          "internalType": "bytes32",
          "name": "",
          "type": "bytes32"
        }
      ],
      "stateMutability": "view",
      "type": "function"
    },
    {
      "inputs": [],
      "name": "assetTypeId",
      "outputs": [
        {
          "internalType": "bytes32",
          "name": "",
          "type": "bytes32"
        }
      ],
      "stateMutability": "view",
      "type": "function"
    },
    {
      "inputs": [],
      "name": "corruptionIndex",
      "outputs": [
        {
          "internalType": "int256",
          "name": "",
          "type": "int256"
        }
      ],
      "stateMutability": "view",
      "type": "function"
    },
    {
      "inputs": [
        {
          "internalType": "uint64",
          "name": "cultistsPosition",
          "type": "uint64"
        }
      ],
      "name": "createCultistsSettlement",
      "outputs": [],
      "stateMutability": "nonpayable",
      "type": "function"
    },
    {
      "inputs": [],
      "name": "cultistsSettlement",
      "outputs": [
        {
          "internalType": "contract ISettlement",
          "name": "",
          "type": "address"
        }
      ],
      "stateMutability": "view",
      "type": "function"
    },
    {
      "inputs": [
        {
          "internalType": "address",
          "name": "settlementAddress",
          "type": "address"
        },
        {
          "internalType": "uint256",
          "name": "value",
          "type": "uint256"
        }
      ],
      "name": "decreaseCorruptionIndex",
      "outputs": [],
      "stateMutability": "nonpayable",
      "type": "function"
    },
    {
      "inputs": [],
      "name": "era",
      "outputs": [
        {
          "internalType": "contract IEra",
          "name": "",
          "type": "address"
        }
      ],
      "stateMutability": "view",
      "type": "function"
    },
    {
      "inputs": [],
      "name": "eraNumber",
      "outputs": [
        {
          "internalType": "uint256",
          "name": "",
          "type": "uint256"
        }
      ],
      "stateMutability": "view",
      "type": "function"
    },
    {
      "inputs": [],
      "name": "getPenaltyFromCultists",
      "outputs": [
        {
          "internalType": "uint256",
          "name": "",
          "type": "uint256"
        }
      ],
      "stateMutability": "view",
      "type": "function"
    },
    {
      "inputs": [
        {
          "internalType": "uint256",
          "name": "timestamp",
          "type": "uint256"
        }
      ],
      "name": "getRegionTime",
      "outputs": [
        {
          "internalType": "uint256",
          "name": "",
          "type": "uint256"
        }
      ],
      "stateMutability": "view",
      "type": "function"
    },
    {
      "inputs": [
        {
          "internalType": "uint256",
          "name": "value",
          "type": "uint256"
        }
      ],
      "name": "handleCultistsDefeated",
      "outputs": [],
      "stateMutability": "nonpayable",
      "type": "function"
    },
    {
      "inputs": [
        {
          "internalType": "uint256",
          "name": "value",
          "type": "uint256"
        }
      ],
      "name": "handleCultistsSummoned",
      "outputs": [],
      "stateMutability": "nonpayable",
      "type": "function"
    },
    {
      "inputs": [
        {
          "internalType": "address",
          "name": "tokensOwner",
          "type": "address"
        },
        {
          "internalType": "address",
          "name": "settlementAddress",
          "type": "address"
        },
        {
          "internalType": "bytes32[]",
          "name": "unitTypeIdsToHire",
          "type": "bytes32[]"
        },
        {
          "internalType": "uint256[]",
          "name": "unitsAmountsToHire",
          "type": "uint256[]"
        },
        {
          "internalType": "uint256[]",
          "name": "maxTokensToSellToHireUnits",
          "type": "uint256[]"
        },
        {
          "internalType": "bytes32[]",
          "name": "unitTypeIdsToDemilitarize",
          "type": "bytes32[]"
        },
        {
          "internalType": "uint256[]",
          "name": "unitsAmountsToDemilitarize",
          "type": "uint256[]"
        }
      ],
      "name": "hireAndDemilitarizeUnitsBatch",
      "outputs": [],
      "stateMutability": "nonpayable",
      "type": "function"
    },
    {
      "inputs": [
        {
          "internalType": "address",
          "name": "settlementAddress",
          "type": "address"
        },
        {
          "internalType": "uint256",
          "name": "value",
          "type": "uint256"
        }
      ],
      "name": "increaseCorruptionIndex",
      "outputs": [],
      "stateMutability": "nonpayable",
      "type": "function"
    },
    {
      "inputs": [
        {
          "internalType": "bytes",
          "name": "initParams",
          "type": "bytes"
        }
      ],
      "name": "init",
      "outputs": [],
      "stateMutability": "nonpayable",
      "type": "function"
    },
    {
      "inputs": [],
      "name": "lastCultistsSummonIntervalNumber",
      "outputs": [
        {
          "internalType": "uint256",
          "name": "",
          "type": "uint256"
        }
      ],
      "stateMutability": "view",
      "type": "function"
    },
    {
      "inputs": [],
      "name": "lastUpdateRegionTime",
      "outputs": [
        {
          "internalType": "uint256",
          "name": "",
          "type": "uint256"
        }
      ],
      "stateMutability": "view",
      "type": "function"
    },
    {
      "inputs": [],
      "name": "lastUpdateTime",
      "outputs": [
        {
          "internalType": "uint256",
          "name": "",
          "type": "uint256"
        }
      ],
      "stateMutability": "view",
      "type": "function"
    },
    {
      "inputs": [],
      "name": "regionId",
      "outputs": [
        {
          "internalType": "uint64",
          "name": "",
          "type": "uint64"
        }
      ],
      "stateMutability": "view",
      "type": "function"
    },
    {
      "inputs": [],
      "name": "registry",
      "outputs": [
        {
          "internalType": "contract IRegistry",
          "name": "",
          "type": "address"
        }
      ],
      "stateMutability": "view",
      "type": "function"
    },
    {
      "inputs": [],
      "name": "settlementsMarket",
      "outputs": [
        {
          "internalType": "contract ISettlementsMarket",
          "name": "",
          "type": "address"
        }
      ],
      "stateMutability": "view",
      "type": "function"
    },
    {
      "inputs": [
        {
          "internalType": "bytes32",
          "name": "",
          "type": "bytes32"
        }
      ],
      "name": "unitsPools",
      "outputs": [
        {
          "internalType": "contract IUnitsPool",
          "name": "",
          "type": "address"
        }
      ],
      "stateMutability": "view",
      "type": "function"
    },
    {
      "inputs": [
        {
          "internalType": "uint256",
          "name": "globalTime",
          "type": "uint256"
        }
      ],
      "name": "updateRegionTime",
      "outputs": [],
      "stateMutability": "nonpayable",
      "type": "function"
    },
    {
      "inputs": [],
      "name": "updateState",
      "outputs": [],
      "stateMutability": "nonpayable",
      "type": "function"
    },
    {
      "inputs": [],
      "name": "workersPool",
      "outputs": [
        {
          "internalType": "contract IWorkersPool",
          "name": "",
          "type": "address"
        }
      ],
      "stateMutability": "view",
      "type": "function"
    },
    {
      "inputs": [],
      "name": "world",
      "outputs": [
        {
          "internalType": "contract IWorld",
          "name": "",
          "type": "address"
        }
      ],
      "stateMutability": "view",
      "type": "function"
    },
    {
      "inputs": [],
      "name": "worldAssetFactory",
      "outputs": [
        {
          "internalType": "contract IWorldAssetFactory",
          "name": "",
          "type": "address"
        }
      ],
      "stateMutability": "view",
      "type": "function"
    }
  ],
  "bytecode": "0x6080604052348015600f57600080fd5b50612a318061001f6000396000f3fe608060405234801561001057600080fd5b50600436106101795760003560e01c80637b103999116100d9578063c8f33c9111610087578063c8f33c91146102ef578063d2bb2eae146102f8578063d99d7d8114610300578063e85b89d914610313578063ece56a1a14610326578063facb94fb1461032e578063ffd7a09f1461033757600080fd5b80637b103999146102775780637d884c741461027f57806384ba89e3146102875780638ee6bc111461028f578063901c2828146102a8578063b2fd8933146102b1578063c20c9250146102dc57600080fd5b806330b67baa1161013657806330b67baa146101e7578063403e2e43146101ef5780634ddf47d4146102025780635053c29914610215578063540822601461022857806358a445c51461023b578063770658171461026457600080fd5b80630b4e99c31461017e5780630b500ffd14610199578063143e55e0146101ae5780631d8557d7146101c357806324ea75c6146101cb57806325fc9289146101d4575b600080fd5b61018661034a565b6040519081526020015b60405180910390f35b6101ac6101a736600461257b565b610387565b005b6101b6610616565b6040516101909190612683565b6101ac61069a565b61018660085481565b6101866101e2366004612697565b6106ac565b6101b6610828565b6101ac6101fd366004612697565b610832565b6101ac6102103660046126b0565b6108df565b6101ac610223366004612748565b610eb5565b6101ac610236366004612697565b610ecf565b6101b6610249366004612697565b6001602052600090815260409020546001600160a01b031681565b6101ac610272366004612697565b610f0c565b6101b6610f6a565b610186610fb1565b610186610fee565b6000546101b6906201000090046001600160a01b031681565b61018660045481565b6006546102c4906001600160401b031681565b6040516001600160401b039091168152602001610190565b6003546101b6906001600160a01b031681565b61018660075481565b61018661102b565b6101ac61030e366004612789565b611089565b6101ac610321366004612748565b6112a6565b6101b66112c0565b61018660055481565b6002546101b6906001600160a01b031681565b604080516020808252818301909252600091309183918291906020820181803683370190505090506020607a60208301853c602001519392505050565b60005b85518110156104ac57600160008783815181106103a9576103a96127a6565b6020026020010151815260200190815260200160002060009054906101000a90046001600160a01b03166001600160a01b0316637725845189338a8986815181106103f6576103f66127a6565b6020026020010151898781518110610410576104106127a6565b60209081029190910101516040516001600160e01b031960e088901b1681526001600160a01b03958616600482015293851660248501529390911660448301526064820152608481019190915260a4016020604051808303816000875af115801561047f573d6000803e3d6000fd5b505050506040513d601f19601f820116820180604052508101906104a391906127bc565b5060010161038a565b5081511561060d5760008690506000816001600160a01b031663f10e38af6040518163ffffffff1660e01b8152600401602060405180830381865afa1580156104f9573d6000803e3d6000fd5b505050506040513d601f19601f8201168201806040525081019061051d91906127d5565b604051631b0b969d60e01b81529091506001600160a01b03831690631b0b969d9061054c903390600401612683565b602060405180830381865afa158015610569573d6000803e3d6000fd5b505050506040513d601f19601f8201168201806040525081019061058d91906127f2565b6105aa57604051636b90745760e01b815260040160405180910390fd5b604051634fc35db360e11b81526001600160a01b03821690639f86bb66906105d89087908790600401612814565b600060405180830381600087803b1580156105f257600080fd5b505af1158015610606573d6000803e3d6000fd5b5050505050505b50505050505050565b6000610620610828565b6001600160a01b031663720a70bd610636610fb1565b6040518263ffffffff1660e01b815260040161065491815260200190565b602060405180830381865afa158015610671573d6000803e3d6000fd5b505050506040513d601f19601f8201168201806040525081019061069591906127d5565b905090565b6106a2611307565b6106aa61150c565b565b6000816000036106ba574291505b60006106c4610828565b90506000816001600160a01b0316633c8ca83d6040518163ffffffff1660e01b8152600401602060405180830381865afa158015610706573d6000803e3d6000fd5b505050506040513d601f19601f8201168201806040525081019061072a91906127bc565b905080841015610738578093505b6000826001600160a01b03166344d9bc5f6040518163ffffffff1660e01b8152600401602060405180830381865afa158015610778573d6000803e3d6000fd5b505050506040513d601f19601f8201168201806040525081019061079c91906127bc565b905080158015906107ac57508085115b156107b5578094505b600754600854838210156107ca575082905060005b8187116107db579695505050505050565b60006107e783896128ac565b905060006107f361102b565b905061080781670de0b6b3a76400006128ac565b61081190836128bf565b61081b90846128d6565b9998505050505050505050565b600061069561164b565b61083a611688565b610842610616565b6001600160a01b031663c096b3f7826040518263ffffffff1660e01b815260040161086f91815260200190565b600060405180830381600087803b15801561088957600080fd5b505af115801561089d573d6000803e3d6000fd5b505050507fe6537ef9de80c86b778fd21bbf662464035e006f3e89b6074fe3280b4d9dd2a56108ca61178c565b6040519081526020015b60405180910390a150565b600054610100900460ff16158080156108ff5750600054600160ff909116105b806109195750303b158015610919575060005460ff166001145b6109805760405162461bcd60e51b815260206004820152602e60248201527f496e697469616c697a61626c653a20636f6e747261637420697320616c72656160448201526d191e481a5b9a5d1a585b1a5e995960921b606482015260840160405180910390fd5b6000805460ff1916600117905580156109a3576000805461ff0019166101001790555b6000828060200190518101906109b991906128e9565b6006805467ffffffffffffffff19166001600160401b0383161790554260078190559091506109e7906106ac565b60085560006109f4610828565b90506000610a00610fb1565b90506000610a0c6112c0565b604080518082018252600b81526a1ddbdc9ad95c9cd41bdbdb60aa1b602091820152815180830183526005815264424153494360d81b9082015290519192506000916001600160a01b0384169163c19755fd91879187917f6dd10f5694032abddf028b131aa9186f0ec727b5d419b1e0623133ed6f122928917fdc0ae866100b2876ab26eb62a50ca2cd083944f439e6d78aab2fc402e669e9ee91610ab391309101612683565b6040516020818303038152906040526040518663ffffffff1660e01b8152600401610ae2959493929190612906565b6020604051808303816000875af1158015610b01573d6000803e3d6000fd5b505050506040513d601f19601f82011682018060405250810190610b2591906127d5565b6000805462010000600160b01b031916620100006001600160a01b038416021790556040519091507fe7ddd620fd16596faeb8a1d8afc92f00debed651f475b643ce469a07c0c247ec90610b7a908390612683565b60405180910390a160408051808201825260118152701cd95d1d1b195b595b9d1cd3585c9ad95d607a1b602091820152815180830183526005815264424153494360d81b9082015290516000916001600160a01b0385169163c19755fd91889188917f91517c2ebe3f5c03da0b048b13e3f173bc97ca7f2da46cc37c1cae7177d7646c917fdc0ae866100b2876ab26eb62a50ca2cd083944f439e6d78aab2fc402e669e9ee91610c2c91309101612683565b6040516020818303038152906040526040518663ffffffff1660e01b8152600401610c5b959493929190612906565b6020604051808303816000875af1158015610c7a573d6000803e3d6000fd5b505050506040513d601f19601f82011682018060405250810190610c9e91906127d5565b600280546001600160a01b0319166001600160a01b0383161790556040519091507f02d56eb340d542c3f5a451aead2c3d806238d3e9d81723b46e944bebb3a3877690610cec908390612683565b60405180910390a16000610cfe61191e565b905060005b8151811015610e62576000828281518110610d2057610d206127a6565b602002602001015190506000866001600160a01b031663c19755fd8a8a604051806040016040528060098152602001681d5b9a5d1cd41bdbdb60ba1b81525080519060200120610d6f876119c9565b3088604051602001610d82929190612978565b6040516020818303038152906040526040518663ffffffff1660e01b8152600401610db1959493929190612906565b6020604051808303816000875af1158015610dd0573d6000803e3d6000fd5b505050506040513d601f19601f82011682018060405250810190610df491906127d5565b6000838152600160205260409081902080546001600160a01b0319166001600160a01b038416179055519091507f0dff9287540f6a481d1b54c7a56eb3db3d44b60de42dca1cd0d4a51cb135591790610e509083908590612978565b60405180910390a15050600101610d03565b50505050505050508015610eb1576000805461ff0019169055604051600181527f7f26b83ff96e1f2b6a682f133852f6798a09c465da95921460cefb3847402498906020015b60405180910390a15b5050565b610ebd611ba1565b610ec561069a565b610eb18282611c60565b610ed7611688565b610edf610616565b6001600160a01b031663558c31ce826040518263ffffffff1660e01b815260040161086f91815260200190565b610f14611ba1565b6007548114610f6757610f26816106ac565b600881905560078290556040805183815260208101929092527f6c12308e84d8918db07724ca628050fa45134651fb4e77f6db452c7a54e3924291016108d4565b50565b6000610f74610828565b6001600160a01b0316637b1039996040518163ffffffff1660e01b8152600401602060405180830381865afa158015610671573d6000803e3d6000fd5b604080516020808252818301909252600091309183918291906020820181803683370190505090506020609a60208301853c602001519392505050565b604080516020808252818301909252600091309183918291906020820181803683370190505090506020605a60208301853c602001519392505050565b60008061103661178c565b9050600069021e19e0c9bab240000061105783670de0b6b3a76400006128bf565b6110619190612991565b9050670de0b6b3a764000081111561108357670de0b6b3a76400009250505090565b92915050565b611091611ba1565b600061109b610616565b600654604080518082018252600881526743554c544953545360c01b6020909101525163d6ea8dc360e01b8152600060048201526001600160401b03918216602482015290841660448201527f68df48fcd9cdb73398d3d230d42cb2c985c02b74e432f851c9e661aec1cc00f060648201526001600160a01b03919091169063d6ea8dc3906084016020604051808303816000875af1158015611142573d6000803e3d6000fd5b505050506040513d601f19601f8201168201806040525081019061116691906127d5565b600380546001600160a01b0319166001600160a01b0383161790559050600061118d610828565b6001600160a01b031663f5f026a36040518163ffffffff1660e01b8152600401602060405180830381865afa1580156111ca573d6000803e3d6000fd5b505050506040513d601f19601f820116820180604052508101906111ee91906127d5565b60065460405163335cf12b60e11b81526001600160401b0390911660048201526001600160a01b0391909116906366b9e25690602401602060405180830381865afa158015611241573d6000803e3d6000fd5b505050506040513d601f19601f8201168201806040525081019061126591906127bc565b9050600061127282611d99565b905061128581611280611dfb565b611f10565b60006112926005836128bf565b905061129f6000826120c8565b5050505050565b6112ae611ba1565b6112b661069a565b610eb182826120c8565b60006112ca610f6a565b6001600160a01b031663ece56a1a6040518163ffffffff1660e01b8152600401602060405180830381865afa158015610671573d6000803e3d6000fd5b6003546040805163f10e38af60e01b815290516000926001600160a01b03169163f10e38af9160048083019260209291908290030181865afa158015611351573d6000803e3d6000fd5b505050506040513d601f19601f8201168201806040525081019061137591906127d5565b6001600160a01b03166344e445456040518163ffffffff1660e01b8152600401602060405180830381865afa1580156113b2573d6000803e3d6000fd5b505050506040513d601f19601f820116820180604052508101906113d691906127d5565b90506001600160a01b0381161580159061144f5750806001600160a01b0316631852b5af6040518163ffffffff1660e01b8152600401602060405180830381865afa158015611429573d6000803e3d6000fd5b505050506040513d601f19601f8201168201806040525081019061144d91906127f2565b155b80156114b85750806001600160a01b0316639d4095fe6040518163ffffffff1660e01b8152600401602060405180830381865afa158015611494573d6000803e3d6000fd5b505050506040513d601f19601f820116820180604052508101906114b891906127f2565b15610f6757806001600160a01b031663d1c986186040518163ffffffff1660e01b8152600401600060405180830381600087803b1580156114f857600080fd5b505af115801561129f573d6000803e3d6000fd5b611514610828565b6001600160a01b031663704f63a16040518163ffffffff1660e01b8152600401602060405180830381865afa158015611551573d6000803e3d6000fd5b505050506040513d601f19601f8201168201806040525081019061157591906127bc565b61157d610fb1565b1461158457565b600061158e611dfb565b9050806004541061159c5750565b600080600554136115ae5760006115b2565b6005545b90506000811561163c5760006115c661178c565b90506115d3601e84612991565b6115de600683612991565b11611635576116306116176115f4600684612991565b6115ff601e87612991565b61160991906128ac565b670de0b6b3a76400006121cf565b61162b8369021e19e0c9bab24000006128ac565b6121ed565b611638565b60005b9150505b6116468184611f10565b505050565b604080516014808252818301909252600091309183918291906020820181803683370190505090506014602a60208301853c601401519392505050565b6000336001600160a01b0316635920c5436040518163ffffffff1660e01b8152600401602060405180830381865afa1580156116c8573d6000803e3d6000fd5b505050506040513d601f19601f820116820180604052508101906116ec91906127bc565b9050336116f7610616565b6001600160a01b031663feae7dc3836040518263ffffffff1660e01b815260040161172491815260200190565b602060405180830381865afa158015611741573d6000803e3d6000fd5b505050506040513d601f19601f8201168201806040525081019061176591906127d5565b6001600160a01b031614610f675760405163140e5a6960e01b815260040160405180910390fd5b6000611796610616565b60408051808201825260078152662ba0a92924a7a960c91b6020909101525163feae7dc360e01b81527f69c5317e5ce44f1a1fb56c6a5eff904214e6353da6310ab0a6b511eef9a7c39160048201526001600160a01b03919091169063feae7dc390602401602060405180830381865afa158015611818573d6000803e3d6000fd5b505050506040513d601f19601f8201168201806040525081019061183c91906127d5565b6001600160a01b03166370a08231600360009054906101000a90046001600160a01b03166001600160a01b031663f10e38af6040518163ffffffff1660e01b8152600401602060405180830381865afa15801561189d573d6000803e3d6000fd5b505050506040513d601f19601f820116820180604052508101906118c191906127d5565b6040518263ffffffff1660e01b81526004016118dd9190612683565b602060405180830381865afa1580156118fa573d6000803e3d6000fd5b505050506040513d601f19601f8201168201806040525081019061069591906127bc565b6060600061192a612203565b9050600081516001600160401b03811115611947576119476124a5565b604051908082528060200260200182016040528015611970578160200160208202803683370190505b50905060005b81518110156119c257828181518110611991576119916127a6565b6020026020010151604001518282815181106119af576119af6127a6565b6020908102919091010152600101611976565b5092915050565b6040805180820190915260078152662ba0a92924a7a960c91b60209091015260007f963ace81a31bb0e5e04a9395a1006fbdeb19cac259cef54f594aee1106583c6f8201611a6057505060408051808201909152601181527015d3d492d15494d7d553925517d413d3d3607a1b6020909101527f8f75178ea8b939732f30df87bf2b4d5864e1068291d6e7b65eb7efcdd75e570290565b60408051808201909152600681526520a921a422a960d11b6020909101527fbd21a0403f8a882c166bd206a22b19e35435476f82a2cccdbfebf4d666c861c08201611af357505060408051808201909152601081526f125391d3d514d7d553925517d413d3d360821b6020909101527facde00cf82db2dd178c1275275df8e6a2355a26d2338720a6239578a1148b9f790565b6040805180820190915260088152672427a929a2a6a0a760c11b6020909101527f762a1190b034cd04c3eae43da1943cdf0137d457634c4d62e69626f81f1986c78201611b8857505060408051808201909152601081526f125391d3d514d7d553925517d413d3d360821b6020909101527facde00cf82db2dd178c1275275df8e6a2355a26d2338720a6239578a1148b9f790565b60405163ea3b0abb60e01b815260040160405180910390fd5b6000611bab610828565b9050336001600160a01b03821614801590611c42575060006001600160a01b03821663ebbe8034611bda610fb1565b6040516001600160e01b031960e084901b1681526004810191909152336024820152604401602060405180830381865afa158015611c1c573d6000803e3d6000fd5b505050506040513d601f19601f82011682018060405250810190611c4091906127bc565b145b15610f675760405163422656d160e01b815260040160405180910390fd5b611c68610828565b6001600160a01b031663704f63a16040518163ffffffff1660e01b8152600401602060405180830381865afa158015611ca5573d6000803e3d6000fd5b505050506040513d601f19601f82011682018060405250810190611cc991906127bc565b611cd1610fb1565b14611cda575050565b8060056000828254611cec91906129b3565b90915550506040517fe96dd1d5d4c15a71bae1b7b1403f6ca0b4804ec59aeadead4d33fbefa4c971bc90611d239084908490612978565b60405180910390a16001600160a01b03821615610eb1576040516304164b8960e21b8152600481018290526001600160a01b038316906310592e24906024015b600060405180830381600087803b158015611d7d57600080fd5b505af1158015611d91573d6000803e3d6000fd5b505050505050565b600081600103611db3575068878678326eac900000919050565b81600203611dcb5750685150ae84a8cdf00000919050565b81600303611de357506828a857425466f80000919050565b81600403611b885750680d8d726b7177a80000919050565b600080611ed8611e09610616565b6001600160a01b031663d8270dce6040518163ffffffff1660e01b8152600401602060405180830381865afa158015611e46573d6000803e3d6000fd5b505050506040513d601f19601f82011682018060405250810190611e6a91906127bc565b611e72610828565b6001600160a01b0316633c8ca83d6040518163ffffffff1660e01b8152600401602060405180830381865afa158015611eaf573d6000803e3d6000fd5b505050506040513d601f19601f82011682018060405250810190611ed391906127bc565b612471565b9050804211611ee8576000611f0a565b611ef6600162069780612991565b611f0082426128ac565b611f0a9190612991565b91505090565b611f18610616565b60408051808201825260078152662ba0a92924a7a960c91b6020909101525163feae7dc360e01b81527f69c5317e5ce44f1a1fb56c6a5eff904214e6353da6310ab0a6b511eef9a7c39160048201526001600160a01b03919091169063feae7dc390602401602060405180830381865afa158015611f9a573d6000803e3d6000fd5b505050506040513d601f19601f82011682018060405250810190611fbe91906127d5565b6001600160a01b03166340c10f19600360009054906101000a90046001600160a01b03166001600160a01b031663f10e38af6040518163ffffffff1660e01b8152600401602060405180830381865afa15801561201f573d6000803e3d6000fd5b505050506040513d601f19601f8201168201806040525081019061204391906127d5565b846040518363ffffffff1660e01b8152600401612061929190612978565b600060405180830381600087803b15801561207b57600080fd5b505af115801561208f573d6000803e3d6000fd5b5050506004829055506040518181527fdf8b38cd05460b94bf10085f7d4c200121bf794f70fbfda02a150a0c7c6f1cde90602001610ea8565b6120d0610828565b6001600160a01b031663704f63a16040518163ffffffff1660e01b8152600401602060405180830381865afa15801561210d573d6000803e3d6000fd5b505050506040513d601f19601f8201168201806040525081019061213191906127bc565b612139610fb1565b14612142575050565b806005600082825461215491906129d3565b90915550506040517f7315efea3152f63ef4c3f7859af79e8e8619fadb38cbd344b9c9dd5ebb9f32fc9061218b9084908490612978565b60405180910390a16001600160a01b03821615610eb15760405163ca82504360e01b8152600481018290526001600160a01b0383169063ca82504390602401611d63565b6000816121dc8185612991565b6121e691906128bf565b9392505050565b60008183106121fc57816121e6565b5090919050565b6040805160038082526080820190925260609160009190816020015b6040805160608082018352808252602082015260009181019190915281526020019060019003908161221f5750506040805160a0810182526011606082019081527026b4ba343930b2bab6902bb0b93934b7b960791b6080830152815281518083018352600881526736aba0a92924a7a960c11b602080830191909152808301919091528251808401845260078152662ba0a92924a7a960c91b9101527f69c5317e5ce44f1a1fb56c6a5eff904214e6353da6310ab0a6b511eef9a7c3919181019190915281519192509082906000906122fb576122fb6127a6565b6020908102919091018101919091526040805160a0810182526010606082019081526f26b4ba343930b2bab69020b931b432b960811b6080830152815281518083018352600781526636a0a921a422a960c91b818501528184015281518083018352600681526520a921a422a960d11b9301929092527f42de5fbfc07577d3e9942df95dd4e61cabcab8907d5d333240140b2999379e40908201528151829060019081106123ab576123ab6127a6565b6020908102919091018101919091526040805160a0810182526012606082019081527126b4ba343930b2bab6902437b939b2b6b0b760711b6080830152815281518083018352600981526836a427a929a2a6a0a760b91b81850152818401528151808301835260088152672427a929a2a6a0a760c11b9301929092527f89d5ee6f4fcb32fb3c151bc25e6bc320fec82ba89cb3b29d1969d907e0e6793990820152815182906002908110612461576124616127a6565b6020908102919091010152919050565b60008183116121fc57816121e6565b6001600160a01b0381168114610f6757600080fd5b80356124a081612480565b919050565b634e487b7160e01b600052604160045260246000fd5b604051601f8201601f191681016001600160401b03811182821017156124e3576124e36124a5565b604052919050565b60006001600160401b03821115612504576125046124a5565b5060051b60200190565b600082601f83011261251f57600080fd5b813561253261252d826124eb565b6124bb565b8082825260208201915060208360051b86010192508583111561255457600080fd5b602085015b83811015612571578035835260209283019201612559565b5095945050505050565b600080600080600080600060e0888a03121561259657600080fd5b61259f88612495565b96506125ad60208901612495565b955060408801356001600160401b038111156125c857600080fd5b6125d48a828b0161250e565b95505060608801356001600160401b038111156125f057600080fd5b6125fc8a828b0161250e565b94505060808801356001600160401b0381111561261857600080fd5b6126248a828b0161250e565b93505060a08801356001600160401b0381111561264057600080fd5b61264c8a828b0161250e565b92505060c08801356001600160401b0381111561266857600080fd5b6126748a828b0161250e565b91505092959891949750929550565b6001600160a01b0391909116815260200190565b6000602082840312156126a957600080fd5b5035919050565b6000602082840312156126c257600080fd5b81356001600160401b038111156126d857600080fd5b8201601f810184136126e957600080fd5b80356001600160401b03811115612702576127026124a5565b612715601f8201601f19166020016124bb565b81815285602083850101111561272a57600080fd5b81602084016020830137600091810160200191909152949350505050565b6000806040838503121561275b57600080fd5b823561276681612480565b946020939093013593505050565b6001600160401b0381168114610f6757600080fd5b60006020828403121561279b57600080fd5b81356121e681612774565b634e487b7160e01b600052603260045260246000fd5b6000602082840312156127ce57600080fd5b5051919050565b6000602082840312156127e757600080fd5b81516121e681612480565b60006020828403121561280457600080fd5b815180151581146121e657600080fd5b6040808252835190820181905260009060208501906060840190835b8181101561284e578351835260209384019390920191600101612830565b50508381036020808601919091528551808352918101925085019060005b8181101561288a57825184526020938401939092019160010161286c565b50919695505050505050565b634e487b7160e01b600052601160045260246000fd5b8181038181111561108357611083612896565b808202811582820484141761108357611083612896565b8082018082111561108357611083612896565b6000602082840312156128fb57600080fd5b81516121e681612774565b60018060a01b038616815284602082015283604082015282606082015260a06080820152600082518060a084015260005b8181101561295457602081860181015160c0868401015201612937565b50600060c0828501015260c0601f19601f8301168401019150509695505050505050565b6001600160a01b03929092168252602082015260400190565b6000826129ae57634e487b7160e01b600052601260045260246000fd5b500490565b81810360008312801583831316838312821617156119c2576119c2612896565b80820182811260008312801582168215821617156129f3576129f3612896565b50509291505056fea264697066735822122034827513ed00e35a7eb8ecf1542d814b6f9db54ff36bd93f7d64432757f0a0ad64736f6c634300081a0033",
  "linkReferences": {},
  "deployedLinkReferences": {}
}