{
  "_format": "hh-sol-artifact-1",
  "contractName": "Banners",
  "sourceName": "contracts/banners/Banners.sol",
  "abi": [
    {
      "inputs": [
        {
          "internalType": "string",
          "name": "name_",
          "type": "string"
        },
        {
          "internalType": "string",
          "name": "symbol_",
          "type": "string"
        },
        {
          "internalType": "string",
          "name": "uri_",
          "type": "string"
        },
        {
          "internalType": "uint256",
          "name": "maxAmountOfMintedBannersPerAddress_",
          "type": "uint256"
        }
      ],
      "stateMutability": "nonpayable",
      "type": "constructor"
    },
    {
      "inputs": [],
      "name": "CannotMintMoreThanMaximumAllowedAmountToMintForThisMsgSender",
      "type": "error"
    },
    {
      "inputs": [],
      "name": "UnableToUpdateBannerDueToTokenIdDoesNotBelongToCaller",
      "type": "error"
    },
    {
      "anonymous": false,
      "inputs": [
        {
          "indexed": true,
          "internalType": "address",
          "name": "owner",
          "type": "address"
        },
        {
          "indexed": true,
          "internalType": "address",
          "name": "approved",
          "type": "address"
        },
        {
          "indexed": true,
          "internalType": "uint256",
          "name": "tokenId",
          "type": "uint256"
        }
      ],
      "name": "Approval",
      "type": "event"
    },
    {
      "anonymous": false,
      "inputs": [
        {
          "indexed": true,
          "internalType": "address",
          "name": "owner",
          "type": "address"
        },
        {
          "indexed": true,
          "internalType": "address",
          "name": "operator",
          "type": "address"
        },
        {
          "indexed": false,
          "internalType": "bool",
          "name": "approved",
          "type": "bool"
        }
      ],
      "name": "ApprovalForAll",
      "type": "event"
    },
    {
      "anonymous": false,
      "inputs": [
        {
          "indexed": false,
          "internalType": "uint256",
          "name": "tokenId",
          "type": "uint256"
        },
        {
          "indexed": false,
          "internalType": "string",
          "name": "bannerName",
          "type": "string"
        },
        {
          "components": [
            {
              "internalType": "address",
              "name": "addr",
              "type": "address"
            },
            {
              "internalType": "uint256",
              "name": "id",
              "type": "uint256"
            }
          ],
          "indexed": false,
          "internalType": "struct Banners.Part[16]",
          "name": "bannerParts",
          "type": "tuple[16]"
        },
        {
          "indexed": false,
          "internalType": "bytes",
          "name": "data",
          "type": "bytes"
        }
      ],
      "name": "BannerCreated",
      "type": "event"
    },
    {
      "anonymous": false,
      "inputs": [
        {
          "indexed": false,
          "internalType": "uint256",
          "name": "tokenId",
          "type": "uint256"
        },
        {
          "indexed": false,
          "internalType": "string",
          "name": "newBannerName",
          "type": "string"
        },
        {
          "components": [
            {
              "internalType": "address",
              "name": "addr",
              "type": "address"
            },
            {
              "internalType": "uint256",
              "name": "id",
              "type": "uint256"
            }
          ],
          "indexed": false,
          "internalType": "struct Banners.Part[16]",
          "name": "newBannerParts",
          "type": "tuple[16]"
        },
        {
          "indexed": false,
          "internalType": "bytes",
          "name": "data",
          "type": "bytes"
        }
      ],
      "name": "BannerUpdated",
      "type": "event"
    },
    {
      "anonymous": false,
      "inputs": [
        {
          "indexed": true,
          "internalType": "address",
          "name": "previousOwner",
          "type": "address"
        },
        {
          "indexed": true,
          "internalType": "address",
          "name": "newOwner",
          "type": "address"
        }
      ],
      "name": "OwnershipTransferred",
      "type": "event"
    },
    {
      "anonymous": false,
      "inputs": [
        {
          "indexed": true,
          "internalType": "address",
          "name": "from",
          "type": "address"
        },
        {
          "indexed": true,
          "internalType": "address",
          "name": "to",
          "type": "address"
        },
        {
          "indexed": true,
          "internalType": "uint256",
          "name": "tokenId",
          "type": "uint256"
        }
      ],
      "name": "Transfer",
      "type": "event"
    },
    {
      "inputs": [
        {
          "internalType": "address",
          "name": "to",
          "type": "address"
        },
        {
          "internalType": "uint256",
          "name": "tokenId",
          "type": "uint256"
        }
      ],
      "name": "approve",
      "outputs": [],
      "stateMutability": "nonpayable",
      "type": "function"
    },
    {
      "inputs": [
        {
          "internalType": "address",
          "name": "owner",
          "type": "address"
        }
      ],
      "name": "balanceOf",
      "outputs": [
        {
          "internalType": "uint256",
          "name": "",
          "type": "uint256"
        }
      ],
      "stateMutability": "view",
      "type": "function"
    },
    {
      "inputs": [
        {
          "internalType": "uint256",
          "name": "",
          "type": "uint256"
        }
      ],
      "name": "bannerData",
      "outputs": [
        {
          "internalType": "string",
          "name": "name",
          "type": "string"
        },
        {
          "internalType": "bytes",
          "name": "data",
          "type": "bytes"
        }
      ],
      "stateMutability": "view",
      "type": "function"
    },
    {
      "inputs": [],
      "name": "baseURI",
      "outputs": [
        {
          "internalType": "string",
          "name": "",
          "type": "string"
        }
      ],
      "stateMutability": "view",
      "type": "function"
    },
    {
      "inputs": [
        {
          "internalType": "uint256",
          "name": "tokenId",
          "type": "uint256"
        }
      ],
      "name": "getApproved",
      "outputs": [
        {
          "internalType": "address",
          "name": "",
          "type": "address"
        }
      ],
      "stateMutability": "view",
      "type": "function"
    },
    {
      "inputs": [
        {
          "internalType": "uint256",
          "name": "tokenIndex",
          "type": "uint256"
        }
      ],
      "name": "getBannerData",
      "outputs": [
        {
          "internalType": "string",
          "name": "name",
          "type": "string"
        },
        {
          "components": [
            {
              "internalType": "address",
              "name": "addr",
              "type": "address"
            },
            {
              "internalType": "uint256",
              "name": "id",
              "type": "uint256"
            }
          ],
          "internalType": "struct Banners.Part[16]",
          "name": "parts",
          "type": "tuple[16]"
        },
        {
          "internalType": "bytes",
          "name": "data",
          "type": "bytes"
        }
      ],
      "stateMutability": "view",
      "type": "function"
    },
    {
      "inputs": [
        {
          "internalType": "uint256[]",
          "name": "tokenIds",
          "type": "uint256[]"
        }
      ],
      "name": "getBannersDataByTokenIds",
      "outputs": [
        {
          "components": [
            {
              "internalType": "string",
              "name": "name",
              "type": "string"
            },
            {
              "components": [
                {
                  "internalType": "address",
                  "name": "addr",
                  "type": "address"
                },
                {
                  "internalType": "uint256",
                  "name": "id",
                  "type": "uint256"
                }
              ],
              "internalType": "struct Banners.Part[16]",
              "name": "parts",
              "type": "tuple[16]"
            },
            {
              "internalType": "bytes",
              "name": "data",
              "type": "bytes"
            }
          ],
          "internalType": "struct Banners.BannerData[]",
          "name": "bannersData",
          "type": "tuple[]"
        }
      ],
      "stateMutability": "view",
      "type": "function"
    },
    {
      "inputs": [
        {
          "internalType": "address",
          "name": "holderAddress",
          "type": "address"
        }
      ],
      "name": "getTokenIdsByAddress",
      "outputs": [
        {
          "internalType": "uint256[]",
          "name": "tokenIds",
          "type": "uint256[]"
        }
      ],
      "stateMutability": "view",
      "type": "function"
    },
    {
      "inputs": [
        {
          "internalType": "address",
          "name": "owner",
          "type": "address"
        },
        {
          "internalType": "address",
          "name": "operator",
          "type": "address"
        }
      ],
      "name": "isApprovedForAll",
      "outputs": [
        {
          "internalType": "bool",
          "name": "",
          "type": "bool"
        }
      ],
      "stateMutability": "view",
      "type": "function"
    },
    {
      "inputs": [],
      "name": "lastTokenId",
      "outputs": [
        {
          "internalType": "uint256",
          "name": "",
          "type": "uint256"
        }
      ],
      "stateMutability": "view",
      "type": "function"
    },
    {
      "inputs": [],
      "name": "maxAmountOfMintedBannersPerAddress",
      "outputs": [
        {
          "internalType": "uint256",
          "name": "",
          "type": "uint256"
        }
      ],
      "stateMutability": "view",
      "type": "function"
    },
    {
      "inputs": [
        {
          "internalType": "string",
          "name": "name",
          "type": "string"
        },
        {
          "components": [
            {
              "internalType": "address",
              "name": "addr",
              "type": "address"
            },
            {
              "internalType": "uint256",
              "name": "id",
              "type": "uint256"
            }
          ],
          "internalType": "struct Banners.Part[16]",
          "name": "parts",
          "type": "tuple[16]"
        },
        {
          "internalType": "bytes",
          "name": "data",
          "type": "bytes"
        }
      ],
      "name": "mint",
      "outputs": [],
      "stateMutability": "nonpayable",
      "type": "function"
    },
    {
      "inputs": [
        {
          "internalType": "address",
          "name": "",
          "type": "address"
        }
      ],
      "name": "mintedBannersByAddress",
      "outputs": [
        {
          "internalType": "uint256",
          "name": "",
          "type": "uint256"
        }
      ],
      "stateMutability": "view",
      "type": "function"
    },
    {
      "inputs": [],
      "name": "name",
      "outputs": [
        {
          "internalType": "string",
          "name": "",
          "type": "string"
        }
      ],
      "stateMutability": "view",
      "type": "function"
    },
    {
      "inputs": [
        {
          "internalType": "address",
          "name": "operator",
          "type": "address"
        },
        {
          "internalType": "address",
          "name": "from",
          "type": "address"
        },
        {
          "internalType": "uint256[]",
          "name": "ids",
          "type": "uint256[]"
        },
        {
          "internalType": "uint256[]",
          "name": "values",
          "type": "uint256[]"
        },
        {
          "internalType": "bytes",
          "name": "data",
          "type": "bytes"
        }
      ],
      "name": "onERC1155BatchReceived",
      "outputs": [
        {
          "internalType": "bytes4",
          "name": "",
          "type": "bytes4"
        }
      ],
      "stateMutability": "nonpayable",
      "type": "function"
    },
    {
      "inputs": [
        {
          "internalType": "address",
          "name": "operator",
          "type": "address"
        },
        {
          "internalType": "address",
          "name": "from",
          "type": "address"
        },
        {
          "internalType": "uint256",
          "name": "id",
          "type": "uint256"
        },
        {
          "internalType": "uint256",
          "name": "value",
          "type": "uint256"
        },
        {
          "internalType": "bytes",
          "name": "data",
          "type": "bytes"
        }
      ],
      "name": "onERC1155Received",
      "outputs": [
        {
          "internalType": "bytes4",
          "name": "",
          "type": "bytes4"
        }
      ],
      "stateMutability": "nonpayable",
      "type": "function"
    },
    {
      "inputs": [
        {
          "internalType": "address",
          "name": "",
          "type": "address"
        }
      ],
      "name": "overriddenMaxAmountOfBannersByAddress",
      "outputs": [
        {
          "internalType": "uint256",
          "name": "",
          "type": "uint256"
        }
      ],
      "stateMutability": "view",
      "type": "function"
    },
    {
      "inputs": [],
      "name": "owner",
      "outputs": [
        {
          "internalType": "address",
          "name": "",
          "type": "address"
        }
      ],
      "stateMutability": "view",
      "type": "function"
    },
    {
      "inputs": [
        {
          "internalType": "uint256",
          "name": "tokenId",
          "type": "uint256"
        }
      ],
      "name": "ownerOf",
      "outputs": [
        {
          "internalType": "address",
          "name": "",
          "type": "address"
        }
      ],
      "stateMutability": "view",
      "type": "function"
    },
    {
      "inputs": [],
      "name": "renounceOwnership",
      "outputs": [],
      "stateMutability": "nonpayable",
      "type": "function"
    },
    {
      "inputs": [
        {
          "internalType": "address",
          "name": "from",
          "type": "address"
        },
        {
          "internalType": "address",
          "name": "to",
          "type": "address"
        },
        {
          "internalType": "uint256",
          "name": "tokenId",
          "type": "uint256"
        }
      ],
      "name": "safeTransferFrom",
      "outputs": [],
      "stateMutability": "nonpayable",
      "type": "function"
    },
    {
      "inputs": [
        {
          "internalType": "address",
          "name": "from",
          "type": "address"
        },
        {
          "internalType": "address",
          "name": "to",
          "type": "address"
        },
        {
          "internalType": "uint256",
          "name": "tokenId",
          "type": "uint256"
        },
        {
          "internalType": "bytes",
          "name": "data",
          "type": "bytes"
        }
      ],
      "name": "safeTransferFrom",
      "outputs": [],
      "stateMutability": "nonpayable",
      "type": "function"
    },
    {
      "inputs": [
        {
          "internalType": "address",
          "name": "operator",
          "type": "address"
        },
        {
          "internalType": "bool",
          "name": "approved",
          "type": "bool"
        }
      ],
      "name": "setApprovalForAll",
      "outputs": [],
      "stateMutability": "nonpayable",
      "type": "function"
    },
    {
      "inputs": [
        {
          "internalType": "address",
          "name": "_address",
          "type": "address"
        },
        {
          "internalType": "uint256",
          "name": "_maxAmountOfBannersByAddress",
          "type": "uint256"
        }
      ],
      "name": "setMaxAmountOfBannersByAddress",
      "outputs": [],
      "stateMutability": "nonpayable",
      "type": "function"
    },
    {
      "inputs": [
        {
          "internalType": "bytes4",
          "name": "interfaceId",
          "type": "bytes4"
        }
      ],
      "name": "supportsInterface",
      "outputs": [
        {
          "internalType": "bool",
          "name": "",
          "type": "bool"
        }
      ],
      "stateMutability": "view",
      "type": "function"
    },
    {
      "inputs": [],
      "name": "symbol",
      "outputs": [
        {
          "internalType": "string",
          "name": "",
          "type": "string"
        }
      ],
      "stateMutability": "view",
      "type": "function"
    },
    {
      "inputs": [
        {
          "internalType": "uint256",
          "name": "index",
          "type": "uint256"
        }
      ],
      "name": "tokenByIndex",
      "outputs": [
        {
          "internalType": "uint256",
          "name": "",
          "type": "uint256"
        }
      ],
      "stateMutability": "view",
      "type": "function"
    },
    {
      "inputs": [
        {
          "internalType": "address",
          "name": "owner",
          "type": "address"
        },
        {
          "internalType": "uint256",
          "name": "index",
          "type": "uint256"
        }
      ],
      "name": "tokenOfOwnerByIndex",
      "outputs": [
        {
          "internalType": "uint256",
          "name": "",
          "type": "uint256"
        }
      ],
      "stateMutability": "view",
      "type": "function"
    },
    {
      "inputs": [
        {
          "internalType": "uint256",
          "name": "tokenId",
          "type": "uint256"
        }
      ],
      "name": "tokenURI",
      "outputs": [
        {
          "internalType": "string",
          "name": "",
          "type": "string"
        }
      ],
      "stateMutability": "view",
      "type": "function"
    },
    {
      "inputs": [],
      "name": "totalSupply",
      "outputs": [
        {
          "internalType": "uint256",
          "name": "",
          "type": "uint256"
        }
      ],
      "stateMutability": "view",
      "type": "function"
    },
    {
      "inputs": [
        {
          "internalType": "address",
          "name": "from",
          "type": "address"
        },
        {
          "internalType": "address",
          "name": "to",
          "type": "address"
        },
        {
          "internalType": "uint256",
          "name": "tokenId",
          "type": "uint256"
        }
      ],
      "name": "transferFrom",
      "outputs": [],
      "stateMutability": "nonpayable",
      "type": "function"
    },
    {
      "inputs": [
        {
          "internalType": "address",
          "name": "newOwner",
          "type": "address"
        }
      ],
      "name": "transferOwnership",
      "outputs": [],
      "stateMutability": "nonpayable",
      "type": "function"
    },
    {
      "inputs": [
        {
          "internalType": "uint256",
          "name": "tokenId",
          "type": "uint256"
        },
        {
          "internalType": "string",
          "name": "name",
          "type": "string"
        },
        {
          "components": [
            {
              "internalType": "address",
              "name": "addr",
              "type": "address"
            },
            {
              "internalType": "uint256",
              "name": "id",
              "type": "uint256"
            }
          ],
          "internalType": "struct Banners.Part[16]",
          "name": "parts",
          "type": "tuple[16]"
        },
        {
          "internalType": "bytes",
          "name": "data",
          "type": "bytes"
        }
      ],
      "name": "updateBanner",
      "outputs": [],
      "stateMutability": "nonpayable",
      "type": "function"
    },
    {
      "inputs": [
        {
          "internalType": "string",
          "name": "_uri",
          "type": "string"
        }
      ],
      "name": "updateURI",
      "outputs": [],
      "stateMutability": "nonpayable",
      "type": "function"
    }
  ],
  "bytecode": "0x60806040526000600d5534801561001557600080fd5b506040516136cb3803806136cb83398101604081905261003491610190565b8383600061004283826102b6565b50600161004f82826102b6565b50505061006861006361008160201b60201c565b610085565b600c61007483826102b6565b50600e5550610374915050565b3390565b600a80546001600160a01b038381166001600160a01b0319831681179093556040519116919082907f8be0079c531659141344cd1fd0a4f28419497f9722a3daafe3b4186f6b6457e090600090a35050565b634e487b7160e01b600052604160045260246000fd5b600082601f8301126100fe57600080fd5b81516001600160401b03811115610117576101176100d7565b604051601f8201601f19908116603f011681016001600160401b0381118282101715610145576101456100d7565b60405281815283820160200185101561015d57600080fd5b60005b8281101561017c57602081860181015183830182015201610160565b506000918101602001919091529392505050565b600080600080608085870312156101a657600080fd5b84516001600160401b038111156101bc57600080fd5b6101c8878288016100ed565b602087015190955090506001600160401b038111156101e657600080fd5b6101f2878288016100ed565b604087015190945090506001600160401b0381111561021057600080fd5b61021c878288016100ed565b606096909601519497939650505050565b600181811c9082168061024157607f821691505b60208210810361026157634e487b7160e01b600052602260045260246000fd5b50919050565b601f8211156102b157806000526020600020601f840160051c8101602085101561028e5750805b601f840160051c820191505b818110156102ae576000815560010161029a565b50505b505050565b81516001600160401b038111156102cf576102cf6100d7565b6102e3816102dd845461022d565b84610267565b6020601f82116001811461031757600083156102ff5750848201515b600019600385901b1c1916600184901b1784556102ae565b600084815260208120601f198516915b828110156103475787850151825560209485019460019092019101610327565b50848210156103655786840151600019600387901b60f8161c191681555b50505050600190811b01905550565b613348806103836000396000f3fe608060405234801561001057600080fd5b50600436106101e65760003560e01c806389c74e9e1161010a578063bc197c81116100ad578063e985e9c51161007c578063e985e9c514610481578063edc7e76214610494578063f23a6e61146104b4578063f2fde38b146104d4578063f84ddf0b146104e757600080fd5b8063bc197c81146103fe578063be0c5c6314610439578063c30f4a5a1461045b578063c87b56dd1461046e57600080fd5b806389c74e9e1461035857806389d5feee146103795780638da5cb5b1461039957806395d89b41146103aa578063a22cb465146103b2578063a6a53009146103c5578063b64a1097146103d8578063b88d4fde146103eb57600080fd5b806342842e0e1161018d5780636352211e1161015c5780636352211e1461030f5780636c0360eb1461032257806370a082311461032a578063715018a61461033d578063786cb5351461034557600080fd5b806342842e0e146102c05780634b4e5cac146102d35780634f6ccce7146102dc5780635274b892146102ef57600080fd5b806301ffc9a7146101eb57806306fdde0314610213578063081812fc14610228578063095ea7b31461025357806318160ddd1461026857806323b872dd1461027a5780632f745c591461028d5780633bc2e726146102a0575b600080fd5b6101fe6101f9366004612534565b6104f0565b60405190151581526020015b60405180910390f35b61021b610510565b60405161020a91906125a1565b61023b6102363660046125b4565b6105a2565b6040516001600160a01b03909116815260200161020a565b6102666102613660046125e9565b6105c9565b005b6008545b60405190815260200161020a565b610266610288366004612613565b6106e3565b61026c61029b3660046125e9565b610714565b61026c6102ae366004612650565b600f6020526000908152604090205481565b6102666102ce366004612613565b6107aa565b61026c600e5481565b61026c6102ea3660046125b4565b6107c5565b61026c6102fd366004612650565b60106020526000908152604090205481565b61023b61031d3660046125b4565b610858565b61021b61088d565b61026c610338366004612650565b61091b565b6102666109a1565b6102666103533660046125e9565b6109b5565b61036b6103663660046125b4565b6109d9565b60405161020a92919061266b565b61038c610387366004612650565b610b05565b60405161020a9190612699565b600a546001600160a01b031661023b565b61021b610b99565b6102666103c03660046126dc565b610ba8565b6102666103d33660046128e5565b610bb7565b6102666103e6366004612970565b6110ee565b6102666103f93660046129f1565b611215565b61042061040c366004612a84565b63bc197c8160e01b98975050505050505050565b6040516001600160e01b0319909116815260200161020a565b61044c6104473660046125b4565b61124d565b60405161020a93929190612b80565b610266610469366004612bbf565b6113f7565b61021b61047c3660046125b4565b61140b565b6101fe61048f366004612c07565b611472565b6104a76104a2366004612c3a565b6114a0565b60405161020a9190612ce9565b6104206104c2366004612d8b565b63f23a6e6160e01b9695505050505050565b6102666104e2366004612650565b6116ed565b61026c600d5481565b60006104fb82611766565b8061050a575061050a8261178b565b92915050565b60606000805461051f90612e02565b80601f016020809104026020016040519081016040528092919081815260200182805461054b90612e02565b80156105985780601f1061056d57610100808354040283529160200191610598565b820191906000526020600020905b81548152906001019060200180831161057b57829003601f168201915b5050505050905090565b60006105ad826117b0565b506000908152600460205260409020546001600160a01b031690565b60006105d482610858565b9050806001600160a01b0316836001600160a01b0316036106465760405162461bcd60e51b815260206004820152602160248201527f4552433732313a20617070726f76616c20746f2063757272656e74206f776e656044820152603960f91b60648201526084015b60405180910390fd5b336001600160a01b038216148061066257506106628133611472565b6106d45760405162461bcd60e51b815260206004820152603d60248201527f4552433732313a20617070726f76652063616c6c6572206973206e6f7420746f60448201527f6b656e206f776e6572206f7220617070726f76656420666f7220616c6c000000606482015260840161063d565b6106de83836117d5565b505050565b6106ed3382611843565b6107095760405162461bcd60e51b815260040161063d90612e36565b6106de8383836118a2565b600061071f8361091b565b82106107815760405162461bcd60e51b815260206004820152602b60248201527f455243373231456e756d657261626c653a206f776e657220696e646578206f7560448201526a74206f6620626f756e647360a81b606482015260840161063d565b506001600160a01b03919091166000908152600660209081526040808320938352929052205490565b6106de83838360405180602001604052806000815250611215565b60006107d060085490565b82106108335760405162461bcd60e51b815260206004820152602c60248201527f455243373231456e756d657261626c653a20676c6f62616c20696e646578206f60448201526b7574206f6620626f756e647360a01b606482015260840161063d565b6008828154811061084657610846612e83565b90600052602060002001549050919050565b6000818152600260205260408120546001600160a01b03168061050a5760405162461bcd60e51b815260040161063d90612e99565b600c805461089a90612e02565b80601f01602080910402602001604051908101604052809291908181526020018280546108c690612e02565b80156109135780601f106108e857610100808354040283529160200191610913565b820191906000526020600020905b8154815290600101906020018083116108f657829003601f168201915b505050505081565b60006001600160a01b0382166109855760405162461bcd60e51b815260206004820152602960248201527f4552433732313a2061646472657373207a65726f206973206e6f7420612076616044820152683634b21037bbb732b960b91b606482015260840161063d565b506001600160a01b031660009081526003602052604090205490565b6109a9611a13565b6109b36000611a6d565b565b6109bd611a13565b6001600160a01b03909116600090815260106020526040902055565b600b602052600090815260409020805481906109f490612e02565b80601f0160208091040260200160405190810160405280929190818152602001828054610a2090612e02565b8015610a6d5780601f10610a4257610100808354040283529160200191610a6d565b820191906000526020600020905b815481529060010190602001808311610a5057829003601f168201915b505050505090806021018054610a8290612e02565b80601f0160208091040260200160405190810160405280929190818152602001828054610aae90612e02565b8015610afb5780601f10610ad057610100808354040283529160200191610afb565b820191906000526020600020905b815481529060010190602001808311610ade57829003601f168201915b5050505050905082565b60606000610b128361091b565b9050806001600160401b03811115610b2c57610b2c612760565b604051908082528060200260200182016040528015610b55578160200160208202803683370190505b50915060005b81811015610b9257610b6d8482610714565b838281518110610b7f57610b7f612e83565b6020908102919091010152600101610b5b565b5050919050565b60606001805461051f90612e02565b610bb3338383611abf565b5050565b610bc085610858565b6001600160a01b0316336001600160a01b031614610bf05760405162559caf60e91b815260040160405180910390fd5b60005b6010811015611071576000868152600b602052604090206001018160108110610c1e57610c1e612e83565b60020201546001600160a01b0316838260108110610c3e57610c3e612e83565b6020020151516001600160a01b0316148015610c9c57506000868152600b602052604090206001018160108110610c7757610c77612e83565b6002020160010154838260108110610c9157610c91612e83565b602002015160200151145b611069576000838260108110610cb457610cb4612e83565b6020020151516001600160a01b031614610e2057828160108110610cda57610cda612e83565b6020020151516001600160a01b031663f242432a3330868560108110610d0257610d02612e83565b60200201516020015160016040518563ffffffff1660e01b8152600401610d2c9493929190612ecb565b600060405180830381600087803b158015610d4657600080fd5b505af1925050508015610d57575060015b610e20573d808015610d85576040519150601f19603f3d011682016040523d82523d6000602084013e610d8a565b606091505b50838260108110610d9d57610d9d612e83565b6020020151516001600160a01b03166342842e0e3330878660108110610dc557610dc5612e83565b6020020151602001516040518463ffffffff1660e01b8152600401610dec93929190612f0e565b600060405180830381600087803b158015610e0657600080fd5b505af1158015610e1a573d6000803e3d6000fd5b50505050505b6000868152600b602052604081206001018260108110610e4257610e42612e83565b60020201546001600160a01b031614610ff5576000868152600b602052604090206001018160108110610e7757610e77612e83565b60020201546000878152600b602052604090206001600160a01b039091169063f242432a90309033906001018560108110610eb457610eb4612e83565b600202016001015460016040518563ffffffff1660e01b8152600401610edd9493929190612ecb565b600060405180830381600087803b158015610ef757600080fd5b505af1925050508015610f08575060015b610ff5573d808015610f36576040519150601f19603f3d011682016040523d82523d6000602084013e610f3b565b606091505b506000878152600b602052604090206001018260108110610f5e57610f5e612e83565b60020201546000888152600b602052604090206001600160a01b03909116906342842e0e90309033906001018660108110610f9b57610f9b612e83565b60020201600101546040518463ffffffff1660e01b8152600401610fc193929190612f0e565b600060405180830381600087803b158015610fdb57600080fd5b505af1158015610fef573d6000803e3d6000fd5b50505050505b82816010811061100757611007612e83565b6020020151600b6000888152602001908152602001600020600101826010811061103357611033612e83565b82516002919091029190910180546001600160a01b0319166001600160a01b039092169190911781556020909101516001909101555b600101610bf3565b506000858152600b6020526040902061108b848683612f79565b506000858152600b602052604090206021016110a78282613038565b507fc5af4baabe0b43f9c9e905f83dd1191768ee8fd60b73a30fc23fceedce7eb39685858585856040516110df9594939291906130f6565b60405180910390a15050505050565b3360009081526010602052604081205490811561110b578161110f565b600e545b336000908152600f602052604090205490915081811061114257604051636ea5241d60e01b815260040160405180910390fd5b600d805490600061115283613170565b9091555050600d546000908152600b60205260409020611173878983612f79565b50600d546000908152600b602052604090206021016111928582613038565b5061119f600d5486611b89565b6111ac33600d5486611d91565b6111b7816001613189565b336000908152600f60205260409081902091909155600d5490517f1165ee153be167f0f334897324f2a433c03db8c7b736e9bfa08df0c866f1fb1091611204918a908a908a908a906130f6565b60405180910390a150505050505050565b61121f3383611843565b61123b5760405162461bcd60e51b815260040161063d90612e36565b61124784848484611dc4565b50505050565b60606112576124bd565b6000838152600b6020526040902080546060919060018201906021830190839061128090612e02565b80601f01602080910402602001604051908101604052809291908181526020018280546112ac90612e02565b80156112f95780601f106112ce576101008083540402835291602001916112f9565b820191906000526020600020905b8154815290600101906020018083116112dc57829003601f168201915b50506040805161020081019091529396508592506010915060009050835b82821015611358576040805180820190915260028302850180546001600160a01b031682526001908101546020808401919091529183529092019101611317565b50505050915080805461136a90612e02565b80601f016020809104026020016040519081016040528092919081815260200182805461139690612e02565b80156113e35780601f106113b8576101008083540402835291602001916113e3565b820191906000526020600020905b8154815290600101906020018083116113c657829003601f168201915b505050505090509250925092509193909250565b6113ff611a13565b600c610bb38282613038565b6060611416826117b0565b6000611420611df7565b90506000815111611440576040518060200160405280600081525061146b565b8061144a84611e06565b60405160200161145b92919061319c565b6040516020818303038152906040525b9392505050565b6001600160a01b03918216600090815260056020908152604080832093909416825291909152205460ff1690565b606081516001600160401b038111156114bb576114bb612760565b6040519080825280602002602001820160405280156114f457816020015b6114e16124f7565b8152602001906001900390816114d95790505b50905060005b82518110156116e757600b600084838151811061151957611519612e83565b6020026020010151815260200190815260200160002060405180606001604052908160008201805461154a90612e02565b80601f016020809104026020016040519081016040528092919081815260200182805461157690612e02565b80156115c35780601f10611598576101008083540402835291602001916115c3565b820191906000526020600020905b8154815290600101906020018083116115a657829003601f168201915b50505091835250506040805161020081019091526020909101906001830160106000835b82821015611628576040805180820190915260028302850180546001600160a01b0316825260019081015460208084019190915291835290920191016115e7565b50505050815260200160218201805461164090612e02565b80601f016020809104026020016040519081016040528092919081815260200182805461166c90612e02565b80156116b95780601f1061168e576101008083540402835291602001916116b9565b820191906000526020600020905b81548152906001019060200180831161169c57829003601f168201915b5050505050815250508282815181106116d4576116d4612e83565b60209081029190910101526001016114fa565b50919050565b6116f5611a13565b6001600160a01b03811661175a5760405162461bcd60e51b815260206004820152602660248201527f4f776e61626c653a206e6577206f776e657220697320746865207a65726f206160448201526564647265737360d01b606482015260840161063d565b61176381611a6d565b50565b60006001600160e01b0319821663780e9d6360e01b148061050a575061050a82611e98565b60006001600160e01b03198216630271189760e51b148061050a575061050a82611766565b6117b981611ee8565b6117635760405162461bcd60e51b815260040161063d90612e99565b600081815260046020526040902080546001600160a01b0319166001600160a01b038416908117909155819061180a82610858565b6001600160a01b03167f8c5be1e5ebec7d5bd14f71427d1e84f3dd0314c0f7b2291e5b200ac8c7c3b92560405160405180910390a45050565b60008061184f83610858565b9050806001600160a01b0316846001600160a01b0316148061187657506118768185611472565b8061189a5750836001600160a01b031661188f846105a2565b6001600160a01b0316145b949350505050565b826001600160a01b03166118b582610858565b6001600160a01b0316146118db5760405162461bcd60e51b815260040161063d906131cb565b6001600160a01b03821661193d5760405162461bcd60e51b8152602060048201526024808201527f4552433732313a207472616e7366657220746f20746865207a65726f206164646044820152637265737360e01b606482015260840161063d565b61194a8383836001611f05565b826001600160a01b031661195d82610858565b6001600160a01b0316146119835760405162461bcd60e51b815260040161063d906131cb565b600081815260046020908152604080832080546001600160a01b03199081169091556001600160a01b0387811680865260038552838620805460001901905590871680865283862080546001019055868652600290945282852080549092168417909155905184937fddf252ad1be2c89b69c2b068fc378daa952ba7f163c4a11628f55a4df523b3ef91a4505050565b600a546001600160a01b031633146109b35760405162461bcd60e51b815260206004820181905260248201527f4f776e61626c653a2063616c6c6572206973206e6f7420746865206f776e6572604482015260640161063d565b600a80546001600160a01b038381166001600160a01b0319831681179093556040519116919082907f8be0079c531659141344cd1fd0a4f28419497f9722a3daafe3b4186f6b6457e090600090a35050565b816001600160a01b0316836001600160a01b031603611b1c5760405162461bcd60e51b815260206004820152601960248201527822a9219b99189d1030b8383937bb32903a379031b0b63632b960391b604482015260640161063d565b6001600160a01b03838116600081815260056020908152604080832094871680845294825291829020805460ff191686151590811790915591519182527f17307eab39ab6107e8899845ad3d59bd9653f200f220920489ca2b5937696c31910160405180910390a3505050565b60005b60108110156106de576000828260108110611ba957611ba9612e83565b6020020151516001600160a01b031614611d8957818160108110611bcf57611bcf612e83565b6020020151516001600160a01b031663f242432a3330858560108110611bf757611bf7612e83565b60200201516020015160016040518563ffffffff1660e01b8152600401611c219493929190612ecb565b600060405180830381600087803b158015611c3b57600080fd5b505af1925050508015611c4c575060015b611d15573d808015611c7a576040519150601f19603f3d011682016040523d82523d6000602084013e611c7f565b606091505b50828260108110611c9257611c92612e83565b6020020151516001600160a01b03166342842e0e3330868660108110611cba57611cba612e83565b6020020151602001516040518463ffffffff1660e01b8152600401611ce193929190612f0e565b600060405180830381600087803b158015611cfb57600080fd5b505af1158015611d0f573d6000803e3d6000fd5b50505050505b818160108110611d2757611d27612e83565b6020020151600b60008581526020019081526020016000206001018260108110611d5357611d53612e83565b82516002919091029190910180546001600160a01b0319166001600160a01b039092169190911781556020909101516001909101555b600101611b8c565b611d9b8383612039565b611da86000848484612154565b6106de5760405162461bcd60e51b815260040161063d90613210565b611dcf8484846118a2565b611ddb84848484612154565b6112475760405162461bcd60e51b815260040161063d90613210565b6060600c805461051f90612e02565b60606000611e1383612255565b60010190506000816001600160401b03811115611e3257611e32612760565b6040519080825280601f01601f191660200182016040528015611e5c576020820181803683370190505b5090508181016020015b600019016f181899199a1a9b1b9c1cb0b131b232b360811b600a86061a8153600a8504945084611e6657509392505050565b60006001600160e01b031982166380ac58cd60e01b1480611ec957506001600160e01b03198216635b5e139f60e01b145b8061050a57506301ffc9a760e01b6001600160e01b031983161461050a565b6000908152600260205260409020546001600160a01b0316151590565b6001811115611f745760405162461bcd60e51b815260206004820152603560248201527f455243373231456e756d657261626c653a20636f6e7365637574697665207472604482015274185b9cd9995c9cc81b9bdd081cdd5c1c1bdc9d1959605a1b606482015260840161063d565b816001600160a01b038516611fd057611fcb81600880546000838152600960205260408120829055600182018355919091527ff3f7a9fe364faab93b216da50a3214154f22a0a2b415b23a84c8169e8b636ee30155565b611ff3565b836001600160a01b0316856001600160a01b031614611ff357611ff3858261232d565b6001600160a01b03841661200f5761200a816123ca565b612032565b846001600160a01b0316846001600160a01b031614612032576120328482612479565b5050505050565b6001600160a01b03821661208f5760405162461bcd60e51b815260206004820181905260248201527f4552433732313a206d696e7420746f20746865207a65726f2061646472657373604482015260640161063d565b61209881611ee8565b156120b55760405162461bcd60e51b815260040161063d90613262565b6120c3600083836001611f05565b6120cc81611ee8565b156120e95760405162461bcd60e51b815260040161063d90613262565b6001600160a01b038216600081815260036020908152604080832080546001019055848352600290915280822080546001600160a01b0319168417905551839291907fddf252ad1be2c89b69c2b068fc378daa952ba7f163c4a11628f55a4df523b3ef908290a45050565b60006001600160a01b0384163b1561224a57604051630a85bd0160e11b81526001600160a01b0385169063150b7a0290612198903390899088908890600401613299565b6020604051808303816000875af19250505080156121d3575060408051601f3d908101601f191682019092526121d0918101906132cc565b60015b612230573d808015612201576040519150601f19603f3d011682016040523d82523d6000602084013e612206565b606091505b5080516000036122285760405162461bcd60e51b815260040161063d90613210565b805181602001fd5b6001600160e01b031916630a85bd0160e11b14905061189a565b506001949350505050565b60008072184f03e93ff9f4daa797ed6e38ed64bf6a1f0160401b83106122945772184f03e93ff9f4daa797ed6e38ed64bf6a1f0160401b830492506040015b6d04ee2d6d415b85acef810000000083106122c0576d04ee2d6d415b85acef8100000000830492506020015b662386f26fc1000083106122de57662386f26fc10000830492506010015b6305f5e10083106122f6576305f5e100830492506008015b612710831061230a57612710830492506004015b6064831061231c576064830492506002015b600a831061050a5760010192915050565b6000600161233a8461091b565b61234491906132e9565b600083815260076020526040902054909150808214612397576001600160a01b03841660009081526006602090815260408083208584528252808320548484528184208190558352600790915290208190555b5060009182526007602090815260408084208490556001600160a01b039094168352600681528383209183525290812055565b6008546000906123dc906001906132e9565b6000838152600960205260408120546008805493945090928490811061240457612404612e83565b90600052602060002001549050806008838154811061242557612425612e83565b600091825260208083209091019290925582815260099091526040808220849055858252812055600880548061245d5761245d6132fc565b6001900381819060005260206000200160009055905550505050565b60006124848361091b565b6001600160a01b039093166000908152600660209081526040808320868452825280832085905593825260079052919091209190915550565b6040518061020001604052806010905b60408051808201909152600080825260208201528152602001906001900390816124cd5790505090565b6040518060600160405280606081526020016125116124bd565b8152602001606081525090565b6001600160e01b03198116811461176357600080fd5b60006020828403121561254657600080fd5b813561146b8161251e565b60005b8381101561256c578181015183820152602001612554565b50506000910152565b6000815180845261258d816020860160208601612551565b601f01601f19169290920160200192915050565b60208152600061146b6020830184612575565b6000602082840312156125c657600080fd5b5035919050565b80356001600160a01b03811681146125e457600080fd5b919050565b600080604083850312156125fc57600080fd5b612605836125cd565b946020939093013593505050565b60008060006060848603121561262857600080fd5b612631846125cd565b925061263f602085016125cd565b929592945050506040919091013590565b60006020828403121561266257600080fd5b61146b826125cd565b60408152600061267e6040830185612575565b82810360208401526126908185612575565b95945050505050565b602080825282518282018190526000918401906040840190835b818110156126d15783518352602093840193909201916001016126b3565b509095945050505050565b600080604083850312156126ef57600080fd5b6126f8836125cd565b91506020830135801515811461270d57600080fd5b809150509250929050565b60008083601f84011261272a57600080fd5b5081356001600160401b0381111561274157600080fd5b60208301915083602082850101111561275957600080fd5b9250929050565b634e487b7160e01b600052604160045260246000fd5b604080519081016001600160401b038111828210171561279857612798612760565b60405290565b604051601f8201601f191681016001600160401b03811182821017156127c6576127c6612760565b604052919050565b600082601f8301126127df57600080fd5b60405161020081016001600160401b038111828210171561280257612802612760565b6040528061040084018581111561281857600080fd5b845b8181101561285f576040818803121561283257600080fd5b61283a612776565b612843826125cd565b815260208281013581830152908452929092019160400161281a565b509195945050505050565b6000806001600160401b0384111561288457612884612760565b50601f8301601f19166020016128998161279e565b9150508281528383830111156128ae57600080fd5b828260208301376000602084830101529392505050565b600082601f8301126128d657600080fd5b61146b8383356020850161286a565b600080600080600061046086880312156128fe57600080fd5b8535945060208601356001600160401b0381111561291b57600080fd5b61292788828901612718565b909550935061293b905087604088016127ce565b91506104408601356001600160401b0381111561295757600080fd5b612963888289016128c5565b9150509295509295909350565b600080600080610440858703121561298757600080fd5b84356001600160401b0381111561299d57600080fd5b6129a987828801612718565b90955093506129bd905086602087016127ce565b91506104208501356001600160401b038111156129d957600080fd5b6129e5878288016128c5565b91505092959194509250565b60008060008060808587031215612a0757600080fd5b612a10856125cd565b9350612a1e602086016125cd565b92506040850135915060608501356001600160401b038111156129d957600080fd5b60008083601f840112612a5257600080fd5b5081356001600160401b03811115612a6957600080fd5b6020830191508360208260051b850101111561275957600080fd5b60008060008060008060008060a0898b031215612aa057600080fd5b612aa9896125cd565b9750612ab760208a016125cd565b965060408901356001600160401b03811115612ad257600080fd5b612ade8b828c01612a40565b90975095505060608901356001600160401b03811115612afd57600080fd5b612b098b828c01612a40565b90955093505060808901356001600160401b03811115612b2857600080fd5b612b348b828c01612718565b999c989b5096995094979396929594505050565b8060005b601081101561124757815180516001600160a01b031685526020908101518186015260409094019390910190600101612b4c565b61044081526000612b95610440830186612575565b612ba26020840186612b48565b828103610420840152612bb58185612575565b9695505050505050565b600060208284031215612bd157600080fd5b81356001600160401b03811115612be757600080fd5b8201601f81018413612bf857600080fd5b61189a8482356020840161286a565b60008060408385031215612c1a57600080fd5b612c23836125cd565b9150612c31602084016125cd565b90509250929050565b600060208284031215612c4c57600080fd5b81356001600160401b03811115612c6257600080fd5b8201601f81018413612c7357600080fd5b80356001600160401b03811115612c8c57612c8c612760565b8060051b612c9c6020820161279e565b91825260208184018101929081019087841115612cb857600080fd5b6020850194505b83851015612cde57843580835260209586019590935090910190612cbf565b979650505050505050565b6000602082016020835280845180835260408501915060408160051b86010192506020860160005b82811015612d7f57603f19878603018452815180516104408752612d39610440880182612575565b90506020820151612d4d6020890182612b48565b5060408201519150868103610420880152612d688183612575565b965050506020938401939190910190600101612d11565b50929695505050505050565b60008060008060008060a08789031215612da457600080fd5b612dad876125cd565b9550612dbb602088016125cd565b9450604087013593506060870135925060808701356001600160401b03811115612de457600080fd5b612df089828a01612718565b979a9699509497509295939492505050565b600181811c90821680612e1657607f821691505b6020821081036116e757634e487b7160e01b600052602260045260246000fd5b6020808252602d908201527f4552433732313a2063616c6c6572206973206e6f7420746f6b656e206f776e6560408201526c1c881bdc88185c1c1c9bdd9959609a1b606082015260800190565b634e487b7160e01b600052603260045260246000fd5b602080825260189082015277115490cdcc8c4e881a5b9d985b1a59081d1bdad95b88125160421b604082015260600190565b6001600160a01b0394851681529290931660208301526040820152606081019190915260a06080820181905260029082015261060f60f31b60c082015260e00190565b6001600160a01b039384168152919092166020820152604081019190915260600190565b601f8211156106de57806000526020600020601f840160051c81016020851015612f595750805b601f840160051c820191505b818110156120325760008155600101612f65565b6001600160401b03831115612f9057612f90612760565b612fa483612f9e8354612e02565b83612f32565b6000601f841160018114612fd85760008515612fc05750838201355b600019600387901b1c1916600186901b178355612032565b600083815260209020601f19861690835b828110156130095786850135825560209485019460019092019101612fe9565b50868210156130265760001960f88860031b161c19848701351681555b505060018560011b0183555050505050565b81516001600160401b0381111561305157613051612760565b6130658161305f8454612e02565b84612f32565b6020601f82116001811461309957600083156130815750848201515b600019600385901b1c1916600184901b178455612032565b600084815260208120601f198516915b828110156130c957878501518255602094850194600190920191016130a9565b50848210156130e75786840151600019600387901b60f8161c191681555b50505050600190811b01905550565b8581526104606020820152836104608201528385610480830137600061048085830101526000601f19601f86011682016131336040840186612b48565b6104808382030161044084015261314e610480820185612575565b98975050505050505050565b634e487b7160e01b600052601160045260246000fd5b6000600182016131825761318261315a565b5060010190565b8082018082111561050a5761050a61315a565b600083516131ae818460208801612551565b8351908301906131c2818360208801612551565b01949350505050565b60208082526025908201527f4552433732313a207472616e736665722066726f6d20696e636f72726563742060408201526437bbb732b960d91b606082015260800190565b60208082526032908201527f4552433732313a207472616e7366657220746f206e6f6e20455243373231526560408201527131b2b4bb32b91034b6b83632b6b2b73a32b960711b606082015260800190565b6020808252601c908201527f4552433732313a20746f6b656e20616c7265616479206d696e74656400000000604082015260600190565b6001600160a01b0385811682528416602082015260408101839052608060608201819052600090612bb590830184612575565b6000602082840312156132de57600080fd5b815161146b8161251e565b8181038181111561050a5761050a61315a565b634e487b7160e01b600052603160045260246000fdfea2646970667358221220fee8da33ee6a8c01272d4923429cd4e955930a17a9dc7fd276875aafbfeb9c5164736f6c634300081a0033",
  "linkReferences": {},
  "deployedLinkReferences": {}
}