{
  "_format": "hh-sol-artifact-1",
  "contractName": "BannerParts",
  "sourceName": "contracts/banners/BannerParts.sol",
  "abi": [
    {
      "inputs": [
        {
          "internalType": "string",
          "name": "_name",
          "type": "string"
        },
        {
          "internalType": "string",
          "name": "_symbol",
          "type": "string"
        },
        {
          "internalType": "string",
          "name": "uri_",
          "type": "string"
        }
      ],
      "stateMutability": "nonpayable",
      "type": "constructor"
    },
    {
      "inputs": [],
      "name": "UnableToQueryBalanceOfZeroAddress",
      "type": "error"
    },
    {
      "anonymous": false,
      "inputs": [
        {
          "indexed": true,
          "internalType": "address",
          "name": "account",
          "type": "address"
        },
        {
          "indexed": true,
          "internalType": "address",
          "name": "operator",
          "type": "address"
        },
        {
          "indexed": false,
          "internalType": "bool",
          "name": "approved",
          "type": "bool"
        }
      ],
      "name": "ApprovalForAll",
      "type": "event"
    },
    {
      "anonymous": false,
      "inputs": [
        {
          "indexed": true,
          "internalType": "address",
          "name": "previousOwner",
          "type": "address"
        },
        {
          "indexed": true,
          "internalType": "address",
          "name": "newOwner",
          "type": "address"
        }
      ],
      "name": "OwnershipTransferred",
      "type": "event"
    },
    {
      "anonymous": false,
      "inputs": [
        {
          "indexed": true,
          "internalType": "address",
          "name": "operator",
          "type": "address"
        },
        {
          "indexed": true,
          "internalType": "address",
          "name": "from",
          "type": "address"
        },
        {
          "indexed": true,
          "internalType": "address",
          "name": "to",
          "type": "address"
        },
        {
          "indexed": false,
          "internalType": "uint256[]",
          "name": "ids",
          "type": "uint256[]"
        },
        {
          "indexed": false,
          "internalType": "uint256[]",
          "name": "values",
          "type": "uint256[]"
        }
      ],
      "name": "TransferBatch",
      "type": "event"
    },
    {
      "anonymous": false,
      "inputs": [
        {
          "indexed": true,
          "internalType": "address",
          "name": "operator",
          "type": "address"
        },
        {
          "indexed": true,
          "internalType": "address",
          "name": "from",
          "type": "address"
        },
        {
          "indexed": true,
          "internalType": "address",
          "name": "to",
          "type": "address"
        },
        {
          "indexed": false,
          "internalType": "uint256",
          "name": "id",
          "type": "uint256"
        },
        {
          "indexed": false,
          "internalType": "uint256",
          "name": "value",
          "type": "uint256"
        }
      ],
      "name": "TransferSingle",
      "type": "event"
    },
    {
      "anonymous": false,
      "inputs": [
        {
          "indexed": false,
          "internalType": "string",
          "name": "value",
          "type": "string"
        },
        {
          "indexed": true,
          "internalType": "uint256",
          "name": "id",
          "type": "uint256"
        }
      ],
      "name": "URI",
      "type": "event"
    },
    {
      "inputs": [
        {
          "internalType": "address",
          "name": "account",
          "type": "address"
        },
        {
          "internalType": "uint256",
          "name": "id",
          "type": "uint256"
        }
      ],
      "name": "balanceOf",
      "outputs": [
        {
          "internalType": "uint256",
          "name": "",
          "type": "uint256"
        }
      ],
      "stateMutability": "view",
      "type": "function"
    },
    {
      "inputs": [
        {
          "internalType": "address[]",
          "name": "accounts",
          "type": "address[]"
        },
        {
          "internalType": "uint256[]",
          "name": "ids",
          "type": "uint256[]"
        }
      ],
      "name": "balanceOfBatch",
      "outputs": [
        {
          "internalType": "uint256[]",
          "name": "",
          "type": "uint256[]"
        }
      ],
      "stateMutability": "view",
      "type": "function"
    },
    {
      "inputs": [
        {
          "internalType": "address",
          "name": "from",
          "type": "address"
        },
        {
          "internalType": "uint256",
          "name": "id",
          "type": "uint256"
        },
        {
          "internalType": "uint256",
          "name": "amount",
          "type": "uint256"
        }
      ],
      "name": "burn",
      "outputs": [],
      "stateMutability": "nonpayable",
      "type": "function"
    },
    {
      "inputs": [
        {
          "internalType": "address",
          "name": "_owner",
          "type": "address"
        },
        {
          "internalType": "address",
          "name": "_operator",
          "type": "address"
        }
      ],
      "name": "isApprovedForAll",
      "outputs": [
        {
          "internalType": "bool",
          "name": "isOperator",
          "type": "bool"
        }
      ],
      "stateMutability": "view",
      "type": "function"
    },
    {
      "inputs": [
        {
          "internalType": "uint256",
          "name": "",
          "type": "uint256"
        }
      ],
      "name": "isFreePart",
      "outputs": [
        {
          "internalType": "bool",
          "name": "",
          "type": "bool"
        }
      ],
      "stateMutability": "view",
      "type": "function"
    },
    {
      "inputs": [
        {
          "internalType": "address",
          "name": "",
          "type": "address"
        }
      ],
      "name": "isSafeApprovedAddress",
      "outputs": [
        {
          "internalType": "bool",
          "name": "",
          "type": "bool"
        }
      ],
      "stateMutability": "view",
      "type": "function"
    },
    {
      "inputs": [
        {
          "internalType": "address",
          "name": "account",
          "type": "address"
        },
        {
          "internalType": "uint256",
          "name": "id",
          "type": "uint256"
        },
        {
          "internalType": "uint256",
          "name": "amount",
          "type": "uint256"
        },
        {
          "internalType": "bytes",
          "name": "data",
          "type": "bytes"
        }
      ],
      "name": "mint",
      "outputs": [],
      "stateMutability": "nonpayable",
      "type": "function"
    },
    {
      "inputs": [
        {
          "internalType": "address",
          "name": "to",
          "type": "address"
        },
        {
          "internalType": "uint256[]",
          "name": "ids",
          "type": "uint256[]"
        },
        {
          "internalType": "uint256[]",
          "name": "amounts",
          "type": "uint256[]"
        },
        {
          "internalType": "bytes",
          "name": "data",
          "type": "bytes"
        }
      ],
      "name": "mintBatch",
      "outputs": [],
      "stateMutability": "nonpayable",
      "type": "function"
    },
    {
      "inputs": [],
      "name": "name",
      "outputs": [
        {
          "internalType": "string",
          "name": "",
          "type": "string"
        }
      ],
      "stateMutability": "view",
      "type": "function"
    },
    {
      "inputs": [],
      "name": "owner",
      "outputs": [
        {
          "internalType": "address",
          "name": "",
          "type": "address"
        }
      ],
      "stateMutability": "view",
      "type": "function"
    },
    {
      "inputs": [],
      "name": "renounceOwnership",
      "outputs": [],
      "stateMutability": "nonpayable",
      "type": "function"
    },
    {
      "inputs": [
        {
          "internalType": "address",
          "name": "from",
          "type": "address"
        },
        {
          "internalType": "address",
          "name": "to",
          "type": "address"
        },
        {
          "internalType": "uint256[]",
          "name": "ids",
          "type": "uint256[]"
        },
        {
          "internalType": "uint256[]",
          "name": "amounts",
          "type": "uint256[]"
        },
        {
          "internalType": "bytes",
          "name": "data",
          "type": "bytes"
        }
      ],
      "name": "safeBatchTransferFrom",
      "outputs": [],
      "stateMutability": "nonpayable",
      "type": "function"
    },
    {
      "inputs": [
        {
          "internalType": "address",
          "name": "from",
          "type": "address"
        },
        {
          "internalType": "address",
          "name": "to",
          "type": "address"
        },
        {
          "internalType": "uint256",
          "name": "id",
          "type": "uint256"
        },
        {
          "internalType": "uint256",
          "name": "amount",
          "type": "uint256"
        },
        {
          "internalType": "bytes",
          "name": "data",
          "type": "bytes"
        }
      ],
      "name": "safeTransferFrom",
      "outputs": [],
      "stateMutability": "nonpayable",
      "type": "function"
    },
    {
      "inputs": [
        {
          "internalType": "address",
          "name": "operator",
          "type": "address"
        },
        {
          "internalType": "bool",
          "name": "approved",
          "type": "bool"
        }
      ],
      "name": "setApprovalForAll",
      "outputs": [],
      "stateMutability": "nonpayable",
      "type": "function"
    },
    {
      "inputs": [
        {
          "internalType": "uint256[]",
          "name": "ids",
          "type": "uint256[]"
        },
        {
          "internalType": "bool[]",
          "name": "statuses",
          "type": "bool[]"
        }
      ],
      "name": "setFreeParts",
      "outputs": [],
      "stateMutability": "nonpayable",
      "type": "function"
    },
    {
      "inputs": [
        {
          "internalType": "address",
          "name": "_address",
          "type": "address"
        },
        {
          "internalType": "bool",
          "name": "_status",
          "type": "bool"
        }
      ],
      "name": "setSafeApprovedAddress",
      "outputs": [],
      "stateMutability": "nonpayable",
      "type": "function"
    },
    {
      "inputs": [
        {
          "internalType": "bytes4",
          "name": "interfaceId",
          "type": "bytes4"
        }
      ],
      "name": "supportsInterface",
      "outputs": [
        {
          "internalType": "bool",
          "name": "",
          "type": "bool"
        }
      ],
      "stateMutability": "view",
      "type": "function"
    },
    {
      "inputs": [],
      "name": "symbol",
      "outputs": [
        {
          "internalType": "string",
          "name": "",
          "type": "string"
        }
      ],
      "stateMutability": "view",
      "type": "function"
    },
    {
      "inputs": [
        {
          "internalType": "address",
          "name": "newOwner",
          "type": "address"
        }
      ],
      "name": "transferOwnership",
      "outputs": [],
      "stateMutability": "nonpayable",
      "type": "function"
    },
    {
      "inputs": [
        {
          "internalType": "string",
          "name": "uri_",
          "type": "string"
        }
      ],
      "name": "updateURI",
      "outputs": [],
      "stateMutability": "nonpayable",
      "type": "function"
    },
    {
      "inputs": [
        {
          "internalType": "uint256",
          "name": "",
          "type": "uint256"
        }
      ],
      "name": "uri",
      "outputs": [
        {
          "internalType": "string",
          "name": "",
          "type": "string"
        }
      ],
      "stateMutability": "view",
      "type": "function"
    }
  ],
  "bytecode": "0x608060405234801561001057600080fd5b5060405161253e38038061253e83398101604081905261002f91610180565b8061003981610065565b5061004333610075565b600461004f848261029e565b50600561005c838261029e565b5050505061035c565b6002610071828261029e565b5050565b600380546001600160a01b038381166001600160a01b0319831681179093556040519116919082907f8be0079c531659141344cd1fd0a4f28419497f9722a3daafe3b4186f6b6457e090600090a35050565b634e487b7160e01b600052604160045260246000fd5b600082601f8301126100ee57600080fd5b81516001600160401b03811115610107576101076100c7565b604051601f8201601f19908116603f011681016001600160401b0381118282101715610135576101356100c7565b60405281815283820160200185101561014d57600080fd5b60005b8281101561016c57602081860181015183830182015201610150565b506000918101602001919091529392505050565b60008060006060848603121561019557600080fd5b83516001600160401b038111156101ab57600080fd5b6101b7868287016100dd565b602086015190945090506001600160401b038111156101d557600080fd5b6101e1868287016100dd565b604086015190935090506001600160401b038111156101ff57600080fd5b61020b868287016100dd565b9150509250925092565b600181811c9082168061022957607f821691505b60208210810361024957634e487b7160e01b600052602260045260246000fd5b50919050565b601f82111561029957806000526020600020601f840160051c810160208510156102765750805b601f840160051c820191505b818110156102965760008155600101610282565b50505b505050565b81516001600160401b038111156102b7576102b76100c7565b6102cb816102c58454610215565b8461024f565b6020601f8211600181146102ff57600083156102e75750848201515b600019600385901b1c1916600184901b178455610296565b600084815260208120601f198516915b8281101561032f578785015182556020948501946001909201910161030f565b508482101561034d5786840151600019600387901b60f8161c191681555b50505050600190811b01905550565b6121d38061036b6000396000f3fe608060405234801561001057600080fd5b50600436106101365760003560e01c8063731133e9116100b8578063c30f4a5a1161007c578063c30f4a5a1461029e578063d4cea072146102b1578063e985e9c5146102c4578063f242432a146102d7578063f2fde38b146102ea578063f5298aca146102fd57600080fd5b8063731133e9146102325780638da5cb5b1461024557806395d89b4114610260578063a22cb46514610268578063af4c0e441461027b57600080fd5b80631f7fdffa116100ff5780631f7fdffa146101cf5780632eb2c2d6146101e45780634935413d146101f75780634e1273f41461020a578063715018a61461022a57600080fd5b8062fdd58e1461013b57806301ffc9a71461016157806306fdde03146101845780630e89341c146101995780631baa7cc4146101ac575b600080fd5b61014e6101493660046115ab565b610310565b6040519081526020015b60405180910390f35b61017461016f3660046115eb565b61036d565b6040519015158152602001610158565b61018c6103bd565b6040516101589190611655565b61018c6101a7366004611668565b61044b565b6101746101ba366004611668565b60066020526000908152604090205460ff1681565b6101e26101dd3660046117dc565b6104df565b005b6101e26101f236600461187e565b6106b0565b6101e261020536600461197c565b610705565b61021d6102183660046119eb565b610785565b6040516101589190611afa565b6101e26108a6565b6101e2610240366004611b0d565b6108ba565b6003546040516001600160a01b039091168152602001610158565b61018c6108ea565b6101e2610276366004611b65565b6108f7565b610174610289366004611b98565b60076020526000908152604090205460ff1681565b6101e26102ac366004611bb3565b610906565b6101e26102bf366004611b65565b61091a565b6101746102d2366004611c03565b61094d565b6101e26102e5366004611c2d565b6109a4565b6101e26102f8366004611b98565b6109c7565b6101e261030b366004611c85565b610a3d565b60006001600160a01b03831661033957604051631c7d8e7960e11b815260040160405180910390fd5b60008281526006602052604090205460ff161561035a5750620f4240610367565b6103648383610a6b565b90505b92915050565b60006001600160e01b03198216636cdb3d1360e11b148061039e57506001600160e01b031982166303a24d0760e21b145b8061036757506301ffc9a760e01b6001600160e01b0319831614610367565b600480546103ca90611cb8565b80601f01602080910402602001604051908101604052809291908181526020018280546103f690611cb8565b80156104435780601f1061041857610100808354040283529160200191610443565b820191906000526020600020905b81548152906001019060200180831161042657829003601f168201915b505050505081565b60606002805461045a90611cb8565b80601f016020809104026020016040519081016040528092919081815260200182805461048690611cb8565b80156104d35780601f106104a8576101008083540402835291602001916104d3565b820191906000526020600020905b8154815290600101906020018083116104b657829003601f168201915b50505050509050919050565b6104e7610afc565b6000805b8451811015610542576006600086838151811061050a5761050a611cf2565b60209081029190910181015182528101919091526040016000205460ff1661053a578161053681611d1e565b9250505b6001016104eb565b506000816001600160401b0381111561055d5761055d611681565b604051908082528060200260200182016040528015610586578160200160208202803683370190505b5090506000826001600160401b038111156105a3576105a3611681565b6040519080825280602002602001820160405280156105cc578160200160208202803683370190505b5090506000805b875181101561069957600660008983815181106105f2576105f2611cf2565b60209081029190910181015182528101919091526040016000205460ff166106915787818151811061062657610626611cf2565b602002602001015184838151811061064057610640611cf2565b60200260200101818152505086818151811061065e5761065e611cf2565b602002602001015183838151811061067857610678611cf2565b60209081029190910101528161068d81611d1e565b9250505b6001016105d3565b506106a688848488610b56565b5050505050505050565b6001600160a01b0385163314806106cc57506106cc853361094d565b6106f15760405162461bcd60e51b81526004016106e890611d37565b60405180910390fd5b6106fe8585858585610c96565b5050505050565b61070d610afc565b60005b838110156106fe5782828281811061072a5761072a611cf2565b905060200201602081019061073f9190611d85565b6006600087878581811061075557610755611cf2565b60209081029290920135835250810191909152604001600020805460ff1916911515919091179055600101610710565b606081518351146107ea5760405162461bcd60e51b815260206004820152602960248201527f455243313135353a206163636f756e747320616e6420696473206c656e677468604482015268040dad2e6dac2e8c6d60bb1b60648201526084016106e8565b600083516001600160401b0381111561080557610805611681565b60405190808252806020026020018201604052801561082e578160200160208202803683370190505b50905060005b845181101561089e5761087985828151811061085257610852611cf2565b602002602001015185838151811061086c5761086c611cf2565b6020026020010151610310565b82828151811061088b5761088b611cf2565b6020908102919091010152600101610834565b509392505050565b6108ae610afc565b6108b86000610e2b565b565b6108c2610afc565b60008381526006602052604090205460ff166108e4576108e484848484610e7d565b50505050565b600580546103ca90611cb8565b610902338383610f57565b5050565b61090e610afc565b61091781611037565b50565b610922610afc565b6001600160a01b03919091166000908152600760205260409020805460ff1916911515919091179055565b6001600160a01b03811660009081526007602052604081205460ff161561097657506001610367565b6001600160a01b0380841660009081526001602090815260408083209386168352929052205460ff16610364565b60008381526006602052604090205460ff166106fe576106fe8585858585611043565b6109cf610afc565b6001600160a01b038116610a345760405162461bcd60e51b815260206004820152602660248201527f4f776e61626c653a206e6577206f776e657220697320746865207a65726f206160448201526564647265737360d01b60648201526084016106e8565b61091781610e2b565b610a45610afc565b60008281526006602052604090205460ff16610a6657610a66838383611088565b505050565b60006001600160a01b038316610ad65760405162461bcd60e51b815260206004820152602a60248201527f455243313135353a2061646472657373207a65726f206973206e6f742061207660448201526930b634b21037bbb732b960b11b60648201526084016106e8565b506000908152602081815260408083206001600160a01b03949094168352929052205490565b6003546001600160a01b031633146108b85760405162461bcd60e51b815260206004820181905260248201527f4f776e61626c653a2063616c6c6572206973206e6f7420746865206f776e657260448201526064016106e8565b6001600160a01b038416610b7c5760405162461bcd60e51b81526004016106e890611da0565b8151835114610b9d5760405162461bcd60e51b81526004016106e890611de1565b3360005b8451811015610c2e57838181518110610bbc57610bbc611cf2565b6020026020010151600080878481518110610bd957610bd9611cf2565b602002602001015181526020019081526020016000206000886001600160a01b03166001600160a01b031681526020019081526020016000206000828254610c219190611e29565b9091555050600101610ba1565b50846001600160a01b031660006001600160a01b0316826001600160a01b03167f4a39dc06d4c0dbc64b70af90fd698a233a518aa5d07e595d983b8c0526c8f7fb8787604051610c7f929190611e3c565b60405180910390a46106fe81600087878787611204565b8151835114610cb75760405162461bcd60e51b81526004016106e890611de1565b6001600160a01b038416610cdd5760405162461bcd60e51b81526004016106e890611e6a565b3360005b8451811015610dbd576000858281518110610cfe57610cfe611cf2565b602002602001015190506000858381518110610d1c57610d1c611cf2565b602090810291909101810151600084815280835260408082206001600160a01b038e168352909352919091205490915081811015610d6c5760405162461bcd60e51b81526004016106e890611eaf565b6000838152602081815260408083206001600160a01b038e8116855292528083208585039055908b16825281208054849290610da9908490611e29565b909155505060019093019250610ce1915050565b50846001600160a01b0316866001600160a01b0316826001600160a01b03167f4a39dc06d4c0dbc64b70af90fd698a233a518aa5d07e595d983b8c0526c8f7fb8787604051610e0d929190611e3c565b60405180910390a4610e23818787878787611204565b505050505050565b600380546001600160a01b038381166001600160a01b0319831681179093556040519116919082907f8be0079c531659141344cd1fd0a4f28419497f9722a3daafe3b4186f6b6457e090600090a35050565b6001600160a01b038416610ea35760405162461bcd60e51b81526004016106e890611da0565b336000610eaf8561135f565b90506000610ebc8561135f565b90506000868152602081815260408083206001600160a01b038b16845290915281208054879290610eee908490611e29565b909155505060408051878152602081018790526001600160a01b03808a1692600092918716917fc3d58168c5ae7397731d063d5bbf3d657854427343f4c083240f7aacaa2d0f62910160405180910390a4610f4e836000898989896113aa565b50505050505050565b816001600160a01b0316836001600160a01b031603610fca5760405162461bcd60e51b815260206004820152602960248201527f455243313135353a2073657474696e6720617070726f76616c20737461747573604482015268103337b91039b2b63360b91b60648201526084016106e8565b6001600160a01b03838116600081815260016020908152604080832094871680845294825291829020805460ff191686151590811790915591519182527f17307eab39ab6107e8899845ad3d59bd9653f200f220920489ca2b5937696c31910160405180910390a3505050565b60026109028282611f40565b6001600160a01b03851633148061105f575061105f853361094d565b61107b5760405162461bcd60e51b81526004016106e890611d37565b6106fe8585858585611465565b6001600160a01b0383166110ea5760405162461bcd60e51b815260206004820152602360248201527f455243313135353a206275726e2066726f6d20746865207a65726f206164647260448201526265737360e81b60648201526084016106e8565b3360006110f68461135f565b905060006111038461135f565b60408051602080820183526000918290528882528181528282206001600160a01b038b168352905220549091508481101561118c5760405162461bcd60e51b8152602060048201526024808201527f455243313135353a206275726e20616d6f756e7420657863656564732062616c604482015263616e636560e01b60648201526084016106e8565b6000868152602081815260408083206001600160a01b038b81168086529184528285208a8703905582518b81529384018a90529092908816917fc3d58168c5ae7397731d063d5bbf3d657854427343f4c083240f7aacaa2d0f62910160405180910390a4604080516020810190915260009052610f4e565b6001600160a01b0384163b15610e235760405163bc197c8160e01b81526001600160a01b0385169063bc197c81906112489089908990889088908890600401611ffe565b6020604051808303816000875af1925050508015611283575060408051601f3d908101601f191682019092526112809181019061205c565b60015b61132f5761128f612079565b806308c379a0036112c857506112a3612095565b806112ae57506112ca565b8060405162461bcd60e51b81526004016106e89190611655565b505b60405162461bcd60e51b815260206004820152603460248201527f455243313135353a207472616e7366657220746f206e6f6e2d455243313135356044820152732932b1b2b4bb32b91034b6b83632b6b2b73a32b960611b60648201526084016106e8565b6001600160e01b0319811663bc197c8160e01b14610f4e5760405162461bcd60e51b81526004016106e890612110565b6040805160018082528183019092526060916000919060208083019080368337019050509050828160008151811061139957611399611cf2565b602090810291909101015292915050565b6001600160a01b0384163b15610e235760405163f23a6e6160e01b81526001600160a01b0385169063f23a6e61906113ee9089908990889088908890600401612158565b6020604051808303816000875af1925050508015611429575060408051601f3d908101601f191682019092526114269181019061205c565b60015b6114355761128f612079565b6001600160e01b0319811663f23a6e6160e01b14610f4e5760405162461bcd60e51b81526004016106e890612110565b6001600160a01b03841661148b5760405162461bcd60e51b81526004016106e890611e6a565b3360006114978561135f565b905060006114a48561135f565b90506000868152602081815260408083206001600160a01b038c168452909152902054858110156114e75760405162461bcd60e51b81526004016106e890611eaf565b6000878152602081815260408083206001600160a01b038d8116855292528083208985039055908a16825281208054889290611524908490611e29565b909155505060408051888152602081018890526001600160a01b03808b16928c821692918816917fc3d58168c5ae7397731d063d5bbf3d657854427343f4c083240f7aacaa2d0f62910160405180910390a4611584848a8a8a8a8a6113aa565b505050505050505050565b80356001600160a01b03811681146115a657600080fd5b919050565b600080604083850312156115be57600080fd5b6115c78361158f565b946020939093013593505050565b6001600160e01b03198116811461091757600080fd5b6000602082840312156115fd57600080fd5b8135611608816115d5565b9392505050565b6000815180845260005b8181101561163557602081850181015186830182015201611619565b506000602082860101526020601f19601f83011685010191505092915050565b602081526000610364602083018461160f565b60006020828403121561167a57600080fd5b5035919050565b634e487b7160e01b600052604160045260246000fd5b601f8201601f191681016001600160401b03811182821017156116bc576116bc611681565b6040525050565b60006001600160401b038211156116dc576116dc611681565b5060051b60200190565b600082601f8301126116f757600080fd5b8135611702816116c3565b60405161170f8282611697565b80915082815260208101915060208360051b86010192508583111561173357600080fd5b602085015b83811015611750578035835260209283019201611738565b5095945050505050565b6000806001600160401b0384111561177457611774611681565b50604051601f8401601f19166020019061178e8282611697565b8092508481528585850111156117a357600080fd5b8484602083013760006020868301015250509392505050565b600082601f8301126117cd57600080fd5b6103648383356020850161175a565b600080600080608085870312156117f257600080fd5b6117fb8561158f565b935060208501356001600160401b0381111561181657600080fd5b611822878288016116e6565b93505060408501356001600160401b0381111561183e57600080fd5b61184a878288016116e6565b92505060608501356001600160401b0381111561186657600080fd5b611872878288016117bc565b91505092959194509250565b600080600080600060a0868803121561189657600080fd5b61189f8661158f565b94506118ad6020870161158f565b935060408601356001600160401b038111156118c857600080fd5b6118d4888289016116e6565b93505060608601356001600160401b038111156118f057600080fd5b6118fc888289016116e6565b92505060808601356001600160401b0381111561191857600080fd5b611924888289016117bc565b9150509295509295909350565b60008083601f84011261194357600080fd5b5081356001600160401b0381111561195a57600080fd5b6020830191508360208260051b850101111561197557600080fd5b9250929050565b6000806000806040858703121561199257600080fd5b84356001600160401b038111156119a857600080fd5b6119b487828801611931565b90955093505060208501356001600160401b038111156119d357600080fd5b6119df87828801611931565b95989497509550505050565b600080604083850312156119fe57600080fd5b82356001600160401b03811115611a1457600080fd5b8301601f81018513611a2557600080fd5b8035611a30816116c3565b604051611a3d8282611697565b80915082815260208101915060208360051b850101925087831115611a6157600080fd5b6020840193505b82841015611a8a57611a798461158f565b825260209384019390910190611a68565b945050505060208301356001600160401b03811115611aa857600080fd5b611ab4858286016116e6565b9150509250929050565b600081518084526020840193506020830160005b82811015611af0578151865260209586019590910190600101611ad2565b5093949350505050565b6020815260006103646020830184611abe565b60008060008060808587031215611b2357600080fd5b611b2c8561158f565b9350602085013592506040850135915060608501356001600160401b0381111561186657600080fd5b803580151581146115a657600080fd5b60008060408385031215611b7857600080fd5b611b818361158f565b9150611b8f60208401611b55565b90509250929050565b600060208284031215611baa57600080fd5b6103648261158f565b600060208284031215611bc557600080fd5b81356001600160401b03811115611bdb57600080fd5b8201601f81018413611bec57600080fd5b611bfb8482356020840161175a565b949350505050565b60008060408385031215611c1657600080fd5b611c1f8361158f565b9150611b8f6020840161158f565b600080600080600060a08688031215611c4557600080fd5b611c4e8661158f565b9450611c5c6020870161158f565b9350604086013592506060860135915060808601356001600160401b0381111561191857600080fd5b600080600060608486031215611c9a57600080fd5b611ca38461158f565b95602085013595506040909401359392505050565b600181811c90821680611ccc57607f821691505b602082108103611cec57634e487b7160e01b600052602260045260246000fd5b50919050565b634e487b7160e01b600052603260045260246000fd5b634e487b7160e01b600052601160045260246000fd5b600060018201611d3057611d30611d08565b5060010190565b6020808252602e908201527f455243313135353a2063616c6c6572206973206e6f7420746f6b656e206f776e60408201526d195c881bdc88185c1c1c9bdd995960921b606082015260800190565b600060208284031215611d9757600080fd5b61036482611b55565b60208082526021908201527f455243313135353a206d696e7420746f20746865207a65726f206164647265736040820152607360f81b606082015260800190565b60208082526028908201527f455243313135353a2069647320616e6420616d6f756e7473206c656e677468206040820152670dad2e6dac2e8c6d60c31b606082015260800190565b8082018082111561036757610367611d08565b604081526000611e4f6040830185611abe565b8281036020840152611e618185611abe565b95945050505050565b60208082526025908201527f455243313135353a207472616e7366657220746f20746865207a65726f206164604082015264647265737360d81b606082015260800190565b6020808252602a908201527f455243313135353a20696e73756666696369656e742062616c616e636520666f60408201526939103a3930b739b332b960b11b606082015260800190565b601f821115610a6657806000526020600020601f840160051c81016020851015611f205750805b601f840160051c820191505b818110156106fe5760008155600101611f2c565b81516001600160401b03811115611f5957611f59611681565b611f6d81611f678454611cb8565b84611ef9565b6020601f821160018114611fa15760008315611f895750848201515b600019600385901b1c1916600184901b1784556106fe565b600084815260208120601f198516915b82811015611fd15787850151825560209485019460019092019101611fb1565b5084821015611fef5786840151600019600387901b60f8161c191681555b50505050600190811b01905550565b6001600160a01b0386811682528516602082015260a06040820181905260009061202a90830186611abe565b828103606084015261203c8186611abe565b90508281036080840152612050818561160f565b98975050505050505050565b60006020828403121561206e57600080fd5b8151611608816115d5565b600060033d11156120925760046000803e5060005160e01c5b90565b600060443d10156120a35790565b6040513d600319016004823e80513d60248201116001600160401b03821117156120cc57505090565b80820180516001600160401b038111156120e7575050505090565b3d8401600319018282016020011115612101575050505090565b61089e60208285010185611697565b60208082526028908201527f455243313135353a204552433131353552656365697665722072656a656374656040820152676420746f6b656e7360c01b606082015260800190565b6001600160a01b03868116825285166020820152604081018490526060810183905260a0608082018190526000906121929083018461160f565b97965050505050505056fea2646970667358221220899a2a51fcd6067e6fabbe04bade5bdddb9e8cb913c91c4c9b6dc20b896a60f164736f6c634300081a0033",
  "linkReferences": {},
  "deployedLinkReferences": {}
}