{
  "_format": "hh-sol-artifact-1",
  "contractName": "World",
  "sourceName": "contracts/core/World.sol",
  "abi": [
    {
      "inputs": [],
      "name": "CurrentEraCannotBeDestroyedDueCultistsLimitNotReached",
      "type": "error"
    },
    {
      "inputs": [],
      "name": "CurrentEraCannotBeDestroyedDueToCultistsNoDestructionDelayNotPassed",
      "type": "error"
    },
    {
      "inputs": [],
      "name": "OnlyActiveGame",
      "type": "error"
    },
    {
      "inputs": [],
      "name": "OnlyFactory",
      "type": "error"
    },
    {
      "inputs": [],
      "name": "OnlyMightyCreator",
      "type": "error"
    },
    {
      "inputs": [],
      "name": "OnlyMightyCreatorOrRewardPool",
      "type": "error"
    },
    {
      "anonymous": false,
      "inputs": [
        {
          "indexed": false,
          "internalType": "uint256",
          "name": "newEraNumber",
          "type": "uint256"
        }
      ],
      "name": "CurrentEraNumberUpdated",
      "type": "event"
    },
    {
      "anonymous": false,
      "inputs": [
        {
          "indexed": false,
          "internalType": "address",
          "name": "newEraAddress",
          "type": "address"
        },
        {
          "indexed": false,
          "internalType": "uint256",
          "name": "newEraNumber",
          "type": "uint256"
        }
      ],
      "name": "EraCreated",
      "type": "event"
    },
    {
      "anonymous": false,
      "inputs": [
        {
          "indexed": false,
          "internalType": "uint256",
          "name": "newBeginTime",
          "type": "uint256"
        }
      ],
      "name": "GameBeginTimeUpdated",
      "type": "event"
    },
    {
      "anonymous": false,
      "inputs": [
        {
          "indexed": false,
          "internalType": "uint256",
          "name": "newEndTime",
          "type": "uint256"
        }
      ],
      "name": "GameEndTimeUpdated",
      "type": "event"
    },
    {
      "anonymous": false,
      "inputs": [
        {
          "indexed": false,
          "internalType": "uint8",
          "name": "version",
          "type": "uint8"
        }
      ],
      "name": "Initialized",
      "type": "event"
    },
    {
      "anonymous": false,
      "inputs": [
        {
          "indexed": false,
          "internalType": "address",
          "name": "registryAddress",
          "type": "address"
        },
        {
          "indexed": false,
          "internalType": "address",
          "name": "crossErasMemoryAddress",
          "type": "address"
        },
        {
          "indexed": false,
          "internalType": "address",
          "name": "geographyAddress",
          "type": "address"
        },
        {
          "indexed": false,
          "internalType": "address",
          "name": "bannersAddress",
          "type": "address"
        },
        {
          "indexed": false,
          "internalType": "address",
          "name": "erc20ForBuyingSettlementAddress",
          "type": "address"
        },
        {
          "indexed": false,
          "internalType": "address",
          "name": "erc20ForRegionInclusionAddress",
          "type": "address"
        },
        {
          "indexed": false,
          "internalType": "address",
          "name": "erc20ForCorruptionIndexBuyoutAddress",
          "type": "address"
        },
        {
          "indexed": false,
          "internalType": "address",
          "name": "regionOwnershipTokenAddress",
          "type": "address"
        },
        {
          "indexed": false,
          "internalType": "address",
          "name": "distributionsAddress",
          "type": "address"
        },
        {
          "indexed": false,
          "internalType": "address",
          "name": "rewardPoolAddress",
          "type": "address"
        }
      ],
      "name": "WorldInitialized",
      "type": "event"
    },
    {
      "inputs": [
        {
          "internalType": "uint256",
          "name": "eraNumber",
          "type": "uint256"
        },
        {
          "internalType": "address",
          "name": "worldAsset",
          "type": "address"
        },
        {
          "internalType": "bytes32",
          "name": "assetType",
          "type": "bytes32"
        }
      ],
      "name": "addWorldAsset",
      "outputs": [],
      "stateMutability": "nonpayable",
      "type": "function"
    },
    {
      "inputs": [],
      "name": "bannerContract",
      "outputs": [
        {
          "internalType": "contract IERC721",
          "name": "",
          "type": "address"
        }
      ],
      "stateMutability": "view",
      "type": "function"
    },
    {
      "inputs": [],
      "name": "crossErasMemory",
      "outputs": [
        {
          "internalType": "contract ICrossErasMemory",
          "name": "",
          "type": "address"
        }
      ],
      "stateMutability": "view",
      "type": "function"
    },
    {
      "inputs": [],
      "name": "currentEraNumber",
      "outputs": [
        {
          "internalType": "uint256",
          "name": "",
          "type": "uint256"
        }
      ],
      "stateMutability": "view",
      "type": "function"
    },
    {
      "inputs": [],
      "name": "destroyCurrentEra",
      "outputs": [],
      "stateMutability": "nonpayable",
      "type": "function"
    },
    {
      "inputs": [],
      "name": "distributions",
      "outputs": [
        {
          "internalType": "contract IDistributions",
          "name": "",
          "type": "address"
        }
      ],
      "stateMutability": "view",
      "type": "function"
    },
    {
      "inputs": [
        {
          "internalType": "uint256",
          "name": "",
          "type": "uint256"
        }
      ],
      "name": "eras",
      "outputs": [
        {
          "internalType": "contract IEra",
          "name": "",
          "type": "address"
        }
      ],
      "stateMutability": "view",
      "type": "function"
    },
    {
      "inputs": [],
      "name": "erc20ForCorruptionIndexBuyout",
      "outputs": [
        {
          "internalType": "contract IERC20",
          "name": "",
          "type": "address"
        }
      ],
      "stateMutability": "view",
      "type": "function"
    },
    {
      "inputs": [],
      "name": "erc20ForRegionInclusion",
      "outputs": [
        {
          "internalType": "contract IERC20",
          "name": "",
          "type": "address"
        }
      ],
      "stateMutability": "view",
      "type": "function"
    },
    {
      "inputs": [],
      "name": "erc20ForSettlementPurchase",
      "outputs": [
        {
          "internalType": "contract IERC20",
          "name": "",
          "type": "address"
        }
      ],
      "stateMutability": "view",
      "type": "function"
    },
    {
      "inputs": [],
      "name": "gameBeginTime",
      "outputs": [
        {
          "internalType": "uint256",
          "name": "",
          "type": "uint256"
        }
      ],
      "stateMutability": "view",
      "type": "function"
    },
    {
      "inputs": [],
      "name": "gameEndTime",
      "outputs": [
        {
          "internalType": "uint256",
          "name": "",
          "type": "uint256"
        }
      ],
      "stateMutability": "view",
      "type": "function"
    },
    {
      "inputs": [],
      "name": "geography",
      "outputs": [
        {
          "internalType": "contract IGeography",
          "name": "",
          "type": "address"
        }
      ],
      "stateMutability": "view",
      "type": "function"
    },
    {
      "inputs": [],
      "name": "getRegionRadius",
      "outputs": [
        {
          "internalType": "uint64",
          "name": "",
          "type": "uint64"
        }
      ],
      "stateMutability": "pure",
      "type": "function"
    },
    {
      "inputs": [],
      "name": "getRegionSeed",
      "outputs": [
        {
          "internalType": "bytes32",
          "name": "",
          "type": "bytes32"
        }
      ],
      "stateMutability": "pure",
      "type": "function"
    },
    {
      "inputs": [],
      "name": "getRegionTierSeed",
      "outputs": [
        {
          "internalType": "bytes32",
          "name": "",
          "type": "bytes32"
        }
      ],
      "stateMutability": "view",
      "type": "function"
    },
    {
      "inputs": [],
      "name": "getTileBonusesSeed",
      "outputs": [
        {
          "internalType": "bytes32",
          "name": "",
          "type": "bytes32"
        }
      ],
      "stateMutability": "pure",
      "type": "function"
    },
    {
      "inputs": [
        {
          "internalType": "bytes28",
          "name": "",
          "type": "bytes28"
        }
      ],
      "name": "implementations",
      "outputs": [
        {
          "internalType": "address",
          "name": "",
          "type": "address"
        }
      ],
      "stateMutability": "view",
      "type": "function"
    },
    {
      "inputs": [
        {
          "internalType": "bytes",
          "name": "packedAddresses",
          "type": "bytes"
        },
        {
          "internalType": "bytes28[]",
          "name": "assetIds",
          "type": "bytes28[]"
        },
        {
          "internalType": "address[]",
          "name": "implementationAddresses",
          "type": "address[]"
        }
      ],
      "name": "init",
      "outputs": [],
      "stateMutability": "nonpayable",
      "type": "function"
    },
    {
      "inputs": [
        {
          "internalType": "uint256",
          "name": "eraNumber",
          "type": "uint256"
        },
        {
          "internalType": "bytes32",
          "name": "resourceTypeId",
          "type": "bytes32"
        },
        {
          "internalType": "address",
          "name": "to",
          "type": "address"
        },
        {
          "internalType": "uint256",
          "name": "value",
          "type": "uint256"
        }
      ],
      "name": "mintResources",
      "outputs": [],
      "stateMutability": "nonpayable",
      "type": "function"
    },
    {
      "inputs": [
        {
          "internalType": "uint256",
          "name": "eraNumber",
          "type": "uint256"
        },
        {
          "internalType": "bytes32",
          "name": "unitTypeId",
          "type": "bytes32"
        },
        {
          "internalType": "address",
          "name": "to",
          "type": "address"
        },
        {
          "internalType": "uint256",
          "name": "value",
          "type": "uint256"
        }
      ],
      "name": "mintUnits",
      "outputs": [],
      "stateMutability": "nonpayable",
      "type": "function"
    },
    {
      "inputs": [
        {
          "internalType": "uint256",
          "name": "eraNumber",
          "type": "uint256"
        },
        {
          "internalType": "address",
          "name": "_to",
          "type": "address"
        },
        {
          "internalType": "uint256",
          "name": "_value",
          "type": "uint256"
        }
      ],
      "name": "mintWorkers",
      "outputs": [],
      "stateMutability": "nonpayable",
      "type": "function"
    },
    {
      "inputs": [],
      "name": "regionOwnershipToken",
      "outputs": [
        {
          "internalType": "contract IRegionOwnershipToken",
          "name": "",
          "type": "address"
        }
      ],
      "stateMutability": "view",
      "type": "function"
    },
    {
      "inputs": [],
      "name": "registry",
      "outputs": [
        {
          "internalType": "contract IRegistry",
          "name": "",
          "type": "address"
        }
      ],
      "stateMutability": "view",
      "type": "function"
    },
    {
      "inputs": [],
      "name": "rewardPool",
      "outputs": [
        {
          "internalType": "contract IRewardPool",
          "name": "",
          "type": "address"
        }
      ],
      "stateMutability": "view",
      "type": "function"
    },
    {
      "inputs": [
        {
          "internalType": "uint256",
          "name": "value",
          "type": "uint256"
        }
      ],
      "name": "setGameBeginTime",
      "outputs": [],
      "stateMutability": "nonpayable",
      "type": "function"
    },
    {
      "inputs": [
        {
          "internalType": "uint256",
          "name": "value",
          "type": "uint256"
        }
      ],
      "name": "setGameEndTime",
      "outputs": [],
      "stateMutability": "nonpayable",
      "type": "function"
    },
    {
      "inputs": [
        {
          "internalType": "bytes28[]",
          "name": "assetIds",
          "type": "bytes28[]"
        },
        {
          "internalType": "address[]",
          "name": "implementationAddresses",
          "type": "address[]"
        }
      ],
      "name": "setImplementations",
      "outputs": [],
      "stateMutability": "nonpayable",
      "type": "function"
    },
    {
      "inputs": [
        {
          "internalType": "uint256",
          "name": "",
          "type": "uint256"
        },
        {
          "internalType": "address",
          "name": "",
          "type": "address"
        }
      ],
      "name": "worldAssets",
      "outputs": [
        {
          "internalType": "bytes32",
          "name": "",
          "type": "bytes32"
        }
      ],
      "stateMutability": "view",
      "type": "function"
    }
  ],
  "bytecode": "0x6080604052348015600f57600080fd5b506117488061001f6000396000f3fe608060405234801561001057600080fd5b506004361061018f5760003560e01c8063720a70bd116100e4578063bae6772a11610092578063bae6772a14610353578063bb993a5814610366578063bc3700dd1461038f578063c1897e34146103a2578063e4e940f0146103b5578063e7f3602e146103c8578063ebbe8034146103db578063f5f026a31461040657600080fd5b8063720a70bd1461027f5780637b103999146102a85780637f953d1a146102c15780638544dbda146102d4578063879d62ed1461031e578063909a85311461032d578063a8d66c751461034057600080fd5b80634f8822fd116101415780634f8822fd1461020f5780635a4482d11461022257806366666aa9146102355780636c4f1773146102485780636dbd4f041461025b578063704f63a11461026e5780637100296b1461027757600080fd5b8063041cb8461461019457806316229bef146101aa578063183100fa146101d55780633c8ca83d146101e857806344d9bc5f146101f157806348524fe514610194578063492b3f84146101fa575b600080fd5b60005b6040519081526020015b60405180910390f35b6004546101bd906001600160a01b031681565b6040516001600160a01b0390911681526020016101a1565b6002546101bd906001600160a01b031681565b610197600a5481565b610197600b5481565b61020d61020836600461124a565b610419565b005b6005546101bd906001600160a01b031681565b61020d610230366004611282565b610502565b6009546101bd906001600160a01b031681565b61020d6102563660046112e7565b610546565b61020d610269366004611282565b610678565b610197600c5481565b61020d6106b5565b6101bd61028d366004611282565b600d602052600090815260409020546001600160a01b031681565b6000546101bd906201000090046001600160a01b031681565b61020d6102cf3660046113bc565b610901565b610197600c546040516bffffffffffffffffffffffff193060601b166020820152603481019190915260009060540160405160208183030381529060405280519060200120905090565b604051600f81526020016101a1565b61020d61033b36600461124a565b6109ee565b6008546101bd906001600160a01b031681565b6006546101bd906001600160a01b031681565b6101bd6103743660046113fb565b600e602052600090815260409020546001600160a01b031681565b61020d61039d366004611429565b610a1c565b6003546101bd906001600160a01b031681565b6007546101bd906001600160a01b031681565b61020d6103d63660046113bc565b610a36565b6101976103e936600461149a565b600f60209081526000928352604080842090915290825290205481565b6001546101bd906001600160a01b031681565b610421610a7c565b6000838152600d6020908152604091829020548251630cabb62f60e41b815292516001600160a01b039091169263cabb62f09260048083019391928290030181865afa158015610475573d6000803e3d6000fd5b505050506040513d601f19601f8201168201806040525081019061049991906114ca565b6040516340c10f1960e01b81526001600160a01b0384811660048301526024820184905291909116906340c10f1990604401600060405180830381600087803b1580156104e557600080fd5b505af11580156104f9573d6000803e3d6000fd5b50505050505050565b61050a610b26565b600b8190556040518181527f1809de91754ef9d7e3f050adb54f24015cb34965236b6cc681504d06d060e2f5906020015b60405180910390a150565b600054610100900460ff16158080156105665750600054600160ff909116105b806105805750303b158015610580575060005460ff166001145b6105e75760405162461bcd60e51b815260206004820152602e60248201527f496e697469616c697a61626c653a20636f6e747261637420697320616c72656160448201526d191e481a5b9a5d1a585b1a5e995960921b606482015260840160405180910390fd5b6000805460ff19166001179055801561060a576000805461ff0019166101001790555b61061685858585610be7565b6106208787610c88565b61062a6000610ee6565b80156104f9576000805461ff0019169055604051600181527f7f26b83ff96e1f2b6a682f133852f6798a09c465da95921460cefb38474024989060200160405180910390a150505050505050565b610680610a7c565b600a8190556040518181527f2c3b4ec3f2328b3635f8946c67e708f31223bb2f2d37e947bdd41f6535f7097c9060200161053b565b6106bd610f65565b600c546000908152600d60205260408120546001600160a01b0316906001906106e98262069780611513565b905060006106fa836203f480611513565b9050600061076b856001600160a01b031663d8270dce6040518163ffffffff1660e01b8152600401602060405180830381865afa15801561073f573d6000803e3d6000fd5b505050506040513d601f19601f820116820180604052508101906107639190611527565b600a54610fc2565b905080421161078d57604051630146103160e11b815260040160405180910390fd5b60006107998242611540565b905060006107a78583611553565b90508381116107c957604051630146103160e11b815260040160405180910390fd5b600069010f0cf064dd59200000600160009054906101000a90046001600160a01b03166001600160a01b031663e114c8d96040518163ffffffff1660e01b8152600401602060405180830381865afa158015610829573d6000803e3d6000fd5b505050506040513d601f19601f8201168201806040525081019061084d9190611527565b6108579190611567565b905080886001600160a01b031663fcc814b06040518163ffffffff1660e01b8152600401602060405180830381865afa158015610898573d6000803e3d6000fd5b505050506040513d601f19601f820116820180604052508101906108bc9190611527565b116108da57604051635c3f841160e11b815260040160405180910390fd5b6000600c5460016108eb919061157e565b90506108f681610ee6565b505050505050505050565b610909610a7c565b6000848152600d60205260409081902054905163912929df60e01b8152600481018590526001600160a01b039091169063912929df906024015b602060405180830381865afa158015610960573d6000803e3d6000fd5b505050506040513d601f19601f8201168201806040525081019061098491906114ca565b6040516340c10f1960e01b81526001600160a01b0384811660048301526024820184905291909116906340c10f1990604401600060405180830381600087803b1580156109d057600080fd5b505af11580156109e4573d6000803e3d6000fd5b5050505050505050565b6109f6610fdc565b6000928352600f602090815260408085206001600160a01b039094168552929052912055565b610a24610a7c565b610a3084848484610be7565b50505050565b610a3e610a7c565b6000848152600d60205260409081902054905163feae7dc360e01b8152600481018590526001600160a01b039091169063feae7dc390602401610943565b600060029054906101000a90046001600160a01b03166001600160a01b031663271530506040518163ffffffff1660e01b8152600401602060405180830381865afa158015610acf573d6000803e3d6000fd5b505050506040513d601f19601f82011682018060405250810190610af391906114ca565b6001600160a01b0316336001600160a01b031614610b245760405163d136afd560e01b815260040160405180910390fd5b565b600060029054906101000a90046001600160a01b03166001600160a01b031663271530506040518163ffffffff1660e01b8152600401602060405180830381865afa158015610b79573d6000803e3d6000fd5b505050506040513d601f19601f82011682018060405250810190610b9d91906114ca565b6001600160a01b0316336001600160a01b031614158015610bc957506009546001600160a01b03163314155b15610b245760405163c90a1bdb60e01b815260040160405180910390fd5b60005b83811015610c8157828282818110610c0457610c04611591565b9050602002016020810190610c1991906115a7565b600e6000878785818110610c2f57610c2f611591565b9050602002016020810190610c4491906113fb565b63ffffffff19168152602081019190915260400160002080546001600160a01b0319166001600160a01b0392909216919091179055600101610bea565b5050505050565b6000808080808080808080610c9f8b8d018d6115d4565b995099509950995099509950995099509950995089600060026101000a8154816001600160a01b0302191690836001600160a01b0316021790555088600860006101000a8154816001600160a01b0302191690836001600160a01b0316021790555087600160006101000a8154816001600160a01b0302191690836001600160a01b0316021790555086600260006101000a8154816001600160a01b0302191690836001600160a01b0316021790555085600360006101000a8154816001600160a01b0302191690836001600160a01b0316021790555084600460006101000a8154816001600160a01b0302191690836001600160a01b0316021790555083600560006101000a8154816001600160a01b0302191690836001600160a01b0316021790555082600660006101000a8154816001600160a01b0302191690836001600160a01b0316021790555081600760006101000a8154816001600160a01b0302191690836001600160a01b0316021790555080600960006101000a8154816001600160a01b0302191690836001600160a01b031602179055507f59b098bb495178f593cbbffadc3e8e911a5494f7e8a790a6c361c99a56b1d9998a8a8a8a8a8a8a8a8a8a604051610ed09a999897969594939291906001600160a01b039a8b168152988a1660208a015296891660408901529488166060880152928716608087015290861660a0860152851660c0850152841660e084015283166101008301529091166101208201526101400190565b60405180910390a1505050505050505050505050565b6000610ef182611084565b6000838152600d602090815260409182902080546001600160a01b0319166001600160a01b03851690811790915582519081529081018590529192507fd4f8a54e816a47778b66fb7c728d60157748b9f4a3a2d12d94977acfbd4f2a2c910160405180910390a1610f61826111fd565b5050565b600a54600b54811580610f7757508142105b15610f955760405163a00eda6960e01b815260040160405180910390fd5b8015801590610fa45750804210155b15610f615760405163a00eda6960e01b815260040160405180910390fd5b6000818311610fd15781610fd3565b825b90505b92915050565b600060029054906101000a90046001600160a01b03166001600160a01b031663ece56a1a6040518163ffffffff1660e01b8152600401602060405180830381865afa15801561102f573d6000803e3d6000fd5b505050506040513d601f19601f8201168201806040525081019061105391906114ca565b6001600160a01b0316336001600160a01b031614610b2457604051630636a15760e11b815260040160405180910390fd5b60008060029054906101000a90046001600160a01b03166001600160a01b031663ece56a1a6040518163ffffffff1660e01b8152600401602060405180830381865afa1580156110d8573d6000803e3d6000fd5b505050506040513d601f19601f820116820180604052508101906110fc91906114ca565b604080518082018252600381526265726160e81b602091820152815180830183526005815264424153494360d81b908201528151808201869052825180820390920182528083019283905263c19755fd60e01b9092526001600160a01b03929092169163c19755fd916111ba91309187917f59be402c15bd54a04f1c437d99253c48b320e5bdc871e9737791cc38e7718112917fdc0ae866100b2876ab26eb62a50ca2cd083944f439e6d78aab2fc402e669e9ee91906044016116a0565b6020604051808303816000875af11580156111d9573d6000803e3d6000fd5b505050506040513d601f19601f82011682018060405250810190610fd691906114ca565b600c8190556040518181527f6c10311cc3d648f9dedb8a798aae315f8801ef33016ed6143c2c3deb5b215a269060200161053b565b6001600160a01b038116811461124757600080fd5b50565b60008060006060848603121561125f57600080fd5b83359250602084013561127181611232565b929592945050506040919091013590565b60006020828403121561129457600080fd5b5035919050565b60008083601f8401126112ad57600080fd5b50813567ffffffffffffffff8111156112c557600080fd5b6020830191508360208260051b85010111156112e057600080fd5b9250929050565b6000806000806000806060878903121561130057600080fd5b863567ffffffffffffffff81111561131757600080fd5b8701601f8101891361132857600080fd5b803567ffffffffffffffff81111561133f57600080fd5b89602082840101111561135157600080fd5b60209182019750955087013567ffffffffffffffff81111561137257600080fd5b61137e89828a0161129b565b909550935050604087013567ffffffffffffffff81111561139e57600080fd5b6113aa89828a0161129b565b979a9699509497509295939492505050565b600080600080608085870312156113d257600080fd5b843593506020850135925060408501356113eb81611232565b9396929550929360600135925050565b60006020828403121561140d57600080fd5b813563ffffffff198116811461142257600080fd5b9392505050565b6000806000806040858703121561143f57600080fd5b843567ffffffffffffffff81111561145657600080fd5b6114628782880161129b565b909550935050602085013567ffffffffffffffff81111561148257600080fd5b61148e8782880161129b565b95989497509550505050565b600080604083850312156114ad57600080fd5b8235915060208301356114bf81611232565b809150509250929050565b6000602082840312156114dc57600080fd5b815161142281611232565b634e487b7160e01b600052601260045260246000fd5b634e487b7160e01b600052601160045260246000fd5b600082611522576115226114e7565b500490565b60006020828403121561153957600080fd5b5051919050565b81810381811115610fd657610fd66114fd565b600082611562576115626114e7565b500690565b8082028115828204841417610fd657610fd66114fd565b80820180821115610fd657610fd66114fd565b634e487b7160e01b600052603260045260246000fd5b6000602082840312156115b957600080fd5b813561142281611232565b80356115cf81611232565b919050565b6000806000806000806000806000806101408b8d0312156115f457600080fd5b8a356115ff81611232565b995060208b013561160f81611232565b985060408b013561161f81611232565b975060608b013561162f81611232565b965060808b013561163f81611232565b955060a08b013561164f81611232565b945060c08b013561165f81611232565b935060e08b013561166f81611232565b92506101008b013561168081611232565b915061168f6101208c016115c4565b90509295989b9194979a5092959850565b60018060a01b038616815284602082015283604082015282606082015260a06080820152600082518060a084015260005b818110156116ee57602081860181015160c08684010152016116d1565b50600060c0828501015260c0601f19601f830116840101915050969550505050505056fea2646970667358221220fbc1308c1319ed403dafe93bbf96253164d872518f5f8bc81dd084c626c4072864736f6c634300081a0033",
  "linkReferences": {},
  "deployedLinkReferences": {}
}