{
  "_format": "hh-sol-artifact-1",
  "contractName": "ERC20Int",
  "sourceName": "contracts/token/ERC20Int.sol",
  "abi": [
    {
      "inputs": [
        {
          "internalType": "string",
          "name": "name_",
          "type": "string"
        },
        {
          "internalType": "string",
          "name": "symbol_",
          "type": "string"
        }
      ],
      "stateMutability": "nonpayable",
      "type": "constructor"
    },
    {
      "inputs": [],
      "name": "CannotApproveFromZeroAddress",
      "type": "error"
    },
    {
      "inputs": [],
      "name": "CannotApproveToZeroAddress",
      "type": "error"
    },
    {
      "inputs": [],
      "name": "CannotBurnFromZeroAddress",
      "type": "error"
    },
    {
      "inputs": [],
      "name": "CannotDecreaseAllowanceBelowZero",
      "type": "error"
    },
    {
      "inputs": [],
      "name": "CannotMintToZeroAddress",
      "type": "error"
    },
    {
      "inputs": [],
      "name": "CannotSpendMoreAllowanceThanCurrentValue",
      "type": "error"
    },
    {
      "inputs": [],
      "name": "CannotTransferFromZeroAddress",
      "type": "error"
    },
    {
      "inputs": [],
      "name": "CannotTransferHigherThanOwnedAmountOfTokens",
      "type": "error"
    },
    {
      "inputs": [],
      "name": "CannotTransferToZeroAddress",
      "type": "error"
    },
    {
      "anonymous": false,
      "inputs": [
        {
          "indexed": true,
          "internalType": "address",
          "name": "owner",
          "type": "address"
        },
        {
          "indexed": true,
          "internalType": "address",
          "name": "spender",
          "type": "address"
        },
        {
          "indexed": false,
          "internalType": "uint256",
          "name": "value",
          "type": "uint256"
        }
      ],
      "name": "Approval",
      "type": "event"
    },
    {
      "anonymous": false,
      "inputs": [
        {
          "indexed": true,
          "internalType": "address",
          "name": "from",
          "type": "address"
        },
        {
          "indexed": true,
          "internalType": "address",
          "name": "to",
          "type": "address"
        },
        {
          "indexed": false,
          "internalType": "uint256",
          "name": "value",
          "type": "uint256"
        }
      ],
      "name": "Transfer",
      "type": "event"
    },
    {
      "inputs": [
        {
          "internalType": "address",
          "name": "owner",
          "type": "address"
        },
        {
          "internalType": "address",
          "name": "spender",
          "type": "address"
        }
      ],
      "name": "allowance",
      "outputs": [
        {
          "internalType": "uint256",
          "name": "",
          "type": "uint256"
        }
      ],
      "stateMutability": "view",
      "type": "function"
    },
    {
      "inputs": [
        {
          "internalType": "address",
          "name": "spender",
          "type": "address"
        },
        {
          "internalType": "uint256",
          "name": "amount",
          "type": "uint256"
        }
      ],
      "name": "approve",
      "outputs": [
        {
          "internalType": "bool",
          "name": "",
          "type": "bool"
        }
      ],
      "stateMutability": "nonpayable",
      "type": "function"
    },
    {
      "inputs": [
        {
          "internalType": "address",
          "name": "account",
          "type": "address"
        }
      ],
      "name": "balanceOf",
      "outputs": [
        {
          "internalType": "uint256",
          "name": "",
          "type": "uint256"
        }
      ],
      "stateMutability": "view",
      "type": "function"
    },
    {
      "inputs": [],
      "name": "decimals",
      "outputs": [
        {
          "internalType": "uint8",
          "name": "",
          "type": "uint8"
        }
      ],
      "stateMutability": "view",
      "type": "function"
    },
    {
      "inputs": [
        {
          "internalType": "address",
          "name": "spender",
          "type": "address"
        },
        {
          "internalType": "uint256",
          "name": "subtractedValue",
          "type": "uint256"
        }
      ],
      "name": "decreaseAllowance",
      "outputs": [
        {
          "internalType": "bool",
          "name": "",
          "type": "bool"
        }
      ],
      "stateMutability": "nonpayable",
      "type": "function"
    },
    {
      "inputs": [
        {
          "internalType": "address",
          "name": "spender",
          "type": "address"
        },
        {
          "internalType": "uint256",
          "name": "addedValue",
          "type": "uint256"
        }
      ],
      "name": "increaseAllowance",
      "outputs": [
        {
          "internalType": "bool",
          "name": "",
          "type": "bool"
        }
      ],
      "stateMutability": "nonpayable",
      "type": "function"
    },
    {
      "inputs": [],
      "name": "name",
      "outputs": [
        {
          "internalType": "string",
          "name": "",
          "type": "string"
        }
      ],
      "stateMutability": "view",
      "type": "function"
    },
    {
      "inputs": [
        {
          "internalType": "address",
          "name": "account",
          "type": "address"
        }
      ],
      "name": "realBalanceOf",
      "outputs": [
        {
          "internalType": "int256",
          "name": "",
          "type": "int256"
        }
      ],
      "stateMutability": "view",
      "type": "function"
    },
    {
      "inputs": [],
      "name": "realTotalSupply",
      "outputs": [
        {
          "internalType": "int256",
          "name": "",
          "type": "int256"
        }
      ],
      "stateMutability": "view",
      "type": "function"
    },
    {
      "inputs": [],
      "name": "symbol",
      "outputs": [
        {
          "internalType": "string",
          "name": "",
          "type": "string"
        }
      ],
      "stateMutability": "view",
      "type": "function"
    },
    {
      "inputs": [],
      "name": "totalSupply",
      "outputs": [
        {
          "internalType": "uint256",
          "name": "",
          "type": "uint256"
        }
      ],
      "stateMutability": "view",
      "type": "function"
    },
    {
      "inputs": [
        {
          "internalType": "address",
          "name": "to",
          "type": "address"
        },
        {
          "internalType": "uint256",
          "name": "amount",
          "type": "uint256"
        }
      ],
      "name": "transfer",
      "outputs": [
        {
          "internalType": "bool",
          "name": "",
          "type": "bool"
        }
      ],
      "stateMutability": "nonpayable",
      "type": "function"
    },
    {
      "inputs": [
        {
          "internalType": "address",
          "name": "from",
          "type": "address"
        },
        {
          "internalType": "address",
          "name": "to",
          "type": "address"
        },
        {
          "internalType": "uint256",
          "name": "amount",
          "type": "uint256"
        }
      ],
      "name": "transferFrom",
      "outputs": [
        {
          "internalType": "bool",
          "name": "",
          "type": "bool"
        }
      ],
      "stateMutability": "nonpayable",
      "type": "function"
    }
  ],
  "bytecode": "0x608060405234801561001057600080fd5b50604051610a6d380380610a6d83398101604081905261002f91610109565b600361003b83826101fb565b50600461004882826101fb565b5050506102b9565b634e487b7160e01b600052604160045260246000fd5b600082601f83011261007757600080fd5b81516001600160401b0381111561009057610090610050565b604051601f8201601f19908116603f011681016001600160401b03811182821017156100be576100be610050565b6040528181528382016020018510156100d657600080fd5b60005b828110156100f5576020818601810151838301820152016100d9565b506000918101602001919091529392505050565b6000806040838503121561011c57600080fd5b82516001600160401b0381111561013257600080fd5b61013e85828601610066565b602085015190935090506001600160401b0381111561015c57600080fd5b61016885828601610066565b9150509250929050565b600181811c9082168061018657607f821691505b6020821081036101a657634e487b7160e01b600052602260045260246000fd5b50919050565b601f8211156101f657806000526020600020601f840160051c810160208510156101d35750805b601f840160051c820191505b818110156101f357600081556001016101df565b50505b505050565b81516001600160401b0381111561021457610214610050565b610228816102228454610172565b846101ac565b6020601f82116001811461025c57600083156102445750848201515b600019600385901b1c1916600184901b1784556101f3565b600084815260208120601f198516915b8281101561028c578785015182556020948501946001909201910161026c565b50848210156102aa5786840151600019600387901b60f8161c191681555b50505050600190811b01905550565b6107a5806102c86000396000f3fe608060405234801561001057600080fd5b50600436106100bf5760003560e01c806370a082311161007c57806370a082311461015057806395d89b411461016357806399a03c701461016b578063a457c2d714610194578063a9059cbb146101a7578063dd62ed3e146101ba578063ef356a79146101cd57600080fd5b806306fdde03146100c4578063095ea7b3146100e257806318160ddd1461010557806323b872dd1461011b578063313ce5671461012e578063395093511461013d575b600080fd5b6100cc6101d5565b6040516100d991906105be565b60405180910390f35b6100f56100f0366004610628565b610267565b60405190151581526020016100d9565b61010d610281565b6040519081526020016100d9565b6100f5610129366004610652565b61029a565b604051601281526020016100d9565b6100f561014b366004610628565b6102be565b61010d61015e36600461068f565b6102e0565b6100cc610324565b61010d61017936600461068f565b6001600160a01b031660009081526020819052604090205490565b6100f56101a2366004610628565b610333565b6100f56101b5366004610628565b610371565b61010d6101c83660046106b1565b61037f565b60025461010d565b6060600380546101e4906106e4565b80601f0160208091040260200160405190810160405280929190818152602001828054610210906106e4565b801561025d5780601f106102325761010080835404028352916020019161025d565b820191906000526020600020905b81548152906001019060200180831161024057829003601f168201915b5050505050905090565b6000336102758185856103aa565b60019150505b92915050565b60008060025412156102935750600090565b5060025490565b6000336102a8858285610459565b6102b38585856104a4565b506001949350505050565b6000336102758185856102d1838361037f565b6102db9190610734565b6103aa565b6001600160a01b03811660009081526020819052604081205481131561030857506000919050565b506001600160a01b031660009081526020819052604090205490565b6060600480546101e4906106e4565b60003381610341828661037f565b9050838110156103645760405163285af3b760e11b815260040160405180910390fd5b6102b382868684036103aa565b6000336102758185856104a4565b6001600160a01b03918216600090815260016020908152604080832093909416825291909152205490565b6001600160a01b0383166103d15760405163abe3697f60e01b815260040160405180910390fd5b6001600160a01b0382166103f8576040516396a1f38160e01b815260040160405180910390fd5b6001600160a01b0383811660008181526001602090815260408083209487168084529482529182902085905590518481527f8c5be1e5ebec7d5bd14f71427d1e84f3dd0314c0f7b2291e5b200ac8c7c3b925910160405180910390a3505050565b6000610465848461037f565b9050600019811461049e57818110156104915760405163013d476760e61b815260040160405180910390fd5b61049e84848484036103aa565b50505050565b6001600160a01b0383166104ca576040516246d99360e41b815260040160405180910390fd5b6001600160a01b0382166104f1576040516337af64f560e11b815260040160405180910390fd5b806001600160a01b0384166000908152602081905260409020548181121561052c57604051631b56476360e31b815260040160405180910390fd5b6001600160a01b03808616600090815260208190526040808220858503905591861681529081208054849290610563908490610747565b92505081905550836001600160a01b0316856001600160a01b03167fddf252ad1be2c89b69c2b068fc378daa952ba7f163c4a11628f55a4df523b3ef856040516105af91815260200190565b60405180910390a35050505050565b602081526000825180602084015260005b818110156105ec57602081860181015160408684010152016105cf565b506000604082850101526040601f19601f83011684010191505092915050565b80356001600160a01b038116811461062357600080fd5b919050565b6000806040838503121561063b57600080fd5b6106448361060c565b946020939093013593505050565b60008060006060848603121561066757600080fd5b6106708461060c565b925061067e6020850161060c565b929592945050506040919091013590565b6000602082840312156106a157600080fd5b6106aa8261060c565b9392505050565b600080604083850312156106c457600080fd5b6106cd8361060c565b91506106db6020840161060c565b90509250929050565b600181811c908216806106f857607f821691505b60208210810361071857634e487b7160e01b600052602260045260246000fd5b50919050565b634e487b7160e01b600052601160045260246000fd5b8082018082111561027b5761027b61071e565b80820182811260008312801582168215821617156107675761076761071e565b50509291505056fea2646970667358221220ddd36dd39833bb2987f7a96da427d212169a6003a2c64d23fb60ae87a477d53864736f6c634300081a0033",
  "linkReferences": {},
  "deployedLinkReferences": {}
}