{
  "_format": "hh-sol-artifact-1",
  "contractName": "Resource",
  "sourceName": "contracts/core/assets/tokens/resources/Resource.sol",
  "abi": [
    {
      "inputs": [],
      "stateMutability": "nonpayable",
      "type": "constructor"
    },
    {
      "inputs": [],
      "name": "OnlyActiveGame",
      "type": "error"
    },
    {
      "inputs": [],
      "name": "OnlyMightyCreator",
      "type": "error"
    },
    {
      "inputs": [],
      "name": "OnlyWorldAssetFromSameEra",
      "type": "error"
    },
    {
      "inputs": [],
      "name": "OnlyWorldAssetFromSameEraOrRewardPool",
      "type": "error"
    },
    {
      "inputs": [],
      "name": "ResourceNotAcceptable",
      "type": "error"
    },
    {
      "inputs": [],
      "name": "UnknownInputParameter",
      "type": "error"
    },
    {
      "anonymous": false,
      "inputs": [
        {
          "indexed": true,
          "internalType": "address",
          "name": "owner",
          "type": "address"
        },
        {
          "indexed": true,
          "internalType": "address",
          "name": "spender",
          "type": "address"
        },
        {
          "indexed": false,
          "internalType": "uint256",
          "name": "value",
          "type": "uint256"
        }
      ],
      "name": "Approval",
      "type": "event"
    },
    {
      "anonymous": false,
      "inputs": [
        {
          "indexed": false,
          "internalType": "uint8",
          "name": "version",
          "type": "uint8"
        }
      ],
      "name": "Initialized",
      "type": "event"
    },
    {
      "anonymous": false,
      "inputs": [
        {
          "indexed": true,
          "internalType": "address",
          "name": "from",
          "type": "address"
        },
        {
          "indexed": true,
          "internalType": "address",
          "name": "to",
          "type": "address"
        },
        {
          "indexed": false,
          "internalType": "uint256",
          "name": "value",
          "type": "uint256"
        }
      ],
      "name": "Transfer",
      "type": "event"
    },
    {
      "inputs": [
        {
          "internalType": "address",
          "name": "owner",
          "type": "address"
        },
        {
          "internalType": "address",
          "name": "spender",
          "type": "address"
        }
      ],
      "name": "allowance",
      "outputs": [
        {
          "internalType": "uint256",
          "name": "",
          "type": "uint256"
        }
      ],
      "stateMutability": "view",
      "type": "function"
    },
    {
      "inputs": [
        {
          "internalType": "address",
          "name": "spender",
          "type": "address"
        },
        {
          "internalType": "uint256",
          "name": "amount",
          "type": "uint256"
        }
      ],
      "name": "approve",
      "outputs": [
        {
          "internalType": "bool",
          "name": "",
          "type": "bool"
        }
      ],
      "stateMutability": "nonpayable",
      "type": "function"
    },
    {
      "inputs": [],
      "name": "assetGroupId",
      "outputs": [
        {
          "internalType": "bytes32",
          "name": "",
          "type": "bytes32"
        }
      ],
      "stateMutability": "view",
      "type": "function"
    },
    {
      "inputs": [],
      "name": "assetTypeId",
      "outputs": [
        {
          "internalType": "bytes32",
          "name": "",
          "type": "bytes32"
        }
      ],
      "stateMutability": "view",
      "type": "function"
    },
    {
      "inputs": [
        {
          "internalType": "address",
          "name": "tokenOwner",
          "type": "address"
        }
      ],
      "name": "balanceOf",
      "outputs": [
        {
          "internalType": "uint256",
          "name": "",
          "type": "uint256"
        }
      ],
      "stateMutability": "view",
      "type": "function"
    },
    {
      "inputs": [
        {
          "internalType": "uint256",
          "name": "amount",
          "type": "uint256"
        }
      ],
      "name": "burn",
      "outputs": [],
      "stateMutability": "nonpayable",
      "type": "function"
    },
    {
      "inputs": [
        {
          "internalType": "address",
          "name": "account",
          "type": "address"
        },
        {
          "internalType": "uint256",
          "name": "amount",
          "type": "uint256"
        }
      ],
      "name": "burnFrom",
      "outputs": [],
      "stateMutability": "nonpayable",
      "type": "function"
    },
    {
      "inputs": [],
      "name": "decimals",
      "outputs": [
        {
          "internalType": "uint8",
          "name": "",
          "type": "uint8"
        }
      ],
      "stateMutability": "view",
      "type": "function"
    },
    {
      "inputs": [
        {
          "internalType": "address",
          "name": "spender",
          "type": "address"
        },
        {
          "internalType": "uint256",
          "name": "subtractedValue",
          "type": "uint256"
        }
      ],
      "name": "decreaseAllowance",
      "outputs": [
        {
          "internalType": "bool",
          "name": "",
          "type": "bool"
        }
      ],
      "stateMutability": "nonpayable",
      "type": "function"
    },
    {
      "inputs": [],
      "name": "era",
      "outputs": [
        {
          "internalType": "contract IEra",
          "name": "",
          "type": "address"
        }
      ],
      "stateMutability": "view",
      "type": "function"
    },
    {
      "inputs": [],
      "name": "eraNumber",
      "outputs": [
        {
          "internalType": "uint256",
          "name": "",
          "type": "uint256"
        }
      ],
      "stateMutability": "view",
      "type": "function"
    },
    {
      "inputs": [
        {
          "internalType": "address",
          "name": "spender",
          "type": "address"
        },
        {
          "internalType": "uint256",
          "name": "addedValue",
          "type": "uint256"
        }
      ],
      "name": "increaseAllowance",
      "outputs": [
        {
          "internalType": "bool",
          "name": "",
          "type": "bool"
        }
      ],
      "stateMutability": "nonpayable",
      "type": "function"
    },
    {
      "inputs": [
        {
          "internalType": "bytes",
          "name": "initParams",
          "type": "bytes"
        }
      ],
      "name": "init",
      "outputs": [],
      "stateMutability": "nonpayable",
      "type": "function"
    },
    {
      "inputs": [
        {
          "internalType": "address",
          "name": "to",
          "type": "address"
        },
        {
          "internalType": "uint256",
          "name": "amount",
          "type": "uint256"
        }
      ],
      "name": "mint",
      "outputs": [],
      "stateMutability": "nonpayable",
      "type": "function"
    },
    {
      "inputs": [],
      "name": "name",
      "outputs": [
        {
          "internalType": "string",
          "name": "",
          "type": "string"
        }
      ],
      "stateMutability": "view",
      "type": "function"
    },
    {
      "inputs": [],
      "name": "registry",
      "outputs": [
        {
          "internalType": "contract IRegistry",
          "name": "",
          "type": "address"
        }
      ],
      "stateMutability": "view",
      "type": "function"
    },
    {
      "inputs": [],
      "name": "resourceTypeId",
      "outputs": [
        {
          "internalType": "bytes32",
          "name": "",
          "type": "bytes32"
        }
      ],
      "stateMutability": "view",
      "type": "function"
    },
    {
      "inputs": [
        {
          "internalType": "address",
          "name": "owner",
          "type": "address"
        },
        {
          "internalType": "address",
          "name": "spender",
          "type": "address"
        },
        {
          "internalType": "uint256",
          "name": "amount",
          "type": "uint256"
        }
      ],
      "name": "spendAllowance",
      "outputs": [],
      "stateMutability": "nonpayable",
      "type": "function"
    },
    {
      "inputs": [
        {
          "internalType": "address",
          "name": "tokenOwner",
          "type": "address"
        }
      ],
      "name": "stateBalanceOf",
      "outputs": [
        {
          "internalType": "uint256",
          "name": "balance",
          "type": "uint256"
        }
      ],
      "stateMutability": "view",
      "type": "function"
    },
    {
      "inputs": [],
      "name": "symbol",
      "outputs": [
        {
          "internalType": "string",
          "name": "",
          "type": "string"
        }
      ],
      "stateMutability": "view",
      "type": "function"
    },
    {
      "inputs": [],
      "name": "tokenName",
      "outputs": [
        {
          "internalType": "string",
          "name": "",
          "type": "string"
        }
      ],
      "stateMutability": "view",
      "type": "function"
    },
    {
      "inputs": [],
      "name": "tokenSymbol",
      "outputs": [
        {
          "internalType": "string",
          "name": "",
          "type": "string"
        }
      ],
      "stateMutability": "view",
      "type": "function"
    },
    {
      "inputs": [],
      "name": "totalSupply",
      "outputs": [
        {
          "internalType": "uint256",
          "name": "",
          "type": "uint256"
        }
      ],
      "stateMutability": "view",
      "type": "function"
    },
    {
      "inputs": [
        {
          "internalType": "address",
          "name": "to",
          "type": "address"
        },
        {
          "internalType": "uint256",
          "name": "amount",
          "type": "uint256"
        }
      ],
      "name": "transfer",
      "outputs": [
        {
          "internalType": "bool",
          "name": "success",
          "type": "bool"
        }
      ],
      "stateMutability": "nonpayable",
      "type": "function"
    },
    {
      "inputs": [
        {
          "internalType": "address",
          "name": "from",
          "type": "address"
        },
        {
          "internalType": "address",
          "name": "to",
          "type": "address"
        },
        {
          "internalType": "uint256",
          "name": "amount",
          "type": "uint256"
        }
      ],
      "name": "transferFrom",
      "outputs": [
        {
          "internalType": "bool",
          "name": "success",
          "type": "bool"
        }
      ],
      "stateMutability": "nonpayable",
      "type": "function"
    },
    {
      "inputs": [],
      "name": "world",
      "outputs": [
        {
          "internalType": "contract IWorld",
          "name": "",
          "type": "address"
        }
      ],
      "stateMutability": "view",
      "type": "function"
    },
    {
      "inputs": [],
      "name": "worldAssetFactory",
      "outputs": [
        {
          "internalType": "contract IWorldAssetFactory",
          "name": "",
          "type": "address"
        }
      ],
      "stateMutability": "view",
      "type": "function"
    }
  ],
  "bytecode": "0x608060405234801561001057600080fd5b5060408051602080820183526000808352835191820190935291825290600361003983826100ed565b50600461004682826100ed565b5050506101ab565b634e487b7160e01b600052604160045260246000fd5b600181811c9082168061007857607f821691505b60208210810361009857634e487b7160e01b600052602260045260246000fd5b50919050565b601f8211156100e857806000526020600020601f840160051c810160208510156100c55750805b601f840160051c820191505b818110156100e557600081556001016100d1565b50505b505050565b81516001600160401b038111156101065761010661004e565b61011a816101148454610064565b8461009e565b6020601f82116001811461014e57600083156101365750848201515b600019600385901b1c1916600184901b1784556100e5565b600084815260208120601f198516915b8281101561017e578785015182556020948501946001909201910161015e565b508482101561019c5786840151600019600387901b60f8161c191681555b50505050600190811b01905550565b612e7f806101ba6000396000f3fe608060405234801561001057600080fd5b50600436106101795760003560e01c80636c02a931116100d957806395d89b411161008757806395d89b41146102cc578063a457c2d7146102d4578063a9059cbb146102e7578063dd62ed3e146102fa578063dd8aaa4f1461030d578063eae3360214610320578063ece56a1a1461033357600080fd5b80636c02a9311461027e57806370a082311461028657806379cc6790146102995780637b103999146102ac5780637b61c320146102b45780637d884c74146102bc57806384ba89e3146102c457600080fd5b806330b67baa1161013657806330b67baa14610210578063313ce56714610218578063395093511461022757806340c10f191461023a57806342966c681461024f57806346aced0d146102625780634ddf47d41461026b57600080fd5b806306fdde031461017e578063095ea7b31461019c5780630b4e99c3146101bf578063143e55e0146101d557806318160ddd146101f557806323b872dd146101fd575b600080fd5b61018661033b565b6040516101939190612756565b60405180910390f35b6101af6101aa36600461279e565b610393565b6040519015158152602001610193565b6101c76103ad565b604051908152602001610193565b6101dd6103ea565b6040516001600160a01b039091168152602001610193565b6002546101c7565b6101af61020b3660046127ca565b61046e565b6101dd6105f6565b60405160128152602001610193565b6101af61023536600461279e565b610600565b61024d61024836600461279e565b610622565b005b61024d61025d36600461280b565b610638565b6101c760085481565b61024d6102793660046128b9565b610644565b610186610791565b6101c7610294366004612938565b61081f565b61024d6102a736600461279e565b610963565b6101dd610985565b6101866109cc565b6101c76109d9565b6101c7610a16565b610186610a53565b6101af6102e236600461279e565b610a67565b6101af6102f536600461279e565b610aed565b6101c7610308366004612955565b610c3a565b61024d61031b3660046127ca565b610c65565b6101c761032e366004612938565b610c7d565b6101dd610c9b565b6060600660405160200161034f91906129c8565b60405160208183030381529060405261036e6103696109d9565b610ce2565b60405160200161037f929190612a46565b604051602081830303815290604052905090565b6000336103a1818585610d74565b60019150505b92915050565b604080516020808252818301909252600091309183918291906020820181803683370190505090506020607a60208301853c602001519392505050565b60006103f46105f6565b6001600160a01b031663720a70bd61040a6109d9565b6040518263ffffffff1660e01b815260040161042891815260200190565b602060405180830381865afa158015610445573d6000803e3d6000fd5b505050506040513d601f19601f820116820180604052508101906104699190612a75565b905090565b6040805180820190915260088152676275696c64696e6760c01b6020909101526000600080516020612e2a8339815191526104a76105f6565b6001600160a01b031663ebbe80346104bd6109d9565b866040518363ffffffff1660e01b81526004016104db929190612a92565b602060405180830381865afa1580156104f8573d6000803e3d6000fd5b505050506040513d601f19601f8201168201806040525081019061051c9190612aa9565b14801561059357506008546040516348048c3960e11b815260048101919091526001600160a01b03841690639009187290602401602060405180830381865afa15801561056d573d6000803e3d6000fd5b505050506040513d601f19601f820116820180604052508101906105919190612ad7565b155b156105b157604051638c482f0560e01b815260040160405180910390fd5b6105ba33610e98565b806105c957506105c933610f41565b156105e1576105d9848484610fc6565b5060016105ef565b6105ec8484846117a2565b90505b9392505050565b60006104696117bb565b6000336103a18185856106138383610c3a565b61061d9190612b08565b610d74565b61062a6117f8565b61063482826118b0565b5050565b61064181611d35565b50565b600554610100900460ff16158080156106645750600554600160ff909116105b8061067e5750303b15801561067e575060055460ff166001145b6106e65760405162461bcd60e51b815260206004820152602e60248201527f496e697469616c697a61626c653a20636f6e747261637420697320616c72656160448201526d191e481a5b9a5d1a585b1a5e995960921b60648201526084015b60405180910390fd5b6005805460ff191660011790558015610709576005805461ff0019166101001790555b6000806000848060200190518101906107229190612b68565b9194509250905060066107358482612c22565b5060076107428382612c22565b5060085550508015610634576005805461ff0019169055604051600181527f7f26b83ff96e1f2b6a682f133852f6798a09c465da95921460cefb38474024989060200160405180910390a15050565b6006805461079e9061298e565b80601f01602080910402602001604051908101604052809291908181526020018280546107ca9061298e565b80156108175780601f106107ec57610100808354040283529160200191610817565b820191906000526020600020905b8154815290600101906020018083116107fa57829003601f168201915b505050505081565b6040805180820190915260088152676275696c64696e6760c01b6020909101526000600080516020612e2a8339815191526108586105f6565b6001600160a01b031663ebbe803461086e6109d9565b856040518363ffffffff1660e01b815260040161088c929190612a92565b602060405180830381865afa1580156108a9573d6000803e3d6000fd5b505050506040513d601f19601f820116820180604052508101906108cd9190612aa9565b0361094557600854604051631e9738d160e01b815260048101919091524260248201526001600160a01b03831690631e9738d190604401602060405180830381865afa158015610921573d6000803e3d6000fd5b505050506040513d601f19601f820116820180604052508101906103a79190612aa9565b6001600160a01b0382166000908152602081905260409020546103a7565b61096c33610e98565b1561097b576106348282611d3b565b6106348282611eae565b600061098f6105f6565b6001600160a01b0316637b1039996040518163ffffffff1660e01b8152600401602060405180830381865afa158015610445573d6000803e3d6000fd5b6007805461079e9061298e565b604080516020808252818301909252600091309183918291906020820181803683370190505090506020609a60208301853c602001519392505050565b604080516020808252818301909252600091309183918291906020820181803683370190505090506020605a60208301853c602001519392505050565b6060600760405160200161034f91906129c8565b60003381610a758286610c3a565b905083811015610ad55760405162461bcd60e51b815260206004820152602560248201527f45524332303a2064656372656173656420616c6c6f77616e63652062656c6f77604482015264207a65726f60d81b60648201526084016106dd565b610ae28286868403610d74565b506001949350505050565b6040805180820190915260088152676275696c64696e6760c01b6020909101526000600080516020612e2a833981519152610b266105f6565b6001600160a01b031663ebbe8034610b3c6109d9565b866040518363ffffffff1660e01b8152600401610b5a929190612a92565b602060405180830381865afa158015610b77573d6000803e3d6000fd5b505050506040513d601f19601f82011682018060405250810190610b9b9190612aa9565b148015610c1257506008546040516348048c3960e11b815260048101919091526001600160a01b03841690639009187290602401602060405180830381865afa158015610bec573d6000803e3d6000fd5b505050506040513d601f19601f82011682018060405250810190610c109190612ad7565b155b15610c3057604051638c482f0560e01b815260040160405180910390fd5b6105ef8383611ec3565b6001600160a01b03918216600090815260016020908152604080832093909416825291909152205490565b610c6d611ed1565b610c78838383612007565b505050565b6001600160a01b0381166000908152602081905260408120546103a7565b6000610ca5610985565b6001600160a01b031663ece56a1a6040518163ffffffff1660e01b8152600401602060405180830381865afa158015610445573d6000803e3d6000fd5b60606000610cef8361207b565b60010190506000816001600160401b03811115610d0e57610d0e612824565b6040519080825280601f01601f191660200182016040528015610d38576020820181803683370190505b5090508181016020015b600019016f181899199a1a9b1b9c1cb0b131b232b360811b600a86061a8153600a8504945084610d4257509392505050565b6001600160a01b038316610dd65760405162461bcd60e51b8152602060048201526024808201527f45524332303a20617070726f76652066726f6d20746865207a65726f206164646044820152637265737360e01b60648201526084016106dd565b6001600160a01b038216610e375760405162461bcd60e51b815260206004820152602260248201527f45524332303a20617070726f766520746f20746865207a65726f206164647265604482015261737360f01b60648201526084016106dd565b6001600160a01b0383811660008181526001602090815260408083209487168084529482529182902085905590518481527f8c5be1e5ebec7d5bd14f71427d1e84f3dd0314c0f7b2291e5b200ac8c7c3b925910160405180910390a3505050565b600080610ea36105f6565b9050806001600160a01b0316836001600160a01b031614806105ef575060006001600160a01b03821663ebbe8034610ed96109d9565b866040518363ffffffff1660e01b8152600401610ef7929190612a92565b602060405180830381865afa158015610f14573d6000803e3d6000fd5b505050506040513d601f19601f82011682018060405250810190610f389190612aa9565b14159392505050565b6000816001600160a01b0316610f556105f6565b6001600160a01b03166366666aa96040518163ffffffff1660e01b8152600401602060405180830381865afa158015610f92573d6000803e3d6000fd5b505050506040513d601f19601f82011682018060405250810190610fb69190612a75565b6001600160a01b03161492915050565b6000610fd06105f6565b90506000610fdc6109d9565b60408051808201825260088152676275696c64696e6760c01b60209091015251633aefa00d60e21b8152909150600090600080516020612e2a833981519152906001600160a01b0385169063ebbe80349061103d9086908b90600401612a92565b602060405180830381865afa15801561105a573d6000803e3d6000fd5b505050506040513d601f19601f8201168201806040525081019061107e9190612aa9565b60408051808201825260088152676275696c64696e6760c01b60209091015251633aefa00d60e21b815291149150600090600080516020612e2a833981519152906001600160a01b0386169063ebbe8034906110e09087908b90600401612a92565b602060405180830381865afa1580156110fd573d6000803e3d6000fd5b505050506040513d601f19601f820116820180604052508101906111219190612aa9565b149050600082611132576000611140565b611140600854896001612153565b905060008261115057600061115e565b61115e600854896001612153565b905083156111ba57886001600160a01b0316631d8557d76040518163ffffffff1660e01b8152600401600060405180830381600087803b1580156111a157600080fd5b505af11580156111b5573d6000803e3d6000fd5b505050505b821561121457876001600160a01b0316631d8557d76040518163ffffffff1660e01b8152600401600060405180830381600087803b1580156111fb57600080fd5b505af115801561120f573d6000803e3d6000fd5b505050505b83801561121e5750825b80156112275750815b80156112305750805b156112455761124089898961223a565b6113f1565b82801561124f5750805b15611260576112408989600061223a565b82156113e6576000886001600160a01b031663c45f10006040518163ffffffff1660e01b8152600401602060405180830381865afa1580156112a6573d6000803e3d6000fd5b505050506040513d601f19601f820116820180604052508101906112ca9190612a75565b90506000816001600160a01b031663e6c15c996040518163ffffffff1660e01b8152600401602060405180830381865afa15801561130c573d6000803e3d6000fd5b505050506040513d601f19601f820116820180604052508101906113309190612a75565b6001600160a01b031663d2bb2eae6040518163ffffffff1660e01b8152600401602060405180830381865afa15801561136d573d6000803e3d6000fd5b505050506040513d601f19601f820116820180604052508101906113919190612aa9565b90506000670de0b6b3a76400006113a8838c612ce0565b6113b29190612cf7565b905060006113c0828c612d19565b90506113cd8d8d8361223a565b81156113dd576113dd8d836123de565b505050506113f1565b6113f189898961223a565b83156115c457886001600160a01b031663e145c3ad6040518163ffffffff1660e01b8152600401600060405180830381600087803b15801561143257600080fd5b505af1158015611446573d6000803e3d6000fd5b50505050600061145a6008548b6000612153565b905080156115c25760008a6001600160a01b031663c45f10006040518163ffffffff1660e01b8152600401602060405180830381865afa1580156114a2573d6000803e3d6000fd5b505050506040513d601f19601f820116820180604052508101906114c69190612a75565b9050806001600160a01b031663e6c15c996040518163ffffffff1660e01b8152600401602060405180830381865afa158015611506573d6000803e3d6000fd5b505050506040513d601f19601f8201168201806040525081019061152a9190612a75565b6001600160a01b031663e85b89d982670de0b6b3a76400008c61154e600854612510565b6115589190612ce0565b6115629190612cf7565b6040516001600160e01b031960e085901b1681526001600160a01b0390921660048301526024820152604401600060405180830381600087803b1580156115a857600080fd5b505af11580156115bc573d6000803e3d6000fd5b50505050505b505b821561179757876001600160a01b031663e145c3ad6040518163ffffffff1660e01b8152600401600060405180830381600087803b15801561160557600080fd5b505af1158015611619573d6000803e3d6000fd5b50505050600061162d6008548a6000612153565b90508015611795576000896001600160a01b031663c45f10006040518163ffffffff1660e01b8152600401602060405180830381865afa158015611675573d6000803e3d6000fd5b505050506040513d601f19601f820116820180604052508101906116999190612a75565b9050806001600160a01b031663e6c15c996040518163ffffffff1660e01b8152600401602060405180830381865afa1580156116d9573d6000803e3d6000fd5b505050506040513d601f19601f820116820180604052508101906116fd9190612a75565b6001600160a01b0316635053c29982670de0b6b3a76400008c611721600854612510565b61172b9190612ce0565b6117359190612cf7565b6040516001600160e01b031960e085901b1681526001600160a01b0390921660048301526024820152604401600060405180830381600087803b15801561177b57600080fd5b505af115801561178f573d6000803e3d6000fd5b50505050505b505b505050505050505050565b6000336117b0858285612007565b610ae2858585610fc6565b604080516014808252818301909252600091309183918291906020820181803683370190505090506014602a60208301853c601401519392505050565b60006118026105f6565b9050336001600160a01b03821614801590611892575060006001600160a01b03821663ebbe80346118316109d9565b336040518363ffffffff1660e01b815260040161184f929190612a92565b602060405180830381865afa15801561186c573d6000803e3d6000fd5b505050506040513d601f19601f820116820180604052508101906118909190612aa9565b145b156106415760405163422656d160e01b815260040160405180910390fd5b6040805180820190915260088152676275696c64696e6760c01b6020909101526000600080516020612e2a8339815191526118e96105f6565b6001600160a01b031663ebbe80346118ff6109d9565b866040518363ffffffff1660e01b815260040161191d929190612a92565b602060405180830381865afa15801561193a573d6000803e3d6000fd5b505050506040513d601f19601f8201168201806040525081019061195e9190612aa9565b14905060008161196f57600061197d565b61197d600854856001612153565b905081156119d957836001600160a01b0316631d8557d76040518163ffffffff1660e01b8152600401600060405180830381600087803b1580156119c057600080fd5b505af11580156119d4573d6000803e3d6000fd5b505050505b8180156119e4575080155b15611b58576000846001600160a01b031663c45f10006040518163ffffffff1660e01b8152600401602060405180830381865afa158015611a29573d6000803e3d6000fd5b505050506040513d601f19601f82011682018060405250810190611a4d9190612a75565b90506000816001600160a01b031663e6c15c996040518163ffffffff1660e01b8152600401602060405180830381865afa158015611a8f573d6000803e3d6000fd5b505050506040513d601f19601f82011682018060405250810190611ab39190612a75565b6001600160a01b031663d2bb2eae6040518163ffffffff1660e01b8152600401602060405180830381865afa158015611af0573d6000803e3d6000fd5b505050506040513d601f19601f82011682018060405250810190611b149190612aa9565b90506000670de0b6b3a7640000611b2b8388612ce0565b611b359190612cf7565b90506000611b438288612d19565b9050611b4f8882612673565b50505050611b62565b611b628484612673565b8115611d2f57836001600160a01b031663e145c3ad6040518163ffffffff1660e01b8152600401600060405180830381600087803b158015611ba357600080fd5b505af1158015611bb7573d6000803e3d6000fd5b505050506000611bcb600854866000612153565b90508015611d2d576000856001600160a01b031663c45f10006040518163ffffffff1660e01b8152600401602060405180830381865afa158015611c13573d6000803e3d6000fd5b505050506040513d601f19601f82011682018060405250810190611c379190612a75565b9050806001600160a01b031663e6c15c996040518163ffffffff1660e01b8152600401602060405180830381865afa158015611c77573d6000803e3d6000fd5b505050506040513d601f19601f82011682018060405250810190611c9b9190612a75565b6001600160a01b0316635053c29982670de0b6b3a764000088611cbf600854612510565b611cc99190612ce0565b611cd39190612cf7565b6040516001600160e01b031960e085901b1681526001600160a01b0390921660048301526024820152604401600060405180830381600087803b158015611d1957600080fd5b505af1158015611795573d6000803e3d6000fd5b505b50505050565b61064133825b6040805180820190915260088152676275696c64696e6760c01b6020909101526000600080516020612e2a833981519152611d746105f6565b6001600160a01b031663ebbe8034611d8a6109d9565b866040518363ffffffff1660e01b8152600401611da8929190612a92565b602060405180830381865afa158015611dc5573d6000803e3d6000fd5b505050506040513d601f19601f82011682018060405250810190611de99190612aa9565b1490508015611e4657826001600160a01b0316631d8557d76040518163ffffffff1660e01b8152600401600060405180830381600087803b158015611e2d57600080fd5b505af1158015611e41573d6000803e3d6000fd5b505050505b611e5083836123de565b8015610c7857826001600160a01b031663e145c3ad6040518163ffffffff1660e01b8152600401600060405180830381600087803b158015611e9157600080fd5b505af1158015611ea5573d6000803e3d6000fd5b50505050505050565b611eb9823383612007565b6106348282611d3b565b6000336103a1818585610fc6565b6000611edb6105f6565b9050336001600160a01b03821614801590611f6b575060006001600160a01b03821663ebbe8034611f0a6109d9565b336040518363ffffffff1660e01b8152600401611f28929190612a92565b602060405180830381865afa158015611f45573d6000803e3d6000fd5b505050506040513d601f19601f82011682018060405250810190611f699190612aa9565b145b8015611fea5750806001600160a01b03166366666aa96040518163ffffffff1660e01b8152600401602060405180830381865afa158015611fb0573d6000803e3d6000fd5b505050506040513d601f19601f82011682018060405250810190611fd49190612a75565b6001600160a01b0316336001600160a01b031614155b1561064157604051621c1f0560e91b815260040160405180910390fd5b60006120138484610c3a565b90506000198114611d2f578181101561206e5760405162461bcd60e51b815260206004820152601d60248201527f45524332303a20696e73756666696369656e7420616c6c6f77616e636500000060448201526064016106dd565b611d2f8484848403610d74565b60008072184f03e93ff9f4daa797ed6e38ed64bf6a1f0160401b83106120ba5772184f03e93ff9f4daa797ed6e38ed64bf6a1f0160401b830492506040015b6d04ee2d6d415b85acef810000000083106120e6576d04ee2d6d415b85acef8100000000830492506020015b662386f26fc10000831061210457662386f26fc10000830492506010015b6305f5e100831061211c576305f5e100830492506008015b612710831061213057612710830492506004015b60648310612142576064830492506002015b600a83106103a75760010192915050565b600080836001600160a01b031663c3f909d46040518163ffffffff1660e01b8152600401600060405180830381865afa158015612194573d6000803e3d6000fd5b505050506040513d6000823e601f3d908101601f191682016040526121bc9190810190612d2c565b905060005b815181101561222e578315158282815181106121df576121df612e13565b6020026020010151604001511515148015612216575081818151811061220757612207612e13565b60200260200101516000015186145b15612226576001925050506105ef565b6001016121c1565b50600095945050505050565b6001600160a01b03831661229e5760405162461bcd60e51b815260206004820152602560248201527f45524332303a207472616e736665722066726f6d20746865207a65726f206164604482015264647265737360d81b60648201526084016106dd565b6001600160a01b0382166123005760405162461bcd60e51b815260206004820152602360248201527f45524332303a207472616e7366657220746f20746865207a65726f206164647260448201526265737360e81b60648201526084016106dd565b6001600160a01b038316600090815260208190526040902054818110156123785760405162461bcd60e51b815260206004820152602660248201527f45524332303a207472616e7366657220616d6f756e7420657863656564732062604482015265616c616e636560d01b60648201526084016106dd565b6001600160a01b03848116600081815260208181526040808320878703905593871680835291849020805487019055925185815290927fddf252ad1be2c89b69c2b068fc378daa952ba7f163c4a11628f55a4df523b3ef910160405180910390a3611d2f565b6001600160a01b03821661243e5760405162461bcd60e51b815260206004820152602160248201527f45524332303a206275726e2066726f6d20746865207a65726f206164647265736044820152607360f81b60648201526084016106dd565b6001600160a01b038216600090815260208190526040902054818110156124b25760405162461bcd60e51b815260206004820152602260248201527f45524332303a206275726e20616d6f756e7420657863656564732062616c616e604482015261636560f01b60648201526084016106dd565b6001600160a01b0383166000818152602081815260408083208686039055600280548790039055518581529192917fddf252ad1be2c89b69c2b068fc378daa952ba7f163c4a11628f55a4df523b3ef910160405180910390a3505050565b6040805180820190915260048152631193d3d160e21b60209091015260007fd090a5d9e290baeb3c0f657cb8df01a7c37d0d11b8a73165ba04298bd71606c382016125645750670429d069189e0000919050565b60408051808201909152600481526315d3d3d160e21b6020909101527fa0c2c402a49ee67eb7d8a3e87eb93de113a3a54817e8a70c39ae8ab51c0e12be82016125b65750670de0b6b3a7640000919050565b6040805180820190915260038152624f524560e81b6020909101527f624ae31110c92d70b58ec456bb42524ff16773a98936d8ef150f1e6b104b34ab820161260757506729a2241af62c0000919050565b604080518082019091526005815264125391d3d560da1b6020909101527f0b2c26746c5e8d6f1877c4437947c29fc4d8103cd72878c4c039b7afe27c1a8e820161265a5750678ac7230489e80000919050565b60405163ea3b0abb60e01b815260040160405180910390fd5b6001600160a01b0382166126c95760405162461bcd60e51b815260206004820152601f60248201527f45524332303a206d696e7420746f20746865207a65726f20616464726573730060448201526064016106dd565b80600260008282546126db9190612b08565b90915550506001600160a01b038216600081815260208181526040808320805486019055518481527fddf252ad1be2c89b69c2b068fc378daa952ba7f163c4a11628f55a4df523b3ef910160405180910390a35050565b60005b8381101561274d578181015183820152602001612735565b50506000910152565b6020815260008251806020840152612775816040850160208701612732565b601f01601f19169190910160400192915050565b6001600160a01b038116811461064157600080fd5b600080604083850312156127b157600080fd5b82356127bc81612789565b946020939093013593505050565b6000806000606084860312156127df57600080fd5b83356127ea81612789565b925060208401356127fa81612789565b929592945050506040919091013590565b60006020828403121561281d57600080fd5b5035919050565b634e487b7160e01b600052604160045260246000fd5b604051606081016001600160401b038111828210171561285c5761285c612824565b60405290565b604051601f8201601f191681016001600160401b038111828210171561288a5761288a612824565b604052919050565b60006001600160401b038211156128ab576128ab612824565b50601f01601f191660200190565b6000602082840312156128cb57600080fd5b81356001600160401b038111156128e157600080fd5b8201601f810184136128f257600080fd5b803561290561290082612892565b612862565b81815285602083850101111561291a57600080fd5b81602084016020830137600091810160200191909152949350505050565b60006020828403121561294a57600080fd5b81356105ef81612789565b6000806040838503121561296857600080fd5b823561297381612789565b9150602083013561298381612789565b809150509250929050565b600181811c908216806129a257607f821691505b6020821081036129c257634e487b7160e01b600052602260045260246000fd5b50919050565b60008083546129d68161298e565b6001821680156129ed5760018114612a0257612a32565b60ff1983168652811515820286019350612a32565b86600052602060002060005b83811015612a2a57815488820152600190910190602001612a0e565b505081860193505b5050608160f61b8252506002019392505050565b60008351612a58818460208801612732565b835190830190612a6c818360208801612732565b01949350505050565b600060208284031215612a8757600080fd5b81516105ef81612789565b9182526001600160a01b0316602082015260400190565b600060208284031215612abb57600080fd5b5051919050565b80518015158114612ad257600080fd5b919050565b600060208284031215612ae957600080fd5b6105ef82612ac2565b634e487b7160e01b600052601160045260246000fd5b808201808211156103a7576103a7612af2565b600082601f830112612b2c57600080fd5b8151612b3a61290082612892565b818152846020838601011115612b4f57600080fd5b612b60826020830160208701612732565b949350505050565b600080600060608486031215612b7d57600080fd5b83516001600160401b03811115612b9357600080fd5b612b9f86828701612b1b565b93505060208401516001600160401b03811115612bbb57600080fd5b612bc786828701612b1b565b604095909501519396949550929392505050565b601f821115610c7857806000526020600020601f840160051c81016020851015612c025750805b601f840160051c820191505b81811015611d2d5760008155600101612c0e565b81516001600160401b03811115612c3b57612c3b612824565b612c4f81612c49845461298e565b84612bdb565b6020601f821160018114612c835760008315612c6b5750848201515b600019600385901b1c1916600184901b178455611d2d565b600084815260208120601f198516915b82811015612cb35787850151825560209485019460019092019101612c93565b5084821015612cd15786840151600019600387901b60f8161c191681555b50505050600190811b01905550565b80820281158282048414176103a7576103a7612af2565b600082612d1457634e487b7160e01b600052601260045260246000fd5b500490565b818103818111156103a7576103a7612af2565b600060208284031215612d3e57600080fd5b81516001600160401b03811115612d5457600080fd5b8201601f81018413612d6557600080fd5b80516001600160401b03811115612d7e57612d7e612824565b612d8d60208260051b01612862565b80828252602082019150602060608402850101925086831115612daf57600080fd5b6020840193505b82841015612e095760608488031215612dce57600080fd5b612dd661283a565b8451815260208086015190820152612df060408601612ac2565b6040820152825260609390930192602090910190612db6565b9695505050505050565b634e487b7160e01b600052603260045260246000fdfe010b6fd4eff8a0ca8c7925f2d29e6173e90462d56ae99e39fa817c79f4028518a2646970667358221220f9d4bd7b3f5a78942c696a7654fb409f8c12cc13933f66581951f6b90452586564736f6c634300081a0033",
  "linkReferences": {},
  "deployedLinkReferences": {}
}