{
  "_format": "hh-sol-artifact-1",
  "contractName": "EraView",
  "sourceName": "contracts/periphery/EraView.sol",
  "abi": [
    {
      "inputs": [
        {
          "internalType": "address",
          "name": "settlementAddress",
          "type": "address"
        }
      ],
      "name": "destroySettlementWithRegionActivation",
      "outputs": [],
      "stateMutability": "nonpayable",
      "type": "function"
    },
    {
      "inputs": [
        {
          "internalType": "address",
          "name": "eraAddress",
          "type": "address"
        },
        {
          "internalType": "uint256[]",
          "name": "bannerIds",
          "type": "uint256[]"
        }
      ],
      "name": "getUserSettlements",
      "outputs": [
        {
          "internalType": "address[]",
          "name": "",
          "type": "address[]"
        }
      ],
      "stateMutability": "view",
      "type": "function"
    },
    {
      "inputs": [
        {
          "internalType": "address",
          "name": "eraAddress",
          "type": "address"
        },
        {
          "internalType": "uint64",
          "name": "position",
          "type": "uint64"
        },
        {
          "internalType": "uint64",
          "name": "regionId",
          "type": "uint64"
        }
      ],
      "name": "restoreSettlementWithRegionActivation",
      "outputs": [],
      "stateMutability": "nonpayable",
      "type": "function"
    }
  ],
  "bytecode": "0x6080604052348015600f57600080fd5b506108cb8061001f6000396000f3fe608060405234801561001057600080fd5b50600436106100415760003560e01c80631219a79f146100465780637a56efa31461005b5780638692fa911461006e575b600080fd5b61005961005436600461067c565b610097565b005b6100596100693660046106c7565b6101e6565b61008161007c366004610701565b610532565b60405161008e91906107e0565b60405180910390f35b60405163c5375e9960e01b81526001600160401b038216600482015283906000906001600160a01b0383169063c5375e9990602401602060405180830381865afa1580156100e9573d6000803e3d6000fd5b505050506040513d601f19601f8201168201806040525081019061010d919061082c565b6001600160a01b03160361017e576040516329dfc8a560e01b81526001600160401b03831660048201526001600160a01b038216906329dfc8a590602401600060405180830381600087803b15801561016557600080fd5b505af1158015610179573d6000803e3d6000fd5b505050505b604051638b68214d60e01b81526001600160401b03841660048201526001600160a01b03821690638b68214d90602401600060405180830381600087803b1580156101c857600080fd5b505af11580156101dc573d6000803e3d6000fd5b5050505050505050565b600081905060008290506000816001600160a01b03166330b67baa6040518163ffffffff1660e01b8152600401602060405180830381865afa158015610230573d6000803e3d6000fd5b505050506040513d601f19601f82011682018060405250810190610254919061082c565b90506000816001600160a01b031663720a70bd836001600160a01b031663704f63a16040518163ffffffff1660e01b8152600401602060405180830381865afa1580156102a5573d6000803e3d6000fd5b505050506040513d601f19601f820116820180604052508101906102c99190610849565b6040518263ffffffff1660e01b81526004016102e791815260200190565b602060405180830381865afa158015610304573d6000803e3d6000fd5b505050506040513d601f19601f82011682018060405250810190610328919061082c565b90506000846001600160a01b031663e6c15c996040518163ffffffff1660e01b8152600401602060405180830381865afa15801561036a573d6000803e3d6000fd5b505050506040513d601f19601f8201168201806040525081019061038e919061082c565b6001600160a01b031663b2fd89336040518163ffffffff1660e01b8152600401602060405180830381865afa1580156103cb573d6000803e3d6000fd5b505050506040513d601f19601f820116820180604052508101906103ef9190610862565b60405163c5375e9960e01b81526001600160401b03821660048201529091506000906001600160a01b0384169063c5375e9990602401602060405180830381865afa158015610442573d6000803e3d6000fd5b505050506040513d601f19601f82011682018060405250810190610466919061082c565b6001600160a01b0316036104d7576040516329dfc8a560e01b81526001600160401b03821660048201526001600160a01b038316906329dfc8a590602401600060405180830381600087803b1580156104be57600080fd5b505af11580156104d2573d6000803e3d6000fd5b505050505b846001600160a01b03166352fa2c8e6040518163ffffffff1660e01b8152600401600060405180830381600087803b15801561051257600080fd5b505af1158015610526573d6000803e3d6000fd5b50505050505050505050565b60606000839050600083516001600160401b03811115610554576105546106eb565b60405190808252806020026020018201604052801561057d578160200160208202803683370190505b50905060005b845181101561064657826001600160a01b031663ebe63ec88683815181106105ad576105ad61087f565b60200260200101516040518263ffffffff1660e01b81526004016105d391815260200190565b602060405180830381865afa1580156105f0573d6000803e3d6000fd5b505050506040513d601f19601f82011682018060405250810190610614919061082c565b8282815181106106265761062661087f565b6001600160a01b0390921660209283029190910190910152600101610583565b50949350505050565b6001600160a01b038116811461066457600080fd5b50565b6001600160401b038116811461066457600080fd5b60008060006060848603121561069157600080fd5b833561069c8161064f565b925060208401356106ac81610667565b915060408401356106bc81610667565b809150509250925092565b6000602082840312156106d957600080fd5b81356106e48161064f565b9392505050565b634e487b7160e01b600052604160045260246000fd5b6000806040838503121561071457600080fd5b823561071f8161064f565b915060208301356001600160401b0381111561073a57600080fd5b8301601f8101851361074b57600080fd5b80356001600160401b03811115610764576107646106eb565b8060051b604051601f19603f83011681018181106001600160401b0382111715610790576107906106eb565b6040529182526020818401810192908101888411156107ae57600080fd5b6020850194505b838510156107d1578435808252602095860195909350016107b5565b50809450505050509250929050565b602080825282518282018190526000918401906040840190835b818110156108215783516001600160a01b03168352602093840193909201916001016107fa565b509095945050505050565b60006020828403121561083e57600080fd5b81516106e48161064f565b60006020828403121561085b57600080fd5b5051919050565b60006020828403121561087457600080fd5b81516106e481610667565b634e487b7160e01b600052603260045260246000fdfea2646970667358221220046f0e35977e0c8c1f92fb38f6b55a47c801528e83bdff3b6309aac2d02eccce64736f6c634300081a0033",
  "linkReferences": {},
  "deployedLinkReferences": {}
}