{
  "_format": "hh-sol-artifact-1",
  "contractName": "ArmyView",
  "sourceName": "contracts/periphery/ArmyView.sol",
  "abi": [
    {
      "inputs": [
        {
          "internalType": "address",
          "name": "armyAddress",
          "type": "address"
        },
        {
          "internalType": "uint256",
          "name": "timestamp",
          "type": "uint256"
        }
      ],
      "name": "getArmyCombinedData",
      "outputs": [
        {
          "components": [
            {
              "internalType": "address",
              "name": "id",
              "type": "address"
            },
            {
              "internalType": "address",
              "name": "owner",
              "type": "address"
            },
            {
              "internalType": "address",
              "name": "ownerSettlementId",
              "type": "address"
            },
            {
              "internalType": "uint64",
              "name": "currentPosition",
              "type": "uint64"
            },
            {
              "internalType": "address",
              "name": "currentPositionSettlementId",
              "type": "address"
            },
            {
              "internalType": "uint64",
              "name": "destinationPosition",
              "type": "uint64"
            },
            {
              "internalType": "address",
              "name": "destinationPositionSettlementId",
              "type": "address"
            },
            {
              "internalType": "uint64",
              "name": "secretDestinationRegionId",
              "type": "uint64"
            },
            {
              "internalType": "bytes32",
              "name": "secretDestinationPosition",
              "type": "bytes32"
            },
            {
              "internalType": "uint64",
              "name": "maneuverBeginTime",
              "type": "uint64"
            },
            {
              "internalType": "uint64",
              "name": "maneuverEndTime",
              "type": "uint64"
            },
            {
              "internalType": "address",
              "name": "battleId",
              "type": "address"
            },
            {
              "internalType": "uint256[]",
              "name": "units",
              "type": "uint256[]"
            },
            {
              "internalType": "uint256[]",
              "name": "besiegingUnits",
              "type": "uint256[]"
            },
            {
              "internalType": "uint256",
              "name": "robberyPoints",
              "type": "uint256"
            },
            {
              "internalType": "uint64",
              "name": "stunBeginTime",
              "type": "uint64"
            },
            {
              "internalType": "uint64",
              "name": "stunEndTime",
              "type": "uint64"
            }
          ],
          "internalType": "struct ArmyView.ArmyCombinedData",
          "name": "armyCombinedData",
          "type": "tuple"
        }
      ],
      "stateMutability": "view",
      "type": "function"
    }
  ],
  "bytecode": "0x6080604052348015600f57600080fd5b5061177c8061001f6000396000f3fe608060405234801561001057600080fd5b506004361061002b5760003560e01c8063fc26340214610030575b600080fd5b61004361003e366004611209565b610059565b6040516100509190611271565b60405180910390f35b604080516102208101825260008082526020820181905291810182905260608082018390526080820183905260a0820183905260c0820183905260e08201839052610100820183905261012082018390526101408201839052610160820183905261018082018190526101a08201526101c081018290526101e08101829052610200810191909152816000036100ed574291505b60008390506000846001600160a01b03166330b67baa6040518163ffffffff1660e01b8152600401602060405180830381865afa158015610132573d6000803e3d6000fd5b505050506040513d601f19601f820116820180604052508101906101569190611404565b90506000856001600160a01b031663143e55e06040518163ffffffff1660e01b8152600401602060405180830381865afa158015610198573d6000803e3d6000fd5b505050506040513d601f19601f820116820180604052508101906101bc9190611404565b905060006101c8610bb7565b6001600160a01b03808916875260408051636a9a6b1b60e11b815290519293509086169163d534d636916004808201926020929091908290030181865afa158015610217573d6000803e3d6000fd5b505050506040513d601f19601f8201168201806040525081019061023b9190611444565b6001600160401b03166060860181905260405163c4c31e8560e01b815260048101919091526001600160a01b0383169063c4c31e8590602401602060405180830381865afa158015610291573d6000803e3d6000fd5b505050506040513d601f19601f820116820180604052508101906102b59190611404565b6001600160a01b0390811660808701526040805163023956f760e61b8152815192871692638e55bdc0926004808401939192918290030181865afa158015610301573d6000803e3d6000fd5b505050506040513d601f19601f82011682018060405250810190610325919061145f565b6001600160401b03908116610200880152166101e0860152604080516303085db560e51b815290516001600160a01b0386169163610bb6a09160048083019260a09291908290030181865afa158015610382573d6000803e3d6000fd5b505050506040513d601f19601f820116820180604052508101906103a69190611492565b6101008a01526001600160401b0390811660e08a015290811660a0890152908116610140880181905291166101208701526000036103e557600061045c565b60a085015160405163c4c31e8560e01b81526001600160401b0390911660048201526001600160a01b0383169063c4c31e8590602401602060405180830381865afa158015610438573d6000803e3d6000fd5b505050506040513d601f19601f8201168201806040525081019061045c9190611404565b6001600160a01b031660c08601526101408501516001600160401b03161580159061049557508461014001516001600160401b03168610155b156105575760a0850180516001600160401b0316606087015260c0860180516001600160a01b031660808801526000918290528190526101208601516101408701516104e19190611506565b905060006104f26001617080611525565b61014088015190915060006105078383611547565b90508861020001516001600160401b0316816001600160401b03161115610542576001600160401b038083166101e08b015281166102008a01525b50506000610120880181905261014088015250505b61056084610c62565b85602001906001600160a01b031690816001600160a01b031681525050836001600160a01b031663c45f10006040518163ffffffff1660e01b8152600401602060405180830381865afa1580156105bb573d6000803e3d6000fd5b505050506040513d601f19601f820116820180604052508101906105df9190611404565b6001600160a01b0316604086015280516001600160401b0381111561060657610606611566565b60405190808252806020026020018201604052801561062f578160200160208202803683370190505b5061018086015260005b815181101561076057826001600160a01b031663feae7dc38383815181106106635761066361157c565b60200260200101516040518263ffffffff1660e01b815260040161068991815260200190565b602060405180830381865afa1580156106a6573d6000803e3d6000fd5b505050506040513d601f19601f820116820180604052508101906106ca9190611404565b6040516370a0823160e01b81526001600160a01b038a8116600483015291909116906370a0823190602401602060405180830381865afa158015610712573d6000803e3d6000fd5b505050506040513d601f19601f820116820180604052508101906107369190611592565b866101800151828151811061074d5761074d61157c565b6020908102919091010152600101610639565b50836001600160a01b03166344e445456040518163ffffffff1660e01b8152600401602060405180830381865afa15801561079f573d6000803e3d6000fd5b505050506040513d601f19601f820116820180604052508101906107c39190611404565b6001600160a01b0316610160860181905215610a21576101608501516107e98188610d42565b15610a1f576040516339a88e0160e11b81526001600160a01b03898116600483015260009182918416906373511c0290602401600060405180830381865afa158015610839573d6000803e3d6000fd5b505050506040513d6000823e601f3d908101601f191682016040526108619190810190611648565b9150915060005b84518110156108de578181815181106108835761088361157c565b602002602001015189610180015182815181106108a2576108a261157c565b60200260200101516108b4919061169d565b89610180015182815181106108cb576108cb61157c565b6020908102919091010152600101610868565b50600080846001600160a01b031663383f9ac36040518163ffffffff1660e01b8152600401606060405180830381865afa158015610920573d6000803e3d6000fd5b505050506040513d601f19601f8201168201806040525081019061094491906116b0565b509150915060008461095e5767093a8dfa07a28000610968565b6704a628b99fc180005b90506000670de0b6b3a7640000610988836001600160401b0386166116f3565b6109929190611525565b905060006109a08486611547565b905060006109ae8383611547565b90508d61020001516001600160401b0316816001600160401b03161115610a0e57818e6101e001906001600160401b031690816001600160401b031681525050808e61020001906001600160401b031690816001600160401b0316815250505b505060006101608d01525050505050505b505b8461020001516001600160401b03168610610a475760006101e086018190526102008601525b610a5084610de2565b610bad57600085608001516001600160a01b0316632de7e9b06040518163ffffffff1660e01b8152600401602060405180830381865afa158015610a98573d6000803e3d6000fd5b505050506040513d601f19601f82011682018060405250810190610abc9190611404565b604051631f40e7c360e21b81526001600160a01b038a81166004830152602482018a905291925090821690637d039f0c90604401602060405180830381865afa158015610b0d573d6000803e3d6000fd5b505050506040513d601f19601f82011682018060405250810190610b319190611592565b6101c087015260405163417fbd1d60e01b81526001600160a01b03898116600483015282169063417fbd1d90602401600060405180830381865afa158015610b7d573d6000803e3d6000fd5b505050506040513d6000823e601f3d908101601f19168201604052610ba5919081019061170a565b6101a0870152505b5050505092915050565b60606000610bc3610f83565b9050600081516001600160401b03811115610be057610be0611566565b604051908082528060200260200182016040528015610c09578160200160208202803683370190505b50905060005b8151811015610c5b57828181518110610c2a57610c2a61157c565b602002602001015160400151828281518110610c4857610c4861157c565b6020908102919091010152600101610c0f565b5092915050565b6000610c6d82610de2565b15610c79576000610d3c565b816001600160a01b031663c45f10006040518163ffffffff1660e01b8152600401602060405180830381865afa158015610cb7573d6000803e3d6000fd5b505050506040513d601f19601f82011682018060405250810190610cdb9190611404565b6001600160a01b031663b5acd4566040518163ffffffff1660e01b8152600401602060405180830381865afa158015610d18573d6000803e3d6000fd5b505050506040513d601f19601f82011682018060405250810190610d3c9190611404565b92915050565b6000806000846001600160a01b031663383f9ac36040518163ffffffff1660e01b8152600401606060405180830381865afa158015610d85573d6000803e3d6000fd5b505050506040513d601f19601f82011682018060405250810190610da991906116b0565b50915091506000826001600160401b0316118015610dd95750610dcc8183611547565b6001600160401b03168410155b95945050505050565b6000816001600160a01b031663c45f10006040518163ffffffff1660e01b8152600401602060405180830381865afa158015610e22573d6000803e3d6000fd5b505050506040513d601f19601f82011682018060405250810190610e469190611404565b6001600160a01b031663e6c15c996040518163ffffffff1660e01b8152600401602060405180830381865afa158015610e83573d6000803e3d6000fd5b505050506040513d601f19601f82011682018060405250810190610ea79190611404565b6001600160a01b031663c20c92506040518163ffffffff1660e01b8152600401602060405180830381865afa158015610ee4573d6000803e3d6000fd5b505050506040513d601f19601f82011682018060405250810190610f089190611404565b6001600160a01b0316826001600160a01b031663c45f10006040518163ffffffff1660e01b8152600401602060405180830381865afa158015610f4f573d6000803e3d6000fd5b505050506040513d601f19601f82011682018060405250810190610f739190611404565b6001600160a01b03161492915050565b6040805160038082526080820190925260609160009190816020015b60408051606080820183528082526020820152600091810191909152815260200190600190039081610f9f5750506040805160a0810182526011606082019081527026b4ba343930b2bab6902bb0b93934b7b960791b6080830152815281518083018352600881526736aba0a92924a7a960c11b602080830191909152808301919091528251808401845260078152662ba0a92924a7a960c91b9101527f69c5317e5ce44f1a1fb56c6a5eff904214e6353da6310ab0a6b511eef9a7c39191810191909152815191925090829060009061107b5761107b61157c565b6020908102919091018101919091526040805160a0810182526010606082019081526f26b4ba343930b2bab69020b931b432b960811b6080830152815281518083018352600781526636a0a921a422a960c91b818501528184015281518083018352600681526520a921a422a960d11b9301929092527f42de5fbfc07577d3e9942df95dd4e61cabcab8907d5d333240140b2999379e409082015281518290600190811061112b5761112b61157c565b6020908102919091018101919091526040805160a0810182526012606082019081527126b4ba343930b2bab6902437b939b2b6b0b760711b6080830152815281518083018352600981526836a427a929a2a6a0a760b91b81850152818401528151808301835260088152672427a929a2a6a0a760c11b9301929092527f89d5ee6f4fcb32fb3c151bc25e6bc320fec82ba89cb3b29d1969d907e0e67939908201528151829060029081106111e1576111e161157c565b6020908102919091010152919050565b6001600160a01b038116811461120657600080fd5b50565b6000806040838503121561121c57600080fd5b8235611227816111f1565b946020939093013593505050565b600081518084526020840193506020830160005b82811015611267578151865260209586019590910190600101611249565b5093949350505050565b6020815261128b6020820183516001600160a01b03169052565b600060208301516112a760408401826001600160a01b03169052565b5060408301516001600160a01b03811660608401525060608301516001600160401b03811660808401525060808301516001600160a01b03811660a08401525060a08301516001600160401b03811660c08401525060c08301516001600160a01b03811660e08401525060e08301516001600160401b0381166101008401525061010083015161012083015261012083015161134f6101408401826001600160401b03169052565b506101408301516001600160401b038116610160840152506101608301516001600160a01b038116610180840152506101808301516102206101a084015261139b610240840182611235565b90506101a0840151601f19848303016101c08501526113ba8282611235565b9150506101c08401516101e08401526101e08401516113e56102008501826001600160401b03169052565b506102008401516001600160401b038116610220850152509392505050565b60006020828403121561141657600080fd5b8151611421816111f1565b9392505050565b80516001600160401b038116811461143f57600080fd5b919050565b60006020828403121561145657600080fd5b61142182611428565b6000806040838503121561147257600080fd5b61147b83611428565b915061148960208401611428565b90509250929050565b600080600080600060a086880312156114aa57600080fd5b6114b386611428565b94506114c160208701611428565b93506114cf60408701611428565b92506114dd60608701611428565b9150608086015190509295509295909350565b634e487b7160e01b600052601160045260246000fd5b6001600160401b038281168282160390811115610d3c57610d3c6114f0565b60008261154257634e487b7160e01b600052601260045260246000fd5b500490565b6001600160401b038181168382160190811115610d3c57610d3c6114f0565b634e487b7160e01b600052604160045260246000fd5b634e487b7160e01b600052603260045260246000fd5b6000602082840312156115a457600080fd5b5051919050565b600082601f8301126115bc57600080fd5b81516001600160401b038111156115d5576115d5611566565b8060051b604051601f19603f83011681018181106001600160401b038211171561160157611601611566565b60405291825260208185018101929081018684111561161f57600080fd5b6020860192505b8383101561163e578251815260209283019201611626565b5095945050505050565b6000806040838503121561165b57600080fd5b8251801515811461166b57600080fd5b60208401519092506001600160401b0381111561168757600080fd5b611693858286016115ab565b9150509250929050565b81810381811115610d3c57610d3c6114f0565b6000806000606084860312156116c557600080fd5b6116ce84611428565b92506116dc60208501611428565b91506116ea60408501611428565b90509250925092565b8082028115828204841417610d3c57610d3c6114f0565b60006020828403121561171c57600080fd5b81516001600160401b0381111561173257600080fd5b61173e848285016115ab565b94935050505056fea264697066735822122044f381f3498cb1191ae4ab846ee12e34738408861dafbda2e113437a118e635c64736f6c634300081a0033",
  "linkReferences": {},
  "deployedLinkReferences": {}
}