{
  "_format": "hh-sol-artifact-1",
  "contractName": "Era",
  "sourceName": "contracts/core/assets/era/Era.sol",
  "abi": [
    {
      "inputs": [],
      "name": "EraCannotActivateNotIncludedRegion",
      "type": "error"
    },
    {
      "inputs": [],
      "name": "EraCannotActivateRegionMoreThanOnce",
      "type": "error"
    },
    {
      "inputs": [],
      "name": "OnlyActiveGame",
      "type": "error"
    },
    {
      "inputs": [],
      "name": "OnlyMightyCreator",
      "type": "error"
    },
    {
      "inputs": [],
      "name": "OnlyWorldAssetFromSameEra",
      "type": "error"
    },
    {
      "inputs": [],
      "name": "UserSettlementCannotBeCreatedIfBannerNftIdIsAlreadyTakenByAnotherSettlement",
      "type": "error"
    },
    {
      "inputs": [],
      "name": "UserSettlementCannotBeCreatedInInactiveEra",
      "type": "error"
    },
    {
      "inputs": [],
      "name": "UserSettlementCannotBeCreatedInRegionWithMaximumAllowedSettlements",
      "type": "error"
    },
    {
      "inputs": [],
      "name": "UserSettlementCannotBeCreatedOnPositionWhichIsNotConnectedToAnotherSettlement",
      "type": "error"
    },
    {
      "inputs": [],
      "name": "UserSettlementCannotBeCreatedOnPositionWhichIsToCloseToAnotherSettlement",
      "type": "error"
    },
    {
      "inputs": [],
      "name": "UserSettlementCannotBeCreatedOnPositionWithAnotherSettlement",
      "type": "error"
    },
    {
      "inputs": [],
      "name": "UserSettlementCannotBeRestoredFromInactiveEra",
      "type": "error"
    },
    {
      "inputs": [],
      "name": "UserSettlementCannotBeRestoredIfItsRotten",
      "type": "error"
    },
    {
      "anonymous": false,
      "inputs": [
        {
          "indexed": false,
          "internalType": "uint8",
          "name": "version",
          "type": "uint8"
        }
      ],
      "name": "Initialized",
      "type": "event"
    },
    {
      "anonymous": false,
      "inputs": [
        {
          "indexed": false,
          "internalType": "address",
          "name": "prosperityAddress",
          "type": "address"
        }
      ],
      "name": "ProsperityCreated",
      "type": "event"
    },
    {
      "anonymous": false,
      "inputs": [
        {
          "indexed": false,
          "internalType": "address",
          "name": "regionAddress",
          "type": "address"
        },
        {
          "indexed": false,
          "internalType": "uint256",
          "name": "regionId",
          "type": "uint256"
        }
      ],
      "name": "RegionActivated",
      "type": "event"
    },
    {
      "anonymous": false,
      "inputs": [
        {
          "indexed": false,
          "internalType": "address",
          "name": "resourceAddress",
          "type": "address"
        },
        {
          "indexed": false,
          "internalType": "bytes32",
          "name": "resourceTypeId",
          "type": "bytes32"
        }
      ],
      "name": "ResourceCreated",
      "type": "event"
    },
    {
      "anonymous": false,
      "inputs": [
        {
          "indexed": false,
          "internalType": "address",
          "name": "settlementAddress",
          "type": "address"
        },
        {
          "indexed": false,
          "internalType": "bytes32",
          "name": "assetTypeId",
          "type": "bytes32"
        },
        {
          "indexed": false,
          "internalType": "address",
          "name": "regionAddress",
          "type": "address"
        },
        {
          "indexed": false,
          "internalType": "uint64",
          "name": "position",
          "type": "uint64"
        },
        {
          "indexed": false,
          "internalType": "uint256",
          "name": "bannerId",
          "type": "uint256"
        }
      ],
      "name": "SettlementCreated",
      "type": "event"
    },
    {
      "anonymous": false,
      "inputs": [
        {
          "indexed": false,
          "internalType": "address",
          "name": "settlementAddress",
          "type": "address"
        },
        {
          "indexed": false,
          "internalType": "uint64",
          "name": "position",
          "type": "uint64"
        }
      ],
      "name": "SettlementRestored",
      "type": "event"
    },
    {
      "anonymous": false,
      "inputs": [
        {
          "indexed": false,
          "internalType": "address",
          "name": "tileCapturingSystemAddress",
          "type": "address"
        }
      ],
      "name": "TileCapturingSystemCreated",
      "type": "event"
    },
    {
      "anonymous": false,
      "inputs": [
        {
          "indexed": false,
          "internalType": "uint256",
          "name": "newTotalCultists",
          "type": "uint256"
        }
      ],
      "name": "TotalCultistsChanged",
      "type": "event"
    },
    {
      "anonymous": false,
      "inputs": [
        {
          "indexed": false,
          "internalType": "address",
          "name": "unitsAddress",
          "type": "address"
        },
        {
          "indexed": false,
          "internalType": "bytes32",
          "name": "unitTypeId",
          "type": "bytes32"
        }
      ],
      "name": "UnitsCreated",
      "type": "event"
    },
    {
      "anonymous": false,
      "inputs": [
        {
          "indexed": false,
          "internalType": "address",
          "name": "workersAddress",
          "type": "address"
        }
      ],
      "name": "WorkersCreated",
      "type": "event"
    },
    {
      "inputs": [
        {
          "internalType": "uint64",
          "name": "regionId",
          "type": "uint64"
        }
      ],
      "name": "activateRegion",
      "outputs": [],
      "stateMutability": "nonpayable",
      "type": "function"
    },
    {
      "inputs": [],
      "name": "assetGroupId",
      "outputs": [
        {
          "internalType": "bytes32",
          "name": "",
          "type": "bytes32"
        }
      ],
      "stateMutability": "view",
      "type": "function"
    },
    {
      "inputs": [],
      "name": "assetTypeId",
      "outputs": [
        {
          "internalType": "bytes32",
          "name": "",
          "type": "bytes32"
        }
      ],
      "stateMutability": "view",
      "type": "function"
    },
    {
      "inputs": [
        {
          "internalType": "uint256",
          "name": "bannerId",
          "type": "uint256"
        },
        {
          "internalType": "uint64",
          "name": "position",
          "type": "uint64"
        },
        {
          "internalType": "uint64",
          "name": "regionId",
          "type": "uint64"
        },
        {
          "internalType": "bytes32",
          "name": "assetTypeId",
          "type": "bytes32"
        }
      ],
      "name": "createSettlementByType",
      "outputs": [
        {
          "internalType": "address",
          "name": "",
          "type": "address"
        }
      ],
      "stateMutability": "nonpayable",
      "type": "function"
    },
    {
      "inputs": [
        {
          "internalType": "uint64",
          "name": "position",
          "type": "uint64"
        },
        {
          "internalType": "uint64",
          "name": "regionId",
          "type": "uint64"
        },
        {
          "internalType": "uint256",
          "name": "bannerId",
          "type": "uint256"
        }
      ],
      "name": "createUserSettlement",
      "outputs": [
        {
          "internalType": "address",
          "name": "",
          "type": "address"
        }
      ],
      "stateMutability": "nonpayable",
      "type": "function"
    },
    {
      "inputs": [],
      "name": "creationTime",
      "outputs": [
        {
          "internalType": "uint256",
          "name": "",
          "type": "uint256"
        }
      ],
      "stateMutability": "view",
      "type": "function"
    },
    {
      "inputs": [
        {
          "internalType": "uint256",
          "name": "value",
          "type": "uint256"
        }
      ],
      "name": "decreaseTotalCultists",
      "outputs": [],
      "stateMutability": "nonpayable",
      "type": "function"
    },
    {
      "inputs": [],
      "name": "era",
      "outputs": [
        {
          "internalType": "contract IEra",
          "name": "",
          "type": "address"
        }
      ],
      "stateMutability": "view",
      "type": "function"
    },
    {
      "inputs": [],
      "name": "eraNumber",
      "outputs": [
        {
          "internalType": "uint256",
          "name": "",
          "type": "uint256"
        }
      ],
      "stateMutability": "view",
      "type": "function"
    },
    {
      "inputs": [
        {
          "internalType": "uint256",
          "name": "value",
          "type": "uint256"
        }
      ],
      "name": "increaseTotalCultists",
      "outputs": [],
      "stateMutability": "nonpayable",
      "type": "function"
    },
    {
      "inputs": [
        {
          "internalType": "bytes",
          "name": "initParams",
          "type": "bytes"
        }
      ],
      "name": "init",
      "outputs": [],
      "stateMutability": "nonpayable",
      "type": "function"
    },
    {
      "inputs": [],
      "name": "prosperity",
      "outputs": [
        {
          "internalType": "contract IProsperity",
          "name": "",
          "type": "address"
        }
      ],
      "stateMutability": "view",
      "type": "function"
    },
    {
      "inputs": [
        {
          "internalType": "uint64",
          "name": "",
          "type": "uint64"
        }
      ],
      "name": "regions",
      "outputs": [
        {
          "internalType": "contract IRegion",
          "name": "",
          "type": "address"
        }
      ],
      "stateMutability": "view",
      "type": "function"
    },
    {
      "inputs": [],
      "name": "registry",
      "outputs": [
        {
          "internalType": "contract IRegistry",
          "name": "",
          "type": "address"
        }
      ],
      "stateMutability": "view",
      "type": "function"
    },
    {
      "inputs": [
        {
          "internalType": "bytes32",
          "name": "",
          "type": "bytes32"
        }
      ],
      "name": "resources",
      "outputs": [
        {
          "internalType": "contract IResource",
          "name": "",
          "type": "address"
        }
      ],
      "stateMutability": "view",
      "type": "function"
    },
    {
      "inputs": [
        {
          "internalType": "uint64",
          "name": "position",
          "type": "uint64"
        }
      ],
      "name": "restoreUserSettlement",
      "outputs": [],
      "stateMutability": "nonpayable",
      "type": "function"
    },
    {
      "inputs": [
        {
          "internalType": "uint256",
          "name": "",
          "type": "uint256"
        }
      ],
      "name": "settlementByBannerId",
      "outputs": [
        {
          "internalType": "contract ISettlement",
          "name": "",
          "type": "address"
        }
      ],
      "stateMutability": "view",
      "type": "function"
    },
    {
      "inputs": [
        {
          "internalType": "uint64",
          "name": "",
          "type": "uint64"
        }
      ],
      "name": "settlementByPosition",
      "outputs": [
        {
          "internalType": "contract ISettlement",
          "name": "",
          "type": "address"
        }
      ],
      "stateMutability": "view",
      "type": "function"
    },
    {
      "inputs": [],
      "name": "tileCapturingSystem",
      "outputs": [
        {
          "internalType": "contract ITileCapturingSystem",
          "name": "",
          "type": "address"
        }
      ],
      "stateMutability": "view",
      "type": "function"
    },
    {
      "inputs": [],
      "name": "totalCultists",
      "outputs": [
        {
          "internalType": "uint256",
          "name": "",
          "type": "uint256"
        }
      ],
      "stateMutability": "view",
      "type": "function"
    },
    {
      "inputs": [
        {
          "internalType": "bytes32",
          "name": "",
          "type": "bytes32"
        }
      ],
      "name": "units",
      "outputs": [
        {
          "internalType": "contract IUnits",
          "name": "",
          "type": "address"
        }
      ],
      "stateMutability": "view",
      "type": "function"
    },
    {
      "inputs": [],
      "name": "workers",
      "outputs": [
        {
          "internalType": "contract IWorkers",
          "name": "",
          "type": "address"
        }
      ],
      "stateMutability": "view",
      "type": "function"
    },
    {
      "inputs": [],
      "name": "world",
      "outputs": [
        {
          "internalType": "contract IWorld",
          "name": "",
          "type": "address"
        }
      ],
      "stateMutability": "view",
      "type": "function"
    },
    {
      "inputs": [],
      "name": "worldAssetFactory",
      "outputs": [
        {
          "internalType": "contract IWorldAssetFactory",
          "name": "",
          "type": "address"
        }
      ],
      "stateMutability": "view",
      "type": "function"
    }
  ],
  "bytecode": "0x6080604052348015600f57600080fd5b50612d6d8061001f6000396000f3fe608060405234801561001057600080fd5b50600436106101585760003560e01c8063c096b3f7116100c3578063d6ea8dc31161007c578063d6ea8dc3146102e0578063d8270dce146102f3578063ebe63ec8146102fc578063ece56a1a14610325578063fcc814b01461032d578063feae7dc31461033657600080fd5b8063c096b3f714610242578063c4c31e8514610255578063c5375e991461027e578063c91b9566146102a7578063cabb62f0146102ba578063d653a66a146102cd57600080fd5b8063558c31ce11610115578063558c31ce146101db5780637b103999146101ee5780637d884c74146101f657806384ba89e3146101fe5780638b68214d14610206578063912929df1461021957600080fd5b80630b4e99c31461015d578063143e55e01461017857806329dfc8a5146101985780632c4613dc146101ad57806330b67baa146101c05780634ddf47d4146101c8575b600080fd5b61016561035f565b6040519081526020015b60405180910390f35b61018061039c565b6040516001600160a01b03909116815260200161016f565b6101ab6101a63660046128c5565b610420565b005b600a54610180906001600160a01b031681565b610180610748565b6101ab6101d636600461292f565b610752565b6101ab6101e93660046129c7565b610fd2565b61018061102a565b610165611071565b6101656110ae565b6101ab6102143660046128c5565b6110eb565b6101806102273660046129c7565b6008602052600090815260409020546001600160a01b031681565b6101ab6102503660046129c7565b611534565b6101806102633660046128c5565b6002602052600090815260409020546001600160a01b031681565b61018061028c3660046128c5565b6001602052600090815260409020546001600160a01b031681565b600754610180906001600160a01b031681565b600654610180906001600160a01b031681565b6101806102db3660046129e0565b61154e565b6101806102ee366004612a21565b611990565b61016560055481565b61018061030a3660046129c7565b6003602052600090815260409020546001600160a01b031681565b610180611c14565b61016560045481565b6101806103443660046129c7565b6009602052600090815260409020546001600160a01b031681565b604080516020808252818301909252600091309183918291906020820181803683370190505090506020607a60208301853c602001519392505050565b60006103a6610748565b6001600160a01b031663720a70bd6103bc611071565b6040518263ffffffff1660e01b81526004016103da91815260200190565b602060405180830381865afa1580156103f7573d6000803e3d6000fd5b505050506040513d601f19601f8201168201806040525081019061041b9190612a7e565b905090565b600061042a610748565b6001600160401b0383166000908152600160205260409020549091506001600160a01b03161561046d57604051637de3a75b60e11b815260040160405180910390fd5b806001600160a01b031663f5f026a36040518163ffffffff1660e01b8152600401602060405180830381865afa1580156104ab573d6000803e3d6000fd5b505050506040513d601f19601f820116820180604052508101906104cf9190612a7e565b6040516332b3462d60e11b81526001600160401b03841660048201526001600160a01b0391909116906365668c5a90602401602060405180830381865afa15801561051e573d6000803e3d6000fd5b505050506040513d601f19601f820116820180604052508101906105429190612ab0565b61055f57604051633a3887a560e11b815260040160405180910390fd5b6000610569611c14565b6001600160a01b031663c19755fd83610580611071565b60408051808201825260068152653932b3b4b7b760d11b602091820152815180830183526005815264424153494360d81b9082015281516001600160401b038a168183015282518082039092018252808301928390526001600160e01b031960e087901b169092526106289392917f04fa4af4920f7d24ca3096947bd17e47d5f138126bc597199d0ce383188e700991600080516020612d1883398151915291604401612b11565b6020604051808303816000875af1158015610647573d6000803e3d6000fd5b505050506040513d601f19601f8201168201806040525081019061066b9190612a7e565b6001600160401b03841660008181526001602090815260409182902080546001600160a01b0319166001600160a01b03861690811790915582519081529081019290925291925082917f6d7eaafe6ca1a9953fcf80e67d9581b2adcb02d91c66c17c46d39211f06113cd910160405180910390a160405163d99d7d8160e01b81526001600160401b03851660048201526001600160a01b0382169063d99d7d81906024015b600060405180830381600087803b15801561072a57600080fd5b505af115801561073e573d6000803e3d6000fd5b5050505050505050565b600061041b611c5b565b600054610100900460ff16158080156107725750600054600160ff909116105b8061078c5750303b15801561078c575060005460ff166001145b6107f35760405162461bcd60e51b815260206004820152602e60248201527f496e697469616c697a61626c653a20636f6e747261637420697320616c72656160448201526d191e481a5b9a5d1a585b1a5e995960921b606482015260840160405180910390fd5b6000805460ff191660011790558015610816576000805461ff0019166101001790555b4260055581516000906108329084016020908101908501612b44565b9050600061083e610748565b9050600061084a611c14565b90506000610856611c98565b905060005b8151811015610a0557600082828151811061087857610878612b5d565b60209081029190910181015160408051808201825260088152677265736f7572636560c01b90840152805180820182526005815264424153494360d81b908401528151828401518284015192519395506000946001600160a01b038a169463c19755fd948c948e947fb61e407d61f27eefb9ebf3cf25f5c7560bafafe518410eb7c781777da1102bd394600080516020612d188339815191529461091d949101612b73565b6040516020818303038152906040526040518663ffffffff1660e01b815260040161094c959493929190612b11565b6020604051808303816000875af115801561096b573d6000803e3d6000fd5b505050506040513d601f19601f8201168201806040525081019061098f9190612a7e565b604083810180516000908152600860209081529083902080546001600160a01b0319166001600160a01b03861690811790915591518351928352908201529192507f9a7fe77d7d31a53bbf7b5d5b007916243804ad2717e5e2b6f15144f79912ace5910160405180910390a1505060010161085b565b506000610a10611f95565b905060005b8151811015610bbf576000828281518110610a3257610a32612b5d565b602090810291909101810151604080518082018252600580825264756e69747360d81b918501919091528151808301835290815264424153494360d81b908401528151828401518284015192519395506000946001600160a01b038b169463c19755fd948d948f947f6ee7504b8b6b1f686066063d6ddcc2e2631964acb479aaf6090f46afb98a581d94600080516020612d1883398151915294610ad7949101612b73565b6040516020818303038152906040526040518663ffffffff1660e01b8152600401610b06959493929190612b11565b6020604051808303816000875af1158015610b25573d6000803e3d6000fd5b505050506040513d601f19601f82011682018060405250810190610b499190612a7e565b604083810180516000908152600960209081529083902080546001600160a01b0319166001600160a01b03861690811790915591518351928352908201529192507f3357c42a52a37cd452e72fa6d0719b00d055e010acc1cf9aca4bb79fd67e67de910160405180910390a15050600101610a15565b506040805180820182526007815266776f726b65727360c81b602091820152815180830183526005815264424153494360d81b90820152815160008082529181019283905263c19755fd60e01b909252906001600160a01b0385169063c19755fd90610c649088908a907f091da8adcebb1cfee436688986f1a45b70fee77307dce9107a667995c2bfe23b90600080516020612d188339815191529060248101612b11565b6020604051808303816000875af1158015610c83573d6000803e3d6000fd5b505050506040513d601f19601f82011682018060405250810190610ca79190612a7e565b600680546001600160a01b0319166001600160a01b0383169081179091556040519081529091507f9b4b02a4fc86363400ab2364e8dbd2162514be797103e84323447d8a647733c29060200160405180910390a1604080518082018252600a81526970726f7370657269747960b01b602091820152815180830183526005815264424153494360d81b90820152815160008082529181019283905263c19755fd60e01b909252906001600160a01b0386169063c19755fd90610da29089908b907f439eae5fe478429877da2477496a018c34aba9e736ace861a831c827eb739eb690600080516020612d188339815191529060248101612b11565b6020604051808303816000875af1158015610dc1573d6000803e3d6000fd5b505050506040513d601f19601f82011682018060405250810190610de59190612a7e565b600780546001600160a01b0319166001600160a01b0383169081179091556040519081529091507f1ab63186faee6524e01201749c3f482f2a221e9dcd660ac3c5c7c44026d097c89060200160405180910390a1604080518082018252601381527274696c65436170747572696e6753797374656d60681b602091820152815180830183526005815264424153494360d81b90820152815160008082529181019283905263c19755fd60e01b909252906001600160a01b0387169063c19755fd90610ee9908a908c907f2d3acee8aac5846cb4dc645ddf7d7a4910a84a276e67b6e320c4180488acad4190600080516020612d188339815191529060248101612b11565b6020604051808303816000875af1158015610f08573d6000803e3d6000fd5b505050506040513d601f19601f82011682018060405250810190610f2c9190612a7e565b600a80546001600160a01b0319166001600160a01b0383169081179091556040519081529091507fb6bd208619a1c452a6c23bc255ecdbed68b60dcd586bb350d42cdacd4847014f9060200160405180910390a150505050505050508015610fce576000805461ff0019169055604051600181527f7f26b83ff96e1f2b6a682f133852f6798a09c465da95921460cefb38474024989060200160405180910390a15b5050565b610fda6121f3565b8060046000828254610fec9190612bbf565b90915550506004546040519081527f4900a9dc1c09a36a7cf858b3f2b1c047f0bf4f44ad5cd4427e80ca26b11ae0929060200160405180910390a150565b6000611034610748565b6001600160a01b0316637b1039996040518163ffffffff1660e01b8152600401602060405180830381865afa1580156103f7573d6000803e3d6000fd5b604080516020808252818301909252600091309183918291906020820181803683370190505090506020609a60208301853c602001519392505050565b604080516020808252818301909252600091309183918291906020820181803683370190505090506020605a60208301853c602001519392505050565b6110f36122b5565b60006110fd610748565b9050806001600160a01b031663704f63a16040518163ffffffff1660e01b8152600401602060405180830381865afa15801561113d573d6000803e3d6000fd5b505050506040513d601f19601f820116820180604052508101906111619190612b44565b611169611071565b1461118757604051631c2c6b6b60e01b815260040160405180910390fd5b6000816001600160a01b031663a8d66c756040518163ffffffff1660e01b8152600401602060405180830381865afa1580156111c7573d6000803e3d6000fd5b505050506040513d601f19601f820116820180604052508101906111eb9190612a7e565b60405163c4c31e8560e01b81526001600160401b03851660048201529091506000906001600160a01b0383169063c4c31e8590602401602060405180830381865afa15801561123e573d6000803e3d6000fd5b505050506040513d601f19601f820116820180604052508101906112629190612a7e565b9050806001600160a01b031663977a2d136040518163ffffffff1660e01b81526004016020604051808303816000875af11580156112a4573d6000803e3d6000fd5b505050506040513d601f19601f820116820180604052508101906112c89190612ab0565b156112e657604051631e7b0a4160e21b815260040160405180910390fd5b6000816001600160a01b031663d63a68ec6040518163ffffffff1660e01b8152600401602060405180830381865afa158015611326573d6000803e3d6000fd5b505050506040513d601f19601f8201168201806040525081019061134a9190612b44565b9050600080856001600160a01b031663f5f026a36040518163ffffffff1660e01b8152600401602060405180830381865afa15801561138d573d6000803e3d6000fd5b505050506040513d601f19601f820116820180604052508101906113b19190612a7e565b604051630915dd5d60e01b81526001600160401b03891660048201526001600160a01b039190911690630915dd5d906024016040805180830381865afa1580156113ff573d6000803e3d6000fd5b505050506040513d601f19601f820116820180604052508101906114239190612bd8565b6040805180820182526005815264424153494360d81b6020909101525163d6ea8dc360e01b8152600481018690526001600160401b03808b16602483015283166044820152600080516020612d1883398151915260648201529193509150600090309063d6ea8dc3906084016020604051808303816000875af11580156114ae573d6000803e3d6000fd5b505050506040513d601f19601f820116820180604052508101906114d29190612a7e565b90506114e0868260006123e9565b604080516001600160a01b03831681526001600160401b038a1660208201527f44cb97c4dc5db5966a23b37c4ed419b794425ecfc2b8c32576a0291071c598e5910160405180910390a15050505050505050565b61153c6121f3565b8060046000828254610fec9190612c0d565b60006115586121f3565b6000611562610748565b90506000816001600160a01b031663f5f026a36040518163ffffffff1660e01b8152600401602060405180830381865afa1580156115a4573d6000803e3d6000fd5b505050506040513d601f19601f820116820180604052508101906115c89190612a7e565b90506000826001600160a01b031663a8d66c756040518163ffffffff1660e01b8152600401602060405180830381865afa15801561160a573d6000803e3d6000fd5b505050506040513d601f19601f8201168201806040525081019061162e9190612a7e565b60405163c4c31e8560e01b81526001600160401b03891660048201529091506000906001600160a01b0383169063c4c31e8590602401602060405180830381865afa158015611681573d6000803e3d6000fd5b505050506040513d601f19601f820116820180604052508101906116a59190612a7e565b6001600160a01b0316146116cc5760405163045342fb60e41b815260040160405180910390fd5b6116d982828960026125c5565b156116f757604051636d558f3560e01b815260040160405180910390fd5b604051631d7cc7d960e31b8152600481018690526000906001600160a01b0383169063ebe63ec890602401602060405180830381865afa15801561173f573d6000803e3d6000fd5b505050506040513d601f19601f820116820180604052508101906117639190612a7e565b6001600160a01b0316146117895760405162af8e8960e31b815260040160405180910390fd5b826001600160a01b031663704f63a16040518163ffffffff1660e01b8152600401602060405180830381865afa1580156117c7573d6000803e3d6000fd5b505050506040513d601f19601f820116820180604052508101906117eb9190612b44565b6117f3611071565b14611811576040516364ac20a960e11b815260040160405180910390fd5b604051631373443d60e31b81526001600160401b03871660048201526028906001600160a01b03831690639b9a21e890602401602060405180830381865afa158015611861573d6000803e3d6000fd5b505050506040513d601f19601f820116820180604052508101906118859190612b44565b036118a3576040516307e7dd6760e21b815260040160405180910390fd5b6118b0828289600361260a565b6118cd576040516309f10f5960e41b815260040160405180910390fd5b6040805180820182526005815264424153494360d81b6020909101525163d6ea8dc360e01b8152600481018690526001600160401b03808916602483015287166044820152600080516020612d188339815191526064820152600090309063d6ea8dc3906084016020604051808303816000875af1158015611953573d6000803e3d6000fd5b505050506040513d601f19601f820116820180604052508101906119779190612a7e565b9050611985828260016123e9565b979650505050505050565b600061199a6121f3565b60006119a4610748565b6001600160401b0385166000908152600160205260408120549192506001600160a01b03909116906119d4611c14565b6001600160a01b031663c19755fd846119eb611071565b604080518082018252600a8152691cd95d1d1b195b595b9d60b21b60209182015281519081018e90526001600160a01b038816918101919091526001600160401b038c1660608201527f6522b1ac0c0c078f1fcc696b9cf72c59bb3624b7d2a9d82059b2f3832fd9973d908a906080016040516020818303038152906040526040518663ffffffff1660e01b8152600401611a8a959493929190612b11565b6020604051808303816000875af1158015611aa9573d6000803e3d6000fd5b505050506040513d601f19601f82011682018060405250810190611acd9190612a7e565b90506000836001600160a01b031663a8d66c756040518163ffffffff1660e01b8152600401602060405180830381865afa158015611b0f573d6000803e3d6000fd5b505050506040513d601f19601f82011682018060405250810190611b339190612a7e565b9050611b3f818361276c565b600a5460405163e06ca91760e01b81526001600160401b038a1660048201526001600160a01b039091169063e06ca91790602401600060405180830381600087803b158015611b8d57600080fd5b505af1158015611ba1573d6000803e3d6000fd5b5050604080516001600160a01b038681168252602082018b90528716818301526001600160401b038c166060820152608081018d905290517ff8953a2f0dae968b2f4e3bcece7df1227a8b512f046aa66b1dbaadb0efbc994093509081900360a0019150a150925050505b949350505050565b6000611c1e61102a565b6001600160a01b031663ece56a1a6040518163ffffffff1660e01b8152600401602060405180830381865afa1580156103f7573d6000803e3d6000fd5b604080516014808252818301909252600091309183918291906020820181803683370190505090506014602a60208301853c601401519392505050565b60408051600480825260a0820190925260609160009190816020015b60408051606080820183528082526020820152600091810191909152815260200190600190039081611cb45750506040805160a081018252600e606082019081526d135a5d1a1c98595d5b48119bdbd960921b608083015281528151808301835260058152641b5193d3d160da1b602080830191909152808301919091528251808401845260048152631193d3d160e21b9101527f2f6f5a261d6f4514c3f09a834720fe583c82f2ee4758ce9a45fbd67428e9f93d918101919091528151919250908290600090611d8757611d87612b5d565b6020908102919091018101919091526040805160a081018252600e606082019081526d135a5d1a1c98595d5b4815dbdbd960921b608083015281528151808301835260058152641b55d3d3d160da1b818501528184015281518083018352600481526315d3d3d160e21b9301929092527f5f3d3bfd5b61198148275c178146c21eec5c5ab7e81758f3c651754ae3f1ed4290820152815182906001908110611e3157611e31612b5d565b6020908102919091018101919091526040805160a081018252600d606082019081526c4d697468726165756d204f726560981b608083015281528151808301835260048152636d4f524560e01b81850152818401528151808301835260038152624f524560e81b9301929092527f9db51ceeef36d28f4a713ba944bdadb00e988c5676c92710eaf0e194efb4cb5590820152815182906002908110611ed857611ed8612b5d565b6020908102919091018101919091526040805160a081018252600f606082019081526e135a5d1a1c98595d5b48125b99dbdd608a1b608083015281528151808301835260068152651b525391d3d560d21b8185015281840152815180830183526005815264125391d3d560da1b9301929092527ff4d3d98b93a17290e7883bbc86b83d603b27efc328d7873b3fc648501d83e57290820152815182906003908110611f8557611f85612b5d565b6020908102919091010152919050565b6040805160038082526080820190925260609160009190816020015b60408051606080820183528082526020820152600091810191909152815260200190600190039081611fb15750506040805160a0810182526011606082019081527026b4ba343930b2bab6902bb0b93934b7b960791b6080830152815281518083018352600881526736aba0a92924a7a960c11b602080830191909152808301919091528251808401845260078152662ba0a92924a7a960c91b9101527f69c5317e5ce44f1a1fb56c6a5eff904214e6353da6310ab0a6b511eef9a7c39191810191909152815191925090829060009061208d5761208d612b5d565b6020908102919091018101919091526040805160a0810182526010606082019081526f26b4ba343930b2bab69020b931b432b960811b6080830152815281518083018352600781526636a0a921a422a960c91b818501528184015281518083018352600681526520a921a422a960d11b9301929092527f42de5fbfc07577d3e9942df95dd4e61cabcab8907d5d333240140b2999379e409082015281518290600190811061213d5761213d612b5d565b6020908102919091018101919091526040805160a0810182526012606082019081527126b4ba343930b2bab6902437b939b2b6b0b760711b6080830152815281518083018352600981526836a427a929a2a6a0a760b91b81850152818401528151808301835260088152672427a929a2a6a0a760c11b9301929092527f89d5ee6f4fcb32fb3c151bc25e6bc320fec82ba89cb3b29d1969d907e0e6793990820152815182906002908110611f8557611f85612b5d565b60006121fd610748565b9050336001600160a01b03821614801590612294575060006001600160a01b03821663ebbe803461222c611071565b6040516001600160e01b031960e084901b1681526004810191909152336024820152604401602060405180830381865afa15801561226e573d6000803e3d6000fd5b505050506040513d601f19601f820116820180604052508101906122929190612b44565b145b156122b25760405163422656d160e01b815260040160405180910390fd5b50565b60006122bf610748565b90506000816001600160a01b0316633c8ca83d6040518163ffffffff1660e01b8152600401602060405180830381865afa158015612301573d6000803e3d6000fd5b505050506040513d601f19601f820116820180604052508101906123259190612b44565b90506000826001600160a01b03166344d9bc5f6040518163ffffffff1660e01b8152600401602060405180830381865afa158015612367573d6000803e3d6000fd5b505050506040513d601f19601f8201168201806040525081019061238b9190612b44565b905081158061239957508142105b156123b75760405163a00eda6960e01b815260040160405180910390fd5b80158015906123c65750804210155b156123e45760405163a00eda6960e01b815260040160405180910390fd5b505050565b60008290506000816001600160a01b031663d63a68ec6040518163ffffffff1660e01b8152600401602060405180830381865afa15801561242e573d6000803e3d6000fd5b505050506040513d601f19601f820116820180604052508101906124529190612b44565b90506000826001600160a01b031663e6c15c996040518163ffffffff1660e01b8152600401602060405180830381865afa158015612494573d6000803e3d6000fd5b505050506040513d601f19601f820116820180604052508101906124b89190612a7e565b6001600160a01b031663b2fd89336040518163ffffffff1660e01b8152600401602060405180830381865afa1580156124f5573d6000803e3d6000fd5b505050506040513d601f19601f820116820180604052508101906125199190612c20565b6000838152600360205260409081902080546001600160a01b0319166001600160a01b03878116919091179091559051600162fcc98d60e01b03198152600481018590526001600160401b03831660248201528782166044820152861515606482015291925087169063ff03367390608401600060405180830381600087803b1580156125a557600080fd5b505af11580156125b9573d6000803e3d6000fd5b50505050505050505050565b600060015b8281116125fe576125dd8686868461260a565b156125ec576001915050611c0c565b806125f681612c3d565b9150506125ca565b50600095945050505050565b604051630585cac160e41b81526001600160401b038316600482015260248101829052600090819081906001600160a01b0388169063585cac1090604401600060405180830381865afa158015612665573d6000803e3d6000fd5b505050506040513d6000823e601f3d908101601f1916820160405261268d9190810190612c56565b9150915060005b8181101561275e5760006001600160a01b0316876001600160a01b031663c4c31e858584815181106126c8576126c8612b5d565b60200260200101516040518263ffffffff1660e01b81526004016126fb91906001600160401b0391909116815260200190565b602060405180830381865afa158015612718573d6000803e3d6000fd5b505050506040513d601f19601f8201168201806040525081019061273c9190612a7e565b6001600160a01b0316146127565760019350505050611c0c565b600101612694565b506000979650505050505050565b60008190506000816001600160a01b03166309218e916040518163ffffffff1660e01b8152600401602060405180830381865afa1580156127b1573d6000803e3d6000fd5b505050506040513d601f19601f820116820180604052508101906127d59190612c20565b6001600160401b038116600090815260026020526040902080546001600160a01b0319166001600160a01b0385161790559050612810610748565b6001600160a01b031663a8d66c756040518163ffffffff1660e01b8152600401602060405180830381865afa15801561284d573d6000803e3d6000fd5b505050506040513d601f19601f820116820180604052508101906128719190612a7e565b60405163dc39f80960e01b81526001600160401b03831660048201526001600160a01b038581166024830152919091169063dc39f80990604401610710565b6001600160401b03811681146122b257600080fd5b6000602082840312156128d757600080fd5b81356128e2816128b0565b9392505050565b634e487b7160e01b600052604160045260246000fd5b604051601f8201601f191681016001600160401b0381118282101715612927576129276128e9565b604052919050565b60006020828403121561294157600080fd5b81356001600160401b0381111561295757600080fd5b8201601f8101841361296857600080fd5b80356001600160401b03811115612981576129816128e9565b612994601f8201601f19166020016128ff565b8181528560208385010111156129a957600080fd5b81602084016020830137600091810160200191909152949350505050565b6000602082840312156129d957600080fd5b5035919050565b6000806000606084860312156129f557600080fd5b8335612a00816128b0565b92506020840135612a10816128b0565b929592945050506040919091013590565b60008060008060808587031215612a3757600080fd5b843593506020850135612a49816128b0565b92506040850135612a59816128b0565b9396929550929360600135925050565b6001600160a01b03811681146122b257600080fd5b600060208284031215612a9057600080fd5b81516128e281612a69565b80518015158114612aab57600080fd5b919050565b600060208284031215612ac257600080fd5b6128e282612a9b565b6000815180845260005b81811015612af157602081850181015186830182015201612ad5565b506000602082860101526020601f19601f83011685010191505092915050565b60018060a01b038616815284602082015283604082015282606082015260a06080820152600061198560a0830184612acb565b600060208284031215612b5657600080fd5b5051919050565b634e487b7160e01b600052603260045260246000fd5b606081526000612b866060830186612acb565b8281036020840152612b988186612acb565b915050826040830152949350505050565b634e487b7160e01b600052601160045260246000fd5b81810381811115612bd257612bd2612ba9565b92915050565b60008060408385031215612beb57600080fd5b8251612bf6816128b0565b9150612c0460208401612a9b565b90509250929050565b80820180821115612bd257612bd2612ba9565b600060208284031215612c3257600080fd5b81516128e2816128b0565b600060018201612c4f57612c4f612ba9565b5060010190565b60008060408385031215612c6957600080fd5b82516001600160401b03811115612c7f57600080fd5b8301601f81018513612c9057600080fd5b80516001600160401b03811115612ca957612ca96128e9565b8060051b612cb9602082016128ff565b91825260208184018101929081019088841115612cd557600080fd5b6020850194505b83851015612d035784519250612cf1836128b0565b82825260209485019490910190612cdc565b60209790970151969896975050505050505056fedc0ae866100b2876ab26eb62a50ca2cd083944f439e6d78aab2fc402e669e9eea26469706673582212207bb8f342140d1f43beef5b31a1401b123cf21c58082510b2f651a31412d4621364736f6c634300081a0033",
  "linkReferences": {},
  "deployedLinkReferences": {}
}