{
  "_format": "hh-sol-artifact-1",
  "contractName": "Army",
  "sourceName": "contracts/core/assets/army/Army.sol",
  "abi": [
    {
      "inputs": [],
      "name": "ArmyCannotAccelerateManeuverFromCultistsSettlementWithNonZeroCultistsArmy",
      "type": "error"
    },
    {
      "inputs": [],
      "name": "ArmyCannotAttackAnotherArmyIfTheyAreNotOnSamePosition",
      "type": "error"
    },
    {
      "inputs": [],
      "name": "ArmyCannotAttackItself",
      "type": "error"
    },
    {
      "inputs": [],
      "name": "ArmyCannotAttackNotCurrentEraArmy",
      "type": "error"
    },
    {
      "inputs": [],
      "name": "ArmyCannotBeDemilitarizedDueToCooldown",
      "type": "error"
    },
    {
      "inputs": [],
      "name": "ArmyCannotBesiegeOwnSettlement",
      "type": "error"
    },
    {
      "inputs": [],
      "name": "ArmyCannotJoinToBattleNotAtSamePosition",
      "type": "error"
    },
    {
      "inputs": [],
      "name": "ArmyCannotJoinToBattleNotInLobbyPhase",
      "type": "error"
    },
    {
      "inputs": [],
      "name": "ArmyCannotJoinToNotCurrentEraBattle",
      "type": "error"
    },
    {
      "inputs": [],
      "name": "ArmyCannotManeuverToPositionWithoutSettlement",
      "type": "error"
    },
    {
      "inputs": [],
      "name": "ArmyCannotManeuverToSamePosition",
      "type": "error"
    },
    {
      "inputs": [],
      "name": "ArmyCannotModifySiegeUnitsToLiquidatableState",
      "type": "error"
    },
    {
      "inputs": [],
      "name": "ArmyCannotUseMoreResourcesForAccelerationThanBuildingTreasuryHas",
      "type": "error"
    },
    {
      "inputs": [],
      "name": "ArmyIsInBattle",
      "type": "error"
    },
    {
      "inputs": [],
      "name": "ArmyIsInSiege",
      "type": "error"
    },
    {
      "inputs": [],
      "name": "ArmyIsManeuvering",
      "type": "error"
    },
    {
      "inputs": [],
      "name": "ArmyIsNotManeuveringSecretly",
      "type": "error"
    },
    {
      "inputs": [],
      "name": "ArmyIsStunned",
      "type": "error"
    },
    {
      "inputs": [],
      "name": "ArmyWithoutUnitsCannotAccelerate",
      "type": "error"
    },
    {
      "inputs": [],
      "name": "ArmyWithoutUnitsCannotBeginSecretManeuver",
      "type": "error"
    },
    {
      "inputs": [],
      "name": "ArmyWithoutUnitsCannotJoinBattle",
      "type": "error"
    },
    {
      "inputs": [],
      "name": "ArmyWithoutUnitsCannotManeuverToNotHomeSettlement",
      "type": "error"
    },
    {
      "inputs": [],
      "name": "NotEnoughUnitsForDemilitarization",
      "type": "error"
    },
    {
      "inputs": [],
      "name": "OnlyActiveGame",
      "type": "error"
    },
    {
      "inputs": [],
      "name": "OnlyMightyCreator",
      "type": "error"
    },
    {
      "inputs": [],
      "name": "OnlyRulerOrWorldAssetFromSameEra",
      "type": "error"
    },
    {
      "inputs": [],
      "name": "OnlyWorldAssetFromSameEra",
      "type": "error"
    },
    {
      "inputs": [],
      "name": "SecretManeuverRevealNotPossibleAtThisTime",
      "type": "error"
    },
    {
      "inputs": [],
      "name": "SecretManeuverRevealNotPossibleToNotSpecifiedRegion",
      "type": "error"
    },
    {
      "inputs": [],
      "name": "UnknownInputParameter",
      "type": "error"
    },
    {
      "inputs": [],
      "name": "WrongDemilitarizationInput",
      "type": "error"
    },
    {
      "inputs": [],
      "name": "WrongJoinSide",
      "type": "error"
    },
    {
      "inputs": [],
      "name": "WrongRobberyMultiplierSpecified",
      "type": "error"
    },
    {
      "inputs": [],
      "name": "WrongSecretManeuverRevealInfo",
      "type": "error"
    },
    {
      "anonymous": false,
      "inputs": [
        {
          "indexed": false,
          "internalType": "address",
          "name": "battleAddress",
          "type": "address"
        },
        {
          "indexed": false,
          "internalType": "address",
          "name": "targetArmyAddress",
          "type": "address"
        }
      ],
      "name": "BattleCreated",
      "type": "event"
    },
    {
      "anonymous": false,
      "inputs": [
        {
          "indexed": false,
          "internalType": "address",
          "name": "battleAddress",
          "type": "address"
        }
      ],
      "name": "ExitedFromBattle",
      "type": "event"
    },
    {
      "anonymous": false,
      "inputs": [
        {
          "indexed": false,
          "internalType": "uint8",
          "name": "version",
          "type": "uint8"
        }
      ],
      "name": "Initialized",
      "type": "event"
    },
    {
      "anonymous": false,
      "inputs": [
        {
          "indexed": false,
          "internalType": "address",
          "name": "battleAddress",
          "type": "address"
        },
        {
          "indexed": false,
          "internalType": "uint256",
          "name": "side",
          "type": "uint256"
        }
      ],
      "name": "JoinedBattle",
      "type": "event"
    },
    {
      "anonymous": false,
      "inputs": [
        {
          "indexed": false,
          "internalType": "uint64",
          "name": "position",
          "type": "uint64"
        },
        {
          "indexed": false,
          "internalType": "uint64",
          "name": "secretDestinationRegionId",
          "type": "uint64"
        },
        {
          "indexed": false,
          "internalType": "bytes32",
          "name": "secretDestinationPosition",
          "type": "bytes32"
        },
        {
          "indexed": false,
          "internalType": "uint256",
          "name": "beginTime",
          "type": "uint256"
        },
        {
          "indexed": false,
          "internalType": "uint256",
          "name": "endTime",
          "type": "uint256"
        },
        {
          "indexed": false,
          "internalType": "uint256",
          "name": "tokensToSpendOnAcceleration",
          "type": "uint256"
        }
      ],
      "name": "ManeuveringBegan",
      "type": "event"
    },
    {
      "anonymous": false,
      "inputs": [],
      "name": "SecretManeuverCancelled",
      "type": "event"
    },
    {
      "anonymous": false,
      "inputs": [
        {
          "indexed": false,
          "internalType": "uint64",
          "name": "stunBeginTime",
          "type": "uint64"
        },
        {
          "indexed": false,
          "internalType": "uint64",
          "name": "stunEndTime",
          "type": "uint64"
        }
      ],
      "name": "StunApplied",
      "type": "event"
    },
    {
      "anonymous": false,
      "inputs": [
        {
          "indexed": false,
          "internalType": "bytes32[]",
          "name": "unitTypeIds",
          "type": "bytes32[]"
        },
        {
          "indexed": false,
          "internalType": "uint256[]",
          "name": "unitsAmounts",
          "type": "uint256[]"
        }
      ],
      "name": "UnitsDemilitarized",
      "type": "event"
    },
    {
      "anonymous": false,
      "inputs": [
        {
          "indexed": false,
          "internalType": "address",
          "name": "settlementAddress",
          "type": "address"
        },
        {
          "indexed": false,
          "internalType": "uint64",
          "name": "position",
          "type": "uint64"
        }
      ],
      "name": "UpdatedPosition",
      "type": "event"
    },
    {
      "inputs": [
        {
          "internalType": "bytes32",
          "name": "",
          "type": "bytes32"
        }
      ],
      "name": "additionalUnitsBattleMultipliers",
      "outputs": [
        {
          "internalType": "uint256",
          "name": "",
          "type": "uint256"
        }
      ],
      "stateMutability": "view",
      "type": "function"
    },
    {
      "inputs": [
        {
          "internalType": "uint64",
          "name": "stunDuration",
          "type": "uint64"
        }
      ],
      "name": "applySelfStun",
      "outputs": [],
      "stateMutability": "nonpayable",
      "type": "function"
    },
    {
      "inputs": [],
      "name": "assetGroupId",
      "outputs": [
        {
          "internalType": "bytes32",
          "name": "",
          "type": "bytes32"
        }
      ],
      "stateMutability": "view",
      "type": "function"
    },
    {
      "inputs": [],
      "name": "assetTypeId",
      "outputs": [
        {
          "internalType": "bytes32",
          "name": "",
          "type": "bytes32"
        }
      ],
      "stateMutability": "view",
      "type": "function"
    },
    {
      "inputs": [],
      "name": "battle",
      "outputs": [
        {
          "internalType": "contract IBattle",
          "name": "",
          "type": "address"
        }
      ],
      "stateMutability": "view",
      "type": "function"
    },
    {
      "inputs": [
        {
          "internalType": "address",
          "name": "targetArmyAddress",
          "type": "address"
        },
        {
          "internalType": "bytes32[]",
          "name": "maxUnitTypeIdsToAttack",
          "type": "bytes32[]"
        },
        {
          "internalType": "uint256[]",
          "name": "maxUnitsToAttack",
          "type": "uint256[]"
        }
      ],
      "name": "beginBattle",
      "outputs": [],
      "stateMutability": "nonpayable",
      "type": "function"
    },
    {
      "inputs": [
        {
          "internalType": "uint64",
          "name": "position",
          "type": "uint64"
        },
        {
          "internalType": "uint256",
          "name": "foodToSpendOnAcceleration",
          "type": "uint256"
        }
      ],
      "name": "beginOpenManeuver",
      "outputs": [],
      "stateMutability": "nonpayable",
      "type": "function"
    },
    {
      "inputs": [
        {
          "internalType": "uint64",
          "name": "secretDestinationRegionId",
          "type": "uint64"
        },
        {
          "internalType": "bytes32",
          "name": "secretDestinationPosition",
          "type": "bytes32"
        }
      ],
      "name": "beginSecretManeuver",
      "outputs": [],
      "stateMutability": "nonpayable",
      "type": "function"
    },
    {
      "inputs": [
        {
          "internalType": "bytes32[]",
          "name": "unitTypeIds",
          "type": "bytes32[]"
        },
        {
          "internalType": "uint256[]",
          "name": "unitsAmounts",
          "type": "uint256[]"
        }
      ],
      "name": "burnUnits",
      "outputs": [],
      "stateMutability": "nonpayable",
      "type": "function"
    },
    {
      "inputs": [],
      "name": "cancelSecretManeuver",
      "outputs": [],
      "stateMutability": "nonpayable",
      "type": "function"
    },
    {
      "inputs": [],
      "name": "currentPosition",
      "outputs": [
        {
          "internalType": "uint64",
          "name": "",
          "type": "uint64"
        }
      ],
      "stateMutability": "view",
      "type": "function"
    },
    {
      "inputs": [
        {
          "internalType": "bytes32",
          "name": "unitTypeId",
          "type": "bytes32"
        },
        {
          "internalType": "uint256",
          "name": "unitBattleMultiplier",
          "type": "uint256"
        }
      ],
      "name": "decreaseUnitBattleMultiplier",
      "outputs": [],
      "stateMutability": "nonpayable",
      "type": "function"
    },
    {
      "inputs": [
        {
          "internalType": "bytes32[]",
          "name": "unitTypeIds",
          "type": "bytes32[]"
        },
        {
          "internalType": "uint256[]",
          "name": "unitsAmounts",
          "type": "uint256[]"
        }
      ],
      "name": "demilitarize",
      "outputs": [],
      "stateMutability": "nonpayable",
      "type": "function"
    },
    {
      "inputs": [],
      "name": "era",
      "outputs": [
        {
          "internalType": "contract IEra",
          "name": "",
          "type": "address"
        }
      ],
      "stateMutability": "view",
      "type": "function"
    },
    {
      "inputs": [],
      "name": "eraNumber",
      "outputs": [
        {
          "internalType": "uint256",
          "name": "",
          "type": "uint256"
        }
      ],
      "stateMutability": "view",
      "type": "function"
    },
    {
      "inputs": [],
      "name": "getCurrentPosition",
      "outputs": [
        {
          "internalType": "uint64",
          "name": "",
          "type": "uint64"
        }
      ],
      "stateMutability": "view",
      "type": "function"
    },
    {
      "inputs": [],
      "name": "getOwner",
      "outputs": [
        {
          "internalType": "address",
          "name": "",
          "type": "address"
        }
      ],
      "stateMutability": "view",
      "type": "function"
    },
    {
      "inputs": [],
      "name": "getTotalSiegeSupport",
      "outputs": [
        {
          "internalType": "uint256",
          "name": "",
          "type": "uint256"
        }
      ],
      "stateMutability": "view",
      "type": "function"
    },
    {
      "inputs": [
        {
          "internalType": "bytes32",
          "name": "unitTypeId",
          "type": "bytes32"
        },
        {
          "internalType": "uint256",
          "name": "unitBattleMultiplier",
          "type": "uint256"
        }
      ],
      "name": "increaseUnitBattleMultiplier",
      "outputs": [],
      "stateMutability": "nonpayable",
      "type": "function"
    },
    {
      "inputs": [
        {
          "internalType": "bytes",
          "name": "initParams",
          "type": "bytes"
        }
      ],
      "name": "init",
      "outputs": [],
      "stateMutability": "nonpayable",
      "type": "function"
    },
    {
      "inputs": [],
      "name": "isAtHomePosition",
      "outputs": [
        {
          "internalType": "bool",
          "name": "",
          "type": "bool"
        }
      ],
      "stateMutability": "view",
      "type": "function"
    },
    {
      "inputs": [],
      "name": "isManeuvering",
      "outputs": [
        {
          "internalType": "bool",
          "name": "",
          "type": "bool"
        }
      ],
      "stateMutability": "view",
      "type": "function"
    },
    {
      "inputs": [
        {
          "internalType": "address",
          "name": "battleAddress",
          "type": "address"
        },
        {
          "internalType": "uint256",
          "name": "side",
          "type": "uint256"
        }
      ],
      "name": "joinBattle",
      "outputs": [],
      "stateMutability": "nonpayable",
      "type": "function"
    },
    {
      "inputs": [],
      "name": "lastDemilitarizationTime",
      "outputs": [
        {
          "internalType": "uint64",
          "name": "",
          "type": "uint64"
        }
      ],
      "stateMutability": "view",
      "type": "function"
    },
    {
      "inputs": [
        {
          "internalType": "bytes32[]",
          "name": "unitTypeIds",
          "type": "bytes32[]"
        },
        {
          "internalType": "uint256[]",
          "name": "unitsAmounts",
          "type": "uint256[]"
        }
      ],
      "name": "liquidateUnits",
      "outputs": [],
      "stateMutability": "nonpayable",
      "type": "function"
    },
    {
      "inputs": [],
      "name": "maneuverInfo",
      "outputs": [
        {
          "internalType": "uint64",
          "name": "beginTime",
          "type": "uint64"
        },
        {
          "internalType": "uint64",
          "name": "endTime",
          "type": "uint64"
        },
        {
          "internalType": "uint64",
          "name": "destinationPosition",
          "type": "uint64"
        },
        {
          "internalType": "uint64",
          "name": "secretDestinationRegionId",
          "type": "uint64"
        },
        {
          "internalType": "bytes32",
          "name": "secretDestinationPosition",
          "type": "bytes32"
        }
      ],
      "stateMutability": "view",
      "type": "function"
    },
    {
      "inputs": [
        {
          "internalType": "bytes32[]",
          "name": "unitTypeIds",
          "type": "bytes32[]"
        },
        {
          "internalType": "bool[]",
          "name": "toAddIndication",
          "type": "bool[]"
        },
        {
          "internalType": "uint256[]",
          "name": "unitsAmounts",
          "type": "uint256[]"
        },
        {
          "internalType": "uint256",
          "name": "newRobberyMultiplier",
          "type": "uint256"
        }
      ],
      "name": "modifySiege",
      "outputs": [],
      "stateMutability": "nonpayable",
      "type": "function"
    },
    {
      "inputs": [],
      "name": "registry",
      "outputs": [
        {
          "internalType": "contract IRegistry",
          "name": "",
          "type": "address"
        }
      ],
      "stateMutability": "view",
      "type": "function"
    },
    {
      "inputs": [],
      "name": "relatedSettlement",
      "outputs": [
        {
          "internalType": "contract ISettlement",
          "name": "",
          "type": "address"
        }
      ],
      "stateMutability": "view",
      "type": "function"
    },
    {
      "inputs": [
        {
          "internalType": "uint64",
          "name": "destinationPosition",
          "type": "uint64"
        },
        {
          "internalType": "bytes32",
          "name": "revealKey",
          "type": "bytes32"
        },
        {
          "internalType": "uint256",
          "name": "woodToSpendOnAcceleration",
          "type": "uint256"
        }
      ],
      "name": "revealSecretManeuver",
      "outputs": [],
      "stateMutability": "nonpayable",
      "type": "function"
    },
    {
      "inputs": [],
      "name": "stunInfo",
      "outputs": [
        {
          "internalType": "uint64",
          "name": "beginTime",
          "type": "uint64"
        },
        {
          "internalType": "uint64",
          "name": "endTime",
          "type": "uint64"
        }
      ],
      "stateMutability": "view",
      "type": "function"
    },
    {
      "inputs": [
        {
          "internalType": "address",
          "name": "buildingAddress",
          "type": "address"
        },
        {
          "internalType": "uint256",
          "name": "pointsToSpend",
          "type": "uint256"
        }
      ],
      "name": "swapRobberyPointsForResourceFromBuildingTreasury",
      "outputs": [],
      "stateMutability": "nonpayable",
      "type": "function"
    },
    {
      "inputs": [],
      "name": "updateState",
      "outputs": [],
      "stateMutability": "nonpayable",
      "type": "function"
    },
    {
      "inputs": [],
      "name": "world",
      "outputs": [
        {
          "internalType": "contract IWorld",
          "name": "",
          "type": "address"
        }
      ],
      "stateMutability": "view",
      "type": "function"
    },
    {
      "inputs": [],
      "name": "worldAssetFactory",
      "outputs": [
        {
          "internalType": "contract IWorldAssetFactory",
          "name": "",
          "type": "address"
        }
      ],
      "stateMutability": "view",
      "type": "function"
    }
  ],
  "bytecode": "0x6080604052348015600f57600080fd5b50615dad8061001f6000396000f3fe608060405234801561001057600080fd5b50600436106102015760003560e01c80637d884c7411610125578063ab6a9acb116100ad578063c66353a01161007c578063c66353a0146104a3578063cbd60369146104ab578063d534d636146104be578063d5bd7d57146104d8578063ece56a1a146104eb57600080fd5b8063ab6a9acb14610467578063b8c903471461046f578063bc3b0c4b14610482578063c45f10001461048a57600080fd5b80638e55bdc0116100f45780638e55bdc0146103d85780638ff54e35146104165780639cba43f81461042e5780639f86bb6614610441578063ab1060261461045457600080fd5b80637d884c74146103ad57806384ba89e3146103b5578063893d20e8146103bd57806389609e9f146103c557600080fd5b806330b67baa116101a85780634ddf47d4116101775780634ddf47d4146102fa578063574f41251461030d5780635fd5d3a714610320578063610bb6a0146103335780637b103999146103a557600080fd5b806330b67baa146102b7578063394eeca8146102bf578063418f35cc146102df57806344e44545146102e757600080fd5b8063027304b3146102065780630444172f1461021b5780630b4e99c31461024b578063143e55e0146102615780631abcf471146102765780631d8557d7146102895780632242e614146102915780632f04106c146102a4575b600080fd5b610219610214366004615334565b6104f3565b005b60065461022e906001600160401b031681565b6040516001600160401b0390911681526020015b60405180910390f35b6102536108e6565b604051908152602001610242565b610269610923565b60405161024291906153e0565b610219610284366004615409565b6109a7565b610219610ab1565b61021961029f366004615435565b61112c565b6102196102b236600461552d565b61115b565b61026961132f565b6102536102cd3660046155ed565b60056020526000908152604090205481565b61022e611339565b600154610269906001600160a01b031681565b610219610308366004615606565b611421565b61021961031b366004615435565b61160b565b61021961032e3660046156b3565b611631565b60025460035461036a916001600160401b0380821692600160401b8304821692600160801b8104831692600160c01b909104169085565b604080516001600160401b0396871681529486166020860152928516928401929092529092166060820152608081019190915260a001610242565b61026961165f565b6102536116a6565b6102536116e3565b610269611720565b6102196103d336600461552d565b611774565b6004546103f6906001600160401b0380821691600160401b90041682565b604080516001600160401b03938416815292909116602083015201610242565b61041e611ac9565b6040519015158152602001610242565b61021961043c366004615409565b611b08565b61021961044f36600461552d565b611efb565b6102196104623660046156d7565b6121cd565b61025361291d565b61021961047d36600461570c565b612bf9565b61041e612f9c565b600054610269906201000090046001600160a01b031681565b6102196130e2565b6102196104b9366004615792565b6133a9565b60005461022e90600160b01b90046001600160401b031681565b6102196104e6366004615792565b61350e565b6102696139f6565b6104fb613a3d565b610503613b71565b61050b610ab1565b610513613ca8565b1561053157604051631efa2fd160e31b815260040160405180910390fd5b610539611ac9565b156105575760405163db0a291b60e01b815260040160405180910390fd5b6000610561613cc0565b6000549091506001600160a01b036201000090910481169082160361059957604051632fd6e04f60e11b815260040160405180910390fd5b60008060005b8981101561060b5760008787838181106105bb576105bb6157b0565b90506020020135111561060357826105d257600192505b8888828181106105e4576105e46157b0565b90506020020160208101906105f991906157d4565b1561060357600191505b60010161059f565b5080801561061c575061061c613d0c565b1561063a5760405163671284a360e11b815260040160405180910390fd5b506000826001600160a01b0316632de7e9b06040518163ffffffff1660e01b8152600401602060405180830381865afa15801561067b573d6000803e3d6000fd5b505050506040513d601f19601f8201168201806040525081019061069f91906157f1565b90506000816001600160a01b0316633eb233aa306040518263ffffffff1660e01b81526004016106cf91906153e0565b606060405180830381865afa1580156106ec573d6000803e3d6000fd5b505050506040513d601f19601f82011682018060405250810190610710919061580e565b505090506000836107325761072d6729a2241af62c000083615852565b61073c565b6729a2241af62c00005b90508086111561075f5760405163063545e760e01b815260040160405180910390fd5b8315801561076d5750818611155b1561078b5760405163063545e760e01b815260040160405180910390fd5b826001600160a01b031663eacaef90308e8e8e8e8e8e8e6040518963ffffffff1660e01b81526004016107c5989796959493929190615897565b600060405180830381600087803b1580156107df57600080fd5b505af11580156107f3573d6000803e3d6000fd5b5050505060008461080d576108088388615923565b61080f565b865b905060006001670de0b6b3a764000061082b8462015180615936565b6108359190615963565b61083f9190615963565b905061084b4282613d1d565b604051632e5d9f7f60e21b81526001600160a01b0386169063b9767dfc906108779030906004016153e0565b602060405180830381865afa158015610894573d6000803e3d6000fd5b505050506040513d601f19601f820116820180604052508101906108b89190615977565b156108d65760405163c0df548d60e01b815260040160405180910390fd5b5050505050505050505050505050565b604080516020808252818301909252600091309183918291906020820181803683370190505090506020607a60208301853c602001519392505050565b600061092d61132f565b6001600160a01b031663720a70bd6109436116a6565b6040518263ffffffff1660e01b815260040161096191815260200190565b602060405180830381865afa15801561097e573d6000803e3d6000fd5b505050506040513d601f19601f820116820180604052508101906109a291906157f1565b905090565b6109af613a3d565b6109b7613b71565b6109bf610ab1565b6109c7613ca8565b156109e557604051631efa2fd160e31b815260040160405180910390fd5b6109ed613cc0565b6001600160a01b0316632de7e9b06040518163ffffffff1660e01b8152600401602060405180830381865afa158015610a2a573d6000803e3d6000fd5b505050506040513d601f19601f82011682018060405250810190610a4e91906157f1565b6001600160a01b0316631abcf47183836040518363ffffffff1660e01b8152600401610a7b929190615994565b600060405180830381600087803b158015610a9557600080fd5b505af1158015610aa9573d6000803e3d6000fd5b505050505050565b610ab9613d0c565b15610eb957600160009054906101000a90046001600160a01b03166001600160a01b0316631852b5af6040518163ffffffff1660e01b8152600401602060405180830381865afa158015610b11573d6000803e3d6000fd5b505050506040513d601f19601f82011682018060405250810190610b359190615977565b158015610bb45750600160009054906101000a90046001600160a01b03166001600160a01b0316639d4095fe6040518163ffffffff1660e01b8152600401602060405180830381865afa158015610b90573d6000803e3d6000fd5b505050506040513d601f19601f82011682018060405250810190610bb49190615977565b15610c2257600160009054906101000a90046001600160a01b03166001600160a01b031663d1c986186040518163ffffffff1660e01b8152600401600060405180830381600087803b158015610c0957600080fd5b505af1158015610c1d573d6000803e3d6000fd5b505050505b6001546001600160a01b031615801590610cae5750600160009054906101000a90046001600160a01b03166001600160a01b0316631852b5af6040518163ffffffff1660e01b8152600401602060405180830381865afa158015610c8a573d6000803e3d6000fd5b505050506040513d601f19601f82011682018060405250810190610cae9190615977565b15610eb9576001546040516339a88e0160e11b81526001600160a01b0390911690600090819083906373511c0290610cea9030906004016153e0565b600060405180830381865afa158015610d07573d6000803e3d6000fd5b505050506040513d6000823e601f3d908101601f19168201604052610d2f9190810190615a0b565b909250905030632f04106c610d42613dc6565b836040518363ffffffff1660e01b8152600401610d60929190615a51565b600060405180830381600087803b158015610d7a57600080fd5b505af1158015610d8e573d6000803e3d6000fd5b5050600180546001600160a01b031916905550506040805163383f9ac360e01b8152905160009182916001600160a01b0387169163383f9ac39160048083019260609291908290030181865afa158015610dec573d6000803e3d6000fd5b505050506040513d601f19601f82011682018060405250810190610e109190615ad3565b5090925090506000610e228284615b20565b9050600085610e395767093a8dfa07a28000610e43565b6704a628b99fc180005b90506000670de0b6b3a7640000610e63836001600160401b038716615936565b610e6d9190615963565b9050610e798382613d1d565b7ffebc8def56488478b478cd17f7881ec8fd12fce9906b0c458a4612ab4e338f7988604051610ea891906153e0565b60405180910390a150505050505050505b610ec1613e71565b8015610ed05750610ed0613ea2565b1561106757600254600090610ef8906001600160401b0380821691600160401b900416615b3f565b600254909150600160401b90046001600160401b03166000610f1d6001617080615963565b600280546000805467ffffffffffffffff60b01b1916600160801b9092046001600160401b0316600160b01b029190911781556040805160a0810182528281526020810183905290810182905260608101829052608001819052908190556003559050610f8a8282613d1d565b7f8a04a40db03cccace603b464ca2260cf52fca39a4fb28f1da32a7b7e19212c5f610fb3610923565b60005460405163c4c31e8560e01b8152600160b01b9091046001600160401b031660048201526001600160a01b03919091169063c4c31e8590602401602060405180830381865afa15801561100c573d6000803e3d6000fd5b505050506040513d601f19601f8201168201806040525081019061103091906157f1565b600054604080516001600160a01b039093168352600160b01b9091046001600160401b031660208301520160405180910390a15050505b61106f613ca8565b1561112a57600061107e61132f565b6001600160a01b03166344d9bc5f6040518163ffffffff1660e01b8152600401602060405180830381865afa1580156110bb573d6000803e3d6000fd5b505050506040513d601f19601f820116820180604052508101906110df9190615b5e565b9050600081156110f8576110f34283613f76565b6110fa565b425b600454909150600160401b90046001600160401b0316811061112757600480546001600160801b03191690555b50505b565b611134613f90565b60008281526005602052604081208054839290611152908490615923565b90915550505050565b611163613f90565b600061116d610923565b905060005b83518110156113295782818151811061118d5761118d6157b0565b602002602001015160000315611321576000826001600160a01b031663feae7dc38684815181106111c0576111c06157b0565b60200260200101516040518263ffffffff1660e01b81526004016111e691815260200190565b602060405180830381865afa158015611203573d6000803e3d6000fd5b505050506040513d601f19601f8201168201806040525081019061122791906157f1565b90506000816001600160a01b03166370a08231306040518263ffffffff1660e01b815260040161125791906153e0565b602060405180830381865afa158015611274573d6000803e3d6000fd5b505050506040513d601f19601f820116820180604052508101906112989190615b5e565b905060008584815181106112ae576112ae6157b0565b60200260200101519050818111156112c35750805b604051630852cd8d60e31b8152600481018290526001600160a01b038416906342966c6890602401600060405180830381600087803b15801561130557600080fd5b505af1158015611319573d6000803e3d6000fd5b505050505050505b600101611172565b50505050565b60006109a2614048565b60008061134461132f565b6001600160a01b03166344d9bc5f6040518163ffffffff1660e01b8152600401602060405180830381865afa158015611381573d6000803e3d6000fd5b505050506040513d601f19601f820116820180604052508101906113a59190615b5e565b9050600081156113be576113b94283613f76565b6113c0565b425b90506113ca613e71565b80156113e85750600254600160401b90046001600160401b03168110155b15611407575050600254600160801b90046001600160401b0316919050565b5050600054600160b01b90046001600160401b0316919050565b600054610100900460ff16158080156114415750600054600160ff909116105b8061145b5750303b15801561145b575060005460ff166001145b6114c25760405162461bcd60e51b815260206004820152602e60248201527f496e697469616c697a61626c653a20636f6e747261637420697320616c72656160448201526d191e481a5b9a5d1a585b1a5e995960921b606482015260840160405180910390fd5b6000805460ff1916600117905580156114e5576000805461ff0019166101001790555b6000828060200190518101906114fb91906157f1565b905080600060026101000a8154816001600160a01b0302191690836001600160a01b03160217905550600060029054906101000a90046001600160a01b03166001600160a01b03166309218e916040518163ffffffff1660e01b8152600401602060405180830381865afa158015611577573d6000803e3d6000fd5b505050506040513d601f19601f8201168201806040525081019061159b9190615b77565b600060166101000a8154816001600160401b0302191690836001600160401b03160217905550508015611127576000805461ff0019169055604051600181527f7f26b83ff96e1f2b6a682f133852f6798a09c465da95921460cefb38474024989060200160405180910390a15050565b611613613f90565b60008281526005602052604081208054839290611152908490615852565b611639613a3d565b611641613b71565b611649610ab1565b61165c42826001600160401b0316613d1d565b50565b600061166961132f565b6001600160a01b0316637b1039996040518163ffffffff1660e01b8152600401602060405180830381865afa15801561097e573d6000803e3d6000fd5b604080516020808252818301909252600091309183918291906020820181803683370190505090506020609a60208301853c602001519392505050565b604080516020808252818301909252600091309183918291906020820181803683370190505090506020605a60208301853c602001519392505050565b60008060029054906101000a90046001600160a01b03166001600160a01b031663b5acd4566040518163ffffffff1660e01b8152600401602060405180830381865afa15801561097e573d6000803e3d6000fd5b61177c613f90565b604051630bc1041b60e21b81523090632f04106c906117a19085908590600401615a51565b600060405180830381600087803b1580156117bb57600080fd5b505af11580156117cf573d6000803e3d6000fd5b5050505060006117dd613cc0565b90506000816001600160a01b031663e6c15c996040518163ffffffff1660e01b8152600401602060405180830381865afa15801561181f573d6000803e3d6000fd5b505050506040513d601f19601f8201168201806040525081019061184391906157f1565b6001600160a01b031663c20c92506040518163ffffffff1660e01b8152600401602060405180830381865afa158015611880573d6000803e3d6000fd5b505050506040513d601f19601f820116820180604052508101906118a491906157f1565b905060006118b0610923565b9050826001600160a01b0316826001600160a01b031614611ac25760008060005b8751811015611984576000670de0b6b3a76400008883815181106118f7576118f76157b0565b60200260200101516119099190615963565b905061192d898381518110611920576119206157b0565b6020026020010151614085565b6119379082615936565b6119419085615852565b9350611965898381518110611958576119586157b0565b6020026020010151614162565b61196f9082615936565b6119799084615852565b9250506001016118d1565b5081156119e657604051631fd4ad2560e11b8152600481018390526001600160a01b03861690633fa95a4a90602401600060405180830381600087803b1580156119cd57600080fd5b505af11580156119e1573d6000803e3d6000fd5b505050505b8015611abf57826001600160a01b031663cabb62f06040518163ffffffff1660e01b8152600401602060405180830381865afa158015611a2a573d6000803e3d6000fd5b505050506040513d601f19601f82011682018060405250810190611a4e91906157f1565b6001600160a01b03166340c10f1986611a6f84670de0b6b3a764000061421f565b6040518363ffffffff1660e01b8152600401611a8c929190615994565b600060405180830381600087803b158015611aa657600080fd5b505af1158015611aba573d6000803e3d6000fd5b505050505b50505b5050505050565b6000611ad3613e71565b8015611ae45750611ae2613ea2565b155b15611aef5750600190565b611af7614236565b15611b025750600190565b50600090565b611b10613a3d565b611b18613b71565b611b20610ab1565b604080518082019091526006815265626174746c6560d01b6020909101527f1d3e47c3991e843d528c0f9f043ad863de6aeee16578e4fc478e274804caf7e2611b6761132f565b6001600160a01b031663ebbe8034611b7d6116a6565b856040518363ffffffff1660e01b8152600401611b9b929190615b94565b602060405180830381865afa158015611bb8573d6000803e3d6000fd5b505050506040513d601f19601f82011682018060405250810190611bdc9190615b5e565b14611bfa576040516334fd54d360e11b815260040160405180910390fd5b336001600160a01b03831614611c5657611c12611ac9565b15611c305760405163db0a291b60e01b815260040160405180910390fd5b611c38613ca8565b15611c5657604051631efa2fd160e31b815260040160405180910390fd5b611c5e613d0c565b15611c7c5760405163671284a360e11b815260040160405180910390fd5b611c8530614257565b600003611ca557604051633f2820c560e11b815260040160405180910390fd5b80600114158015611cb7575080600214155b15611cd557604051630c6a1c1960e01b815260040160405180910390fd5b6000829050806001600160a01b031663758461356040518163ffffffff1660e01b8152600401602060405180830381865afa158015611d18573d6000803e3d6000fd5b505050506040513d601f19601f82011682018060405250810190611d3c9190615977565b611d595760405163154ca56d60e31b815260040160405180910390fd5b600060169054906101000a90046001600160401b03166001600160401b0316816001600160a01b03166309218e916040518163ffffffff1660e01b8152600401602060405180830381865afa158015611db6573d6000803e3d6000fd5b505050506040513d601f19601f82011682018060405250810190611dda9190615b77565b6001600160401b031614611e0157604051637bc2a38d60e11b815260040160405180910390fd5b600180546001600160a01b0319166001600160a01b03831617815582146000611e2a8385614385565b6040516308f5803f60e41b8152901591506001600160a01b03841690638f5803f090611e5c9030908890600401615994565b600060405180830381600087803b158015611e7657600080fd5b505af1158015611e8a573d6000803e3d6000fd5b50505050818015611e99575080155b15611ebb576000611ead600161a8c0615963565b9050611eb94282613d1d565b505b7f47fe3458f42ceb5e6af6aa6b78401c3bf85a6d44e984b1a84ebf6546f6d8b7618585604051611eec929190615994565b60405180910390a15050505050565b611f03613a3d565b611f0b613b71565b611f13610ab1565b611f1b614455565b15611f39576040516391b410c160e01b815260040160405180910390fd5b611f41613ca8565b15611f5f57604051631efa2fd160e31b815260040160405180910390fd5b611f67613d0c565b15611f855760405163671284a360e11b815260040160405180910390fd5b6000611f8f610923565b905060005b835181101561211a576000838281518110611fb157611fb16157b0565b602002602001015190508060001480611fd95750611fd781670de0b6b3a7640000614494565b155b15611ff7576040516378b4befb60e01b815260040160405180910390fd5b6000836001600160a01b031663feae7dc387858151811061201a5761201a6157b0565b60200260200101516040518263ffffffff1660e01b815260040161204091815260200190565b602060405180830381865afa15801561205d573d6000803e3d6000fd5b505050506040513d601f19601f8201168201806040525081019061208191906157f1565b6001600160a01b03166370a08231306040518263ffffffff1660e01b81526004016120ac91906153e0565b602060405180830381865afa1580156120c9573d6000803e3d6000fd5b505050506040513d601f19601f820116820180604052508101906120ed9190615b5e565b9050818110156121105760405163182d830b60e31b815260040160405180910390fd5b5050600101611f94565b506040516389609e9f60e01b815230906389609e9f906121409086908690600401615a51565b600060405180830381600087803b15801561215a57600080fd5b505af115801561216e573d6000803e3d6000fd5b50506006805467ffffffffffffffff1916426001600160401b031617905550506040517f2a64db6599c5382d2381d60bad93c206dab9f324daa5fda790e6b0ed1d9b13ab906121c09085908590615a51565b60405180910390a1505050565b6121d5613a3d565b6121dd610ab1565b6040805160a0810182526002546001600160401b038082168352600160401b820481166020840152600160801b8204811693830193909352600160c01b900490911660608201526003546080820152612234614236565b612251576040516365266ce960e01b815260040160405180910390fd5b60808101516040516001600160c01b031960c087901b1660208201526028810185905260480160405160208183030381529060405280519060200120146122ab57604051637802828360e11b815260040160405180910390fd5b60006122b561132f565b6001600160a01b031663f5f026a36040518163ffffffff1660e01b8152600401602060405180830381865afa1580156122f2573d6000803e3d6000fd5b505050506040513d601f19601f8201168201806040525081019061231691906157f1565b6000546040516340adb9d560e01b81526001600160401b03600160b01b9092048216600482015290871660248201526001600160a01b0391909116906340adb9d590604401602060405180830381865afa158015612378573d6000803e3d6000fd5b505050506040513d601f19601f8201168201806040525081019061239c9190615b77565b905060006123a9826144a8565b905060008184600001516001600160401b03166123c69190615852565b90508415612495576123d6613ca8565b156123f457604051631efa2fd160e31b815260040160405180910390fd5b6123fc613d0c565b1561241a5760405163671284a360e11b815260040160405180910390fd5b6000612425846144cb565b905060008186600001516001600160401b03166124429190615852565b905060008487600001516001600160401b031661245f9190615852565b90508142108061246f5750804210155b1561248d5760405163409313a960e01b815260040160405180910390fd5b5050506125d6565b61249d613d0c565b1561259b57600080600160009054906101000a90046001600160a01b03166001600160a01b031663383f9ac36040518163ffffffff1660e01b8152600401606060405180830381865afa1580156124f8573d6000803e3d6000fd5b505050506040513d601f19601f8201168201806040525081019061251c9190615ad3565b509092509050600061252e8284615b20565b6001600160401b031690508381106125595760405163409313a960e01b815260040160405180910390fd5b86516001600160401b031684428211806125735750804210155b156125915760405163409313a960e01b815260040160405180910390fd5b50505050506125d6565b83516001600160401b031681428211806125b55750804210155b156125d35760405163409313a960e01b815260040160405180910390fd5b50505b60006125e0610923565b60405163c4c31e8560e01b81526001600160401b038a1660048201526001600160a01b03919091169063c4c31e8590602401602060405180830381865afa15801561262f573d6000803e3d6000fd5b505050506040513d601f19601f8201168201806040525081019061265391906157f1565b90506001600160a01b03811661267c57604051636bc6705b60e11b815260040160405180910390fd5b6000546001600160401b03600160b01b9091048116908916036126b257604051632ea8b7d360e21b815260040160405180910390fd5b6000816001600160a01b031663e6c15c996040518163ffffffff1660e01b8152600401602060405180830381865afa1580156126f2573d6000803e3d6000fd5b505050506040513d601f19601f8201168201806040525081019061271691906157f1565b6001600160a01b031663b2fd89336040518163ffffffff1660e01b8152600401602060405180830381865afa158015612753573d6000803e3d6000fd5b505050506040513d601f19601f820116820180604052508101906127779190615b77565b9050806001600160401b031686606001516001600160401b0316146127af57604051635a11cf6760e11b815260040160405180910390fd5b8387156128255760006127c24286615923565b60408051808201909152600a8152691315535091549352531360b21b6020909101529050600061281482898c7f6efa3da32b5b0a21cf9c6f5bc9edeb1d9e3a4b88cc5eb7b649f1e50294101659614511565b90506128208184615923565b925050505b8651600090612835908390615b20565b905080600260000160086101000a8154816001600160401b0302191690836001600160401b031602179055508a600260000160106101000a8154816001600160401b0302191690836001600160401b031602179055506000600260000160186101000a8154816001600160401b0302191690836001600160401b031602179055506000801b6002600101819055507fdfeba1af9e54b35500726a561ed7ed92532779f5db4dc8b7ba5df57602e416c78b89606001518a608001518b60000151858e60405161290896959493929190615bab565b60405180910390a15050505050505050505050565b600080612928610923565b90506000612934613dc6565b9050600081516001600160401b0381111561295157612951615457565b60405190808252806020026020018201604052801561297a578160200160208202803683370190505b509050612985613d0c565b8015612a035750600160009054906101000a90046001600160a01b03166001600160a01b0316639d4095fe6040518163ffffffff1660e01b8152600401602060405180830381865afa1580156129df573d6000803e3d6000fd5b505050506040513d601f19601f82011682018060405250810190612a039190615977565b15612a81576001546040516339a88e0160e11b81526001600160a01b03909116906373511c0290612a389030906004016153e0565b600060405180830381865afa158015612a55573d6000803e3d6000fd5b505050506040513d6000823e601f3d908101601f19168201604052612a7d9190810190615a0b565b9150505b6000805b8351811015612bf0576000848281518110612aa257612aa26157b0565b602002602001015190506000612ab7826149c8565b9050670de0b6b3a76400008160a00151868581518110612ad957612ad96157b0565b6020026020010151896001600160a01b031663feae7dc3866040518263ffffffff1660e01b8152600401612b0f91815260200190565b602060405180830381865afa158015612b2c573d6000803e3d6000fd5b505050506040513d601f19601f82011682018060405250810190612b5091906157f1565b6001600160a01b03166370a08231306040518263ffffffff1660e01b8152600401612b7b91906153e0565b602060405180830381865afa158015612b98573d6000803e3d6000fd5b505050506040513d601f19601f82011682018060405250810190612bbc9190615b5e565b612bc69190615923565b612bd09190615936565b612bda9190615963565b612be49085615852565b93505050600101612a85565b50949350505050565b612c01613a3d565b612c09613b71565b612c11610ab1565b6000859050806001600160a01b0316631d8557d76040518163ffffffff1660e01b8152600401600060405180830381600087803b158015612c5157600080fd5b505af1158015612c65573d6000803e3d6000fd5b505050506000612c7361132f565b90506000612c7f6116a6565b60408051808201825260048082526361726d7960e01b6020909201919091529051633aefa00d60e21b81529192507f1dfa95949f0b18e5ee916f85d0296148ce2f94b82b74404d6a5d6e64ed9b8c5f916001600160a01b0385169163ebbe803491612cee9186918e9101615b94565b602060405180830381865afa158015612d0b573d6000803e3d6000fd5b505050506040513d601f19601f82011682018060405250810190612d2f9190615b5e565b14612d4d57604051631ca23ba960e01b815260040160405180910390fd5b6001600160a01b0388163003612d765760405163dbfa9fe360e01b815260040160405180910390fd5b612d7e613ca8565b15612d9c57604051631efa2fd160e31b815260040160405180910390fd5b612da4611ac9565b15612dc25760405163db0a291b60e01b815260040160405180910390fd5b826001600160a01b031663418f35cc6040518163ffffffff1660e01b8152600401602060405180830381865afa158015612e00573d6000803e3d6000fd5b505050506040513d601f19601f82011682018060405250810190612e249190615b77565b600054600160b01b90046001600160401b03908116911614612e59576040516313b6cc3f60e11b815260040160405180910390fd5b6000612e636139f6565b6001600160a01b031663c19755fd848460405180604001604052806006815260200165626174746c6560d01b8152508051906020012060405180604001604052806005815260200164424153494360d81b81525080519060200120308f8f8f8f8f604051602001612ed996959493929190615be6565b6040516020818303038152906040526040518663ffffffff1660e01b8152600401612f08959493929190615c33565b6020604051808303816000875af1158015612f27573d6000803e3d6000fd5b505050506040513d601f19601f82011682018060405250810190612f4b91906157f1565b604080516001600160a01b0380841682528c1660208201529192507f1ef6891675997a15544cae2164f91b54f110dde48492f8023f7d73eb16f63153910160405180910390a1505050505050505050565b6000612fa6613e71565b8015612fb55750612fb5613ea2565b1561304e57600060029054906101000a90046001600160a01b03166001600160a01b03166309218e916040518163ffffffff1660e01b8152600401602060405180830381865afa15801561300d573d6000803e3d6000fd5b505050506040513d601f19601f820116820180604052508101906130319190615b77565b600254600160801b90046001600160401b03908116911614919050565b600060029054906101000a90046001600160a01b03166001600160a01b03166309218e916040518163ffffffff1660e01b8152600401602060405180830381865afa1580156130a1573d6000803e3d6000fd5b505050506040513d601f19601f820116820180604052508101906130c59190615b77565b600054600160b01b90046001600160401b03908116911614919050565b6130ea613a3d565b6130f2613b71565b6130fa610ab1565b613102614236565b61311f576040516365266ce960e01b815260040160405180910390fd5b613127613ca8565b1561314557604051631efa2fd160e31b815260040160405180910390fd5b61314d613d0c565b1561316b5760405163671284a360e11b815260040160405180910390fd5b6000613175610923565b9050600061318760016203f480615963565b90506131934282613d1d565b60028054600160401b600160c01b03169055600060038190556131b4613dc6565b9050600081516001600160401b038111156131d1576131d1615457565b6040519080825280602002602001820160405280156131fa578160200160208202803683370190505b50905060005b825181101561332257846001600160a01b031663feae7dc384838151811061322a5761322a6157b0565b60200260200101516040518263ffffffff1660e01b815260040161325091815260200190565b602060405180830381865afa15801561326d573d6000803e3d6000fd5b505050506040513d601f19601f8201168201806040525081019061329191906157f1565b6001600160a01b03166370a08231306040518263ffffffff1660e01b81526004016132bc91906153e0565b602060405180830381865afa1580156132d9573d6000803e3d6000fd5b505050506040513d601f19601f820116820180604052508101906132fd9190615b5e565b82828151811061330f5761330f6157b0565b6020908102919091010152600101613200565b506040516389609e9f60e01b815230906389609e9f906133489085908590600401615a51565b600060405180830381600087803b15801561336257600080fd5b505af1158015613376573d6000803e3d6000fd5b50506040517f17f43c516bdaa870a5b1a2c84f0b47934166331cbe8b8cbbc4217cb5dcaefe2b925060009150a150505050565b6133b1613a3d565b6133b9613b71565b6133c1610ab1565b6133c9613ca8565b156133e757604051631efa2fd160e31b815260040160405180910390fd5b6133ef611ac9565b1561340d5760405163db0a291b60e01b815260040160405180910390fd5b613415613d0c565b156134335760405163671284a360e11b815260040160405180910390fd5b61343b614b69565b1561345957604051637d39eee560e11b815260040160405180910390fd5b61346230614257565b6000036134825760405163340ead6160e01b815260040160405180910390fd5b60028054426001600160401b03818116600160401b600160c01b039093168317600160c01b918716918202179093556003849055604080516000808252602082019590955290810185905260608101929092526080820183905260a08201929092527fdfeba1af9e54b35500726a561ed7ed92532779f5db4dc8b7ba5df57602e416c79060c0016121c0565b613516613a3d565b61351e613b71565b613526610ab1565b61352e613ca8565b1561354c57604051631efa2fd160e31b815260040160405180910390fd5b613554611ac9565b156135725760405163db0a291b60e01b815260040160405180910390fd5b61357a613d0c565b156135985760405163671284a360e11b815260040160405180910390fd5b6135a0614b69565b156135be57604051637d39eee560e11b815260040160405180910390fd5b6000546001600160401b03808416600160b01b90920416036135f357604051632ea8b7d360e21b815260040160405180910390fd5b60006135fd610923565b60405163c4c31e8560e01b81526001600160401b03851660048201526001600160a01b03919091169063c4c31e8590602401602060405180830381865afa15801561364c573d6000803e3d6000fd5b505050506040513d601f19601f8201168201806040525081019061367091906157f1565b90506001600160a01b03811615158061369c57604051636bc6705b60e11b815260040160405180910390fd5b60006136a730614257565b1590508015613706576000546001600160a01b03848116620100009092041614806136e55760405163038eb4e560e51b815260040160405180910390fd5b84156137045760405163a59c22a960e01b815260040160405180910390fd5b505b600061371061132f565b6001600160a01b031663f5f026a36040518163ffffffff1660e01b8152600401602060405180830381865afa15801561374d573d6000803e3d6000fd5b505050506040513d601f19601f8201168201806040525081019061377191906157f1565b6000546040516340adb9d560e01b81526001600160401b03600160b01b9092048216600482015290881660248201526001600160a01b0391909116906340adb9d590604401602060405180830381865afa1580156137d3573d6000803e3d6000fd5b505050506040513d601f19601f820116820180604052508101906137f79190615b77565b90506000613804826144a8565b9050808615613884576000613818846144cb565b905060006138268285615923565b6040805180820190915260048152634641524d60e01b6020909101529050600061387282878c7f15e7d524175663fc8929751799c4e1a8d04fec20bebd7ac2f10532927c1b5c0d614511565b905061387e8185615923565b93505050505b4260006138918383615852565b90506040518060a00160405280836001600160401b03168152602001826001600160401b031681526020018b6001600160401b0316815260200160006001600160401b031681526020016000801b815250600260008201518160000160006101000a8154816001600160401b0302191690836001600160401b0316021790555060208201518160000160086101000a8154816001600160401b0302191690836001600160401b0316021790555060408201518160000160106101000a8154816001600160401b0302191690836001600160401b0316021790555060608201518160000160186101000a8154816001600160401b0302191690836001600160401b03160217905550608082015181600101559050507fdfeba1af9e54b35500726a561ed7ed92532779f5db4dc8b7ba5df57602e416c78a60008060001b85858e6040516139e296959493929190615bab565b60405180910390a150505050505050505050565b6000613a0061165f565b6001600160a01b031663ece56a1a6040518163ffffffff1660e01b8152600401602060405180830381865afa15801561097e573d6000803e3d6000fd5b6000613a4761132f565b90506000816001600160a01b0316633c8ca83d6040518163ffffffff1660e01b8152600401602060405180830381865afa158015613a89573d6000803e3d6000fd5b505050506040513d601f19601f82011682018060405250810190613aad9190615b5e565b90506000826001600160a01b03166344d9bc5f6040518163ffffffff1660e01b8152600401602060405180830381865afa158015613aef573d6000803e3d6000fd5b505050506040513d601f19601f82011682018060405250810190613b139190615b5e565b9050811580613b2157508142105b15613b3f5760405163a00eda6960e01b815260040160405180910390fd5b8015801590613b4e5750804210155b15613b6c5760405163a00eda6960e01b815260040160405180910390fd5b505050565b6000613b7b61132f565b600054604051631b0b969d60e01b81529192506201000090046001600160a01b031690631b0b969d90613bb29033906004016153e0565b602060405180830381865afa158015613bcf573d6000803e3d6000fd5b505050506040513d601f19601f82011682018060405250810190613bf39190615977565b158015613c095750336001600160a01b03821614155b8015613c8a575060006001600160a01b03821663ebbe8034613c296116a6565b336040518363ffffffff1660e01b8152600401613c47929190615b94565b602060405180830381865afa158015613c64573d6000803e3d6000fd5b505050506040513d601f19601f82011682018060405250810190613c889190615b5e565b145b1561165c57604051630d319e2360e41b815260040160405180910390fd5b600454600160401b90046001600160401b0316151590565b6000613cca610923565b6001600160a01b031663c4c31e85613ce0611339565b6040516001600160e01b031960e084901b1681526001600160401b039091166004820152602401610961565b6001546001600160a01b0316151590565b80600003613d29575050565b6000613d358284615b20565b6004549091506001600160401b03600160401b90910481169082161115613b6c57600480546001600160801b031916600160401b6001600160401b0384811691820267ffffffffffffffff1916929092179186169182179092556040805191825260208201929092527ff861d322fccc59c7a2d50d1d5a7e59edd351307a86833244abbb1b584dec696491016121c0565b60606000613dd2614d2d565b9050600081516001600160401b03811115613def57613def615457565b604051908082528060200260200182016040528015613e18578160200160208202803683370190505b50905060005b8151811015613e6a57828181518110613e3957613e396157b0565b602002602001015160400151828281518110613e5757613e576157b0565b6020908102919091010152600101613e1e565b5092915050565b6002546000906001600160401b0316158015906109a2575050600254600160401b90046001600160401b0316151590565b600080613ead61132f565b6001600160a01b03166344d9bc5f6040518163ffffffff1660e01b8152600401602060405180830381865afa158015613eea573d6000803e3d6000fd5b505050506040513d601f19601f82011682018060405250810190613f0e9190615b5e565b905060008115613f2757613f224283613f76565b613f29565b425b600254909150600160401b90046001600160401b031615801590613f5f5750600254600160401b90046001600160401b03168110155b15613f6d5760019250505090565b60009250505090565b6000818310613f855781613f87565b825b90505b92915050565b6000613f9a61132f565b9050336001600160a01b0382161480159061402a575060006001600160a01b03821663ebbe8034613fc96116a6565b336040518363ffffffff1660e01b8152600401613fe7929190615b94565b602060405180830381865afa158015614004573d6000803e3d6000fd5b505050506040513d601f19601f820116820180604052508101906140289190615b5e565b145b1561165c5760405163422656d160e01b815260040160405180910390fd5b604080516014808252818301909252600091309183918291906020820181803683370190505090506014602a60208301853c601401519392505050565b6040805180820190915260078152662ba0a92924a7a960c91b6020909101526000600080516020615d3883398151915282016140c357506000919050565b60408051808201909152600681526520a921a422a960d11b602090910152600080516020615d18833981519152820161410557506729a2241af62c0000919050565b6040805180820190915260088152672427a929a2a6a0a760c11b602090910152600080516020615d5883398151915282016141495750673782dace9d900000919050565b60405163ea3b0abb60e01b815260040160405180910390fd5b6040805180820190915260078152662ba0a92924a7a960c91b6020909101526000600080516020615d3883398151915282016141a75750670de0b6b3a7640000919050565b60408051808201909152600681526520a921a422a960d11b602090910152600080516020615d1883398151915282016141e257506000919050565b6040805180820190915260088152672427a929a2a6a0a760c11b602090910152600080516020615d58833981519152820161414957506000919050565b60008161422c8185615963565b613f879190615936565b6002546000906001600160401b0316158015906109a2575050600354151590565b600080614262610923565b9050600061426e613dc6565b90506000805b8251811015612bf057836001600160a01b031663feae7dc384838151811061429e5761429e6157b0565b60200260200101516040518263ffffffff1660e01b81526004016142c491815260200190565b602060405180830381865afa1580156142e1573d6000803e3d6000fd5b505050506040513d601f19601f8201168201806040525081019061430591906157f1565b6001600160a01b03166370a08231876040518263ffffffff1660e01b815260040161433091906153e0565b602060405180830381865afa15801561434d573d6000803e3d6000fd5b505050506040513d601f19601f820116820180604052508101906143719190615b5e565b61437b9083615852565b9150600101614274565b600080614390613dc6565b905060005b815181101561444a576000856001600160a01b03166338569379868585815181106143c2576143c26157b0565b60200260200101516040518363ffffffff1660e01b81526004016143f0929190918252602082015260400190565b602060405180830381865afa15801561440d573d6000803e3d6000fd5b505050506040513d601f19601f820116820180604052508101906144319190615b5e565b111561444257600192505050613f8a565b600101614395565b506000949350505050565b6000614465600162015180615963565b60065461447b91906001600160401b0316615b20565b6001600160401b0316426001600160401b031610905090565b60006144a08284615ca5565b159392505050565b600060016144b883614650615cb9565b6001600160401b0316613f8a9190615963565b600060016127106144f16144e3856305f5e100615cb9565b6001600160401b0316614f9b565b6144fd90614650615936565b6145079190615963565b613f8a9190615963565b60008061451c61500b565b90506145288185615ca5565b6145329085615923565b935060006145408288615936565b90508085111561454e578094505b6000614558613cc0565b9050600061456582615190565b90506000826001600160a01b031663f10e38af6040518163ffffffff1660e01b8152600401602060405180830381865afa1580156145a7573d6000803e3d6000fd5b505050506040513d601f19601f820116820180604052508101906145cb91906157f1565b9050811561464d57806001600160a01b0316631d8557d76040518163ffffffff1660e01b8152600401600060405180830381600087803b15801561460e57600080fd5b505af1158015614622573d6000803e3d6000fd5b5050505061462f81614257565b1561464d5760405163cdce805560e01b815260040160405180910390fd5b816149b057604051631b973c5760e21b8152600481018890526000906001600160a01b03851690636e5cf15c90602401602060405180830381865afa15801561469a573d6000803e3d6000fd5b505050506040513d601f19601f820116820180604052508101906146be91906157f1565b9050806001600160a01b0316631d8557d76040518163ffffffff1660e01b8152600401600060405180830381600087803b1580156146fb57600080fd5b505af115801561470f573d6000803e3d6000fd5b505050506000614930614720610923565b6001600160a01b031663912929df846001600160a01b03166304b10ac86040518163ffffffff1660e01b8152600401602060405180830381865afa15801561476c573d6000803e3d6000fd5b505050506040513d601f19601f820116820180604052508101906147909190615b5e565b6040518263ffffffff1660e01b81526004016147ae91815260200190565b602060405180830381865afa1580156147cb573d6000803e3d6000fd5b505050506040513d601f19601f820116820180604052508101906147ef91906157f1565b6001600160a01b031663eae33602846040518263ffffffff1660e01b815260040161481a91906153e0565b602060405180830381865afa158015614837573d6000803e3d6000fd5b505050506040513d601f19601f8201168201806040525081019061485b9190615b5e565b836001600160a01b0316633c084b8b856001600160a01b0316638545bc586040518163ffffffff1660e01b8152600401602060405180830381865afa1580156148a8573d6000803e3d6000fd5b505050506040513d601f19601f820116820180604052508101906148cc9190615b5e565b6040518263ffffffff1660e01b81526004016148ea91815260200190565b602060405180830381865afa158015614907573d6000803e3d6000fd5b505050506040513d601f19601f8201168201806040525081019061492b9190615b5e565b613f76565b905089811015614953576040516386a8386760e01b815260040160405180910390fd5b604051632de344e160e21b8152600481018b90526001600160a01b0383169063b78d138490602401600060405180830381600087803b15801561499557600080fd5b505af11580156149a9573d6000803e3d6000fd5b5050505050505b6149ba8589615963565b9a9950505050505050505050565b614a016040518060c001604052806000815260200160008152602001600081526020016000815260200160008152602001600081525090565b6040805180820190915260078152662ba0a92924a7a960c91b602090910152600080516020615d388339815191528201614a79576040518060c0016040528060008152602001601481526020016005815260200160058152602001650a86cc92e3da815260200165150d9925c7b48152509050919050565b60408051808201909152600681526520a921a422a960d11b602090910152600080516020615d188339815191528201614af0576040518060c0016040528060058152602001600581526020016000815260200160058152602001650a86cc92e3da815260200165150d9925c7b48152509050919050565b6040805180820190915260088152672427a929a2a6a0a760c11b602090910152600080516020615d588339815191528201614149576040518060c0016040528060008152602001600581526020016005815260200160148152602001650a86cc92e3da815260200165150d9925c7b48152509050919050565b600080614b74613cc0565b90506040518060400160405280600881526020016743554c544953545360c01b81525080519060200120816001600160a01b0316630b4e99c36040518163ffffffff1660e01b8152600401602060405180830381865afa158015614bdc573d6000803e3d6000fd5b505050506040513d601f19601f82011682018060405250810190614c009190615b5e565b03614c0d57600091505090565b6000816001600160a01b0316632de7e9b06040518163ffffffff1660e01b8152600401602060405180830381865afa158015614c4d573d6000803e3d6000fd5b505050506040513d601f19601f82011682018060405250810190614c7191906157f1565b6001600160a01b031663417fbd1d306040518263ffffffff1660e01b8152600401614c9c91906153e0565b600060405180830381865afa158015614cb9573d6000803e3d6000fd5b505050506040513d6000823e601f3d908101601f19168201604052614ce19190810190615cdb565b905060005b8151811015614d23576000828281518110614d0357614d036157b0565b60200260200101511115614d1b576001935050505090565b600101614ce6565b5060009250505090565b6040805160038082526080820190925260609160009190816020015b60408051606080820183528082526020820152600091810191909152815260200190600190039081614d495750506040805160a0810182526011606082019081527026b4ba343930b2bab6902bb0b93934b7b960791b6080830152815281518083018352600881526736aba0a92924a7a960c11b602080830191909152808301919091528251808401845260078152662ba0a92924a7a960c91b9101527f69c5317e5ce44f1a1fb56c6a5eff904214e6353da6310ab0a6b511eef9a7c391918101919091528151919250908290600090614e2557614e256157b0565b6020908102919091018101919091526040805160a0810182526010606082019081526f26b4ba343930b2bab69020b931b432b960811b6080830152815281518083018352600781526636a0a921a422a960c91b818501528184015281518083018352600681526520a921a422a960d11b9301929092527f42de5fbfc07577d3e9942df95dd4e61cabcab8907d5d333240140b2999379e4090820152815182906001908110614ed557614ed56157b0565b6020908102919091018101919091526040805160a0810182526012606082019081527126b4ba343930b2bab6902437b939b2b6b0b760711b6080830152815281518083018352600981526836a427a929a2a6a0a760b91b81850152818401528151808301835260088152672427a929a2a6a0a760c11b9301929092527f89d5ee6f4fcb32fb3c151bc25e6bc320fec82ba89cb3b29d1969d907e0e6793990820152815182906002908110614f8b57614f8b6157b0565b6020908102919091010152919050565b60006003821115614ffc5750806000614fb5600283615963565b614fc0906001615852565b90505b81811015614ff657905080600281614fdb8186615963565b614fe59190615852565b614fef9190615963565b9050614fc3565b50919050565b8115615006575060015b919050565b600080615016610923565b90506000615022613dc6565b90506000805b825181101561517c576000846001600160a01b031663feae7dc3858481518110615054576150546157b0565b60200260200101516040518263ffffffff1660e01b815260040161507a91815260200190565b602060405180830381865afa158015615097573d6000803e3d6000fd5b505050506040513d601f19601f820116820180604052508101906150bb91906157f1565b6001600160a01b03166370a08231306040518263ffffffff1660e01b81526004016150e691906153e0565b602060405180830381865afa158015615103573d6000803e3d6000fd5b505050506040513d601f19601f820116820180604052508101906151279190615b5e565b905061514b84838151811061513e5761513e6157b0565b6020026020010151615223565b61515d670de0b6b3a764000083615963565b6151679190615936565b6151719084615852565b925050600101615028565b50615188600182615936565b935050505090565b60006040518060400160405280600881526020016743554c544953545360c01b81525080519060200120826001600160a01b0316630b4e99c36040518163ffffffff1660e01b8152600401602060405180830381865afa1580156151f8573d6000803e3d6000fd5b505050506040513d601f19601f8201168201806040525081019061521c9190615b5e565b1492915050565b6040805180820190915260078152662ba0a92924a7a960c91b6020909101526000600080516020615d388339815191528201615267575066012f2a36ecd555919050565b60408051808201909152600681526520a921a422a960d11b602090910152600080516020615d1883398151915282016152a757506597951b766aaa919050565b6040805180820190915260088152672427a929a2a6a0a760c11b602090910152600080516020615d5883398151915282016141495750653287092778e3919050565b60008083601f8401126152fb57600080fd5b5081356001600160401b0381111561531257600080fd5b6020830191508360208260051b850101111561532d57600080fd5b9250929050565b60008060008060008060006080888a03121561534f57600080fd5b87356001600160401b0381111561536557600080fd5b6153718a828b016152e9565b90985096505060208801356001600160401b0381111561539057600080fd5b61539c8a828b016152e9565b90965094505060408801356001600160401b038111156153bb57600080fd5b6153c78a828b016152e9565b989b979a50959894979596606090950135949350505050565b6001600160a01b0391909116815260200190565b6001600160a01b038116811461165c57600080fd5b6000806040838503121561541c57600080fd5b8235615427816153f4565b946020939093013593505050565b6000806040838503121561544857600080fd5b50508035926020909101359150565b634e487b7160e01b600052604160045260246000fd5b604051601f8201601f191681016001600160401b038111828210171561549557615495615457565b604052919050565b60006001600160401b038211156154b6576154b6615457565b5060051b60200190565b600082601f8301126154d157600080fd5b81356154e46154df8261549d565b61546d565b8082825260208201915060208360051b86010192508583111561550657600080fd5b602085015b8381101561552357803583526020928301920161550b565b5095945050505050565b6000806040838503121561554057600080fd5b82356001600160401b0381111561555657600080fd5b8301601f8101851361556757600080fd5b80356155756154df8261549d565b8082825260208201915060208360051b85010192508783111561559757600080fd5b6020840193505b828410156155b957833582526020938401939091019061559e565b945050505060208301356001600160401b038111156155d757600080fd5b6155e3858286016154c0565b9150509250929050565b6000602082840312156155ff57600080fd5b5035919050565b60006020828403121561561857600080fd5b81356001600160401b0381111561562e57600080fd5b8201601f8101841361563f57600080fd5b80356001600160401b0381111561565857615658615457565b61566b601f8201601f191660200161546d565b81815285602083850101111561568057600080fd5b81602084016020830137600091810160200191909152949350505050565b6001600160401b038116811461165c57600080fd5b6000602082840312156156c557600080fd5b81356156d08161569e565b9392505050565b6000806000606084860312156156ec57600080fd5b83356156f78161569e565b95602085013595506040909401359392505050565b60008060008060006060868803121561572457600080fd5b853561572f816153f4565b945060208601356001600160401b0381111561574a57600080fd5b615756888289016152e9565b90955093505060408601356001600160401b0381111561577557600080fd5b615781888289016152e9565b969995985093965092949392505050565b600080604083850312156157a557600080fd5b82356154278161569e565b634e487b7160e01b600052603260045260246000fd5b801515811461165c57600080fd5b6000602082840312156157e657600080fd5b81356156d0816157c6565b60006020828403121561580357600080fd5b81516156d0816153f4565b60008060006060848603121561582357600080fd5b5050815160208301516040909301519094929350919050565b634e487b7160e01b600052601160045260246000fd5b80820180821115613f8a57613f8a61583c565b81835260006001600160fb1b0383111561587e57600080fd5b8260051b80836020870137939093016020019392505050565b6001600160a01b038916815260a0602082018190526000906158bc908301898b615865565b8281036040840152868152879060200160005b888110156158f85782356158e2816157c6565b15158252602092830192909101906001016158cf565b50838103606085015261590c818789615865565b925050508260808301529998505050505050505050565b81810381811115613f8a57613f8a61583c565b8082028115828204841417613f8a57613f8a61583c565b634e487b7160e01b600052601260045260246000fd5b6000826159725761597261594d565b500490565b60006020828403121561598957600080fd5b81516156d0816157c6565b6001600160a01b03929092168252602082015260400190565b600082601f8301126159be57600080fd5b81516159cc6154df8261549d565b8082825260208201915060208360051b8601019250858311156159ee57600080fd5b602085015b838110156155235780518352602092830192016159f3565b60008060408385031215615a1e57600080fd5b8251615a29816157c6565b60208401519092506001600160401b03811115615a4557600080fd5b6155e3858286016159ad565b6040808252835190820181905260009060208501906060840190835b81811015615a8b578351835260209384019390920191600101615a6d565b50508381036020808601919091528551808352918101925085019060005b81811015615ac7578251845260209384019390920191600101615aa9565b50919695505050505050565b600080600060608486031215615ae857600080fd5b8351615af38161569e565b6020850151909350615b048161569e565b6040850151909250615b158161569e565b809150509250925092565b6001600160401b038181168382160190811115613f8a57613f8a61583c565b6001600160401b038281168282160390811115613f8a57613f8a61583c565b600060208284031215615b7057600080fd5b5051919050565b600060208284031215615b8957600080fd5b81516156d08161569e565b9182526001600160a01b0316602082015260400190565b6001600160401b039687168152948616602086015260408501939093529084166060840152909216608082015260a081019190915260c00190565b6001600160a01b03878116825286166020820152608060408201819052600090615c139083018688615865565b8281036060840152615c26818587615865565b9998505050505050505050565b60018060a01b038616815284602082015283604082015282606082015260a06080820152600082518060a084015260005b81811015615c8157602081860181015160c0868401015201615c64565b50600060c0828501015260c0601f19601f8301168401019150509695505050505050565b600082615cb457615cb461594d565b500690565b6001600160401b038181168382160290811690818114613e6a57613e6a61583c565b600060208284031215615ced57600080fd5b81516001600160401b03811115615d0357600080fd5b615d0f848285016159ad565b94935050505056febd21a0403f8a882c166bd206a22b19e35435476f82a2cccdbfebf4d666c861c0963ace81a31bb0e5e04a9395a1006fbdeb19cac259cef54f594aee1106583c6f762a1190b034cd04c3eae43da1943cdf0137d457634c4d62e69626f81f1986c7a26469706673582212205c9b67ccdb641d9903548904695c5c0f081d539444c2fd122c831d5a6654f5a864736f6c634300081a0033",
  "linkReferences": {},
  "deployedLinkReferences": {}
}