{
  "_format": "hh-sol-artifact-1",
  "contractName": "WorldAssetFactory",
  "sourceName": "contracts/core/assets/WorldAssetFactory.sol",
  "abi": [
    {
      "inputs": [],
      "name": "OnlyWorldOrWorldAsset",
      "type": "error"
    },
    {
      "inputs": [
        {
          "internalType": "address",
          "name": "worldAddress",
          "type": "address"
        },
        {
          "internalType": "uint256",
          "name": "eraNumber",
          "type": "uint256"
        },
        {
          "internalType": "bytes32",
          "name": "assetGroupId",
          "type": "bytes32"
        },
        {
          "internalType": "bytes32",
          "name": "assetTypeId",
          "type": "bytes32"
        },
        {
          "internalType": "bytes",
          "name": "initParams",
          "type": "bytes"
        }
      ],
      "name": "create",
      "outputs": [
        {
          "internalType": "address",
          "name": "",
          "type": "address"
        }
      ],
      "stateMutability": "nonpayable",
      "type": "function"
    }
  ],
  "bytecode": "0x6080604052348015600f57600080fd5b506104ad8061001f6000396000f3fe608060405234801561001057600080fd5b506004361061002b5760003560e01c8063c19755fd14610030575b600080fd5b61004361003e36600461031b565b61005f565b6040516001600160a01b03909116815260200160405180910390f35b60008061006e878787876100da565b604051631377d1f560e21b81529091506001600160a01b03821690634ddf47d49061009d908690600401610410565b600060405180830381600087803b1580156100b757600080fd5b505af11580156100cb573d6000803e3d6000fd5b50929998505050505050505050565b600084846100e8828261016f565b60006100f688888888610219565b60405163909a853160e01b8152600481018990526001600160a01b038083166024830152604482018990529192509089169063909a853190606401600060405180830381600087803b15801561014b57600080fd5b505af115801561015f573d6000803e3d6000fd5b50929a9950505050505050505050565b336001600160a01b038316148015906101f75750604051633aefa00d60e21b8152600481018290523360248201526000906001600160a01b0384169063ebbe803490604401602060405180830381865afa1580156101d1573d6000803e3d6000fd5b505050506040513d601f19601f820116820180604052508101906101f5919061045e565b145b1561021557604051634ffa334f60e01b815260040160405180910390fd5b5050565b6000808383604051602001610238929190918252602082015260400190565b60408051808303601f1901815282825280516020918201206d0c17500c012be72bfe6ff773274b60931b8285015263ffffffff198116602e850152685f5260205f60245f7360b81b604a85015260608a901b6bffffffffffffffffffffffff191660538501527f5afa1551365f5f375f365f5f935af43d5f5f3e5f3d91605857fd5bf30000000060678501526083840188905260a3840187905260c38085018a90528351808603909101815260e3909401909252825191935060009190830182f098975050505050505050565b634e487b7160e01b600052604160045260246000fd5b600080600080600060a0868803121561033357600080fd5b85356001600160a01b038116811461034a57600080fd5b9450602086013593506040860135925060608601359150608086013567ffffffffffffffff81111561037b57600080fd5b8601601f8101881361038c57600080fd5b803567ffffffffffffffff8111156103a6576103a6610305565b604051601f8201601f19908116603f0116810167ffffffffffffffff811182821017156103d5576103d5610305565b6040528181528282016020018a10156103ed57600080fd5b816020840160208301376000602083830101528093505050509295509295909350565b602081526000825180602084015260005b8181101561043e5760208186018101516040868401015201610421565b506000604082850101526040601f19601f83011684010191505092915050565b60006020828403121561047057600080fd5b505191905056fea2646970667358221220c26c78ddc98f36b89ce6bb12aafb9c3433118d16e2f7c5678af12bca1e3f6eae64736f6c634300081a0033",
  "linkReferences": {},
  "deployedLinkReferences": {}
}