{
  "_format": "hh-sol-artifact-1",
  "contractName": "Resolver",
  "sourceName": "contracts/periphery/Resolver.sol",
  "abi": [
    {
      "anonymous": false,
      "inputs": [
        {
          "indexed": false,
          "internalType": "address",
          "name": "deployer",
          "type": "address"
        },
        {
          "indexed": false,
          "internalType": "string",
          "name": "environmentName",
          "type": "string"
        },
        {
          "indexed": false,
          "internalType": "address",
          "name": "worldAddress",
          "type": "address"
        }
      ],
      "name": "NewWorldAddress",
      "type": "event"
    },
    {
      "inputs": [
        {
          "internalType": "string",
          "name": "environmentName",
          "type": "string"
        },
        {
          "internalType": "address",
          "name": "worldAddress",
          "type": "address"
        }
      ],
      "name": "setWorldAddress",
      "outputs": [],
      "stateMutability": "nonpayable",
      "type": "function"
    },
    {
      "inputs": [
        {
          "internalType": "address",
          "name": "",
          "type": "address"
        },
        {
          "internalType": "string",
          "name": "",
          "type": "string"
        }
      ],
      "name": "worlds",
      "outputs": [
        {
          "internalType": "address",
          "name": "",
          "type": "address"
        }
      ],
      "stateMutability": "view",
      "type": "function"
    }
  ],
  "bytecode": "0x6080604052348015600f57600080fd5b506103628061001f6000396000f3fe608060405234801561001057600080fd5b50600436106100365760003560e01c806333601b5d1461003b57806366b42cfc14610050575b600080fd5b61004e6100493660046101fd565b6100ae565b005b61009261005e36600461024b565b600060208181529281526040902081518083018401805192815290840192909301919091209152546001600160a01b031681565b6040516001600160a01b03909116815260200160405180910390f35b336000908152602081905260409081902090518291906100cf9085906102bd565b90815260405190819003602001812080546001600160a01b03939093166001600160a01b0319909316929092179091557fc219116f670ad2db6bd792174de75b2007f3ce26201ce084717bd66d3e37306890610130903390859085906102d9565b60405180910390a15050565b634e487b7160e01b600052604160045260246000fd5b600082601f83011261016357600080fd5b813567ffffffffffffffff81111561017d5761017d61013c565b604051601f8201601f19908116603f0116810167ffffffffffffffff811182821017156101ac576101ac61013c565b6040528181528382016020018510156101c457600080fd5b816020850160208301376000918101602001919091529392505050565b80356001600160a01b03811681146101f857600080fd5b919050565b6000806040838503121561021057600080fd5b823567ffffffffffffffff81111561022757600080fd5b61023385828601610152565b925050610242602084016101e1565b90509250929050565b6000806040838503121561025e57600080fd5b610267836101e1565b9150602083013567ffffffffffffffff81111561028357600080fd5b61028f85828601610152565b9150509250929050565b60005b838110156102b457818101518382015260200161029c565b50506000910152565b600082516102cf818460208701610299565b9190910192915050565b60018060a01b03841681526060602082015260008351806060840152610306816080850160208801610299565b6001600160a01b0393909316604083015250601f91909101601f1916016080019291505056fea2646970667358221220474799a7154be5960a7d1bc913197b263a3fb0166c38c599cf72c834beb6c11f64736f6c634300081a0033",
  "linkReferences": {},
  "deployedLinkReferences": {}
}