{
  "_format": "hh-sol-artifact-1",
  "contractName": "TileCapturingSystem",
  "sourceName": "contracts/core/assets/tileCapturingSystem/TileCapturingSystem.sol",
  "abi": [
    {
      "inputs": [],
      "name": "CannotBeginTileCaptureBySettlementAlreadyHavingMaximumCapturedTilesWithSameBonus",
      "type": "error"
    },
    {
      "inputs": [],
      "name": "CannotBeginTileCaptureBySettlementWhichIsAlreadyCapturingTile",
      "type": "error"
    },
    {
      "inputs": [],
      "name": "CannotBeginTileCaptureDueToNonExistentPositionSpecified",
      "type": "error"
    },
    {
      "inputs": [],
      "name": "CannotBeginTileCaptureDueToNotHavingSpecifiedProsperity",
      "type": "error"
    },
    {
      "inputs": [],
      "name": "CannotBeginTileCaptureDueToNotReachedNextMinimumProsperityStake",
      "type": "error"
    },
    {
      "inputs": [],
      "name": "CannotBeginTileCaptureOfPositionWithoutBonus",
      "type": "error"
    },
    {
      "inputs": [],
      "name": "CannotBeginTileCaptureOnNotActivatedRegion",
      "type": "error"
    },
    {
      "inputs": [],
      "name": "CannotBeginTileCaptureOnPositionWithSettlement",
      "type": "error"
    },
    {
      "inputs": [],
      "name": "CapturedTileCannotBeGivenUpByNonSettlementOwner",
      "type": "error"
    },
    {
      "inputs": [],
      "name": "ClaimTileCaptureCannotBeDoneAtThisTime",
      "type": "error"
    },
    {
      "inputs": [],
      "name": "ClaimTileCaptureCannotBeDoneByNonUsurperSettlement",
      "type": "error"
    },
    {
      "inputs": [],
      "name": "ClaimTileCaptureCannotBeDoneWithoutNecessaryProsperity",
      "type": "error"
    },
    {
      "inputs": [],
      "name": "OnlyActiveGame",
      "type": "error"
    },
    {
      "inputs": [],
      "name": "OnlyMightyCreator",
      "type": "error"
    },
    {
      "inputs": [],
      "name": "OnlyWorldAssetFromSameEra",
      "type": "error"
    },
    {
      "inputs": [],
      "name": "TileCaptureCannotBeCancelledBySettlementWhichIsNotCurrentTileUsurper",
      "type": "error"
    },
    {
      "inputs": [],
      "name": "UnknownInputParameter",
      "type": "error"
    },
    {
      "inputs": [],
      "name": "UnknownTileBonus",
      "type": "error"
    },
    {
      "anonymous": false,
      "inputs": [
        {
          "indexed": false,
          "internalType": "address",
          "name": "previousSettlementOwnerAddress",
          "type": "address"
        },
        {
          "indexed": false,
          "internalType": "uint64",
          "name": "position",
          "type": "uint64"
        },
        {
          "indexed": false,
          "internalType": "address",
          "name": "settlementAddress",
          "type": "address"
        },
        {
          "indexed": false,
          "internalType": "uint256",
          "name": "prosperityStake",
          "type": "uint256"
        }
      ],
      "name": "CapturedTileClaimed",
      "type": "event"
    },
    {
      "anonymous": false,
      "inputs": [
        {
          "indexed": false,
          "internalType": "uint64",
          "name": "position",
          "type": "uint64"
        },
        {
          "indexed": false,
          "internalType": "address",
          "name": "settlementAddress",
          "type": "address"
        }
      ],
      "name": "CapturedTileGivenUp",
      "type": "event"
    },
    {
      "anonymous": false,
      "inputs": [
        {
          "indexed": false,
          "internalType": "uint8",
          "name": "version",
          "type": "uint8"
        }
      ],
      "name": "Initialized",
      "type": "event"
    },
    {
      "anonymous": false,
      "inputs": [
        {
          "indexed": false,
          "internalType": "address",
          "name": "previousUsurperAddress",
          "type": "address"
        },
        {
          "indexed": false,
          "internalType": "uint64",
          "name": "position",
          "type": "uint64"
        },
        {
          "indexed": false,
          "internalType": "address",
          "name": "settlementAddress",
          "type": "address"
        },
        {
          "indexed": false,
          "internalType": "uint256",
          "name": "prosperityStake",
          "type": "uint256"
        },
        {
          "indexed": false,
          "internalType": "uint64",
          "name": "captureBeginTime",
          "type": "uint64"
        },
        {
          "indexed": false,
          "internalType": "uint64",
          "name": "captureEndTime",
          "type": "uint64"
        }
      ],
      "name": "TileCapturingBegan",
      "type": "event"
    },
    {
      "anonymous": false,
      "inputs": [
        {
          "indexed": false,
          "internalType": "uint64",
          "name": "position",
          "type": "uint64"
        },
        {
          "indexed": false,
          "internalType": "address",
          "name": "settlementAddress",
          "type": "address"
        }
      ],
      "name": "TileCapturingCancelled",
      "type": "event"
    },
    {
      "inputs": [],
      "name": "assetGroupId",
      "outputs": [
        {
          "internalType": "bytes32",
          "name": "",
          "type": "bytes32"
        }
      ],
      "stateMutability": "view",
      "type": "function"
    },
    {
      "inputs": [],
      "name": "assetTypeId",
      "outputs": [
        {
          "internalType": "bytes32",
          "name": "",
          "type": "bytes32"
        }
      ],
      "stateMutability": "view",
      "type": "function"
    },
    {
      "inputs": [
        {
          "internalType": "address",
          "name": "settlementAddress",
          "type": "address"
        },
        {
          "internalType": "uint64",
          "name": "position",
          "type": "uint64"
        },
        {
          "internalType": "uint256",
          "name": "prosperityStake",
          "type": "uint256"
        }
      ],
      "name": "beginTileCapture",
      "outputs": [],
      "stateMutability": "nonpayable",
      "type": "function"
    },
    {
      "inputs": [
        {
          "internalType": "address",
          "name": "settlementAddress",
          "type": "address"
        },
        {
          "internalType": "uint64",
          "name": "position",
          "type": "uint64"
        }
      ],
      "name": "cancelTileCapture",
      "outputs": [],
      "stateMutability": "nonpayable",
      "type": "function"
    },
    {
      "inputs": [
        {
          "internalType": "address",
          "name": "settlementAddress",
          "type": "address"
        },
        {
          "internalType": "uint64",
          "name": "position",
          "type": "uint64"
        }
      ],
      "name": "claimTileCapture",
      "outputs": [],
      "stateMutability": "nonpayable",
      "type": "function"
    },
    {
      "inputs": [],
      "name": "era",
      "outputs": [
        {
          "internalType": "contract IEra",
          "name": "",
          "type": "address"
        }
      ],
      "stateMutability": "view",
      "type": "function"
    },
    {
      "inputs": [],
      "name": "eraNumber",
      "outputs": [
        {
          "internalType": "uint256",
          "name": "",
          "type": "uint256"
        }
      ],
      "stateMutability": "view",
      "type": "function"
    },
    {
      "inputs": [
        {
          "internalType": "address",
          "name": "settlementAddress",
          "type": "address"
        },
        {
          "internalType": "uint8",
          "name": "tileBonusType",
          "type": "uint8"
        }
      ],
      "name": "getCapturedTilesBySettlementAddress",
      "outputs": [
        {
          "internalType": "uint64[]",
          "name": "",
          "type": "uint64[]"
        }
      ],
      "stateMutability": "view",
      "type": "function"
    },
    {
      "inputs": [
        {
          "internalType": "address",
          "name": "settlementAddress",
          "type": "address"
        },
        {
          "internalType": "uint64",
          "name": "position",
          "type": "uint64"
        }
      ],
      "name": "giveUpCapturedTile",
      "outputs": [],
      "stateMutability": "nonpayable",
      "type": "function"
    },
    {
      "inputs": [
        {
          "internalType": "uint64",
          "name": "position",
          "type": "uint64"
        }
      ],
      "name": "handleSettlementCreatedOnPosition",
      "outputs": [],
      "stateMutability": "nonpayable",
      "type": "function"
    },
    {
      "inputs": [
        {
          "internalType": "bytes",
          "name": "initParams",
          "type": "bytes"
        }
      ],
      "name": "init",
      "outputs": [],
      "stateMutability": "nonpayable",
      "type": "function"
    },
    {
      "inputs": [],
      "name": "registry",
      "outputs": [
        {
          "internalType": "contract IRegistry",
          "name": "",
          "type": "address"
        }
      ],
      "stateMutability": "view",
      "type": "function"
    },
    {
      "inputs": [
        {
          "internalType": "address",
          "name": "",
          "type": "address"
        }
      ],
      "name": "settlementCapturingTile",
      "outputs": [
        {
          "internalType": "uint64",
          "name": "",
          "type": "uint64"
        }
      ],
      "stateMutability": "view",
      "type": "function"
    },
    {
      "inputs": [
        {
          "internalType": "uint64",
          "name": "",
          "type": "uint64"
        }
      ],
      "name": "tilesInfo",
      "outputs": [
        {
          "internalType": "address",
          "name": "ownerSettlementAddress",
          "type": "address"
        },
        {
          "internalType": "address",
          "name": "usurperSettlementAddress",
          "type": "address"
        },
        {
          "internalType": "uint256",
          "name": "usurperProsperityStake",
          "type": "uint256"
        },
        {
          "internalType": "uint64",
          "name": "usurperCaptureBeginTime",
          "type": "uint64"
        },
        {
          "internalType": "uint64",
          "name": "usurperCaptureEndTime",
          "type": "uint64"
        }
      ],
      "stateMutability": "view",
      "type": "function"
    },
    {
      "inputs": [],
      "name": "world",
      "outputs": [
        {
          "internalType": "contract IWorld",
          "name": "",
          "type": "address"
        }
      ],
      "stateMutability": "view",
      "type": "function"
    },
    {
      "inputs": [],
      "name": "worldAssetFactory",
      "outputs": [
        {
          "internalType": "contract IWorldAssetFactory",
          "name": "",
          "type": "address"
        }
      ],
      "stateMutability": "view",
      "type": "function"
    }
  ],
  "bytecode": "0x6080604052348015600f57600080fd5b50612d778061001f6000396000f3fe608060405234801561001057600080fd5b50600436106100e05760003560e01c80637b103999116100875780637b103999146101c45780637d884c74146101cc57806384ba89e3146101d4578063cc307235146101dc578063db06797b14610273578063e06ca91714610286578063ece56a1a14610299578063f21f493c146102a157600080fd5b80630b4e99c3146100e55780630d62a24614610100578063123753dd14610115578063143e55e01461015657806330b67baa14610176578063447b9aa01461017e5780634ddf47d41461019e578063793adbc4146101b1575b600080fd5b6100ed6102b4565b6040519081526020015b60405180910390f35b61011361010e366004612984565b6102f1565b005b61013e6101233660046129bd565b6002602052600090815260409020546001600160401b031681565b6040516001600160401b0390911681526020016100f7565b61015e610791565b6040516001600160a01b0390911681526020016100f7565b61015e610815565b61019161018c3660046129e9565b61081f565b6040516100f79190612a17565b6101136101ac366004612aa9565b610936565b6101136101bf366004612984565b610a44565b61015e610c25565b6100ed610c6c565b6100ed610ca9565b6102346101ea366004612b41565b600360208190526000918252604090912080546001820154600283015492909301546001600160a01b039182169390911691906001600160401b0380821691600160401b90041685565b604080516001600160a01b039687168152959094166020860152928401919091526001600160401b03908116606084015216608082015260a0016100f7565b610113610281366004612984565b610ce6565b610113610294366004612b41565b610f43565b61015e61114b565b6101136102af366004612b5e565b611192565b604080516020808252818301909252600091309183918291906020820181803683370190505090506020607a60208301853c602001519392505050565b6102f9611b65565b816001600160a01b031663bea42f9c6040518163ffffffff1660e01b8152600401600060405180830381600087803b15801561033457600080fd5b505af1158015610348573d6000803e3d6000fd5b5050506001600160401b0382166000908152600360205260408120915061036d610815565b6001600160a01b031663f5f026a36040518163ffffffff1660e01b8152600401602060405180830381865afa1580156103aa573d6000803e3d6000fd5b505050506040513d601f19601f820116820180604052508101906103ce9190612b9f565b604051630915dd5d60e01b81526001600160401b03851660048201526001600160a01b039190911690630915dd5d906024016040805180830381865afa15801561041c573d6000803e3d6000fd5b505050506040513d601f19601f820116820180604052508101906104409190612bbc565b509050600061044f8285611c24565b60018401549091506001600160a01b0386811691161461048257604051637de2716760e11b815260040160405180910390fd5b60038301546001600160401b03600160401b90910481164290911610156104bc57604051630ec0969760e11b815260040160405180910390fd5b60028301546000670de0b6b3a76400006104d68184612c06565b6104e09190612c1d565b9050806104eb610791565b6001600160a01b031663c91b95666040518163ffffffff1660e01b8152600401602060405180830381865afa158015610528573d6000803e3d6000fd5b505050506040513d601f19601f8201168201806040525081019061054c9190612b9f565b6040516370a0823160e01b81526001600160a01b038a8116600483015291909116906370a0823190602401602060405180830381865afa158015610594573d6000803e3d6000fd5b505050506040513d601f19601f820116820180604052508101906105b89190612c3f565b10156105d757604051634986900b60e11b815260040160405180910390fd5b84546001600160a01b0316801561065b576001600160a01b03811660009081526001602052604081208551610650926001600160401b038b169291600281111561062357610623612c58565b600281111561063457610634612c58565b8152602001908152602001600020611e1f90919063ffffffff16565b5061065b8482611e32565b85546001600160a01b0389166001600160a01b03199182168117885560006002808a0182905560018a0180549094169093556003890180546001600160801b031916905590815260209190915260409020805467ffffffffffffffff191690556106c5848961200e565b6001600160a01b0388166000908152600160205260408120855161072d926001600160401b038b169291600281111561070057610700612c58565b600281111561071157610711612c58565b815260200190815260200160002061219990919063ffffffff16565b50604080516001600160a01b0383811682526001600160401b038a1660208301528a16818301526060810185905290517f243f020c0b528445e46dbed2ba6a0e6aaa422a61564ba614ad1f8cf30a8e56ce9181900360800190a15050505050505050565b600061079b610815565b6001600160a01b031663720a70bd6107b1610c6c565b6040518263ffffffff1660e01b81526004016107cf91815260200190565b602060405180830381865afa1580156107ec573d6000803e3d6000fd5b505050506040513d601f19601f820116820180604052508101906108109190612b9f565b905090565b60006108106121a5565b6001600160a01b03821660009081526001602052604081206060919061088a908260ff8616600281111561085557610855612c58565b600281111561086657610866612c58565b600281111561087757610877612c58565b81526020019081526020016000206121e2565b9050600081516001600160401b038111156108a7576108a7612a63565b6040519080825280602002602001820160405280156108d0578160200160208202803683370190505b50905060005b825181101561092b578281815181106108f1576108f1612c6e565b602002602001015182828151811061090b5761090b612c6e565b6001600160401b03909216602092830291909101909101526001016108d6565b509150505b92915050565b600054610100900460ff16158080156109565750600054600160ff909116105b806109705750303b158015610970575060005460ff166001145b6109d75760405162461bcd60e51b815260206004820152602e60248201527f496e697469616c697a61626c653a20636f6e747261637420697320616c72656160448201526d191e481a5b9a5d1a585b1a5e995960921b606482015260840160405180910390fd5b6000805460ff1916600117905580156109fa576000805461ff0019166101001790555b8015610a40576000805461ff0019169055604051600181527f7f26b83ff96e1f2b6a682f133852f6798a09c465da95921460cefb38474024989060200160405180910390a15b5050565b610a4c611b65565b6001600160401b038116600090815260036020526040902080546001600160a01b03848116911614610a9157604051632f7782c560e01b815260040160405180910390fd5b6000610a9b610815565b6001600160a01b031663f5f026a36040518163ffffffff1660e01b8152600401602060405180830381865afa158015610ad8573d6000803e3d6000fd5b505050506040513d601f19601f82011682018060405250810190610afc9190612b9f565b604051630915dd5d60e01b81526001600160401b03851660048201526001600160a01b039190911690630915dd5d906024016040805180830381865afa158015610b4a573d6000803e3d6000fd5b505050506040513d601f19601f82011682018060405250810190610b6e9190612bbc565b5090506000610b7d8285611c24565b6001600160a01b03861660009081526001602052604081208251929350610bbb926001600160401b0388169290600281111561062357610623612c58565b50610bc68186611e32565b82546001600160a01b0319168355604080516001600160401b03861681526001600160a01b03871660208201527f2d7ab882c89b34472559b612309227fb1b2652d3b6b12bcf260a9b4d628331a3910160405180910390a15050505050565b6000610c2f610815565b6001600160a01b0316637b1039996040518163ffffffff1660e01b8152600401602060405180830381865afa1580156107ec573d6000803e3d6000fd5b604080516020808252818301909252600091309183918291906020820181803683370190505090506020609a60208301853c602001519392505050565b604080516020808252818301909252600091309183918291906020820181803683370190505090506020605a60208301853c602001519392505050565b610cee611b65565b6001600160401b038116600090815260036020526040902060018101546001600160a01b03848116911614610d3657604051633ccbf74b60e21b815260040160405180910390fd5b60038101546001600160401b03600160401b9091048116429091161015610eac57826001600160a01b031663bea42f9c6040518163ffffffff1660e01b8152600401600060405180830381600087803b158015610d9257600080fd5b505af1158015610da6573d6000803e3d6000fd5b50505050610db2610791565b6001600160a01b031663c91b95666040518163ffffffff1660e01b8152600401602060405180830381865afa158015610def573d6000803e3d6000fd5b505050506040513d601f19601f82011682018060405250810190610e139190612b9f565b6001600160a01b031663af7d6ca384670de0b6b3a764000067058d15e1762800008560020154610e439190612c06565b610e4d9190612c1d565b6040516001600160e01b031960e085901b1681526001600160a01b0390921660048301526024820152604401600060405180830381600087803b158015610e9357600080fd5b505af1158015610ea7573d6000803e3d6000fd5b505050505b600060028281018290556001830180546001600160a01b03191690556003830180546001600160801b03191690556001600160a01b0385168083526020918252604092839020805467ffffffffffffffff1916905582516001600160401b0386168152918201527fe569daab5509951e0f3c0f72e36514dfc13e05dfffffe224e5d727679b0164f5910160405180910390a1505050565b610f4b611b65565b6000610f55610815565b6001600160a01b031663f5f026a36040518163ffffffff1660e01b8152600401602060405180830381865afa158015610f92573d6000803e3d6000fd5b505050506040513d601f19601f82011682018060405250810190610fb69190612b9f565b604051630915dd5d60e01b81526001600160401b03841660048201526001600160a01b039190911690630915dd5d906024016040805180830381865afa158015611004573d6000803e3d6000fd5b505050506040513d601f19601f820116820180604052508101906110289190612bbc565b50905060006110378284611c24565b905060008151600281111561104e5761104e612c58565b0361105857505050565b6001600160401b038316600090815260036020526040902080546001600160a01b0316156110d35780546001600160a01b0316600090815260016020526040812083516110bc926001600160401b0388169291600281111561062357610623612c58565b5080546110d39083906001600160a01b0316611e32565b60018101546001600160a01b0316156111125760018101546001600160a01b03166000908152600260205260409020805467ffffffffffffffff191690555b80546001600160a01b0319908116825560006002830155600182018054909116905560030180546001600160801b031916905550505b50565b6000611155610c25565b6001600160a01b031663ece56a1a6040518163ffffffff1660e01b8152600401602060405180830381865afa1580156107ec573d6000803e3d6000fd5b61119a611b65565b6000839050806001600160a01b031663bea42f9c6040518163ffffffff1660e01b8152600401600060405180830381600087803b1580156111da57600080fd5b505af11580156111ee573d6000803e3d6000fd5b505050506000806111fd610815565b6001600160a01b031663f5f026a36040518163ffffffff1660e01b8152600401602060405180830381865afa15801561123a573d6000803e3d6000fd5b505050506040513d601f19601f8201168201806040525081019061125e9190612b9f565b604051630915dd5d60e01b81526001600160401b03871660048201526001600160a01b039190911690630915dd5d906024016040805180830381865afa1580156112ac573d6000803e3d6000fd5b505050506040513d601f19601f820116820180604052508101906112d09190612bbc565b91509150806112f25760405163099b856f60e41b815260040160405180910390fd5b60006112fe8387611c24565b519050600061130b610791565b60405163c5375e9960e01b81526001600160401b03861660048201526001600160a01b03919091169063c5375e9990602401602060405180830381865afa15801561135a573d6000803e3d6000fd5b505050506040513d601f19601f8201168201806040525081019061137e9190612b9f565b6001600160a01b0316036113a55760405163e45913b360e01b815260040160405180910390fd5b60006113af610815565b6001600160a01b031663a8d66c756040518163ffffffff1660e01b8152600401602060405180830381865afa1580156113ec573d6000803e3d6000fd5b505050506040513d601f19601f820116820180604052508101906114109190612b9f565b60405163c4c31e8560e01b81526001600160401b03891660048201526001600160a01b03919091169063c4c31e8590602401602060405180830381865afa15801561145f573d6000803e3d6000fd5b505050506040513d601f19601f820116820180604052508101906114839190612b9f565b6001600160a01b0316146114aa576040516377dbcfb760e11b815260040160405180910390fd5b6001600160a01b0387166000908152600260205260409020546001600160401b0316156114ea5760405163d04ee71160e01b815260040160405180910390fd5b6115048160028111156114ff576114ff612c58565b6121ef565b6001600160a01b03881660009081526001602052604081206115569184600281111561153257611532612c58565b600281111561154357611543612c58565b815260200190815260200160002061221f565b0361157457604051637281145360e11b815260040160405180910390fd5b600081600281111561158857611588612c58565b036115a65760405163053ca15f60e51b815260040160405180910390fd5b846115af610791565b6001600160a01b031663c91b95666040518163ffffffff1660e01b8152600401602060405180830381865afa1580156115ec573d6000803e3d6000fd5b505050506040513d601f19601f820116820180604052508101906116109190612b9f565b6040516370a0823160e01b81526001600160a01b038a8116600483015291909116906370a0823190602401602060405180830381865afa158015611658573d6000803e3d6000fd5b505050506040513d601f19601f8201168201806040525081019061167c9190612c3f565b101561169b576040516345f294f560e01b815260040160405180910390fd5b6001600160401b0386166000908152600360205260408120600181015490916001600160a01b0390911690816116d25760006116d8565b82600201545b905060006116e4610815565b6001600160a01b031663f5f026a36040518163ffffffff1660e01b8152600401602060405180830381865afa158015611721573d6000803e3d6000fd5b505050506040513d601f19601f820116820180604052508101906117459190612b9f565b6001600160a01b03166340adb9d58b8a6001600160a01b03166309218e916040518163ffffffff1660e01b8152600401602060405180830381865afa158015611792573d6000803e3d6000fd5b505050506040513d601f19601f820116820180604052508101906117b69190612c84565b6040516001600160e01b031960e085901b1681526001600160401b03928316600482015291166024820152604401602060405180830381865afa158015611801573d6000803e3d6000fd5b505050506040513d601f19601f820116820180604052508101906118259190612c84565b6001600160401b0316905061183a8282612229565b89101561185a57604051634f396a6f60e11b815260040160405180910390fd5b6001600160a01b038316156119d7576001600160a01b038316600081815260026020526040808220805467ffffffffffffffff191690558051632fa90be760e21b8152905163bea42f9c9260048084019391929182900301818387803b1580156118c357600080fd5b505af11580156118d7573d6000803e3d6000fd5b505050506118e3610791565b6001600160a01b031663c91b95666040518163ffffffff1660e01b8152600401602060405180830381865afa158015611920573d6000803e3d6000fd5b505050506040513d601f19601f820116820180604052508101906119449190612b9f565b6001600160a01b031663af7d6ca384670de0b6b3a764000061196e67058d15e17628000087612c06565b6119789190612c1d565b6040516001600160e01b031960e085901b1681526001600160a01b0390921660048301526024820152604401600060405180830381600087803b1580156119be57600080fd5b505af11580156119d2573d6000803e3d6000fd5b505050505b42600060016119e861465085612c06565b6119f49061a8c0612ca1565b6119fe9190612c1d565b611a089042612ca1565b90508a86600201819055508c8660010160006101000a8154816001600160a01b0302191690836001600160a01b03160217905550818660030160006101000a8154816001600160401b0302191690836001600160401b03160217905550808660030160086101000a8154816001600160401b0302191690836001600160401b031602179055508b600260008f6001600160a01b03166001600160a01b0316815260200190815260200160002060006101000a8154816001600160401b0302191690836001600160401b031602179055507f9bd7a4d817ec097236552d2df9d28dfbddd8c3653b1c72a29c10e5820c5ff165858d8f8e8686604051611b4e969594939291906001600160a01b0396871681526001600160401b039586166020820152939095166040840152606083019190915282166080820152911660a082015260c00190565b60405180910390a150505050505050505050505050565b6000611b6f610815565b9050336001600160a01b03821614801590611c06575060006001600160a01b03821663ebbe8034611b9e610c6c565b6040516001600160e01b031960e084901b1681526004810191909152336024820152604401602060405180830381865afa158015611be0573d6000803e3d6000fd5b505050506040513d601f19601f82011682018060405250810190611c049190612c3f565b145b156111485760405163422656d160e01b815260040160405180910390fd5b60408051808201909152600080825260208201526000611c42610815565b90506000816001600160a01b031663f5f026a36040518163ffffffff1660e01b8152600401602060405180830381865afa158015611c84573d6000803e3d6000fd5b505050506040513d601f19601f82011682018060405250810190611ca89190612b9f565b60405163335cf12b60e11b81526001600160401b03871660048201529091506000906001600160a01b038316906366b9e25690602401602060405180830381865afa158015611cfb573d6000803e3d6000fd5b505050506040513d601f19601f82011682018060405250810190611d1f9190612c3f565b90506000611d2c826122af565b90506000846001600160a01b031663041cb8466040518163ffffffff1660e01b8152600401602060405180830381865afa158015611d6e573d6000803e3d6000fd5b505050506040513d601f19601f82011682018060405250810190611d929190612c3f565b60405163d1331b0760e01b815260048101829052602481018490526001600160401b03891660448201529091506001600160a01b0385169063d1331b07906064016040805180830381865afa158015611def573d6000803e3d6000fd5b505050506040513d601f19601f82011682018060405250810190611e139190612cb4565b98975050505050505050565b6000611e2b8383612325565b9392505050565b600182516002811115611e4757611e47612c58565b03611f2f57600080611e5c8460200151612418565b604051631b973c5760e21b81526004810183905291935091506001600160a01b03841690636e5cf15c90602401602060405180830381865afa158015611ea6573d6000803e3d6000fd5b505050506040513d601f19601f82011682018060405250810190611eca9190612b9f565b6001600160a01b03166343e77f46826040518263ffffffff1660e01b8152600401611ef791815260200190565b600060405180830381600087803b158015611f1157600080fd5b505af1158015611f25573d6000803e3d6000fd5b5050505050505050565b600282516002811115611f4457611f44612c58565b03611ff557600080611f59846020015161279b565b91509150826001600160a01b031663f10e38af6040518163ffffffff1660e01b8152600401602060405180830381865afa158015611f9b573d6000803e3d6000fd5b505050506040513d601f19601f82011682018060405250810190611fbf9190612b9f565b604051630890b98560e21b815260048101849052602481018390526001600160a01b039190911690632242e61490604401611ef7565b60405163a56cd49160e01b815260040160405180910390fd5b60018251600281111561202357612023612c58565b036120d3576000806120388460200151612418565b604051631b973c5760e21b81526004810183905291935091506001600160a01b03841690636e5cf15c90602401602060405180830381865afa158015612082573d6000803e3d6000fd5b505050506040513d601f19601f820116820180604052508101906120a69190612b9f565b6001600160a01b031663ae6fd51d826040518263ffffffff1660e01b8152600401611ef791815260200190565b6002825160028111156120e8576120e8612c58565b03611ff5576000806120fd846020015161279b565b91509150826001600160a01b031663f10e38af6040518163ffffffff1660e01b8152600401602060405180830381865afa15801561213f573d6000803e3d6000fd5b505050506040513d601f19601f820116820180604052508101906121639190612b9f565b60405163574f412560e01b815260048101849052602481018390526001600160a01b03919091169063574f412590604401611ef7565b6000611e2b83836128af565b604080516014808252818301909252600091309183918291906020820181803683370190505090506014602a60208301853c601401519392505050565b60606000611e2b836128fe565b60008160ff1660010361220457506002919050565b8160ff1660020361221757506001919050565b506000919050565b6000610930825490565b60008260000361225f57612245674563918244f4000083612c06565b612258906802b5e3af16b1880000612ca1565b9050610930565b600061227367016345785d8a000084612c06565b61228590670f43fc2c04ee0000612ca1565b90506000670de0b6b3a764000061229c8387612c06565b6122a69190612c1d565b95945050505050565b6000816001036122c75750668e1bc9bf040000919050565b816002036122de575067011c37937e080000919050565b816003036122f557506701aa535d3d0c0000919050565b8160040361230c5750670214e8348c4f0000919050565b60405163ea3b0abb60e01b815260040160405180910390fd5b6000818152600183016020526040812054801561240e576000612349600183612d18565b855490915060009061235d90600190612d18565b90508181146123c257600086600001828154811061237d5761237d612c6e565b90600052602060002001549050808760000184815481106123a0576123a0612c6e565b6000918252602080832090910192909255918252600188019052604090208390555b85548690806123d3576123d3612d2b565b600190038181906000526020600020016000905590558560010160008681526020019081526020016000206000905560019350505050610930565b6000915050610930565b6000808260ff166000036124735750506040805180820190915260048152634641524d60e01b602090910152507f15e7d524175663fc8929751799c4e1a8d04fec20bebd7ac2f10532927c1b5c0d906703782dace9d9000090565b8260ff166001036124cb5750506040805180820190915260048152634641524d60e01b602090910152507f15e7d524175663fc8929751799c4e1a8d04fec20bebd7ac2f10532927c1b5c0d9067058d15e17628000090565b8260ff1660020361252957505060408051808201909152600a8152691315535091549352531360b21b602090910152507f6efa3da32b5b0a21cf9c6f5bc9edeb1d9e3a4b88cc5eb7b649f1e5029410165990670429d069189e000090565b8260ff1660030361258757505060408051808201909152600a8152691315535091549352531360b21b602090910152507f6efa3da32b5b0a21cf9c6f5bc9edeb1d9e3a4b88cc5eb7b649f1e5029410165990670853a0d2313c000090565b8260ff166004036125df5750506040805180820190915260048152634d494e4560e01b602090910152507f458fc043506cc6fea16e7daa38390499ef978846d88dd78fe56678ac9de79444906706f05b59d3b2000090565b8260ff166005036126375750506040805180820190915260048152634d494e4560e01b602090910152507f458fc043506cc6fea16e7daa38390499ef978846d88dd78fe56678ac9de7944490670b1a2bc2ec50000090565b8260ff16600603612691575050604080518082019091526006815265534d4954485960d01b602090910152507fe8d22c09878b0ae66551f207dc5f243823c9e1989bc2d5dfab58fb1a93386fd2906709b6e64a8ec6000090565b8260ff166007036126eb575050604080518082019091526006815265534d4954485960d01b602090910152507fe8d22c09878b0ae66551f207dc5f243823c9e1989bc2d5dfab58fb1a93386fd290670de0b6b3a764000090565b8260ff166008036127435750506040805180820190915260048152631193d49560e21b602090910152507f2911d5ca388af24ed7f391a4eb24469bc0fd8935cd73bb1075ca7e702a42eb199067058d15e17628000090565b8260ff1660090361230c5750506040805180820190915260048152631193d49560e21b602090910152507f2911d5ca388af24ed7f391a4eb24469bc0fd8935cd73bb1075ca7e702a42eb1990670853a0d2313c000090565b6000808260ff166000036127f95750506040805180820190915260078152662ba0a92924a7a960c91b602090910152507f69c5317e5ce44f1a1fb56c6a5eff904214e6353da6310ab0a6b511eef9a7c39190670429d069189e000090565b8260ff1660010361285357505060408051808201909152600681526520a921a422a960d11b602090910152507f42de5fbfc07577d3e9942df95dd4e61cabcab8907d5d333240140b2999379e40906706f05b59d3b2000090565b8260ff1660020361230c5750506040805180820190915260088152672427a929a2a6a0a760c11b602090910152507f89d5ee6f4fcb32fb3c151bc25e6bc320fec82ba89cb3b29d1969d907e0e6793990670de0b6b3a764000090565b60008181526001830160205260408120546128f657508154600181810184556000848152602080822090930184905584548482528286019093526040902091909155610930565b506000610930565b60608160000180548060200260200160405190810160405280929190818152602001828054801561294e57602002820191906000526020600020905b81548152602001906001019080831161293a575b50505050509050919050565b6001600160a01b038116811461114857600080fd5b6001600160401b038116811461114857600080fd5b6000806040838503121561299757600080fd5b82356129a28161295a565b915060208301356129b28161296f565b809150509250929050565b6000602082840312156129cf57600080fd5b8135611e2b8161295a565b60ff8116811461114857600080fd5b600080604083850312156129fc57600080fd5b8235612a078161295a565b915060208301356129b2816129da565b602080825282518282018190526000918401906040840190835b81811015612a585783516001600160401b0316835260209384019390920191600101612a31565b509095945050505050565b634e487b7160e01b600052604160045260246000fd5b604051601f8201601f191681016001600160401b0381118282101715612aa157612aa1612a63565b604052919050565b600060208284031215612abb57600080fd5b81356001600160401b03811115612ad157600080fd5b8201601f81018413612ae257600080fd5b80356001600160401b03811115612afb57612afb612a63565b612b0e601f8201601f1916602001612a79565b818152856020838501011115612b2357600080fd5b81602084016020830137600091810160200191909152949350505050565b600060208284031215612b5357600080fd5b8135611e2b8161296f565b600080600060608486031215612b7357600080fd5b8335612b7e8161295a565b92506020840135612b8e8161296f565b929592945050506040919091013590565b600060208284031215612bb157600080fd5b8151611e2b8161295a565b60008060408385031215612bcf57600080fd5b8251612bda8161296f565b602084015190925080151581146129b257600080fd5b634e487b7160e01b600052601160045260246000fd5b808202811582820484141761093057610930612bf0565b600082612c3a57634e487b7160e01b600052601260045260246000fd5b500490565b600060208284031215612c5157600080fd5b5051919050565b634e487b7160e01b600052602160045260246000fd5b634e487b7160e01b600052603260045260246000fd5b600060208284031215612c9657600080fd5b8151611e2b8161296f565b8082018082111561093057610930612bf0565b60006040828403128015612cc757600080fd5b50604080519081016001600160401b0381118282101715612cea57612cea612a63565b604052825160038110612cfc57600080fd5b81526020830151612d0c816129da565b60208201529392505050565b8181038181111561093057610930612bf0565b634e487b7160e01b600052603160045260246000fdfea2646970667358221220bf23c9dd132332d237610ddfb6820d14e9d8e418d1bd47aa58ac9cb920788c7164736f6c634300081a0033",
  "linkReferences": {},
  "deployedLinkReferences": {}
}